{
	"contracts/_Lottery.sol": {
		"Lottery": {
			"abi": [
				{
					"inputs": [],
					"stateMutability": "nonpayable",
					"type": "constructor"
				},
				{
					"inputs": [],
					"name": "enter",
					"outputs": [],
					"stateMutability": "payable",
					"type": "function"
				},
				{
					"inputs": [],
					"name": "getBalance",
					"outputs": [
						{
							"internalType": "uint256",
							"name": "",
							"type": "uint256"
						}
					],
					"stateMutability": "view",
					"type": "function"
				},
				{
					"inputs": [],
					"name": "getPlayers",
					"outputs": [
						{
							"internalType": "address payable[]",
							"name": "",
							"type": "address[]"
						}
					],
					"stateMutability": "view",
					"type": "function"
				},
				{
					"inputs": [],
					"name": "getRandomNumber",
					"outputs": [
						{
							"internalType": "uint256",
							"name": "",
							"type": "uint256"
						}
					],
					"stateMutability": "view",
					"type": "function"
				},
				{
					"inputs": [
						{
							"internalType": "uint256",
							"name": "lottery",
							"type": "uint256"
						}
					],
					"name": "getWinnerByLottery",
					"outputs": [
						{
							"internalType": "address payable",
							"name": "",
							"type": "address"
						}
					],
					"stateMutability": "view",
					"type": "function"
				},
				{
					"inputs": [
						{
							"internalType": "uint256",
							"name": "",
							"type": "uint256"
						}
					],
					"name": "lotteryHistory",
					"outputs": [
						{
							"internalType": "address payable",
							"name": "",
							"type": "address"
						}
					],
					"stateMutability": "view",
					"type": "function"
				},
				{
					"inputs": [],
					"name": "lotteryId",
					"outputs": [
						{
							"internalType": "uint256",
							"name": "",
							"type": "uint256"
						}
					],
					"stateMutability": "view",
					"type": "function"
				},
				{
					"inputs": [],
					"name": "owner",
					"outputs": [
						{
							"internalType": "address",
							"name": "",
							"type": "address"
						}
					],
					"stateMutability": "view",
					"type": "function"
				},
				{
					"inputs": [],
					"name": "pickWinner",
					"outputs": [],
					"stateMutability": "nonpayable",
					"type": "function"
				},
				{
					"inputs": [
						{
							"internalType": "uint256",
							"name": "",
							"type": "uint256"
						}
					],
					"name": "players",
					"outputs": [
						{
							"internalType": "address payable",
							"name": "",
							"type": "address"
						}
					],
					"stateMutability": "view",
					"type": "function"
				}
			],
			"devdoc": {
				"kind": "dev",
				"methods": {},
				"version": 1
			},
			"evm": {
				"assembly": "    /* \"contracts/_Lottery.sol\":60:1481  contract Lottery{... */\n  mstore(0x40, 0x80)\n    /* \"contracts/_Lottery.sol\":239:311  constructor(){... */\n  callvalue\n  dup1\n  iszero\n  tag_1\n  jumpi\n  0x00\n  dup1\n  revert\ntag_1:\n  pop\n    /* \"contracts/_Lottery.sol\":269:279  msg.sender */\n  caller\n    /* \"contracts/_Lottery.sol\":263:268  owner */\n  0x00\n  dup1\n    /* \"contracts/_Lottery.sol\":263:279  owner=msg.sender */\n  0x0100\n  exp\n  dup2\n  sload\n  dup2\n  0xffffffffffffffffffffffffffffffffffffffff\n  mul\n  not\n  and\n  swap1\n  dup4\n  0xffffffffffffffffffffffffffffffffffffffff\n  and\n  mul\n  or\n  swap1\n  sstore\n  pop\n    /* \"contracts/_Lottery.sol\":300:301  1 */\n  0x01\n    /* \"contracts/_Lottery.sol\":290:299  lotteryId */\n  0x02\n    /* \"contracts/_Lottery.sol\":290:301  lotteryId=1 */\n  dup2\n  swap1\n  sstore\n  pop\n    /* \"contracts/_Lottery.sol\":60:1481  contract Lottery{... */\n  dataSize(sub_0)\n  dup1\n  dataOffset(sub_0)\n  0x00\n  codecopy\n  0x00\n  return\nstop\n\nsub_0: assembly {\n        /* \"contracts/_Lottery.sol\":60:1481  contract Lottery{... */\n      mstore(0x40, 0x80)\n      jumpi(tag_1, lt(calldatasize, 0x04))\n      shr(0xe0, calldataload(0x00))\n      dup1\n      0x8da5cb5b\n      gt\n      tag_12\n      jumpi\n      dup1\n      0x8da5cb5b\n      eq\n      tag_7\n      jumpi\n      dup1\n      0xdbdff2c1\n      eq\n      tag_8\n      jumpi\n      dup1\n      0xe580f47b\n      eq\n      tag_9\n      jumpi\n      dup1\n      0xe97dcb62\n      eq\n      tag_10\n      jumpi\n      dup1\n      0xf71d96cb\n      eq\n      tag_11\n      jumpi\n      jump(tag_1)\n    tag_12:\n      dup1\n      0x12065fe0\n      eq\n      tag_2\n      jumpi\n      dup1\n      0x281d098d\n      eq\n      tag_3\n      jumpi\n      dup1\n      0x5d495aea\n      eq\n      tag_4\n      jumpi\n      dup1\n      0x6d6fe230\n      eq\n      tag_5\n      jumpi\n      dup1\n      0x8b5b9ccc\n      eq\n      tag_6\n      jumpi\n    tag_1:\n      0x00\n      dup1\n      revert\n        /* \"contracts/_Lottery.sol\":450:544  function getBalance() public view returns(uint){... */\n    tag_2:\n      callvalue\n      dup1\n      iszero\n      tag_13\n      jumpi\n      0x00\n      dup1\n      revert\n    tag_13:\n      pop\n      tag_14\n      tag_15\n      jump\t// in\n    tag_14:\n      mload(0x40)\n      tag_16\n      swap2\n      swap1\n      tag_17\n      jump\t// in\n    tag_16:\n      mload(0x40)\n      dup1\n      swap2\n      sub\n      swap1\n      return\n        /* \"contracts/_Lottery.sol\":317:444  function getWinnerByLottery(uint lottery) public view returns(address payable){... */\n    tag_3:\n      callvalue\n      dup1\n      iszero\n      tag_18\n      jumpi\n      0x00\n      dup1\n      revert\n    tag_18:\n      pop\n      tag_19\n      0x04\n      dup1\n      calldatasize\n      sub\n      dup2\n      add\n      swap1\n      tag_20\n      swap2\n      swap1\n      tag_21\n      jump\t// in\n    tag_20:\n      tag_22\n      jump\t// in\n    tag_19:\n      mload(0x40)\n      tag_23\n      swap2\n      swap1\n      tag_24\n      jump\t// in\n    tag_23:\n      mload(0x40)\n      dup1\n      swap2\n      sub\n      swap1\n      return\n        /* \"contracts/_Lottery.sol\":1014:1358  function pickWinner() public onlyOwner{... */\n    tag_4:\n      callvalue\n      dup1\n      iszero\n      tag_25\n      jumpi\n      0x00\n      dup1\n      revert\n    tag_25:\n      pop\n      tag_26\n      tag_27\n      jump\t// in\n    tag_26:\n      stop\n        /* \"contracts/_Lottery.sol\":177:230  mapping (uint=>address payable) public lotteryHistory */\n    tag_5:\n      callvalue\n      dup1\n      iszero\n      tag_28\n      jumpi\n      0x00\n      dup1\n      revert\n    tag_28:\n      pop\n      tag_29\n      0x04\n      dup1\n      calldatasize\n      sub\n      dup2\n      add\n      swap1\n      tag_30\n      swap2\n      swap1\n      tag_21\n      jump\t// in\n    tag_30:\n      tag_31\n      jump\t// in\n    tag_29:\n      mload(0x40)\n      tag_32\n      swap2\n      swap1\n      tag_24\n      jump\t// in\n    tag_32:\n      mload(0x40)\n      dup1\n      swap2\n      sub\n      swap1\n      return\n        /* \"contracts/_Lottery.sol\":550:651  function getPlayers() public view returns (address payable[] memory){... */\n    tag_6:\n      callvalue\n      dup1\n      iszero\n      tag_33\n      jumpi\n      0x00\n      dup1\n      revert\n    tag_33:\n      pop\n      tag_34\n      tag_35\n      jump\t// in\n    tag_34:\n      mload(0x40)\n      tag_36\n      swap2\n      swap1\n      tag_37\n      jump\t// in\n    tag_36:\n      mload(0x40)\n      dup1\n      swap2\n      sub\n      swap1\n      return\n        /* \"contracts/_Lottery.sol\":83:103  address public owner */\n    tag_7:\n      callvalue\n      dup1\n      iszero\n      tag_38\n      jumpi\n      0x00\n      dup1\n      revert\n    tag_38:\n      pop\n      tag_39\n      tag_40\n      jump\t// in\n    tag_39:\n      mload(0x40)\n      tag_41\n      swap2\n      swap1\n      tag_42\n      jump\t// in\n    tag_41:\n      mload(0x40)\n      dup1\n      swap2\n      sub\n      swap1\n      return\n        /* \"contracts/_Lottery.sol\":871:1006  function getRandomNumber() public view returns (uint){... */\n    tag_8:\n      callvalue\n      dup1\n      iszero\n      tag_43\n      jumpi\n      0x00\n      dup1\n      revert\n    tag_43:\n      pop\n      tag_44\n      tag_45\n      jump\t// in\n    tag_44:\n      mload(0x40)\n      tag_46\n      swap2\n      swap1\n      tag_17\n      jump\t// in\n    tag_46:\n      mload(0x40)\n      dup1\n      swap2\n      sub\n      swap1\n      return\n        /* \"contracts/_Lottery.sol\":149:170  uint public lotteryId */\n    tag_9:\n      callvalue\n      dup1\n      iszero\n      tag_47\n      jumpi\n      0x00\n      dup1\n      revert\n    tag_47:\n      pop\n      tag_48\n      tag_49\n      jump\t// in\n    tag_48:\n      mload(0x40)\n      tag_50\n      swap2\n      swap1\n      tag_17\n      jump\t// in\n    tag_50:\n      mload(0x40)\n      dup1\n      swap2\n      sub\n      swap1\n      return\n        /* \"contracts/_Lottery.sol\":659:865  function enter() public payable{... */\n    tag_10:\n      tag_51\n      tag_52\n      jump\t// in\n    tag_51:\n      stop\n        /* \"contracts/_Lottery.sol\":110:142  address payable[] public players */\n    tag_11:\n      callvalue\n      dup1\n      iszero\n      tag_53\n      jumpi\n      0x00\n      dup1\n      revert\n    tag_53:\n      pop\n      tag_54\n      0x04\n      dup1\n      calldatasize\n      sub\n      dup2\n      add\n      swap1\n      tag_55\n      swap2\n      swap1\n      tag_21\n      jump\t// in\n    tag_55:\n      tag_56\n      jump\t// in\n    tag_54:\n      mload(0x40)\n      tag_57\n      swap2\n      swap1\n      tag_24\n      jump\t// in\n    tag_57:\n      mload(0x40)\n      dup1\n      swap2\n      sub\n      swap1\n      return\n        /* \"contracts/_Lottery.sol\":450:544  function getBalance() public view returns(uint){... */\n    tag_15:\n        /* \"contracts/_Lottery.sol\":492:496  uint */\n      0x00\n        /* \"contracts/_Lottery.sol\":515:536  address(this).balance */\n      selfbalance\n        /* \"contracts/_Lottery.sol\":508:536  return address(this).balance */\n      swap1\n      pop\n        /* \"contracts/_Lottery.sol\":450:544  function getBalance() public view returns(uint){... */\n      swap1\n      jump\t// out\n        /* \"contracts/_Lottery.sol\":317:444  function getWinnerByLottery(uint lottery) public view returns(address payable){... */\n    tag_22:\n        /* \"contracts/_Lottery.sol\":379:394  address payable */\n      0x00\n        /* \"contracts/_Lottery.sol\":413:427  lotteryHistory */\n      0x03\n        /* \"contracts/_Lottery.sol\":413:436  lotteryHistory[lottery] */\n      0x00\n        /* \"contracts/_Lottery.sol\":428:435  lottery */\n      dup4\n        /* \"contracts/_Lottery.sol\":413:436  lotteryHistory[lottery] */\n      dup2\n      mstore\n      0x20\n      add\n      swap1\n      dup2\n      mstore\n      0x20\n      add\n      0x00\n      keccak256\n      0x00\n      swap1\n      sload\n      swap1\n      0x0100\n      exp\n      swap1\n      div\n      0xffffffffffffffffffffffffffffffffffffffff\n      and\n        /* \"contracts/_Lottery.sol\":406:436  return lotteryHistory[lottery] */\n      swap1\n      pop\n        /* \"contracts/_Lottery.sol\":317:444  function getWinnerByLottery(uint lottery) public view returns(address payable){... */\n      swap2\n      swap1\n      pop\n      jump\t// out\n        /* \"contracts/_Lottery.sol\":1014:1358  function pickWinner() public onlyOwner{... */\n    tag_27:\n        /* \"contracts/_Lottery.sol\":1415:1420  owner */\n      0x00\n      dup1\n      sload\n      swap1\n      0x0100\n      exp\n      swap1\n      div\n      0xffffffffffffffffffffffffffffffffffffffff\n      and\n        /* \"contracts/_Lottery.sol\":1403:1420  msg.sender==owner */\n      0xffffffffffffffffffffffffffffffffffffffff\n      and\n        /* \"contracts/_Lottery.sol\":1403:1413  msg.sender */\n      caller\n        /* \"contracts/_Lottery.sol\":1403:1420  msg.sender==owner */\n      0xffffffffffffffffffffffffffffffffffffffff\n      and\n      eq\n        /* \"contracts/_Lottery.sol\":1395:1454  require(msg.sender==owner,\"only owner cna pick the winner\") */\n      tag_61\n      jumpi\n      mload(0x40)\n      0x08c379a000000000000000000000000000000000000000000000000000000000\n      dup2\n      mstore\n      0x04\n      add\n      tag_62\n      swap1\n      tag_63\n      jump\t// in\n    tag_62:\n      mload(0x40)\n      dup1\n      swap2\n      sub\n      swap1\n      revert\n    tag_61:\n        /* \"contracts/_Lottery.sol\":1073:1083  uint index */\n      0x00\n        /* \"contracts/_Lottery.sol\":1106:1113  players */\n      0x01\n        /* \"contracts/_Lottery.sol\":1106:1120  players.length */\n      dup1\n      sload\n      swap1\n      pop\n        /* \"contracts/_Lottery.sol\":1086:1103  getRandomNumber() */\n      tag_65\n        /* \"contracts/_Lottery.sol\":1086:1101  getRandomNumber */\n      tag_45\n        /* \"contracts/_Lottery.sol\":1086:1103  getRandomNumber() */\n      jump\t// in\n    tag_65:\n        /* \"contracts/_Lottery.sol\":1086:1120  getRandomNumber() % players.length */\n      tag_66\n      swap2\n      swap1\n      tag_67\n      jump\t// in\n    tag_66:\n        /* \"contracts/_Lottery.sol\":1073:1120  uint index = getRandomNumber() % players.length */\n      swap1\n      pop\n        /* \"contracts/_Lottery.sol\":1131:1138  players */\n      0x01\n        /* \"contracts/_Lottery.sol\":1139:1144  index */\n      dup2\n        /* \"contracts/_Lottery.sol\":1131:1145  players[index] */\n      dup2\n      sload\n      dup2\n      lt\n      tag_68\n      jumpi\n      tag_69\n      tag_70\n      jump\t// in\n    tag_69:\n    tag_68:\n      swap1\n      0x00\n      mstore\n      keccak256(0x00, 0x20)\n      add\n      0x00\n      swap1\n      sload\n      swap1\n      0x0100\n      exp\n      swap1\n      div\n      0xffffffffffffffffffffffffffffffffffffffff\n      and\n        /* \"contracts/_Lottery.sol\":1131:1154  players[index].transfer */\n      0xffffffffffffffffffffffffffffffffffffffff\n      and\n        /* \"contracts/_Lottery.sol\":1131:1177  players[index].transfer(address(this).balance) */\n      0x08fc\n        /* \"contracts/_Lottery.sol\":1155:1176  address(this).balance */\n      selfbalance\n        /* \"contracts/_Lottery.sol\":1131:1177  players[index].transfer(address(this).balance) */\n      swap1\n      dup2\n      iszero\n      mul\n      swap1\n      mload(0x40)\n      0x00\n      mload(0x40)\n      dup1\n      dup4\n      sub\n      dup2\n      dup6\n      dup9\n      dup9\n      call\n      swap4\n      pop\n      pop\n      pop\n      pop\n      iszero\n      dup1\n      iszero\n      tag_73\n      jumpi\n      returndatasize\n      0x00\n      dup1\n      returndatacopy\n      revert(0x00, returndatasize)\n    tag_73:\n      pop\n        /* \"contracts/_Lottery.sol\":1214:1221  players */\n      0x01\n        /* \"contracts/_Lottery.sol\":1222:1227  index */\n      dup2\n        /* \"contracts/_Lottery.sol\":1214:1228  players[index] */\n      dup2\n      sload\n      dup2\n      lt\n      tag_74\n      jumpi\n      tag_75\n      tag_70\n      jump\t// in\n    tag_75:\n    tag_74:\n      swap1\n      0x00\n      mstore\n      keccak256(0x00, 0x20)\n      add\n      0x00\n      swap1\n      sload\n      swap1\n      0x0100\n      exp\n      swap1\n      div\n      0xffffffffffffffffffffffffffffffffffffffff\n      and\n        /* \"contracts/_Lottery.sol\":1188:1202  lotteryHistory */\n      0x03\n        /* \"contracts/_Lottery.sol\":1188:1213  lotteryHistory[lotteryId] */\n      0x00\n        /* \"contracts/_Lottery.sol\":1203:1212  lotteryId */\n      sload(0x02)\n        /* \"contracts/_Lottery.sol\":1188:1213  lotteryHistory[lotteryId] */\n      dup2\n      mstore\n      0x20\n      add\n      swap1\n      dup2\n      mstore\n      0x20\n      add\n      0x00\n      keccak256\n      0x00\n        /* \"contracts/_Lottery.sol\":1188:1228  lotteryHistory[lotteryId]=players[index] */\n      0x0100\n      exp\n      dup2\n      sload\n      dup2\n      0xffffffffffffffffffffffffffffffffffffffff\n      mul\n      not\n      and\n      swap1\n      dup4\n      0xffffffffffffffffffffffffffffffffffffffff\n      and\n      mul\n      or\n      swap1\n      sstore\n      pop\n        /* \"contracts/_Lottery.sol\":1239:1248  lotteryId */\n      0x02\n      0x00\n        /* \"contracts/_Lottery.sol\":1239:1250  lotteryId++ */\n      dup2\n      sload\n      dup1\n      swap3\n      swap2\n      swap1\n      tag_77\n      swap1\n      tag_78\n      jump\t// in\n    tag_77:\n      swap2\n      swap1\n      pop\n      sstore\n      pop\n        /* \"contracts/_Lottery.sol\":1348:1349  0 */\n      0x00\n        /* \"contracts/_Lottery.sol\":1326:1350  new address payable[](0) */\n      0xffffffffffffffff\n      dup2\n      gt\n      iszero\n      tag_79\n      jumpi\n      tag_80\n      tag_81\n      jump\t// in\n    tag_80:\n    tag_79:\n      mload(0x40)\n      swap1\n      dup1\n      dup3\n      mstore\n      dup1\n      0x20\n      mul\n      0x20\n      add\n      dup3\n      add\n      0x40\n      mstore\n      dup1\n      iszero\n      tag_82\n      jumpi\n      dup2\n      0x20\n      add\n      0x20\n      dup3\n      mul\n      dup1\n      calldatasize\n      dup4\n      calldatacopy\n      dup1\n      dup3\n      add\n      swap2\n      pop\n      pop\n      swap1\n      pop\n    tag_82:\n      pop\n        /* \"contracts/_Lottery.sol\":1317:1324  players */\n      0x01\n        /* \"contracts/_Lottery.sol\":1317:1350  players= new address payable[](0) */\n      swap1\n      dup1\n      mload\n      swap1\n      0x20\n      add\n      swap1\n      tag_83\n      swap3\n      swap2\n      swap1\n      tag_84\n      jump\t// in\n    tag_83:\n      pop\n        /* \"contracts/_Lottery.sol\":1052:1358  {... */\n      pop\n        /* \"contracts/_Lottery.sol\":1014:1358  function pickWinner() public onlyOwner{... */\n      jump\t// out\n        /* \"contracts/_Lottery.sol\":177:230  mapping (uint=>address payable) public lotteryHistory */\n    tag_31:\n      mstore(0x20, 0x03)\n      dup1\n      0x00\n      mstore\n      keccak256(0x00, 0x40)\n      0x00\n      swap2\n      pop\n      sload\n      swap1\n      0x0100\n      exp\n      swap1\n      div\n      0xffffffffffffffffffffffffffffffffffffffff\n      and\n      dup2\n      jump\t// out\n        /* \"contracts/_Lottery.sol\":550:651  function getPlayers() public view returns (address payable[] memory){... */\n    tag_35:\n        /* \"contracts/_Lottery.sol\":593:617  address payable[] memory */\n      0x60\n        /* \"contracts/_Lottery.sol\":636:643  players */\n      0x01\n        /* \"contracts/_Lottery.sol\":629:643  return players */\n      dup1\n      sload\n      dup1\n      0x20\n      mul\n      0x20\n      add\n      mload(0x40)\n      swap1\n      dup2\n      add\n      0x40\n      mstore\n      dup1\n      swap3\n      swap2\n      swap1\n      dup2\n      dup2\n      mstore\n      0x20\n      add\n      dup3\n      dup1\n      sload\n      dup1\n      iszero\n      tag_86\n      jumpi\n      0x20\n      mul\n      dup3\n      add\n      swap2\n      swap1\n      0x00\n      mstore\n      keccak256(0x00, 0x20)\n      swap1\n    tag_87:\n      dup2\n      0x00\n      swap1\n      sload\n      swap1\n      0x0100\n      exp\n      swap1\n      div\n      0xffffffffffffffffffffffffffffffffffffffff\n      and\n      0xffffffffffffffffffffffffffffffffffffffff\n      and\n      dup2\n      mstore\n      0x20\n      add\n      swap1\n      0x01\n      add\n      swap1\n      dup1\n      dup4\n      gt\n      tag_87\n      jumpi\n    tag_86:\n      pop\n      pop\n      pop\n      pop\n      pop\n      swap1\n      pop\n        /* \"contracts/_Lottery.sol\":550:651  function getPlayers() public view returns (address payable[] memory){... */\n      swap1\n      jump\t// out\n        /* \"contracts/_Lottery.sol\":83:103  address public owner */\n    tag_40:\n      0x00\n      dup1\n      sload\n      swap1\n      0x0100\n      exp\n      swap1\n      div\n      0xffffffffffffffffffffffffffffffffffffffff\n      and\n      dup2\n      jump\t// out\n        /* \"contracts/_Lottery.sol\":871:1006  function getRandomNumber() public view returns (uint){... */\n    tag_45:\n        /* \"contracts/_Lottery.sol\":919:923  uint */\n      0x00\n        /* \"contracts/_Lottery.sol\":974:979  owner */\n      dup1\n      0x00\n      swap1\n      sload\n      swap1\n      0x0100\n      exp\n      swap1\n      div\n      0xffffffffffffffffffffffffffffffffffffffff\n      and\n        /* \"contracts/_Lottery.sol\":980:995  block.timestamp */\n      timestamp\n        /* \"contracts/_Lottery.sol\":957:996  abi.encodePacked(owner,block.timestamp) */\n      add(0x20, mload(0x40))\n      tag_89\n      swap3\n      swap2\n      swap1\n      tag_90\n      jump\t// in\n    tag_89:\n      mload(0x40)\n      0x20\n      dup2\n      dup4\n      sub\n      sub\n      dup2\n      mstore\n      swap1\n      0x40\n      mstore\n        /* \"contracts/_Lottery.sol\":947:997  keccak256(abi.encodePacked(owner,block.timestamp)) */\n      dup1\n      mload\n      swap1\n      0x20\n      add\n      keccak256\n        /* \"contracts/_Lottery.sol\":942:998  uint(keccak256(abi.encodePacked(owner,block.timestamp))) */\n      0x00\n      shr\n        /* \"contracts/_Lottery.sol\":935:998  return uint(keccak256(abi.encodePacked(owner,block.timestamp))) */\n      swap1\n      pop\n        /* \"contracts/_Lottery.sol\":871:1006  function getRandomNumber() public view returns (uint){... */\n      swap1\n      jump\t// out\n        /* \"contracts/_Lottery.sol\":149:170  uint public lotteryId */\n    tag_49:\n      sload(0x02)\n      dup2\n      jump\t// out\n        /* \"contracts/_Lottery.sol\":659:865  function enter() public payable{... */\n    tag_52:\n        /* \"contracts/_Lottery.sol\":719:729  .001 ether */\n      0x038d7ea4c68000\n        /* \"contracts/_Lottery.sol\":709:718  msg.value */\n      callvalue\n        /* \"contracts/_Lottery.sol\":709:729  msg.value>.001 ether */\n      gt\n        /* \"contracts/_Lottery.sol\":701:767  require(msg.value>.001 ether,\"Need grater than 0.001 ether man!!\") */\n      tag_92\n      jumpi\n      mload(0x40)\n      0x08c379a000000000000000000000000000000000000000000000000000000000\n      dup2\n      mstore\n      0x04\n      add\n      tag_93\n      swap1\n      tag_94\n      jump\t// in\n    tag_93:\n      mload(0x40)\n      dup1\n      swap2\n      sub\n      swap1\n      revert\n    tag_92:\n        /* \"contracts/_Lottery.sol\":824:831  players */\n      0x01\n        /* \"contracts/_Lottery.sol\":845:855  msg.sender */\n      caller\n        /* \"contracts/_Lottery.sol\":824:857  players.push(payable(msg.sender)) */\n      swap1\n      dup1\n      0x01\n      dup2\n      sload\n      add\n      dup1\n      dup3\n      sstore\n      dup1\n      swap2\n      pop\n      pop\n      0x01\n      swap1\n      sub\n      swap1\n      0x00\n      mstore\n      keccak256(0x00, 0x20)\n      add\n      0x00\n      swap1\n      swap2\n      swap1\n      swap2\n      swap1\n      swap2\n      0x0100\n      exp\n      dup2\n      sload\n      dup2\n      0xffffffffffffffffffffffffffffffffffffffff\n      mul\n      not\n      and\n      swap1\n      dup4\n      0xffffffffffffffffffffffffffffffffffffffff\n      and\n      mul\n      or\n      swap1\n      sstore\n      pop\n        /* \"contracts/_Lottery.sol\":659:865  function enter() public payable{... */\n      jump\t// out\n        /* \"contracts/_Lottery.sol\":110:142  address payable[] public players */\n    tag_56:\n      0x01\n      dup2\n      dup2\n      sload\n      dup2\n      lt\n      tag_96\n      jumpi\n      0x00\n      dup1\n      revert\n    tag_96:\n      swap1\n      0x00\n      mstore\n      keccak256(0x00, 0x20)\n      add\n      0x00\n      swap2\n      pop\n      sload\n      swap1\n      0x0100\n      exp\n      swap1\n      div\n      0xffffffffffffffffffffffffffffffffffffffff\n      and\n      dup2\n      jump\t// out\n    tag_84:\n      dup3\n      dup1\n      sload\n      dup3\n      dup3\n      sstore\n      swap1\n      0x00\n      mstore\n      keccak256(0x00, 0x20)\n      swap1\n      dup2\n      add\n      swap3\n      dup3\n      iszero\n      tag_98\n      jumpi\n      swap2\n      0x20\n      mul\n      dup3\n      add\n    tag_99:\n      dup3\n      dup2\n      gt\n      iszero\n      tag_100\n      jumpi\n      dup3\n      mload\n      dup3\n      exp(0x0100, 0x00)\n      dup2\n      sload\n      dup2\n      0xffffffffffffffffffffffffffffffffffffffff\n      mul\n      not\n      and\n      swap1\n      dup4\n      0xffffffffffffffffffffffffffffffffffffffff\n      and\n      mul\n      or\n      swap1\n      sstore\n      pop\n      swap2\n      0x20\n      add\n      swap2\n      swap1\n      0x01\n      add\n      swap1\n      jump(tag_99)\n    tag_100:\n    tag_98:\n      pop\n      swap1\n      pop\n      tag_101\n      swap2\n      swap1\n      tag_102\n      jump\t// in\n    tag_101:\n      pop\n      swap1\n      jump\t// out\n    tag_102:\n    tag_103:\n      dup1\n      dup3\n      gt\n      iszero\n      tag_104\n      jumpi\n      0x00\n      dup2\n      0x00\n      swap1\n      sstore\n      pop\n      0x01\n      add\n      jump(tag_103)\n    tag_104:\n      pop\n      swap1\n      jump\t// out\n        /* \"#utility.yul\":7:84   */\n    tag_105:\n        /* \"#utility.yul\":44:51   */\n      0x00\n        /* \"#utility.yul\":73:78   */\n      dup2\n        /* \"#utility.yul\":62:78   */\n      swap1\n      pop\n        /* \"#utility.yul\":7:84   */\n      swap2\n      swap1\n      pop\n      jump\t// out\n        /* \"#utility.yul\":90:208   */\n    tag_106:\n        /* \"#utility.yul\":177:201   */\n      tag_140\n        /* \"#utility.yul\":195:200   */\n      dup2\n        /* \"#utility.yul\":177:201   */\n      tag_105\n      jump\t// in\n    tag_140:\n        /* \"#utility.yul\":172:175   */\n      dup3\n        /* \"#utility.yul\":165:202   */\n      mstore\n        /* \"#utility.yul\":90:208   */\n      pop\n      pop\n      jump\t// out\n        /* \"#utility.yul\":214:436   */\n    tag_17:\n        /* \"#utility.yul\":307:311   */\n      0x00\n        /* \"#utility.yul\":345:347   */\n      0x20\n        /* \"#utility.yul\":334:343   */\n      dup3\n        /* \"#utility.yul\":330:348   */\n      add\n        /* \"#utility.yul\":322:348   */\n      swap1\n      pop\n        /* \"#utility.yul\":358:429   */\n      tag_142\n        /* \"#utility.yul\":426:427   */\n      0x00\n        /* \"#utility.yul\":415:424   */\n      dup4\n        /* \"#utility.yul\":411:428   */\n      add\n        /* \"#utility.yul\":402:408   */\n      dup5\n        /* \"#utility.yul\":358:429   */\n      tag_106\n      jump\t// in\n    tag_142:\n        /* \"#utility.yul\":214:436   */\n      swap3\n      swap2\n      pop\n      pop\n      jump\t// out\n        /* \"#utility.yul\":523:640   */\n    tag_108:\n        /* \"#utility.yul\":632:633   */\n      0x00\n        /* \"#utility.yul\":629:630   */\n      dup1\n        /* \"#utility.yul\":622:634   */\n      revert\n        /* \"#utility.yul\":769:891   */\n    tag_110:\n        /* \"#utility.yul\":842:866   */\n      tag_147\n        /* \"#utility.yul\":860:865   */\n      dup2\n        /* \"#utility.yul\":842:866   */\n      tag_105\n      jump\t// in\n    tag_147:\n        /* \"#utility.yul\":835:840   */\n      dup2\n        /* \"#utility.yul\":832:867   */\n      eq\n        /* \"#utility.yul\":822:885   */\n      tag_148\n      jumpi\n        /* \"#utility.yul\":881:882   */\n      0x00\n        /* \"#utility.yul\":878:879   */\n      dup1\n        /* \"#utility.yul\":871:883   */\n      revert\n        /* \"#utility.yul\":822:885   */\n    tag_148:\n        /* \"#utility.yul\":769:891   */\n      pop\n      jump\t// out\n        /* \"#utility.yul\":897:1036   */\n    tag_111:\n        /* \"#utility.yul\":943:948   */\n      0x00\n        /* \"#utility.yul\":981:987   */\n      dup2\n        /* \"#utility.yul\":968:988   */\n      calldataload\n        /* \"#utility.yul\":959:988   */\n      swap1\n      pop\n        /* \"#utility.yul\":997:1030   */\n      tag_150\n        /* \"#utility.yul\":1024:1029   */\n      dup2\n        /* \"#utility.yul\":997:1030   */\n      tag_110\n      jump\t// in\n    tag_150:\n        /* \"#utility.yul\":897:1036   */\n      swap3\n      swap2\n      pop\n      pop\n      jump\t// out\n        /* \"#utility.yul\":1042:1371   */\n    tag_21:\n        /* \"#utility.yul\":1101:1107   */\n      0x00\n        /* \"#utility.yul\":1150:1152   */\n      0x20\n        /* \"#utility.yul\":1138:1147   */\n      dup3\n        /* \"#utility.yul\":1129:1136   */\n      dup5\n        /* \"#utility.yul\":1125:1148   */\n      sub\n        /* \"#utility.yul\":1121:1153   */\n      slt\n        /* \"#utility.yul\":1118:1237   */\n      iszero\n      tag_152\n      jumpi\n        /* \"#utility.yul\":1156:1235   */\n      tag_153\n      tag_108\n      jump\t// in\n    tag_153:\n        /* \"#utility.yul\":1118:1237   */\n    tag_152:\n        /* \"#utility.yul\":1276:1277   */\n      0x00\n        /* \"#utility.yul\":1301:1354   */\n      tag_154\n        /* \"#utility.yul\":1346:1353   */\n      dup5\n        /* \"#utility.yul\":1337:1343   */\n      dup3\n        /* \"#utility.yul\":1326:1335   */\n      dup6\n        /* \"#utility.yul\":1322:1344   */\n      add\n        /* \"#utility.yul\":1301:1354   */\n      tag_111\n      jump\t// in\n    tag_154:\n        /* \"#utility.yul\":1291:1354   */\n      swap2\n      pop\n        /* \"#utility.yul\":1247:1364   */\n      pop\n        /* \"#utility.yul\":1042:1371   */\n      swap3\n      swap2\n      pop\n      pop\n      jump\t// out\n        /* \"#utility.yul\":1377:1503   */\n    tag_112:\n        /* \"#utility.yul\":1414:1421   */\n      0x00\n        /* \"#utility.yul\":1454:1496   */\n      0xffffffffffffffffffffffffffffffffffffffff\n        /* \"#utility.yul\":1447:1452   */\n      dup3\n        /* \"#utility.yul\":1443:1497   */\n      and\n        /* \"#utility.yul\":1432:1497   */\n      swap1\n      pop\n        /* \"#utility.yul\":1377:1503   */\n      swap2\n      swap1\n      pop\n      jump\t// out\n        /* \"#utility.yul\":1509:1613   */\n    tag_113:\n        /* \"#utility.yul\":1554:1561   */\n      0x00\n        /* \"#utility.yul\":1583:1607   */\n      tag_157\n        /* \"#utility.yul\":1601:1606   */\n      dup3\n        /* \"#utility.yul\":1583:1607   */\n      tag_112\n      jump\t// in\n    tag_157:\n        /* \"#utility.yul\":1572:1607   */\n      swap1\n      pop\n        /* \"#utility.yul\":1509:1613   */\n      swap2\n      swap1\n      pop\n      jump\t// out\n        /* \"#utility.yul\":1619:1761   */\n    tag_114:\n        /* \"#utility.yul\":1722:1754   */\n      tag_159\n        /* \"#utility.yul\":1748:1753   */\n      dup2\n        /* \"#utility.yul\":1722:1754   */\n      tag_113\n      jump\t// in\n    tag_159:\n        /* \"#utility.yul\":1717:1720   */\n      dup3\n        /* \"#utility.yul\":1710:1755   */\n      mstore\n        /* \"#utility.yul\":1619:1761   */\n      pop\n      pop\n      jump\t// out\n        /* \"#utility.yul\":1767:2021   */\n    tag_24:\n        /* \"#utility.yul\":1876:1880   */\n      0x00\n        /* \"#utility.yul\":1914:1916   */\n      0x20\n        /* \"#utility.yul\":1903:1912   */\n      dup3\n        /* \"#utility.yul\":1899:1917   */\n      add\n        /* \"#utility.yul\":1891:1917   */\n      swap1\n      pop\n        /* \"#utility.yul\":1927:2014   */\n      tag_161\n        /* \"#utility.yul\":2011:2012   */\n      0x00\n        /* \"#utility.yul\":2000:2009   */\n      dup4\n        /* \"#utility.yul\":1996:2013   */\n      add\n        /* \"#utility.yul\":1987:1993   */\n      dup5\n        /* \"#utility.yul\":1927:2014   */\n      tag_114\n      jump\t// in\n    tag_161:\n        /* \"#utility.yul\":1767:2021   */\n      swap3\n      swap2\n      pop\n      pop\n      jump\t// out\n        /* \"#utility.yul\":2027:2149   */\n    tag_115:\n        /* \"#utility.yul\":2102:2108   */\n      0x00\n        /* \"#utility.yul\":2136:2141   */\n      dup2\n        /* \"#utility.yul\":2130:2142   */\n      mload\n        /* \"#utility.yul\":2120:2142   */\n      swap1\n      pop\n        /* \"#utility.yul\":2027:2149   */\n      swap2\n      swap1\n      pop\n      jump\t// out\n        /* \"#utility.yul\":2155:2347   */\n    tag_116:\n        /* \"#utility.yul\":2262:2273   */\n      0x00\n        /* \"#utility.yul\":2296:2302   */\n      dup3\n        /* \"#utility.yul\":2291:2294   */\n      dup3\n        /* \"#utility.yul\":2284:2303   */\n      mstore\n        /* \"#utility.yul\":2336:2340   */\n      0x20\n        /* \"#utility.yul\":2331:2334   */\n      dup3\n        /* \"#utility.yul\":2327:2341   */\n      add\n        /* \"#utility.yul\":2312:2341   */\n      swap1\n      pop\n        /* \"#utility.yul\":2155:2347   */\n      swap3\n      swap2\n      pop\n      pop\n      jump\t// out\n        /* \"#utility.yul\":2353:2493   */\n    tag_117:\n        /* \"#utility.yul\":2428:2432   */\n      0x00\n        /* \"#utility.yul\":2451:2454   */\n      dup2\n        /* \"#utility.yul\":2443:2454   */\n      swap1\n      pop\n        /* \"#utility.yul\":2481:2485   */\n      0x20\n        /* \"#utility.yul\":2476:2479   */\n      dup3\n        /* \"#utility.yul\":2472:2486   */\n      add\n        /* \"#utility.yul\":2464:2486   */\n      swap1\n      pop\n        /* \"#utility.yul\":2353:2493   */\n      swap2\n      swap1\n      pop\n      jump\t// out\n        /* \"#utility.yul\":2499:2631   */\n    tag_118:\n        /* \"#utility.yul\":2592:2624   */\n      tag_166\n        /* \"#utility.yul\":2618:2623   */\n      dup2\n        /* \"#utility.yul\":2592:2624   */\n      tag_113\n      jump\t// in\n    tag_166:\n        /* \"#utility.yul\":2587:2590   */\n      dup3\n        /* \"#utility.yul\":2580:2625   */\n      mstore\n        /* \"#utility.yul\":2499:2631   */\n      pop\n      pop\n      jump\t// out\n        /* \"#utility.yul\":2637:2848   */\n    tag_119:\n        /* \"#utility.yul\":2722:2732   */\n      0x00\n        /* \"#utility.yul\":2743:2805   */\n      tag_168\n        /* \"#utility.yul\":2801:2804   */\n      dup4\n        /* \"#utility.yul\":2793:2799   */\n      dup4\n        /* \"#utility.yul\":2743:2805   */\n      tag_118\n      jump\t// in\n    tag_168:\n        /* \"#utility.yul\":2837:2841   */\n      0x20\n        /* \"#utility.yul\":2832:2835   */\n      dup4\n        /* \"#utility.yul\":2828:2842   */\n      add\n        /* \"#utility.yul\":2814:2842   */\n      swap1\n      pop\n        /* \"#utility.yul\":2637:2848   */\n      swap3\n      swap2\n      pop\n      pop\n      jump\t// out\n        /* \"#utility.yul\":2854:2975   */\n    tag_120:\n        /* \"#utility.yul\":2932:2936   */\n      0x00\n        /* \"#utility.yul\":2964:2968   */\n      0x20\n        /* \"#utility.yul\":2959:2962   */\n      dup3\n        /* \"#utility.yul\":2955:2969   */\n      add\n        /* \"#utility.yul\":2947:2969   */\n      swap1\n      pop\n        /* \"#utility.yul\":2854:2975   */\n      swap2\n      swap1\n      pop\n      jump\t// out\n        /* \"#utility.yul\":3027:3823   */\n    tag_121:\n        /* \"#utility.yul\":3162:3165   */\n      0x00\n        /* \"#utility.yul\":3191:3253   */\n      tag_171\n        /* \"#utility.yul\":3247:3252   */\n      dup3\n        /* \"#utility.yul\":3191:3253   */\n      tag_115\n      jump\t// in\n    tag_171:\n        /* \"#utility.yul\":3269:3363   */\n      tag_172\n        /* \"#utility.yul\":3356:3362   */\n      dup2\n        /* \"#utility.yul\":3351:3354   */\n      dup6\n        /* \"#utility.yul\":3269:3363   */\n      tag_116\n      jump\t// in\n    tag_172:\n        /* \"#utility.yul\":3262:3363   */\n      swap4\n      pop\n        /* \"#utility.yul\":3387:3451   */\n      tag_173\n        /* \"#utility.yul\":3445:3450   */\n      dup4\n        /* \"#utility.yul\":3387:3451   */\n      tag_117\n      jump\t// in\n    tag_173:\n        /* \"#utility.yul\":3474:3481   */\n      dup1\n        /* \"#utility.yul\":3505:3506   */\n      0x00\n        /* \"#utility.yul\":3490:3798   */\n    tag_174:\n        /* \"#utility.yul\":3515:3521   */\n      dup4\n        /* \"#utility.yul\":3512:3513   */\n      dup2\n        /* \"#utility.yul\":3509:3522   */\n      lt\n        /* \"#utility.yul\":3490:3798   */\n      iszero\n      tag_176\n      jumpi\n        /* \"#utility.yul\":3591:3597   */\n      dup2\n        /* \"#utility.yul\":3585:3598   */\n      mload\n        /* \"#utility.yul\":3618:3697   */\n      tag_177\n        /* \"#utility.yul\":3693:3696   */\n      dup9\n        /* \"#utility.yul\":3678:3691   */\n      dup3\n        /* \"#utility.yul\":3618:3697   */\n      tag_119\n      jump\t// in\n    tag_177:\n        /* \"#utility.yul\":3611:3697   */\n      swap8\n      pop\n        /* \"#utility.yul\":3720:3788   */\n      tag_178\n        /* \"#utility.yul\":3781:3787   */\n      dup4\n        /* \"#utility.yul\":3720:3788   */\n      tag_120\n      jump\t// in\n    tag_178:\n        /* \"#utility.yul\":3710:3788   */\n      swap3\n      pop\n        /* \"#utility.yul\":3550:3798   */\n      pop\n        /* \"#utility.yul\":3537:3538   */\n      0x01\n        /* \"#utility.yul\":3534:3535   */\n      dup2\n        /* \"#utility.yul\":3530:3539   */\n      add\n        /* \"#utility.yul\":3525:3539   */\n      swap1\n      pop\n        /* \"#utility.yul\":3490:3798   */\n      jump(tag_174)\n    tag_176:\n        /* \"#utility.yul\":3494:3508   */\n      pop\n        /* \"#utility.yul\":3814:3817   */\n      dup6\n        /* \"#utility.yul\":3807:3817   */\n      swap4\n      pop\n        /* \"#utility.yul\":3167:3823   */\n      pop\n      pop\n      pop\n        /* \"#utility.yul\":3027:3823   */\n      swap3\n      swap2\n      pop\n      pop\n      jump\t// out\n        /* \"#utility.yul\":3829:4234   */\n    tag_37:\n        /* \"#utility.yul\":3988:3992   */\n      0x00\n        /* \"#utility.yul\":4026:4028   */\n      0x20\n        /* \"#utility.yul\":4015:4024   */\n      dup3\n        /* \"#utility.yul\":4011:4029   */\n      add\n        /* \"#utility.yul\":4003:4029   */\n      swap1\n      pop\n        /* \"#utility.yul\":4075:4084   */\n      dup2\n        /* \"#utility.yul\":4069:4073   */\n      dup2\n        /* \"#utility.yul\":4065:4085   */\n      sub\n        /* \"#utility.yul\":4061:4062   */\n      0x00\n        /* \"#utility.yul\":4050:4059   */\n      dup4\n        /* \"#utility.yul\":4046:4063   */\n      add\n        /* \"#utility.yul\":4039:4086   */\n      mstore\n        /* \"#utility.yul\":4103:4227   */\n      tag_180\n        /* \"#utility.yul\":4222:4226   */\n      dup2\n        /* \"#utility.yul\":4213:4219   */\n      dup5\n        /* \"#utility.yul\":4103:4227   */\n      tag_121\n      jump\t// in\n    tag_180:\n        /* \"#utility.yul\":4095:4227   */\n      swap1\n      pop\n        /* \"#utility.yul\":3829:4234   */\n      swap3\n      swap2\n      pop\n      pop\n      jump\t// out\n        /* \"#utility.yul\":4240:4336   */\n    tag_122:\n        /* \"#utility.yul\":4277:4284   */\n      0x00\n        /* \"#utility.yul\":4306:4330   */\n      tag_182\n        /* \"#utility.yul\":4324:4329   */\n      dup3\n        /* \"#utility.yul\":4306:4330   */\n      tag_112\n      jump\t// in\n    tag_182:\n        /* \"#utility.yul\":4295:4330   */\n      swap1\n      pop\n        /* \"#utility.yul\":4240:4336   */\n      swap2\n      swap1\n      pop\n      jump\t// out\n        /* \"#utility.yul\":4342:4460   */\n    tag_123:\n        /* \"#utility.yul\":4429:4453   */\n      tag_184\n        /* \"#utility.yul\":4447:4452   */\n      dup2\n        /* \"#utility.yul\":4429:4453   */\n      tag_122\n      jump\t// in\n    tag_184:\n        /* \"#utility.yul\":4424:4427   */\n      dup3\n        /* \"#utility.yul\":4417:4454   */\n      mstore\n        /* \"#utility.yul\":4342:4460   */\n      pop\n      pop\n      jump\t// out\n        /* \"#utility.yul\":4466:4688   */\n    tag_42:\n        /* \"#utility.yul\":4559:4563   */\n      0x00\n        /* \"#utility.yul\":4597:4599   */\n      0x20\n        /* \"#utility.yul\":4586:4595   */\n      dup3\n        /* \"#utility.yul\":4582:4600   */\n      add\n        /* \"#utility.yul\":4574:4600   */\n      swap1\n      pop\n        /* \"#utility.yul\":4610:4681   */\n      tag_186\n        /* \"#utility.yul\":4678:4679   */\n      0x00\n        /* \"#utility.yul\":4667:4676   */\n      dup4\n        /* \"#utility.yul\":4663:4680   */\n      add\n        /* \"#utility.yul\":4654:4660   */\n      dup5\n        /* \"#utility.yul\":4610:4681   */\n      tag_123\n      jump\t// in\n    tag_186:\n        /* \"#utility.yul\":4466:4688   */\n      swap3\n      swap2\n      pop\n      pop\n      jump\t// out\n        /* \"#utility.yul\":4694:4863   */\n    tag_124:\n        /* \"#utility.yul\":4778:4789   */\n      0x00\n        /* \"#utility.yul\":4812:4818   */\n      dup3\n        /* \"#utility.yul\":4807:4810   */\n      dup3\n        /* \"#utility.yul\":4800:4819   */\n      mstore\n        /* \"#utility.yul\":4852:4856   */\n      0x20\n        /* \"#utility.yul\":4847:4850   */\n      dup3\n        /* \"#utility.yul\":4843:4857   */\n      add\n        /* \"#utility.yul\":4828:4857   */\n      swap1\n      pop\n        /* \"#utility.yul\":4694:4863   */\n      swap3\n      swap2\n      pop\n      pop\n      jump\t// out\n        /* \"#utility.yul\":4869:5049   */\n    tag_125:\n        /* \"#utility.yul\":5009:5041   */\n      0x6f6e6c79206f776e657220636e61207069636b207468652077696e6e65720000\n        /* \"#utility.yul\":5005:5006   */\n      0x00\n        /* \"#utility.yul\":4997:5003   */\n      dup3\n        /* \"#utility.yul\":4993:5007   */\n      add\n        /* \"#utility.yul\":4986:5042   */\n      mstore\n        /* \"#utility.yul\":4869:5049   */\n      pop\n      jump\t// out\n        /* \"#utility.yul\":5055:5421   */\n    tag_126:\n        /* \"#utility.yul\":5197:5200   */\n      0x00\n        /* \"#utility.yul\":5218:5285   */\n      tag_190\n        /* \"#utility.yul\":5282:5284   */\n      0x1e\n        /* \"#utility.yul\":5277:5280   */\n      dup4\n        /* \"#utility.yul\":5218:5285   */\n      tag_124\n      jump\t// in\n    tag_190:\n        /* \"#utility.yul\":5211:5285   */\n      swap2\n      pop\n        /* \"#utility.yul\":5294:5387   */\n      tag_191\n        /* \"#utility.yul\":5383:5386   */\n      dup3\n        /* \"#utility.yul\":5294:5387   */\n      tag_125\n      jump\t// in\n    tag_191:\n        /* \"#utility.yul\":5412:5414   */\n      0x20\n        /* \"#utility.yul\":5407:5410   */\n      dup3\n        /* \"#utility.yul\":5403:5415   */\n      add\n        /* \"#utility.yul\":5396:5415   */\n      swap1\n      pop\n        /* \"#utility.yul\":5055:5421   */\n      swap2\n      swap1\n      pop\n      jump\t// out\n        /* \"#utility.yul\":5427:5846   */\n    tag_63:\n        /* \"#utility.yul\":5593:5597   */\n      0x00\n        /* \"#utility.yul\":5631:5633   */\n      0x20\n        /* \"#utility.yul\":5620:5629   */\n      dup3\n        /* \"#utility.yul\":5616:5634   */\n      add\n        /* \"#utility.yul\":5608:5634   */\n      swap1\n      pop\n        /* \"#utility.yul\":5680:5689   */\n      dup2\n        /* \"#utility.yul\":5674:5678   */\n      dup2\n        /* \"#utility.yul\":5670:5690   */\n      sub\n        /* \"#utility.yul\":5666:5667   */\n      0x00\n        /* \"#utility.yul\":5655:5664   */\n      dup4\n        /* \"#utility.yul\":5651:5668   */\n      add\n        /* \"#utility.yul\":5644:5691   */\n      mstore\n        /* \"#utility.yul\":5708:5839   */\n      tag_193\n        /* \"#utility.yul\":5834:5838   */\n      dup2\n        /* \"#utility.yul\":5708:5839   */\n      tag_126\n      jump\t// in\n    tag_193:\n        /* \"#utility.yul\":5700:5839   */\n      swap1\n      pop\n        /* \"#utility.yul\":5427:5846   */\n      swap2\n      swap1\n      pop\n      jump\t// out\n        /* \"#utility.yul\":5852:6032   */\n    tag_127:\n        /* \"#utility.yul\":5900:5977   */\n      0x4e487b7100000000000000000000000000000000000000000000000000000000\n        /* \"#utility.yul\":5897:5898   */\n      0x00\n        /* \"#utility.yul\":5890:5978   */\n      mstore\n        /* \"#utility.yul\":5997:6001   */\n      0x12\n        /* \"#utility.yul\":5994:5995   */\n      0x04\n        /* \"#utility.yul\":5987:6002   */\n      mstore\n        /* \"#utility.yul\":6021:6025   */\n      0x24\n        /* \"#utility.yul\":6018:6019   */\n      0x00\n        /* \"#utility.yul\":6011:6026   */\n      revert\n        /* \"#utility.yul\":6038:6214   */\n    tag_67:\n        /* \"#utility.yul\":6070:6071   */\n      0x00\n        /* \"#utility.yul\":6087:6107   */\n      tag_196\n        /* \"#utility.yul\":6105:6106   */\n      dup3\n        /* \"#utility.yul\":6087:6107   */\n      tag_105\n      jump\t// in\n    tag_196:\n        /* \"#utility.yul\":6082:6107   */\n      swap2\n      pop\n        /* \"#utility.yul\":6121:6141   */\n      tag_197\n        /* \"#utility.yul\":6139:6140   */\n      dup4\n        /* \"#utility.yul\":6121:6141   */\n      tag_105\n      jump\t// in\n    tag_197:\n        /* \"#utility.yul\":6116:6141   */\n      swap3\n      pop\n        /* \"#utility.yul\":6160:6161   */\n      dup3\n        /* \"#utility.yul\":6150:6185   */\n      tag_198\n      jumpi\n        /* \"#utility.yul\":6165:6183   */\n      tag_199\n      tag_127\n      jump\t// in\n    tag_199:\n        /* \"#utility.yul\":6150:6185   */\n    tag_198:\n        /* \"#utility.yul\":6206:6207   */\n      dup3\n        /* \"#utility.yul\":6203:6204   */\n      dup3\n        /* \"#utility.yul\":6199:6208   */\n      mod\n        /* \"#utility.yul\":6194:6208   */\n      swap1\n      pop\n        /* \"#utility.yul\":6038:6214   */\n      swap3\n      swap2\n      pop\n      pop\n      jump\t// out\n        /* \"#utility.yul\":6220:6400   */\n    tag_70:\n        /* \"#utility.yul\":6268:6345   */\n      0x4e487b7100000000000000000000000000000000000000000000000000000000\n        /* \"#utility.yul\":6265:6266   */\n      0x00\n        /* \"#utility.yul\":6258:6346   */\n      mstore\n        /* \"#utility.yul\":6365:6369   */\n      0x32\n        /* \"#utility.yul\":6362:6363   */\n      0x04\n        /* \"#utility.yul\":6355:6370   */\n      mstore\n        /* \"#utility.yul\":6389:6393   */\n      0x24\n        /* \"#utility.yul\":6386:6387   */\n      0x00\n        /* \"#utility.yul\":6379:6394   */\n      revert\n        /* \"#utility.yul\":6406:6586   */\n    tag_128:\n        /* \"#utility.yul\":6454:6531   */\n      0x4e487b7100000000000000000000000000000000000000000000000000000000\n        /* \"#utility.yul\":6451:6452   */\n      0x00\n        /* \"#utility.yul\":6444:6532   */\n      mstore\n        /* \"#utility.yul\":6551:6555   */\n      0x11\n        /* \"#utility.yul\":6548:6549   */\n      0x04\n        /* \"#utility.yul\":6541:6556   */\n      mstore\n        /* \"#utility.yul\":6575:6579   */\n      0x24\n        /* \"#utility.yul\":6572:6573   */\n      0x00\n        /* \"#utility.yul\":6565:6580   */\n      revert\n        /* \"#utility.yul\":6592:6825   */\n    tag_78:\n        /* \"#utility.yul\":6631:6634   */\n      0x00\n        /* \"#utility.yul\":6654:6678   */\n      tag_203\n        /* \"#utility.yul\":6672:6677   */\n      dup3\n        /* \"#utility.yul\":6654:6678   */\n      tag_105\n      jump\t// in\n    tag_203:\n        /* \"#utility.yul\":6645:6678   */\n      swap2\n      pop\n        /* \"#utility.yul\":6700:6766   */\n      0xffffffffffffffffffffffffffffffffffffffffffffffffffffffffffffffff\n        /* \"#utility.yul\":6693:6698   */\n      dup3\n        /* \"#utility.yul\":6690:6767   */\n      sub\n        /* \"#utility.yul\":6687:6790   */\n      tag_204\n      jumpi\n        /* \"#utility.yul\":6770:6788   */\n      tag_205\n      tag_128\n      jump\t// in\n    tag_205:\n        /* \"#utility.yul\":6687:6790   */\n    tag_204:\n        /* \"#utility.yul\":6817:6818   */\n      0x01\n        /* \"#utility.yul\":6810:6815   */\n      dup3\n        /* \"#utility.yul\":6806:6819   */\n      add\n        /* \"#utility.yul\":6799:6819   */\n      swap1\n      pop\n        /* \"#utility.yul\":6592:6825   */\n      swap2\n      swap1\n      pop\n      jump\t// out\n        /* \"#utility.yul\":6831:7011   */\n    tag_81:\n        /* \"#utility.yul\":6879:6956   */\n      0x4e487b7100000000000000000000000000000000000000000000000000000000\n        /* \"#utility.yul\":6876:6877   */\n      0x00\n        /* \"#utility.yul\":6869:6957   */\n      mstore\n        /* \"#utility.yul\":6976:6980   */\n      0x41\n        /* \"#utility.yul\":6973:6974   */\n      0x04\n        /* \"#utility.yul\":6966:6981   */\n      mstore\n        /* \"#utility.yul\":7000:7004   */\n      0x24\n        /* \"#utility.yul\":6997:6998   */\n      0x00\n        /* \"#utility.yul\":6990:7005   */\n      revert\n        /* \"#utility.yul\":7017:7111   */\n    tag_129:\n        /* \"#utility.yul\":7050:7058   */\n      0x00\n        /* \"#utility.yul\":7098:7103   */\n      dup2\n        /* \"#utility.yul\":7094:7096   */\n      0x60\n        /* \"#utility.yul\":7090:7104   */\n      shl\n        /* \"#utility.yul\":7069:7104   */\n      swap1\n      pop\n        /* \"#utility.yul\":7017:7111   */\n      swap2\n      swap1\n      pop\n      jump\t// out\n        /* \"#utility.yul\":7117:7211   */\n    tag_130:\n        /* \"#utility.yul\":7156:7163   */\n      0x00\n        /* \"#utility.yul\":7185:7205   */\n      tag_209\n        /* \"#utility.yul\":7199:7204   */\n      dup3\n        /* \"#utility.yul\":7185:7205   */\n      tag_129\n      jump\t// in\n    tag_209:\n        /* \"#utility.yul\":7174:7205   */\n      swap1\n      pop\n        /* \"#utility.yul\":7117:7211   */\n      swap2\n      swap1\n      pop\n      jump\t// out\n        /* \"#utility.yul\":7217:7317   */\n    tag_131:\n        /* \"#utility.yul\":7256:7263   */\n      0x00\n        /* \"#utility.yul\":7285:7311   */\n      tag_211\n        /* \"#utility.yul\":7305:7310   */\n      dup3\n        /* \"#utility.yul\":7285:7311   */\n      tag_130\n      jump\t// in\n    tag_211:\n        /* \"#utility.yul\":7274:7311   */\n      swap1\n      pop\n        /* \"#utility.yul\":7217:7317   */\n      swap2\n      swap1\n      pop\n      jump\t// out\n        /* \"#utility.yul\":7323:7480   */\n    tag_132:\n        /* \"#utility.yul\":7428:7473   */\n      tag_213\n        /* \"#utility.yul\":7448:7472   */\n      tag_214\n        /* \"#utility.yul\":7466:7471   */\n      dup3\n        /* \"#utility.yul\":7448:7472   */\n      tag_122\n      jump\t// in\n    tag_214:\n        /* \"#utility.yul\":7428:7473   */\n      tag_131\n      jump\t// in\n    tag_213:\n        /* \"#utility.yul\":7423:7426   */\n      dup3\n        /* \"#utility.yul\":7416:7474   */\n      mstore\n        /* \"#utility.yul\":7323:7480   */\n      pop\n      pop\n      jump\t// out\n        /* \"#utility.yul\":7486:7565   */\n    tag_133:\n        /* \"#utility.yul\":7525:7532   */\n      0x00\n        /* \"#utility.yul\":7554:7559   */\n      dup2\n        /* \"#utility.yul\":7543:7559   */\n      swap1\n      pop\n        /* \"#utility.yul\":7486:7565   */\n      swap2\n      swap1\n      pop\n      jump\t// out\n        /* \"#utility.yul\":7571:7728   */\n    tag_134:\n        /* \"#utility.yul\":7676:7721   */\n      tag_217\n        /* \"#utility.yul\":7696:7720   */\n      tag_218\n        /* \"#utility.yul\":7714:7719   */\n      dup3\n        /* \"#utility.yul\":7696:7720   */\n      tag_105\n      jump\t// in\n    tag_218:\n        /* \"#utility.yul\":7676:7721   */\n      tag_133\n      jump\t// in\n    tag_217:\n        /* \"#utility.yul\":7671:7674   */\n      dup3\n        /* \"#utility.yul\":7664:7722   */\n      mstore\n        /* \"#utility.yul\":7571:7728   */\n      pop\n      pop\n      jump\t// out\n        /* \"#utility.yul\":7734:8131   */\n    tag_90:\n        /* \"#utility.yul\":7874:7877   */\n      0x00\n        /* \"#utility.yul\":7889:7964   */\n      tag_220\n        /* \"#utility.yul\":7960:7963   */\n      dup3\n        /* \"#utility.yul\":7951:7957   */\n      dup6\n        /* \"#utility.yul\":7889:7964   */\n      tag_132\n      jump\t// in\n    tag_220:\n        /* \"#utility.yul\":7989:7991   */\n      0x14\n        /* \"#utility.yul\":7984:7987   */\n      dup3\n        /* \"#utility.yul\":7980:7992   */\n      add\n        /* \"#utility.yul\":7973:7992   */\n      swap2\n      pop\n        /* \"#utility.yul\":8002:8077   */\n      tag_221\n        /* \"#utility.yul\":8073:8076   */\n      dup3\n        /* \"#utility.yul\":8064:8070   */\n      dup5\n        /* \"#utility.yul\":8002:8077   */\n      tag_134\n      jump\t// in\n    tag_221:\n        /* \"#utility.yul\":8102:8104   */\n      0x20\n        /* \"#utility.yul\":8097:8100   */\n      dup3\n        /* \"#utility.yul\":8093:8105   */\n      add\n        /* \"#utility.yul\":8086:8105   */\n      swap2\n      pop\n        /* \"#utility.yul\":8122:8125   */\n      dup2\n        /* \"#utility.yul\":8115:8125   */\n      swap1\n      pop\n        /* \"#utility.yul\":7734:8131   */\n      swap4\n      swap3\n      pop\n      pop\n      pop\n      jump\t// out\n        /* \"#utility.yul\":8137:8358   */\n    tag_135:\n        /* \"#utility.yul\":8277:8311   */\n      0x4e65656420677261746572207468616e20302e303031206574686572206d616e\n        /* \"#utility.yul\":8273:8274   */\n      0x00\n        /* \"#utility.yul\":8265:8271   */\n      dup3\n        /* \"#utility.yul\":8261:8275   */\n      add\n        /* \"#utility.yul\":8254:8312   */\n      mstore\n        /* \"#utility.yul\":8346:8350   */\n      0x2121000000000000000000000000000000000000000000000000000000000000\n        /* \"#utility.yul\":8341:8343   */\n      0x20\n        /* \"#utility.yul\":8333:8339   */\n      dup3\n        /* \"#utility.yul\":8329:8344   */\n      add\n        /* \"#utility.yul\":8322:8351   */\n      mstore\n        /* \"#utility.yul\":8137:8358   */\n      pop\n      jump\t// out\n        /* \"#utility.yul\":8364:8730   */\n    tag_136:\n        /* \"#utility.yul\":8506:8509   */\n      0x00\n        /* \"#utility.yul\":8527:8594   */\n      tag_224\n        /* \"#utility.yul\":8591:8593   */\n      0x22\n        /* \"#utility.yul\":8586:8589   */\n      dup4\n        /* \"#utility.yul\":8527:8594   */\n      tag_124\n      jump\t// in\n    tag_224:\n        /* \"#utility.yul\":8520:8594   */\n      swap2\n      pop\n        /* \"#utility.yul\":8603:8696   */\n      tag_225\n        /* \"#utility.yul\":8692:8695   */\n      dup3\n        /* \"#utility.yul\":8603:8696   */\n      tag_135\n      jump\t// in\n    tag_225:\n        /* \"#utility.yul\":8721:8723   */\n      0x40\n        /* \"#utility.yul\":8716:8719   */\n      dup3\n        /* \"#utility.yul\":8712:8724   */\n      add\n        /* \"#utility.yul\":8705:8724   */\n      swap1\n      pop\n        /* \"#utility.yul\":8364:8730   */\n      swap2\n      swap1\n      pop\n      jump\t// out\n        /* \"#utility.yul\":8736:9155   */\n    tag_94:\n        /* \"#utility.yul\":8902:8906   */\n      0x00\n        /* \"#utility.yul\":8940:8942   */\n      0x20\n        /* \"#utility.yul\":8929:8938   */\n      dup3\n        /* \"#utility.yul\":8925:8943   */\n      add\n        /* \"#utility.yul\":8917:8943   */\n      swap1\n      pop\n        /* \"#utility.yul\":8989:8998   */\n      dup2\n        /* \"#utility.yul\":8983:8987   */\n      dup2\n        /* \"#utility.yul\":8979:8999   */\n      sub\n        /* \"#utility.yul\":8975:8976   */\n      0x00\n        /* \"#utility.yul\":8964:8973   */\n      dup4\n        /* \"#utility.yul\":8960:8977   */\n      add\n        /* \"#utility.yul\":8953:9000   */\n      mstore\n        /* \"#utility.yul\":9017:9148   */\n      tag_227\n        /* \"#utility.yul\":9143:9147   */\n      dup2\n        /* \"#utility.yul\":9017:9148   */\n      tag_136\n      jump\t// in\n    tag_227:\n        /* \"#utility.yul\":9009:9148   */\n      swap1\n      pop\n        /* \"#utility.yul\":8736:9155   */\n      swap2\n      swap1\n      pop\n      jump\t// out\n\n    auxdata: 0xa26469706673582212201cf6463f9a98d6883ffa719ba1ff17f4f87c684103660804858e917afb8ffe9764736f6c63430008110033\n}\n",
				"bytecode": {
					"linkReferences": {},
					"object": "608060405234801561001057600080fd5b50336000806101000a81548173ffffffffffffffffffffffffffffffffffffffff021916908373ffffffffffffffffffffffffffffffffffffffff1602179055506001600281905550610cb2806100686000396000f3fe6080604052600436106100915760003560e01c80638da5cb5b116100595780638da5cb5b1461017d578063dbdff2c1146101a8578063e580f47b146101d3578063e97dcb62146101fe578063f71d96cb1461020857610091565b806312065fe014610096578063281d098d146100c15780635d495aea146100fe5780636d6fe230146101155780638b5b9ccc14610152575b600080fd5b3480156100a257600080fd5b506100ab610245565b6040516100b891906107b2565b60405180910390f35b3480156100cd57600080fd5b506100e860048036038101906100e391906107fe565b61024d565b6040516100f5919061086c565b60405180910390f35b34801561010a57600080fd5b5061011361028a565b005b34801561012157600080fd5b5061013c600480360381019061013791906107fe565b6104c6565b604051610149919061086c565b60405180910390f35b34801561015e57600080fd5b506101676104f9565b6040516101749190610945565b60405180910390f35b34801561018957600080fd5b50610192610587565b60405161019f9190610988565b60405180910390f35b3480156101b457600080fd5b506101bd6105ab565b6040516101ca91906107b2565b60405180910390f35b3480156101df57600080fd5b506101e86105ff565b6040516101f591906107b2565b60405180910390f35b610206610605565b005b34801561021457600080fd5b5061022f600480360381019061022a91906107fe565b6106b3565b60405161023c919061086c565b60405180910390f35b600047905090565b60006003600083815260200190815260200160002060009054906101000a900473ffffffffffffffffffffffffffffffffffffffff169050919050565b60008054906101000a900473ffffffffffffffffffffffffffffffffffffffff1673ffffffffffffffffffffffffffffffffffffffff163373ffffffffffffffffffffffffffffffffffffffff1614610318576040517f08c379a000000000000000000000000000000000000000000000000000000000815260040161030f90610a00565b60405180910390fd5b60006001805490506103286105ab565b6103329190610a4f565b90506001818154811061034857610347610a80565b5b9060005260206000200160009054906101000a900473ffffffffffffffffffffffffffffffffffffffff1673ffffffffffffffffffffffffffffffffffffffff166108fc479081150290604051600060405180830381858888f193505050501580156103b8573d6000803e3d6000fd5b50600181815481106103cd576103cc610a80565b5b9060005260206000200160009054906101000a900473ffffffffffffffffffffffffffffffffffffffff1660036000600254815260200190815260200160002060006101000a81548173ffffffffffffffffffffffffffffffffffffffff021916908373ffffffffffffffffffffffffffffffffffffffff1602179055506002600081548092919061045e90610ade565b9190505550600067ffffffffffffffff81111561047e5761047d610b26565b5b6040519080825280602002602001820160405280156104ac5781602001602082028036833780820191505090505b50600190805190602001906104c29291906106f2565b5050565b60036020528060005260406000206000915054906101000a900473ffffffffffffffffffffffffffffffffffffffff1681565b6060600180548060200260200160405190810160405280929190818152602001828054801561057d57602002820191906000526020600020905b8160009054906101000a900473ffffffffffffffffffffffffffffffffffffffff1673ffffffffffffffffffffffffffffffffffffffff1681526020019060010190808311610533575b5050505050905090565b60008054906101000a900473ffffffffffffffffffffffffffffffffffffffff1681565b60008060009054906101000a900473ffffffffffffffffffffffffffffffffffffffff16426040516020016105e1929190610bbe565b6040516020818303038152906040528051906020012060001c905090565b60025481565b66038d7ea4c68000341161064e576040517f08c379a000000000000000000000000000000000000000000000000000000000815260040161064590610c5c565b60405180910390fd5b6001339080600181540180825580915050600190039060005260206000200160009091909190916101000a81548173ffffffffffffffffffffffffffffffffffffffff021916908373ffffffffffffffffffffffffffffffffffffffff160217905550565b600181815481106106c357600080fd5b906000526020600020016000915054906101000a900473ffffffffffffffffffffffffffffffffffffffff1681565b82805482825590600052602060002090810192821561076b579160200282015b8281111561076a5782518260006101000a81548173ffffffffffffffffffffffffffffffffffffffff021916908373ffffffffffffffffffffffffffffffffffffffff16021790555091602001919060010190610712565b5b509050610778919061077c565b5090565b5b8082111561079557600081600090555060010161077d565b5090565b6000819050919050565b6107ac81610799565b82525050565b60006020820190506107c760008301846107a3565b92915050565b600080fd5b6107db81610799565b81146107e657600080fd5b50565b6000813590506107f8816107d2565b92915050565b600060208284031215610814576108136107cd565b5b6000610822848285016107e9565b91505092915050565b600073ffffffffffffffffffffffffffffffffffffffff82169050919050565b60006108568261082b565b9050919050565b6108668161084b565b82525050565b6000602082019050610881600083018461085d565b92915050565b600081519050919050565b600082825260208201905092915050565b6000819050602082019050919050565b6108bc8161084b565b82525050565b60006108ce83836108b3565b60208301905092915050565b6000602082019050919050565b60006108f282610887565b6108fc8185610892565b9350610907836108a3565b8060005b8381101561093857815161091f88826108c2565b975061092a836108da565b92505060018101905061090b565b5085935050505092915050565b6000602082019050818103600083015261095f81846108e7565b905092915050565b60006109728261082b565b9050919050565b61098281610967565b82525050565b600060208201905061099d6000830184610979565b92915050565b600082825260208201905092915050565b7f6f6e6c79206f776e657220636e61207069636b207468652077696e6e65720000600082015250565b60006109ea601e836109a3565b91506109f5826109b4565b602082019050919050565b60006020820190508181036000830152610a19816109dd565b9050919050565b7f4e487b7100000000000000000000000000000000000000000000000000000000600052601260045260246000fd5b6000610a5a82610799565b9150610a6583610799565b925082610a7557610a74610a20565b5b828206905092915050565b7f4e487b7100000000000000000000000000000000000000000000000000000000600052603260045260246000fd5b7f4e487b7100000000000000000000000000000000000000000000000000000000600052601160045260246000fd5b6000610ae982610799565b91507fffffffffffffffffffffffffffffffffffffffffffffffffffffffffffffffff8203610b1b57610b1a610aaf565b5b600182019050919050565b7f4e487b7100000000000000000000000000000000000000000000000000000000600052604160045260246000fd5b60008160601b9050919050565b6000610b6d82610b55565b9050919050565b6000610b7f82610b62565b9050919050565b610b97610b9282610967565b610b74565b82525050565b6000819050919050565b610bb8610bb382610799565b610b9d565b82525050565b6000610bca8285610b86565b601482019150610bda8284610ba7565b6020820191508190509392505050565b7f4e65656420677261746572207468616e20302e303031206574686572206d616e60008201527f2121000000000000000000000000000000000000000000000000000000000000602082015250565b6000610c466022836109a3565b9150610c5182610bea565b604082019050919050565b60006020820190508181036000830152610c7581610c39565b905091905056fea26469706673582212201cf6463f9a98d6883ffa719ba1ff17f4f87c684103660804858e917afb8ffe9764736f6c63430008110033",
					"opcodes": "PUSH1 0x80 PUSH1 0x40 MSTORE CALLVALUE DUP1 ISZERO PUSH2 0x10 JUMPI PUSH1 0x0 DUP1 REVERT JUMPDEST POP CALLER PUSH1 0x0 DUP1 PUSH2 0x100 EXP DUP2 SLOAD DUP2 PUSH20 0xFFFFFFFFFFFFFFFFFFFFFFFFFFFFFFFFFFFFFFFF MUL NOT AND SWAP1 DUP4 PUSH20 0xFFFFFFFFFFFFFFFFFFFFFFFFFFFFFFFFFFFFFFFF AND MUL OR SWAP1 SSTORE POP PUSH1 0x1 PUSH1 0x2 DUP2 SWAP1 SSTORE POP PUSH2 0xCB2 DUP1 PUSH2 0x68 PUSH1 0x0 CODECOPY PUSH1 0x0 RETURN INVALID PUSH1 0x80 PUSH1 0x40 MSTORE PUSH1 0x4 CALLDATASIZE LT PUSH2 0x91 JUMPI PUSH1 0x0 CALLDATALOAD PUSH1 0xE0 SHR DUP1 PUSH4 0x8DA5CB5B GT PUSH2 0x59 JUMPI DUP1 PUSH4 0x8DA5CB5B EQ PUSH2 0x17D JUMPI DUP1 PUSH4 0xDBDFF2C1 EQ PUSH2 0x1A8 JUMPI DUP1 PUSH4 0xE580F47B EQ PUSH2 0x1D3 JUMPI DUP1 PUSH4 0xE97DCB62 EQ PUSH2 0x1FE JUMPI DUP1 PUSH4 0xF71D96CB EQ PUSH2 0x208 JUMPI PUSH2 0x91 JUMP JUMPDEST DUP1 PUSH4 0x12065FE0 EQ PUSH2 0x96 JUMPI DUP1 PUSH4 0x281D098D EQ PUSH2 0xC1 JUMPI DUP1 PUSH4 0x5D495AEA EQ PUSH2 0xFE JUMPI DUP1 PUSH4 0x6D6FE230 EQ PUSH2 0x115 JUMPI DUP1 PUSH4 0x8B5B9CCC EQ PUSH2 0x152 JUMPI JUMPDEST PUSH1 0x0 DUP1 REVERT JUMPDEST CALLVALUE DUP1 ISZERO PUSH2 0xA2 JUMPI PUSH1 0x0 DUP1 REVERT JUMPDEST POP PUSH2 0xAB PUSH2 0x245 JUMP JUMPDEST PUSH1 0x40 MLOAD PUSH2 0xB8 SWAP2 SWAP1 PUSH2 0x7B2 JUMP JUMPDEST PUSH1 0x40 MLOAD DUP1 SWAP2 SUB SWAP1 RETURN JUMPDEST CALLVALUE DUP1 ISZERO PUSH2 0xCD JUMPI PUSH1 0x0 DUP1 REVERT JUMPDEST POP PUSH2 0xE8 PUSH1 0x4 DUP1 CALLDATASIZE SUB DUP2 ADD SWAP1 PUSH2 0xE3 SWAP2 SWAP1 PUSH2 0x7FE JUMP JUMPDEST PUSH2 0x24D JUMP JUMPDEST PUSH1 0x40 MLOAD PUSH2 0xF5 SWAP2 SWAP1 PUSH2 0x86C JUMP JUMPDEST PUSH1 0x40 MLOAD DUP1 SWAP2 SUB SWAP1 RETURN JUMPDEST CALLVALUE DUP1 ISZERO PUSH2 0x10A JUMPI PUSH1 0x0 DUP1 REVERT JUMPDEST POP PUSH2 0x113 PUSH2 0x28A JUMP JUMPDEST STOP JUMPDEST CALLVALUE DUP1 ISZERO PUSH2 0x121 JUMPI PUSH1 0x0 DUP1 REVERT JUMPDEST POP PUSH2 0x13C PUSH1 0x4 DUP1 CALLDATASIZE SUB DUP2 ADD SWAP1 PUSH2 0x137 SWAP2 SWAP1 PUSH2 0x7FE JUMP JUMPDEST PUSH2 0x4C6 JUMP JUMPDEST PUSH1 0x40 MLOAD PUSH2 0x149 SWAP2 SWAP1 PUSH2 0x86C JUMP JUMPDEST PUSH1 0x40 MLOAD DUP1 SWAP2 SUB SWAP1 RETURN JUMPDEST CALLVALUE DUP1 ISZERO PUSH2 0x15E JUMPI PUSH1 0x0 DUP1 REVERT JUMPDEST POP PUSH2 0x167 PUSH2 0x4F9 JUMP JUMPDEST PUSH1 0x40 MLOAD PUSH2 0x174 SWAP2 SWAP1 PUSH2 0x945 JUMP JUMPDEST PUSH1 0x40 MLOAD DUP1 SWAP2 SUB SWAP1 RETURN JUMPDEST CALLVALUE DUP1 ISZERO PUSH2 0x189 JUMPI PUSH1 0x0 DUP1 REVERT JUMPDEST POP PUSH2 0x192 PUSH2 0x587 JUMP JUMPDEST PUSH1 0x40 MLOAD PUSH2 0x19F SWAP2 SWAP1 PUSH2 0x988 JUMP JUMPDEST PUSH1 0x40 MLOAD DUP1 SWAP2 SUB SWAP1 RETURN JUMPDEST CALLVALUE DUP1 ISZERO PUSH2 0x1B4 JUMPI PUSH1 0x0 DUP1 REVERT JUMPDEST POP PUSH2 0x1BD PUSH2 0x5AB JUMP JUMPDEST PUSH1 0x40 MLOAD PUSH2 0x1CA SWAP2 SWAP1 PUSH2 0x7B2 JUMP JUMPDEST PUSH1 0x40 MLOAD DUP1 SWAP2 SUB SWAP1 RETURN JUMPDEST CALLVALUE DUP1 ISZERO PUSH2 0x1DF JUMPI PUSH1 0x0 DUP1 REVERT JUMPDEST POP PUSH2 0x1E8 PUSH2 0x5FF JUMP JUMPDEST PUSH1 0x40 MLOAD PUSH2 0x1F5 SWAP2 SWAP1 PUSH2 0x7B2 JUMP JUMPDEST PUSH1 0x40 MLOAD DUP1 SWAP2 SUB SWAP1 RETURN JUMPDEST PUSH2 0x206 PUSH2 0x605 JUMP JUMPDEST STOP JUMPDEST CALLVALUE DUP1 ISZERO PUSH2 0x214 JUMPI PUSH1 0x0 DUP1 REVERT JUMPDEST POP PUSH2 0x22F PUSH1 0x4 DUP1 CALLDATASIZE SUB DUP2 ADD SWAP1 PUSH2 0x22A SWAP2 SWAP1 PUSH2 0x7FE JUMP JUMPDEST PUSH2 0x6B3 JUMP JUMPDEST PUSH1 0x40 MLOAD PUSH2 0x23C SWAP2 SWAP1 PUSH2 0x86C JUMP JUMPDEST PUSH1 0x40 MLOAD DUP1 SWAP2 SUB SWAP1 RETURN JUMPDEST PUSH1 0x0 SELFBALANCE SWAP1 POP SWAP1 JUMP JUMPDEST PUSH1 0x0 PUSH1 0x3 PUSH1 0x0 DUP4 DUP2 MSTORE PUSH1 0x20 ADD SWAP1 DUP2 MSTORE PUSH1 0x20 ADD PUSH1 0x0 KECCAK256 PUSH1 0x0 SWAP1 SLOAD SWAP1 PUSH2 0x100 EXP SWAP1 DIV PUSH20 0xFFFFFFFFFFFFFFFFFFFFFFFFFFFFFFFFFFFFFFFF AND SWAP1 POP SWAP2 SWAP1 POP JUMP JUMPDEST PUSH1 0x0 DUP1 SLOAD SWAP1 PUSH2 0x100 EXP SWAP1 DIV PUSH20 0xFFFFFFFFFFFFFFFFFFFFFFFFFFFFFFFFFFFFFFFF AND PUSH20 0xFFFFFFFFFFFFFFFFFFFFFFFFFFFFFFFFFFFFFFFF AND CALLER PUSH20 0xFFFFFFFFFFFFFFFFFFFFFFFFFFFFFFFFFFFFFFFF AND EQ PUSH2 0x318 JUMPI PUSH1 0x40 MLOAD PUSH32 0x8C379A000000000000000000000000000000000000000000000000000000000 DUP2 MSTORE PUSH1 0x4 ADD PUSH2 0x30F SWAP1 PUSH2 0xA00 JUMP JUMPDEST PUSH1 0x40 MLOAD DUP1 SWAP2 SUB SWAP1 REVERT JUMPDEST PUSH1 0x0 PUSH1 0x1 DUP1 SLOAD SWAP1 POP PUSH2 0x328 PUSH2 0x5AB JUMP JUMPDEST PUSH2 0x332 SWAP2 SWAP1 PUSH2 0xA4F JUMP JUMPDEST SWAP1 POP PUSH1 0x1 DUP2 DUP2 SLOAD DUP2 LT PUSH2 0x348 JUMPI PUSH2 0x347 PUSH2 0xA80 JUMP JUMPDEST JUMPDEST SWAP1 PUSH1 0x0 MSTORE PUSH1 0x20 PUSH1 0x0 KECCAK256 ADD PUSH1 0x0 SWAP1 SLOAD SWAP1 PUSH2 0x100 EXP SWAP1 DIV PUSH20 0xFFFFFFFFFFFFFFFFFFFFFFFFFFFFFFFFFFFFFFFF AND PUSH20 0xFFFFFFFFFFFFFFFFFFFFFFFFFFFFFFFFFFFFFFFF AND PUSH2 0x8FC SELFBALANCE SWAP1 DUP2 ISZERO MUL SWAP1 PUSH1 0x40 MLOAD PUSH1 0x0 PUSH1 0x40 MLOAD DUP1 DUP4 SUB DUP2 DUP6 DUP9 DUP9 CALL SWAP4 POP POP POP POP ISZERO DUP1 ISZERO PUSH2 0x3B8 JUMPI RETURNDATASIZE PUSH1 0x0 DUP1 RETURNDATACOPY RETURNDATASIZE PUSH1 0x0 REVERT JUMPDEST POP PUSH1 0x1 DUP2 DUP2 SLOAD DUP2 LT PUSH2 0x3CD JUMPI PUSH2 0x3CC PUSH2 0xA80 JUMP JUMPDEST JUMPDEST SWAP1 PUSH1 0x0 MSTORE PUSH1 0x20 PUSH1 0x0 KECCAK256 ADD PUSH1 0x0 SWAP1 SLOAD SWAP1 PUSH2 0x100 EXP SWAP1 DIV PUSH20 0xFFFFFFFFFFFFFFFFFFFFFFFFFFFFFFFFFFFFFFFF AND PUSH1 0x3 PUSH1 0x0 PUSH1 0x2 SLOAD DUP2 MSTORE PUSH1 0x20 ADD SWAP1 DUP2 MSTORE PUSH1 0x20 ADD PUSH1 0x0 KECCAK256 PUSH1 0x0 PUSH2 0x100 EXP DUP2 SLOAD DUP2 PUSH20 0xFFFFFFFFFFFFFFFFFFFFFFFFFFFFFFFFFFFFFFFF MUL NOT AND SWAP1 DUP4 PUSH20 0xFFFFFFFFFFFFFFFFFFFFFFFFFFFFFFFFFFFFFFFF AND MUL OR SWAP1 SSTORE POP PUSH1 0x2 PUSH1 0x0 DUP2 SLOAD DUP1 SWAP3 SWAP2 SWAP1 PUSH2 0x45E SWAP1 PUSH2 0xADE JUMP JUMPDEST SWAP2 SWAP1 POP SSTORE POP PUSH1 0x0 PUSH8 0xFFFFFFFFFFFFFFFF DUP2 GT ISZERO PUSH2 0x47E JUMPI PUSH2 0x47D PUSH2 0xB26 JUMP JUMPDEST JUMPDEST PUSH1 0x40 MLOAD SWAP1 DUP1 DUP3 MSTORE DUP1 PUSH1 0x20 MUL PUSH1 0x20 ADD DUP3 ADD PUSH1 0x40 MSTORE DUP1 ISZERO PUSH2 0x4AC JUMPI DUP2 PUSH1 0x20 ADD PUSH1 0x20 DUP3 MUL DUP1 CALLDATASIZE DUP4 CALLDATACOPY DUP1 DUP3 ADD SWAP2 POP POP SWAP1 POP JUMPDEST POP PUSH1 0x1 SWAP1 DUP1 MLOAD SWAP1 PUSH1 0x20 ADD SWAP1 PUSH2 0x4C2 SWAP3 SWAP2 SWAP1 PUSH2 0x6F2 JUMP JUMPDEST POP POP JUMP JUMPDEST PUSH1 0x3 PUSH1 0x20 MSTORE DUP1 PUSH1 0x0 MSTORE PUSH1 0x40 PUSH1 0x0 KECCAK256 PUSH1 0x0 SWAP2 POP SLOAD SWAP1 PUSH2 0x100 EXP SWAP1 DIV PUSH20 0xFFFFFFFFFFFFFFFFFFFFFFFFFFFFFFFFFFFFFFFF AND DUP2 JUMP JUMPDEST PUSH1 0x60 PUSH1 0x1 DUP1 SLOAD DUP1 PUSH1 0x20 MUL PUSH1 0x20 ADD PUSH1 0x40 MLOAD SWAP1 DUP2 ADD PUSH1 0x40 MSTORE DUP1 SWAP3 SWAP2 SWAP1 DUP2 DUP2 MSTORE PUSH1 0x20 ADD DUP3 DUP1 SLOAD DUP1 ISZERO PUSH2 0x57D JUMPI PUSH1 0x20 MUL DUP3 ADD SWAP2 SWAP1 PUSH1 0x0 MSTORE PUSH1 0x20 PUSH1 0x0 KECCAK256 SWAP1 JUMPDEST DUP2 PUSH1 0x0 SWAP1 SLOAD SWAP1 PUSH2 0x100 EXP SWAP1 DIV PUSH20 0xFFFFFFFFFFFFFFFFFFFFFFFFFFFFFFFFFFFFFFFF AND PUSH20 0xFFFFFFFFFFFFFFFFFFFFFFFFFFFFFFFFFFFFFFFF AND DUP2 MSTORE PUSH1 0x20 ADD SWAP1 PUSH1 0x1 ADD SWAP1 DUP1 DUP4 GT PUSH2 0x533 JUMPI JUMPDEST POP POP POP POP POP SWAP1 POP SWAP1 JUMP JUMPDEST PUSH1 0x0 DUP1 SLOAD SWAP1 PUSH2 0x100 EXP SWAP1 DIV PUSH20 0xFFFFFFFFFFFFFFFFFFFFFFFFFFFFFFFFFFFFFFFF AND DUP2 JUMP JUMPDEST PUSH1 0x0 DUP1 PUSH1 0x0 SWAP1 SLOAD SWAP1 PUSH2 0x100 EXP SWAP1 DIV PUSH20 0xFFFFFFFFFFFFFFFFFFFFFFFFFFFFFFFFFFFFFFFF AND TIMESTAMP PUSH1 0x40 MLOAD PUSH1 0x20 ADD PUSH2 0x5E1 SWAP3 SWAP2 SWAP1 PUSH2 0xBBE JUMP JUMPDEST PUSH1 0x40 MLOAD PUSH1 0x20 DUP2 DUP4 SUB SUB DUP2 MSTORE SWAP1 PUSH1 0x40 MSTORE DUP1 MLOAD SWAP1 PUSH1 0x20 ADD KECCAK256 PUSH1 0x0 SHR SWAP1 POP SWAP1 JUMP JUMPDEST PUSH1 0x2 SLOAD DUP2 JUMP JUMPDEST PUSH7 0x38D7EA4C68000 CALLVALUE GT PUSH2 0x64E JUMPI PUSH1 0x40 MLOAD PUSH32 0x8C379A000000000000000000000000000000000000000000000000000000000 DUP2 MSTORE PUSH1 0x4 ADD PUSH2 0x645 SWAP1 PUSH2 0xC5C JUMP JUMPDEST PUSH1 0x40 MLOAD DUP1 SWAP2 SUB SWAP1 REVERT JUMPDEST PUSH1 0x1 CALLER SWAP1 DUP1 PUSH1 0x1 DUP2 SLOAD ADD DUP1 DUP3 SSTORE DUP1 SWAP2 POP POP PUSH1 0x1 SWAP1 SUB SWAP1 PUSH1 0x0 MSTORE PUSH1 0x20 PUSH1 0x0 KECCAK256 ADD PUSH1 0x0 SWAP1 SWAP2 SWAP1 SWAP2 SWAP1 SWAP2 PUSH2 0x100 EXP DUP2 SLOAD DUP2 PUSH20 0xFFFFFFFFFFFFFFFFFFFFFFFFFFFFFFFFFFFFFFFF MUL NOT AND SWAP1 DUP4 PUSH20 0xFFFFFFFFFFFFFFFFFFFFFFFFFFFFFFFFFFFFFFFF AND MUL OR SWAP1 SSTORE POP JUMP JUMPDEST PUSH1 0x1 DUP2 DUP2 SLOAD DUP2 LT PUSH2 0x6C3 JUMPI PUSH1 0x0 DUP1 REVERT JUMPDEST SWAP1 PUSH1 0x0 MSTORE PUSH1 0x20 PUSH1 0x0 KECCAK256 ADD PUSH1 0x0 SWAP2 POP SLOAD SWAP1 PUSH2 0x100 EXP SWAP1 DIV PUSH20 0xFFFFFFFFFFFFFFFFFFFFFFFFFFFFFFFFFFFFFFFF AND DUP2 JUMP JUMPDEST DUP3 DUP1 SLOAD DUP3 DUP3 SSTORE SWAP1 PUSH1 0x0 MSTORE PUSH1 0x20 PUSH1 0x0 KECCAK256 SWAP1 DUP2 ADD SWAP3 DUP3 ISZERO PUSH2 0x76B JUMPI SWAP2 PUSH1 0x20 MUL DUP3 ADD JUMPDEST DUP3 DUP2 GT ISZERO PUSH2 0x76A JUMPI DUP3 MLOAD DUP3 PUSH1 0x0 PUSH2 0x100 EXP DUP2 SLOAD DUP2 PUSH20 0xFFFFFFFFFFFFFFFFFFFFFFFFFFFFFFFFFFFFFFFF MUL NOT AND SWAP1 DUP4 PUSH20 0xFFFFFFFFFFFFFFFFFFFFFFFFFFFFFFFFFFFFFFFF AND MUL OR SWAP1 SSTORE POP SWAP2 PUSH1 0x20 ADD SWAP2 SWAP1 PUSH1 0x1 ADD SWAP1 PUSH2 0x712 JUMP JUMPDEST JUMPDEST POP SWAP1 POP PUSH2 0x778 SWAP2 SWAP1 PUSH2 0x77C JUMP JUMPDEST POP SWAP1 JUMP JUMPDEST JUMPDEST DUP1 DUP3 GT ISZERO PUSH2 0x795 JUMPI PUSH1 0x0 DUP2 PUSH1 0x0 SWAP1 SSTORE POP PUSH1 0x1 ADD PUSH2 0x77D JUMP JUMPDEST POP SWAP1 JUMP JUMPDEST PUSH1 0x0 DUP2 SWAP1 POP SWAP2 SWAP1 POP JUMP JUMPDEST PUSH2 0x7AC DUP2 PUSH2 0x799 JUMP JUMPDEST DUP3 MSTORE POP POP JUMP JUMPDEST PUSH1 0x0 PUSH1 0x20 DUP3 ADD SWAP1 POP PUSH2 0x7C7 PUSH1 0x0 DUP4 ADD DUP5 PUSH2 0x7A3 JUMP JUMPDEST SWAP3 SWAP2 POP POP JUMP JUMPDEST PUSH1 0x0 DUP1 REVERT JUMPDEST PUSH2 0x7DB DUP2 PUSH2 0x799 JUMP JUMPDEST DUP2 EQ PUSH2 0x7E6 JUMPI PUSH1 0x0 DUP1 REVERT JUMPDEST POP JUMP JUMPDEST PUSH1 0x0 DUP2 CALLDATALOAD SWAP1 POP PUSH2 0x7F8 DUP2 PUSH2 0x7D2 JUMP JUMPDEST SWAP3 SWAP2 POP POP JUMP JUMPDEST PUSH1 0x0 PUSH1 0x20 DUP3 DUP5 SUB SLT ISZERO PUSH2 0x814 JUMPI PUSH2 0x813 PUSH2 0x7CD JUMP JUMPDEST JUMPDEST PUSH1 0x0 PUSH2 0x822 DUP5 DUP3 DUP6 ADD PUSH2 0x7E9 JUMP JUMPDEST SWAP2 POP POP SWAP3 SWAP2 POP POP JUMP JUMPDEST PUSH1 0x0 PUSH20 0xFFFFFFFFFFFFFFFFFFFFFFFFFFFFFFFFFFFFFFFF DUP3 AND SWAP1 POP SWAP2 SWAP1 POP JUMP JUMPDEST PUSH1 0x0 PUSH2 0x856 DUP3 PUSH2 0x82B JUMP JUMPDEST SWAP1 POP SWAP2 SWAP1 POP JUMP JUMPDEST PUSH2 0x866 DUP2 PUSH2 0x84B JUMP JUMPDEST DUP3 MSTORE POP POP JUMP JUMPDEST PUSH1 0x0 PUSH1 0x20 DUP3 ADD SWAP1 POP PUSH2 0x881 PUSH1 0x0 DUP4 ADD DUP5 PUSH2 0x85D JUMP JUMPDEST SWAP3 SWAP2 POP POP JUMP JUMPDEST PUSH1 0x0 DUP2 MLOAD SWAP1 POP SWAP2 SWAP1 POP JUMP JUMPDEST PUSH1 0x0 DUP3 DUP3 MSTORE PUSH1 0x20 DUP3 ADD SWAP1 POP SWAP3 SWAP2 POP POP JUMP JUMPDEST PUSH1 0x0 DUP2 SWAP1 POP PUSH1 0x20 DUP3 ADD SWAP1 POP SWAP2 SWAP1 POP JUMP JUMPDEST PUSH2 0x8BC DUP2 PUSH2 0x84B JUMP JUMPDEST DUP3 MSTORE POP POP JUMP JUMPDEST PUSH1 0x0 PUSH2 0x8CE DUP4 DUP4 PUSH2 0x8B3 JUMP JUMPDEST PUSH1 0x20 DUP4 ADD SWAP1 POP SWAP3 SWAP2 POP POP JUMP JUMPDEST PUSH1 0x0 PUSH1 0x20 DUP3 ADD SWAP1 POP SWAP2 SWAP1 POP JUMP JUMPDEST PUSH1 0x0 PUSH2 0x8F2 DUP3 PUSH2 0x887 JUMP JUMPDEST PUSH2 0x8FC DUP2 DUP6 PUSH2 0x892 JUMP JUMPDEST SWAP4 POP PUSH2 0x907 DUP4 PUSH2 0x8A3 JUMP JUMPDEST DUP1 PUSH1 0x0 JUMPDEST DUP4 DUP2 LT ISZERO PUSH2 0x938 JUMPI DUP2 MLOAD PUSH2 0x91F DUP9 DUP3 PUSH2 0x8C2 JUMP JUMPDEST SWAP8 POP PUSH2 0x92A DUP4 PUSH2 0x8DA JUMP JUMPDEST SWAP3 POP POP PUSH1 0x1 DUP2 ADD SWAP1 POP PUSH2 0x90B JUMP JUMPDEST POP DUP6 SWAP4 POP POP POP POP SWAP3 SWAP2 POP POP JUMP JUMPDEST PUSH1 0x0 PUSH1 0x20 DUP3 ADD SWAP1 POP DUP2 DUP2 SUB PUSH1 0x0 DUP4 ADD MSTORE PUSH2 0x95F DUP2 DUP5 PUSH2 0x8E7 JUMP JUMPDEST SWAP1 POP SWAP3 SWAP2 POP POP JUMP JUMPDEST PUSH1 0x0 PUSH2 0x972 DUP3 PUSH2 0x82B JUMP JUMPDEST SWAP1 POP SWAP2 SWAP1 POP JUMP JUMPDEST PUSH2 0x982 DUP2 PUSH2 0x967 JUMP JUMPDEST DUP3 MSTORE POP POP JUMP JUMPDEST PUSH1 0x0 PUSH1 0x20 DUP3 ADD SWAP1 POP PUSH2 0x99D PUSH1 0x0 DUP4 ADD DUP5 PUSH2 0x979 JUMP JUMPDEST SWAP3 SWAP2 POP POP JUMP JUMPDEST PUSH1 0x0 DUP3 DUP3 MSTORE PUSH1 0x20 DUP3 ADD SWAP1 POP SWAP3 SWAP2 POP POP JUMP JUMPDEST PUSH32 0x6F6E6C79206F776E657220636E61207069636B207468652077696E6E65720000 PUSH1 0x0 DUP3 ADD MSTORE POP JUMP JUMPDEST PUSH1 0x0 PUSH2 0x9EA PUSH1 0x1E DUP4 PUSH2 0x9A3 JUMP JUMPDEST SWAP2 POP PUSH2 0x9F5 DUP3 PUSH2 0x9B4 JUMP JUMPDEST PUSH1 0x20 DUP3 ADD SWAP1 POP SWAP2 SWAP1 POP JUMP JUMPDEST PUSH1 0x0 PUSH1 0x20 DUP3 ADD SWAP1 POP DUP2 DUP2 SUB PUSH1 0x0 DUP4 ADD MSTORE PUSH2 0xA19 DUP2 PUSH2 0x9DD JUMP JUMPDEST SWAP1 POP SWAP2 SWAP1 POP JUMP JUMPDEST PUSH32 0x4E487B7100000000000000000000000000000000000000000000000000000000 PUSH1 0x0 MSTORE PUSH1 0x12 PUSH1 0x4 MSTORE PUSH1 0x24 PUSH1 0x0 REVERT JUMPDEST PUSH1 0x0 PUSH2 0xA5A DUP3 PUSH2 0x799 JUMP JUMPDEST SWAP2 POP PUSH2 0xA65 DUP4 PUSH2 0x799 JUMP JUMPDEST SWAP3 POP DUP3 PUSH2 0xA75 JUMPI PUSH2 0xA74 PUSH2 0xA20 JUMP JUMPDEST JUMPDEST DUP3 DUP3 MOD SWAP1 POP SWAP3 SWAP2 POP POP JUMP JUMPDEST PUSH32 0x4E487B7100000000000000000000000000000000000000000000000000000000 PUSH1 0x0 MSTORE PUSH1 0x32 PUSH1 0x4 MSTORE PUSH1 0x24 PUSH1 0x0 REVERT JUMPDEST PUSH32 0x4E487B7100000000000000000000000000000000000000000000000000000000 PUSH1 0x0 MSTORE PUSH1 0x11 PUSH1 0x4 MSTORE PUSH1 0x24 PUSH1 0x0 REVERT JUMPDEST PUSH1 0x0 PUSH2 0xAE9 DUP3 PUSH2 0x799 JUMP JUMPDEST SWAP2 POP PUSH32 0xFFFFFFFFFFFFFFFFFFFFFFFFFFFFFFFFFFFFFFFFFFFFFFFFFFFFFFFFFFFFFFFF DUP3 SUB PUSH2 0xB1B JUMPI PUSH2 0xB1A PUSH2 0xAAF JUMP JUMPDEST JUMPDEST PUSH1 0x1 DUP3 ADD SWAP1 POP SWAP2 SWAP1 POP JUMP JUMPDEST PUSH32 0x4E487B7100000000000000000000000000000000000000000000000000000000 PUSH1 0x0 MSTORE PUSH1 0x41 PUSH1 0x4 MSTORE PUSH1 0x24 PUSH1 0x0 REVERT JUMPDEST PUSH1 0x0 DUP2 PUSH1 0x60 SHL SWAP1 POP SWAP2 SWAP1 POP JUMP JUMPDEST PUSH1 0x0 PUSH2 0xB6D DUP3 PUSH2 0xB55 JUMP JUMPDEST SWAP1 POP SWAP2 SWAP1 POP JUMP JUMPDEST PUSH1 0x0 PUSH2 0xB7F DUP3 PUSH2 0xB62 JUMP JUMPDEST SWAP1 POP SWAP2 SWAP1 POP JUMP JUMPDEST PUSH2 0xB97 PUSH2 0xB92 DUP3 PUSH2 0x967 JUMP JUMPDEST PUSH2 0xB74 JUMP JUMPDEST DUP3 MSTORE POP POP JUMP JUMPDEST PUSH1 0x0 DUP2 SWAP1 POP SWAP2 SWAP1 POP JUMP JUMPDEST PUSH2 0xBB8 PUSH2 0xBB3 DUP3 PUSH2 0x799 JUMP JUMPDEST PUSH2 0xB9D JUMP JUMPDEST DUP3 MSTORE POP POP JUMP JUMPDEST PUSH1 0x0 PUSH2 0xBCA DUP3 DUP6 PUSH2 0xB86 JUMP JUMPDEST PUSH1 0x14 DUP3 ADD SWAP2 POP PUSH2 0xBDA DUP3 DUP5 PUSH2 0xBA7 JUMP JUMPDEST PUSH1 0x20 DUP3 ADD SWAP2 POP DUP2 SWAP1 POP SWAP4 SWAP3 POP POP POP JUMP JUMPDEST PUSH32 0x4E65656420677261746572207468616E20302E303031206574686572206D616E PUSH1 0x0 DUP3 ADD MSTORE PUSH32 0x2121000000000000000000000000000000000000000000000000000000000000 PUSH1 0x20 DUP3 ADD MSTORE POP JUMP JUMPDEST PUSH1 0x0 PUSH2 0xC46 PUSH1 0x22 DUP4 PUSH2 0x9A3 JUMP JUMPDEST SWAP2 POP PUSH2 0xC51 DUP3 PUSH2 0xBEA JUMP JUMPDEST PUSH1 0x40 DUP3 ADD SWAP1 POP SWAP2 SWAP1 POP JUMP JUMPDEST PUSH1 0x0 PUSH1 0x20 DUP3 ADD SWAP1 POP DUP2 DUP2 SUB PUSH1 0x0 DUP4 ADD MSTORE PUSH2 0xC75 DUP2 PUSH2 0xC39 JUMP JUMPDEST SWAP1 POP SWAP2 SWAP1 POP JUMP INVALID LOG2 PUSH5 0x6970667358 0x22 SLT KECCAK256 SHR 0xF6 CHAINID EXTCODEHASH SWAP11 SWAP9 0xD6 DUP9 EXTCODEHASH STATICCALL PUSH18 0x9BA1FF17F4F87C684103660804858E917AFB DUP16 INVALID SWAP8 PUSH5 0x736F6C6343 STOP ADDMOD GT STOP CALLER "
				},
				"gasEstimates": {
					"creation": {
						"codeDepositCost": "650000",
						"executionCost": "47063",
						"totalCost": "697063"
					},
					"external": {
						"enter()": "48786",
						"getBalance()": "340",
						"getPlayers()": "infinite",
						"getRandomNumber()": "infinite",
						"getWinnerByLottery(uint256)": "2888",
						"lotteryHistory(uint256)": "2906",
						"lotteryId()": "2473",
						"owner()": "2511",
						"pickWinner()": "infinite",
						"players(uint256)": "5044"
					}
				},
				"methodIdentifiers": {
					"enter()": "e97dcb62",
					"getBalance()": "12065fe0",
					"getPlayers()": "8b5b9ccc",
					"getRandomNumber()": "dbdff2c1",
					"getWinnerByLottery(uint256)": "281d098d",
					"lotteryHistory(uint256)": "6d6fe230",
					"lotteryId()": "e580f47b",
					"owner()": "8da5cb5b",
					"pickWinner()": "5d495aea",
					"players(uint256)": "f71d96cb"
				}
			},
			"storageLayout": {
				"storage": [
					{
						"astId": 3,
						"contract": "contracts/_Lottery.sol:Lottery",
						"label": "owner",
						"offset": 0,
						"slot": "0",
						"type": "t_address"
					},
					{
						"astId": 6,
						"contract": "contracts/_Lottery.sol:Lottery",
						"label": "players",
						"offset": 0,
						"slot": "1",
						"type": "t_array(t_address_payable)dyn_storage"
					},
					{
						"astId": 8,
						"contract": "contracts/_Lottery.sol:Lottery",
						"label": "lotteryId",
						"offset": 0,
						"slot": "2",
						"type": "t_uint256"
					},
					{
						"astId": 12,
						"contract": "contracts/_Lottery.sol:Lottery",
						"label": "lotteryHistory",
						"offset": 0,
						"slot": "3",
						"type": "t_mapping(t_uint256,t_address_payable)"
					}
				],
				"types": {
					"t_address": {
						"encoding": "inplace",
						"label": "address",
						"numberOfBytes": "20"
					},
					"t_address_payable": {
						"encoding": "inplace",
						"label": "address payable",
						"numberOfBytes": "20"
					},
					"t_array(t_address_payable)dyn_storage": {
						"base": "t_address_payable",
						"encoding": "dynamic_array",
						"label": "address payable[]",
						"numberOfBytes": "32"
					},
					"t_mapping(t_uint256,t_address_payable)": {
						"encoding": "mapping",
						"key": "t_uint256",
						"label": "mapping(uint256 => address payable)",
						"numberOfBytes": "32",
						"value": "t_address_payable"
					},
					"t_uint256": {
						"encoding": "inplace",
						"label": "uint256",
						"numberOfBytes": "32"
					}
				}
			},
			"userdoc": {
				"kind": "user",
				"methods": {},
				"version": 1
			}
		}
	}
}