{
	"contracts/ShareSecretNative.sol": {
		"SecretShare": {
			"abi": [
				{
					"inputs": [],
					"stateMutability": "nonpayable",
					"type": "constructor"
				},
				{
					"inputs": [
						{
							"internalType": "address payable",
							"name": "shareHolder",
							"type": "address"
						}
					],
					"name": "addShareHolders",
					"outputs": [],
					"stateMutability": "nonpayable",
					"type": "function"
				},
				{
					"inputs": [],
					"name": "askingFromHolders",
					"outputs": [],
					"stateMutability": "nonpayable",
					"type": "function"
				},
				{
					"inputs": [],
					"name": "distribute",
					"outputs": [],
					"stateMutability": "nonpayable",
					"type": "function"
				},
				{
					"inputs": [],
					"name": "getShareHolders",
					"outputs": [
						{
							"internalType": "address payable[]",
							"name": "",
							"type": "address[]"
						}
					],
					"stateMutability": "view",
					"type": "function"
				},
				{
					"inputs": [],
					"name": "getShares",
					"outputs": [
						{
							"internalType": "string[]",
							"name": "",
							"type": "string[]"
						}
					],
					"stateMutability": "view",
					"type": "function"
				},
				{
					"inputs": [
						{
							"internalType": "address payable",
							"name": "holder",
							"type": "address"
						},
						{
							"internalType": "string",
							"name": "share",
							"type": "string"
						}
					],
					"name": "notifySendingToHolders",
					"outputs": [],
					"stateMutability": "nonpayable",
					"type": "function"
				},
				{
					"inputs": [],
					"name": "owner",
					"outputs": [
						{
							"internalType": "address",
							"name": "",
							"type": "address"
						}
					],
					"stateMutability": "view",
					"type": "function"
				},
				{
					"inputs": [
						{
							"internalType": "address",
							"name": "name",
							"type": "address"
						}
					],
					"name": "regenerate",
					"outputs": [],
					"stateMutability": "nonpayable",
					"type": "function"
				},
				{
					"inputs": [
						{
							"internalType": "uint256",
							"name": "index",
							"type": "uint256"
						}
					],
					"name": "remove",
					"outputs": [],
					"stateMutability": "nonpayable",
					"type": "function"
				},
				{
					"inputs": [
						{
							"internalType": "address payable",
							"name": "shareHolder",
							"type": "address"
						}
					],
					"name": "removeShareHolders",
					"outputs": [],
					"stateMutability": "nonpayable",
					"type": "function"
				},
				{
					"inputs": [
						{
							"internalType": "uint256",
							"name": "",
							"type": "uint256"
						}
					],
					"name": "shareHolders",
					"outputs": [
						{
							"internalType": "address payable",
							"name": "",
							"type": "address"
						}
					],
					"stateMutability": "view",
					"type": "function"
				},
				{
					"inputs": [
						{
							"internalType": "address",
							"name": "",
							"type": "address"
						}
					],
					"name": "shareHoldersMap",
					"outputs": [
						{
							"internalType": "string",
							"name": "",
							"type": "string"
						}
					],
					"stateMutability": "view",
					"type": "function"
				},
				{
					"inputs": [
						{
							"internalType": "uint256",
							"name": "",
							"type": "uint256"
						}
					],
					"name": "shares",
					"outputs": [
						{
							"internalType": "string",
							"name": "",
							"type": "string"
						}
					],
					"stateMutability": "view",
					"type": "function"
				},
				{
					"inputs": [
						{
							"internalType": "address",
							"name": "",
							"type": "address"
						}
					],
					"name": "sharesMap",
					"outputs": [
						{
							"internalType": "string",
							"name": "",
							"type": "string"
						}
					],
					"stateMutability": "view",
					"type": "function"
				}
			],
			"devdoc": {
				"kind": "dev",
				"methods": {},
				"version": 1
			},
			"evm": {
				"assembly": "    /* \"contracts/ShareSecretNative.sol\":88:2561  contract SecretShare {... */\n  mstore(0x40, 0x80)\n    /* \"contracts/ShareSecretNative.sol\":437:538  constructor() {... */\n  callvalue\n  dup1\n  iszero\n  tag_1\n  jumpi\n  0x00\n  dup1\n  revert\ntag_1:\n  pop\n    /* \"contracts/ShareSecretNative.sol\":470:480  msg.sender */\n  caller\n    /* \"contracts/ShareSecretNative.sol\":462:467  owner */\n  0x00\n  dup1\n    /* \"contracts/ShareSecretNative.sol\":462:480  owner = msg.sender */\n  0x0100\n  exp\n  dup2\n  sload\n  dup2\n  0xffffffffffffffffffffffffffffffffffffffff\n  mul\n  not\n  and\n  swap1\n  dup4\n  0xffffffffffffffffffffffffffffffffffffffff\n  and\n  mul\n  or\n  swap1\n  sstore\n  pop\n    /* \"contracts/ShareSecretNative.sol\":491:530  shares = [\"describe\", \"action\", \"defy\"] */\n  mload(0x40)\n  dup1\n  0x60\n  add\n  0x40\n  mstore\n  dup1\n  mload(0x40)\n  dup1\n  0x40\n  add\n  0x40\n  mstore\n  dup1\n  0x08\n  dup2\n  mstore\n  0x20\n  add\n  0x6465736372696265000000000000000000000000000000000000000000000000\n  dup2\n  mstore\n  pop\n  dup2\n  mstore\n  0x20\n  add\n  mload(0x40)\n  dup1\n  0x40\n  add\n  0x40\n  mstore\n  dup1\n  0x06\n  dup2\n  mstore\n  0x20\n  add\n  0x616374696f6e0000000000000000000000000000000000000000000000000000\n  dup2\n  mstore\n  pop\n  dup2\n  mstore\n  0x20\n  add\n  mload(0x40)\n  dup1\n  0x40\n  add\n  0x40\n  mstore\n  dup1\n  0x04\n  dup2\n  mstore\n  0x20\n  add\n  0x6465667900000000000000000000000000000000000000000000000000000000\n  dup2\n  mstore\n  pop\n  dup2\n  mstore\n  pop\n    /* \"contracts/ShareSecretNative.sol\":491:497  shares */\n  0x02\n    /* \"contracts/ShareSecretNative.sol\":491:530  shares = [\"describe\", \"action\", \"defy\"] */\n  swap1\n  0x03\n  tag_4\n  swap3\n  swap2\n  swap1\n  tag_5\n  jump\t// in\ntag_4:\n  pop\n    /* \"contracts/ShareSecretNative.sol\":88:2561  contract SecretShare {... */\n  jump(tag_6)\ntag_5:\n  dup3\n  dup1\n  sload\n  dup3\n  dup3\n  sstore\n  swap1\n  0x00\n  mstore\n  keccak256(0x00, 0x20)\n  swap1\n  dup2\n  add\n  swap3\n  dup3\n  iszero\n  tag_7\n  jumpi\n  swap2\n  0x20\n  mul\n  dup3\n  add\ntag_8:\n  dup3\n  dup2\n  gt\n  iszero\n  tag_9\n  jumpi\n  dup3\n  mload\n  dup3\n  swap1\n  dup2\n  tag_10\n  swap2\n  swap1\n  tag_11\n  jump\t// in\ntag_10:\n  pop\n  swap2\n  0x20\n  add\n  swap2\n  swap1\n  0x01\n  add\n  swap1\n  jump(tag_8)\ntag_9:\ntag_7:\n  pop\n  swap1\n  pop\n  tag_12\n  swap2\n  swap1\n  tag_13\n  jump\t// in\ntag_12:\n  pop\n  swap1\n  jump\t// out\ntag_13:\ntag_14:\n  dup1\n  dup3\n  gt\n  iszero\n  tag_15\n  jumpi\n  0x00\n  dup2\n  dup2\n  tag_16\n  swap2\n  swap1\n  tag_17\n  jump\t// in\ntag_16:\n  pop\n  0x01\n  add\n  jump(tag_14)\ntag_15:\n  pop\n  swap1\n  jump\t// out\ntag_17:\n  pop\n  dup1\n  sload\n  tag_18\n  swap1\n  tag_19\n  jump\t// in\ntag_18:\n  0x00\n  dup3\n  sstore\n  dup1\n  0x1f\n  lt\n  tag_21\n  jumpi\n  pop\n  jump(tag_20)\ntag_21:\n  0x1f\n  add\n  0x20\n  swap1\n  div\n  swap1\n  0x00\n  mstore\n  keccak256(0x00, 0x20)\n  swap1\n  dup2\n  add\n  swap1\n  tag_22\n  swap2\n  swap1\n  tag_23\n  jump\t// in\ntag_22:\ntag_20:\n  pop\n  jump\t// out\ntag_23:\ntag_24:\n  dup1\n  dup3\n  gt\n  iszero\n  tag_25\n  jumpi\n  0x00\n  dup2\n  0x00\n  swap1\n  sstore\n  pop\n  0x01\n  add\n  jump(tag_24)\ntag_25:\n  pop\n  swap1\n  jump\t// out\n    /* \"#utility.yul\":7:106   */\ntag_26:\n    /* \"#utility.yul\":59:65   */\n  0x00\n    /* \"#utility.yul\":93:98   */\n  dup2\n    /* \"#utility.yul\":87:99   */\n  mload\n    /* \"#utility.yul\":77:99   */\n  swap1\n  pop\n    /* \"#utility.yul\":7:106   */\n  swap2\n  swap1\n  pop\n  jump\t// out\n    /* \"#utility.yul\":112:292   */\ntag_27:\n    /* \"#utility.yul\":160:237   */\n  0x4e487b7100000000000000000000000000000000000000000000000000000000\n    /* \"#utility.yul\":157:158   */\n  0x00\n    /* \"#utility.yul\":150:238   */\n  mstore\n    /* \"#utility.yul\":257:261   */\n  0x41\n    /* \"#utility.yul\":254:255   */\n  0x04\n    /* \"#utility.yul\":247:262   */\n  mstore\n    /* \"#utility.yul\":281:285   */\n  0x24\n    /* \"#utility.yul\":278:279   */\n  0x00\n    /* \"#utility.yul\":271:286   */\n  revert\n    /* \"#utility.yul\":298:478   */\ntag_28:\n    /* \"#utility.yul\":346:423   */\n  0x4e487b7100000000000000000000000000000000000000000000000000000000\n    /* \"#utility.yul\":343:344   */\n  0x00\n    /* \"#utility.yul\":336:424   */\n  mstore\n    /* \"#utility.yul\":443:447   */\n  0x22\n    /* \"#utility.yul\":440:441   */\n  0x04\n    /* \"#utility.yul\":433:448   */\n  mstore\n    /* \"#utility.yul\":467:471   */\n  0x24\n    /* \"#utility.yul\":464:465   */\n  0x00\n    /* \"#utility.yul\":457:472   */\n  revert\n    /* \"#utility.yul\":484:804   */\ntag_19:\n    /* \"#utility.yul\":528:534   */\n  0x00\n    /* \"#utility.yul\":565:566   */\n  0x02\n    /* \"#utility.yul\":559:563   */\n  dup3\n    /* \"#utility.yul\":555:567   */\n  div\n    /* \"#utility.yul\":545:567   */\n  swap1\n  pop\n    /* \"#utility.yul\":612:613   */\n  0x01\n    /* \"#utility.yul\":606:610   */\n  dup3\n    /* \"#utility.yul\":602:614   */\n  and\n    /* \"#utility.yul\":633:651   */\n  dup1\n    /* \"#utility.yul\":623:704   */\n  tag_50\n  jumpi\n    /* \"#utility.yul\":689:693   */\n  0x7f\n    /* \"#utility.yul\":681:687   */\n  dup3\n    /* \"#utility.yul\":677:694   */\n  and\n    /* \"#utility.yul\":667:694   */\n  swap2\n  pop\n    /* \"#utility.yul\":623:704   */\ntag_50:\n    /* \"#utility.yul\":751:753   */\n  0x20\n    /* \"#utility.yul\":743:749   */\n  dup3\n    /* \"#utility.yul\":740:754   */\n  lt\n    /* \"#utility.yul\":720:738   */\n  dup2\n    /* \"#utility.yul\":717:755   */\n  sub\n    /* \"#utility.yul\":714:798   */\n  tag_51\n  jumpi\n    /* \"#utility.yul\":770:788   */\n  tag_52\n  tag_28\n  jump\t// in\ntag_52:\n    /* \"#utility.yul\":714:798   */\ntag_51:\n    /* \"#utility.yul\":535:804   */\n  pop\n    /* \"#utility.yul\":484:804   */\n  swap2\n  swap1\n  pop\n  jump\t// out\n    /* \"#utility.yul\":810:951   */\ntag_29:\n    /* \"#utility.yul\":859:863   */\n  0x00\n    /* \"#utility.yul\":882:885   */\n  dup2\n    /* \"#utility.yul\":874:885   */\n  swap1\n  pop\n    /* \"#utility.yul\":905:908   */\n  dup2\n    /* \"#utility.yul\":902:903   */\n  0x00\n    /* \"#utility.yul\":895:909   */\n  mstore\n    /* \"#utility.yul\":939:943   */\n  0x20\n    /* \"#utility.yul\":936:937   */\n  0x00\n    /* \"#utility.yul\":926:944   */\n  keccak256\n    /* \"#utility.yul\":918:944   */\n  swap1\n  pop\n    /* \"#utility.yul\":810:951   */\n  swap2\n  swap1\n  pop\n  jump\t// out\n    /* \"#utility.yul\":957:1050   */\ntag_30:\n    /* \"#utility.yul\":994:1000   */\n  0x00\n    /* \"#utility.yul\":1041:1043   */\n  0x20\n    /* \"#utility.yul\":1036:1038   */\n  0x1f\n    /* \"#utility.yul\":1029:1034   */\n  dup4\n    /* \"#utility.yul\":1025:1039   */\n  add\n    /* \"#utility.yul\":1021:1044   */\n  div\n    /* \"#utility.yul\":1011:1044   */\n  swap1\n  pop\n    /* \"#utility.yul\":957:1050   */\n  swap2\n  swap1\n  pop\n  jump\t// out\n    /* \"#utility.yul\":1056:1163   */\ntag_31:\n    /* \"#utility.yul\":1100:1108   */\n  0x00\n    /* \"#utility.yul\":1150:1155   */\n  dup3\n    /* \"#utility.yul\":1144:1148   */\n  dup3\n    /* \"#utility.yul\":1140:1156   */\n  shl\n    /* \"#utility.yul\":1119:1156   */\n  swap1\n  pop\n    /* \"#utility.yul\":1056:1163   */\n  swap3\n  swap2\n  pop\n  pop\n  jump\t// out\n    /* \"#utility.yul\":1169:1562   */\ntag_32:\n    /* \"#utility.yul\":1238:1244   */\n  0x00\n    /* \"#utility.yul\":1288:1289   */\n  0x08\n    /* \"#utility.yul\":1276:1286   */\n  dup4\n    /* \"#utility.yul\":1272:1290   */\n  mul\n    /* \"#utility.yul\":1311:1408   */\n  tag_57\n    /* \"#utility.yul\":1341:1407   */\n  0xffffffffffffffffffffffffffffffffffffffffffffffffffffffffffffffff\n    /* \"#utility.yul\":1330:1339   */\n  dup3\n    /* \"#utility.yul\":1311:1408   */\n  tag_31\n  jump\t// in\ntag_57:\n    /* \"#utility.yul\":1429:1468   */\n  tag_58\n    /* \"#utility.yul\":1459:1467   */\n  dup7\n    /* \"#utility.yul\":1448:1457   */\n  dup4\n    /* \"#utility.yul\":1429:1468   */\n  tag_31\n  jump\t// in\ntag_58:\n    /* \"#utility.yul\":1417:1468   */\n  swap6\n  pop\n    /* \"#utility.yul\":1501:1505   */\n  dup1\n    /* \"#utility.yul\":1497:1506   */\n  not\n    /* \"#utility.yul\":1490:1495   */\n  dup5\n    /* \"#utility.yul\":1486:1507   */\n  and\n    /* \"#utility.yul\":1477:1507   */\n  swap4\n  pop\n    /* \"#utility.yul\":1550:1554   */\n  dup1\n    /* \"#utility.yul\":1540:1548   */\n  dup7\n    /* \"#utility.yul\":1536:1555   */\n  and\n    /* \"#utility.yul\":1529:1534   */\n  dup5\n    /* \"#utility.yul\":1526:1556   */\n  or\n    /* \"#utility.yul\":1516:1556   */\n  swap3\n  pop\n    /* \"#utility.yul\":1245:1562   */\n  pop\n  pop\n    /* \"#utility.yul\":1169:1562   */\n  swap4\n  swap3\n  pop\n  pop\n  pop\n  jump\t// out\n    /* \"#utility.yul\":1568:1645   */\ntag_33:\n    /* \"#utility.yul\":1605:1612   */\n  0x00\n    /* \"#utility.yul\":1634:1639   */\n  dup2\n    /* \"#utility.yul\":1623:1639   */\n  swap1\n  pop\n    /* \"#utility.yul\":1568:1645   */\n  swap2\n  swap1\n  pop\n  jump\t// out\n    /* \"#utility.yul\":1651:1711   */\ntag_34:\n    /* \"#utility.yul\":1679:1682   */\n  0x00\n    /* \"#utility.yul\":1700:1705   */\n  dup2\n    /* \"#utility.yul\":1693:1705   */\n  swap1\n  pop\n    /* \"#utility.yul\":1651:1711   */\n  swap2\n  swap1\n  pop\n  jump\t// out\n    /* \"#utility.yul\":1717:1859   */\ntag_35:\n    /* \"#utility.yul\":1767:1776   */\n  0x00\n    /* \"#utility.yul\":1800:1853   */\n  tag_62\n    /* \"#utility.yul\":1818:1852   */\n  tag_63\n    /* \"#utility.yul\":1827:1851   */\n  tag_64\n    /* \"#utility.yul\":1845:1850   */\n  dup5\n    /* \"#utility.yul\":1827:1851   */\n  tag_33\n  jump\t// in\ntag_64:\n    /* \"#utility.yul\":1818:1852   */\n  tag_34\n  jump\t// in\ntag_63:\n    /* \"#utility.yul\":1800:1853   */\n  tag_33\n  jump\t// in\ntag_62:\n    /* \"#utility.yul\":1787:1853   */\n  swap1\n  pop\n    /* \"#utility.yul\":1717:1859   */\n  swap2\n  swap1\n  pop\n  jump\t// out\n    /* \"#utility.yul\":1865:1940   */\ntag_36:\n    /* \"#utility.yul\":1908:1911   */\n  0x00\n    /* \"#utility.yul\":1929:1934   */\n  dup2\n    /* \"#utility.yul\":1922:1934   */\n  swap1\n  pop\n    /* \"#utility.yul\":1865:1940   */\n  swap2\n  swap1\n  pop\n  jump\t// out\n    /* \"#utility.yul\":1946:2215   */\ntag_37:\n    /* \"#utility.yul\":2056:2095   */\n  tag_67\n    /* \"#utility.yul\":2087:2094   */\n  dup4\n    /* \"#utility.yul\":2056:2095   */\n  tag_35\n  jump\t// in\ntag_67:\n    /* \"#utility.yul\":2117:2208   */\n  tag_68\n    /* \"#utility.yul\":2166:2207   */\n  tag_69\n    /* \"#utility.yul\":2190:2206   */\n  dup3\n    /* \"#utility.yul\":2166:2207   */\n  tag_36\n  jump\t// in\ntag_69:\n    /* \"#utility.yul\":2158:2164   */\n  dup5\n    /* \"#utility.yul\":2151:2155   */\n  dup5\n    /* \"#utility.yul\":2145:2156   */\n  sload\n    /* \"#utility.yul\":2117:2208   */\n  tag_32\n  jump\t// in\ntag_68:\n    /* \"#utility.yul\":2111:2115   */\n  dup3\n    /* \"#utility.yul\":2104:2209   */\n  sstore\n    /* \"#utility.yul\":2022:2215   */\n  pop\n    /* \"#utility.yul\":1946:2215   */\n  pop\n  pop\n  pop\n  jump\t// out\n    /* \"#utility.yul\":2221:2294   */\ntag_38:\n    /* \"#utility.yul\":2266:2269   */\n  0x00\n    /* \"#utility.yul\":2221:2294   */\n  swap1\n  jump\t// out\n    /* \"#utility.yul\":2300:2489   */\ntag_39:\n    /* \"#utility.yul\":2377:2409   */\n  tag_72\n  tag_38\n  jump\t// in\ntag_72:\n    /* \"#utility.yul\":2418:2483   */\n  tag_73\n    /* \"#utility.yul\":2476:2482   */\n  dup2\n    /* \"#utility.yul\":2468:2474   */\n  dup5\n    /* \"#utility.yul\":2462:2466   */\n  dup5\n    /* \"#utility.yul\":2418:2483   */\n  tag_37\n  jump\t// in\ntag_73:\n    /* \"#utility.yul\":2353:2489   */\n  pop\n    /* \"#utility.yul\":2300:2489   */\n  pop\n  pop\n  jump\t// out\n    /* \"#utility.yul\":2495:2681   */\ntag_40:\n    /* \"#utility.yul\":2555:2675   */\ntag_75:\n    /* \"#utility.yul\":2572:2575   */\n  dup2\n    /* \"#utility.yul\":2565:2570   */\n  dup2\n    /* \"#utility.yul\":2562:2576   */\n  lt\n    /* \"#utility.yul\":2555:2675   */\n  iszero\n  tag_77\n  jumpi\n    /* \"#utility.yul\":2626:2665   */\n  tag_78\n    /* \"#utility.yul\":2663:2664   */\n  0x00\n    /* \"#utility.yul\":2656:2661   */\n  dup3\n    /* \"#utility.yul\":2626:2665   */\n  tag_39\n  jump\t// in\ntag_78:\n    /* \"#utility.yul\":2599:2600   */\n  0x01\n    /* \"#utility.yul\":2592:2597   */\n  dup2\n    /* \"#utility.yul\":2588:2601   */\n  add\n    /* \"#utility.yul\":2579:2601   */\n  swap1\n  pop\n    /* \"#utility.yul\":2555:2675   */\n  jump(tag_75)\ntag_77:\n    /* \"#utility.yul\":2495:2681   */\n  pop\n  pop\n  jump\t// out\n    /* \"#utility.yul\":2687:3230   */\ntag_41:\n    /* \"#utility.yul\":2788:2790   */\n  0x1f\n    /* \"#utility.yul\":2783:2786   */\n  dup3\n    /* \"#utility.yul\":2780:2791   */\n  gt\n    /* \"#utility.yul\":2777:3223   */\n  iszero\n  tag_80\n  jumpi\n    /* \"#utility.yul\":2822:2860   */\n  tag_81\n    /* \"#utility.yul\":2854:2859   */\n  dup2\n    /* \"#utility.yul\":2822:2860   */\n  tag_29\n  jump\t// in\ntag_81:\n    /* \"#utility.yul\":2906:2935   */\n  tag_82\n    /* \"#utility.yul\":2924:2934   */\n  dup5\n    /* \"#utility.yul\":2906:2935   */\n  tag_30\n  jump\t// in\ntag_82:\n    /* \"#utility.yul\":2896:2904   */\n  dup2\n    /* \"#utility.yul\":2892:2936   */\n  add\n    /* \"#utility.yul\":3089:3091   */\n  0x20\n    /* \"#utility.yul\":3077:3087   */\n  dup6\n    /* \"#utility.yul\":3074:3092   */\n  lt\n    /* \"#utility.yul\":3071:3120   */\n  iszero\n  tag_83\n  jumpi\n    /* \"#utility.yul\":3110:3118   */\n  dup2\n    /* \"#utility.yul\":3095:3118   */\n  swap1\n  pop\n    /* \"#utility.yul\":3071:3120   */\ntag_83:\n    /* \"#utility.yul\":3133:3213   */\n  tag_84\n    /* \"#utility.yul\":3189:3211   */\n  tag_85\n    /* \"#utility.yul\":3207:3210   */\n  dup6\n    /* \"#utility.yul\":3189:3211   */\n  tag_30\n  jump\t// in\ntag_85:\n    /* \"#utility.yul\":3179:3187   */\n  dup4\n    /* \"#utility.yul\":3175:3212   */\n  add\n    /* \"#utility.yul\":3162:3173   */\n  dup3\n    /* \"#utility.yul\":3133:3213   */\n  tag_40\n  jump\t// in\ntag_84:\n    /* \"#utility.yul\":2792:3223   */\n  pop\n  pop\n    /* \"#utility.yul\":2777:3223   */\ntag_80:\n    /* \"#utility.yul\":2687:3230   */\n  pop\n  pop\n  pop\n  jump\t// out\n    /* \"#utility.yul\":3236:3353   */\ntag_42:\n    /* \"#utility.yul\":3290:3298   */\n  0x00\n    /* \"#utility.yul\":3340:3345   */\n  dup3\n    /* \"#utility.yul\":3334:3338   */\n  dup3\n    /* \"#utility.yul\":3330:3346   */\n  shr\n    /* \"#utility.yul\":3309:3346   */\n  swap1\n  pop\n    /* \"#utility.yul\":3236:3353   */\n  swap3\n  swap2\n  pop\n  pop\n  jump\t// out\n    /* \"#utility.yul\":3359:3528   */\ntag_43:\n    /* \"#utility.yul\":3403:3409   */\n  0x00\n    /* \"#utility.yul\":3436:3487   */\n  tag_88\n    /* \"#utility.yul\":3484:3485   */\n  0x00\n    /* \"#utility.yul\":3480:3486   */\n  not\n    /* \"#utility.yul\":3472:3477   */\n  dup5\n    /* \"#utility.yul\":3469:3470   */\n  0x08\n    /* \"#utility.yul\":3465:3478   */\n  mul\n    /* \"#utility.yul\":3436:3487   */\n  tag_42\n  jump\t// in\ntag_88:\n    /* \"#utility.yul\":3432:3488   */\n  not\n    /* \"#utility.yul\":3517:3521   */\n  dup1\n    /* \"#utility.yul\":3511:3515   */\n  dup4\n    /* \"#utility.yul\":3507:3522   */\n  and\n    /* \"#utility.yul\":3497:3522   */\n  swap2\n  pop\n    /* \"#utility.yul\":3410:3528   */\n  pop\n    /* \"#utility.yul\":3359:3528   */\n  swap3\n  swap2\n  pop\n  pop\n  jump\t// out\n    /* \"#utility.yul\":3533:3828   */\ntag_44:\n    /* \"#utility.yul\":3609:3613   */\n  0x00\n    /* \"#utility.yul\":3755:3784   */\n  tag_90\n    /* \"#utility.yul\":3780:3783   */\n  dup4\n    /* \"#utility.yul\":3774:3778   */\n  dup4\n    /* \"#utility.yul\":3755:3784   */\n  tag_43\n  jump\t// in\ntag_90:\n    /* \"#utility.yul\":3747:3784   */\n  swap2\n  pop\n    /* \"#utility.yul\":3817:3820   */\n  dup3\n    /* \"#utility.yul\":3814:3815   */\n  0x02\n    /* \"#utility.yul\":3810:3821   */\n  mul\n    /* \"#utility.yul\":3804:3808   */\n  dup3\n    /* \"#utility.yul\":3801:3822   */\n  or\n    /* \"#utility.yul\":3793:3822   */\n  swap1\n  pop\n    /* \"#utility.yul\":3533:3828   */\n  swap3\n  swap2\n  pop\n  pop\n  jump\t// out\n    /* \"#utility.yul\":3833:5228   */\ntag_11:\n    /* \"#utility.yul\":3950:3987   */\n  tag_92\n    /* \"#utility.yul\":3983:3986   */\n  dup3\n    /* \"#utility.yul\":3950:3987   */\n  tag_26\n  jump\t// in\ntag_92:\n    /* \"#utility.yul\":4052:4070   */\n  0xffffffffffffffff\n    /* \"#utility.yul\":4044:4050   */\n  dup2\n    /* \"#utility.yul\":4041:4071   */\n  gt\n    /* \"#utility.yul\":4038:4094   */\n  iszero\n  tag_93\n  jumpi\n    /* \"#utility.yul\":4074:4092   */\n  tag_94\n  tag_27\n  jump\t// in\ntag_94:\n    /* \"#utility.yul\":4038:4094   */\ntag_93:\n    /* \"#utility.yul\":4118:4156   */\n  tag_95\n    /* \"#utility.yul\":4150:4154   */\n  dup3\n    /* \"#utility.yul\":4144:4155   */\n  sload\n    /* \"#utility.yul\":4118:4156   */\n  tag_19\n  jump\t// in\ntag_95:\n    /* \"#utility.yul\":4203:4270   */\n  tag_96\n    /* \"#utility.yul\":4263:4269   */\n  dup3\n    /* \"#utility.yul\":4255:4261   */\n  dup3\n    /* \"#utility.yul\":4249:4253   */\n  dup6\n    /* \"#utility.yul\":4203:4270   */\n  tag_41\n  jump\t// in\ntag_96:\n    /* \"#utility.yul\":4297:4298   */\n  0x00\n    /* \"#utility.yul\":4321:4325   */\n  0x20\n    /* \"#utility.yul\":4308:4325   */\n  swap1\n  pop\n    /* \"#utility.yul\":4353:4355   */\n  0x1f\n    /* \"#utility.yul\":4345:4351   */\n  dup4\n    /* \"#utility.yul\":4342:4356   */\n  gt\n    /* \"#utility.yul\":4370:4371   */\n  0x01\n    /* \"#utility.yul\":4365:4983   */\n  dup2\n  eq\n  tag_98\n  jumpi\n    /* \"#utility.yul\":5027:5028   */\n  0x00\n    /* \"#utility.yul\":5044:5050   */\n  dup5\n    /* \"#utility.yul\":5041:5118   */\n  iszero\n  tag_99\n  jumpi\n    /* \"#utility.yul\":5093:5102   */\n  dup3\n    /* \"#utility.yul\":5088:5091   */\n  dup8\n    /* \"#utility.yul\":5084:5103   */\n  add\n    /* \"#utility.yul\":5078:5104   */\n  mload\n    /* \"#utility.yul\":5069:5104   */\n  swap1\n  pop\n    /* \"#utility.yul\":5041:5118   */\ntag_99:\n    /* \"#utility.yul\":5144:5211   */\n  tag_100\n    /* \"#utility.yul\":5204:5210   */\n  dup6\n    /* \"#utility.yul\":5197:5202   */\n  dup3\n    /* \"#utility.yul\":5144:5211   */\n  tag_44\n  jump\t// in\ntag_100:\n    /* \"#utility.yul\":5138:5142   */\n  dup7\n    /* \"#utility.yul\":5131:5212   */\n  sstore\n    /* \"#utility.yul\":5000:5222   */\n  pop\n    /* \"#utility.yul\":4335:5222   */\n  jump(tag_97)\n    /* \"#utility.yul\":4365:4983   */\ntag_98:\n    /* \"#utility.yul\":4417:4421   */\n  0x1f\n    /* \"#utility.yul\":4413:4422   */\n  not\n    /* \"#utility.yul\":4405:4411   */\n  dup5\n    /* \"#utility.yul\":4401:4423   */\n  and\n    /* \"#utility.yul\":4451:4488   */\n  tag_101\n    /* \"#utility.yul\":4483:4487   */\n  dup7\n    /* \"#utility.yul\":4451:4488   */\n  tag_29\n  jump\t// in\ntag_101:\n    /* \"#utility.yul\":4510:4511   */\n  0x00\n    /* \"#utility.yul\":4524:4732   */\ntag_102:\n    /* \"#utility.yul\":4538:4545   */\n  dup3\n    /* \"#utility.yul\":4535:4536   */\n  dup2\n    /* \"#utility.yul\":4532:4546   */\n  lt\n    /* \"#utility.yul\":4524:4732   */\n  iszero\n  tag_104\n  jumpi\n    /* \"#utility.yul\":4617:4626   */\n  dup5\n    /* \"#utility.yul\":4612:4615   */\n  dup10\n    /* \"#utility.yul\":4608:4627   */\n  add\n    /* \"#utility.yul\":4602:4628   */\n  mload\n    /* \"#utility.yul\":4594:4600   */\n  dup3\n    /* \"#utility.yul\":4587:4629   */\n  sstore\n    /* \"#utility.yul\":4668:4669   */\n  0x01\n    /* \"#utility.yul\":4660:4666   */\n  dup3\n    /* \"#utility.yul\":4656:4670   */\n  add\n    /* \"#utility.yul\":4646:4670   */\n  swap2\n  pop\n    /* \"#utility.yul\":4715:4717   */\n  0x20\n    /* \"#utility.yul\":4704:4713   */\n  dup6\n    /* \"#utility.yul\":4700:4718   */\n  add\n    /* \"#utility.yul\":4687:4718   */\n  swap5\n  pop\n    /* \"#utility.yul\":4561:4565   */\n  0x20\n    /* \"#utility.yul\":4558:4559   */\n  dup2\n    /* \"#utility.yul\":4554:4566   */\n  add\n    /* \"#utility.yul\":4549:4566   */\n  swap1\n  pop\n    /* \"#utility.yul\":4524:4732   */\n  jump(tag_102)\ntag_104:\n    /* \"#utility.yul\":4760:4766   */\n  dup7\n    /* \"#utility.yul\":4751:4758   */\n  dup4\n    /* \"#utility.yul\":4748:4767   */\n  lt\n    /* \"#utility.yul\":4745:4924   */\n  iszero\n  tag_105\n  jumpi\n    /* \"#utility.yul\":4818:4827   */\n  dup5\n    /* \"#utility.yul\":4813:4816   */\n  dup10\n    /* \"#utility.yul\":4809:4828   */\n  add\n    /* \"#utility.yul\":4803:4829   */\n  mload\n    /* \"#utility.yul\":4861:4909   */\n  tag_106\n    /* \"#utility.yul\":4903:4907   */\n  0x1f\n    /* \"#utility.yul\":4895:4901   */\n  dup10\n    /* \"#utility.yul\":4891:4908   */\n  and\n    /* \"#utility.yul\":4880:4889   */\n  dup3\n    /* \"#utility.yul\":4861:4909   */\n  tag_43\n  jump\t// in\ntag_106:\n    /* \"#utility.yul\":4853:4859   */\n  dup4\n    /* \"#utility.yul\":4846:4910   */\n  sstore\n    /* \"#utility.yul\":4768:4924   */\n  pop\n    /* \"#utility.yul\":4745:4924   */\ntag_105:\n    /* \"#utility.yul\":4970:4971   */\n  0x01\n    /* \"#utility.yul\":4966:4967   */\n  0x02\n    /* \"#utility.yul\":4958:4964   */\n  dup9\n    /* \"#utility.yul\":4954:4968   */\n  mul\n    /* \"#utility.yul\":4950:4972   */\n  add\n    /* \"#utility.yul\":4944:4948   */\n  dup9\n    /* \"#utility.yul\":4937:4973   */\n  sstore\n    /* \"#utility.yul\":4372:4983   */\n  pop\n  pop\n  pop\n    /* \"#utility.yul\":4335:5222   */\ntag_97:\n  pop\n    /* \"#utility.yul\":3925:5228   */\n  pop\n  pop\n  pop\n    /* \"#utility.yul\":3833:5228   */\n  pop\n  pop\n  jump\t// out\n    /* \"contracts/ShareSecretNative.sol\":88:2561  contract SecretShare {... */\ntag_6:\n  dataSize(sub_0)\n  dup1\n  dataOffset(sub_0)\n  0x00\n  codecopy\n  0x00\n  return\nstop\n\nsub_0: assembly {\n        /* \"contracts/ShareSecretNative.sol\":88:2561  contract SecretShare {... */\n      mstore(0x40, 0x80)\n      callvalue\n      dup1\n      iszero\n      tag_1\n      jumpi\n      0x00\n      dup1\n      revert\n    tag_1:\n      pop\n      jumpi(tag_2, lt(calldatasize, 0x04))\n      shr(0xe0, calldataload(0x00))\n      dup1\n      0x790a0940\n      gt\n      tag_17\n      jumpi\n      dup1\n      0x9a5eec33\n      gt\n      tag_18\n      jumpi\n      dup1\n      0x9a5eec33\n      eq\n      tag_13\n      jumpi\n      dup1\n      0xd534cc0e\n      eq\n      tag_14\n      jumpi\n      dup1\n      0xd73fe0aa\n      eq\n      tag_15\n      jumpi\n      dup1\n      0xe4fc6b6d\n      eq\n      tag_16\n      jumpi\n      jump(tag_2)\n    tag_18:\n      dup1\n      0x790a0940\n      eq\n      tag_10\n      jumpi\n      dup1\n      0x8477d9f3\n      eq\n      tag_11\n      jumpi\n      dup1\n      0x8da5cb5b\n      eq\n      tag_12\n      jumpi\n      jump(tag_2)\n    tag_17:\n      dup1\n      0x4cc82215\n      gt\n      tag_19\n      jumpi\n      dup1\n      0x4cc82215\n      eq\n      tag_6\n      jumpi\n      dup1\n      0x50e78191\n      eq\n      tag_7\n      jumpi\n      dup1\n      0x57a858fc\n      eq\n      tag_8\n      jumpi\n      dup1\n      0x7427a40c\n      eq\n      tag_9\n      jumpi\n      jump(tag_2)\n    tag_19:\n      dup1\n      0x0623f1d7\n      eq\n      tag_3\n      jumpi\n      dup1\n      0x1e1cf160\n      eq\n      tag_4\n      jumpi\n      dup1\n      0x3f8b4866\n      eq\n      tag_5\n      jumpi\n    tag_2:\n      0x00\n      dup1\n      revert\n        /* \"contracts/ShareSecretNative.sol\":2339:2382  function regenerate(address name) public {} */\n    tag_3:\n      tag_20\n      0x04\n      dup1\n      calldatasize\n      sub\n      dup2\n      add\n      swap1\n      tag_21\n      swap2\n      swap1\n      tag_22\n      jump\t// in\n    tag_21:\n      tag_23\n      jump\t// in\n    tag_20:\n      stop\n        /* \"contracts/ShareSecretNative.sol\":359:402  mapping(address => string) public sharesMap */\n    tag_4:\n      tag_24\n      0x04\n      dup1\n      calldatasize\n      sub\n      dup2\n      add\n      swap1\n      tag_25\n      swap2\n      swap1\n      tag_22\n      jump\t// in\n    tag_25:\n      tag_26\n      jump\t// in\n    tag_24:\n      mload(0x40)\n      tag_27\n      swap2\n      swap1\n      tag_28\n      jump\t// in\n    tag_27:\n      mload(0x40)\n      dup1\n      swap2\n      sub\n      swap1\n      return\n        /* \"contracts/ShareSecretNative.sol\":2390:2492  function notifySendingToHolders(address payable holder, string memory share)public onlyOwner{... */\n    tag_5:\n      tag_29\n      0x04\n      dup1\n      calldatasize\n      sub\n      dup2\n      add\n      swap1\n      tag_30\n      swap2\n      swap1\n      tag_31\n      jump\t// in\n    tag_30:\n      tag_32\n      jump\t// in\n    tag_29:\n      stop\n        /* \"contracts/ShareSecretNative.sol\":1765:2005  function remove(uint256 index) public {... */\n    tag_6:\n      tag_33\n      0x04\n      dup1\n      calldatasize\n      sub\n      dup2\n      add\n      swap1\n      tag_34\n      swap2\n      swap1\n      tag_35\n      jump\t// in\n    tag_34:\n      tag_36\n      jump\t// in\n    tag_33:\n      stop\n        /* \"contracts/ShareSecretNative.sol\":2055:2331  function removeShareHolders(address payable shareHolder) public onlyOwner {... */\n    tag_7:\n      tag_37\n      0x04\n      dup1\n      calldatasize\n      sub\n      dup2\n      add\n      swap1\n      tag_38\n      swap2\n      swap1\n      tag_39\n      jump\t// in\n    tag_38:\n      tag_40\n      jump\t// in\n    tag_37:\n      stop\n        /* \"contracts/ShareSecretNative.sol\":207:229  string[] public shares */\n    tag_8:\n      tag_41\n      0x04\n      dup1\n      calldatasize\n      sub\n      dup2\n      add\n      swap1\n      tag_42\n      swap2\n      swap1\n      tag_35\n      jump\t// in\n    tag_42:\n      tag_43\n      jump\t// in\n    tag_41:\n      mload(0x40)\n      tag_44\n      swap2\n      swap1\n      tag_28\n      jump\t// in\n    tag_44:\n      mload(0x40)\n      dup1\n      swap2\n      sub\n      swap1\n      return\n        /* \"contracts/ShareSecretNative.sol\":143:180  address payable[] public shareHolders */\n    tag_9:\n      tag_45\n      0x04\n      dup1\n      calldatasize\n      sub\n      dup2\n      add\n      swap1\n      tag_46\n      swap2\n      swap1\n      tag_35\n      jump\t// in\n    tag_46:\n      tag_47\n      jump\t// in\n    tag_45:\n      mload(0x40)\n      tag_48\n      swap2\n      swap1\n      tag_49\n      jump\t// in\n    tag_48:\n      mload(0x40)\n      dup1\n      swap2\n      sub\n      swap1\n      return\n        /* \"contracts/ShareSecretNative.sol\":1637:1757  function addShareHolders(address payable shareHolder) public onlyOwner {... */\n    tag_10:\n      tag_50\n      0x04\n      dup1\n      calldatasize\n      sub\n      dup2\n      add\n      swap1\n      tag_51\n      swap2\n      swap1\n      tag_39\n      jump\t// in\n    tag_51:\n      tag_52\n      jump\t// in\n    tag_50:\n      stop\n        /* \"contracts/ShareSecretNative.sol\":1370:1482  function getShareHolders() public view returns (address payable[] memory) {... */\n    tag_11:\n      tag_53\n      tag_54\n      jump\t// in\n    tag_53:\n      mload(0x40)\n      tag_55\n      swap2\n      swap1\n      tag_56\n      jump\t// in\n    tag_55:\n      mload(0x40)\n      dup1\n      swap2\n      sub\n      swap1\n      return\n        /* \"contracts/ShareSecretNative.sol\":116:136  address public owner */\n    tag_12:\n      tag_57\n      tag_58\n      jump\t// in\n    tag_57:\n      mload(0x40)\n      tag_59\n      swap2\n      swap1\n      tag_60\n      jump\t// in\n    tag_59:\n      mload(0x40)\n      dup1\n      swap2\n      sub\n      swap1\n      return\n        /* \"contracts/ShareSecretNative.sol\":2500:2556  function askingFromHolders() public onlyOwner {... */\n    tag_13:\n      tag_61\n      tag_62\n      jump\t// in\n    tag_61:\n      stop\n        /* \"contracts/ShareSecretNative.sol\":276:325  mapping(address => string) public shareHoldersMap */\n    tag_14:\n      tag_63\n      0x04\n      dup1\n      calldatasize\n      sub\n      dup2\n      add\n      swap1\n      tag_64\n      swap2\n      swap1\n      tag_22\n      jump\t// in\n    tag_64:\n      tag_65\n      jump\t// in\n    tag_63:\n      mload(0x40)\n      tag_66\n      swap2\n      swap1\n      tag_28\n      jump\t// in\n    tag_66:\n      mload(0x40)\n      dup1\n      swap2\n      sub\n      swap1\n      return\n        /* \"contracts/ShareSecretNative.sol\":1490:1581  function getShares() public view returns (string[] memory) {... */\n    tag_15:\n      tag_67\n      tag_68\n      jump\t// in\n    tag_67:\n      mload(0x40)\n      tag_69\n      swap2\n      swap1\n      tag_70\n      jump\t// in\n    tag_69:\n      mload(0x40)\n      dup1\n      swap2\n      sub\n      swap1\n      return\n        /* \"contracts/ShareSecretNative.sol\":1045:1362  function distribute() public onlyOwner {... */\n    tag_16:\n      tag_71\n      tag_72\n      jump\t// in\n    tag_71:\n      stop\n        /* \"contracts/ShareSecretNative.sol\":2339:2382  function regenerate(address name) public {} */\n    tag_23:\n      pop\n      jump\t// out\n        /* \"contracts/ShareSecretNative.sol\":359:402  mapping(address => string) public sharesMap */\n    tag_26:\n      mstore(0x20, 0x04)\n      dup1\n      0x00\n      mstore\n      keccak256(0x00, 0x40)\n      0x00\n      swap2\n      pop\n      swap1\n      pop\n      dup1\n      sload\n      tag_74\n      swap1\n      tag_75\n      jump\t// in\n    tag_74:\n      dup1\n      0x1f\n      add\n      0x20\n      dup1\n      swap2\n      div\n      mul\n      0x20\n      add\n      mload(0x40)\n      swap1\n      dup2\n      add\n      0x40\n      mstore\n      dup1\n      swap3\n      swap2\n      swap1\n      dup2\n      dup2\n      mstore\n      0x20\n      add\n      dup3\n      dup1\n      sload\n      tag_76\n      swap1\n      tag_75\n      jump\t// in\n    tag_76:\n      dup1\n      iszero\n      tag_77\n      jumpi\n      dup1\n      0x1f\n      lt\n      tag_78\n      jumpi\n      0x0100\n      dup1\n      dup4\n      sload\n      div\n      mul\n      dup4\n      mstore\n      swap2\n      0x20\n      add\n      swap2\n      jump(tag_77)\n    tag_78:\n      dup3\n      add\n      swap2\n      swap1\n      0x00\n      mstore\n      keccak256(0x00, 0x20)\n      swap1\n    tag_79:\n      dup2\n      sload\n      dup2\n      mstore\n      swap1\n      0x01\n      add\n      swap1\n      0x20\n      add\n      dup1\n      dup4\n      gt\n      tag_79\n      jumpi\n      dup3\n      swap1\n      sub\n      0x1f\n      and\n      dup3\n      add\n      swap2\n    tag_77:\n      pop\n      pop\n      pop\n      pop\n      pop\n      dup2\n      jump\t// out\n        /* \"contracts/ShareSecretNative.sol\":2390:2492  function notifySendingToHolders(address payable holder, string memory share)public onlyOwner{... */\n    tag_32:\n        /* \"contracts/ShareSecretNative.sol\":901:906  owner */\n      0x00\n      dup1\n      sload\n      swap1\n      0x0100\n      exp\n      swap1\n      div\n      0xffffffffffffffffffffffffffffffffffffffff\n      and\n        /* \"contracts/ShareSecretNative.sol\":887:906  msg.sender == owner */\n      0xffffffffffffffffffffffffffffffffffffffff\n      and\n        /* \"contracts/ShareSecretNative.sol\":887:897  msg.sender */\n      caller\n        /* \"contracts/ShareSecretNative.sol\":887:906  msg.sender == owner */\n      0xffffffffffffffffffffffffffffffffffffffff\n      and\n      eq\n        /* \"contracts/ShareSecretNative.sol\":879:941  require(msg.sender == owner, \"only owner can pick the winner\") */\n      tag_81\n      jumpi\n      mload(0x40)\n      0x08c379a000000000000000000000000000000000000000000000000000000000\n      dup2\n      mstore\n      0x04\n      add\n      tag_82\n      swap1\n      tag_83\n      jump\t// in\n    tag_82:\n      mload(0x40)\n      dup1\n      swap2\n      sub\n      swap1\n      revert\n    tag_81:\n        /* \"contracts/ShareSecretNative.sol\":2390:2492  function notifySendingToHolders(address payable holder, string memory share)public onlyOwner{... */\n      pop\n      pop\n      jump\t// out\n        /* \"contracts/ShareSecretNative.sol\":1765:2005  function remove(uint256 index) public {... */\n    tag_36:\n        /* \"contracts/ShareSecretNative.sol\":1895:1907  shareHolders */\n      0x01\n        /* \"contracts/ShareSecretNative.sol\":1930:1931  1 */\n      dup1\n        /* \"contracts/ShareSecretNative.sol\":1908:1920  shareHolders */\n      dup1\n        /* \"contracts/ShareSecretNative.sol\":1908:1927  shareHolders.length */\n      dup1\n      sload\n      swap1\n      pop\n        /* \"contracts/ShareSecretNative.sol\":1908:1931  shareHolders.length - 1 */\n      tag_86\n      swap2\n      swap1\n      tag_87\n      jump\t// in\n    tag_86:\n        /* \"contracts/ShareSecretNative.sol\":1895:1932  shareHolders[shareHolders.length - 1] */\n      dup2\n      sload\n      dup2\n      lt\n      tag_88\n      jumpi\n      tag_89\n      tag_90\n      jump\t// in\n    tag_89:\n    tag_88:\n      swap1\n      0x00\n      mstore\n      keccak256(0x00, 0x20)\n      add\n      0x00\n      swap1\n      sload\n      swap1\n      0x0100\n      exp\n      swap1\n      div\n      0xffffffffffffffffffffffffffffffffffffffff\n      and\n        /* \"contracts/ShareSecretNative.sol\":1873:1885  shareHolders */\n      0x01\n        /* \"contracts/ShareSecretNative.sol\":1886:1891  index */\n      dup3\n        /* \"contracts/ShareSecretNative.sol\":1873:1892  shareHolders[index] */\n      dup2\n      sload\n      dup2\n      lt\n      tag_92\n      jumpi\n      tag_93\n      tag_90\n      jump\t// in\n    tag_93:\n    tag_92:\n      swap1\n      0x00\n      mstore\n      keccak256(0x00, 0x20)\n      add\n      0x00\n        /* \"contracts/ShareSecretNative.sol\":1873:1932  shareHolders[index] = shareHolders[shareHolders.length - 1] */\n      0x0100\n      exp\n      dup2\n      sload\n      dup2\n      0xffffffffffffffffffffffffffffffffffffffff\n      mul\n      not\n      and\n      swap1\n      dup4\n      0xffffffffffffffffffffffffffffffffffffffff\n      and\n      mul\n      or\n      swap1\n      sstore\n      pop\n        /* \"contracts/ShareSecretNative.sol\":1979:1991  shareHolders */\n      0x01\n        /* \"contracts/ShareSecretNative.sol\":1979:1997  shareHolders.pop() */\n      dup1\n      sload\n      dup1\n      tag_95\n      jumpi\n      tag_96\n      tag_97\n      jump\t// in\n    tag_96:\n    tag_95:\n      0x01\n      swap1\n      sub\n      dup2\n      dup2\n      swap1\n      0x00\n      mstore\n      keccak256(0x00, 0x20)\n      add\n      exp(0x0100, 0x00)\n      dup2\n      sload\n      swap1\n      0xffffffffffffffffffffffffffffffffffffffff\n      mul\n      not\n      and\n      swap1\n      sstore\n      swap1\n      sstore\n        /* \"contracts/ShareSecretNative.sol\":1765:2005  function remove(uint256 index) public {... */\n      pop\n      jump\t// out\n        /* \"contracts/ShareSecretNative.sol\":2055:2331  function removeShareHolders(address payable shareHolder) public onlyOwner {... */\n    tag_40:\n        /* \"contracts/ShareSecretNative.sol\":901:906  owner */\n      0x00\n      dup1\n      sload\n      swap1\n      0x0100\n      exp\n      swap1\n      div\n      0xffffffffffffffffffffffffffffffffffffffff\n      and\n        /* \"contracts/ShareSecretNative.sol\":887:906  msg.sender == owner */\n      0xffffffffffffffffffffffffffffffffffffffff\n      and\n        /* \"contracts/ShareSecretNative.sol\":887:897  msg.sender */\n      caller\n        /* \"contracts/ShareSecretNative.sol\":887:906  msg.sender == owner */\n      0xffffffffffffffffffffffffffffffffffffffff\n      and\n      eq\n        /* \"contracts/ShareSecretNative.sol\":879:941  require(msg.sender == owner, \"only owner can pick the winner\") */\n      tag_100\n      jumpi\n      mload(0x40)\n      0x08c379a000000000000000000000000000000000000000000000000000000000\n      dup2\n      mstore\n      0x04\n      add\n      tag_101\n      swap1\n      tag_83\n      jump\t// in\n    tag_101:\n      mload(0x40)\n      dup1\n      swap2\n      sub\n      swap1\n      revert\n    tag_100:\n        /* \"contracts/ShareSecretNative.sol\":2140:2149  uint256 i */\n      0x00\n        /* \"contracts/ShareSecretNative.sol\":2164:2304  for (i; i < shareHolders.length; i++) {... */\n    tag_103:\n        /* \"contracts/ShareSecretNative.sol\":2176:2188  shareHolders */\n      0x01\n        /* \"contracts/ShareSecretNative.sol\":2176:2195  shareHolders.length */\n      dup1\n      sload\n      swap1\n      pop\n        /* \"contracts/ShareSecretNative.sol\":2172:2173  i */\n      dup2\n        /* \"contracts/ShareSecretNative.sol\":2172:2195  i < shareHolders.length */\n      lt\n        /* \"contracts/ShareSecretNative.sol\":2164:2304  for (i; i < shareHolders.length; i++) {... */\n      iszero\n      tag_104\n      jumpi\n        /* \"contracts/ShareSecretNative.sol\":2240:2251  shareHolder */\n      dup2\n        /* \"contracts/ShareSecretNative.sol\":2221:2251  shareHolders[i] == shareHolder */\n      0xffffffffffffffffffffffffffffffffffffffff\n      and\n        /* \"contracts/ShareSecretNative.sol\":2221:2233  shareHolders */\n      0x01\n        /* \"contracts/ShareSecretNative.sol\":2234:2235  i */\n      dup3\n        /* \"contracts/ShareSecretNative.sol\":2221:2236  shareHolders[i] */\n      dup2\n      sload\n      dup2\n      lt\n      tag_106\n      jumpi\n      tag_107\n      tag_90\n      jump\t// in\n    tag_107:\n    tag_106:\n      swap1\n      0x00\n      mstore\n      keccak256(0x00, 0x20)\n      add\n      0x00\n      swap1\n      sload\n      swap1\n      0x0100\n      exp\n      swap1\n      div\n      0xffffffffffffffffffffffffffffffffffffffff\n      and\n        /* \"contracts/ShareSecretNative.sol\":2221:2251  shareHolders[i] == shareHolder */\n      0xffffffffffffffffffffffffffffffffffffffff\n      and\n      sub\n        /* \"contracts/ShareSecretNative.sol\":2217:2293  if (shareHolders[i] == shareHolder) {... */\n      iszero\n        /* \"contracts/ShareSecretNative.sol\":2272:2277  break */\n      tag_104\n        /* \"contracts/ShareSecretNative.sol\":2217:2293  if (shareHolders[i] == shareHolder) {... */\n      jumpi\n        /* \"contracts/ShareSecretNative.sol\":2197:2200  i++ */\n      dup1\n      dup1\n      tag_110\n      swap1\n      tag_111\n      jump\t// in\n    tag_110:\n      swap2\n      pop\n      pop\n        /* \"contracts/ShareSecretNative.sol\":2164:2304  for (i; i < shareHolders.length; i++) {... */\n      jump(tag_103)\n    tag_104:\n        /* \"contracts/ShareSecretNative.sol\":2314:2323  remove(i) */\n      tag_112\n        /* \"contracts/ShareSecretNative.sol\":2321:2322  i */\n      dup2\n        /* \"contracts/ShareSecretNative.sol\":2314:2320  remove */\n      tag_36\n        /* \"contracts/ShareSecretNative.sol\":2314:2323  remove(i) */\n      jump\t// in\n    tag_112:\n        /* \"contracts/ShareSecretNative.sol\":2129:2331  {... */\n      pop\n        /* \"contracts/ShareSecretNative.sol\":2055:2331  function removeShareHolders(address payable shareHolder) public onlyOwner {... */\n      pop\n      jump\t// out\n        /* \"contracts/ShareSecretNative.sol\":207:229  string[] public shares */\n    tag_43:\n      0x02\n      dup2\n      dup2\n      sload\n      dup2\n      lt\n      tag_113\n      jumpi\n      0x00\n      dup1\n      revert\n    tag_113:\n      swap1\n      0x00\n      mstore\n      keccak256(0x00, 0x20)\n      add\n      0x00\n      swap2\n      pop\n      swap1\n      pop\n      dup1\n      sload\n      tag_115\n      swap1\n      tag_75\n      jump\t// in\n    tag_115:\n      dup1\n      0x1f\n      add\n      0x20\n      dup1\n      swap2\n      div\n      mul\n      0x20\n      add\n      mload(0x40)\n      swap1\n      dup2\n      add\n      0x40\n      mstore\n      dup1\n      swap3\n      swap2\n      swap1\n      dup2\n      dup2\n      mstore\n      0x20\n      add\n      dup3\n      dup1\n      sload\n      tag_116\n      swap1\n      tag_75\n      jump\t// in\n    tag_116:\n      dup1\n      iszero\n      tag_117\n      jumpi\n      dup1\n      0x1f\n      lt\n      tag_118\n      jumpi\n      0x0100\n      dup1\n      dup4\n      sload\n      div\n      mul\n      dup4\n      mstore\n      swap2\n      0x20\n      add\n      swap2\n      jump(tag_117)\n    tag_118:\n      dup3\n      add\n      swap2\n      swap1\n      0x00\n      mstore\n      keccak256(0x00, 0x20)\n      swap1\n    tag_119:\n      dup2\n      sload\n      dup2\n      mstore\n      swap1\n      0x01\n      add\n      swap1\n      0x20\n      add\n      dup1\n      dup4\n      gt\n      tag_119\n      jumpi\n      dup3\n      swap1\n      sub\n      0x1f\n      and\n      dup3\n      add\n      swap2\n    tag_117:\n      pop\n      pop\n      pop\n      pop\n      pop\n      dup2\n      jump\t// out\n        /* \"contracts/ShareSecretNative.sol\":143:180  address payable[] public shareHolders */\n    tag_47:\n      0x01\n      dup2\n      dup2\n      sload\n      dup2\n      lt\n      tag_120\n      jumpi\n      0x00\n      dup1\n      revert\n    tag_120:\n      swap1\n      0x00\n      mstore\n      keccak256(0x00, 0x20)\n      add\n      0x00\n      swap2\n      pop\n      sload\n      swap1\n      0x0100\n      exp\n      swap1\n      div\n      0xffffffffffffffffffffffffffffffffffffffff\n      and\n      dup2\n      jump\t// out\n        /* \"contracts/ShareSecretNative.sol\":1637:1757  function addShareHolders(address payable shareHolder) public onlyOwner {... */\n    tag_52:\n        /* \"contracts/ShareSecretNative.sol\":901:906  owner */\n      0x00\n      dup1\n      sload\n      swap1\n      0x0100\n      exp\n      swap1\n      div\n      0xffffffffffffffffffffffffffffffffffffffff\n      and\n        /* \"contracts/ShareSecretNative.sol\":887:906  msg.sender == owner */\n      0xffffffffffffffffffffffffffffffffffffffff\n      and\n        /* \"contracts/ShareSecretNative.sol\":887:897  msg.sender */\n      caller\n        /* \"contracts/ShareSecretNative.sol\":887:906  msg.sender == owner */\n      0xffffffffffffffffffffffffffffffffffffffff\n      and\n      eq\n        /* \"contracts/ShareSecretNative.sol\":879:941  require(msg.sender == owner, \"only owner can pick the winner\") */\n      tag_123\n      jumpi\n      mload(0x40)\n      0x08c379a000000000000000000000000000000000000000000000000000000000\n      dup2\n      mstore\n      0x04\n      add\n      tag_124\n      swap1\n      tag_83\n      jump\t// in\n    tag_124:\n      mload(0x40)\n      dup1\n      swap2\n      sub\n      swap1\n      revert\n    tag_123:\n        /* \"contracts/ShareSecretNative.sol\":1719:1731  shareHolders */\n      0x01\n        /* \"contracts/ShareSecretNative.sol\":1737:1748  shareHolder */\n      dup2\n        /* \"contracts/ShareSecretNative.sol\":1719:1749  shareHolders.push(shareHolder) */\n      swap1\n      dup1\n      0x01\n      dup2\n      sload\n      add\n      dup1\n      dup3\n      sstore\n      dup1\n      swap2\n      pop\n      pop\n      0x01\n      swap1\n      sub\n      swap1\n      0x00\n      mstore\n      keccak256(0x00, 0x20)\n      add\n      0x00\n      swap1\n      swap2\n      swap1\n      swap2\n      swap1\n      swap2\n      0x0100\n      exp\n      dup2\n      sload\n      dup2\n      0xffffffffffffffffffffffffffffffffffffffff\n      mul\n      not\n      and\n      swap1\n      dup4\n      0xffffffffffffffffffffffffffffffffffffffff\n      and\n      mul\n      or\n      swap1\n      sstore\n      pop\n        /* \"contracts/ShareSecretNative.sol\":1637:1757  function addShareHolders(address payable shareHolder) public onlyOwner {... */\n      pop\n      jump\t// out\n        /* \"contracts/ShareSecretNative.sol\":1370:1482  function getShareHolders() public view returns (address payable[] memory) {... */\n    tag_54:\n        /* \"contracts/ShareSecretNative.sol\":1418:1442  address payable[] memory */\n      0x60\n        /* \"contracts/ShareSecretNative.sol\":1462:1474  shareHolders */\n      0x01\n        /* \"contracts/ShareSecretNative.sol\":1455:1474  return shareHolders */\n      dup1\n      sload\n      dup1\n      0x20\n      mul\n      0x20\n      add\n      mload(0x40)\n      swap1\n      dup2\n      add\n      0x40\n      mstore\n      dup1\n      swap3\n      swap2\n      swap1\n      dup2\n      dup2\n      mstore\n      0x20\n      add\n      dup3\n      dup1\n      sload\n      dup1\n      iszero\n      tag_128\n      jumpi\n      0x20\n      mul\n      dup3\n      add\n      swap2\n      swap1\n      0x00\n      mstore\n      keccak256(0x00, 0x20)\n      swap1\n    tag_129:\n      dup2\n      0x00\n      swap1\n      sload\n      swap1\n      0x0100\n      exp\n      swap1\n      div\n      0xffffffffffffffffffffffffffffffffffffffff\n      and\n      0xffffffffffffffffffffffffffffffffffffffff\n      and\n      dup2\n      mstore\n      0x20\n      add\n      swap1\n      0x01\n      add\n      swap1\n      dup1\n      dup4\n      gt\n      tag_129\n      jumpi\n    tag_128:\n      pop\n      pop\n      pop\n      pop\n      pop\n      swap1\n      pop\n        /* \"contracts/ShareSecretNative.sol\":1370:1482  function getShareHolders() public view returns (address payable[] memory) {... */\n      swap1\n      jump\t// out\n        /* \"contracts/ShareSecretNative.sol\":116:136  address public owner */\n    tag_58:\n      0x00\n      dup1\n      sload\n      swap1\n      0x0100\n      exp\n      swap1\n      div\n      0xffffffffffffffffffffffffffffffffffffffff\n      and\n      dup2\n      jump\t// out\n        /* \"contracts/ShareSecretNative.sol\":2500:2556  function askingFromHolders() public onlyOwner {... */\n    tag_62:\n        /* \"contracts/ShareSecretNative.sol\":901:906  owner */\n      0x00\n      dup1\n      sload\n      swap1\n      0x0100\n      exp\n      swap1\n      div\n      0xffffffffffffffffffffffffffffffffffffffff\n      and\n        /* \"contracts/ShareSecretNative.sol\":887:906  msg.sender == owner */\n      0xffffffffffffffffffffffffffffffffffffffff\n      and\n        /* \"contracts/ShareSecretNative.sol\":887:897  msg.sender */\n      caller\n        /* \"contracts/ShareSecretNative.sol\":887:906  msg.sender == owner */\n      0xffffffffffffffffffffffffffffffffffffffff\n      and\n      eq\n        /* \"contracts/ShareSecretNative.sol\":879:941  require(msg.sender == owner, \"only owner can pick the winner\") */\n      tag_131\n      jumpi\n      mload(0x40)\n      0x08c379a000000000000000000000000000000000000000000000000000000000\n      dup2\n      mstore\n      0x04\n      add\n      tag_132\n      swap1\n      tag_83\n      jump\t// in\n    tag_132:\n      mload(0x40)\n      dup1\n      swap2\n      sub\n      swap1\n      revert\n    tag_131:\n        /* \"contracts/ShareSecretNative.sol\":2500:2556  function askingFromHolders() public onlyOwner {... */\n      jump\t// out\n        /* \"contracts/ShareSecretNative.sol\":276:325  mapping(address => string) public shareHoldersMap */\n    tag_65:\n      mstore(0x20, 0x03)\n      dup1\n      0x00\n      mstore\n      keccak256(0x00, 0x40)\n      0x00\n      swap2\n      pop\n      swap1\n      pop\n      dup1\n      sload\n      tag_134\n      swap1\n      tag_75\n      jump\t// in\n    tag_134:\n      dup1\n      0x1f\n      add\n      0x20\n      dup1\n      swap2\n      div\n      mul\n      0x20\n      add\n      mload(0x40)\n      swap1\n      dup2\n      add\n      0x40\n      mstore\n      dup1\n      swap3\n      swap2\n      swap1\n      dup2\n      dup2\n      mstore\n      0x20\n      add\n      dup3\n      dup1\n      sload\n      tag_135\n      swap1\n      tag_75\n      jump\t// in\n    tag_135:\n      dup1\n      iszero\n      tag_136\n      jumpi\n      dup1\n      0x1f\n      lt\n      tag_137\n      jumpi\n      0x0100\n      dup1\n      dup4\n      sload\n      div\n      mul\n      dup4\n      mstore\n      swap2\n      0x20\n      add\n      swap2\n      jump(tag_136)\n    tag_137:\n      dup3\n      add\n      swap2\n      swap1\n      0x00\n      mstore\n      keccak256(0x00, 0x20)\n      swap1\n    tag_138:\n      dup2\n      sload\n      dup2\n      mstore\n      swap1\n      0x01\n      add\n      swap1\n      0x20\n      add\n      dup1\n      dup4\n      gt\n      tag_138\n      jumpi\n      dup3\n      swap1\n      sub\n      0x1f\n      and\n      dup3\n      add\n      swap2\n    tag_136:\n      pop\n      pop\n      pop\n      pop\n      pop\n      dup2\n      jump\t// out\n        /* \"contracts/ShareSecretNative.sol\":1490:1581  function getShares() public view returns (string[] memory) {... */\n    tag_68:\n        /* \"contracts/ShareSecretNative.sol\":1532:1547  string[] memory */\n      0x60\n        /* \"contracts/ShareSecretNative.sol\":1567:1573  shares */\n      0x02\n        /* \"contracts/ShareSecretNative.sol\":1560:1573  return shares */\n      dup1\n      sload\n      dup1\n      0x20\n      mul\n      0x20\n      add\n      mload(0x40)\n      swap1\n      dup2\n      add\n      0x40\n      mstore\n      dup1\n      swap3\n      swap2\n      swap1\n      dup2\n      dup2\n      mstore\n      0x20\n      add\n      0x00\n      swap1\n    tag_140:\n      dup3\n      dup3\n      lt\n      iszero\n      tag_141\n      jumpi\n      dup4\n      dup3\n      swap1\n      0x00\n      mstore\n      keccak256(0x00, 0x20)\n      add\n      dup1\n      sload\n      tag_143\n      swap1\n      tag_75\n      jump\t// in\n    tag_143:\n      dup1\n      0x1f\n      add\n      0x20\n      dup1\n      swap2\n      div\n      mul\n      0x20\n      add\n      mload(0x40)\n      swap1\n      dup2\n      add\n      0x40\n      mstore\n      dup1\n      swap3\n      swap2\n      swap1\n      dup2\n      dup2\n      mstore\n      0x20\n      add\n      dup3\n      dup1\n      sload\n      tag_144\n      swap1\n      tag_75\n      jump\t// in\n    tag_144:\n      dup1\n      iszero\n      tag_145\n      jumpi\n      dup1\n      0x1f\n      lt\n      tag_146\n      jumpi\n      0x0100\n      dup1\n      dup4\n      sload\n      div\n      mul\n      dup4\n      mstore\n      swap2\n      0x20\n      add\n      swap2\n      jump(tag_145)\n    tag_146:\n      dup3\n      add\n      swap2\n      swap1\n      0x00\n      mstore\n      keccak256(0x00, 0x20)\n      swap1\n    tag_147:\n      dup2\n      sload\n      dup2\n      mstore\n      swap1\n      0x01\n      add\n      swap1\n      0x20\n      add\n      dup1\n      dup4\n      gt\n      tag_147\n      jumpi\n      dup3\n      swap1\n      sub\n      0x1f\n      and\n      dup3\n      add\n      swap2\n    tag_145:\n      pop\n      pop\n      pop\n      pop\n      pop\n      dup2\n      mstore\n      0x20\n      add\n      swap1\n      0x01\n      add\n      swap1\n      jump(tag_140)\n    tag_141:\n      pop\n      pop\n      pop\n      pop\n      swap1\n      pop\n        /* \"contracts/ShareSecretNative.sol\":1490:1581  function getShares() public view returns (string[] memory) {... */\n      swap1\n      jump\t// out\n        /* \"contracts/ShareSecretNative.sol\":1045:1362  function distribute() public onlyOwner {... */\n    tag_72:\n        /* \"contracts/ShareSecretNative.sol\":901:906  owner */\n      0x00\n      dup1\n      sload\n      swap1\n      0x0100\n      exp\n      swap1\n      div\n      0xffffffffffffffffffffffffffffffffffffffff\n      and\n        /* \"contracts/ShareSecretNative.sol\":887:906  msg.sender == owner */\n      0xffffffffffffffffffffffffffffffffffffffff\n      and\n        /* \"contracts/ShareSecretNative.sol\":887:897  msg.sender */\n      caller\n        /* \"contracts/ShareSecretNative.sol\":887:906  msg.sender == owner */\n      0xffffffffffffffffffffffffffffffffffffffff\n      and\n      eq\n        /* \"contracts/ShareSecretNative.sol\":879:941  require(msg.sender == owner, \"only owner can pick the winner\") */\n      tag_149\n      jumpi\n      mload(0x40)\n      0x08c379a000000000000000000000000000000000000000000000000000000000\n      dup2\n      mstore\n      0x04\n      add\n      tag_150\n      swap1\n      tag_83\n      jump\t// in\n    tag_150:\n      mload(0x40)\n      dup1\n      swap2\n      sub\n      swap1\n      revert\n    tag_149:\n        /* \"contracts/ShareSecretNative.sol\":1116:1128  shareHolders */\n      0x01\n        /* \"contracts/ShareSecretNative.sol\":1116:1135  shareHolders.length */\n      dup1\n      sload\n      swap1\n      pop\n        /* \"contracts/ShareSecretNative.sol\":1099:1105  shares */\n      0x02\n        /* \"contracts/ShareSecretNative.sol\":1099:1112  shares.length */\n      dup1\n      sload\n      swap1\n      pop\n        /* \"contracts/ShareSecretNative.sol\":1099:1135  shares.length <= shareHolders.length */\n      gt\n        /* \"contracts/ShareSecretNative.sol\":1095:1355  if (shares.length <= shareHolders.length) {... */\n      tag_152\n      jumpi\n        /* \"contracts/ShareSecretNative.sol\":1157:1166  uint256 i */\n      0x00\n        /* \"contracts/ShareSecretNative.sol\":1152:1344  for (uint256 i = 0; i < shares.length; i++) {... */\n    tag_153:\n        /* \"contracts/ShareSecretNative.sol\":1176:1182  shares */\n      0x02\n        /* \"contracts/ShareSecretNative.sol\":1176:1189  shares.length */\n      dup1\n      sload\n      swap1\n      pop\n        /* \"contracts/ShareSecretNative.sol\":1172:1173  i */\n      dup2\n        /* \"contracts/ShareSecretNative.sol\":1172:1189  i < shares.length */\n      lt\n        /* \"contracts/ShareSecretNative.sol\":1152:1344  for (uint256 i = 0; i < shares.length; i++) {... */\n      iszero\n      tag_154\n      jumpi\n        /* \"contracts/ShareSecretNative.sol\":1250:1256  shares */\n      0x02\n        /* \"contracts/ShareSecretNative.sol\":1257:1258  i */\n      dup2\n        /* \"contracts/ShareSecretNative.sol\":1250:1259  shares[i] */\n      dup2\n      sload\n      dup2\n      lt\n      tag_156\n      jumpi\n      tag_157\n      tag_90\n      jump\t// in\n    tag_157:\n    tag_156:\n      swap1\n      0x00\n      mstore\n      keccak256(0x00, 0x20)\n      add\n        /* \"contracts/ShareSecretNative.sol\":1215:1230  shareHoldersMap */\n      0x03\n        /* \"contracts/ShareSecretNative.sol\":1215:1247  shareHoldersMap[shareHolders[i]] */\n      0x00\n        /* \"contracts/ShareSecretNative.sol\":1231:1243  shareHolders */\n      0x01\n        /* \"contracts/ShareSecretNative.sol\":1244:1245  i */\n      dup5\n        /* \"contracts/ShareSecretNative.sol\":1231:1246  shareHolders[i] */\n      dup2\n      sload\n      dup2\n      lt\n      tag_159\n      jumpi\n      tag_160\n      tag_90\n      jump\t// in\n    tag_160:\n    tag_159:\n      swap1\n      0x00\n      mstore\n      keccak256(0x00, 0x20)\n      add\n      0x00\n      swap1\n      sload\n      swap1\n      0x0100\n      exp\n      swap1\n      div\n      0xffffffffffffffffffffffffffffffffffffffff\n      and\n        /* \"contracts/ShareSecretNative.sol\":1215:1247  shareHoldersMap[shareHolders[i]] */\n      0xffffffffffffffffffffffffffffffffffffffff\n      and\n      0xffffffffffffffffffffffffffffffffffffffff\n      and\n      dup2\n      mstore\n      0x20\n      add\n      swap1\n      dup2\n      mstore\n      0x20\n      add\n      0x00\n      keccak256\n        /* \"contracts/ShareSecretNative.sol\":1215:1259  shareHoldersMap[shareHolders[i]] = shares[i] */\n      swap1\n      dup2\n      tag_162\n      swap2\n      swap1\n      tag_163\n      jump\t// in\n    tag_162:\n      pop\n        /* \"contracts/ShareSecretNative.sol\":1278:1328  notifySendingToHolders(shareHolders[i], shares[i]) */\n      tag_164\n        /* \"contracts/ShareSecretNative.sol\":1301:1313  shareHolders */\n      0x01\n        /* \"contracts/ShareSecretNative.sol\":1314:1315  i */\n      dup3\n        /* \"contracts/ShareSecretNative.sol\":1301:1316  shareHolders[i] */\n      dup2\n      sload\n      dup2\n      lt\n      tag_165\n      jumpi\n      tag_166\n      tag_90\n      jump\t// in\n    tag_166:\n    tag_165:\n      swap1\n      0x00\n      mstore\n      keccak256(0x00, 0x20)\n      add\n      0x00\n      swap1\n      sload\n      swap1\n      0x0100\n      exp\n      swap1\n      div\n      0xffffffffffffffffffffffffffffffffffffffff\n      and\n        /* \"contracts/ShareSecretNative.sol\":1318:1324  shares */\n      0x02\n        /* \"contracts/ShareSecretNative.sol\":1325:1326  i */\n      dup4\n        /* \"contracts/ShareSecretNative.sol\":1318:1327  shares[i] */\n      dup2\n      sload\n      dup2\n      lt\n      tag_168\n      jumpi\n      tag_169\n      tag_90\n      jump\t// in\n    tag_169:\n    tag_168:\n      swap1\n      0x00\n      mstore\n      keccak256(0x00, 0x20)\n      add\n        /* \"contracts/ShareSecretNative.sol\":1278:1328  notifySendingToHolders(shareHolders[i], shares[i]) */\n      dup1\n      sload\n      tag_171\n      swap1\n      tag_75\n      jump\t// in\n    tag_171:\n      dup1\n      0x1f\n      add\n      0x20\n      dup1\n      swap2\n      div\n      mul\n      0x20\n      add\n      mload(0x40)\n      swap1\n      dup2\n      add\n      0x40\n      mstore\n      dup1\n      swap3\n      swap2\n      swap1\n      dup2\n      dup2\n      mstore\n      0x20\n      add\n      dup3\n      dup1\n      sload\n      tag_172\n      swap1\n      tag_75\n      jump\t// in\n    tag_172:\n      dup1\n      iszero\n      tag_173\n      jumpi\n      dup1\n      0x1f\n      lt\n      tag_174\n      jumpi\n      0x0100\n      dup1\n      dup4\n      sload\n      div\n      mul\n      dup4\n      mstore\n      swap2\n      0x20\n      add\n      swap2\n      jump(tag_173)\n    tag_174:\n      dup3\n      add\n      swap2\n      swap1\n      0x00\n      mstore\n      keccak256(0x00, 0x20)\n      swap1\n    tag_175:\n      dup2\n      sload\n      dup2\n      mstore\n      swap1\n      0x01\n      add\n      swap1\n      0x20\n      add\n      dup1\n      dup4\n      gt\n      tag_175\n      jumpi\n      dup3\n      swap1\n      sub\n      0x1f\n      and\n      dup3\n      add\n      swap2\n    tag_173:\n      pop\n      pop\n      pop\n      pop\n      pop\n        /* \"contracts/ShareSecretNative.sol\":1278:1300  notifySendingToHolders */\n      tag_32\n        /* \"contracts/ShareSecretNative.sol\":1278:1328  notifySendingToHolders(shareHolders[i], shares[i]) */\n      jump\t// in\n    tag_164:\n        /* \"contracts/ShareSecretNative.sol\":1191:1194  i++ */\n      dup1\n      dup1\n      tag_176\n      swap1\n      tag_111\n      jump\t// in\n    tag_176:\n      swap2\n      pop\n      pop\n        /* \"contracts/ShareSecretNative.sol\":1152:1344  for (uint256 i = 0; i < shares.length; i++) {... */\n      jump(tag_153)\n    tag_154:\n      pop\n        /* \"contracts/ShareSecretNative.sol\":1095:1355  if (shares.length <= shareHolders.length) {... */\n    tag_152:\n        /* \"contracts/ShareSecretNative.sol\":1045:1362  function distribute() public onlyOwner {... */\n      jump\t// out\n        /* \"#utility.yul\":7:82   */\n    tag_177:\n        /* \"#utility.yul\":40:46   */\n      0x00\n        /* \"#utility.yul\":73:75   */\n      0x40\n        /* \"#utility.yul\":67:76   */\n      mload\n        /* \"#utility.yul\":57:76   */\n      swap1\n      pop\n        /* \"#utility.yul\":7:82   */\n      swap1\n      jump\t// out\n        /* \"#utility.yul\":88:205   */\n    tag_178:\n        /* \"#utility.yul\":197:198   */\n      0x00\n        /* \"#utility.yul\":194:195   */\n      dup1\n        /* \"#utility.yul\":187:199   */\n      revert\n        /* \"#utility.yul\":211:328   */\n    tag_179:\n        /* \"#utility.yul\":320:321   */\n      0x00\n        /* \"#utility.yul\":317:318   */\n      dup1\n        /* \"#utility.yul\":310:322   */\n      revert\n        /* \"#utility.yul\":334:460   */\n    tag_180:\n        /* \"#utility.yul\":371:378   */\n      0x00\n        /* \"#utility.yul\":411:453   */\n      0xffffffffffffffffffffffffffffffffffffffff\n        /* \"#utility.yul\":404:409   */\n      dup3\n        /* \"#utility.yul\":400:454   */\n      and\n        /* \"#utility.yul\":389:454   */\n      swap1\n      pop\n        /* \"#utility.yul\":334:460   */\n      swap2\n      swap1\n      pop\n      jump\t// out\n        /* \"#utility.yul\":466:562   */\n    tag_181:\n        /* \"#utility.yul\":503:510   */\n      0x00\n        /* \"#utility.yul\":532:556   */\n      tag_248\n        /* \"#utility.yul\":550:555   */\n      dup3\n        /* \"#utility.yul\":532:556   */\n      tag_180\n      jump\t// in\n    tag_248:\n        /* \"#utility.yul\":521:556   */\n      swap1\n      pop\n        /* \"#utility.yul\":466:562   */\n      swap2\n      swap1\n      pop\n      jump\t// out\n        /* \"#utility.yul\":568:690   */\n    tag_182:\n        /* \"#utility.yul\":641:665   */\n      tag_250\n        /* \"#utility.yul\":659:664   */\n      dup2\n        /* \"#utility.yul\":641:665   */\n      tag_181\n      jump\t// in\n    tag_250:\n        /* \"#utility.yul\":634:639   */\n      dup2\n        /* \"#utility.yul\":631:666   */\n      eq\n        /* \"#utility.yul\":621:684   */\n      tag_251\n      jumpi\n        /* \"#utility.yul\":680:681   */\n      0x00\n        /* \"#utility.yul\":677:678   */\n      dup1\n        /* \"#utility.yul\":670:682   */\n      revert\n        /* \"#utility.yul\":621:684   */\n    tag_251:\n        /* \"#utility.yul\":568:690   */\n      pop\n      jump\t// out\n        /* \"#utility.yul\":696:835   */\n    tag_183:\n        /* \"#utility.yul\":742:747   */\n      0x00\n        /* \"#utility.yul\":780:786   */\n      dup2\n        /* \"#utility.yul\":767:787   */\n      calldataload\n        /* \"#utility.yul\":758:787   */\n      swap1\n      pop\n        /* \"#utility.yul\":796:829   */\n      tag_253\n        /* \"#utility.yul\":823:828   */\n      dup2\n        /* \"#utility.yul\":796:829   */\n      tag_182\n      jump\t// in\n    tag_253:\n        /* \"#utility.yul\":696:835   */\n      swap3\n      swap2\n      pop\n      pop\n      jump\t// out\n        /* \"#utility.yul\":841:1170   */\n    tag_22:\n        /* \"#utility.yul\":900:906   */\n      0x00\n        /* \"#utility.yul\":949:951   */\n      0x20\n        /* \"#utility.yul\":937:946   */\n      dup3\n        /* \"#utility.yul\":928:935   */\n      dup5\n        /* \"#utility.yul\":924:947   */\n      sub\n        /* \"#utility.yul\":920:952   */\n      slt\n        /* \"#utility.yul\":917:1036   */\n      iszero\n      tag_255\n      jumpi\n        /* \"#utility.yul\":955:1034   */\n      tag_256\n      tag_178\n      jump\t// in\n    tag_256:\n        /* \"#utility.yul\":917:1036   */\n    tag_255:\n        /* \"#utility.yul\":1075:1076   */\n      0x00\n        /* \"#utility.yul\":1100:1153   */\n      tag_257\n        /* \"#utility.yul\":1145:1152   */\n      dup5\n        /* \"#utility.yul\":1136:1142   */\n      dup3\n        /* \"#utility.yul\":1125:1134   */\n      dup6\n        /* \"#utility.yul\":1121:1143   */\n      add\n        /* \"#utility.yul\":1100:1153   */\n      tag_183\n      jump\t// in\n    tag_257:\n        /* \"#utility.yul\":1090:1153   */\n      swap2\n      pop\n        /* \"#utility.yul\":1046:1163   */\n      pop\n        /* \"#utility.yul\":841:1170   */\n      swap3\n      swap2\n      pop\n      pop\n      jump\t// out\n        /* \"#utility.yul\":1176:1275   */\n    tag_184:\n        /* \"#utility.yul\":1228:1234   */\n      0x00\n        /* \"#utility.yul\":1262:1267   */\n      dup2\n        /* \"#utility.yul\":1256:1268   */\n      mload\n        /* \"#utility.yul\":1246:1268   */\n      swap1\n      pop\n        /* \"#utility.yul\":1176:1275   */\n      swap2\n      swap1\n      pop\n      jump\t// out\n        /* \"#utility.yul\":1281:1450   */\n    tag_185:\n        /* \"#utility.yul\":1365:1376   */\n      0x00\n        /* \"#utility.yul\":1399:1405   */\n      dup3\n        /* \"#utility.yul\":1394:1397   */\n      dup3\n        /* \"#utility.yul\":1387:1406   */\n      mstore\n        /* \"#utility.yul\":1439:1443   */\n      0x20\n        /* \"#utility.yul\":1434:1437   */\n      dup3\n        /* \"#utility.yul\":1430:1444   */\n      add\n        /* \"#utility.yul\":1415:1444   */\n      swap1\n      pop\n        /* \"#utility.yul\":1281:1450   */\n      swap3\n      swap2\n      pop\n      pop\n      jump\t// out\n        /* \"#utility.yul\":1456:1702   */\n    tag_186:\n        /* \"#utility.yul\":1537:1538   */\n      0x00\n        /* \"#utility.yul\":1547:1660   */\n    tag_261:\n        /* \"#utility.yul\":1561:1567   */\n      dup4\n        /* \"#utility.yul\":1558:1559   */\n      dup2\n        /* \"#utility.yul\":1555:1568   */\n      lt\n        /* \"#utility.yul\":1547:1660   */\n      iszero\n      tag_263\n      jumpi\n        /* \"#utility.yul\":1646:1647   */\n      dup1\n        /* \"#utility.yul\":1641:1644   */\n      dup3\n        /* \"#utility.yul\":1637:1648   */\n      add\n        /* \"#utility.yul\":1631:1649   */\n      mload\n        /* \"#utility.yul\":1627:1628   */\n      dup2\n        /* \"#utility.yul\":1622:1625   */\n      dup5\n        /* \"#utility.yul\":1618:1629   */\n      add\n        /* \"#utility.yul\":1611:1650   */\n      mstore\n        /* \"#utility.yul\":1583:1585   */\n      0x20\n        /* \"#utility.yul\":1580:1581   */\n      dup2\n        /* \"#utility.yul\":1576:1586   */\n      add\n        /* \"#utility.yul\":1571:1586   */\n      swap1\n      pop\n        /* \"#utility.yul\":1547:1660   */\n      jump(tag_261)\n    tag_263:\n        /* \"#utility.yul\":1694:1695   */\n      0x00\n        /* \"#utility.yul\":1685:1691   */\n      dup5\n        /* \"#utility.yul\":1680:1683   */\n      dup5\n        /* \"#utility.yul\":1676:1692   */\n      add\n        /* \"#utility.yul\":1669:1696   */\n      mstore\n        /* \"#utility.yul\":1518:1702   */\n      pop\n        /* \"#utility.yul\":1456:1702   */\n      pop\n      pop\n      pop\n      jump\t// out\n        /* \"#utility.yul\":1708:1810   */\n    tag_187:\n        /* \"#utility.yul\":1749:1755   */\n      0x00\n        /* \"#utility.yul\":1800:1802   */\n      0x1f\n        /* \"#utility.yul\":1796:1803   */\n      not\n        /* \"#utility.yul\":1791:1793   */\n      0x1f\n        /* \"#utility.yul\":1784:1789   */\n      dup4\n        /* \"#utility.yul\":1780:1794   */\n      add\n        /* \"#utility.yul\":1776:1804   */\n      and\n        /* \"#utility.yul\":1766:1804   */\n      swap1\n      pop\n        /* \"#utility.yul\":1708:1810   */\n      swap2\n      swap1\n      pop\n      jump\t// out\n        /* \"#utility.yul\":1816:2193   */\n    tag_188:\n        /* \"#utility.yul\":1904:1907   */\n      0x00\n        /* \"#utility.yul\":1932:1971   */\n      tag_266\n        /* \"#utility.yul\":1965:1970   */\n      dup3\n        /* \"#utility.yul\":1932:1971   */\n      tag_184\n      jump\t// in\n    tag_266:\n        /* \"#utility.yul\":1987:2058   */\n      tag_267\n        /* \"#utility.yul\":2051:2057   */\n      dup2\n        /* \"#utility.yul\":2046:2049   */\n      dup6\n        /* \"#utility.yul\":1987:2058   */\n      tag_185\n      jump\t// in\n    tag_267:\n        /* \"#utility.yul\":1980:2058   */\n      swap4\n      pop\n        /* \"#utility.yul\":2067:2132   */\n      tag_268\n        /* \"#utility.yul\":2125:2131   */\n      dup2\n        /* \"#utility.yul\":2120:2123   */\n      dup6\n        /* \"#utility.yul\":2113:2117   */\n      0x20\n        /* \"#utility.yul\":2106:2111   */\n      dup7\n        /* \"#utility.yul\":2102:2118   */\n      add\n        /* \"#utility.yul\":2067:2132   */\n      tag_186\n      jump\t// in\n    tag_268:\n        /* \"#utility.yul\":2157:2186   */\n      tag_269\n        /* \"#utility.yul\":2179:2185   */\n      dup2\n        /* \"#utility.yul\":2157:2186   */\n      tag_187\n      jump\t// in\n    tag_269:\n        /* \"#utility.yul\":2152:2155   */\n      dup5\n        /* \"#utility.yul\":2148:2187   */\n      add\n        /* \"#utility.yul\":2141:2187   */\n      swap2\n      pop\n        /* \"#utility.yul\":1908:2193   */\n      pop\n        /* \"#utility.yul\":1816:2193   */\n      swap3\n      swap2\n      pop\n      pop\n      jump\t// out\n        /* \"#utility.yul\":2199:2512   */\n    tag_28:\n        /* \"#utility.yul\":2312:2316   */\n      0x00\n        /* \"#utility.yul\":2350:2352   */\n      0x20\n        /* \"#utility.yul\":2339:2348   */\n      dup3\n        /* \"#utility.yul\":2335:2353   */\n      add\n        /* \"#utility.yul\":2327:2353   */\n      swap1\n      pop\n        /* \"#utility.yul\":2399:2408   */\n      dup2\n        /* \"#utility.yul\":2393:2397   */\n      dup2\n        /* \"#utility.yul\":2389:2409   */\n      sub\n        /* \"#utility.yul\":2385:2386   */\n      0x00\n        /* \"#utility.yul\":2374:2383   */\n      dup4\n        /* \"#utility.yul\":2370:2387   */\n      add\n        /* \"#utility.yul\":2363:2410   */\n      mstore\n        /* \"#utility.yul\":2427:2505   */\n      tag_271\n        /* \"#utility.yul\":2500:2504   */\n      dup2\n        /* \"#utility.yul\":2491:2497   */\n      dup5\n        /* \"#utility.yul\":2427:2505   */\n      tag_188\n      jump\t// in\n    tag_271:\n        /* \"#utility.yul\":2419:2505   */\n      swap1\n      pop\n        /* \"#utility.yul\":2199:2512   */\n      swap3\n      swap2\n      pop\n      pop\n      jump\t// out\n        /* \"#utility.yul\":2518:2622   */\n    tag_189:\n        /* \"#utility.yul\":2563:2570   */\n      0x00\n        /* \"#utility.yul\":2592:2616   */\n      tag_273\n        /* \"#utility.yul\":2610:2615   */\n      dup3\n        /* \"#utility.yul\":2592:2616   */\n      tag_180\n      jump\t// in\n    tag_273:\n        /* \"#utility.yul\":2581:2616   */\n      swap1\n      pop\n        /* \"#utility.yul\":2518:2622   */\n      swap2\n      swap1\n      pop\n      jump\t// out\n        /* \"#utility.yul\":2628:2766   */\n    tag_190:\n        /* \"#utility.yul\":2709:2741   */\n      tag_275\n        /* \"#utility.yul\":2735:2740   */\n      dup2\n        /* \"#utility.yul\":2709:2741   */\n      tag_189\n      jump\t// in\n    tag_275:\n        /* \"#utility.yul\":2702:2707   */\n      dup2\n        /* \"#utility.yul\":2699:2742   */\n      eq\n        /* \"#utility.yul\":2689:2760   */\n      tag_276\n      jumpi\n        /* \"#utility.yul\":2756:2757   */\n      0x00\n        /* \"#utility.yul\":2753:2754   */\n      dup1\n        /* \"#utility.yul\":2746:2758   */\n      revert\n        /* \"#utility.yul\":2689:2760   */\n    tag_276:\n        /* \"#utility.yul\":2628:2766   */\n      pop\n      jump\t// out\n        /* \"#utility.yul\":2772:2927   */\n    tag_191:\n        /* \"#utility.yul\":2826:2831   */\n      0x00\n        /* \"#utility.yul\":2864:2870   */\n      dup2\n        /* \"#utility.yul\":2851:2871   */\n      calldataload\n        /* \"#utility.yul\":2842:2871   */\n      swap1\n      pop\n        /* \"#utility.yul\":2880:2921   */\n      tag_278\n        /* \"#utility.yul\":2915:2920   */\n      dup2\n        /* \"#utility.yul\":2880:2921   */\n      tag_190\n      jump\t// in\n    tag_278:\n        /* \"#utility.yul\":2772:2927   */\n      swap3\n      swap2\n      pop\n      pop\n      jump\t// out\n        /* \"#utility.yul\":2933:3050   */\n    tag_192:\n        /* \"#utility.yul\":3042:3043   */\n      0x00\n        /* \"#utility.yul\":3039:3040   */\n      dup1\n        /* \"#utility.yul\":3032:3044   */\n      revert\n        /* \"#utility.yul\":3056:3173   */\n    tag_193:\n        /* \"#utility.yul\":3165:3166   */\n      0x00\n        /* \"#utility.yul\":3162:3163   */\n      dup1\n        /* \"#utility.yul\":3155:3167   */\n      revert\n        /* \"#utility.yul\":3179:3359   */\n    tag_194:\n        /* \"#utility.yul\":3227:3304   */\n      0x4e487b7100000000000000000000000000000000000000000000000000000000\n        /* \"#utility.yul\":3224:3225   */\n      0x00\n        /* \"#utility.yul\":3217:3305   */\n      mstore\n        /* \"#utility.yul\":3324:3328   */\n      0x41\n        /* \"#utility.yul\":3321:3322   */\n      0x04\n        /* \"#utility.yul\":3314:3329   */\n      mstore\n        /* \"#utility.yul\":3348:3352   */\n      0x24\n        /* \"#utility.yul\":3345:3346   */\n      0x00\n        /* \"#utility.yul\":3338:3353   */\n      revert\n        /* \"#utility.yul\":3365:3646   */\n    tag_195:\n        /* \"#utility.yul\":3448:3475   */\n      tag_283\n        /* \"#utility.yul\":3470:3474   */\n      dup3\n        /* \"#utility.yul\":3448:3475   */\n      tag_187\n      jump\t// in\n    tag_283:\n        /* \"#utility.yul\":3440:3446   */\n      dup2\n        /* \"#utility.yul\":3436:3476   */\n      add\n        /* \"#utility.yul\":3578:3584   */\n      dup2\n        /* \"#utility.yul\":3566:3576   */\n      dup2\n        /* \"#utility.yul\":3563:3585   */\n      lt\n        /* \"#utility.yul\":3542:3560   */\n      0xffffffffffffffff\n        /* \"#utility.yul\":3530:3540   */\n      dup3\n        /* \"#utility.yul\":3527:3561   */\n      gt\n        /* \"#utility.yul\":3524:3586   */\n      or\n        /* \"#utility.yul\":3521:3609   */\n      iszero\n      tag_284\n      jumpi\n        /* \"#utility.yul\":3589:3607   */\n      tag_285\n      tag_194\n      jump\t// in\n    tag_285:\n        /* \"#utility.yul\":3521:3609   */\n    tag_284:\n        /* \"#utility.yul\":3629:3639   */\n      dup1\n        /* \"#utility.yul\":3625:3627   */\n      0x40\n        /* \"#utility.yul\":3618:3640   */\n      mstore\n        /* \"#utility.yul\":3408:3646   */\n      pop\n        /* \"#utility.yul\":3365:3646   */\n      pop\n      pop\n      jump\t// out\n        /* \"#utility.yul\":3652:3781   */\n    tag_196:\n        /* \"#utility.yul\":3686:3692   */\n      0x00\n        /* \"#utility.yul\":3713:3733   */\n      tag_287\n      tag_177\n      jump\t// in\n    tag_287:\n        /* \"#utility.yul\":3703:3733   */\n      swap1\n      pop\n        /* \"#utility.yul\":3742:3775   */\n      tag_288\n        /* \"#utility.yul\":3770:3774   */\n      dup3\n        /* \"#utility.yul\":3762:3768   */\n      dup3\n        /* \"#utility.yul\":3742:3775   */\n      tag_195\n      jump\t// in\n    tag_288:\n        /* \"#utility.yul\":3652:3781   */\n      swap2\n      swap1\n      pop\n      jump\t// out\n        /* \"#utility.yul\":3787:4095   */\n    tag_197:\n        /* \"#utility.yul\":3849:3853   */\n      0x00\n        /* \"#utility.yul\":3939:3957   */\n      0xffffffffffffffff\n        /* \"#utility.yul\":3931:3937   */\n      dup3\n        /* \"#utility.yul\":3928:3958   */\n      gt\n        /* \"#utility.yul\":3925:3981   */\n      iszero\n      tag_290\n      jumpi\n        /* \"#utility.yul\":3961:3979   */\n      tag_291\n      tag_194\n      jump\t// in\n    tag_291:\n        /* \"#utility.yul\":3925:3981   */\n    tag_290:\n        /* \"#utility.yul\":3999:4028   */\n      tag_292\n        /* \"#utility.yul\":4021:4027   */\n      dup3\n        /* \"#utility.yul\":3999:4028   */\n      tag_187\n      jump\t// in\n    tag_292:\n        /* \"#utility.yul\":3991:4028   */\n      swap1\n      pop\n        /* \"#utility.yul\":4083:4087   */\n      0x20\n        /* \"#utility.yul\":4077:4081   */\n      dup2\n        /* \"#utility.yul\":4073:4088   */\n      add\n        /* \"#utility.yul\":4065:4088   */\n      swap1\n      pop\n        /* \"#utility.yul\":3787:4095   */\n      swap2\n      swap1\n      pop\n      jump\t// out\n        /* \"#utility.yul\":4101:4247   */\n    tag_198:\n        /* \"#utility.yul\":4198:4204   */\n      dup3\n        /* \"#utility.yul\":4193:4196   */\n      dup2\n        /* \"#utility.yul\":4188:4191   */\n      dup4\n        /* \"#utility.yul\":4175:4205   */\n      calldatacopy\n        /* \"#utility.yul\":4239:4240   */\n      0x00\n        /* \"#utility.yul\":4230:4236   */\n      dup4\n        /* \"#utility.yul\":4225:4228   */\n      dup4\n        /* \"#utility.yul\":4221:4237   */\n      add\n        /* \"#utility.yul\":4214:4241   */\n      mstore\n        /* \"#utility.yul\":4101:4247   */\n      pop\n      pop\n      pop\n      jump\t// out\n        /* \"#utility.yul\":4253:4678   */\n    tag_199:\n        /* \"#utility.yul\":4331:4336   */\n      0x00\n        /* \"#utility.yul\":4356:4422   */\n      tag_295\n        /* \"#utility.yul\":4372:4421   */\n      tag_296\n        /* \"#utility.yul\":4414:4420   */\n      dup5\n        /* \"#utility.yul\":4372:4421   */\n      tag_197\n      jump\t// in\n    tag_296:\n        /* \"#utility.yul\":4356:4422   */\n      tag_196\n      jump\t// in\n    tag_295:\n        /* \"#utility.yul\":4347:4422   */\n      swap1\n      pop\n        /* \"#utility.yul\":4445:4451   */\n      dup3\n        /* \"#utility.yul\":4438:4443   */\n      dup2\n        /* \"#utility.yul\":4431:4452   */\n      mstore\n        /* \"#utility.yul\":4483:4487   */\n      0x20\n        /* \"#utility.yul\":4476:4481   */\n      dup2\n        /* \"#utility.yul\":4472:4488   */\n      add\n        /* \"#utility.yul\":4521:4524   */\n      dup5\n        /* \"#utility.yul\":4512:4518   */\n      dup5\n        /* \"#utility.yul\":4507:4510   */\n      dup5\n        /* \"#utility.yul\":4503:4519   */\n      add\n        /* \"#utility.yul\":4500:4525   */\n      gt\n        /* \"#utility.yul\":4497:4609   */\n      iszero\n      tag_297\n      jumpi\n        /* \"#utility.yul\":4528:4607   */\n      tag_298\n      tag_193\n      jump\t// in\n    tag_298:\n        /* \"#utility.yul\":4497:4609   */\n    tag_297:\n        /* \"#utility.yul\":4618:4672   */\n      tag_299\n        /* \"#utility.yul\":4665:4671   */\n      dup5\n        /* \"#utility.yul\":4660:4663   */\n      dup3\n        /* \"#utility.yul\":4655:4658   */\n      dup6\n        /* \"#utility.yul\":4618:4672   */\n      tag_198\n      jump\t// in\n    tag_299:\n        /* \"#utility.yul\":4337:4678   */\n      pop\n        /* \"#utility.yul\":4253:4678   */\n      swap4\n      swap3\n      pop\n      pop\n      pop\n      jump\t// out\n        /* \"#utility.yul\":4698:5038   */\n    tag_200:\n        /* \"#utility.yul\":4754:4759   */\n      0x00\n        /* \"#utility.yul\":4803:4806   */\n      dup3\n        /* \"#utility.yul\":4796:4800   */\n      0x1f\n        /* \"#utility.yul\":4788:4794   */\n      dup4\n        /* \"#utility.yul\":4784:4801   */\n      add\n        /* \"#utility.yul\":4780:4807   */\n      slt\n        /* \"#utility.yul\":4770:4892   */\n      tag_301\n      jumpi\n        /* \"#utility.yul\":4811:4890   */\n      tag_302\n      tag_192\n      jump\t// in\n    tag_302:\n        /* \"#utility.yul\":4770:4892   */\n    tag_301:\n        /* \"#utility.yul\":4928:4934   */\n      dup2\n        /* \"#utility.yul\":4915:4935   */\n      calldataload\n        /* \"#utility.yul\":4953:5032   */\n      tag_303\n        /* \"#utility.yul\":5028:5031   */\n      dup5\n        /* \"#utility.yul\":5020:5026   */\n      dup3\n        /* \"#utility.yul\":5013:5017   */\n      0x20\n        /* \"#utility.yul\":5005:5011   */\n      dup7\n        /* \"#utility.yul\":5001:5018   */\n      add\n        /* \"#utility.yul\":4953:5032   */\n      tag_199\n      jump\t// in\n    tag_303:\n        /* \"#utility.yul\":4944:5032   */\n      swap2\n      pop\n        /* \"#utility.yul\":4760:5038   */\n      pop\n        /* \"#utility.yul\":4698:5038   */\n      swap3\n      swap2\n      pop\n      pop\n      jump\t// out\n        /* \"#utility.yul\":5044:5714   */\n    tag_31:\n        /* \"#utility.yul\":5130:5136   */\n      0x00\n        /* \"#utility.yul\":5138:5144   */\n      dup1\n        /* \"#utility.yul\":5187:5189   */\n      0x40\n        /* \"#utility.yul\":5175:5184   */\n      dup4\n        /* \"#utility.yul\":5166:5173   */\n      dup6\n        /* \"#utility.yul\":5162:5185   */\n      sub\n        /* \"#utility.yul\":5158:5190   */\n      slt\n        /* \"#utility.yul\":5155:5274   */\n      iszero\n      tag_305\n      jumpi\n        /* \"#utility.yul\":5193:5272   */\n      tag_306\n      tag_178\n      jump\t// in\n    tag_306:\n        /* \"#utility.yul\":5155:5274   */\n    tag_305:\n        /* \"#utility.yul\":5313:5314   */\n      0x00\n        /* \"#utility.yul\":5338:5399   */\n      tag_307\n        /* \"#utility.yul\":5391:5398   */\n      dup6\n        /* \"#utility.yul\":5382:5388   */\n      dup3\n        /* \"#utility.yul\":5371:5380   */\n      dup7\n        /* \"#utility.yul\":5367:5389   */\n      add\n        /* \"#utility.yul\":5338:5399   */\n      tag_191\n      jump\t// in\n    tag_307:\n        /* \"#utility.yul\":5328:5399   */\n      swap3\n      pop\n        /* \"#utility.yul\":5284:5409   */\n      pop\n        /* \"#utility.yul\":5476:5478   */\n      0x20\n        /* \"#utility.yul\":5465:5474   */\n      dup4\n        /* \"#utility.yul\":5461:5479   */\n      add\n        /* \"#utility.yul\":5448:5480   */\n      calldataload\n        /* \"#utility.yul\":5507:5525   */\n      0xffffffffffffffff\n        /* \"#utility.yul\":5499:5505   */\n      dup2\n        /* \"#utility.yul\":5496:5526   */\n      gt\n        /* \"#utility.yul\":5493:5610   */\n      iszero\n      tag_308\n      jumpi\n        /* \"#utility.yul\":5529:5608   */\n      tag_309\n      tag_179\n      jump\t// in\n    tag_309:\n        /* \"#utility.yul\":5493:5610   */\n    tag_308:\n        /* \"#utility.yul\":5634:5697   */\n      tag_310\n        /* \"#utility.yul\":5689:5696   */\n      dup6\n        /* \"#utility.yul\":5680:5686   */\n      dup3\n        /* \"#utility.yul\":5669:5678   */\n      dup7\n        /* \"#utility.yul\":5665:5687   */\n      add\n        /* \"#utility.yul\":5634:5697   */\n      tag_200\n      jump\t// in\n    tag_310:\n        /* \"#utility.yul\":5624:5697   */\n      swap2\n      pop\n        /* \"#utility.yul\":5419:5707   */\n      pop\n        /* \"#utility.yul\":5044:5714   */\n      swap3\n      pop\n      swap3\n      swap1\n      pop\n      jump\t// out\n        /* \"#utility.yul\":5720:5797   */\n    tag_201:\n        /* \"#utility.yul\":5757:5764   */\n      0x00\n        /* \"#utility.yul\":5786:5791   */\n      dup2\n        /* \"#utility.yul\":5775:5791   */\n      swap1\n      pop\n        /* \"#utility.yul\":5720:5797   */\n      swap2\n      swap1\n      pop\n      jump\t// out\n        /* \"#utility.yul\":5803:5925   */\n    tag_202:\n        /* \"#utility.yul\":5876:5900   */\n      tag_313\n        /* \"#utility.yul\":5894:5899   */\n      dup2\n        /* \"#utility.yul\":5876:5900   */\n      tag_201\n      jump\t// in\n    tag_313:\n        /* \"#utility.yul\":5869:5874   */\n      dup2\n        /* \"#utility.yul\":5866:5901   */\n      eq\n        /* \"#utility.yul\":5856:5919   */\n      tag_314\n      jumpi\n        /* \"#utility.yul\":5915:5916   */\n      0x00\n        /* \"#utility.yul\":5912:5913   */\n      dup1\n        /* \"#utility.yul\":5905:5917   */\n      revert\n        /* \"#utility.yul\":5856:5919   */\n    tag_314:\n        /* \"#utility.yul\":5803:5925   */\n      pop\n      jump\t// out\n        /* \"#utility.yul\":5931:6070   */\n    tag_203:\n        /* \"#utility.yul\":5977:5982   */\n      0x00\n        /* \"#utility.yul\":6015:6021   */\n      dup2\n        /* \"#utility.yul\":6002:6022   */\n      calldataload\n        /* \"#utility.yul\":5993:6022   */\n      swap1\n      pop\n        /* \"#utility.yul\":6031:6064   */\n      tag_316\n        /* \"#utility.yul\":6058:6063   */\n      dup2\n        /* \"#utility.yul\":6031:6064   */\n      tag_202\n      jump\t// in\n    tag_316:\n        /* \"#utility.yul\":5931:6070   */\n      swap3\n      swap2\n      pop\n      pop\n      jump\t// out\n        /* \"#utility.yul\":6076:6405   */\n    tag_35:\n        /* \"#utility.yul\":6135:6141   */\n      0x00\n        /* \"#utility.yul\":6184:6186   */\n      0x20\n        /* \"#utility.yul\":6172:6181   */\n      dup3\n        /* \"#utility.yul\":6163:6170   */\n      dup5\n        /* \"#utility.yul\":6159:6182   */\n      sub\n        /* \"#utility.yul\":6155:6187   */\n      slt\n        /* \"#utility.yul\":6152:6271   */\n      iszero\n      tag_318\n      jumpi\n        /* \"#utility.yul\":6190:6269   */\n      tag_319\n      tag_178\n      jump\t// in\n    tag_319:\n        /* \"#utility.yul\":6152:6271   */\n    tag_318:\n        /* \"#utility.yul\":6310:6311   */\n      0x00\n        /* \"#utility.yul\":6335:6388   */\n      tag_320\n        /* \"#utility.yul\":6380:6387   */\n      dup5\n        /* \"#utility.yul\":6371:6377   */\n      dup3\n        /* \"#utility.yul\":6360:6369   */\n      dup6\n        /* \"#utility.yul\":6356:6378   */\n      add\n        /* \"#utility.yul\":6335:6388   */\n      tag_203\n      jump\t// in\n    tag_320:\n        /* \"#utility.yul\":6325:6388   */\n      swap2\n      pop\n        /* \"#utility.yul\":6281:6398   */\n      pop\n        /* \"#utility.yul\":6076:6405   */\n      swap3\n      swap2\n      pop\n      pop\n      jump\t// out\n        /* \"#utility.yul\":6411:6756   */\n    tag_39:\n        /* \"#utility.yul\":6478:6484   */\n      0x00\n        /* \"#utility.yul\":6527:6529   */\n      0x20\n        /* \"#utility.yul\":6515:6524   */\n      dup3\n        /* \"#utility.yul\":6506:6513   */\n      dup5\n        /* \"#utility.yul\":6502:6525   */\n      sub\n        /* \"#utility.yul\":6498:6530   */\n      slt\n        /* \"#utility.yul\":6495:6614   */\n      iszero\n      tag_322\n      jumpi\n        /* \"#utility.yul\":6533:6612   */\n      tag_323\n      tag_178\n      jump\t// in\n    tag_323:\n        /* \"#utility.yul\":6495:6614   */\n    tag_322:\n        /* \"#utility.yul\":6653:6654   */\n      0x00\n        /* \"#utility.yul\":6678:6739   */\n      tag_324\n        /* \"#utility.yul\":6731:6738   */\n      dup5\n        /* \"#utility.yul\":6722:6728   */\n      dup3\n        /* \"#utility.yul\":6711:6720   */\n      dup6\n        /* \"#utility.yul\":6707:6729   */\n      add\n        /* \"#utility.yul\":6678:6739   */\n      tag_191\n      jump\t// in\n    tag_324:\n        /* \"#utility.yul\":6668:6739   */\n      swap2\n      pop\n        /* \"#utility.yul\":6624:6749   */\n      pop\n        /* \"#utility.yul\":6411:6756   */\n      swap3\n      swap2\n      pop\n      pop\n      jump\t// out\n        /* \"#utility.yul\":6762:6904   */\n    tag_204:\n        /* \"#utility.yul\":6865:6897   */\n      tag_326\n        /* \"#utility.yul\":6891:6896   */\n      dup2\n        /* \"#utility.yul\":6865:6897   */\n      tag_189\n      jump\t// in\n    tag_326:\n        /* \"#utility.yul\":6860:6863   */\n      dup3\n        /* \"#utility.yul\":6853:6898   */\n      mstore\n        /* \"#utility.yul\":6762:6904   */\n      pop\n      pop\n      jump\t// out\n        /* \"#utility.yul\":6910:7164   */\n    tag_49:\n        /* \"#utility.yul\":7019:7023   */\n      0x00\n        /* \"#utility.yul\":7057:7059   */\n      0x20\n        /* \"#utility.yul\":7046:7055   */\n      dup3\n        /* \"#utility.yul\":7042:7060   */\n      add\n        /* \"#utility.yul\":7034:7060   */\n      swap1\n      pop\n        /* \"#utility.yul\":7070:7157   */\n      tag_328\n        /* \"#utility.yul\":7154:7155   */\n      0x00\n        /* \"#utility.yul\":7143:7152   */\n      dup4\n        /* \"#utility.yul\":7139:7156   */\n      add\n        /* \"#utility.yul\":7130:7136   */\n      dup5\n        /* \"#utility.yul\":7070:7157   */\n      tag_204\n      jump\t// in\n    tag_328:\n        /* \"#utility.yul\":6910:7164   */\n      swap3\n      swap2\n      pop\n      pop\n      jump\t// out\n        /* \"#utility.yul\":7170:7292   */\n    tag_205:\n        /* \"#utility.yul\":7245:7251   */\n      0x00\n        /* \"#utility.yul\":7279:7284   */\n      dup2\n        /* \"#utility.yul\":7273:7285   */\n      mload\n        /* \"#utility.yul\":7263:7285   */\n      swap1\n      pop\n        /* \"#utility.yul\":7170:7292   */\n      swap2\n      swap1\n      pop\n      jump\t// out\n        /* \"#utility.yul\":7298:7490   */\n    tag_206:\n        /* \"#utility.yul\":7405:7416   */\n      0x00\n        /* \"#utility.yul\":7439:7445   */\n      dup3\n        /* \"#utility.yul\":7434:7437   */\n      dup3\n        /* \"#utility.yul\":7427:7446   */\n      mstore\n        /* \"#utility.yul\":7479:7483   */\n      0x20\n        /* \"#utility.yul\":7474:7477   */\n      dup3\n        /* \"#utility.yul\":7470:7484   */\n      add\n        /* \"#utility.yul\":7455:7484   */\n      swap1\n      pop\n        /* \"#utility.yul\":7298:7490   */\n      swap3\n      swap2\n      pop\n      pop\n      jump\t// out\n        /* \"#utility.yul\":7496:7636   */\n    tag_207:\n        /* \"#utility.yul\":7571:7575   */\n      0x00\n        /* \"#utility.yul\":7594:7597   */\n      dup2\n        /* \"#utility.yul\":7586:7597   */\n      swap1\n      pop\n        /* \"#utility.yul\":7624:7628   */\n      0x20\n        /* \"#utility.yul\":7619:7622   */\n      dup3\n        /* \"#utility.yul\":7615:7629   */\n      add\n        /* \"#utility.yul\":7607:7629   */\n      swap1\n      pop\n        /* \"#utility.yul\":7496:7636   */\n      swap2\n      swap1\n      pop\n      jump\t// out\n        /* \"#utility.yul\":7642:7774   */\n    tag_208:\n        /* \"#utility.yul\":7735:7767   */\n      tag_333\n        /* \"#utility.yul\":7761:7766   */\n      dup2\n        /* \"#utility.yul\":7735:7767   */\n      tag_189\n      jump\t// in\n    tag_333:\n        /* \"#utility.yul\":7730:7733   */\n      dup3\n        /* \"#utility.yul\":7723:7768   */\n      mstore\n        /* \"#utility.yul\":7642:7774   */\n      pop\n      pop\n      jump\t// out\n        /* \"#utility.yul\":7780:7991   */\n    tag_209:\n        /* \"#utility.yul\":7865:7875   */\n      0x00\n        /* \"#utility.yul\":7886:7948   */\n      tag_335\n        /* \"#utility.yul\":7944:7947   */\n      dup4\n        /* \"#utility.yul\":7936:7942   */\n      dup4\n        /* \"#utility.yul\":7886:7948   */\n      tag_208\n      jump\t// in\n    tag_335:\n        /* \"#utility.yul\":7980:7984   */\n      0x20\n        /* \"#utility.yul\":7975:7978   */\n      dup4\n        /* \"#utility.yul\":7971:7985   */\n      add\n        /* \"#utility.yul\":7957:7985   */\n      swap1\n      pop\n        /* \"#utility.yul\":7780:7991   */\n      swap3\n      swap2\n      pop\n      pop\n      jump\t// out\n        /* \"#utility.yul\":7997:8118   */\n    tag_210:\n        /* \"#utility.yul\":8075:8079   */\n      0x00\n        /* \"#utility.yul\":8107:8111   */\n      0x20\n        /* \"#utility.yul\":8102:8105   */\n      dup3\n        /* \"#utility.yul\":8098:8112   */\n      add\n        /* \"#utility.yul\":8090:8112   */\n      swap1\n      pop\n        /* \"#utility.yul\":7997:8118   */\n      swap2\n      swap1\n      pop\n      jump\t// out\n        /* \"#utility.yul\":8170:8966   */\n    tag_211:\n        /* \"#utility.yul\":8305:8308   */\n      0x00\n        /* \"#utility.yul\":8334:8396   */\n      tag_338\n        /* \"#utility.yul\":8390:8395   */\n      dup3\n        /* \"#utility.yul\":8334:8396   */\n      tag_205\n      jump\t// in\n    tag_338:\n        /* \"#utility.yul\":8412:8506   */\n      tag_339\n        /* \"#utility.yul\":8499:8505   */\n      dup2\n        /* \"#utility.yul\":8494:8497   */\n      dup6\n        /* \"#utility.yul\":8412:8506   */\n      tag_206\n      jump\t// in\n    tag_339:\n        /* \"#utility.yul\":8405:8506   */\n      swap4\n      pop\n        /* \"#utility.yul\":8530:8594   */\n      tag_340\n        /* \"#utility.yul\":8588:8593   */\n      dup4\n        /* \"#utility.yul\":8530:8594   */\n      tag_207\n      jump\t// in\n    tag_340:\n        /* \"#utility.yul\":8617:8624   */\n      dup1\n        /* \"#utility.yul\":8648:8649   */\n      0x00\n        /* \"#utility.yul\":8633:8941   */\n    tag_341:\n        /* \"#utility.yul\":8658:8664   */\n      dup4\n        /* \"#utility.yul\":8655:8656   */\n      dup2\n        /* \"#utility.yul\":8652:8665   */\n      lt\n        /* \"#utility.yul\":8633:8941   */\n      iszero\n      tag_343\n      jumpi\n        /* \"#utility.yul\":8734:8740   */\n      dup2\n        /* \"#utility.yul\":8728:8741   */\n      mload\n        /* \"#utility.yul\":8761:8840   */\n      tag_344\n        /* \"#utility.yul\":8836:8839   */\n      dup9\n        /* \"#utility.yul\":8821:8834   */\n      dup3\n        /* \"#utility.yul\":8761:8840   */\n      tag_209\n      jump\t// in\n    tag_344:\n        /* \"#utility.yul\":8754:8840   */\n      swap8\n      pop\n        /* \"#utility.yul\":8863:8931   */\n      tag_345\n        /* \"#utility.yul\":8924:8930   */\n      dup4\n        /* \"#utility.yul\":8863:8931   */\n      tag_210\n      jump\t// in\n    tag_345:\n        /* \"#utility.yul\":8853:8931   */\n      swap3\n      pop\n        /* \"#utility.yul\":8693:8941   */\n      pop\n        /* \"#utility.yul\":8680:8681   */\n      0x01\n        /* \"#utility.yul\":8677:8678   */\n      dup2\n        /* \"#utility.yul\":8673:8682   */\n      add\n        /* \"#utility.yul\":8668:8682   */\n      swap1\n      pop\n        /* \"#utility.yul\":8633:8941   */\n      jump(tag_341)\n    tag_343:\n        /* \"#utility.yul\":8637:8651   */\n      pop\n        /* \"#utility.yul\":8957:8960   */\n      dup6\n        /* \"#utility.yul\":8950:8960   */\n      swap4\n      pop\n        /* \"#utility.yul\":8310:8966   */\n      pop\n      pop\n      pop\n        /* \"#utility.yul\":8170:8966   */\n      swap3\n      swap2\n      pop\n      pop\n      jump\t// out\n        /* \"#utility.yul\":8972:9377   */\n    tag_56:\n        /* \"#utility.yul\":9131:9135   */\n      0x00\n        /* \"#utility.yul\":9169:9171   */\n      0x20\n        /* \"#utility.yul\":9158:9167   */\n      dup3\n        /* \"#utility.yul\":9154:9172   */\n      add\n        /* \"#utility.yul\":9146:9172   */\n      swap1\n      pop\n        /* \"#utility.yul\":9218:9227   */\n      dup2\n        /* \"#utility.yul\":9212:9216   */\n      dup2\n        /* \"#utility.yul\":9208:9228   */\n      sub\n        /* \"#utility.yul\":9204:9205   */\n      0x00\n        /* \"#utility.yul\":9193:9202   */\n      dup4\n        /* \"#utility.yul\":9189:9206   */\n      add\n        /* \"#utility.yul\":9182:9229   */\n      mstore\n        /* \"#utility.yul\":9246:9370   */\n      tag_347\n        /* \"#utility.yul\":9365:9369   */\n      dup2\n        /* \"#utility.yul\":9356:9362   */\n      dup5\n        /* \"#utility.yul\":9246:9370   */\n      tag_211\n      jump\t// in\n    tag_347:\n        /* \"#utility.yul\":9238:9370   */\n      swap1\n      pop\n        /* \"#utility.yul\":8972:9377   */\n      swap3\n      swap2\n      pop\n      pop\n      jump\t// out\n        /* \"#utility.yul\":9383:9501   */\n    tag_212:\n        /* \"#utility.yul\":9470:9494   */\n      tag_349\n        /* \"#utility.yul\":9488:9493   */\n      dup2\n        /* \"#utility.yul\":9470:9494   */\n      tag_181\n      jump\t// in\n    tag_349:\n        /* \"#utility.yul\":9465:9468   */\n      dup3\n        /* \"#utility.yul\":9458:9495   */\n      mstore\n        /* \"#utility.yul\":9383:9501   */\n      pop\n      pop\n      jump\t// out\n        /* \"#utility.yul\":9507:9729   */\n    tag_60:\n        /* \"#utility.yul\":9600:9604   */\n      0x00\n        /* \"#utility.yul\":9638:9640   */\n      0x20\n        /* \"#utility.yul\":9627:9636   */\n      dup3\n        /* \"#utility.yul\":9623:9641   */\n      add\n        /* \"#utility.yul\":9615:9641   */\n      swap1\n      pop\n        /* \"#utility.yul\":9651:9722   */\n      tag_351\n        /* \"#utility.yul\":9719:9720   */\n      0x00\n        /* \"#utility.yul\":9708:9717   */\n      dup4\n        /* \"#utility.yul\":9704:9721   */\n      add\n        /* \"#utility.yul\":9695:9701   */\n      dup5\n        /* \"#utility.yul\":9651:9722   */\n      tag_212\n      jump\t// in\n    tag_351:\n        /* \"#utility.yul\":9507:9729   */\n      swap3\n      swap2\n      pop\n      pop\n      jump\t// out\n        /* \"#utility.yul\":9735:9859   */\n    tag_213:\n        /* \"#utility.yul\":9812:9818   */\n      0x00\n        /* \"#utility.yul\":9846:9851   */\n      dup2\n        /* \"#utility.yul\":9840:9852   */\n      mload\n        /* \"#utility.yul\":9830:9852   */\n      swap1\n      pop\n        /* \"#utility.yul\":9735:9859   */\n      swap2\n      swap1\n      pop\n      jump\t// out\n        /* \"#utility.yul\":9865:10059   */\n    tag_214:\n        /* \"#utility.yul\":9974:9985   */\n      0x00\n        /* \"#utility.yul\":10008:10014   */\n      dup3\n        /* \"#utility.yul\":10003:10006   */\n      dup3\n        /* \"#utility.yul\":9996:10015   */\n      mstore\n        /* \"#utility.yul\":10048:10052   */\n      0x20\n        /* \"#utility.yul\":10043:10046   */\n      dup3\n        /* \"#utility.yul\":10039:10053   */\n      add\n        /* \"#utility.yul\":10024:10053   */\n      swap1\n      pop\n        /* \"#utility.yul\":9865:10059   */\n      swap3\n      swap2\n      pop\n      pop\n      jump\t// out\n        /* \"#utility.yul\":10065:10207   */\n    tag_215:\n        /* \"#utility.yul\":10142:10146   */\n      0x00\n        /* \"#utility.yul\":10165:10168   */\n      dup2\n        /* \"#utility.yul\":10157:10168   */\n      swap1\n      pop\n        /* \"#utility.yul\":10195:10199   */\n      0x20\n        /* \"#utility.yul\":10190:10193   */\n      dup3\n        /* \"#utility.yul\":10186:10200   */\n      add\n        /* \"#utility.yul\":10178:10200   */\n      swap1\n      pop\n        /* \"#utility.yul\":10065:10207   */\n      swap2\n      swap1\n      pop\n      jump\t// out\n        /* \"#utility.yul\":10213:10372   */\n    tag_216:\n        /* \"#utility.yul\":10287:10298   */\n      0x00\n        /* \"#utility.yul\":10321:10327   */\n      dup3\n        /* \"#utility.yul\":10316:10319   */\n      dup3\n        /* \"#utility.yul\":10309:10328   */\n      mstore\n        /* \"#utility.yul\":10361:10365   */\n      0x20\n        /* \"#utility.yul\":10356:10359   */\n      dup3\n        /* \"#utility.yul\":10352:10366   */\n      add\n        /* \"#utility.yul\":10337:10366   */\n      swap1\n      pop\n        /* \"#utility.yul\":10213:10372   */\n      swap3\n      swap2\n      pop\n      pop\n      jump\t// out\n        /* \"#utility.yul\":10378:10735   */\n    tag_217:\n        /* \"#utility.yul\":10456:10459   */\n      0x00\n        /* \"#utility.yul\":10484:10523   */\n      tag_357\n        /* \"#utility.yul\":10517:10522   */\n      dup3\n        /* \"#utility.yul\":10484:10523   */\n      tag_184\n      jump\t// in\n    tag_357:\n        /* \"#utility.yul\":10539:10600   */\n      tag_358\n        /* \"#utility.yul\":10593:10599   */\n      dup2\n        /* \"#utility.yul\":10588:10591   */\n      dup6\n        /* \"#utility.yul\":10539:10600   */\n      tag_216\n      jump\t// in\n    tag_358:\n        /* \"#utility.yul\":10532:10600   */\n      swap4\n      pop\n        /* \"#utility.yul\":10609:10674   */\n      tag_359\n        /* \"#utility.yul\":10667:10673   */\n      dup2\n        /* \"#utility.yul\":10662:10665   */\n      dup6\n        /* \"#utility.yul\":10655:10659   */\n      0x20\n        /* \"#utility.yul\":10648:10653   */\n      dup7\n        /* \"#utility.yul\":10644:10660   */\n      add\n        /* \"#utility.yul\":10609:10674   */\n      tag_186\n      jump\t// in\n    tag_359:\n        /* \"#utility.yul\":10699:10728   */\n      tag_360\n        /* \"#utility.yul\":10721:10727   */\n      dup2\n        /* \"#utility.yul\":10699:10728   */\n      tag_187\n      jump\t// in\n    tag_360:\n        /* \"#utility.yul\":10694:10697   */\n      dup5\n        /* \"#utility.yul\":10690:10729   */\n      add\n        /* \"#utility.yul\":10683:10729   */\n      swap2\n      pop\n        /* \"#utility.yul\":10460:10735   */\n      pop\n        /* \"#utility.yul\":10378:10735   */\n      swap3\n      swap2\n      pop\n      pop\n      jump\t// out\n        /* \"#utility.yul\":10741:10937   */\n    tag_218:\n        /* \"#utility.yul\":10830:10840   */\n      0x00\n        /* \"#utility.yul\":10865:10931   */\n      tag_362\n        /* \"#utility.yul\":10927:10930   */\n      dup4\n        /* \"#utility.yul\":10919:10925   */\n      dup4\n        /* \"#utility.yul\":10865:10931   */\n      tag_217\n      jump\t// in\n    tag_362:\n        /* \"#utility.yul\":10851:10931   */\n      swap1\n      pop\n        /* \"#utility.yul\":10741:10937   */\n      swap3\n      swap2\n      pop\n      pop\n      jump\t// out\n        /* \"#utility.yul\":10943:11066   */\n    tag_219:\n        /* \"#utility.yul\":11023:11027   */\n      0x00\n        /* \"#utility.yul\":11055:11059   */\n      0x20\n        /* \"#utility.yul\":11050:11053   */\n      dup3\n        /* \"#utility.yul\":11046:11060   */\n      add\n        /* \"#utility.yul\":11038:11060   */\n      swap1\n      pop\n        /* \"#utility.yul\":10943:11066   */\n      swap2\n      swap1\n      pop\n      jump\t// out\n        /* \"#utility.yul\":11100:12091   */\n    tag_220:\n        /* \"#utility.yul\":11239:11242   */\n      0x00\n        /* \"#utility.yul\":11268:11332   */\n      tag_365\n        /* \"#utility.yul\":11326:11331   */\n      dup3\n        /* \"#utility.yul\":11268:11332   */\n      tag_213\n      jump\t// in\n    tag_365:\n        /* \"#utility.yul\":11348:11444   */\n      tag_366\n        /* \"#utility.yul\":11437:11443   */\n      dup2\n        /* \"#utility.yul\":11432:11435   */\n      dup6\n        /* \"#utility.yul\":11348:11444   */\n      tag_214\n      jump\t// in\n    tag_366:\n        /* \"#utility.yul\":11341:11444   */\n      swap4\n      pop\n        /* \"#utility.yul\":11470:11473   */\n      dup4\n        /* \"#utility.yul\":11515:11519   */\n      0x20\n        /* \"#utility.yul\":11507:11513   */\n      dup3\n        /* \"#utility.yul\":11503:11520   */\n      mul\n        /* \"#utility.yul\":11498:11501   */\n      dup6\n        /* \"#utility.yul\":11494:11521   */\n      add\n        /* \"#utility.yul\":11545:11611   */\n      tag_367\n        /* \"#utility.yul\":11605:11610   */\n      dup6\n        /* \"#utility.yul\":11545:11611   */\n      tag_215\n      jump\t// in\n    tag_367:\n        /* \"#utility.yul\":11634:11641   */\n      dup1\n        /* \"#utility.yul\":11665:11666   */\n      0x00\n        /* \"#utility.yul\":11650:12046   */\n    tag_368:\n        /* \"#utility.yul\":11675:11681   */\n      dup6\n        /* \"#utility.yul\":11672:11673   */\n      dup2\n        /* \"#utility.yul\":11669:11682   */\n      lt\n        /* \"#utility.yul\":11650:12046   */\n      iszero\n      tag_370\n      jumpi\n        /* \"#utility.yul\":11746:11755   */\n      dup5\n        /* \"#utility.yul\":11740:11744   */\n      dup5\n        /* \"#utility.yul\":11736:11756   */\n      sub\n        /* \"#utility.yul\":11731:11734   */\n      dup10\n        /* \"#utility.yul\":11724:11757   */\n      mstore\n        /* \"#utility.yul\":11797:11803   */\n      dup2\n        /* \"#utility.yul\":11791:11804   */\n      mload\n        /* \"#utility.yul\":11825:11909   */\n      tag_371\n        /* \"#utility.yul\":11904:11908   */\n      dup6\n        /* \"#utility.yul\":11889:11902   */\n      dup3\n        /* \"#utility.yul\":11825:11909   */\n      tag_218\n      jump\t// in\n    tag_371:\n        /* \"#utility.yul\":11817:11909   */\n      swap5\n      pop\n        /* \"#utility.yul\":11932:12002   */\n      tag_372\n        /* \"#utility.yul\":11995:12001   */\n      dup4\n        /* \"#utility.yul\":11932:12002   */\n      tag_219\n      jump\t// in\n    tag_372:\n        /* \"#utility.yul\":11922:12002   */\n      swap3\n      pop\n        /* \"#utility.yul\":12031:12035   */\n      0x20\n        /* \"#utility.yul\":12026:12029   */\n      dup11\n        /* \"#utility.yul\":12022:12036   */\n      add\n        /* \"#utility.yul\":12015:12036   */\n      swap10\n      pop\n        /* \"#utility.yul\":11710:12046   */\n      pop\n        /* \"#utility.yul\":11697:11698   */\n      0x01\n        /* \"#utility.yul\":11694:11695   */\n      dup2\n        /* \"#utility.yul\":11690:11699   */\n      add\n        /* \"#utility.yul\":11685:11699   */\n      swap1\n      pop\n        /* \"#utility.yul\":11650:12046   */\n      jump(tag_368)\n    tag_370:\n        /* \"#utility.yul\":11654:11668   */\n      pop\n        /* \"#utility.yul\":12062:12066   */\n      dup3\n        /* \"#utility.yul\":12055:12066   */\n      swap8\n      pop\n        /* \"#utility.yul\":12082:12085   */\n      dup8\n        /* \"#utility.yul\":12075:12085   */\n      swap6\n      pop\n        /* \"#utility.yul\":11244:12091   */\n      pop\n      pop\n      pop\n      pop\n      pop\n        /* \"#utility.yul\":11100:12091   */\n      swap3\n      swap2\n      pop\n      pop\n      jump\t// out\n        /* \"#utility.yul\":12097:12510   */\n    tag_70:\n        /* \"#utility.yul\":12260:12264   */\n      0x00\n        /* \"#utility.yul\":12298:12300   */\n      0x20\n        /* \"#utility.yul\":12287:12296   */\n      dup3\n        /* \"#utility.yul\":12283:12301   */\n      add\n        /* \"#utility.yul\":12275:12301   */\n      swap1\n      pop\n        /* \"#utility.yul\":12347:12356   */\n      dup2\n        /* \"#utility.yul\":12341:12345   */\n      dup2\n        /* \"#utility.yul\":12337:12357   */\n      sub\n        /* \"#utility.yul\":12333:12334   */\n      0x00\n        /* \"#utility.yul\":12322:12331   */\n      dup4\n        /* \"#utility.yul\":12318:12335   */\n      add\n        /* \"#utility.yul\":12311:12358   */\n      mstore\n        /* \"#utility.yul\":12375:12503   */\n      tag_374\n        /* \"#utility.yul\":12498:12502   */\n      dup2\n        /* \"#utility.yul\":12489:12495   */\n      dup5\n        /* \"#utility.yul\":12375:12503   */\n      tag_220\n      jump\t// in\n    tag_374:\n        /* \"#utility.yul\":12367:12503   */\n      swap1\n      pop\n        /* \"#utility.yul\":12097:12510   */\n      swap3\n      swap2\n      pop\n      pop\n      jump\t// out\n        /* \"#utility.yul\":12516:12696   */\n    tag_221:\n        /* \"#utility.yul\":12564:12641   */\n      0x4e487b7100000000000000000000000000000000000000000000000000000000\n        /* \"#utility.yul\":12561:12562   */\n      0x00\n        /* \"#utility.yul\":12554:12642   */\n      mstore\n        /* \"#utility.yul\":12661:12665   */\n      0x22\n        /* \"#utility.yul\":12658:12659   */\n      0x04\n        /* \"#utility.yul\":12651:12666   */\n      mstore\n        /* \"#utility.yul\":12685:12689   */\n      0x24\n        /* \"#utility.yul\":12682:12683   */\n      0x00\n        /* \"#utility.yul\":12675:12690   */\n      revert\n        /* \"#utility.yul\":12702:13022   */\n    tag_75:\n        /* \"#utility.yul\":12746:12752   */\n      0x00\n        /* \"#utility.yul\":12783:12784   */\n      0x02\n        /* \"#utility.yul\":12777:12781   */\n      dup3\n        /* \"#utility.yul\":12773:12785   */\n      div\n        /* \"#utility.yul\":12763:12785   */\n      swap1\n      pop\n        /* \"#utility.yul\":12830:12831   */\n      0x01\n        /* \"#utility.yul\":12824:12828   */\n      dup3\n        /* \"#utility.yul\":12820:12832   */\n      and\n        /* \"#utility.yul\":12851:12869   */\n      dup1\n        /* \"#utility.yul\":12841:12922   */\n      tag_377\n      jumpi\n        /* \"#utility.yul\":12907:12911   */\n      0x7f\n        /* \"#utility.yul\":12899:12905   */\n      dup3\n        /* \"#utility.yul\":12895:12912   */\n      and\n        /* \"#utility.yul\":12885:12912   */\n      swap2\n      pop\n        /* \"#utility.yul\":12841:12922   */\n    tag_377:\n        /* \"#utility.yul\":12969:12971   */\n      0x20\n        /* \"#utility.yul\":12961:12967   */\n      dup3\n        /* \"#utility.yul\":12958:12972   */\n      lt\n        /* \"#utility.yul\":12938:12956   */\n      dup2\n        /* \"#utility.yul\":12935:12973   */\n      sub\n        /* \"#utility.yul\":12932:13016   */\n      tag_378\n      jumpi\n        /* \"#utility.yul\":12988:13006   */\n      tag_379\n      tag_221\n      jump\t// in\n    tag_379:\n        /* \"#utility.yul\":12932:13016   */\n    tag_378:\n        /* \"#utility.yul\":12753:13022   */\n      pop\n        /* \"#utility.yul\":12702:13022   */\n      swap2\n      swap1\n      pop\n      jump\t// out\n        /* \"#utility.yul\":13028:13208   */\n    tag_222:\n        /* \"#utility.yul\":13168:13200   */\n      0x6f6e6c79206f776e65722063616e207069636b207468652077696e6e65720000\n        /* \"#utility.yul\":13164:13165   */\n      0x00\n        /* \"#utility.yul\":13156:13162   */\n      dup3\n        /* \"#utility.yul\":13152:13166   */\n      add\n        /* \"#utility.yul\":13145:13201   */\n      mstore\n        /* \"#utility.yul\":13028:13208   */\n      pop\n      jump\t// out\n        /* \"#utility.yul\":13214:13580   */\n    tag_223:\n        /* \"#utility.yul\":13356:13359   */\n      0x00\n        /* \"#utility.yul\":13377:13444   */\n      tag_382\n        /* \"#utility.yul\":13441:13443   */\n      0x1e\n        /* \"#utility.yul\":13436:13439   */\n      dup4\n        /* \"#utility.yul\":13377:13444   */\n      tag_185\n      jump\t// in\n    tag_382:\n        /* \"#utility.yul\":13370:13444   */\n      swap2\n      pop\n        /* \"#utility.yul\":13453:13546   */\n      tag_383\n        /* \"#utility.yul\":13542:13545   */\n      dup3\n        /* \"#utility.yul\":13453:13546   */\n      tag_222\n      jump\t// in\n    tag_383:\n        /* \"#utility.yul\":13571:13573   */\n      0x20\n        /* \"#utility.yul\":13566:13569   */\n      dup3\n        /* \"#utility.yul\":13562:13574   */\n      add\n        /* \"#utility.yul\":13555:13574   */\n      swap1\n      pop\n        /* \"#utility.yul\":13214:13580   */\n      swap2\n      swap1\n      pop\n      jump\t// out\n        /* \"#utility.yul\":13586:14005   */\n    tag_83:\n        /* \"#utility.yul\":13752:13756   */\n      0x00\n        /* \"#utility.yul\":13790:13792   */\n      0x20\n        /* \"#utility.yul\":13779:13788   */\n      dup3\n        /* \"#utility.yul\":13775:13793   */\n      add\n        /* \"#utility.yul\":13767:13793   */\n      swap1\n      pop\n        /* \"#utility.yul\":13839:13848   */\n      dup2\n        /* \"#utility.yul\":13833:13837   */\n      dup2\n        /* \"#utility.yul\":13829:13849   */\n      sub\n        /* \"#utility.yul\":13825:13826   */\n      0x00\n        /* \"#utility.yul\":13814:13823   */\n      dup4\n        /* \"#utility.yul\":13810:13827   */\n      add\n        /* \"#utility.yul\":13803:13850   */\n      mstore\n        /* \"#utility.yul\":13867:13998   */\n      tag_385\n        /* \"#utility.yul\":13993:13997   */\n      dup2\n        /* \"#utility.yul\":13867:13998   */\n      tag_223\n      jump\t// in\n    tag_385:\n        /* \"#utility.yul\":13859:13998   */\n      swap1\n      pop\n        /* \"#utility.yul\":13586:14005   */\n      swap2\n      swap1\n      pop\n      jump\t// out\n        /* \"#utility.yul\":14011:14191   */\n    tag_224:\n        /* \"#utility.yul\":14059:14136   */\n      0x4e487b7100000000000000000000000000000000000000000000000000000000\n        /* \"#utility.yul\":14056:14057   */\n      0x00\n        /* \"#utility.yul\":14049:14137   */\n      mstore\n        /* \"#utility.yul\":14156:14160   */\n      0x11\n        /* \"#utility.yul\":14153:14154   */\n      0x04\n        /* \"#utility.yul\":14146:14161   */\n      mstore\n        /* \"#utility.yul\":14180:14184   */\n      0x24\n        /* \"#utility.yul\":14177:14178   */\n      0x00\n        /* \"#utility.yul\":14170:14185   */\n      revert\n        /* \"#utility.yul\":14197:14391   */\n    tag_87:\n        /* \"#utility.yul\":14237:14241   */\n      0x00\n        /* \"#utility.yul\":14257:14277   */\n      tag_388\n        /* \"#utility.yul\":14275:14276   */\n      dup3\n        /* \"#utility.yul\":14257:14277   */\n      tag_201\n      jump\t// in\n    tag_388:\n        /* \"#utility.yul\":14252:14277   */\n      swap2\n      pop\n        /* \"#utility.yul\":14291:14311   */\n      tag_389\n        /* \"#utility.yul\":14309:14310   */\n      dup4\n        /* \"#utility.yul\":14291:14311   */\n      tag_201\n      jump\t// in\n    tag_389:\n        /* \"#utility.yul\":14286:14311   */\n      swap3\n      pop\n        /* \"#utility.yul\":14335:14336   */\n      dup3\n        /* \"#utility.yul\":14332:14333   */\n      dup3\n        /* \"#utility.yul\":14328:14337   */\n      sub\n        /* \"#utility.yul\":14320:14337   */\n      swap1\n      pop\n        /* \"#utility.yul\":14359:14360   */\n      dup2\n        /* \"#utility.yul\":14353:14357   */\n      dup2\n        /* \"#utility.yul\":14350:14361   */\n      gt\n        /* \"#utility.yul\":14347:14384   */\n      iszero\n      tag_390\n      jumpi\n        /* \"#utility.yul\":14364:14382   */\n      tag_391\n      tag_224\n      jump\t// in\n    tag_391:\n        /* \"#utility.yul\":14347:14384   */\n    tag_390:\n        /* \"#utility.yul\":14197:14391   */\n      swap3\n      swap2\n      pop\n      pop\n      jump\t// out\n        /* \"#utility.yul\":14397:14577   */\n    tag_90:\n        /* \"#utility.yul\":14445:14522   */\n      0x4e487b7100000000000000000000000000000000000000000000000000000000\n        /* \"#utility.yul\":14442:14443   */\n      0x00\n        /* \"#utility.yul\":14435:14523   */\n      mstore\n        /* \"#utility.yul\":14542:14546   */\n      0x32\n        /* \"#utility.yul\":14539:14540   */\n      0x04\n        /* \"#utility.yul\":14532:14547   */\n      mstore\n        /* \"#utility.yul\":14566:14570   */\n      0x24\n        /* \"#utility.yul\":14563:14564   */\n      0x00\n        /* \"#utility.yul\":14556:14571   */\n      revert\n        /* \"#utility.yul\":14583:14763   */\n    tag_97:\n        /* \"#utility.yul\":14631:14708   */\n      0x4e487b7100000000000000000000000000000000000000000000000000000000\n        /* \"#utility.yul\":14628:14629   */\n      0x00\n        /* \"#utility.yul\":14621:14709   */\n      mstore\n        /* \"#utility.yul\":14728:14732   */\n      0x31\n        /* \"#utility.yul\":14725:14726   */\n      0x04\n        /* \"#utility.yul\":14718:14733   */\n      mstore\n        /* \"#utility.yul\":14752:14756   */\n      0x24\n        /* \"#utility.yul\":14749:14750   */\n      0x00\n        /* \"#utility.yul\":14742:14757   */\n      revert\n        /* \"#utility.yul\":14769:15002   */\n    tag_111:\n        /* \"#utility.yul\":14808:14811   */\n      0x00\n        /* \"#utility.yul\":14831:14855   */\n      tag_395\n        /* \"#utility.yul\":14849:14854   */\n      dup3\n        /* \"#utility.yul\":14831:14855   */\n      tag_201\n      jump\t// in\n    tag_395:\n        /* \"#utility.yul\":14822:14855   */\n      swap2\n      pop\n        /* \"#utility.yul\":14877:14943   */\n      0xffffffffffffffffffffffffffffffffffffffffffffffffffffffffffffffff\n        /* \"#utility.yul\":14870:14875   */\n      dup3\n        /* \"#utility.yul\":14867:14944   */\n      sub\n        /* \"#utility.yul\":14864:14967   */\n      tag_396\n      jumpi\n        /* \"#utility.yul\":14947:14965   */\n      tag_397\n      tag_224\n      jump\t// in\n    tag_397:\n        /* \"#utility.yul\":14864:14967   */\n    tag_396:\n        /* \"#utility.yul\":14994:14995   */\n      0x01\n        /* \"#utility.yul\":14987:14992   */\n      dup3\n        /* \"#utility.yul\":14983:14996   */\n      add\n        /* \"#utility.yul\":14976:14996   */\n      swap1\n      pop\n        /* \"#utility.yul\":14769:15002   */\n      swap2\n      swap1\n      pop\n      jump\t// out\n        /* \"#utility.yul\":15008:15161   */\n    tag_225:\n        /* \"#utility.yul\":15061:15067   */\n      0x00\n        /* \"#utility.yul\":15095:15100   */\n      dup2\n        /* \"#utility.yul\":15089:15101   */\n      sload\n        /* \"#utility.yul\":15079:15101   */\n      swap1\n      pop\n        /* \"#utility.yul\":15121:15154   */\n      tag_399\n        /* \"#utility.yul\":15147:15153   */\n      dup2\n        /* \"#utility.yul\":15121:15154   */\n      tag_75\n      jump\t// in\n    tag_399:\n        /* \"#utility.yul\":15111:15154   */\n      swap1\n      pop\n        /* \"#utility.yul\":15008:15161   */\n      swap2\n      swap1\n      pop\n      jump\t// out\n        /* \"#utility.yul\":15167:15308   */\n    tag_226:\n        /* \"#utility.yul\":15216:15220   */\n      0x00\n        /* \"#utility.yul\":15239:15242   */\n      dup2\n        /* \"#utility.yul\":15231:15242   */\n      swap1\n      pop\n        /* \"#utility.yul\":15262:15265   */\n      dup2\n        /* \"#utility.yul\":15259:15260   */\n      0x00\n        /* \"#utility.yul\":15252:15266   */\n      mstore\n        /* \"#utility.yul\":15296:15300   */\n      0x20\n        /* \"#utility.yul\":15293:15294   */\n      0x00\n        /* \"#utility.yul\":15283:15301   */\n      keccak256\n        /* \"#utility.yul\":15275:15301   */\n      swap1\n      pop\n        /* \"#utility.yul\":15167:15308   */\n      swap2\n      swap1\n      pop\n      jump\t// out\n        /* \"#utility.yul\":15314:15459   */\n    tag_227:\n        /* \"#utility.yul\":15367:15371   */\n      0x00\n        /* \"#utility.yul\":15390:15393   */\n      dup2\n        /* \"#utility.yul\":15382:15393   */\n      swap1\n      pop\n        /* \"#utility.yul\":15413:15416   */\n      dup2\n        /* \"#utility.yul\":15410:15411   */\n      0x00\n        /* \"#utility.yul\":15403:15417   */\n      mstore\n        /* \"#utility.yul\":15447:15451   */\n      0x20\n        /* \"#utility.yul\":15444:15445   */\n      0x00\n        /* \"#utility.yul\":15434:15452   */\n      keccak256\n        /* \"#utility.yul\":15426:15452   */\n      swap1\n      pop\n        /* \"#utility.yul\":15314:15459   */\n      swap2\n      swap1\n      pop\n      jump\t// out\n        /* \"#utility.yul\":15465:15558   */\n    tag_228:\n        /* \"#utility.yul\":15502:15508   */\n      0x00\n        /* \"#utility.yul\":15549:15551   */\n      0x20\n        /* \"#utility.yul\":15544:15546   */\n      0x1f\n        /* \"#utility.yul\":15537:15542   */\n      dup4\n        /* \"#utility.yul\":15533:15547   */\n      add\n        /* \"#utility.yul\":15529:15552   */\n      div\n        /* \"#utility.yul\":15519:15552   */\n      swap1\n      pop\n        /* \"#utility.yul\":15465:15558   */\n      swap2\n      swap1\n      pop\n      jump\t// out\n        /* \"#utility.yul\":15564:15671   */\n    tag_229:\n        /* \"#utility.yul\":15608:15616   */\n      0x00\n        /* \"#utility.yul\":15658:15663   */\n      dup3\n        /* \"#utility.yul\":15652:15656   */\n      dup3\n        /* \"#utility.yul\":15648:15664   */\n      shl\n        /* \"#utility.yul\":15627:15664   */\n      swap1\n      pop\n        /* \"#utility.yul\":15564:15671   */\n      swap3\n      swap2\n      pop\n      pop\n      jump\t// out\n        /* \"#utility.yul\":15677:16070   */\n    tag_230:\n        /* \"#utility.yul\":15746:15752   */\n      0x00\n        /* \"#utility.yul\":15796:15797   */\n      0x08\n        /* \"#utility.yul\":15784:15794   */\n      dup4\n        /* \"#utility.yul\":15780:15798   */\n      mul\n        /* \"#utility.yul\":15819:15916   */\n      tag_405\n        /* \"#utility.yul\":15849:15915   */\n      0xffffffffffffffffffffffffffffffffffffffffffffffffffffffffffffffff\n        /* \"#utility.yul\":15838:15847   */\n      dup3\n        /* \"#utility.yul\":15819:15916   */\n      tag_229\n      jump\t// in\n    tag_405:\n        /* \"#utility.yul\":15937:15976   */\n      tag_406\n        /* \"#utility.yul\":15967:15975   */\n      dup7\n        /* \"#utility.yul\":15956:15965   */\n      dup4\n        /* \"#utility.yul\":15937:15976   */\n      tag_229\n      jump\t// in\n    tag_406:\n        /* \"#utility.yul\":15925:15976   */\n      swap6\n      pop\n        /* \"#utility.yul\":16009:16013   */\n      dup1\n        /* \"#utility.yul\":16005:16014   */\n      not\n        /* \"#utility.yul\":15998:16003   */\n      dup5\n        /* \"#utility.yul\":15994:16015   */\n      and\n        /* \"#utility.yul\":15985:16015   */\n      swap4\n      pop\n        /* \"#utility.yul\":16058:16062   */\n      dup1\n        /* \"#utility.yul\":16048:16056   */\n      dup7\n        /* \"#utility.yul\":16044:16063   */\n      and\n        /* \"#utility.yul\":16037:16042   */\n      dup5\n        /* \"#utility.yul\":16034:16064   */\n      or\n        /* \"#utility.yul\":16024:16064   */\n      swap3\n      pop\n        /* \"#utility.yul\":15753:16070   */\n      pop\n      pop\n        /* \"#utility.yul\":15677:16070   */\n      swap4\n      swap3\n      pop\n      pop\n      pop\n      jump\t// out\n        /* \"#utility.yul\":16076:16136   */\n    tag_231:\n        /* \"#utility.yul\":16104:16107   */\n      0x00\n        /* \"#utility.yul\":16125:16130   */\n      dup2\n        /* \"#utility.yul\":16118:16130   */\n      swap1\n      pop\n        /* \"#utility.yul\":16076:16136   */\n      swap2\n      swap1\n      pop\n      jump\t// out\n        /* \"#utility.yul\":16142:16284   */\n    tag_232:\n        /* \"#utility.yul\":16192:16201   */\n      0x00\n        /* \"#utility.yul\":16225:16278   */\n      tag_409\n        /* \"#utility.yul\":16243:16277   */\n      tag_410\n        /* \"#utility.yul\":16252:16276   */\n      tag_411\n        /* \"#utility.yul\":16270:16275   */\n      dup5\n        /* \"#utility.yul\":16252:16276   */\n      tag_201\n      jump\t// in\n    tag_411:\n        /* \"#utility.yul\":16243:16277   */\n      tag_231\n      jump\t// in\n    tag_410:\n        /* \"#utility.yul\":16225:16278   */\n      tag_201\n      jump\t// in\n    tag_409:\n        /* \"#utility.yul\":16212:16278   */\n      swap1\n      pop\n        /* \"#utility.yul\":16142:16284   */\n      swap2\n      swap1\n      pop\n      jump\t// out\n        /* \"#utility.yul\":16290:16365   */\n    tag_233:\n        /* \"#utility.yul\":16333:16336   */\n      0x00\n        /* \"#utility.yul\":16354:16359   */\n      dup2\n        /* \"#utility.yul\":16347:16359   */\n      swap1\n      pop\n        /* \"#utility.yul\":16290:16365   */\n      swap2\n      swap1\n      pop\n      jump\t// out\n        /* \"#utility.yul\":16371:16640   */\n    tag_234:\n        /* \"#utility.yul\":16481:16520   */\n      tag_414\n        /* \"#utility.yul\":16512:16519   */\n      dup4\n        /* \"#utility.yul\":16481:16520   */\n      tag_232\n      jump\t// in\n    tag_414:\n        /* \"#utility.yul\":16542:16633   */\n      tag_415\n        /* \"#utility.yul\":16591:16632   */\n      tag_416\n        /* \"#utility.yul\":16615:16631   */\n      dup3\n        /* \"#utility.yul\":16591:16632   */\n      tag_233\n      jump\t// in\n    tag_416:\n        /* \"#utility.yul\":16583:16589   */\n      dup5\n        /* \"#utility.yul\":16576:16580   */\n      dup5\n        /* \"#utility.yul\":16570:16581   */\n      sload\n        /* \"#utility.yul\":16542:16633   */\n      tag_230\n      jump\t// in\n    tag_415:\n        /* \"#utility.yul\":16536:16540   */\n      dup3\n        /* \"#utility.yul\":16529:16634   */\n      sstore\n        /* \"#utility.yul\":16447:16640   */\n      pop\n        /* \"#utility.yul\":16371:16640   */\n      pop\n      pop\n      pop\n      jump\t// out\n        /* \"#utility.yul\":16646:16719   */\n    tag_235:\n        /* \"#utility.yul\":16691:16694   */\n      0x00\n        /* \"#utility.yul\":16646:16719   */\n      swap1\n      jump\t// out\n        /* \"#utility.yul\":16725:16914   */\n    tag_236:\n        /* \"#utility.yul\":16802:16834   */\n      tag_419\n      tag_235\n      jump\t// in\n    tag_419:\n        /* \"#utility.yul\":16843:16908   */\n      tag_420\n        /* \"#utility.yul\":16901:16907   */\n      dup2\n        /* \"#utility.yul\":16893:16899   */\n      dup5\n        /* \"#utility.yul\":16887:16891   */\n      dup5\n        /* \"#utility.yul\":16843:16908   */\n      tag_234\n      jump\t// in\n    tag_420:\n        /* \"#utility.yul\":16778:16914   */\n      pop\n        /* \"#utility.yul\":16725:16914   */\n      pop\n      pop\n      jump\t// out\n        /* \"#utility.yul\":16920:17106   */\n    tag_237:\n        /* \"#utility.yul\":16980:17100   */\n    tag_422:\n        /* \"#utility.yul\":16997:17000   */\n      dup2\n        /* \"#utility.yul\":16990:16995   */\n      dup2\n        /* \"#utility.yul\":16987:17001   */\n      lt\n        /* \"#utility.yul\":16980:17100   */\n      iszero\n      tag_424\n      jumpi\n        /* \"#utility.yul\":17051:17090   */\n      tag_425\n        /* \"#utility.yul\":17088:17089   */\n      0x00\n        /* \"#utility.yul\":17081:17086   */\n      dup3\n        /* \"#utility.yul\":17051:17090   */\n      tag_236\n      jump\t// in\n    tag_425:\n        /* \"#utility.yul\":17024:17025   */\n      0x01\n        /* \"#utility.yul\":17017:17022   */\n      dup2\n        /* \"#utility.yul\":17013:17026   */\n      add\n        /* \"#utility.yul\":17004:17026   */\n      swap1\n      pop\n        /* \"#utility.yul\":16980:17100   */\n      jump(tag_422)\n    tag_424:\n        /* \"#utility.yul\":16920:17106   */\n      pop\n      pop\n      jump\t// out\n        /* \"#utility.yul\":17112:17655   */\n    tag_238:\n        /* \"#utility.yul\":17213:17215   */\n      0x1f\n        /* \"#utility.yul\":17208:17211   */\n      dup3\n        /* \"#utility.yul\":17205:17216   */\n      gt\n        /* \"#utility.yul\":17202:17648   */\n      iszero\n      tag_427\n      jumpi\n        /* \"#utility.yul\":17247:17285   */\n      tag_428\n        /* \"#utility.yul\":17279:17284   */\n      dup2\n        /* \"#utility.yul\":17247:17285   */\n      tag_226\n      jump\t// in\n    tag_428:\n        /* \"#utility.yul\":17331:17360   */\n      tag_429\n        /* \"#utility.yul\":17349:17359   */\n      dup5\n        /* \"#utility.yul\":17331:17360   */\n      tag_228\n      jump\t// in\n    tag_429:\n        /* \"#utility.yul\":17321:17329   */\n      dup2\n        /* \"#utility.yul\":17317:17361   */\n      add\n        /* \"#utility.yul\":17514:17516   */\n      0x20\n        /* \"#utility.yul\":17502:17512   */\n      dup6\n        /* \"#utility.yul\":17499:17517   */\n      lt\n        /* \"#utility.yul\":17496:17545   */\n      iszero\n      tag_430\n      jumpi\n        /* \"#utility.yul\":17535:17543   */\n      dup2\n        /* \"#utility.yul\":17520:17543   */\n      swap1\n      pop\n        /* \"#utility.yul\":17496:17545   */\n    tag_430:\n        /* \"#utility.yul\":17558:17638   */\n      tag_431\n        /* \"#utility.yul\":17614:17636   */\n      tag_432\n        /* \"#utility.yul\":17632:17635   */\n      dup6\n        /* \"#utility.yul\":17614:17636   */\n      tag_228\n      jump\t// in\n    tag_432:\n        /* \"#utility.yul\":17604:17612   */\n      dup4\n        /* \"#utility.yul\":17600:17637   */\n      add\n        /* \"#utility.yul\":17587:17598   */\n      dup3\n        /* \"#utility.yul\":17558:17638   */\n      tag_237\n      jump\t// in\n    tag_431:\n        /* \"#utility.yul\":17217:17648   */\n      pop\n      pop\n        /* \"#utility.yul\":17202:17648   */\n    tag_427:\n        /* \"#utility.yul\":17112:17655   */\n      pop\n      pop\n      pop\n      jump\t// out\n        /* \"#utility.yul\":17661:17778   */\n    tag_239:\n        /* \"#utility.yul\":17715:17723   */\n      0x00\n        /* \"#utility.yul\":17765:17770   */\n      dup3\n        /* \"#utility.yul\":17759:17763   */\n      dup3\n        /* \"#utility.yul\":17755:17771   */\n      shr\n        /* \"#utility.yul\":17734:17771   */\n      swap1\n      pop\n        /* \"#utility.yul\":17661:17778   */\n      swap3\n      swap2\n      pop\n      pop\n      jump\t// out\n        /* \"#utility.yul\":17784:17953   */\n    tag_240:\n        /* \"#utility.yul\":17828:17834   */\n      0x00\n        /* \"#utility.yul\":17861:17912   */\n      tag_435\n        /* \"#utility.yul\":17909:17910   */\n      0x00\n        /* \"#utility.yul\":17905:17911   */\n      not\n        /* \"#utility.yul\":17897:17902   */\n      dup5\n        /* \"#utility.yul\":17894:17895   */\n      0x08\n        /* \"#utility.yul\":17890:17903   */\n      mul\n        /* \"#utility.yul\":17861:17912   */\n      tag_239\n      jump\t// in\n    tag_435:\n        /* \"#utility.yul\":17857:17913   */\n      not\n        /* \"#utility.yul\":17942:17946   */\n      dup1\n        /* \"#utility.yul\":17936:17940   */\n      dup4\n        /* \"#utility.yul\":17932:17947   */\n      and\n        /* \"#utility.yul\":17922:17947   */\n      swap2\n      pop\n        /* \"#utility.yul\":17835:17953   */\n      pop\n        /* \"#utility.yul\":17784:17953   */\n      swap3\n      swap2\n      pop\n      pop\n      jump\t// out\n        /* \"#utility.yul\":17958:18253   */\n    tag_241:\n        /* \"#utility.yul\":18034:18038   */\n      0x00\n        /* \"#utility.yul\":18180:18209   */\n      tag_437\n        /* \"#utility.yul\":18205:18208   */\n      dup4\n        /* \"#utility.yul\":18199:18203   */\n      dup4\n        /* \"#utility.yul\":18180:18209   */\n      tag_240\n      jump\t// in\n    tag_437:\n        /* \"#utility.yul\":18172:18209   */\n      swap2\n      pop\n        /* \"#utility.yul\":18242:18245   */\n      dup3\n        /* \"#utility.yul\":18239:18240   */\n      0x02\n        /* \"#utility.yul\":18235:18246   */\n      mul\n        /* \"#utility.yul\":18229:18233   */\n      dup3\n        /* \"#utility.yul\":18226:18247   */\n      or\n        /* \"#utility.yul\":18218:18247   */\n      swap1\n      pop\n        /* \"#utility.yul\":17958:18253   */\n      swap3\n      swap2\n      pop\n      pop\n      jump\t// out\n        /* \"#utility.yul\":18258:19721   */\n    tag_163:\n        /* \"#utility.yul\":18373:18376   */\n      dup2\n        /* \"#utility.yul\":18367:18371   */\n      dup2\n        /* \"#utility.yul\":18364:18377   */\n      sub\n        /* \"#utility.yul\":18361:18387   */\n      tag_439\n      jumpi\n        /* \"#utility.yul\":18380:18385   */\n      pop\n      pop\n      jump(tag_438)\n        /* \"#utility.yul\":18361:18387   */\n    tag_439:\n        /* \"#utility.yul\":18411:18449   */\n      tag_440\n        /* \"#utility.yul\":18445:18448   */\n      dup3\n        /* \"#utility.yul\":18411:18449   */\n      tag_225\n      jump\t// in\n    tag_440:\n        /* \"#utility.yul\":18514:18532   */\n      0xffffffffffffffff\n        /* \"#utility.yul\":18506:18512   */\n      dup2\n        /* \"#utility.yul\":18503:18533   */\n      gt\n        /* \"#utility.yul\":18500:18556   */\n      iszero\n      tag_441\n      jumpi\n        /* \"#utility.yul\":18536:18554   */\n      tag_442\n      tag_194\n      jump\t// in\n    tag_442:\n        /* \"#utility.yul\":18500:18556   */\n    tag_441:\n        /* \"#utility.yul\":18580:18618   */\n      tag_443\n        /* \"#utility.yul\":18612:18616   */\n      dup3\n        /* \"#utility.yul\":18606:18617   */\n      sload\n        /* \"#utility.yul\":18580:18618   */\n      tag_75\n      jump\t// in\n    tag_443:\n        /* \"#utility.yul\":18665:18732   */\n      tag_444\n        /* \"#utility.yul\":18725:18731   */\n      dup3\n        /* \"#utility.yul\":18717:18723   */\n      dup3\n        /* \"#utility.yul\":18711:18715   */\n      dup6\n        /* \"#utility.yul\":18665:18732   */\n      tag_238\n      jump\t// in\n    tag_444:\n        /* \"#utility.yul\":18759:18760   */\n      0x00\n        /* \"#utility.yul\":18788:18790   */\n      0x1f\n        /* \"#utility.yul\":18780:18786   */\n      dup4\n        /* \"#utility.yul\":18777:18791   */\n      gt\n        /* \"#utility.yul\":18805:18806   */\n      0x01\n        /* \"#utility.yul\":18800:19476   */\n      dup2\n      eq\n      tag_446\n      jumpi\n        /* \"#utility.yul\":19520:19521   */\n      0x00\n        /* \"#utility.yul\":19537:19543   */\n      dup5\n        /* \"#utility.yul\":19534:19611   */\n      iszero\n      tag_447\n      jumpi\n        /* \"#utility.yul\":19586:19595   */\n      dup3\n        /* \"#utility.yul\":19581:19584   */\n      dup8\n        /* \"#utility.yul\":19577:19596   */\n      add\n        /* \"#utility.yul\":19571:19597   */\n      sload\n        /* \"#utility.yul\":19562:19597   */\n      swap1\n      pop\n        /* \"#utility.yul\":19534:19611   */\n    tag_447:\n        /* \"#utility.yul\":19637:19704   */\n      tag_448\n        /* \"#utility.yul\":19697:19703   */\n      dup6\n        /* \"#utility.yul\":19690:19695   */\n      dup3\n        /* \"#utility.yul\":19637:19704   */\n      tag_241\n      jump\t// in\n    tag_448:\n        /* \"#utility.yul\":19631:19635   */\n      dup7\n        /* \"#utility.yul\":19624:19705   */\n      sstore\n        /* \"#utility.yul\":19493:19715   */\n      pop\n        /* \"#utility.yul\":18770:19715   */\n      jump(tag_445)\n        /* \"#utility.yul\":18800:19476   */\n    tag_446:\n        /* \"#utility.yul\":18852:18856   */\n      0x1f\n        /* \"#utility.yul\":18848:18857   */\n      not\n        /* \"#utility.yul\":18840:18846   */\n      dup5\n        /* \"#utility.yul\":18836:18858   */\n      and\n        /* \"#utility.yul\":18878:18918   */\n      tag_449\n        /* \"#utility.yul\":18914:18917   */\n      dup8\n        /* \"#utility.yul\":18878:18918   */\n      tag_227\n      jump\t// in\n    tag_449:\n        /* \"#utility.yul\":18871:18918   */\n      swap7\n      pop\n        /* \"#utility.yul\":18945:18982   */\n      tag_450\n        /* \"#utility.yul\":18977:18981   */\n      dup7\n        /* \"#utility.yul\":18945:18982   */\n      tag_226\n      jump\t// in\n    tag_450:\n        /* \"#utility.yul\":19004:19005   */\n      0x00\n        /* \"#utility.yul\":19018:19225   */\n    tag_451:\n        /* \"#utility.yul\":19032:19039   */\n      dup3\n        /* \"#utility.yul\":19029:19030   */\n      dup2\n        /* \"#utility.yul\":19026:19040   */\n      lt\n        /* \"#utility.yul\":19018:19225   */\n      iszero\n      tag_453\n      jumpi\n        /* \"#utility.yul\":19111:19120   */\n      dup5\n        /* \"#utility.yul\":19106:19109   */\n      dup10\n        /* \"#utility.yul\":19102:19121   */\n      add\n        /* \"#utility.yul\":19096:19122   */\n      sload\n        /* \"#utility.yul\":19088:19094   */\n      dup3\n        /* \"#utility.yul\":19081:19123   */\n      sstore\n        /* \"#utility.yul\":19162:19163   */\n      0x01\n        /* \"#utility.yul\":19154:19160   */\n      dup3\n        /* \"#utility.yul\":19150:19164   */\n      add\n        /* \"#utility.yul\":19140:19164   */\n      swap2\n      pop\n        /* \"#utility.yul\":19209:19210   */\n      0x01\n        /* \"#utility.yul\":19198:19207   */\n      dup6\n        /* \"#utility.yul\":19194:19211   */\n      add\n        /* \"#utility.yul\":19181:19211   */\n      swap5\n      pop\n        /* \"#utility.yul\":19055:19059   */\n      0x20\n        /* \"#utility.yul\":19052:19053   */\n      dup2\n        /* \"#utility.yul\":19048:19060   */\n      add\n        /* \"#utility.yul\":19043:19060   */\n      swap1\n      pop\n        /* \"#utility.yul\":19018:19225   */\n      jump(tag_451)\n    tag_453:\n        /* \"#utility.yul\":19253:19259   */\n      dup7\n        /* \"#utility.yul\":19244:19251   */\n      dup4\n        /* \"#utility.yul\":19241:19260   */\n      lt\n        /* \"#utility.yul\":19238:19417   */\n      iszero\n      tag_454\n      jumpi\n        /* \"#utility.yul\":19311:19320   */\n      dup5\n        /* \"#utility.yul\":19306:19309   */\n      dup10\n        /* \"#utility.yul\":19302:19321   */\n      add\n        /* \"#utility.yul\":19296:19322   */\n      sload\n        /* \"#utility.yul\":19354:19402   */\n      tag_455\n        /* \"#utility.yul\":19396:19400   */\n      0x1f\n        /* \"#utility.yul\":19388:19394   */\n      dup10\n        /* \"#utility.yul\":19384:19401   */\n      and\n        /* \"#utility.yul\":19373:19382   */\n      dup3\n        /* \"#utility.yul\":19354:19402   */\n      tag_240\n      jump\t// in\n    tag_455:\n        /* \"#utility.yul\":19346:19352   */\n      dup4\n        /* \"#utility.yul\":19339:19403   */\n      sstore\n        /* \"#utility.yul\":19261:19417   */\n      pop\n        /* \"#utility.yul\":19238:19417   */\n    tag_454:\n        /* \"#utility.yul\":19463:19464   */\n      0x01\n        /* \"#utility.yul\":19459:19460   */\n      0x02\n        /* \"#utility.yul\":19451:19457   */\n      dup9\n        /* \"#utility.yul\":19447:19461   */\n      mul\n        /* \"#utility.yul\":19443:19465   */\n      add\n        /* \"#utility.yul\":19437:19441   */\n      dup9\n        /* \"#utility.yul\":19430:19466   */\n      sstore\n        /* \"#utility.yul\":18807:19476   */\n      pop\n      pop\n      pop\n        /* \"#utility.yul\":18770:19715   */\n    tag_445:\n      pop\n        /* \"#utility.yul\":18351:19721   */\n      pop\n      pop\n      pop\n        /* \"#utility.yul\":18258:19721   */\n      pop\n      pop\n    tag_438:\n      jump\t// out\n\n    auxdata: 0xa26469706673582212203356ef55d2da924c8dd69969d260a335d2a16ce5cc4397024ad1478788e7752d64736f6c63430008110033\n}\n",
				"bytecode": {
					"linkReferences": {},
					"object": "60806040523480156200001157600080fd5b50336000806101000a81548173ffffffffffffffffffffffffffffffffffffffff021916908373ffffffffffffffffffffffffffffffffffffffff16021790555060405180606001604052806040518060400160405280600881526020017f646573637269626500000000000000000000000000000000000000000000000081525081526020016040518060400160405280600681526020017f616374696f6e000000000000000000000000000000000000000000000000000081525081526020016040518060400160405280600481526020017f646566790000000000000000000000000000000000000000000000000000000081525081525060029060036200011e92919062000125565b5062000573565b82805482825590600052602060002090810192821562000172579160200282015b82811115620001715782518290816200016091906200048c565b509160200191906001019062000146565b5b50905062000181919062000185565b5090565b5b80821115620001a957600081816200019f9190620001ad565b5060010162000186565b5090565b508054620001bb906200027b565b6000825580601f10620001cf5750620001f0565b601f016020900490600052602060002090810190620001ef9190620001f3565b5b50565b5b808211156200020e576000816000905550600101620001f4565b5090565b600081519050919050565b7f4e487b7100000000000000000000000000000000000000000000000000000000600052604160045260246000fd5b7f4e487b7100000000000000000000000000000000000000000000000000000000600052602260045260246000fd5b600060028204905060018216806200029457607f821691505b602082108103620002aa57620002a96200024c565b5b50919050565b60008190508160005260206000209050919050565b60006020601f8301049050919050565b600082821b905092915050565b600060088302620003147fffffffffffffffffffffffffffffffffffffffffffffffffffffffffffffffff82620002d5565b620003208683620002d5565b95508019841693508086168417925050509392505050565b6000819050919050565b6000819050919050565b60006200036d62000367620003618462000338565b62000342565b62000338565b9050919050565b6000819050919050565b62000389836200034c565b620003a1620003988262000374565b848454620002e2565b825550505050565b600090565b620003b8620003a9565b620003c58184846200037e565b505050565b5b81811015620003ed57620003e1600082620003ae565b600181019050620003cb565b5050565b601f8211156200043c576200040681620002b0565b6200041184620002c5565b8101602085101562000421578190505b620004396200043085620002c5565b830182620003ca565b50505b505050565b600082821c905092915050565b6000620004616000198460080262000441565b1980831691505092915050565b60006200047c83836200044e565b9150826002028217905092915050565b620004978262000212565b67ffffffffffffffff811115620004b357620004b26200021d565b5b620004bf82546200027b565b620004cc828285620003f1565b600060209050601f831160018114620005045760008415620004ef578287015190505b620004fb85826200046e565b8655506200056b565b601f1984166200051486620002b0565b60005b828110156200053e5784890151825560018201915060208501945060208101905062000517565b868310156200055e57848901516200055a601f8916826200044e565b8355505b6001600288020188555050505b505050505050565b6117d480620005836000396000f3fe608060405234801561001057600080fd5b50600436106100ea5760003560e01c8063790a09401161008c5780639a5eec33116100665780639a5eec3314610247578063d534cc0e14610251578063d73fe0aa14610281578063e4fc6b6d1461029f576100ea565b8063790a0940146101ef5780638477d9f31461020b5780638da5cb5b14610229576100ea565b80634cc82215116100c85780634cc822151461015757806350e781911461017357806357a858fc1461018f5780637427a40c146101bf576100ea565b80630623f1d7146100ef5780631e1cf1601461010b5780633f8b48661461013b575b600080fd5b61010960048036038101906101049190610d6a565b6102a9565b005b61012560048036038101906101209190610d6a565b6102ac565b6040516101329190610e27565b60405180910390f35b61015560048036038101906101509190610fbc565b61034c565b005b610171600480360381019061016c919061104e565b6103de565b005b61018d6004803603810190610188919061107b565b6104d2565b005b6101a960048036038101906101a4919061104e565b610602565b6040516101b69190610e27565b60405180910390f35b6101d960048036038101906101d4919061104e565b6106ae565b6040516101e691906110b7565b60405180910390f35b6102096004803603810190610204919061107b565b6106ed565b005b6102136107e1565b6040516102209190611190565b60405180910390f35b61023161086f565b60405161023e91906111c1565b60405180910390f35b61024f610893565b005b61026b60048036038101906102669190610d6a565b610923565b6040516102789190610e27565b60405180910390f35b6102896109c3565b60405161029691906112e8565b60405180910390f35b6102a7610a9c565b005b50565b600460205280600052604060002060009150905080546102cb90611339565b80601f01602080910402602001604051908101604052809291908181526020018280546102f790611339565b80156103445780601f1061031957610100808354040283529160200191610344565b820191906000526020600020905b81548152906001019060200180831161032757829003601f168201915b505050505081565b60008054906101000a900473ffffffffffffffffffffffffffffffffffffffff1673ffffffffffffffffffffffffffffffffffffffff163373ffffffffffffffffffffffffffffffffffffffff16146103da576040517f08c379a00000000000000000000000000000000000000000000000000000000081526004016103d1906113b6565b60405180910390fd5b5050565b60018080805490506103f09190611405565b8154811061040157610400611439565b5b9060005260206000200160009054906101000a900473ffffffffffffffffffffffffffffffffffffffff16600182815481106104405761043f611439565b5b9060005260206000200160006101000a81548173ffffffffffffffffffffffffffffffffffffffff021916908373ffffffffffffffffffffffffffffffffffffffff160217905550600180548061049a57610499611468565b5b6001900381819060005260206000200160006101000a81549073ffffffffffffffffffffffffffffffffffffffff0219169055905550565b60008054906101000a900473ffffffffffffffffffffffffffffffffffffffff1673ffffffffffffffffffffffffffffffffffffffff163373ffffffffffffffffffffffffffffffffffffffff1614610560576040517f08c379a0000000000000000000000000000000000000000000000000000000008152600401610557906113b6565b60405180910390fd5b60005b6001805490508110156105f5578173ffffffffffffffffffffffffffffffffffffffff166001828154811061059b5761059a611439565b5b9060005260206000200160009054906101000a900473ffffffffffffffffffffffffffffffffffffffff1673ffffffffffffffffffffffffffffffffffffffff1603156105f55780806105ed90611497565b915050610563565b6105fe816103de565b5050565b6002818154811061061257600080fd5b90600052602060002001600091509050805461062d90611339565b80601f016020809104026020016040519081016040528092919081815260200182805461065990611339565b80156106a65780601f1061067b576101008083540402835291602001916106a6565b820191906000526020600020905b81548152906001019060200180831161068957829003601f168201915b505050505081565b600181815481106106be57600080fd5b906000526020600020016000915054906101000a900473ffffffffffffffffffffffffffffffffffffffff1681565b60008054906101000a900473ffffffffffffffffffffffffffffffffffffffff1673ffffffffffffffffffffffffffffffffffffffff163373ffffffffffffffffffffffffffffffffffffffff161461077b576040517f08c379a0000000000000000000000000000000000000000000000000000000008152600401610772906113b6565b60405180910390fd5b6001819080600181540180825580915050600190039060005260206000200160009091909190916101000a81548173ffffffffffffffffffffffffffffffffffffffff021916908373ffffffffffffffffffffffffffffffffffffffff16021790555050565b6060600180548060200260200160405190810160405280929190818152602001828054801561086557602002820191906000526020600020905b8160009054906101000a900473ffffffffffffffffffffffffffffffffffffffff1673ffffffffffffffffffffffffffffffffffffffff168152602001906001019080831161081b575b5050505050905090565b60008054906101000a900473ffffffffffffffffffffffffffffffffffffffff1681565b60008054906101000a900473ffffffffffffffffffffffffffffffffffffffff1673ffffffffffffffffffffffffffffffffffffffff163373ffffffffffffffffffffffffffffffffffffffff1614610921576040517f08c379a0000000000000000000000000000000000000000000000000000000008152600401610918906113b6565b60405180910390fd5b565b6003602052806000526040600020600091509050805461094290611339565b80601f016020809104026020016040519081016040528092919081815260200182805461096e90611339565b80156109bb5780601f10610990576101008083540402835291602001916109bb565b820191906000526020600020905b81548152906001019060200180831161099e57829003601f168201915b505050505081565b60606002805480602002602001604051908101604052809291908181526020016000905b82821015610a93578382906000526020600020018054610a0690611339565b80601f0160208091040260200160405190810160405280929190818152602001828054610a3290611339565b8015610a7f5780601f10610a5457610100808354040283529160200191610a7f565b820191906000526020600020905b815481529060010190602001808311610a6257829003601f168201915b5050505050815260200190600101906109e7565b50505050905090565b60008054906101000a900473ffffffffffffffffffffffffffffffffffffffff1673ffffffffffffffffffffffffffffffffffffffff163373ffffffffffffffffffffffffffffffffffffffff1614610b2a576040517f08c379a0000000000000000000000000000000000000000000000000000000008152600401610b21906113b6565b60405180910390fd5b60018054905060028054905011610cf65760005b600280549050811015610cf45760028181548110610b5f57610b5e611439565b5b906000526020600020016003600060018481548110610b8157610b80611439565b5b9060005260206000200160009054906101000a900473ffffffffffffffffffffffffffffffffffffffff1673ffffffffffffffffffffffffffffffffffffffff1673ffffffffffffffffffffffffffffffffffffffff1681526020019081526020016000209081610bf291906116b6565b50610ce160018281548110610c0a57610c09611439565b5b9060005260206000200160009054906101000a900473ffffffffffffffffffffffffffffffffffffffff1660028381548110610c4957610c48611439565b5b906000526020600020018054610c5e90611339565b80601f0160208091040260200160405190810160405280929190818152602001828054610c8a90611339565b8015610cd75780601f10610cac57610100808354040283529160200191610cd7565b820191906000526020600020905b815481529060010190602001808311610cba57829003601f168201915b505050505061034c565b8080610cec90611497565b915050610b3e565b505b565b6000604051905090565b600080fd5b600080fd5b600073ffffffffffffffffffffffffffffffffffffffff82169050919050565b6000610d3782610d0c565b9050919050565b610d4781610d2c565b8114610d5257600080fd5b50565b600081359050610d6481610d3e565b92915050565b600060208284031215610d8057610d7f610d02565b5b6000610d8e84828501610d55565b91505092915050565b600081519050919050565b600082825260208201905092915050565b60005b83811015610dd1578082015181840152602081019050610db6565b60008484015250505050565b6000601f19601f8301169050919050565b6000610df982610d97565b610e038185610da2565b9350610e13818560208601610db3565b610e1c81610ddd565b840191505092915050565b60006020820190508181036000830152610e418184610dee565b905092915050565b6000610e5482610d0c565b9050919050565b610e6481610e49565b8114610e6f57600080fd5b50565b600081359050610e8181610e5b565b92915050565b600080fd5b600080fd5b7f4e487b7100000000000000000000000000000000000000000000000000000000600052604160045260246000fd5b610ec982610ddd565b810181811067ffffffffffffffff82111715610ee857610ee7610e91565b5b80604052505050565b6000610efb610cf8565b9050610f078282610ec0565b919050565b600067ffffffffffffffff821115610f2757610f26610e91565b5b610f3082610ddd565b9050602081019050919050565b82818337600083830152505050565b6000610f5f610f5a84610f0c565b610ef1565b905082815260208101848484011115610f7b57610f7a610e8c565b5b610f86848285610f3d565b509392505050565b600082601f830112610fa357610fa2610e87565b5b8135610fb3848260208601610f4c565b91505092915050565b60008060408385031215610fd357610fd2610d02565b5b6000610fe185828601610e72565b925050602083013567ffffffffffffffff81111561100257611001610d07565b5b61100e85828601610f8e565b9150509250929050565b6000819050919050565b61102b81611018565b811461103657600080fd5b50565b60008135905061104881611022565b92915050565b60006020828403121561106457611063610d02565b5b600061107284828501611039565b91505092915050565b60006020828403121561109157611090610d02565b5b600061109f84828501610e72565b91505092915050565b6110b181610e49565b82525050565b60006020820190506110cc60008301846110a8565b92915050565b600081519050919050565b600082825260208201905092915050565b6000819050602082019050919050565b61110781610e49565b82525050565b600061111983836110fe565b60208301905092915050565b6000602082019050919050565b600061113d826110d2565b61114781856110dd565b9350611152836110ee565b8060005b8381101561118357815161116a888261110d565b975061117583611125565b925050600181019050611156565b5085935050505092915050565b600060208201905081810360008301526111aa8184611132565b905092915050565b6111bb81610d2c565b82525050565b60006020820190506111d660008301846111b2565b92915050565b600081519050919050565b600082825260208201905092915050565b6000819050602082019050919050565b600082825260208201905092915050565b600061122482610d97565b61122e8185611208565b935061123e818560208601610db3565b61124781610ddd565b840191505092915050565b600061125e8383611219565b905092915050565b6000602082019050919050565b600061127e826111dc565b61128881856111e7565b93508360208202850161129a856111f8565b8060005b858110156112d657848403895281516112b78582611252565b94506112c283611266565b925060208a0199505060018101905061129e565b50829750879550505050505092915050565b600060208201905081810360008301526113028184611273565b905092915050565b7f4e487b7100000000000000000000000000000000000000000000000000000000600052602260045260246000fd5b6000600282049050600182168061135157607f821691505b6020821081036113645761136361130a565b5b50919050565b7f6f6e6c79206f776e65722063616e207069636b207468652077696e6e65720000600082015250565b60006113a0601e83610da2565b91506113ab8261136a565b602082019050919050565b600060208201905081810360008301526113cf81611393565b9050919050565b7f4e487b7100000000000000000000000000000000000000000000000000000000600052601160045260246000fd5b600061141082611018565b915061141b83611018565b9250828203905081811115611433576114326113d6565b5b92915050565b7f4e487b7100000000000000000000000000000000000000000000000000000000600052603260045260246000fd5b7f4e487b7100000000000000000000000000000000000000000000000000000000600052603160045260246000fd5b60006114a282611018565b91507fffffffffffffffffffffffffffffffffffffffffffffffffffffffffffffffff82036114d4576114d36113d6565b5b600182019050919050565b6000815490506114ee81611339565b9050919050565b60008190508160005260206000209050919050565b60008190508160005260206000209050919050565b60006020601f8301049050919050565b600082821b905092915050565b60006008830261156c7fffffffffffffffffffffffffffffffffffffffffffffffffffffffffffffffff8261152f565b611576868361152f565b95508019841693508086168417925050509392505050565b6000819050919050565b60006115b36115ae6115a984611018565b61158e565b611018565b9050919050565b6000819050919050565b6115cd83611598565b6115e16115d9826115ba565b84845461153c565b825550505050565b600090565b6115f66115e9565b6116018184846115c4565b505050565b5b818110156116255761161a6000826115ee565b600181019050611607565b5050565b601f82111561166a5761163b816114f5565b6116448461151f565b81016020851015611653578190505b61166761165f8561151f565b830182611606565b50505b505050565b600082821c905092915050565b600061168d6000198460080261166f565b1980831691505092915050565b60006116a6838361167c565b9150826002028217905092915050565b8181036116c457505061179c565b6116cd826114df565b67ffffffffffffffff8111156116e6576116e5610e91565b5b6116f08254611339565b6116fb828285611629565b6000601f83116001811461172a5760008415611718578287015490505b611722858261169a565b865550611795565b601f1984166117388761150a565b9650611743866114f5565b60005b8281101561176b57848901548255600182019150600185019450602081019050611746565b868310156117885784890154611784601f89168261167c565b8355505b6001600288020188555050505b5050505050505b56fea26469706673582212203356ef55d2da924c8dd69969d260a335d2a16ce5cc4397024ad1478788e7752d64736f6c63430008110033",
					"opcodes": "PUSH1 0x80 PUSH1 0x40 MSTORE CALLVALUE DUP1 ISZERO PUSH3 0x11 JUMPI PUSH1 0x0 DUP1 REVERT JUMPDEST POP CALLER PUSH1 0x0 DUP1 PUSH2 0x100 EXP DUP2 SLOAD DUP2 PUSH20 0xFFFFFFFFFFFFFFFFFFFFFFFFFFFFFFFFFFFFFFFF MUL NOT AND SWAP1 DUP4 PUSH20 0xFFFFFFFFFFFFFFFFFFFFFFFFFFFFFFFFFFFFFFFF AND MUL OR SWAP1 SSTORE POP PUSH1 0x40 MLOAD DUP1 PUSH1 0x60 ADD PUSH1 0x40 MSTORE DUP1 PUSH1 0x40 MLOAD DUP1 PUSH1 0x40 ADD PUSH1 0x40 MSTORE DUP1 PUSH1 0x8 DUP2 MSTORE PUSH1 0x20 ADD PUSH32 0x6465736372696265000000000000000000000000000000000000000000000000 DUP2 MSTORE POP DUP2 MSTORE PUSH1 0x20 ADD PUSH1 0x40 MLOAD DUP1 PUSH1 0x40 ADD PUSH1 0x40 MSTORE DUP1 PUSH1 0x6 DUP2 MSTORE PUSH1 0x20 ADD PUSH32 0x616374696F6E0000000000000000000000000000000000000000000000000000 DUP2 MSTORE POP DUP2 MSTORE PUSH1 0x20 ADD PUSH1 0x40 MLOAD DUP1 PUSH1 0x40 ADD PUSH1 0x40 MSTORE DUP1 PUSH1 0x4 DUP2 MSTORE PUSH1 0x20 ADD PUSH32 0x6465667900000000000000000000000000000000000000000000000000000000 DUP2 MSTORE POP DUP2 MSTORE POP PUSH1 0x2 SWAP1 PUSH1 0x3 PUSH3 0x11E SWAP3 SWAP2 SWAP1 PUSH3 0x125 JUMP JUMPDEST POP PUSH3 0x573 JUMP JUMPDEST DUP3 DUP1 SLOAD DUP3 DUP3 SSTORE SWAP1 PUSH1 0x0 MSTORE PUSH1 0x20 PUSH1 0x0 KECCAK256 SWAP1 DUP2 ADD SWAP3 DUP3 ISZERO PUSH3 0x172 JUMPI SWAP2 PUSH1 0x20 MUL DUP3 ADD JUMPDEST DUP3 DUP2 GT ISZERO PUSH3 0x171 JUMPI DUP3 MLOAD DUP3 SWAP1 DUP2 PUSH3 0x160 SWAP2 SWAP1 PUSH3 0x48C JUMP JUMPDEST POP SWAP2 PUSH1 0x20 ADD SWAP2 SWAP1 PUSH1 0x1 ADD SWAP1 PUSH3 0x146 JUMP JUMPDEST JUMPDEST POP SWAP1 POP PUSH3 0x181 SWAP2 SWAP1 PUSH3 0x185 JUMP JUMPDEST POP SWAP1 JUMP JUMPDEST JUMPDEST DUP1 DUP3 GT ISZERO PUSH3 0x1A9 JUMPI PUSH1 0x0 DUP2 DUP2 PUSH3 0x19F SWAP2 SWAP1 PUSH3 0x1AD JUMP JUMPDEST POP PUSH1 0x1 ADD PUSH3 0x186 JUMP JUMPDEST POP SWAP1 JUMP JUMPDEST POP DUP1 SLOAD PUSH3 0x1BB SWAP1 PUSH3 0x27B JUMP JUMPDEST PUSH1 0x0 DUP3 SSTORE DUP1 PUSH1 0x1F LT PUSH3 0x1CF JUMPI POP PUSH3 0x1F0 JUMP JUMPDEST PUSH1 0x1F ADD PUSH1 0x20 SWAP1 DIV SWAP1 PUSH1 0x0 MSTORE PUSH1 0x20 PUSH1 0x0 KECCAK256 SWAP1 DUP2 ADD SWAP1 PUSH3 0x1EF SWAP2 SWAP1 PUSH3 0x1F3 JUMP JUMPDEST JUMPDEST POP JUMP JUMPDEST JUMPDEST DUP1 DUP3 GT ISZERO PUSH3 0x20E JUMPI PUSH1 0x0 DUP2 PUSH1 0x0 SWAP1 SSTORE POP PUSH1 0x1 ADD PUSH3 0x1F4 JUMP JUMPDEST POP SWAP1 JUMP JUMPDEST PUSH1 0x0 DUP2 MLOAD SWAP1 POP SWAP2 SWAP1 POP JUMP JUMPDEST PUSH32 0x4E487B7100000000000000000000000000000000000000000000000000000000 PUSH1 0x0 MSTORE PUSH1 0x41 PUSH1 0x4 MSTORE PUSH1 0x24 PUSH1 0x0 REVERT JUMPDEST PUSH32 0x4E487B7100000000000000000000000000000000000000000000000000000000 PUSH1 0x0 MSTORE PUSH1 0x22 PUSH1 0x4 MSTORE PUSH1 0x24 PUSH1 0x0 REVERT JUMPDEST PUSH1 0x0 PUSH1 0x2 DUP3 DIV SWAP1 POP PUSH1 0x1 DUP3 AND DUP1 PUSH3 0x294 JUMPI PUSH1 0x7F DUP3 AND SWAP2 POP JUMPDEST PUSH1 0x20 DUP3 LT DUP2 SUB PUSH3 0x2AA JUMPI PUSH3 0x2A9 PUSH3 0x24C JUMP JUMPDEST JUMPDEST POP SWAP2 SWAP1 POP JUMP JUMPDEST PUSH1 0x0 DUP2 SWAP1 POP DUP2 PUSH1 0x0 MSTORE PUSH1 0x20 PUSH1 0x0 KECCAK256 SWAP1 POP SWAP2 SWAP1 POP JUMP JUMPDEST PUSH1 0x0 PUSH1 0x20 PUSH1 0x1F DUP4 ADD DIV SWAP1 POP SWAP2 SWAP1 POP JUMP JUMPDEST PUSH1 0x0 DUP3 DUP3 SHL SWAP1 POP SWAP3 SWAP2 POP POP JUMP JUMPDEST PUSH1 0x0 PUSH1 0x8 DUP4 MUL PUSH3 0x314 PUSH32 0xFFFFFFFFFFFFFFFFFFFFFFFFFFFFFFFFFFFFFFFFFFFFFFFFFFFFFFFFFFFFFFFF DUP3 PUSH3 0x2D5 JUMP JUMPDEST PUSH3 0x320 DUP7 DUP4 PUSH3 0x2D5 JUMP JUMPDEST SWAP6 POP DUP1 NOT DUP5 AND SWAP4 POP DUP1 DUP7 AND DUP5 OR SWAP3 POP POP POP SWAP4 SWAP3 POP POP POP JUMP JUMPDEST PUSH1 0x0 DUP2 SWAP1 POP SWAP2 SWAP1 POP JUMP JUMPDEST PUSH1 0x0 DUP2 SWAP1 POP SWAP2 SWAP1 POP JUMP JUMPDEST PUSH1 0x0 PUSH3 0x36D PUSH3 0x367 PUSH3 0x361 DUP5 PUSH3 0x338 JUMP JUMPDEST PUSH3 0x342 JUMP JUMPDEST PUSH3 0x338 JUMP JUMPDEST SWAP1 POP SWAP2 SWAP1 POP JUMP JUMPDEST PUSH1 0x0 DUP2 SWAP1 POP SWAP2 SWAP1 POP JUMP JUMPDEST PUSH3 0x389 DUP4 PUSH3 0x34C JUMP JUMPDEST PUSH3 0x3A1 PUSH3 0x398 DUP3 PUSH3 0x374 JUMP JUMPDEST DUP5 DUP5 SLOAD PUSH3 0x2E2 JUMP JUMPDEST DUP3 SSTORE POP POP POP POP JUMP JUMPDEST PUSH1 0x0 SWAP1 JUMP JUMPDEST PUSH3 0x3B8 PUSH3 0x3A9 JUMP JUMPDEST PUSH3 0x3C5 DUP2 DUP5 DUP5 PUSH3 0x37E JUMP JUMPDEST POP POP POP JUMP JUMPDEST JUMPDEST DUP2 DUP2 LT ISZERO PUSH3 0x3ED JUMPI PUSH3 0x3E1 PUSH1 0x0 DUP3 PUSH3 0x3AE JUMP JUMPDEST PUSH1 0x1 DUP2 ADD SWAP1 POP PUSH3 0x3CB JUMP JUMPDEST POP POP JUMP JUMPDEST PUSH1 0x1F DUP3 GT ISZERO PUSH3 0x43C JUMPI PUSH3 0x406 DUP2 PUSH3 0x2B0 JUMP JUMPDEST PUSH3 0x411 DUP5 PUSH3 0x2C5 JUMP JUMPDEST DUP2 ADD PUSH1 0x20 DUP6 LT ISZERO PUSH3 0x421 JUMPI DUP2 SWAP1 POP JUMPDEST PUSH3 0x439 PUSH3 0x430 DUP6 PUSH3 0x2C5 JUMP JUMPDEST DUP4 ADD DUP3 PUSH3 0x3CA JUMP JUMPDEST POP POP JUMPDEST POP POP POP JUMP JUMPDEST PUSH1 0x0 DUP3 DUP3 SHR SWAP1 POP SWAP3 SWAP2 POP POP JUMP JUMPDEST PUSH1 0x0 PUSH3 0x461 PUSH1 0x0 NOT DUP5 PUSH1 0x8 MUL PUSH3 0x441 JUMP JUMPDEST NOT DUP1 DUP4 AND SWAP2 POP POP SWAP3 SWAP2 POP POP JUMP JUMPDEST PUSH1 0x0 PUSH3 0x47C DUP4 DUP4 PUSH3 0x44E JUMP JUMPDEST SWAP2 POP DUP3 PUSH1 0x2 MUL DUP3 OR SWAP1 POP SWAP3 SWAP2 POP POP JUMP JUMPDEST PUSH3 0x497 DUP3 PUSH3 0x212 JUMP JUMPDEST PUSH8 0xFFFFFFFFFFFFFFFF DUP2 GT ISZERO PUSH3 0x4B3 JUMPI PUSH3 0x4B2 PUSH3 0x21D JUMP JUMPDEST JUMPDEST PUSH3 0x4BF DUP3 SLOAD PUSH3 0x27B JUMP JUMPDEST PUSH3 0x4CC DUP3 DUP3 DUP6 PUSH3 0x3F1 JUMP JUMPDEST PUSH1 0x0 PUSH1 0x20 SWAP1 POP PUSH1 0x1F DUP4 GT PUSH1 0x1 DUP2 EQ PUSH3 0x504 JUMPI PUSH1 0x0 DUP5 ISZERO PUSH3 0x4EF JUMPI DUP3 DUP8 ADD MLOAD SWAP1 POP JUMPDEST PUSH3 0x4FB DUP6 DUP3 PUSH3 0x46E JUMP JUMPDEST DUP7 SSTORE POP PUSH3 0x56B JUMP JUMPDEST PUSH1 0x1F NOT DUP5 AND PUSH3 0x514 DUP7 PUSH3 0x2B0 JUMP JUMPDEST PUSH1 0x0 JUMPDEST DUP3 DUP2 LT ISZERO PUSH3 0x53E JUMPI DUP5 DUP10 ADD MLOAD DUP3 SSTORE PUSH1 0x1 DUP3 ADD SWAP2 POP PUSH1 0x20 DUP6 ADD SWAP5 POP PUSH1 0x20 DUP2 ADD SWAP1 POP PUSH3 0x517 JUMP JUMPDEST DUP7 DUP4 LT ISZERO PUSH3 0x55E JUMPI DUP5 DUP10 ADD MLOAD PUSH3 0x55A PUSH1 0x1F DUP10 AND DUP3 PUSH3 0x44E JUMP JUMPDEST DUP4 SSTORE POP JUMPDEST PUSH1 0x1 PUSH1 0x2 DUP9 MUL ADD DUP9 SSTORE POP POP POP JUMPDEST POP POP POP POP POP POP JUMP JUMPDEST PUSH2 0x17D4 DUP1 PUSH3 0x583 PUSH1 0x0 CODECOPY PUSH1 0x0 RETURN INVALID PUSH1 0x80 PUSH1 0x40 MSTORE CALLVALUE DUP1 ISZERO PUSH2 0x10 JUMPI PUSH1 0x0 DUP1 REVERT JUMPDEST POP PUSH1 0x4 CALLDATASIZE LT PUSH2 0xEA JUMPI PUSH1 0x0 CALLDATALOAD PUSH1 0xE0 SHR DUP1 PUSH4 0x790A0940 GT PUSH2 0x8C JUMPI DUP1 PUSH4 0x9A5EEC33 GT PUSH2 0x66 JUMPI DUP1 PUSH4 0x9A5EEC33 EQ PUSH2 0x247 JUMPI DUP1 PUSH4 0xD534CC0E EQ PUSH2 0x251 JUMPI DUP1 PUSH4 0xD73FE0AA EQ PUSH2 0x281 JUMPI DUP1 PUSH4 0xE4FC6B6D EQ PUSH2 0x29F JUMPI PUSH2 0xEA JUMP JUMPDEST DUP1 PUSH4 0x790A0940 EQ PUSH2 0x1EF JUMPI DUP1 PUSH4 0x8477D9F3 EQ PUSH2 0x20B JUMPI DUP1 PUSH4 0x8DA5CB5B EQ PUSH2 0x229 JUMPI PUSH2 0xEA JUMP JUMPDEST DUP1 PUSH4 0x4CC82215 GT PUSH2 0xC8 JUMPI DUP1 PUSH4 0x4CC82215 EQ PUSH2 0x157 JUMPI DUP1 PUSH4 0x50E78191 EQ PUSH2 0x173 JUMPI DUP1 PUSH4 0x57A858FC EQ PUSH2 0x18F JUMPI DUP1 PUSH4 0x7427A40C EQ PUSH2 0x1BF JUMPI PUSH2 0xEA JUMP JUMPDEST DUP1 PUSH4 0x623F1D7 EQ PUSH2 0xEF JUMPI DUP1 PUSH4 0x1E1CF160 EQ PUSH2 0x10B JUMPI DUP1 PUSH4 0x3F8B4866 EQ PUSH2 0x13B JUMPI JUMPDEST PUSH1 0x0 DUP1 REVERT JUMPDEST PUSH2 0x109 PUSH1 0x4 DUP1 CALLDATASIZE SUB DUP2 ADD SWAP1 PUSH2 0x104 SWAP2 SWAP1 PUSH2 0xD6A JUMP JUMPDEST PUSH2 0x2A9 JUMP JUMPDEST STOP JUMPDEST PUSH2 0x125 PUSH1 0x4 DUP1 CALLDATASIZE SUB DUP2 ADD SWAP1 PUSH2 0x120 SWAP2 SWAP1 PUSH2 0xD6A JUMP JUMPDEST PUSH2 0x2AC JUMP JUMPDEST PUSH1 0x40 MLOAD PUSH2 0x132 SWAP2 SWAP1 PUSH2 0xE27 JUMP JUMPDEST PUSH1 0x40 MLOAD DUP1 SWAP2 SUB SWAP1 RETURN JUMPDEST PUSH2 0x155 PUSH1 0x4 DUP1 CALLDATASIZE SUB DUP2 ADD SWAP1 PUSH2 0x150 SWAP2 SWAP1 PUSH2 0xFBC JUMP JUMPDEST PUSH2 0x34C JUMP JUMPDEST STOP JUMPDEST PUSH2 0x171 PUSH1 0x4 DUP1 CALLDATASIZE SUB DUP2 ADD SWAP1 PUSH2 0x16C SWAP2 SWAP1 PUSH2 0x104E JUMP JUMPDEST PUSH2 0x3DE JUMP JUMPDEST STOP JUMPDEST PUSH2 0x18D PUSH1 0x4 DUP1 CALLDATASIZE SUB DUP2 ADD SWAP1 PUSH2 0x188 SWAP2 SWAP1 PUSH2 0x107B JUMP JUMPDEST PUSH2 0x4D2 JUMP JUMPDEST STOP JUMPDEST PUSH2 0x1A9 PUSH1 0x4 DUP1 CALLDATASIZE SUB DUP2 ADD SWAP1 PUSH2 0x1A4 SWAP2 SWAP1 PUSH2 0x104E JUMP JUMPDEST PUSH2 0x602 JUMP JUMPDEST PUSH1 0x40 MLOAD PUSH2 0x1B6 SWAP2 SWAP1 PUSH2 0xE27 JUMP JUMPDEST PUSH1 0x40 MLOAD DUP1 SWAP2 SUB SWAP1 RETURN JUMPDEST PUSH2 0x1D9 PUSH1 0x4 DUP1 CALLDATASIZE SUB DUP2 ADD SWAP1 PUSH2 0x1D4 SWAP2 SWAP1 PUSH2 0x104E JUMP JUMPDEST PUSH2 0x6AE JUMP JUMPDEST PUSH1 0x40 MLOAD PUSH2 0x1E6 SWAP2 SWAP1 PUSH2 0x10B7 JUMP JUMPDEST PUSH1 0x40 MLOAD DUP1 SWAP2 SUB SWAP1 RETURN JUMPDEST PUSH2 0x209 PUSH1 0x4 DUP1 CALLDATASIZE SUB DUP2 ADD SWAP1 PUSH2 0x204 SWAP2 SWAP1 PUSH2 0x107B JUMP JUMPDEST PUSH2 0x6ED JUMP JUMPDEST STOP JUMPDEST PUSH2 0x213 PUSH2 0x7E1 JUMP JUMPDEST PUSH1 0x40 MLOAD PUSH2 0x220 SWAP2 SWAP1 PUSH2 0x1190 JUMP JUMPDEST PUSH1 0x40 MLOAD DUP1 SWAP2 SUB SWAP1 RETURN JUMPDEST PUSH2 0x231 PUSH2 0x86F JUMP JUMPDEST PUSH1 0x40 MLOAD PUSH2 0x23E SWAP2 SWAP1 PUSH2 0x11C1 JUMP JUMPDEST PUSH1 0x40 MLOAD DUP1 SWAP2 SUB SWAP1 RETURN JUMPDEST PUSH2 0x24F PUSH2 0x893 JUMP JUMPDEST STOP JUMPDEST PUSH2 0x26B PUSH1 0x4 DUP1 CALLDATASIZE SUB DUP2 ADD SWAP1 PUSH2 0x266 SWAP2 SWAP1 PUSH2 0xD6A JUMP JUMPDEST PUSH2 0x923 JUMP JUMPDEST PUSH1 0x40 MLOAD PUSH2 0x278 SWAP2 SWAP1 PUSH2 0xE27 JUMP JUMPDEST PUSH1 0x40 MLOAD DUP1 SWAP2 SUB SWAP1 RETURN JUMPDEST PUSH2 0x289 PUSH2 0x9C3 JUMP JUMPDEST PUSH1 0x40 MLOAD PUSH2 0x296 SWAP2 SWAP1 PUSH2 0x12E8 JUMP JUMPDEST PUSH1 0x40 MLOAD DUP1 SWAP2 SUB SWAP1 RETURN JUMPDEST PUSH2 0x2A7 PUSH2 0xA9C JUMP JUMPDEST STOP JUMPDEST POP JUMP JUMPDEST PUSH1 0x4 PUSH1 0x20 MSTORE DUP1 PUSH1 0x0 MSTORE PUSH1 0x40 PUSH1 0x0 KECCAK256 PUSH1 0x0 SWAP2 POP SWAP1 POP DUP1 SLOAD PUSH2 0x2CB SWAP1 PUSH2 0x1339 JUMP JUMPDEST DUP1 PUSH1 0x1F ADD PUSH1 0x20 DUP1 SWAP2 DIV MUL PUSH1 0x20 ADD PUSH1 0x40 MLOAD SWAP1 DUP2 ADD PUSH1 0x40 MSTORE DUP1 SWAP3 SWAP2 SWAP1 DUP2 DUP2 MSTORE PUSH1 0x20 ADD DUP3 DUP1 SLOAD PUSH2 0x2F7 SWAP1 PUSH2 0x1339 JUMP JUMPDEST DUP1 ISZERO PUSH2 0x344 JUMPI DUP1 PUSH1 0x1F LT PUSH2 0x319 JUMPI PUSH2 0x100 DUP1 DUP4 SLOAD DIV MUL DUP4 MSTORE SWAP2 PUSH1 0x20 ADD SWAP2 PUSH2 0x344 JUMP JUMPDEST DUP3 ADD SWAP2 SWAP1 PUSH1 0x0 MSTORE PUSH1 0x20 PUSH1 0x0 KECCAK256 SWAP1 JUMPDEST DUP2 SLOAD DUP2 MSTORE SWAP1 PUSH1 0x1 ADD SWAP1 PUSH1 0x20 ADD DUP1 DUP4 GT PUSH2 0x327 JUMPI DUP3 SWAP1 SUB PUSH1 0x1F AND DUP3 ADD SWAP2 JUMPDEST POP POP POP POP POP DUP2 JUMP JUMPDEST PUSH1 0x0 DUP1 SLOAD SWAP1 PUSH2 0x100 EXP SWAP1 DIV PUSH20 0xFFFFFFFFFFFFFFFFFFFFFFFFFFFFFFFFFFFFFFFF AND PUSH20 0xFFFFFFFFFFFFFFFFFFFFFFFFFFFFFFFFFFFFFFFF AND CALLER PUSH20 0xFFFFFFFFFFFFFFFFFFFFFFFFFFFFFFFFFFFFFFFF AND EQ PUSH2 0x3DA JUMPI PUSH1 0x40 MLOAD PUSH32 0x8C379A000000000000000000000000000000000000000000000000000000000 DUP2 MSTORE PUSH1 0x4 ADD PUSH2 0x3D1 SWAP1 PUSH2 0x13B6 JUMP JUMPDEST PUSH1 0x40 MLOAD DUP1 SWAP2 SUB SWAP1 REVERT JUMPDEST POP POP JUMP JUMPDEST PUSH1 0x1 DUP1 DUP1 DUP1 SLOAD SWAP1 POP PUSH2 0x3F0 SWAP2 SWAP1 PUSH2 0x1405 JUMP JUMPDEST DUP2 SLOAD DUP2 LT PUSH2 0x401 JUMPI PUSH2 0x400 PUSH2 0x1439 JUMP JUMPDEST JUMPDEST SWAP1 PUSH1 0x0 MSTORE PUSH1 0x20 PUSH1 0x0 KECCAK256 ADD PUSH1 0x0 SWAP1 SLOAD SWAP1 PUSH2 0x100 EXP SWAP1 DIV PUSH20 0xFFFFFFFFFFFFFFFFFFFFFFFFFFFFFFFFFFFFFFFF AND PUSH1 0x1 DUP3 DUP2 SLOAD DUP2 LT PUSH2 0x440 JUMPI PUSH2 0x43F PUSH2 0x1439 JUMP JUMPDEST JUMPDEST SWAP1 PUSH1 0x0 MSTORE PUSH1 0x20 PUSH1 0x0 KECCAK256 ADD PUSH1 0x0 PUSH2 0x100 EXP DUP2 SLOAD DUP2 PUSH20 0xFFFFFFFFFFFFFFFFFFFFFFFFFFFFFFFFFFFFFFFF MUL NOT AND SWAP1 DUP4 PUSH20 0xFFFFFFFFFFFFFFFFFFFFFFFFFFFFFFFFFFFFFFFF AND MUL OR SWAP1 SSTORE POP PUSH1 0x1 DUP1 SLOAD DUP1 PUSH2 0x49A JUMPI PUSH2 0x499 PUSH2 0x1468 JUMP JUMPDEST JUMPDEST PUSH1 0x1 SWAP1 SUB DUP2 DUP2 SWAP1 PUSH1 0x0 MSTORE PUSH1 0x20 PUSH1 0x0 KECCAK256 ADD PUSH1 0x0 PUSH2 0x100 EXP DUP2 SLOAD SWAP1 PUSH20 0xFFFFFFFFFFFFFFFFFFFFFFFFFFFFFFFFFFFFFFFF MUL NOT AND SWAP1 SSTORE SWAP1 SSTORE POP JUMP JUMPDEST PUSH1 0x0 DUP1 SLOAD SWAP1 PUSH2 0x100 EXP SWAP1 DIV PUSH20 0xFFFFFFFFFFFFFFFFFFFFFFFFFFFFFFFFFFFFFFFF AND PUSH20 0xFFFFFFFFFFFFFFFFFFFFFFFFFFFFFFFFFFFFFFFF AND CALLER PUSH20 0xFFFFFFFFFFFFFFFFFFFFFFFFFFFFFFFFFFFFFFFF AND EQ PUSH2 0x560 JUMPI PUSH1 0x40 MLOAD PUSH32 0x8C379A000000000000000000000000000000000000000000000000000000000 DUP2 MSTORE PUSH1 0x4 ADD PUSH2 0x557 SWAP1 PUSH2 0x13B6 JUMP JUMPDEST PUSH1 0x40 MLOAD DUP1 SWAP2 SUB SWAP1 REVERT JUMPDEST PUSH1 0x0 JUMPDEST PUSH1 0x1 DUP1 SLOAD SWAP1 POP DUP2 LT ISZERO PUSH2 0x5F5 JUMPI DUP2 PUSH20 0xFFFFFFFFFFFFFFFFFFFFFFFFFFFFFFFFFFFFFFFF AND PUSH1 0x1 DUP3 DUP2 SLOAD DUP2 LT PUSH2 0x59B JUMPI PUSH2 0x59A PUSH2 0x1439 JUMP JUMPDEST JUMPDEST SWAP1 PUSH1 0x0 MSTORE PUSH1 0x20 PUSH1 0x0 KECCAK256 ADD PUSH1 0x0 SWAP1 SLOAD SWAP1 PUSH2 0x100 EXP SWAP1 DIV PUSH20 0xFFFFFFFFFFFFFFFFFFFFFFFFFFFFFFFFFFFFFFFF AND PUSH20 0xFFFFFFFFFFFFFFFFFFFFFFFFFFFFFFFFFFFFFFFF AND SUB ISZERO PUSH2 0x5F5 JUMPI DUP1 DUP1 PUSH2 0x5ED SWAP1 PUSH2 0x1497 JUMP JUMPDEST SWAP2 POP POP PUSH2 0x563 JUMP JUMPDEST PUSH2 0x5FE DUP2 PUSH2 0x3DE JUMP JUMPDEST POP POP JUMP JUMPDEST PUSH1 0x2 DUP2 DUP2 SLOAD DUP2 LT PUSH2 0x612 JUMPI PUSH1 0x0 DUP1 REVERT JUMPDEST SWAP1 PUSH1 0x0 MSTORE PUSH1 0x20 PUSH1 0x0 KECCAK256 ADD PUSH1 0x0 SWAP2 POP SWAP1 POP DUP1 SLOAD PUSH2 0x62D SWAP1 PUSH2 0x1339 JUMP JUMPDEST DUP1 PUSH1 0x1F ADD PUSH1 0x20 DUP1 SWAP2 DIV MUL PUSH1 0x20 ADD PUSH1 0x40 MLOAD SWAP1 DUP2 ADD PUSH1 0x40 MSTORE DUP1 SWAP3 SWAP2 SWAP1 DUP2 DUP2 MSTORE PUSH1 0x20 ADD DUP3 DUP1 SLOAD PUSH2 0x659 SWAP1 PUSH2 0x1339 JUMP JUMPDEST DUP1 ISZERO PUSH2 0x6A6 JUMPI DUP1 PUSH1 0x1F LT PUSH2 0x67B JUMPI PUSH2 0x100 DUP1 DUP4 SLOAD DIV MUL DUP4 MSTORE SWAP2 PUSH1 0x20 ADD SWAP2 PUSH2 0x6A6 JUMP JUMPDEST DUP3 ADD SWAP2 SWAP1 PUSH1 0x0 MSTORE PUSH1 0x20 PUSH1 0x0 KECCAK256 SWAP1 JUMPDEST DUP2 SLOAD DUP2 MSTORE SWAP1 PUSH1 0x1 ADD SWAP1 PUSH1 0x20 ADD DUP1 DUP4 GT PUSH2 0x689 JUMPI DUP3 SWAP1 SUB PUSH1 0x1F AND DUP3 ADD SWAP2 JUMPDEST POP POP POP POP POP DUP2 JUMP JUMPDEST PUSH1 0x1 DUP2 DUP2 SLOAD DUP2 LT PUSH2 0x6BE JUMPI PUSH1 0x0 DUP1 REVERT JUMPDEST SWAP1 PUSH1 0x0 MSTORE PUSH1 0x20 PUSH1 0x0 KECCAK256 ADD PUSH1 0x0 SWAP2 POP SLOAD SWAP1 PUSH2 0x100 EXP SWAP1 DIV PUSH20 0xFFFFFFFFFFFFFFFFFFFFFFFFFFFFFFFFFFFFFFFF AND DUP2 JUMP JUMPDEST PUSH1 0x0 DUP1 SLOAD SWAP1 PUSH2 0x100 EXP SWAP1 DIV PUSH20 0xFFFFFFFFFFFFFFFFFFFFFFFFFFFFFFFFFFFFFFFF AND PUSH20 0xFFFFFFFFFFFFFFFFFFFFFFFFFFFFFFFFFFFFFFFF AND CALLER PUSH20 0xFFFFFFFFFFFFFFFFFFFFFFFFFFFFFFFFFFFFFFFF AND EQ PUSH2 0x77B JUMPI PUSH1 0x40 MLOAD PUSH32 0x8C379A000000000000000000000000000000000000000000000000000000000 DUP2 MSTORE PUSH1 0x4 ADD PUSH2 0x772 SWAP1 PUSH2 0x13B6 JUMP JUMPDEST PUSH1 0x40 MLOAD DUP1 SWAP2 SUB SWAP1 REVERT JUMPDEST PUSH1 0x1 DUP2 SWAP1 DUP1 PUSH1 0x1 DUP2 SLOAD ADD DUP1 DUP3 SSTORE DUP1 SWAP2 POP POP PUSH1 0x1 SWAP1 SUB SWAP1 PUSH1 0x0 MSTORE PUSH1 0x20 PUSH1 0x0 KECCAK256 ADD PUSH1 0x0 SWAP1 SWAP2 SWAP1 SWAP2 SWAP1 SWAP2 PUSH2 0x100 EXP DUP2 SLOAD DUP2 PUSH20 0xFFFFFFFFFFFFFFFFFFFFFFFFFFFFFFFFFFFFFFFF MUL NOT AND SWAP1 DUP4 PUSH20 0xFFFFFFFFFFFFFFFFFFFFFFFFFFFFFFFFFFFFFFFF AND MUL OR SWAP1 SSTORE POP POP JUMP JUMPDEST PUSH1 0x60 PUSH1 0x1 DUP1 SLOAD DUP1 PUSH1 0x20 MUL PUSH1 0x20 ADD PUSH1 0x40 MLOAD SWAP1 DUP2 ADD PUSH1 0x40 MSTORE DUP1 SWAP3 SWAP2 SWAP1 DUP2 DUP2 MSTORE PUSH1 0x20 ADD DUP3 DUP1 SLOAD DUP1 ISZERO PUSH2 0x865 JUMPI PUSH1 0x20 MUL DUP3 ADD SWAP2 SWAP1 PUSH1 0x0 MSTORE PUSH1 0x20 PUSH1 0x0 KECCAK256 SWAP1 JUMPDEST DUP2 PUSH1 0x0 SWAP1 SLOAD SWAP1 PUSH2 0x100 EXP SWAP1 DIV PUSH20 0xFFFFFFFFFFFFFFFFFFFFFFFFFFFFFFFFFFFFFFFF AND PUSH20 0xFFFFFFFFFFFFFFFFFFFFFFFFFFFFFFFFFFFFFFFF AND DUP2 MSTORE PUSH1 0x20 ADD SWAP1 PUSH1 0x1 ADD SWAP1 DUP1 DUP4 GT PUSH2 0x81B JUMPI JUMPDEST POP POP POP POP POP SWAP1 POP SWAP1 JUMP JUMPDEST PUSH1 0x0 DUP1 SLOAD SWAP1 PUSH2 0x100 EXP SWAP1 DIV PUSH20 0xFFFFFFFFFFFFFFFFFFFFFFFFFFFFFFFFFFFFFFFF AND DUP2 JUMP JUMPDEST PUSH1 0x0 DUP1 SLOAD SWAP1 PUSH2 0x100 EXP SWAP1 DIV PUSH20 0xFFFFFFFFFFFFFFFFFFFFFFFFFFFFFFFFFFFFFFFF AND PUSH20 0xFFFFFFFFFFFFFFFFFFFFFFFFFFFFFFFFFFFFFFFF AND CALLER PUSH20 0xFFFFFFFFFFFFFFFFFFFFFFFFFFFFFFFFFFFFFFFF AND EQ PUSH2 0x921 JUMPI PUSH1 0x40 MLOAD PUSH32 0x8C379A000000000000000000000000000000000000000000000000000000000 DUP2 MSTORE PUSH1 0x4 ADD PUSH2 0x918 SWAP1 PUSH2 0x13B6 JUMP JUMPDEST PUSH1 0x40 MLOAD DUP1 SWAP2 SUB SWAP1 REVERT JUMPDEST JUMP JUMPDEST PUSH1 0x3 PUSH1 0x20 MSTORE DUP1 PUSH1 0x0 MSTORE PUSH1 0x40 PUSH1 0x0 KECCAK256 PUSH1 0x0 SWAP2 POP SWAP1 POP DUP1 SLOAD PUSH2 0x942 SWAP1 PUSH2 0x1339 JUMP JUMPDEST DUP1 PUSH1 0x1F ADD PUSH1 0x20 DUP1 SWAP2 DIV MUL PUSH1 0x20 ADD PUSH1 0x40 MLOAD SWAP1 DUP2 ADD PUSH1 0x40 MSTORE DUP1 SWAP3 SWAP2 SWAP1 DUP2 DUP2 MSTORE PUSH1 0x20 ADD DUP3 DUP1 SLOAD PUSH2 0x96E SWAP1 PUSH2 0x1339 JUMP JUMPDEST DUP1 ISZERO PUSH2 0x9BB JUMPI DUP1 PUSH1 0x1F LT PUSH2 0x990 JUMPI PUSH2 0x100 DUP1 DUP4 SLOAD DIV MUL DUP4 MSTORE SWAP2 PUSH1 0x20 ADD SWAP2 PUSH2 0x9BB JUMP JUMPDEST DUP3 ADD SWAP2 SWAP1 PUSH1 0x0 MSTORE PUSH1 0x20 PUSH1 0x0 KECCAK256 SWAP1 JUMPDEST DUP2 SLOAD DUP2 MSTORE SWAP1 PUSH1 0x1 ADD SWAP1 PUSH1 0x20 ADD DUP1 DUP4 GT PUSH2 0x99E JUMPI DUP3 SWAP1 SUB PUSH1 0x1F AND DUP3 ADD SWAP2 JUMPDEST POP POP POP POP POP DUP2 JUMP JUMPDEST PUSH1 0x60 PUSH1 0x2 DUP1 SLOAD DUP1 PUSH1 0x20 MUL PUSH1 0x20 ADD PUSH1 0x40 MLOAD SWAP1 DUP2 ADD PUSH1 0x40 MSTORE DUP1 SWAP3 SWAP2 SWAP1 DUP2 DUP2 MSTORE PUSH1 0x20 ADD PUSH1 0x0 SWAP1 JUMPDEST DUP3 DUP3 LT ISZERO PUSH2 0xA93 JUMPI DUP4 DUP3 SWAP1 PUSH1 0x0 MSTORE PUSH1 0x20 PUSH1 0x0 KECCAK256 ADD DUP1 SLOAD PUSH2 0xA06 SWAP1 PUSH2 0x1339 JUMP JUMPDEST DUP1 PUSH1 0x1F ADD PUSH1 0x20 DUP1 SWAP2 DIV MUL PUSH1 0x20 ADD PUSH1 0x40 MLOAD SWAP1 DUP2 ADD PUSH1 0x40 MSTORE DUP1 SWAP3 SWAP2 SWAP1 DUP2 DUP2 MSTORE PUSH1 0x20 ADD DUP3 DUP1 SLOAD PUSH2 0xA32 SWAP1 PUSH2 0x1339 JUMP JUMPDEST DUP1 ISZERO PUSH2 0xA7F JUMPI DUP1 PUSH1 0x1F LT PUSH2 0xA54 JUMPI PUSH2 0x100 DUP1 DUP4 SLOAD DIV MUL DUP4 MSTORE SWAP2 PUSH1 0x20 ADD SWAP2 PUSH2 0xA7F JUMP JUMPDEST DUP3 ADD SWAP2 SWAP1 PUSH1 0x0 MSTORE PUSH1 0x20 PUSH1 0x0 KECCAK256 SWAP1 JUMPDEST DUP2 SLOAD DUP2 MSTORE SWAP1 PUSH1 0x1 ADD SWAP1 PUSH1 0x20 ADD DUP1 DUP4 GT PUSH2 0xA62 JUMPI DUP3 SWAP1 SUB PUSH1 0x1F AND DUP3 ADD SWAP2 JUMPDEST POP POP POP POP POP DUP2 MSTORE PUSH1 0x20 ADD SWAP1 PUSH1 0x1 ADD SWAP1 PUSH2 0x9E7 JUMP JUMPDEST POP POP POP POP SWAP1 POP SWAP1 JUMP JUMPDEST PUSH1 0x0 DUP1 SLOAD SWAP1 PUSH2 0x100 EXP SWAP1 DIV PUSH20 0xFFFFFFFFFFFFFFFFFFFFFFFFFFFFFFFFFFFFFFFF AND PUSH20 0xFFFFFFFFFFFFFFFFFFFFFFFFFFFFFFFFFFFFFFFF AND CALLER PUSH20 0xFFFFFFFFFFFFFFFFFFFFFFFFFFFFFFFFFFFFFFFF AND EQ PUSH2 0xB2A JUMPI PUSH1 0x40 MLOAD PUSH32 0x8C379A000000000000000000000000000000000000000000000000000000000 DUP2 MSTORE PUSH1 0x4 ADD PUSH2 0xB21 SWAP1 PUSH2 0x13B6 JUMP JUMPDEST PUSH1 0x40 MLOAD DUP1 SWAP2 SUB SWAP1 REVERT JUMPDEST PUSH1 0x1 DUP1 SLOAD SWAP1 POP PUSH1 0x2 DUP1 SLOAD SWAP1 POP GT PUSH2 0xCF6 JUMPI PUSH1 0x0 JUMPDEST PUSH1 0x2 DUP1 SLOAD SWAP1 POP DUP2 LT ISZERO PUSH2 0xCF4 JUMPI PUSH1 0x2 DUP2 DUP2 SLOAD DUP2 LT PUSH2 0xB5F JUMPI PUSH2 0xB5E PUSH2 0x1439 JUMP JUMPDEST JUMPDEST SWAP1 PUSH1 0x0 MSTORE PUSH1 0x20 PUSH1 0x0 KECCAK256 ADD PUSH1 0x3 PUSH1 0x0 PUSH1 0x1 DUP5 DUP2 SLOAD DUP2 LT PUSH2 0xB81 JUMPI PUSH2 0xB80 PUSH2 0x1439 JUMP JUMPDEST JUMPDEST SWAP1 PUSH1 0x0 MSTORE PUSH1 0x20 PUSH1 0x0 KECCAK256 ADD PUSH1 0x0 SWAP1 SLOAD SWAP1 PUSH2 0x100 EXP SWAP1 DIV PUSH20 0xFFFFFFFFFFFFFFFFFFFFFFFFFFFFFFFFFFFFFFFF AND PUSH20 0xFFFFFFFFFFFFFFFFFFFFFFFFFFFFFFFFFFFFFFFF AND PUSH20 0xFFFFFFFFFFFFFFFFFFFFFFFFFFFFFFFFFFFFFFFF AND DUP2 MSTORE PUSH1 0x20 ADD SWAP1 DUP2 MSTORE PUSH1 0x20 ADD PUSH1 0x0 KECCAK256 SWAP1 DUP2 PUSH2 0xBF2 SWAP2 SWAP1 PUSH2 0x16B6 JUMP JUMPDEST POP PUSH2 0xCE1 PUSH1 0x1 DUP3 DUP2 SLOAD DUP2 LT PUSH2 0xC0A JUMPI PUSH2 0xC09 PUSH2 0x1439 JUMP JUMPDEST JUMPDEST SWAP1 PUSH1 0x0 MSTORE PUSH1 0x20 PUSH1 0x0 KECCAK256 ADD PUSH1 0x0 SWAP1 SLOAD SWAP1 PUSH2 0x100 EXP SWAP1 DIV PUSH20 0xFFFFFFFFFFFFFFFFFFFFFFFFFFFFFFFFFFFFFFFF AND PUSH1 0x2 DUP4 DUP2 SLOAD DUP2 LT PUSH2 0xC49 JUMPI PUSH2 0xC48 PUSH2 0x1439 JUMP JUMPDEST JUMPDEST SWAP1 PUSH1 0x0 MSTORE PUSH1 0x20 PUSH1 0x0 KECCAK256 ADD DUP1 SLOAD PUSH2 0xC5E SWAP1 PUSH2 0x1339 JUMP JUMPDEST DUP1 PUSH1 0x1F ADD PUSH1 0x20 DUP1 SWAP2 DIV MUL PUSH1 0x20 ADD PUSH1 0x40 MLOAD SWAP1 DUP2 ADD PUSH1 0x40 MSTORE DUP1 SWAP3 SWAP2 SWAP1 DUP2 DUP2 MSTORE PUSH1 0x20 ADD DUP3 DUP1 SLOAD PUSH2 0xC8A SWAP1 PUSH2 0x1339 JUMP JUMPDEST DUP1 ISZERO PUSH2 0xCD7 JUMPI DUP1 PUSH1 0x1F LT PUSH2 0xCAC JUMPI PUSH2 0x100 DUP1 DUP4 SLOAD DIV MUL DUP4 MSTORE SWAP2 PUSH1 0x20 ADD SWAP2 PUSH2 0xCD7 JUMP JUMPDEST DUP3 ADD SWAP2 SWAP1 PUSH1 0x0 MSTORE PUSH1 0x20 PUSH1 0x0 KECCAK256 SWAP1 JUMPDEST DUP2 SLOAD DUP2 MSTORE SWAP1 PUSH1 0x1 ADD SWAP1 PUSH1 0x20 ADD DUP1 DUP4 GT PUSH2 0xCBA JUMPI DUP3 SWAP1 SUB PUSH1 0x1F AND DUP3 ADD SWAP2 JUMPDEST POP POP POP POP POP PUSH2 0x34C JUMP JUMPDEST DUP1 DUP1 PUSH2 0xCEC SWAP1 PUSH2 0x1497 JUMP JUMPDEST SWAP2 POP POP PUSH2 0xB3E JUMP JUMPDEST POP JUMPDEST JUMP JUMPDEST PUSH1 0x0 PUSH1 0x40 MLOAD SWAP1 POP SWAP1 JUMP JUMPDEST PUSH1 0x0 DUP1 REVERT JUMPDEST PUSH1 0x0 DUP1 REVERT JUMPDEST PUSH1 0x0 PUSH20 0xFFFFFFFFFFFFFFFFFFFFFFFFFFFFFFFFFFFFFFFF DUP3 AND SWAP1 POP SWAP2 SWAP1 POP JUMP JUMPDEST PUSH1 0x0 PUSH2 0xD37 DUP3 PUSH2 0xD0C JUMP JUMPDEST SWAP1 POP SWAP2 SWAP1 POP JUMP JUMPDEST PUSH2 0xD47 DUP2 PUSH2 0xD2C JUMP JUMPDEST DUP2 EQ PUSH2 0xD52 JUMPI PUSH1 0x0 DUP1 REVERT JUMPDEST POP JUMP JUMPDEST PUSH1 0x0 DUP2 CALLDATALOAD SWAP1 POP PUSH2 0xD64 DUP2 PUSH2 0xD3E JUMP JUMPDEST SWAP3 SWAP2 POP POP JUMP JUMPDEST PUSH1 0x0 PUSH1 0x20 DUP3 DUP5 SUB SLT ISZERO PUSH2 0xD80 JUMPI PUSH2 0xD7F PUSH2 0xD02 JUMP JUMPDEST JUMPDEST PUSH1 0x0 PUSH2 0xD8E DUP5 DUP3 DUP6 ADD PUSH2 0xD55 JUMP JUMPDEST SWAP2 POP POP SWAP3 SWAP2 POP POP JUMP JUMPDEST PUSH1 0x0 DUP2 MLOAD SWAP1 POP SWAP2 SWAP1 POP JUMP JUMPDEST PUSH1 0x0 DUP3 DUP3 MSTORE PUSH1 0x20 DUP3 ADD SWAP1 POP SWAP3 SWAP2 POP POP JUMP JUMPDEST PUSH1 0x0 JUMPDEST DUP4 DUP2 LT ISZERO PUSH2 0xDD1 JUMPI DUP1 DUP3 ADD MLOAD DUP2 DUP5 ADD MSTORE PUSH1 0x20 DUP2 ADD SWAP1 POP PUSH2 0xDB6 JUMP JUMPDEST PUSH1 0x0 DUP5 DUP5 ADD MSTORE POP POP POP POP JUMP JUMPDEST PUSH1 0x0 PUSH1 0x1F NOT PUSH1 0x1F DUP4 ADD AND SWAP1 POP SWAP2 SWAP1 POP JUMP JUMPDEST PUSH1 0x0 PUSH2 0xDF9 DUP3 PUSH2 0xD97 JUMP JUMPDEST PUSH2 0xE03 DUP2 DUP6 PUSH2 0xDA2 JUMP JUMPDEST SWAP4 POP PUSH2 0xE13 DUP2 DUP6 PUSH1 0x20 DUP7 ADD PUSH2 0xDB3 JUMP JUMPDEST PUSH2 0xE1C DUP2 PUSH2 0xDDD JUMP JUMPDEST DUP5 ADD SWAP2 POP POP SWAP3 SWAP2 POP POP JUMP JUMPDEST PUSH1 0x0 PUSH1 0x20 DUP3 ADD SWAP1 POP DUP2 DUP2 SUB PUSH1 0x0 DUP4 ADD MSTORE PUSH2 0xE41 DUP2 DUP5 PUSH2 0xDEE JUMP JUMPDEST SWAP1 POP SWAP3 SWAP2 POP POP JUMP JUMPDEST PUSH1 0x0 PUSH2 0xE54 DUP3 PUSH2 0xD0C JUMP JUMPDEST SWAP1 POP SWAP2 SWAP1 POP JUMP JUMPDEST PUSH2 0xE64 DUP2 PUSH2 0xE49 JUMP JUMPDEST DUP2 EQ PUSH2 0xE6F JUMPI PUSH1 0x0 DUP1 REVERT JUMPDEST POP JUMP JUMPDEST PUSH1 0x0 DUP2 CALLDATALOAD SWAP1 POP PUSH2 0xE81 DUP2 PUSH2 0xE5B JUMP JUMPDEST SWAP3 SWAP2 POP POP JUMP JUMPDEST PUSH1 0x0 DUP1 REVERT JUMPDEST PUSH1 0x0 DUP1 REVERT JUMPDEST PUSH32 0x4E487B7100000000000000000000000000000000000000000000000000000000 PUSH1 0x0 MSTORE PUSH1 0x41 PUSH1 0x4 MSTORE PUSH1 0x24 PUSH1 0x0 REVERT JUMPDEST PUSH2 0xEC9 DUP3 PUSH2 0xDDD JUMP JUMPDEST DUP2 ADD DUP2 DUP2 LT PUSH8 0xFFFFFFFFFFFFFFFF DUP3 GT OR ISZERO PUSH2 0xEE8 JUMPI PUSH2 0xEE7 PUSH2 0xE91 JUMP JUMPDEST JUMPDEST DUP1 PUSH1 0x40 MSTORE POP POP POP JUMP JUMPDEST PUSH1 0x0 PUSH2 0xEFB PUSH2 0xCF8 JUMP JUMPDEST SWAP1 POP PUSH2 0xF07 DUP3 DUP3 PUSH2 0xEC0 JUMP JUMPDEST SWAP2 SWAP1 POP JUMP JUMPDEST PUSH1 0x0 PUSH8 0xFFFFFFFFFFFFFFFF DUP3 GT ISZERO PUSH2 0xF27 JUMPI PUSH2 0xF26 PUSH2 0xE91 JUMP JUMPDEST JUMPDEST PUSH2 0xF30 DUP3 PUSH2 0xDDD JUMP JUMPDEST SWAP1 POP PUSH1 0x20 DUP2 ADD SWAP1 POP SWAP2 SWAP1 POP JUMP JUMPDEST DUP3 DUP2 DUP4 CALLDATACOPY PUSH1 0x0 DUP4 DUP4 ADD MSTORE POP POP POP JUMP JUMPDEST PUSH1 0x0 PUSH2 0xF5F PUSH2 0xF5A DUP5 PUSH2 0xF0C JUMP JUMPDEST PUSH2 0xEF1 JUMP JUMPDEST SWAP1 POP DUP3 DUP2 MSTORE PUSH1 0x20 DUP2 ADD DUP5 DUP5 DUP5 ADD GT ISZERO PUSH2 0xF7B JUMPI PUSH2 0xF7A PUSH2 0xE8C JUMP JUMPDEST JUMPDEST PUSH2 0xF86 DUP5 DUP3 DUP6 PUSH2 0xF3D JUMP JUMPDEST POP SWAP4 SWAP3 POP POP POP JUMP JUMPDEST PUSH1 0x0 DUP3 PUSH1 0x1F DUP4 ADD SLT PUSH2 0xFA3 JUMPI PUSH2 0xFA2 PUSH2 0xE87 JUMP JUMPDEST JUMPDEST DUP2 CALLDATALOAD PUSH2 0xFB3 DUP5 DUP3 PUSH1 0x20 DUP7 ADD PUSH2 0xF4C JUMP JUMPDEST SWAP2 POP POP SWAP3 SWAP2 POP POP JUMP JUMPDEST PUSH1 0x0 DUP1 PUSH1 0x40 DUP4 DUP6 SUB SLT ISZERO PUSH2 0xFD3 JUMPI PUSH2 0xFD2 PUSH2 0xD02 JUMP JUMPDEST JUMPDEST PUSH1 0x0 PUSH2 0xFE1 DUP6 DUP3 DUP7 ADD PUSH2 0xE72 JUMP JUMPDEST SWAP3 POP POP PUSH1 0x20 DUP4 ADD CALLDATALOAD PUSH8 0xFFFFFFFFFFFFFFFF DUP2 GT ISZERO PUSH2 0x1002 JUMPI PUSH2 0x1001 PUSH2 0xD07 JUMP JUMPDEST JUMPDEST PUSH2 0x100E DUP6 DUP3 DUP7 ADD PUSH2 0xF8E JUMP JUMPDEST SWAP2 POP POP SWAP3 POP SWAP3 SWAP1 POP JUMP JUMPDEST PUSH1 0x0 DUP2 SWAP1 POP SWAP2 SWAP1 POP JUMP JUMPDEST PUSH2 0x102B DUP2 PUSH2 0x1018 JUMP JUMPDEST DUP2 EQ PUSH2 0x1036 JUMPI PUSH1 0x0 DUP1 REVERT JUMPDEST POP JUMP JUMPDEST PUSH1 0x0 DUP2 CALLDATALOAD SWAP1 POP PUSH2 0x1048 DUP2 PUSH2 0x1022 JUMP JUMPDEST SWAP3 SWAP2 POP POP JUMP JUMPDEST PUSH1 0x0 PUSH1 0x20 DUP3 DUP5 SUB SLT ISZERO PUSH2 0x1064 JUMPI PUSH2 0x1063 PUSH2 0xD02 JUMP JUMPDEST JUMPDEST PUSH1 0x0 PUSH2 0x1072 DUP5 DUP3 DUP6 ADD PUSH2 0x1039 JUMP JUMPDEST SWAP2 POP POP SWAP3 SWAP2 POP POP JUMP JUMPDEST PUSH1 0x0 PUSH1 0x20 DUP3 DUP5 SUB SLT ISZERO PUSH2 0x1091 JUMPI PUSH2 0x1090 PUSH2 0xD02 JUMP JUMPDEST JUMPDEST PUSH1 0x0 PUSH2 0x109F DUP5 DUP3 DUP6 ADD PUSH2 0xE72 JUMP JUMPDEST SWAP2 POP POP SWAP3 SWAP2 POP POP JUMP JUMPDEST PUSH2 0x10B1 DUP2 PUSH2 0xE49 JUMP JUMPDEST DUP3 MSTORE POP POP JUMP JUMPDEST PUSH1 0x0 PUSH1 0x20 DUP3 ADD SWAP1 POP PUSH2 0x10CC PUSH1 0x0 DUP4 ADD DUP5 PUSH2 0x10A8 JUMP JUMPDEST SWAP3 SWAP2 POP POP JUMP JUMPDEST PUSH1 0x0 DUP2 MLOAD SWAP1 POP SWAP2 SWAP1 POP JUMP JUMPDEST PUSH1 0x0 DUP3 DUP3 MSTORE PUSH1 0x20 DUP3 ADD SWAP1 POP SWAP3 SWAP2 POP POP JUMP JUMPDEST PUSH1 0x0 DUP2 SWAP1 POP PUSH1 0x20 DUP3 ADD SWAP1 POP SWAP2 SWAP1 POP JUMP JUMPDEST PUSH2 0x1107 DUP2 PUSH2 0xE49 JUMP JUMPDEST DUP3 MSTORE POP POP JUMP JUMPDEST PUSH1 0x0 PUSH2 0x1119 DUP4 DUP4 PUSH2 0x10FE JUMP JUMPDEST PUSH1 0x20 DUP4 ADD SWAP1 POP SWAP3 SWAP2 POP POP JUMP JUMPDEST PUSH1 0x0 PUSH1 0x20 DUP3 ADD SWAP1 POP SWAP2 SWAP1 POP JUMP JUMPDEST PUSH1 0x0 PUSH2 0x113D DUP3 PUSH2 0x10D2 JUMP JUMPDEST PUSH2 0x1147 DUP2 DUP6 PUSH2 0x10DD JUMP JUMPDEST SWAP4 POP PUSH2 0x1152 DUP4 PUSH2 0x10EE JUMP JUMPDEST DUP1 PUSH1 0x0 JUMPDEST DUP4 DUP2 LT ISZERO PUSH2 0x1183 JUMPI DUP2 MLOAD PUSH2 0x116A DUP9 DUP3 PUSH2 0x110D JUMP JUMPDEST SWAP8 POP PUSH2 0x1175 DUP4 PUSH2 0x1125 JUMP JUMPDEST SWAP3 POP POP PUSH1 0x1 DUP2 ADD SWAP1 POP PUSH2 0x1156 JUMP JUMPDEST POP DUP6 SWAP4 POP POP POP POP SWAP3 SWAP2 POP POP JUMP JUMPDEST PUSH1 0x0 PUSH1 0x20 DUP3 ADD SWAP1 POP DUP2 DUP2 SUB PUSH1 0x0 DUP4 ADD MSTORE PUSH2 0x11AA DUP2 DUP5 PUSH2 0x1132 JUMP JUMPDEST SWAP1 POP SWAP3 SWAP2 POP POP JUMP JUMPDEST PUSH2 0x11BB DUP2 PUSH2 0xD2C JUMP JUMPDEST DUP3 MSTORE POP POP JUMP JUMPDEST PUSH1 0x0 PUSH1 0x20 DUP3 ADD SWAP1 POP PUSH2 0x11D6 PUSH1 0x0 DUP4 ADD DUP5 PUSH2 0x11B2 JUMP JUMPDEST SWAP3 SWAP2 POP POP JUMP JUMPDEST PUSH1 0x0 DUP2 MLOAD SWAP1 POP SWAP2 SWAP1 POP JUMP JUMPDEST PUSH1 0x0 DUP3 DUP3 MSTORE PUSH1 0x20 DUP3 ADD SWAP1 POP SWAP3 SWAP2 POP POP JUMP JUMPDEST PUSH1 0x0 DUP2 SWAP1 POP PUSH1 0x20 DUP3 ADD SWAP1 POP SWAP2 SWAP1 POP JUMP JUMPDEST PUSH1 0x0 DUP3 DUP3 MSTORE PUSH1 0x20 DUP3 ADD SWAP1 POP SWAP3 SWAP2 POP POP JUMP JUMPDEST PUSH1 0x0 PUSH2 0x1224 DUP3 PUSH2 0xD97 JUMP JUMPDEST PUSH2 0x122E DUP2 DUP6 PUSH2 0x1208 JUMP JUMPDEST SWAP4 POP PUSH2 0x123E DUP2 DUP6 PUSH1 0x20 DUP7 ADD PUSH2 0xDB3 JUMP JUMPDEST PUSH2 0x1247 DUP2 PUSH2 0xDDD JUMP JUMPDEST DUP5 ADD SWAP2 POP POP SWAP3 SWAP2 POP POP JUMP JUMPDEST PUSH1 0x0 PUSH2 0x125E DUP4 DUP4 PUSH2 0x1219 JUMP JUMPDEST SWAP1 POP SWAP3 SWAP2 POP POP JUMP JUMPDEST PUSH1 0x0 PUSH1 0x20 DUP3 ADD SWAP1 POP SWAP2 SWAP1 POP JUMP JUMPDEST PUSH1 0x0 PUSH2 0x127E DUP3 PUSH2 0x11DC JUMP JUMPDEST PUSH2 0x1288 DUP2 DUP6 PUSH2 0x11E7 JUMP JUMPDEST SWAP4 POP DUP4 PUSH1 0x20 DUP3 MUL DUP6 ADD PUSH2 0x129A DUP6 PUSH2 0x11F8 JUMP JUMPDEST DUP1 PUSH1 0x0 JUMPDEST DUP6 DUP2 LT ISZERO PUSH2 0x12D6 JUMPI DUP5 DUP5 SUB DUP10 MSTORE DUP2 MLOAD PUSH2 0x12B7 DUP6 DUP3 PUSH2 0x1252 JUMP JUMPDEST SWAP5 POP PUSH2 0x12C2 DUP4 PUSH2 0x1266 JUMP JUMPDEST SWAP3 POP PUSH1 0x20 DUP11 ADD SWAP10 POP POP PUSH1 0x1 DUP2 ADD SWAP1 POP PUSH2 0x129E JUMP JUMPDEST POP DUP3 SWAP8 POP DUP8 SWAP6 POP POP POP POP POP POP SWAP3 SWAP2 POP POP JUMP JUMPDEST PUSH1 0x0 PUSH1 0x20 DUP3 ADD SWAP1 POP DUP2 DUP2 SUB PUSH1 0x0 DUP4 ADD MSTORE PUSH2 0x1302 DUP2 DUP5 PUSH2 0x1273 JUMP JUMPDEST SWAP1 POP SWAP3 SWAP2 POP POP JUMP JUMPDEST PUSH32 0x4E487B7100000000000000000000000000000000000000000000000000000000 PUSH1 0x0 MSTORE PUSH1 0x22 PUSH1 0x4 MSTORE PUSH1 0x24 PUSH1 0x0 REVERT JUMPDEST PUSH1 0x0 PUSH1 0x2 DUP3 DIV SWAP1 POP PUSH1 0x1 DUP3 AND DUP1 PUSH2 0x1351 JUMPI PUSH1 0x7F DUP3 AND SWAP2 POP JUMPDEST PUSH1 0x20 DUP3 LT DUP2 SUB PUSH2 0x1364 JUMPI PUSH2 0x1363 PUSH2 0x130A JUMP JUMPDEST JUMPDEST POP SWAP2 SWAP1 POP JUMP JUMPDEST PUSH32 0x6F6E6C79206F776E65722063616E207069636B207468652077696E6E65720000 PUSH1 0x0 DUP3 ADD MSTORE POP JUMP JUMPDEST PUSH1 0x0 PUSH2 0x13A0 PUSH1 0x1E DUP4 PUSH2 0xDA2 JUMP JUMPDEST SWAP2 POP PUSH2 0x13AB DUP3 PUSH2 0x136A JUMP JUMPDEST PUSH1 0x20 DUP3 ADD SWAP1 POP SWAP2 SWAP1 POP JUMP JUMPDEST PUSH1 0x0 PUSH1 0x20 DUP3 ADD SWAP1 POP DUP2 DUP2 SUB PUSH1 0x0 DUP4 ADD MSTORE PUSH2 0x13CF DUP2 PUSH2 0x1393 JUMP JUMPDEST SWAP1 POP SWAP2 SWAP1 POP JUMP JUMPDEST PUSH32 0x4E487B7100000000000000000000000000000000000000000000000000000000 PUSH1 0x0 MSTORE PUSH1 0x11 PUSH1 0x4 MSTORE PUSH1 0x24 PUSH1 0x0 REVERT JUMPDEST PUSH1 0x0 PUSH2 0x1410 DUP3 PUSH2 0x1018 JUMP JUMPDEST SWAP2 POP PUSH2 0x141B DUP4 PUSH2 0x1018 JUMP JUMPDEST SWAP3 POP DUP3 DUP3 SUB SWAP1 POP DUP2 DUP2 GT ISZERO PUSH2 0x1433 JUMPI PUSH2 0x1432 PUSH2 0x13D6 JUMP JUMPDEST JUMPDEST SWAP3 SWAP2 POP POP JUMP JUMPDEST PUSH32 0x4E487B7100000000000000000000000000000000000000000000000000000000 PUSH1 0x0 MSTORE PUSH1 0x32 PUSH1 0x4 MSTORE PUSH1 0x24 PUSH1 0x0 REVERT JUMPDEST PUSH32 0x4E487B7100000000000000000000000000000000000000000000000000000000 PUSH1 0x0 MSTORE PUSH1 0x31 PUSH1 0x4 MSTORE PUSH1 0x24 PUSH1 0x0 REVERT JUMPDEST PUSH1 0x0 PUSH2 0x14A2 DUP3 PUSH2 0x1018 JUMP JUMPDEST SWAP2 POP PUSH32 0xFFFFFFFFFFFFFFFFFFFFFFFFFFFFFFFFFFFFFFFFFFFFFFFFFFFFFFFFFFFFFFFF DUP3 SUB PUSH2 0x14D4 JUMPI PUSH2 0x14D3 PUSH2 0x13D6 JUMP JUMPDEST JUMPDEST PUSH1 0x1 DUP3 ADD SWAP1 POP SWAP2 SWAP1 POP JUMP JUMPDEST PUSH1 0x0 DUP2 SLOAD SWAP1 POP PUSH2 0x14EE DUP2 PUSH2 0x1339 JUMP JUMPDEST SWAP1 POP SWAP2 SWAP1 POP JUMP JUMPDEST PUSH1 0x0 DUP2 SWAP1 POP DUP2 PUSH1 0x0 MSTORE PUSH1 0x20 PUSH1 0x0 KECCAK256 SWAP1 POP SWAP2 SWAP1 POP JUMP JUMPDEST PUSH1 0x0 DUP2 SWAP1 POP DUP2 PUSH1 0x0 MSTORE PUSH1 0x20 PUSH1 0x0 KECCAK256 SWAP1 POP SWAP2 SWAP1 POP JUMP JUMPDEST PUSH1 0x0 PUSH1 0x20 PUSH1 0x1F DUP4 ADD DIV SWAP1 POP SWAP2 SWAP1 POP JUMP JUMPDEST PUSH1 0x0 DUP3 DUP3 SHL SWAP1 POP SWAP3 SWAP2 POP POP JUMP JUMPDEST PUSH1 0x0 PUSH1 0x8 DUP4 MUL PUSH2 0x156C PUSH32 0xFFFFFFFFFFFFFFFFFFFFFFFFFFFFFFFFFFFFFFFFFFFFFFFFFFFFFFFFFFFFFFFF DUP3 PUSH2 0x152F JUMP JUMPDEST PUSH2 0x1576 DUP7 DUP4 PUSH2 0x152F JUMP JUMPDEST SWAP6 POP DUP1 NOT DUP5 AND SWAP4 POP DUP1 DUP7 AND DUP5 OR SWAP3 POP POP POP SWAP4 SWAP3 POP POP POP JUMP JUMPDEST PUSH1 0x0 DUP2 SWAP1 POP SWAP2 SWAP1 POP JUMP JUMPDEST PUSH1 0x0 PUSH2 0x15B3 PUSH2 0x15AE PUSH2 0x15A9 DUP5 PUSH2 0x1018 JUMP JUMPDEST PUSH2 0x158E JUMP JUMPDEST PUSH2 0x1018 JUMP JUMPDEST SWAP1 POP SWAP2 SWAP1 POP JUMP JUMPDEST PUSH1 0x0 DUP2 SWAP1 POP SWAP2 SWAP1 POP JUMP JUMPDEST PUSH2 0x15CD DUP4 PUSH2 0x1598 JUMP JUMPDEST PUSH2 0x15E1 PUSH2 0x15D9 DUP3 PUSH2 0x15BA JUMP JUMPDEST DUP5 DUP5 SLOAD PUSH2 0x153C JUMP JUMPDEST DUP3 SSTORE POP POP POP POP JUMP JUMPDEST PUSH1 0x0 SWAP1 JUMP JUMPDEST PUSH2 0x15F6 PUSH2 0x15E9 JUMP JUMPDEST PUSH2 0x1601 DUP2 DUP5 DUP5 PUSH2 0x15C4 JUMP JUMPDEST POP POP POP JUMP JUMPDEST JUMPDEST DUP2 DUP2 LT ISZERO PUSH2 0x1625 JUMPI PUSH2 0x161A PUSH1 0x0 DUP3 PUSH2 0x15EE JUMP JUMPDEST PUSH1 0x1 DUP2 ADD SWAP1 POP PUSH2 0x1607 JUMP JUMPDEST POP POP JUMP JUMPDEST PUSH1 0x1F DUP3 GT ISZERO PUSH2 0x166A JUMPI PUSH2 0x163B DUP2 PUSH2 0x14F5 JUMP JUMPDEST PUSH2 0x1644 DUP5 PUSH2 0x151F JUMP JUMPDEST DUP2 ADD PUSH1 0x20 DUP6 LT ISZERO PUSH2 0x1653 JUMPI DUP2 SWAP1 POP JUMPDEST PUSH2 0x1667 PUSH2 0x165F DUP6 PUSH2 0x151F JUMP JUMPDEST DUP4 ADD DUP3 PUSH2 0x1606 JUMP JUMPDEST POP POP JUMPDEST POP POP POP JUMP JUMPDEST PUSH1 0x0 DUP3 DUP3 SHR SWAP1 POP SWAP3 SWAP2 POP POP JUMP JUMPDEST PUSH1 0x0 PUSH2 0x168D PUSH1 0x0 NOT DUP5 PUSH1 0x8 MUL PUSH2 0x166F JUMP JUMPDEST NOT DUP1 DUP4 AND SWAP2 POP POP SWAP3 SWAP2 POP POP JUMP JUMPDEST PUSH1 0x0 PUSH2 0x16A6 DUP4 DUP4 PUSH2 0x167C JUMP JUMPDEST SWAP2 POP DUP3 PUSH1 0x2 MUL DUP3 OR SWAP1 POP SWAP3 SWAP2 POP POP JUMP JUMPDEST DUP2 DUP2 SUB PUSH2 0x16C4 JUMPI POP POP PUSH2 0x179C JUMP JUMPDEST PUSH2 0x16CD DUP3 PUSH2 0x14DF JUMP JUMPDEST PUSH8 0xFFFFFFFFFFFFFFFF DUP2 GT ISZERO PUSH2 0x16E6 JUMPI PUSH2 0x16E5 PUSH2 0xE91 JUMP JUMPDEST JUMPDEST PUSH2 0x16F0 DUP3 SLOAD PUSH2 0x1339 JUMP JUMPDEST PUSH2 0x16FB DUP3 DUP3 DUP6 PUSH2 0x1629 JUMP JUMPDEST PUSH1 0x0 PUSH1 0x1F DUP4 GT PUSH1 0x1 DUP2 EQ PUSH2 0x172A JUMPI PUSH1 0x0 DUP5 ISZERO PUSH2 0x1718 JUMPI DUP3 DUP8 ADD SLOAD SWAP1 POP JUMPDEST PUSH2 0x1722 DUP6 DUP3 PUSH2 0x169A JUMP JUMPDEST DUP7 SSTORE POP PUSH2 0x1795 JUMP JUMPDEST PUSH1 0x1F NOT DUP5 AND PUSH2 0x1738 DUP8 PUSH2 0x150A JUMP JUMPDEST SWAP7 POP PUSH2 0x1743 DUP7 PUSH2 0x14F5 JUMP JUMPDEST PUSH1 0x0 JUMPDEST DUP3 DUP2 LT ISZERO PUSH2 0x176B JUMPI DUP5 DUP10 ADD SLOAD DUP3 SSTORE PUSH1 0x1 DUP3 ADD SWAP2 POP PUSH1 0x1 DUP6 ADD SWAP5 POP PUSH1 0x20 DUP2 ADD SWAP1 POP PUSH2 0x1746 JUMP JUMPDEST DUP7 DUP4 LT ISZERO PUSH2 0x1788 JUMPI DUP5 DUP10 ADD SLOAD PUSH2 0x1784 PUSH1 0x1F DUP10 AND DUP3 PUSH2 0x167C JUMP JUMPDEST DUP4 SSTORE POP JUMPDEST PUSH1 0x1 PUSH1 0x2 DUP9 MUL ADD DUP9 SSTORE POP POP POP JUMPDEST POP POP POP POP POP POP JUMPDEST JUMP INVALID LOG2 PUSH5 0x6970667358 0x22 SLT KECCAK256 CALLER JUMP 0xEF SSTORE 0xD2 0xDA SWAP3 0x4C DUP14 0xD6 SWAP10 PUSH10 0xD260A335D2A16CE5CC43 SWAP8 MUL 0x4A 0xD1 SELFBALANCE DUP8 DUP9 0xE7 PUSH22 0x2D64736F6C6343000811003300000000000000000000 "
				},
				"gasEstimates": {
					"creation": {
						"codeDepositCost": "1220000",
						"executionCost": "infinite",
						"totalCost": "infinite"
					},
					"external": {
						"addShareHolders(address)": "51224",
						"askingFromHolders()": "2622",
						"distribute()": "infinite",
						"getShareHolders()": "infinite",
						"getShares()": "infinite",
						"notifySendingToHolders(address,string)": "infinite",
						"owner()": "2578",
						"regenerate(address)": "479",
						"remove(uint256)": "infinite",
						"removeShareHolders(address)": "infinite",
						"shareHolders(uint256)": "5045",
						"shareHoldersMap(address)": "infinite",
						"shares(uint256)": "infinite",
						"sharesMap(address)": "infinite"
					}
				},
				"methodIdentifiers": {
					"addShareHolders(address)": "790a0940",
					"askingFromHolders()": "9a5eec33",
					"distribute()": "e4fc6b6d",
					"getShareHolders()": "8477d9f3",
					"getShares()": "d73fe0aa",
					"notifySendingToHolders(address,string)": "3f8b4866",
					"owner()": "8da5cb5b",
					"regenerate(address)": "0623f1d7",
					"remove(uint256)": "4cc82215",
					"removeShareHolders(address)": "50e78191",
					"shareHolders(uint256)": "7427a40c",
					"shareHoldersMap(address)": "d534cc0e",
					"shares(uint256)": "57a858fc",
					"sharesMap(address)": "1e1cf160"
				}
			},
			"storageLayout": {
				"storage": [
					{
						"astId": 3,
						"contract": "contracts/ShareSecretNative.sol:SecretShare",
						"label": "owner",
						"offset": 0,
						"slot": "0",
						"type": "t_address"
					},
					{
						"astId": 6,
						"contract": "contracts/ShareSecretNative.sol:SecretShare",
						"label": "shareHolders",
						"offset": 0,
						"slot": "1",
						"type": "t_array(t_address_payable)dyn_storage"
					},
					{
						"astId": 9,
						"contract": "contracts/ShareSecretNative.sol:SecretShare",
						"label": "shares",
						"offset": 0,
						"slot": "2",
						"type": "t_array(t_string_storage)dyn_storage"
					},
					{
						"astId": 13,
						"contract": "contracts/ShareSecretNative.sol:SecretShare",
						"label": "shareHoldersMap",
						"offset": 0,
						"slot": "3",
						"type": "t_mapping(t_address,t_string_storage)"
					},
					{
						"astId": 17,
						"contract": "contracts/ShareSecretNative.sol:SecretShare",
						"label": "sharesMap",
						"offset": 0,
						"slot": "4",
						"type": "t_mapping(t_address,t_string_storage)"
					}
				],
				"types": {
					"t_address": {
						"encoding": "inplace",
						"label": "address",
						"numberOfBytes": "20"
					},
					"t_address_payable": {
						"encoding": "inplace",
						"label": "address payable",
						"numberOfBytes": "20"
					},
					"t_array(t_address_payable)dyn_storage": {
						"base": "t_address_payable",
						"encoding": "dynamic_array",
						"label": "address payable[]",
						"numberOfBytes": "32"
					},
					"t_array(t_string_storage)dyn_storage": {
						"base": "t_string_storage",
						"encoding": "dynamic_array",
						"label": "string[]",
						"numberOfBytes": "32"
					},
					"t_mapping(t_address,t_string_storage)": {
						"encoding": "mapping",
						"key": "t_address",
						"label": "mapping(address => string)",
						"numberOfBytes": "32",
						"value": "t_string_storage"
					},
					"t_string_storage": {
						"encoding": "bytes",
						"label": "string",
						"numberOfBytes": "32"
					}
				}
			},
			"userdoc": {
				"kind": "user",
				"methods": {},
				"version": 1
			}
		}
	}
}