{
	"contracts/ShareSecret.sol": {
		"PublicContract": {
			"abi": [
				{
					"inputs": [
						{
							"internalType": "string",
							"name": "name",
							"type": "string"
						}
					],
					"name": "getAddress",
					"outputs": [
						{
							"internalType": "contract Node",
							"name": "",
							"type": "address"
						}
					],
					"stateMutability": "view",
					"type": "function"
				},
				{
					"inputs": [
						{
							"internalType": "string",
							"name": "",
							"type": "string"
						}
					],
					"name": "nodesMap",
					"outputs": [
						{
							"internalType": "contract Node",
							"name": "",
							"type": "address"
						}
					],
					"stateMutability": "view",
					"type": "function"
				},
				{
					"inputs": [
						{
							"internalType": "string",
							"name": "name",
							"type": "string"
						}
					],
					"name": "notifyShareHolders",
					"outputs": [],
					"stateMutability": "nonpayable",
					"type": "function"
				},
				{
					"inputs": [
						{
							"internalType": "string",
							"name": "name",
							"type": "string"
						}
					],
					"name": "regenerateSecret",
					"outputs": [
						{
							"internalType": "string[]",
							"name": "",
							"type": "string[]"
						}
					],
					"stateMutability": "view",
					"type": "function"
				},
				{
					"inputs": [
						{
							"internalType": "string",
							"name": "name",
							"type": "string"
						},
						{
							"internalType": "contract Node",
							"name": "node",
							"type": "address"
						}
					],
					"name": "register",
					"outputs": [],
					"stateMutability": "nonpayable",
					"type": "function"
				}
			],
			"devdoc": {
				"kind": "dev",
				"methods": {},
				"version": 1
			},
			"evm": {
				"assembly": "    /* \"contracts/ShareSecret.sol\":3334:4002  contract PublicContract {... */\n  mstore(0x40, 0x80)\n  callvalue\n  dup1\n  iszero\n  tag_1\n  jumpi\n  0x00\n  dup1\n  revert\ntag_1:\n  pop\n  dataSize(sub_0)\n  dup1\n  dataOffset(sub_0)\n  0x00\n  codecopy\n  0x00\n  return\nstop\n\nsub_0: assembly {\n        /* \"contracts/ShareSecret.sol\":3334:4002  contract PublicContract {... */\n      mstore(0x40, 0x80)\n      callvalue\n      dup1\n      iszero\n      tag_1\n      jumpi\n      0x00\n      dup1\n      revert\n    tag_1:\n      pop\n      jumpi(tag_2, lt(calldatasize, 0x04))\n      shr(0xe0, calldataload(0x00))\n      dup1\n      0x1e59c529\n      eq\n      tag_3\n      jumpi\n      dup1\n      0x3b31b59b\n      eq\n      tag_4\n      jumpi\n      dup1\n      0x6d71b697\n      eq\n      tag_5\n      jumpi\n      dup1\n      0xbf40fac1\n      eq\n      tag_6\n      jumpi\n      dup1\n      0xf3bd37a0\n      eq\n      tag_7\n      jumpi\n    tag_2:\n      0x00\n      dup1\n      revert\n        /* \"contracts/ShareSecret.sol\":3518:3624  function register(string memory name,Node node)public {... */\n    tag_3:\n      tag_8\n      0x04\n      dup1\n      calldatasize\n      sub\n      dup2\n      add\n      swap1\n      tag_9\n      swap2\n      swap1\n      tag_10\n      jump\t// in\n    tag_9:\n      tag_11\n      jump\t// in\n    tag_8:\n      stop\n        /* \"contracts/ShareSecret.sol\":3629:3779  function notifyShareHolders(string memory name)public {... */\n    tag_4:\n      tag_12\n      0x04\n      dup1\n      calldatasize\n      sub\n      dup2\n      add\n      swap1\n      tag_13\n      swap2\n      swap1\n      tag_14\n      jump\t// in\n    tag_13:\n      tag_15\n      jump\t// in\n    tag_12:\n      stop\n        /* \"contracts/ShareSecret.sol\":3364:3403  mapping(string => Node) public nodesMap */\n    tag_5:\n      tag_16\n      0x04\n      dup1\n      calldatasize\n      sub\n      dup2\n      add\n      swap1\n      tag_17\n      swap2\n      swap1\n      tag_14\n      jump\t// in\n    tag_17:\n      tag_18\n      jump\t// in\n    tag_16:\n      mload(0x40)\n      tag_19\n      swap2\n      swap1\n      tag_20\n      jump\t// in\n    tag_19:\n      mload(0x40)\n      dup1\n      swap2\n      sub\n      swap1\n      return\n        /* \"contracts/ShareSecret.sol\":3410:3513  function getAddress(string memory name) public view returns(Node){... */\n    tag_6:\n      tag_21\n      0x04\n      dup1\n      calldatasize\n      sub\n      dup2\n      add\n      swap1\n      tag_22\n      swap2\n      swap1\n      tag_14\n      jump\t// in\n    tag_22:\n      tag_23\n      jump\t// in\n    tag_21:\n      mload(0x40)\n      tag_24\n      swap2\n      swap1\n      tag_20\n      jump\t// in\n    tag_24:\n      mload(0x40)\n      dup1\n      swap2\n      sub\n      swap1\n      return\n        /* \"contracts/ShareSecret.sol\":3784:3993  function regenerateSecret(string memory name)public view returns (string[] memory){... */\n    tag_7:\n      tag_25\n      0x04\n      dup1\n      calldatasize\n      sub\n      dup2\n      add\n      swap1\n      tag_26\n      swap2\n      swap1\n      tag_14\n      jump\t// in\n    tag_26:\n      tag_27\n      jump\t// in\n    tag_25:\n      mload(0x40)\n      tag_28\n      swap2\n      swap1\n      tag_29\n      jump\t// in\n    tag_28:\n      mload(0x40)\n      dup1\n      swap2\n      sub\n      swap1\n      return\n        /* \"contracts/ShareSecret.sol\":3518:3624  function register(string memory name,Node node)public {... */\n    tag_11:\n        /* \"contracts/ShareSecret.sol\":3597:3601  node */\n      dup1\n        /* \"contracts/ShareSecret.sol\":3582:3590  nodesMap */\n      0x00\n        /* \"contracts/ShareSecret.sol\":3591:3595  name */\n      dup4\n        /* \"contracts/ShareSecret.sol\":3582:3596  nodesMap[name] */\n      mload(0x40)\n      tag_31\n      swap2\n      swap1\n      tag_32\n      jump\t// in\n    tag_31:\n      swap1\n      dup2\n      mstore\n      0x20\n      add\n      mload(0x40)\n      dup1\n      swap2\n      sub\n      swap1\n      keccak256\n      0x00\n        /* \"contracts/ShareSecret.sol\":3582:3601  nodesMap[name]=node */\n      0x0100\n      exp\n      dup2\n      sload\n      dup2\n      0xffffffffffffffffffffffffffffffffffffffff\n      mul\n      not\n      and\n      swap1\n      dup4\n      0xffffffffffffffffffffffffffffffffffffffff\n      and\n      mul\n      or\n      swap1\n      sstore\n      pop\n        /* \"contracts/ShareSecret.sol\":3518:3624  function register(string memory name,Node node)public {... */\n      pop\n      pop\n      jump\t// out\n        /* \"contracts/ShareSecret.sol\":3629:3779  function notifyShareHolders(string memory name)public {... */\n    tag_15:\n        /* \"contracts/ShareSecret.sol\":3693:3704  Node myNode */\n      0x00\n        /* \"contracts/ShareSecret.sol\":3706:3714  nodesMap */\n      dup1\n        /* \"contracts/ShareSecret.sol\":3715:3719  name */\n      dup3\n        /* \"contracts/ShareSecret.sol\":3706:3720  nodesMap[name] */\n      mload(0x40)\n      tag_34\n      swap2\n      swap1\n      tag_32\n      jump\t// in\n    tag_34:\n      swap1\n      dup2\n      mstore\n      0x20\n      add\n      mload(0x40)\n      dup1\n      swap2\n      sub\n      swap1\n      keccak256\n      0x00\n      swap1\n      sload\n      swap1\n      0x0100\n      exp\n      swap1\n      div\n      0xffffffffffffffffffffffffffffffffffffffff\n      and\n        /* \"contracts/ShareSecret.sol\":3693:3720  Node myNode= nodesMap[name] */\n      swap1\n      pop\n        /* \"contracts/ShareSecret.sol\":3730:3736  myNode */\n      dup1\n        /* \"contracts/ShareSecret.sol\":3730:3754  myNode.askingFromHolders */\n      0xffffffffffffffffffffffffffffffffffffffff\n      and\n      0x9a5eec33\n        /* \"contracts/ShareSecret.sol\":3730:3756  myNode.askingFromHolders() */\n      mload(0x40)\n      dup2\n      0xffffffff\n      and\n      0xe0\n      shl\n      dup2\n      mstore\n      0x04\n      add\n      0x00\n      mload(0x40)\n      dup1\n      dup4\n      sub\n      dup2\n      0x00\n      dup8\n      dup1\n      extcodesize\n      iszero\n      dup1\n      iszero\n      tag_35\n      jumpi\n      0x00\n      dup1\n      revert\n    tag_35:\n      pop\n      gas\n      call\n      iszero\n      dup1\n      iszero\n      tag_37\n      jumpi\n      returndatasize\n      0x00\n      dup1\n      returndatacopy\n      revert(0x00, returndatasize)\n    tag_37:\n      pop\n      pop\n      pop\n      pop\n        /* \"contracts/ShareSecret.sol\":3766:3773  return; */\n      pop\n        /* \"contracts/ShareSecret.sol\":3629:3779  function notifyShareHolders(string memory name)public {... */\n      pop\n      jump\t// out\n        /* \"contracts/ShareSecret.sol\":3364:3403  mapping(string => Node) public nodesMap */\n    tag_18:\n      0x00\n      dup2\n      dup1\n      mload\n      0x20\n      dup2\n      add\n      dup3\n      add\n      dup1\n      mload\n      dup5\n      dup3\n      mstore\n      0x20\n      dup4\n      add\n      0x20\n      dup6\n      add\n      keccak256\n      dup2\n      dup4\n      mstore\n      dup1\n      swap6\n      pop\n      pop\n      pop\n      pop\n      pop\n      pop\n      0x00\n      swap2\n      pop\n      sload\n      swap1\n      0x0100\n      exp\n      swap1\n      div\n      0xffffffffffffffffffffffffffffffffffffffff\n      and\n      dup2\n      jump\t// out\n        /* \"contracts/ShareSecret.sol\":3410:3513  function getAddress(string memory name) public view returns(Node){... */\n    tag_23:\n        /* \"contracts/ShareSecret.sol\":3470:3474  Node */\n      0x00\n        /* \"contracts/ShareSecret.sol\":3492:3500  nodesMap */\n      dup1\n        /* \"contracts/ShareSecret.sol\":3501:3505  name */\n      dup3\n        /* \"contracts/ShareSecret.sol\":3492:3506  nodesMap[name] */\n      mload(0x40)\n      tag_39\n      swap2\n      swap1\n      tag_32\n      jump\t// in\n    tag_39:\n      swap1\n      dup2\n      mstore\n      0x20\n      add\n      mload(0x40)\n      dup1\n      swap2\n      sub\n      swap1\n      keccak256\n      0x00\n      swap1\n      sload\n      swap1\n      0x0100\n      exp\n      swap1\n      div\n      0xffffffffffffffffffffffffffffffffffffffff\n      and\n        /* \"contracts/ShareSecret.sol\":3485:3506  return nodesMap[name] */\n      swap1\n      pop\n        /* \"contracts/ShareSecret.sol\":3410:3513  function getAddress(string memory name) public view returns(Node){... */\n      swap2\n      swap1\n      pop\n      jump\t// out\n        /* \"contracts/ShareSecret.sol\":3784:3993  function regenerateSecret(string memory name)public view returns (string[] memory){... */\n    tag_27:\n        /* \"contracts/ShareSecret.sol\":3850:3865  string[] memory */\n      0x60\n        /* \"contracts/ShareSecret.sol\":3876:3887  Node myNode */\n      0x00\n        /* \"contracts/ShareSecret.sol\":3889:3897  nodesMap */\n      dup1\n        /* \"contracts/ShareSecret.sol\":3898:3902  name */\n      dup4\n        /* \"contracts/ShareSecret.sol\":3889:3903  nodesMap[name] */\n      mload(0x40)\n      tag_41\n      swap2\n      swap1\n      tag_32\n      jump\t// in\n    tag_41:\n      swap1\n      dup2\n      mstore\n      0x20\n      add\n      mload(0x40)\n      dup1\n      swap2\n      sub\n      swap1\n      keccak256\n      0x00\n      swap1\n      sload\n      swap1\n      0x0100\n      exp\n      swap1\n      div\n      0xffffffffffffffffffffffffffffffffffffffff\n      and\n        /* \"contracts/ShareSecret.sol\":3876:3903  Node myNode= nodesMap[name] */\n      swap1\n      pop\n        /* \"contracts/ShareSecret.sol\":3913:3939  string[] memory shares_new */\n      0x00\n        /* \"contracts/ShareSecret.sol\":3940:3946  myNode */\n      dup2\n        /* \"contracts/ShareSecret.sol\":3940:3957  myNode.regenerate */\n      0xffffffffffffffffffffffffffffffffffffffff\n      and\n      0x17377f68\n        /* \"contracts/ShareSecret.sol\":3940:3959  myNode.regenerate() */\n      mload(0x40)\n      dup2\n      0xffffffff\n      and\n      0xe0\n      shl\n      dup2\n      mstore\n      0x04\n      add\n      0x00\n      mload(0x40)\n      dup1\n      dup4\n      sub\n      dup2\n      dup7\n      gas\n      staticcall\n      iszero\n      dup1\n      iszero\n      tag_43\n      jumpi\n      returndatasize\n      0x00\n      dup1\n      returndatacopy\n      revert(0x00, returndatasize)\n    tag_43:\n      pop\n      pop\n      pop\n      pop\n      mload(0x40)\n      returndatasize\n      0x00\n      dup3\n      returndatacopy\n      returndatasize\n      not(0x1f)\n      0x1f\n      dup3\n      add\n      and\n      dup3\n      add\n      dup1\n      0x40\n      mstore\n      pop\n      dup2\n      add\n      swap1\n      tag_44\n      swap2\n      swap1\n      tag_45\n      jump\t// in\n    tag_44:\n        /* \"contracts/ShareSecret.sol\":3913:3959  string[] memory shares_new=myNode.regenerate() */\n      swap1\n      pop\n        /* \"contracts/ShareSecret.sol\":3976:3986  shares_new */\n      dup1\n        /* \"contracts/ShareSecret.sol\":3969:3986  return shares_new */\n      swap3\n      pop\n      pop\n      pop\n        /* \"contracts/ShareSecret.sol\":3784:3993  function regenerateSecret(string memory name)public view returns (string[] memory){... */\n      swap2\n      swap1\n      pop\n      jump\t// out\n        /* \"#utility.yul\":7:82   */\n    tag_46:\n        /* \"#utility.yul\":40:46   */\n      0x00\n        /* \"#utility.yul\":73:75   */\n      0x40\n        /* \"#utility.yul\":67:76   */\n      mload\n        /* \"#utility.yul\":57:76   */\n      swap1\n      pop\n        /* \"#utility.yul\":7:82   */\n      swap1\n      jump\t// out\n        /* \"#utility.yul\":88:205   */\n    tag_47:\n        /* \"#utility.yul\":197:198   */\n      0x00\n        /* \"#utility.yul\":194:195   */\n      dup1\n        /* \"#utility.yul\":187:199   */\n      revert\n        /* \"#utility.yul\":211:328   */\n    tag_48:\n        /* \"#utility.yul\":320:321   */\n      0x00\n        /* \"#utility.yul\":317:318   */\n      dup1\n        /* \"#utility.yul\":310:322   */\n      revert\n        /* \"#utility.yul\":334:451   */\n    tag_49:\n        /* \"#utility.yul\":443:444   */\n      0x00\n        /* \"#utility.yul\":440:441   */\n      dup1\n        /* \"#utility.yul\":433:445   */\n      revert\n        /* \"#utility.yul\":457:574   */\n    tag_50:\n        /* \"#utility.yul\":566:567   */\n      0x00\n        /* \"#utility.yul\":563:564   */\n      dup1\n        /* \"#utility.yul\":556:568   */\n      revert\n        /* \"#utility.yul\":580:682   */\n    tag_51:\n        /* \"#utility.yul\":621:627   */\n      0x00\n        /* \"#utility.yul\":672:674   */\n      0x1f\n        /* \"#utility.yul\":668:675   */\n      not\n        /* \"#utility.yul\":663:665   */\n      0x1f\n        /* \"#utility.yul\":656:661   */\n      dup4\n        /* \"#utility.yul\":652:666   */\n      add\n        /* \"#utility.yul\":648:676   */\n      and\n        /* \"#utility.yul\":638:676   */\n      swap1\n      pop\n        /* \"#utility.yul\":580:682   */\n      swap2\n      swap1\n      pop\n      jump\t// out\n        /* \"#utility.yul\":688:868   */\n    tag_52:\n        /* \"#utility.yul\":736:813   */\n      0x4e487b7100000000000000000000000000000000000000000000000000000000\n        /* \"#utility.yul\":733:734   */\n      0x00\n        /* \"#utility.yul\":726:814   */\n      mstore\n        /* \"#utility.yul\":833:837   */\n      0x41\n        /* \"#utility.yul\":830:831   */\n      0x04\n        /* \"#utility.yul\":823:838   */\n      mstore\n        /* \"#utility.yul\":857:861   */\n      0x24\n        /* \"#utility.yul\":854:855   */\n      0x00\n        /* \"#utility.yul\":847:862   */\n      revert\n        /* \"#utility.yul\":874:1155   */\n    tag_53:\n        /* \"#utility.yul\":957:984   */\n      tag_96\n        /* \"#utility.yul\":979:983   */\n      dup3\n        /* \"#utility.yul\":957:984   */\n      tag_51\n      jump\t// in\n    tag_96:\n        /* \"#utility.yul\":949:955   */\n      dup2\n        /* \"#utility.yul\":945:985   */\n      add\n        /* \"#utility.yul\":1087:1093   */\n      dup2\n        /* \"#utility.yul\":1075:1085   */\n      dup2\n        /* \"#utility.yul\":1072:1094   */\n      lt\n        /* \"#utility.yul\":1051:1069   */\n      0xffffffffffffffff\n        /* \"#utility.yul\":1039:1049   */\n      dup3\n        /* \"#utility.yul\":1036:1070   */\n      gt\n        /* \"#utility.yul\":1033:1095   */\n      or\n        /* \"#utility.yul\":1030:1118   */\n      iszero\n      tag_97\n      jumpi\n        /* \"#utility.yul\":1098:1116   */\n      tag_98\n      tag_52\n      jump\t// in\n    tag_98:\n        /* \"#utility.yul\":1030:1118   */\n    tag_97:\n        /* \"#utility.yul\":1138:1148   */\n      dup1\n        /* \"#utility.yul\":1134:1136   */\n      0x40\n        /* \"#utility.yul\":1127:1149   */\n      mstore\n        /* \"#utility.yul\":917:1155   */\n      pop\n        /* \"#utility.yul\":874:1155   */\n      pop\n      pop\n      jump\t// out\n        /* \"#utility.yul\":1161:1290   */\n    tag_54:\n        /* \"#utility.yul\":1195:1201   */\n      0x00\n        /* \"#utility.yul\":1222:1242   */\n      tag_100\n      tag_46\n      jump\t// in\n    tag_100:\n        /* \"#utility.yul\":1212:1242   */\n      swap1\n      pop\n        /* \"#utility.yul\":1251:1284   */\n      tag_101\n        /* \"#utility.yul\":1279:1283   */\n      dup3\n        /* \"#utility.yul\":1271:1277   */\n      dup3\n        /* \"#utility.yul\":1251:1284   */\n      tag_53\n      jump\t// in\n    tag_101:\n        /* \"#utility.yul\":1161:1290   */\n      swap2\n      swap1\n      pop\n      jump\t// out\n        /* \"#utility.yul\":1296:1604   */\n    tag_55:\n        /* \"#utility.yul\":1358:1362   */\n      0x00\n        /* \"#utility.yul\":1448:1466   */\n      0xffffffffffffffff\n        /* \"#utility.yul\":1440:1446   */\n      dup3\n        /* \"#utility.yul\":1437:1467   */\n      gt\n        /* \"#utility.yul\":1434:1490   */\n      iszero\n      tag_103\n      jumpi\n        /* \"#utility.yul\":1470:1488   */\n      tag_104\n      tag_52\n      jump\t// in\n    tag_104:\n        /* \"#utility.yul\":1434:1490   */\n    tag_103:\n        /* \"#utility.yul\":1508:1537   */\n      tag_105\n        /* \"#utility.yul\":1530:1536   */\n      dup3\n        /* \"#utility.yul\":1508:1537   */\n      tag_51\n      jump\t// in\n    tag_105:\n        /* \"#utility.yul\":1500:1537   */\n      swap1\n      pop\n        /* \"#utility.yul\":1592:1596   */\n      0x20\n        /* \"#utility.yul\":1586:1590   */\n      dup2\n        /* \"#utility.yul\":1582:1597   */\n      add\n        /* \"#utility.yul\":1574:1597   */\n      swap1\n      pop\n        /* \"#utility.yul\":1296:1604   */\n      swap2\n      swap1\n      pop\n      jump\t// out\n        /* \"#utility.yul\":1610:1756   */\n    tag_56:\n        /* \"#utility.yul\":1707:1713   */\n      dup3\n        /* \"#utility.yul\":1702:1705   */\n      dup2\n        /* \"#utility.yul\":1697:1700   */\n      dup4\n        /* \"#utility.yul\":1684:1714   */\n      calldatacopy\n        /* \"#utility.yul\":1748:1749   */\n      0x00\n        /* \"#utility.yul\":1739:1745   */\n      dup4\n        /* \"#utility.yul\":1734:1737   */\n      dup4\n        /* \"#utility.yul\":1730:1746   */\n      add\n        /* \"#utility.yul\":1723:1750   */\n      mstore\n        /* \"#utility.yul\":1610:1756   */\n      pop\n      pop\n      pop\n      jump\t// out\n        /* \"#utility.yul\":1762:2187   */\n    tag_57:\n        /* \"#utility.yul\":1840:1845   */\n      0x00\n        /* \"#utility.yul\":1865:1931   */\n      tag_108\n        /* \"#utility.yul\":1881:1930   */\n      tag_109\n        /* \"#utility.yul\":1923:1929   */\n      dup5\n        /* \"#utility.yul\":1881:1930   */\n      tag_55\n      jump\t// in\n    tag_109:\n        /* \"#utility.yul\":1865:1931   */\n      tag_54\n      jump\t// in\n    tag_108:\n        /* \"#utility.yul\":1856:1931   */\n      swap1\n      pop\n        /* \"#utility.yul\":1954:1960   */\n      dup3\n        /* \"#utility.yul\":1947:1952   */\n      dup2\n        /* \"#utility.yul\":1940:1961   */\n      mstore\n        /* \"#utility.yul\":1992:1996   */\n      0x20\n        /* \"#utility.yul\":1985:1990   */\n      dup2\n        /* \"#utility.yul\":1981:1997   */\n      add\n        /* \"#utility.yul\":2030:2033   */\n      dup5\n        /* \"#utility.yul\":2021:2027   */\n      dup5\n        /* \"#utility.yul\":2016:2019   */\n      dup5\n        /* \"#utility.yul\":2012:2028   */\n      add\n        /* \"#utility.yul\":2009:2034   */\n      gt\n        /* \"#utility.yul\":2006:2118   */\n      iszero\n      tag_110\n      jumpi\n        /* \"#utility.yul\":2037:2116   */\n      tag_111\n      tag_50\n      jump\t// in\n    tag_111:\n        /* \"#utility.yul\":2006:2118   */\n    tag_110:\n        /* \"#utility.yul\":2127:2181   */\n      tag_112\n        /* \"#utility.yul\":2174:2180   */\n      dup5\n        /* \"#utility.yul\":2169:2172   */\n      dup3\n        /* \"#utility.yul\":2164:2167   */\n      dup6\n        /* \"#utility.yul\":2127:2181   */\n      tag_56\n      jump\t// in\n    tag_112:\n        /* \"#utility.yul\":1846:2187   */\n      pop\n        /* \"#utility.yul\":1762:2187   */\n      swap4\n      swap3\n      pop\n      pop\n      pop\n      jump\t// out\n        /* \"#utility.yul\":2207:2547   */\n    tag_58:\n        /* \"#utility.yul\":2263:2268   */\n      0x00\n        /* \"#utility.yul\":2312:2315   */\n      dup3\n        /* \"#utility.yul\":2305:2309   */\n      0x1f\n        /* \"#utility.yul\":2297:2303   */\n      dup4\n        /* \"#utility.yul\":2293:2310   */\n      add\n        /* \"#utility.yul\":2289:2316   */\n      slt\n        /* \"#utility.yul\":2279:2401   */\n      tag_114\n      jumpi\n        /* \"#utility.yul\":2320:2399   */\n      tag_115\n      tag_49\n      jump\t// in\n    tag_115:\n        /* \"#utility.yul\":2279:2401   */\n    tag_114:\n        /* \"#utility.yul\":2437:2443   */\n      dup2\n        /* \"#utility.yul\":2424:2444   */\n      calldataload\n        /* \"#utility.yul\":2462:2541   */\n      tag_116\n        /* \"#utility.yul\":2537:2540   */\n      dup5\n        /* \"#utility.yul\":2529:2535   */\n      dup3\n        /* \"#utility.yul\":2522:2526   */\n      0x20\n        /* \"#utility.yul\":2514:2520   */\n      dup7\n        /* \"#utility.yul\":2510:2527   */\n      add\n        /* \"#utility.yul\":2462:2541   */\n      tag_57\n      jump\t// in\n    tag_116:\n        /* \"#utility.yul\":2453:2541   */\n      swap2\n      pop\n        /* \"#utility.yul\":2269:2547   */\n      pop\n        /* \"#utility.yul\":2207:2547   */\n      swap3\n      swap2\n      pop\n      pop\n      jump\t// out\n        /* \"#utility.yul\":2553:2679   */\n    tag_59:\n        /* \"#utility.yul\":2590:2597   */\n      0x00\n        /* \"#utility.yul\":2630:2672   */\n      0xffffffffffffffffffffffffffffffffffffffff\n        /* \"#utility.yul\":2623:2628   */\n      dup3\n        /* \"#utility.yul\":2619:2673   */\n      and\n        /* \"#utility.yul\":2608:2673   */\n      swap1\n      pop\n        /* \"#utility.yul\":2553:2679   */\n      swap2\n      swap1\n      pop\n      jump\t// out\n        /* \"#utility.yul\":2685:2781   */\n    tag_60:\n        /* \"#utility.yul\":2722:2729   */\n      0x00\n        /* \"#utility.yul\":2751:2775   */\n      tag_119\n        /* \"#utility.yul\":2769:2774   */\n      dup3\n        /* \"#utility.yul\":2751:2775   */\n      tag_59\n      jump\t// in\n    tag_119:\n        /* \"#utility.yul\":2740:2775   */\n      swap1\n      pop\n        /* \"#utility.yul\":2685:2781   */\n      swap2\n      swap1\n      pop\n      jump\t// out\n        /* \"#utility.yul\":2787:2895   */\n    tag_61:\n        /* \"#utility.yul\":2836:2843   */\n      0x00\n        /* \"#utility.yul\":2865:2889   */\n      tag_121\n        /* \"#utility.yul\":2883:2888   */\n      dup3\n        /* \"#utility.yul\":2865:2889   */\n      tag_60\n      jump\t// in\n    tag_121:\n        /* \"#utility.yul\":2854:2889   */\n      swap1\n      pop\n        /* \"#utility.yul\":2787:2895   */\n      swap2\n      swap1\n      pop\n      jump\t// out\n        /* \"#utility.yul\":2901:3047   */\n    tag_62:\n        /* \"#utility.yul\":2986:3022   */\n      tag_123\n        /* \"#utility.yul\":3016:3021   */\n      dup2\n        /* \"#utility.yul\":2986:3022   */\n      tag_61\n      jump\t// in\n    tag_123:\n        /* \"#utility.yul\":2979:2984   */\n      dup2\n        /* \"#utility.yul\":2976:3023   */\n      eq\n        /* \"#utility.yul\":2966:3041   */\n      tag_124\n      jumpi\n        /* \"#utility.yul\":3037:3038   */\n      0x00\n        /* \"#utility.yul\":3034:3035   */\n      dup1\n        /* \"#utility.yul\":3027:3039   */\n      revert\n        /* \"#utility.yul\":2966:3041   */\n    tag_124:\n        /* \"#utility.yul\":2901:3047   */\n      pop\n      jump\t// out\n        /* \"#utility.yul\":3053:3216   */\n    tag_63:\n        /* \"#utility.yul\":3111:3116   */\n      0x00\n        /* \"#utility.yul\":3149:3155   */\n      dup2\n        /* \"#utility.yul\":3136:3156   */\n      calldataload\n        /* \"#utility.yul\":3127:3156   */\n      swap1\n      pop\n        /* \"#utility.yul\":3165:3210   */\n      tag_126\n        /* \"#utility.yul\":3204:3209   */\n      dup2\n        /* \"#utility.yul\":3165:3210   */\n      tag_62\n      jump\t// in\n    tag_126:\n        /* \"#utility.yul\":3053:3216   */\n      swap3\n      swap2\n      pop\n      pop\n      jump\t// out\n        /* \"#utility.yul\":3222:3900   */\n    tag_10:\n        /* \"#utility.yul\":3312:3318   */\n      0x00\n        /* \"#utility.yul\":3320:3326   */\n      dup1\n        /* \"#utility.yul\":3369:3371   */\n      0x40\n        /* \"#utility.yul\":3357:3366   */\n      dup4\n        /* \"#utility.yul\":3348:3355   */\n      dup6\n        /* \"#utility.yul\":3344:3367   */\n      sub\n        /* \"#utility.yul\":3340:3372   */\n      slt\n        /* \"#utility.yul\":3337:3456   */\n      iszero\n      tag_128\n      jumpi\n        /* \"#utility.yul\":3375:3454   */\n      tag_129\n      tag_47\n      jump\t// in\n    tag_129:\n        /* \"#utility.yul\":3337:3456   */\n    tag_128:\n        /* \"#utility.yul\":3523:3524   */\n      0x00\n        /* \"#utility.yul\":3512:3521   */\n      dup4\n        /* \"#utility.yul\":3508:3525   */\n      add\n        /* \"#utility.yul\":3495:3526   */\n      calldataload\n        /* \"#utility.yul\":3553:3571   */\n      0xffffffffffffffff\n        /* \"#utility.yul\":3545:3551   */\n      dup2\n        /* \"#utility.yul\":3542:3572   */\n      gt\n        /* \"#utility.yul\":3539:3656   */\n      iszero\n      tag_130\n      jumpi\n        /* \"#utility.yul\":3575:3654   */\n      tag_131\n      tag_48\n      jump\t// in\n    tag_131:\n        /* \"#utility.yul\":3539:3656   */\n    tag_130:\n        /* \"#utility.yul\":3680:3743   */\n      tag_132\n        /* \"#utility.yul\":3735:3742   */\n      dup6\n        /* \"#utility.yul\":3726:3732   */\n      dup3\n        /* \"#utility.yul\":3715:3724   */\n      dup7\n        /* \"#utility.yul\":3711:3733   */\n      add\n        /* \"#utility.yul\":3680:3743   */\n      tag_58\n      jump\t// in\n    tag_132:\n        /* \"#utility.yul\":3670:3743   */\n      swap3\n      pop\n        /* \"#utility.yul\":3466:3753   */\n      pop\n        /* \"#utility.yul\":3792:3794   */\n      0x20\n        /* \"#utility.yul\":3818:3883   */\n      tag_133\n        /* \"#utility.yul\":3875:3882   */\n      dup6\n        /* \"#utility.yul\":3866:3872   */\n      dup3\n        /* \"#utility.yul\":3855:3864   */\n      dup7\n        /* \"#utility.yul\":3851:3873   */\n      add\n        /* \"#utility.yul\":3818:3883   */\n      tag_63\n      jump\t// in\n    tag_133:\n        /* \"#utility.yul\":3808:3883   */\n      swap2\n      pop\n        /* \"#utility.yul\":3763:3893   */\n      pop\n        /* \"#utility.yul\":3222:3900   */\n      swap3\n      pop\n      swap3\n      swap1\n      pop\n      jump\t// out\n        /* \"#utility.yul\":3906:4415   */\n    tag_14:\n        /* \"#utility.yul\":3975:3981   */\n      0x00\n        /* \"#utility.yul\":4024:4026   */\n      0x20\n        /* \"#utility.yul\":4012:4021   */\n      dup3\n        /* \"#utility.yul\":4003:4010   */\n      dup5\n        /* \"#utility.yul\":3999:4022   */\n      sub\n        /* \"#utility.yul\":3995:4027   */\n      slt\n        /* \"#utility.yul\":3992:4111   */\n      iszero\n      tag_135\n      jumpi\n        /* \"#utility.yul\":4030:4109   */\n      tag_136\n      tag_47\n      jump\t// in\n    tag_136:\n        /* \"#utility.yul\":3992:4111   */\n    tag_135:\n        /* \"#utility.yul\":4178:4179   */\n      0x00\n        /* \"#utility.yul\":4167:4176   */\n      dup3\n        /* \"#utility.yul\":4163:4180   */\n      add\n        /* \"#utility.yul\":4150:4181   */\n      calldataload\n        /* \"#utility.yul\":4208:4226   */\n      0xffffffffffffffff\n        /* \"#utility.yul\":4200:4206   */\n      dup2\n        /* \"#utility.yul\":4197:4227   */\n      gt\n        /* \"#utility.yul\":4194:4311   */\n      iszero\n      tag_137\n      jumpi\n        /* \"#utility.yul\":4230:4309   */\n      tag_138\n      tag_48\n      jump\t// in\n    tag_138:\n        /* \"#utility.yul\":4194:4311   */\n    tag_137:\n        /* \"#utility.yul\":4335:4398   */\n      tag_139\n        /* \"#utility.yul\":4390:4397   */\n      dup5\n        /* \"#utility.yul\":4381:4387   */\n      dup3\n        /* \"#utility.yul\":4370:4379   */\n      dup6\n        /* \"#utility.yul\":4366:4388   */\n      add\n        /* \"#utility.yul\":4335:4398   */\n      tag_58\n      jump\t// in\n    tag_139:\n        /* \"#utility.yul\":4325:4398   */\n      swap2\n      pop\n        /* \"#utility.yul\":4121:4408   */\n      pop\n        /* \"#utility.yul\":3906:4415   */\n      swap3\n      swap2\n      pop\n      pop\n      jump\t// out\n        /* \"#utility.yul\":4421:4481   */\n    tag_64:\n        /* \"#utility.yul\":4449:4452   */\n      0x00\n        /* \"#utility.yul\":4470:4475   */\n      dup2\n        /* \"#utility.yul\":4463:4475   */\n      swap1\n      pop\n        /* \"#utility.yul\":4421:4481   */\n      swap2\n      swap1\n      pop\n      jump\t// out\n        /* \"#utility.yul\":4487:4629   */\n    tag_65:\n        /* \"#utility.yul\":4537:4546   */\n      0x00\n        /* \"#utility.yul\":4570:4623   */\n      tag_142\n        /* \"#utility.yul\":4588:4622   */\n      tag_143\n        /* \"#utility.yul\":4597:4621   */\n      tag_144\n        /* \"#utility.yul\":4615:4620   */\n      dup5\n        /* \"#utility.yul\":4597:4621   */\n      tag_59\n      jump\t// in\n    tag_144:\n        /* \"#utility.yul\":4588:4622   */\n      tag_64\n      jump\t// in\n    tag_143:\n        /* \"#utility.yul\":4570:4623   */\n      tag_59\n      jump\t// in\n    tag_142:\n        /* \"#utility.yul\":4557:4623   */\n      swap1\n      pop\n        /* \"#utility.yul\":4487:4629   */\n      swap2\n      swap1\n      pop\n      jump\t// out\n        /* \"#utility.yul\":4635:4761   */\n    tag_66:\n        /* \"#utility.yul\":4685:4694   */\n      0x00\n        /* \"#utility.yul\":4718:4755   */\n      tag_146\n        /* \"#utility.yul\":4749:4754   */\n      dup3\n        /* \"#utility.yul\":4718:4755   */\n      tag_65\n      jump\t// in\n    tag_146:\n        /* \"#utility.yul\":4705:4755   */\n      swap1\n      pop\n        /* \"#utility.yul\":4635:4761   */\n      swap2\n      swap1\n      pop\n      jump\t// out\n        /* \"#utility.yul\":4767:4905   */\n    tag_67:\n        /* \"#utility.yul\":4829:4838   */\n      0x00\n        /* \"#utility.yul\":4862:4899   */\n      tag_148\n        /* \"#utility.yul\":4893:4898   */\n      dup3\n        /* \"#utility.yul\":4862:4899   */\n      tag_66\n      jump\t// in\n    tag_148:\n        /* \"#utility.yul\":4849:4899   */\n      swap1\n      pop\n        /* \"#utility.yul\":4767:4905   */\n      swap2\n      swap1\n      pop\n      jump\t// out\n        /* \"#utility.yul\":4911:5066   */\n    tag_68:\n        /* \"#utility.yul\":5010:5059   */\n      tag_150\n        /* \"#utility.yul\":5053:5058   */\n      dup2\n        /* \"#utility.yul\":5010:5059   */\n      tag_67\n      jump\t// in\n    tag_150:\n        /* \"#utility.yul\":5005:5008   */\n      dup3\n        /* \"#utility.yul\":4998:5060   */\n      mstore\n        /* \"#utility.yul\":4911:5066   */\n      pop\n      pop\n      jump\t// out\n        /* \"#utility.yul\":5072:5318   */\n    tag_20:\n        /* \"#utility.yul\":5177:5181   */\n      0x00\n        /* \"#utility.yul\":5215:5217   */\n      0x20\n        /* \"#utility.yul\":5204:5213   */\n      dup3\n        /* \"#utility.yul\":5200:5218   */\n      add\n        /* \"#utility.yul\":5192:5218   */\n      swap1\n      pop\n        /* \"#utility.yul\":5228:5311   */\n      tag_152\n        /* \"#utility.yul\":5308:5309   */\n      0x00\n        /* \"#utility.yul\":5297:5306   */\n      dup4\n        /* \"#utility.yul\":5293:5310   */\n      add\n        /* \"#utility.yul\":5284:5290   */\n      dup5\n        /* \"#utility.yul\":5228:5311   */\n      tag_68\n      jump\t// in\n    tag_152:\n        /* \"#utility.yul\":5072:5318   */\n      swap3\n      swap2\n      pop\n      pop\n      jump\t// out\n        /* \"#utility.yul\":5324:5448   */\n    tag_69:\n        /* \"#utility.yul\":5401:5407   */\n      0x00\n        /* \"#utility.yul\":5435:5440   */\n      dup2\n        /* \"#utility.yul\":5429:5441   */\n      mload\n        /* \"#utility.yul\":5419:5441   */\n      swap1\n      pop\n        /* \"#utility.yul\":5324:5448   */\n      swap2\n      swap1\n      pop\n      jump\t// out\n        /* \"#utility.yul\":5454:5648   */\n    tag_70:\n        /* \"#utility.yul\":5563:5574   */\n      0x00\n        /* \"#utility.yul\":5597:5603   */\n      dup3\n        /* \"#utility.yul\":5592:5595   */\n      dup3\n        /* \"#utility.yul\":5585:5604   */\n      mstore\n        /* \"#utility.yul\":5637:5641   */\n      0x20\n        /* \"#utility.yul\":5632:5635   */\n      dup3\n        /* \"#utility.yul\":5628:5642   */\n      add\n        /* \"#utility.yul\":5613:5642   */\n      swap1\n      pop\n        /* \"#utility.yul\":5454:5648   */\n      swap3\n      swap2\n      pop\n      pop\n      jump\t// out\n        /* \"#utility.yul\":5654:5796   */\n    tag_71:\n        /* \"#utility.yul\":5731:5735   */\n      0x00\n        /* \"#utility.yul\":5754:5757   */\n      dup2\n        /* \"#utility.yul\":5746:5757   */\n      swap1\n      pop\n        /* \"#utility.yul\":5784:5788   */\n      0x20\n        /* \"#utility.yul\":5779:5782   */\n      dup3\n        /* \"#utility.yul\":5775:5789   */\n      add\n        /* \"#utility.yul\":5767:5789   */\n      swap1\n      pop\n        /* \"#utility.yul\":5654:5796   */\n      swap2\n      swap1\n      pop\n      jump\t// out\n        /* \"#utility.yul\":5802:5901   */\n    tag_72:\n        /* \"#utility.yul\":5854:5860   */\n      0x00\n        /* \"#utility.yul\":5888:5893   */\n      dup2\n        /* \"#utility.yul\":5882:5894   */\n      mload\n        /* \"#utility.yul\":5872:5894   */\n      swap1\n      pop\n        /* \"#utility.yul\":5802:5901   */\n      swap2\n      swap1\n      pop\n      jump\t// out\n        /* \"#utility.yul\":5907:6066   */\n    tag_73:\n        /* \"#utility.yul\":5981:5992   */\n      0x00\n        /* \"#utility.yul\":6015:6021   */\n      dup3\n        /* \"#utility.yul\":6010:6013   */\n      dup3\n        /* \"#utility.yul\":6003:6022   */\n      mstore\n        /* \"#utility.yul\":6055:6059   */\n      0x20\n        /* \"#utility.yul\":6050:6053   */\n      dup3\n        /* \"#utility.yul\":6046:6060   */\n      add\n        /* \"#utility.yul\":6031:6060   */\n      swap1\n      pop\n        /* \"#utility.yul\":5907:6066   */\n      swap3\n      swap2\n      pop\n      pop\n      jump\t// out\n        /* \"#utility.yul\":6072:6318   */\n    tag_74:\n        /* \"#utility.yul\":6153:6154   */\n      0x00\n        /* \"#utility.yul\":6163:6276   */\n    tag_159:\n        /* \"#utility.yul\":6177:6183   */\n      dup4\n        /* \"#utility.yul\":6174:6175   */\n      dup2\n        /* \"#utility.yul\":6171:6184   */\n      lt\n        /* \"#utility.yul\":6163:6276   */\n      iszero\n      tag_161\n      jumpi\n        /* \"#utility.yul\":6262:6263   */\n      dup1\n        /* \"#utility.yul\":6257:6260   */\n      dup3\n        /* \"#utility.yul\":6253:6264   */\n      add\n        /* \"#utility.yul\":6247:6265   */\n      mload\n        /* \"#utility.yul\":6243:6244   */\n      dup2\n        /* \"#utility.yul\":6238:6241   */\n      dup5\n        /* \"#utility.yul\":6234:6245   */\n      add\n        /* \"#utility.yul\":6227:6266   */\n      mstore\n        /* \"#utility.yul\":6199:6201   */\n      0x20\n        /* \"#utility.yul\":6196:6197   */\n      dup2\n        /* \"#utility.yul\":6192:6202   */\n      add\n        /* \"#utility.yul\":6187:6202   */\n      swap1\n      pop\n        /* \"#utility.yul\":6163:6276   */\n      jump(tag_159)\n    tag_161:\n        /* \"#utility.yul\":6310:6311   */\n      0x00\n        /* \"#utility.yul\":6301:6307   */\n      dup5\n        /* \"#utility.yul\":6296:6299   */\n      dup5\n        /* \"#utility.yul\":6292:6308   */\n      add\n        /* \"#utility.yul\":6285:6312   */\n      mstore\n        /* \"#utility.yul\":6134:6318   */\n      pop\n        /* \"#utility.yul\":6072:6318   */\n      pop\n      pop\n      pop\n      jump\t// out\n        /* \"#utility.yul\":6324:6681   */\n    tag_75:\n        /* \"#utility.yul\":6402:6405   */\n      0x00\n        /* \"#utility.yul\":6430:6469   */\n      tag_163\n        /* \"#utility.yul\":6463:6468   */\n      dup3\n        /* \"#utility.yul\":6430:6469   */\n      tag_72\n      jump\t// in\n    tag_163:\n        /* \"#utility.yul\":6485:6546   */\n      tag_164\n        /* \"#utility.yul\":6539:6545   */\n      dup2\n        /* \"#utility.yul\":6534:6537   */\n      dup6\n        /* \"#utility.yul\":6485:6546   */\n      tag_73\n      jump\t// in\n    tag_164:\n        /* \"#utility.yul\":6478:6546   */\n      swap4\n      pop\n        /* \"#utility.yul\":6555:6620   */\n      tag_165\n        /* \"#utility.yul\":6613:6619   */\n      dup2\n        /* \"#utility.yul\":6608:6611   */\n      dup6\n        /* \"#utility.yul\":6601:6605   */\n      0x20\n        /* \"#utility.yul\":6594:6599   */\n      dup7\n        /* \"#utility.yul\":6590:6606   */\n      add\n        /* \"#utility.yul\":6555:6620   */\n      tag_74\n      jump\t// in\n    tag_165:\n        /* \"#utility.yul\":6645:6674   */\n      tag_166\n        /* \"#utility.yul\":6667:6673   */\n      dup2\n        /* \"#utility.yul\":6645:6674   */\n      tag_51\n      jump\t// in\n    tag_166:\n        /* \"#utility.yul\":6640:6643   */\n      dup5\n        /* \"#utility.yul\":6636:6675   */\n      add\n        /* \"#utility.yul\":6629:6675   */\n      swap2\n      pop\n        /* \"#utility.yul\":6406:6681   */\n      pop\n        /* \"#utility.yul\":6324:6681   */\n      swap3\n      swap2\n      pop\n      pop\n      jump\t// out\n        /* \"#utility.yul\":6687:6883   */\n    tag_76:\n        /* \"#utility.yul\":6776:6786   */\n      0x00\n        /* \"#utility.yul\":6811:6877   */\n      tag_168\n        /* \"#utility.yul\":6873:6876   */\n      dup4\n        /* \"#utility.yul\":6865:6871   */\n      dup4\n        /* \"#utility.yul\":6811:6877   */\n      tag_75\n      jump\t// in\n    tag_168:\n        /* \"#utility.yul\":6797:6877   */\n      swap1\n      pop\n        /* \"#utility.yul\":6687:6883   */\n      swap3\n      swap2\n      pop\n      pop\n      jump\t// out\n        /* \"#utility.yul\":6889:7012   */\n    tag_77:\n        /* \"#utility.yul\":6969:6973   */\n      0x00\n        /* \"#utility.yul\":7001:7005   */\n      0x20\n        /* \"#utility.yul\":6996:6999   */\n      dup3\n        /* \"#utility.yul\":6992:7006   */\n      add\n        /* \"#utility.yul\":6984:7006   */\n      swap1\n      pop\n        /* \"#utility.yul\":6889:7012   */\n      swap2\n      swap1\n      pop\n      jump\t// out\n        /* \"#utility.yul\":7046:8037   */\n    tag_78:\n        /* \"#utility.yul\":7185:7188   */\n      0x00\n        /* \"#utility.yul\":7214:7278   */\n      tag_171\n        /* \"#utility.yul\":7272:7277   */\n      dup3\n        /* \"#utility.yul\":7214:7278   */\n      tag_69\n      jump\t// in\n    tag_171:\n        /* \"#utility.yul\":7294:7390   */\n      tag_172\n        /* \"#utility.yul\":7383:7389   */\n      dup2\n        /* \"#utility.yul\":7378:7381   */\n      dup6\n        /* \"#utility.yul\":7294:7390   */\n      tag_70\n      jump\t// in\n    tag_172:\n        /* \"#utility.yul\":7287:7390   */\n      swap4\n      pop\n        /* \"#utility.yul\":7416:7419   */\n      dup4\n        /* \"#utility.yul\":7461:7465   */\n      0x20\n        /* \"#utility.yul\":7453:7459   */\n      dup3\n        /* \"#utility.yul\":7449:7466   */\n      mul\n        /* \"#utility.yul\":7444:7447   */\n      dup6\n        /* \"#utility.yul\":7440:7467   */\n      add\n        /* \"#utility.yul\":7491:7557   */\n      tag_173\n        /* \"#utility.yul\":7551:7556   */\n      dup6\n        /* \"#utility.yul\":7491:7557   */\n      tag_71\n      jump\t// in\n    tag_173:\n        /* \"#utility.yul\":7580:7587   */\n      dup1\n        /* \"#utility.yul\":7611:7612   */\n      0x00\n        /* \"#utility.yul\":7596:7992   */\n    tag_174:\n        /* \"#utility.yul\":7621:7627   */\n      dup6\n        /* \"#utility.yul\":7618:7619   */\n      dup2\n        /* \"#utility.yul\":7615:7628   */\n      lt\n        /* \"#utility.yul\":7596:7992   */\n      iszero\n      tag_176\n      jumpi\n        /* \"#utility.yul\":7692:7701   */\n      dup5\n        /* \"#utility.yul\":7686:7690   */\n      dup5\n        /* \"#utility.yul\":7682:7702   */\n      sub\n        /* \"#utility.yul\":7677:7680   */\n      dup10\n        /* \"#utility.yul\":7670:7703   */\n      mstore\n        /* \"#utility.yul\":7743:7749   */\n      dup2\n        /* \"#utility.yul\":7737:7750   */\n      mload\n        /* \"#utility.yul\":7771:7855   */\n      tag_177\n        /* \"#utility.yul\":7850:7854   */\n      dup6\n        /* \"#utility.yul\":7835:7848   */\n      dup3\n        /* \"#utility.yul\":7771:7855   */\n      tag_76\n      jump\t// in\n    tag_177:\n        /* \"#utility.yul\":7763:7855   */\n      swap5\n      pop\n        /* \"#utility.yul\":7878:7948   */\n      tag_178\n        /* \"#utility.yul\":7941:7947   */\n      dup4\n        /* \"#utility.yul\":7878:7948   */\n      tag_77\n      jump\t// in\n    tag_178:\n        /* \"#utility.yul\":7868:7948   */\n      swap3\n      pop\n        /* \"#utility.yul\":7977:7981   */\n      0x20\n        /* \"#utility.yul\":7972:7975   */\n      dup11\n        /* \"#utility.yul\":7968:7982   */\n      add\n        /* \"#utility.yul\":7961:7982   */\n      swap10\n      pop\n        /* \"#utility.yul\":7656:7992   */\n      pop\n        /* \"#utility.yul\":7643:7644   */\n      0x01\n        /* \"#utility.yul\":7640:7641   */\n      dup2\n        /* \"#utility.yul\":7636:7645   */\n      add\n        /* \"#utility.yul\":7631:7645   */\n      swap1\n      pop\n        /* \"#utility.yul\":7596:7992   */\n      jump(tag_174)\n    tag_176:\n        /* \"#utility.yul\":7600:7614   */\n      pop\n        /* \"#utility.yul\":8008:8012   */\n      dup3\n        /* \"#utility.yul\":8001:8012   */\n      swap8\n      pop\n        /* \"#utility.yul\":8028:8031   */\n      dup8\n        /* \"#utility.yul\":8021:8031   */\n      swap6\n      pop\n        /* \"#utility.yul\":7190:8037   */\n      pop\n      pop\n      pop\n      pop\n      pop\n        /* \"#utility.yul\":7046:8037   */\n      swap3\n      swap2\n      pop\n      pop\n      jump\t// out\n        /* \"#utility.yul\":8043:8456   */\n    tag_29:\n        /* \"#utility.yul\":8206:8210   */\n      0x00\n        /* \"#utility.yul\":8244:8246   */\n      0x20\n        /* \"#utility.yul\":8233:8242   */\n      dup3\n        /* \"#utility.yul\":8229:8247   */\n      add\n        /* \"#utility.yul\":8221:8247   */\n      swap1\n      pop\n        /* \"#utility.yul\":8293:8302   */\n      dup2\n        /* \"#utility.yul\":8287:8291   */\n      dup2\n        /* \"#utility.yul\":8283:8303   */\n      sub\n        /* \"#utility.yul\":8279:8280   */\n      0x00\n        /* \"#utility.yul\":8268:8277   */\n      dup4\n        /* \"#utility.yul\":8264:8281   */\n      add\n        /* \"#utility.yul\":8257:8304   */\n      mstore\n        /* \"#utility.yul\":8321:8449   */\n      tag_180\n        /* \"#utility.yul\":8444:8448   */\n      dup2\n        /* \"#utility.yul\":8435:8441   */\n      dup5\n        /* \"#utility.yul\":8321:8449   */\n      tag_78\n      jump\t// in\n    tag_180:\n        /* \"#utility.yul\":8313:8449   */\n      swap1\n      pop\n        /* \"#utility.yul\":8043:8456   */\n      swap3\n      swap2\n      pop\n      pop\n      jump\t// out\n        /* \"#utility.yul\":8462:8610   */\n    tag_79:\n        /* \"#utility.yul\":8564:8575   */\n      0x00\n        /* \"#utility.yul\":8601:8604   */\n      dup2\n        /* \"#utility.yul\":8586:8604   */\n      swap1\n      pop\n        /* \"#utility.yul\":8462:8610   */\n      swap3\n      swap2\n      pop\n      pop\n      jump\t// out\n        /* \"#utility.yul\":8616:9006   */\n    tag_80:\n        /* \"#utility.yul\":8722:8725   */\n      0x00\n        /* \"#utility.yul\":8750:8789   */\n      tag_183\n        /* \"#utility.yul\":8783:8788   */\n      dup3\n        /* \"#utility.yul\":8750:8789   */\n      tag_72\n      jump\t// in\n    tag_183:\n        /* \"#utility.yul\":8805:8894   */\n      tag_184\n        /* \"#utility.yul\":8887:8893   */\n      dup2\n        /* \"#utility.yul\":8882:8885   */\n      dup6\n        /* \"#utility.yul\":8805:8894   */\n      tag_79\n      jump\t// in\n    tag_184:\n        /* \"#utility.yul\":8798:8894   */\n      swap4\n      pop\n        /* \"#utility.yul\":8903:8968   */\n      tag_185\n        /* \"#utility.yul\":8961:8967   */\n      dup2\n        /* \"#utility.yul\":8956:8959   */\n      dup6\n        /* \"#utility.yul\":8949:8953   */\n      0x20\n        /* \"#utility.yul\":8942:8947   */\n      dup7\n        /* \"#utility.yul\":8938:8954   */\n      add\n        /* \"#utility.yul\":8903:8968   */\n      tag_74\n      jump\t// in\n    tag_185:\n        /* \"#utility.yul\":8993:8999   */\n      dup1\n        /* \"#utility.yul\":8988:8991   */\n      dup5\n        /* \"#utility.yul\":8984:9000   */\n      add\n        /* \"#utility.yul\":8977:9000   */\n      swap2\n      pop\n        /* \"#utility.yul\":8726:9006   */\n      pop\n        /* \"#utility.yul\":8616:9006   */\n      swap3\n      swap2\n      pop\n      pop\n      jump\t// out\n        /* \"#utility.yul\":9012:9287   */\n    tag_32:\n        /* \"#utility.yul\":9144:9147   */\n      0x00\n        /* \"#utility.yul\":9166:9261   */\n      tag_187\n        /* \"#utility.yul\":9257:9260   */\n      dup3\n        /* \"#utility.yul\":9248:9254   */\n      dup5\n        /* \"#utility.yul\":9166:9261   */\n      tag_80\n      jump\t// in\n    tag_187:\n        /* \"#utility.yul\":9159:9261   */\n      swap2\n      pop\n        /* \"#utility.yul\":9278:9281   */\n      dup2\n        /* \"#utility.yul\":9271:9281   */\n      swap1\n      pop\n        /* \"#utility.yul\":9012:9287   */\n      swap3\n      swap2\n      pop\n      pop\n      jump\t// out\n        /* \"#utility.yul\":9293:9614   */\n    tag_81:\n        /* \"#utility.yul\":9380:9384   */\n      0x00\n        /* \"#utility.yul\":9470:9488   */\n      0xffffffffffffffff\n        /* \"#utility.yul\":9462:9468   */\n      dup3\n        /* \"#utility.yul\":9459:9489   */\n      gt\n        /* \"#utility.yul\":9456:9512   */\n      iszero\n      tag_189\n      jumpi\n        /* \"#utility.yul\":9492:9510   */\n      tag_190\n      tag_52\n      jump\t// in\n    tag_190:\n        /* \"#utility.yul\":9456:9512   */\n    tag_189:\n        /* \"#utility.yul\":9542:9546   */\n      0x20\n        /* \"#utility.yul\":9534:9540   */\n      dup3\n        /* \"#utility.yul\":9530:9547   */\n      mul\n        /* \"#utility.yul\":9522:9547   */\n      swap1\n      pop\n        /* \"#utility.yul\":9602:9606   */\n      0x20\n        /* \"#utility.yul\":9596:9600   */\n      dup2\n        /* \"#utility.yul\":9592:9607   */\n      add\n        /* \"#utility.yul\":9584:9607   */\n      swap1\n      pop\n        /* \"#utility.yul\":9293:9614   */\n      swap2\n      swap1\n      pop\n      jump\t// out\n        /* \"#utility.yul\":9620:9737   */\n    tag_82:\n        /* \"#utility.yul\":9729:9730   */\n      0x00\n        /* \"#utility.yul\":9726:9727   */\n      dup1\n        /* \"#utility.yul\":9719:9731   */\n      revert\n        /* \"#utility.yul\":9743:10177   */\n    tag_83:\n        /* \"#utility.yul\":9832:9837   */\n      0x00\n        /* \"#utility.yul\":9857:9923   */\n      tag_193\n        /* \"#utility.yul\":9873:9922   */\n      tag_194\n        /* \"#utility.yul\":9915:9921   */\n      dup5\n        /* \"#utility.yul\":9873:9922   */\n      tag_55\n      jump\t// in\n    tag_194:\n        /* \"#utility.yul\":9857:9923   */\n      tag_54\n      jump\t// in\n    tag_193:\n        /* \"#utility.yul\":9848:9923   */\n      swap1\n      pop\n        /* \"#utility.yul\":9946:9952   */\n      dup3\n        /* \"#utility.yul\":9939:9944   */\n      dup2\n        /* \"#utility.yul\":9932:9953   */\n      mstore\n        /* \"#utility.yul\":9984:9988   */\n      0x20\n        /* \"#utility.yul\":9977:9982   */\n      dup2\n        /* \"#utility.yul\":9973:9989   */\n      add\n        /* \"#utility.yul\":10022:10025   */\n      dup5\n        /* \"#utility.yul\":10013:10019   */\n      dup5\n        /* \"#utility.yul\":10008:10011   */\n      dup5\n        /* \"#utility.yul\":10004:10020   */\n      add\n        /* \"#utility.yul\":10001:10026   */\n      gt\n        /* \"#utility.yul\":9998:10110   */\n      iszero\n      tag_195\n      jumpi\n        /* \"#utility.yul\":10029:10108   */\n      tag_196\n      tag_50\n      jump\t// in\n    tag_196:\n        /* \"#utility.yul\":9998:10110   */\n    tag_195:\n        /* \"#utility.yul\":10119:10171   */\n      tag_197\n        /* \"#utility.yul\":10164:10170   */\n      dup5\n        /* \"#utility.yul\":10159:10162   */\n      dup3\n        /* \"#utility.yul\":10154:10157   */\n      dup6\n        /* \"#utility.yul\":10119:10171   */\n      tag_74\n      jump\t// in\n    tag_197:\n        /* \"#utility.yul\":9838:10177   */\n      pop\n        /* \"#utility.yul\":9743:10177   */\n      swap4\n      swap3\n      pop\n      pop\n      pop\n      jump\t// out\n        /* \"#utility.yul\":10197:10552   */\n    tag_84:\n        /* \"#utility.yul\":10264:10269   */\n      0x00\n        /* \"#utility.yul\":10313:10316   */\n      dup3\n        /* \"#utility.yul\":10306:10310   */\n      0x1f\n        /* \"#utility.yul\":10298:10304   */\n      dup4\n        /* \"#utility.yul\":10294:10311   */\n      add\n        /* \"#utility.yul\":10290:10317   */\n      slt\n        /* \"#utility.yul\":10280:10402   */\n      tag_199\n      jumpi\n        /* \"#utility.yul\":10321:10400   */\n      tag_200\n      tag_49\n      jump\t// in\n    tag_200:\n        /* \"#utility.yul\":10280:10402   */\n    tag_199:\n        /* \"#utility.yul\":10431:10437   */\n      dup2\n        /* \"#utility.yul\":10425:10438   */\n      mload\n        /* \"#utility.yul\":10456:10546   */\n      tag_201\n        /* \"#utility.yul\":10542:10545   */\n      dup5\n        /* \"#utility.yul\":10534:10540   */\n      dup3\n        /* \"#utility.yul\":10527:10531   */\n      0x20\n        /* \"#utility.yul\":10519:10525   */\n      dup7\n        /* \"#utility.yul\":10515:10532   */\n      add\n        /* \"#utility.yul\":10456:10546   */\n      tag_83\n      jump\t// in\n    tag_201:\n        /* \"#utility.yul\":10447:10546   */\n      swap2\n      pop\n        /* \"#utility.yul\":10270:10552   */\n      pop\n        /* \"#utility.yul\":10197:10552   */\n      swap3\n      swap2\n      pop\n      pop\n      jump\t// out\n        /* \"#utility.yul\":10574:11534   */\n    tag_85:\n        /* \"#utility.yul\":10691:10696   */\n      0x00\n        /* \"#utility.yul\":10716:10807   */\n      tag_203\n        /* \"#utility.yul\":10732:10806   */\n      tag_204\n        /* \"#utility.yul\":10799:10805   */\n      dup5\n        /* \"#utility.yul\":10732:10806   */\n      tag_81\n      jump\t// in\n    tag_204:\n        /* \"#utility.yul\":10716:10807   */\n      tag_54\n      jump\t// in\n    tag_203:\n        /* \"#utility.yul\":10707:10807   */\n      swap1\n      pop\n        /* \"#utility.yul\":10827:10832   */\n      dup1\n        /* \"#utility.yul\":10856:10862   */\n      dup4\n        /* \"#utility.yul\":10849:10854   */\n      dup3\n        /* \"#utility.yul\":10842:10863   */\n      mstore\n        /* \"#utility.yul\":10890:10894   */\n      0x20\n        /* \"#utility.yul\":10883:10888   */\n      dup3\n        /* \"#utility.yul\":10879:10895   */\n      add\n        /* \"#utility.yul\":10872:10895   */\n      swap1\n      pop\n        /* \"#utility.yul\":10943:10947   */\n      0x20\n        /* \"#utility.yul\":10935:10941   */\n      dup5\n        /* \"#utility.yul\":10931:10948   */\n      mul\n        /* \"#utility.yul\":10923:10929   */\n      dup4\n        /* \"#utility.yul\":10919:10949   */\n      add\n        /* \"#utility.yul\":10972:10975   */\n      dup6\n        /* \"#utility.yul\":10964:10970   */\n      dup2\n        /* \"#utility.yul\":10961:10976   */\n      gt\n        /* \"#utility.yul\":10958:11080   */\n      iszero\n      tag_205\n      jumpi\n        /* \"#utility.yul\":10991:11070   */\n      tag_206\n      tag_82\n      jump\t// in\n    tag_206:\n        /* \"#utility.yul\":10958:11080   */\n    tag_205:\n        /* \"#utility.yul\":11106:11112   */\n      dup4\n        /* \"#utility.yul\":11089:11528   */\n    tag_207:\n        /* \"#utility.yul\":11123:11129   */\n      dup2\n        /* \"#utility.yul\":11118:11121   */\n      dup2\n        /* \"#utility.yul\":11115:11130   */\n      lt\n        /* \"#utility.yul\":11089:11528   */\n      iszero\n      tag_209\n      jumpi\n        /* \"#utility.yul\":11205:11208   */\n      dup1\n        /* \"#utility.yul\":11199:11209   */\n      mload\n        /* \"#utility.yul\":11241:11259   */\n      0xffffffffffffffff\n        /* \"#utility.yul\":11228:11239   */\n      dup2\n        /* \"#utility.yul\":11225:11260   */\n      gt\n        /* \"#utility.yul\":11222:11344   */\n      iszero\n      tag_210\n      jumpi\n        /* \"#utility.yul\":11263:11342   */\n      tag_211\n      tag_49\n      jump\t// in\n    tag_211:\n        /* \"#utility.yul\":11222:11344   */\n    tag_210:\n        /* \"#utility.yul\":11387:11398   */\n      dup1\n        /* \"#utility.yul\":11379:11385   */\n      dup7\n        /* \"#utility.yul\":11375:11399   */\n      add\n        /* \"#utility.yul\":11425:11483   */\n      tag_212\n        /* \"#utility.yul\":11479:11482   */\n      dup10\n        /* \"#utility.yul\":11467:11477   */\n      dup3\n        /* \"#utility.yul\":11425:11483   */\n      tag_84\n      jump\t// in\n    tag_212:\n        /* \"#utility.yul\":11420:11423   */\n      dup6\n        /* \"#utility.yul\":11413:11484   */\n      mstore\n        /* \"#utility.yul\":11513:11517   */\n      0x20\n        /* \"#utility.yul\":11508:11511   */\n      dup6\n        /* \"#utility.yul\":11504:11518   */\n      add\n        /* \"#utility.yul\":11497:11518   */\n      swap5\n      pop\n        /* \"#utility.yul\":11165:11528   */\n      pop\n      pop\n        /* \"#utility.yul\":11149:11153   */\n      0x20\n        /* \"#utility.yul\":11144:11147   */\n      dup2\n        /* \"#utility.yul\":11140:11154   */\n      add\n        /* \"#utility.yul\":11133:11154   */\n      swap1\n      pop\n        /* \"#utility.yul\":11089:11528   */\n      jump(tag_207)\n    tag_209:\n        /* \"#utility.yul\":11093:11114   */\n      pop\n        /* \"#utility.yul\":10697:11534   */\n      pop\n      pop\n        /* \"#utility.yul\":10574:11534   */\n      swap4\n      swap3\n      pop\n      pop\n      pop\n      jump\t// out\n        /* \"#utility.yul\":11556:11961   */\n    tag_86:\n        /* \"#utility.yul\":11648:11653   */\n      0x00\n        /* \"#utility.yul\":11697:11700   */\n      dup3\n        /* \"#utility.yul\":11690:11694   */\n      0x1f\n        /* \"#utility.yul\":11682:11688   */\n      dup4\n        /* \"#utility.yul\":11678:11695   */\n      add\n        /* \"#utility.yul\":11674:11701   */\n      slt\n        /* \"#utility.yul\":11664:11786   */\n      tag_214\n      jumpi\n        /* \"#utility.yul\":11705:11784   */\n      tag_215\n      tag_49\n      jump\t// in\n    tag_215:\n        /* \"#utility.yul\":11664:11786   */\n    tag_214:\n        /* \"#utility.yul\":11815:11821   */\n      dup2\n        /* \"#utility.yul\":11809:11822   */\n      mload\n        /* \"#utility.yul\":11840:11955   */\n      tag_216\n        /* \"#utility.yul\":11951:11954   */\n      dup5\n        /* \"#utility.yul\":11943:11949   */\n      dup3\n        /* \"#utility.yul\":11936:11940   */\n      0x20\n        /* \"#utility.yul\":11928:11934   */\n      dup7\n        /* \"#utility.yul\":11924:11941   */\n      add\n        /* \"#utility.yul\":11840:11955   */\n      tag_85\n      jump\t// in\n    tag_216:\n        /* \"#utility.yul\":11831:11955   */\n      swap2\n      pop\n        /* \"#utility.yul\":11654:11961   */\n      pop\n        /* \"#utility.yul\":11556:11961   */\n      swap3\n      swap2\n      pop\n      pop\n      jump\t// out\n        /* \"#utility.yul\":11967:12541   */\n    tag_45:\n        /* \"#utility.yul\":12072:12078   */\n      0x00\n        /* \"#utility.yul\":12121:12123   */\n      0x20\n        /* \"#utility.yul\":12109:12118   */\n      dup3\n        /* \"#utility.yul\":12100:12107   */\n      dup5\n        /* \"#utility.yul\":12096:12119   */\n      sub\n        /* \"#utility.yul\":12092:12124   */\n      slt\n        /* \"#utility.yul\":12089:12208   */\n      iszero\n      tag_218\n      jumpi\n        /* \"#utility.yul\":12127:12206   */\n      tag_219\n      tag_47\n      jump\t// in\n    tag_219:\n        /* \"#utility.yul\":12089:12208   */\n    tag_218:\n        /* \"#utility.yul\":12268:12269   */\n      0x00\n        /* \"#utility.yul\":12257:12266   */\n      dup3\n        /* \"#utility.yul\":12253:12270   */\n      add\n        /* \"#utility.yul\":12247:12271   */\n      mload\n        /* \"#utility.yul\":12298:12316   */\n      0xffffffffffffffff\n        /* \"#utility.yul\":12290:12296   */\n      dup2\n        /* \"#utility.yul\":12287:12317   */\n      gt\n        /* \"#utility.yul\":12284:12401   */\n      iszero\n      tag_220\n      jumpi\n        /* \"#utility.yul\":12320:12399   */\n      tag_221\n      tag_48\n      jump\t// in\n    tag_221:\n        /* \"#utility.yul\":12284:12401   */\n    tag_220:\n        /* \"#utility.yul\":12425:12524   */\n      tag_222\n        /* \"#utility.yul\":12516:12523   */\n      dup5\n        /* \"#utility.yul\":12507:12513   */\n      dup3\n        /* \"#utility.yul\":12496:12505   */\n      dup6\n        /* \"#utility.yul\":12492:12514   */\n      add\n        /* \"#utility.yul\":12425:12524   */\n      tag_86\n      jump\t// in\n    tag_222:\n        /* \"#utility.yul\":12415:12524   */\n      swap2\n      pop\n        /* \"#utility.yul\":12218:12534   */\n      pop\n        /* \"#utility.yul\":11967:12541   */\n      swap3\n      swap2\n      pop\n      pop\n      jump\t// out\n\n    auxdata: 0xa26469706673582212201d51d30347ec5f60f3962ba807c2bbb86bda8d8fed2f3e7bebba9a5ced4bbc7864736f6c63430008110033\n}\n",
				"bytecode": {
					"linkReferences": {},
					"object": "608060405234801561001057600080fd5b506109f5806100206000396000f3fe608060405234801561001057600080fd5b50600436106100575760003560e01c80631e59c5291461005c5780633b31b59b146100785780636d71b69714610094578063bf40fac1146100c4578063f3bd37a0146100f4575b600080fd5b6100766004803603810190610071919061054b565b610124565b005b610092600480360381019061008d91906105a7565b610185565b005b6100ae60048036038101906100a991906105a7565b61022b565b6040516100bb919061064f565b60405180910390f35b6100de60048036038101906100d991906105a7565b610274565b6040516100eb919061064f565b60405180910390f35b61010e600480360381019061010991906105a7565b6102bb565b60405161011b91906107ab565b60405180910390f35b806000836040516101359190610809565b908152602001604051809103902060006101000a81548173ffffffffffffffffffffffffffffffffffffffff021916908373ffffffffffffffffffffffffffffffffffffffff1602179055505050565b600080826040516101969190610809565b908152602001604051809103902060009054906101000a900473ffffffffffffffffffffffffffffffffffffffff1690508073ffffffffffffffffffffffffffffffffffffffff16639a5eec336040518163ffffffff1660e01b8152600401600060405180830381600087803b15801561020f57600080fd5b505af1158015610223573d6000803e3d6000fd5b505050505050565b6000818051602081018201805184825260208301602085012081835280955050505050506000915054906101000a900473ffffffffffffffffffffffffffffffffffffffff1681565b600080826040516102859190610809565b908152602001604051809103902060009054906101000a900473ffffffffffffffffffffffffffffffffffffffff169050919050565b6060600080836040516102ce9190610809565b908152602001604051809103902060009054906101000a900473ffffffffffffffffffffffffffffffffffffffff16905060008173ffffffffffffffffffffffffffffffffffffffff166317377f686040518163ffffffff1660e01b8152600401600060405180830381865afa15801561034c573d6000803e3d6000fd5b505050506040513d6000823e3d601f19601f820116820180604052508101906103759190610976565b90508092505050919050565b6000604051905090565b600080fd5b600080fd5b600080fd5b600080fd5b6000601f19601f8301169050919050565b7f4e487b7100000000000000000000000000000000000000000000000000000000600052604160045260246000fd5b6103e88261039f565b810181811067ffffffffffffffff82111715610407576104066103b0565b5b80604052505050565b600061041a610381565b905061042682826103df565b919050565b600067ffffffffffffffff821115610446576104456103b0565b5b61044f8261039f565b9050602081019050919050565b82818337600083830152505050565b600061047e6104798461042b565b610410565b90508281526020810184848401111561049a5761049961039a565b5b6104a584828561045c565b509392505050565b600082601f8301126104c2576104c1610395565b5b81356104d284826020860161046b565b91505092915050565b600073ffffffffffffffffffffffffffffffffffffffff82169050919050565b6000610506826104db565b9050919050565b6000610518826104fb565b9050919050565b6105288161050d565b811461053357600080fd5b50565b6000813590506105458161051f565b92915050565b600080604083850312156105625761056161038b565b5b600083013567ffffffffffffffff8111156105805761057f610390565b5b61058c858286016104ad565b925050602061059d85828601610536565b9150509250929050565b6000602082840312156105bd576105bc61038b565b5b600082013567ffffffffffffffff8111156105db576105da610390565b5b6105e7848285016104ad565b91505092915050565b6000819050919050565b600061061561061061060b846104db565b6105f0565b6104db565b9050919050565b6000610627826105fa565b9050919050565b60006106398261061c565b9050919050565b6106498161062e565b82525050565b60006020820190506106646000830184610640565b92915050565b600081519050919050565b600082825260208201905092915050565b6000819050602082019050919050565b600081519050919050565b600082825260208201905092915050565b60005b838110156106d05780820151818401526020810190506106b5565b60008484015250505050565b60006106e782610696565b6106f181856106a1565b93506107018185602086016106b2565b61070a8161039f565b840191505092915050565b600061072183836106dc565b905092915050565b6000602082019050919050565b60006107418261066a565b61074b8185610675565b93508360208202850161075d85610686565b8060005b85811015610799578484038952815161077a8582610715565b945061078583610729565b925060208a01995050600181019050610761565b50829750879550505050505092915050565b600060208201905081810360008301526107c58184610736565b905092915050565b600081905092915050565b60006107e382610696565b6107ed81856107cd565b93506107fd8185602086016106b2565b80840191505092915050565b600061081582846107d8565b915081905092915050565b600067ffffffffffffffff82111561083b5761083a6103b0565b5b602082029050602081019050919050565b600080fd5b600061086461085f8461042b565b610410565b9050828152602081018484840111156108805761087f61039a565b5b61088b8482856106b2565b509392505050565b600082601f8301126108a8576108a7610395565b5b81516108b8848260208601610851565b91505092915050565b60006108d46108cf84610820565b610410565b905080838252602082019050602084028301858111156108f7576108f661084c565b5b835b8181101561093e57805167ffffffffffffffff81111561091c5761091b610395565b5b8086016109298982610893565b855260208501945050506020810190506108f9565b5050509392505050565b600082601f83011261095d5761095c610395565b5b815161096d8482602086016108c1565b91505092915050565b60006020828403121561098c5761098b61038b565b5b600082015167ffffffffffffffff8111156109aa576109a9610390565b5b6109b684828501610948565b9150509291505056fea26469706673582212201d51d30347ec5f60f3962ba807c2bbb86bda8d8fed2f3e7bebba9a5ced4bbc7864736f6c63430008110033",
					"opcodes": "PUSH1 0x80 PUSH1 0x40 MSTORE CALLVALUE DUP1 ISZERO PUSH2 0x10 JUMPI PUSH1 0x0 DUP1 REVERT JUMPDEST POP PUSH2 0x9F5 DUP1 PUSH2 0x20 PUSH1 0x0 CODECOPY PUSH1 0x0 RETURN INVALID PUSH1 0x80 PUSH1 0x40 MSTORE CALLVALUE DUP1 ISZERO PUSH2 0x10 JUMPI PUSH1 0x0 DUP1 REVERT JUMPDEST POP PUSH1 0x4 CALLDATASIZE LT PUSH2 0x57 JUMPI PUSH1 0x0 CALLDATALOAD PUSH1 0xE0 SHR DUP1 PUSH4 0x1E59C529 EQ PUSH2 0x5C JUMPI DUP1 PUSH4 0x3B31B59B EQ PUSH2 0x78 JUMPI DUP1 PUSH4 0x6D71B697 EQ PUSH2 0x94 JUMPI DUP1 PUSH4 0xBF40FAC1 EQ PUSH2 0xC4 JUMPI DUP1 PUSH4 0xF3BD37A0 EQ PUSH2 0xF4 JUMPI JUMPDEST PUSH1 0x0 DUP1 REVERT JUMPDEST PUSH2 0x76 PUSH1 0x4 DUP1 CALLDATASIZE SUB DUP2 ADD SWAP1 PUSH2 0x71 SWAP2 SWAP1 PUSH2 0x54B JUMP JUMPDEST PUSH2 0x124 JUMP JUMPDEST STOP JUMPDEST PUSH2 0x92 PUSH1 0x4 DUP1 CALLDATASIZE SUB DUP2 ADD SWAP1 PUSH2 0x8D SWAP2 SWAP1 PUSH2 0x5A7 JUMP JUMPDEST PUSH2 0x185 JUMP JUMPDEST STOP JUMPDEST PUSH2 0xAE PUSH1 0x4 DUP1 CALLDATASIZE SUB DUP2 ADD SWAP1 PUSH2 0xA9 SWAP2 SWAP1 PUSH2 0x5A7 JUMP JUMPDEST PUSH2 0x22B JUMP JUMPDEST PUSH1 0x40 MLOAD PUSH2 0xBB SWAP2 SWAP1 PUSH2 0x64F JUMP JUMPDEST PUSH1 0x40 MLOAD DUP1 SWAP2 SUB SWAP1 RETURN JUMPDEST PUSH2 0xDE PUSH1 0x4 DUP1 CALLDATASIZE SUB DUP2 ADD SWAP1 PUSH2 0xD9 SWAP2 SWAP1 PUSH2 0x5A7 JUMP JUMPDEST PUSH2 0x274 JUMP JUMPDEST PUSH1 0x40 MLOAD PUSH2 0xEB SWAP2 SWAP1 PUSH2 0x64F JUMP JUMPDEST PUSH1 0x40 MLOAD DUP1 SWAP2 SUB SWAP1 RETURN JUMPDEST PUSH2 0x10E PUSH1 0x4 DUP1 CALLDATASIZE SUB DUP2 ADD SWAP1 PUSH2 0x109 SWAP2 SWAP1 PUSH2 0x5A7 JUMP JUMPDEST PUSH2 0x2BB JUMP JUMPDEST PUSH1 0x40 MLOAD PUSH2 0x11B SWAP2 SWAP1 PUSH2 0x7AB JUMP JUMPDEST PUSH1 0x40 MLOAD DUP1 SWAP2 SUB SWAP1 RETURN JUMPDEST DUP1 PUSH1 0x0 DUP4 PUSH1 0x40 MLOAD PUSH2 0x135 SWAP2 SWAP1 PUSH2 0x809 JUMP JUMPDEST SWAP1 DUP2 MSTORE PUSH1 0x20 ADD PUSH1 0x40 MLOAD DUP1 SWAP2 SUB SWAP1 KECCAK256 PUSH1 0x0 PUSH2 0x100 EXP DUP2 SLOAD DUP2 PUSH20 0xFFFFFFFFFFFFFFFFFFFFFFFFFFFFFFFFFFFFFFFF MUL NOT AND SWAP1 DUP4 PUSH20 0xFFFFFFFFFFFFFFFFFFFFFFFFFFFFFFFFFFFFFFFF AND MUL OR SWAP1 SSTORE POP POP POP JUMP JUMPDEST PUSH1 0x0 DUP1 DUP3 PUSH1 0x40 MLOAD PUSH2 0x196 SWAP2 SWAP1 PUSH2 0x809 JUMP JUMPDEST SWAP1 DUP2 MSTORE PUSH1 0x20 ADD PUSH1 0x40 MLOAD DUP1 SWAP2 SUB SWAP1 KECCAK256 PUSH1 0x0 SWAP1 SLOAD SWAP1 PUSH2 0x100 EXP SWAP1 DIV PUSH20 0xFFFFFFFFFFFFFFFFFFFFFFFFFFFFFFFFFFFFFFFF AND SWAP1 POP DUP1 PUSH20 0xFFFFFFFFFFFFFFFFFFFFFFFFFFFFFFFFFFFFFFFF AND PUSH4 0x9A5EEC33 PUSH1 0x40 MLOAD DUP2 PUSH4 0xFFFFFFFF AND PUSH1 0xE0 SHL DUP2 MSTORE PUSH1 0x4 ADD PUSH1 0x0 PUSH1 0x40 MLOAD DUP1 DUP4 SUB DUP2 PUSH1 0x0 DUP8 DUP1 EXTCODESIZE ISZERO DUP1 ISZERO PUSH2 0x20F JUMPI PUSH1 0x0 DUP1 REVERT JUMPDEST POP GAS CALL ISZERO DUP1 ISZERO PUSH2 0x223 JUMPI RETURNDATASIZE PUSH1 0x0 DUP1 RETURNDATACOPY RETURNDATASIZE PUSH1 0x0 REVERT JUMPDEST POP POP POP POP POP POP JUMP JUMPDEST PUSH1 0x0 DUP2 DUP1 MLOAD PUSH1 0x20 DUP2 ADD DUP3 ADD DUP1 MLOAD DUP5 DUP3 MSTORE PUSH1 0x20 DUP4 ADD PUSH1 0x20 DUP6 ADD KECCAK256 DUP2 DUP4 MSTORE DUP1 SWAP6 POP POP POP POP POP POP PUSH1 0x0 SWAP2 POP SLOAD SWAP1 PUSH2 0x100 EXP SWAP1 DIV PUSH20 0xFFFFFFFFFFFFFFFFFFFFFFFFFFFFFFFFFFFFFFFF AND DUP2 JUMP JUMPDEST PUSH1 0x0 DUP1 DUP3 PUSH1 0x40 MLOAD PUSH2 0x285 SWAP2 SWAP1 PUSH2 0x809 JUMP JUMPDEST SWAP1 DUP2 MSTORE PUSH1 0x20 ADD PUSH1 0x40 MLOAD DUP1 SWAP2 SUB SWAP1 KECCAK256 PUSH1 0x0 SWAP1 SLOAD SWAP1 PUSH2 0x100 EXP SWAP1 DIV PUSH20 0xFFFFFFFFFFFFFFFFFFFFFFFFFFFFFFFFFFFFFFFF AND SWAP1 POP SWAP2 SWAP1 POP JUMP JUMPDEST PUSH1 0x60 PUSH1 0x0 DUP1 DUP4 PUSH1 0x40 MLOAD PUSH2 0x2CE SWAP2 SWAP1 PUSH2 0x809 JUMP JUMPDEST SWAP1 DUP2 MSTORE PUSH1 0x20 ADD PUSH1 0x40 MLOAD DUP1 SWAP2 SUB SWAP1 KECCAK256 PUSH1 0x0 SWAP1 SLOAD SWAP1 PUSH2 0x100 EXP SWAP1 DIV PUSH20 0xFFFFFFFFFFFFFFFFFFFFFFFFFFFFFFFFFFFFFFFF AND SWAP1 POP PUSH1 0x0 DUP2 PUSH20 0xFFFFFFFFFFFFFFFFFFFFFFFFFFFFFFFFFFFFFFFF AND PUSH4 0x17377F68 PUSH1 0x40 MLOAD DUP2 PUSH4 0xFFFFFFFF AND PUSH1 0xE0 SHL DUP2 MSTORE PUSH1 0x4 ADD PUSH1 0x0 PUSH1 0x40 MLOAD DUP1 DUP4 SUB DUP2 DUP7 GAS STATICCALL ISZERO DUP1 ISZERO PUSH2 0x34C JUMPI RETURNDATASIZE PUSH1 0x0 DUP1 RETURNDATACOPY RETURNDATASIZE PUSH1 0x0 REVERT JUMPDEST POP POP POP POP PUSH1 0x40 MLOAD RETURNDATASIZE PUSH1 0x0 DUP3 RETURNDATACOPY RETURNDATASIZE PUSH1 0x1F NOT PUSH1 0x1F DUP3 ADD AND DUP3 ADD DUP1 PUSH1 0x40 MSTORE POP DUP2 ADD SWAP1 PUSH2 0x375 SWAP2 SWAP1 PUSH2 0x976 JUMP JUMPDEST SWAP1 POP DUP1 SWAP3 POP POP POP SWAP2 SWAP1 POP JUMP JUMPDEST PUSH1 0x0 PUSH1 0x40 MLOAD SWAP1 POP SWAP1 JUMP JUMPDEST PUSH1 0x0 DUP1 REVERT JUMPDEST PUSH1 0x0 DUP1 REVERT JUMPDEST PUSH1 0x0 DUP1 REVERT JUMPDEST PUSH1 0x0 DUP1 REVERT JUMPDEST PUSH1 0x0 PUSH1 0x1F NOT PUSH1 0x1F DUP4 ADD AND SWAP1 POP SWAP2 SWAP1 POP JUMP JUMPDEST PUSH32 0x4E487B7100000000000000000000000000000000000000000000000000000000 PUSH1 0x0 MSTORE PUSH1 0x41 PUSH1 0x4 MSTORE PUSH1 0x24 PUSH1 0x0 REVERT JUMPDEST PUSH2 0x3E8 DUP3 PUSH2 0x39F JUMP JUMPDEST DUP2 ADD DUP2 DUP2 LT PUSH8 0xFFFFFFFFFFFFFFFF DUP3 GT OR ISZERO PUSH2 0x407 JUMPI PUSH2 0x406 PUSH2 0x3B0 JUMP JUMPDEST JUMPDEST DUP1 PUSH1 0x40 MSTORE POP POP POP JUMP JUMPDEST PUSH1 0x0 PUSH2 0x41A PUSH2 0x381 JUMP JUMPDEST SWAP1 POP PUSH2 0x426 DUP3 DUP3 PUSH2 0x3DF JUMP JUMPDEST SWAP2 SWAP1 POP JUMP JUMPDEST PUSH1 0x0 PUSH8 0xFFFFFFFFFFFFFFFF DUP3 GT ISZERO PUSH2 0x446 JUMPI PUSH2 0x445 PUSH2 0x3B0 JUMP JUMPDEST JUMPDEST PUSH2 0x44F DUP3 PUSH2 0x39F JUMP JUMPDEST SWAP1 POP PUSH1 0x20 DUP2 ADD SWAP1 POP SWAP2 SWAP1 POP JUMP JUMPDEST DUP3 DUP2 DUP4 CALLDATACOPY PUSH1 0x0 DUP4 DUP4 ADD MSTORE POP POP POP JUMP JUMPDEST PUSH1 0x0 PUSH2 0x47E PUSH2 0x479 DUP5 PUSH2 0x42B JUMP JUMPDEST PUSH2 0x410 JUMP JUMPDEST SWAP1 POP DUP3 DUP2 MSTORE PUSH1 0x20 DUP2 ADD DUP5 DUP5 DUP5 ADD GT ISZERO PUSH2 0x49A JUMPI PUSH2 0x499 PUSH2 0x39A JUMP JUMPDEST JUMPDEST PUSH2 0x4A5 DUP5 DUP3 DUP6 PUSH2 0x45C JUMP JUMPDEST POP SWAP4 SWAP3 POP POP POP JUMP JUMPDEST PUSH1 0x0 DUP3 PUSH1 0x1F DUP4 ADD SLT PUSH2 0x4C2 JUMPI PUSH2 0x4C1 PUSH2 0x395 JUMP JUMPDEST JUMPDEST DUP2 CALLDATALOAD PUSH2 0x4D2 DUP5 DUP3 PUSH1 0x20 DUP7 ADD PUSH2 0x46B JUMP JUMPDEST SWAP2 POP POP SWAP3 SWAP2 POP POP JUMP JUMPDEST PUSH1 0x0 PUSH20 0xFFFFFFFFFFFFFFFFFFFFFFFFFFFFFFFFFFFFFFFF DUP3 AND SWAP1 POP SWAP2 SWAP1 POP JUMP JUMPDEST PUSH1 0x0 PUSH2 0x506 DUP3 PUSH2 0x4DB JUMP JUMPDEST SWAP1 POP SWAP2 SWAP1 POP JUMP JUMPDEST PUSH1 0x0 PUSH2 0x518 DUP3 PUSH2 0x4FB JUMP JUMPDEST SWAP1 POP SWAP2 SWAP1 POP JUMP JUMPDEST PUSH2 0x528 DUP2 PUSH2 0x50D JUMP JUMPDEST DUP2 EQ PUSH2 0x533 JUMPI PUSH1 0x0 DUP1 REVERT JUMPDEST POP JUMP JUMPDEST PUSH1 0x0 DUP2 CALLDATALOAD SWAP1 POP PUSH2 0x545 DUP2 PUSH2 0x51F JUMP JUMPDEST SWAP3 SWAP2 POP POP JUMP JUMPDEST PUSH1 0x0 DUP1 PUSH1 0x40 DUP4 DUP6 SUB SLT ISZERO PUSH2 0x562 JUMPI PUSH2 0x561 PUSH2 0x38B JUMP JUMPDEST JUMPDEST PUSH1 0x0 DUP4 ADD CALLDATALOAD PUSH8 0xFFFFFFFFFFFFFFFF DUP2 GT ISZERO PUSH2 0x580 JUMPI PUSH2 0x57F PUSH2 0x390 JUMP JUMPDEST JUMPDEST PUSH2 0x58C DUP6 DUP3 DUP7 ADD PUSH2 0x4AD JUMP JUMPDEST SWAP3 POP POP PUSH1 0x20 PUSH2 0x59D DUP6 DUP3 DUP7 ADD PUSH2 0x536 JUMP JUMPDEST SWAP2 POP POP SWAP3 POP SWAP3 SWAP1 POP JUMP JUMPDEST PUSH1 0x0 PUSH1 0x20 DUP3 DUP5 SUB SLT ISZERO PUSH2 0x5BD JUMPI PUSH2 0x5BC PUSH2 0x38B JUMP JUMPDEST JUMPDEST PUSH1 0x0 DUP3 ADD CALLDATALOAD PUSH8 0xFFFFFFFFFFFFFFFF DUP2 GT ISZERO PUSH2 0x5DB JUMPI PUSH2 0x5DA PUSH2 0x390 JUMP JUMPDEST JUMPDEST PUSH2 0x5E7 DUP5 DUP3 DUP6 ADD PUSH2 0x4AD JUMP JUMPDEST SWAP2 POP POP SWAP3 SWAP2 POP POP JUMP JUMPDEST PUSH1 0x0 DUP2 SWAP1 POP SWAP2 SWAP1 POP JUMP JUMPDEST PUSH1 0x0 PUSH2 0x615 PUSH2 0x610 PUSH2 0x60B DUP5 PUSH2 0x4DB JUMP JUMPDEST PUSH2 0x5F0 JUMP JUMPDEST PUSH2 0x4DB JUMP JUMPDEST SWAP1 POP SWAP2 SWAP1 POP JUMP JUMPDEST PUSH1 0x0 PUSH2 0x627 DUP3 PUSH2 0x5FA JUMP JUMPDEST SWAP1 POP SWAP2 SWAP1 POP JUMP JUMPDEST PUSH1 0x0 PUSH2 0x639 DUP3 PUSH2 0x61C JUMP JUMPDEST SWAP1 POP SWAP2 SWAP1 POP JUMP JUMPDEST PUSH2 0x649 DUP2 PUSH2 0x62E JUMP JUMPDEST DUP3 MSTORE POP POP JUMP JUMPDEST PUSH1 0x0 PUSH1 0x20 DUP3 ADD SWAP1 POP PUSH2 0x664 PUSH1 0x0 DUP4 ADD DUP5 PUSH2 0x640 JUMP JUMPDEST SWAP3 SWAP2 POP POP JUMP JUMPDEST PUSH1 0x0 DUP2 MLOAD SWAP1 POP SWAP2 SWAP1 POP JUMP JUMPDEST PUSH1 0x0 DUP3 DUP3 MSTORE PUSH1 0x20 DUP3 ADD SWAP1 POP SWAP3 SWAP2 POP POP JUMP JUMPDEST PUSH1 0x0 DUP2 SWAP1 POP PUSH1 0x20 DUP3 ADD SWAP1 POP SWAP2 SWAP1 POP JUMP JUMPDEST PUSH1 0x0 DUP2 MLOAD SWAP1 POP SWAP2 SWAP1 POP JUMP JUMPDEST PUSH1 0x0 DUP3 DUP3 MSTORE PUSH1 0x20 DUP3 ADD SWAP1 POP SWAP3 SWAP2 POP POP JUMP JUMPDEST PUSH1 0x0 JUMPDEST DUP4 DUP2 LT ISZERO PUSH2 0x6D0 JUMPI DUP1 DUP3 ADD MLOAD DUP2 DUP5 ADD MSTORE PUSH1 0x20 DUP2 ADD SWAP1 POP PUSH2 0x6B5 JUMP JUMPDEST PUSH1 0x0 DUP5 DUP5 ADD MSTORE POP POP POP POP JUMP JUMPDEST PUSH1 0x0 PUSH2 0x6E7 DUP3 PUSH2 0x696 JUMP JUMPDEST PUSH2 0x6F1 DUP2 DUP6 PUSH2 0x6A1 JUMP JUMPDEST SWAP4 POP PUSH2 0x701 DUP2 DUP6 PUSH1 0x20 DUP7 ADD PUSH2 0x6B2 JUMP JUMPDEST PUSH2 0x70A DUP2 PUSH2 0x39F JUMP JUMPDEST DUP5 ADD SWAP2 POP POP SWAP3 SWAP2 POP POP JUMP JUMPDEST PUSH1 0x0 PUSH2 0x721 DUP4 DUP4 PUSH2 0x6DC JUMP JUMPDEST SWAP1 POP SWAP3 SWAP2 POP POP JUMP JUMPDEST PUSH1 0x0 PUSH1 0x20 DUP3 ADD SWAP1 POP SWAP2 SWAP1 POP JUMP JUMPDEST PUSH1 0x0 PUSH2 0x741 DUP3 PUSH2 0x66A JUMP JUMPDEST PUSH2 0x74B DUP2 DUP6 PUSH2 0x675 JUMP JUMPDEST SWAP4 POP DUP4 PUSH1 0x20 DUP3 MUL DUP6 ADD PUSH2 0x75D DUP6 PUSH2 0x686 JUMP JUMPDEST DUP1 PUSH1 0x0 JUMPDEST DUP6 DUP2 LT ISZERO PUSH2 0x799 JUMPI DUP5 DUP5 SUB DUP10 MSTORE DUP2 MLOAD PUSH2 0x77A DUP6 DUP3 PUSH2 0x715 JUMP JUMPDEST SWAP5 POP PUSH2 0x785 DUP4 PUSH2 0x729 JUMP JUMPDEST SWAP3 POP PUSH1 0x20 DUP11 ADD SWAP10 POP POP PUSH1 0x1 DUP2 ADD SWAP1 POP PUSH2 0x761 JUMP JUMPDEST POP DUP3 SWAP8 POP DUP8 SWAP6 POP POP POP POP POP POP SWAP3 SWAP2 POP POP JUMP JUMPDEST PUSH1 0x0 PUSH1 0x20 DUP3 ADD SWAP1 POP DUP2 DUP2 SUB PUSH1 0x0 DUP4 ADD MSTORE PUSH2 0x7C5 DUP2 DUP5 PUSH2 0x736 JUMP JUMPDEST SWAP1 POP SWAP3 SWAP2 POP POP JUMP JUMPDEST PUSH1 0x0 DUP2 SWAP1 POP SWAP3 SWAP2 POP POP JUMP JUMPDEST PUSH1 0x0 PUSH2 0x7E3 DUP3 PUSH2 0x696 JUMP JUMPDEST PUSH2 0x7ED DUP2 DUP6 PUSH2 0x7CD JUMP JUMPDEST SWAP4 POP PUSH2 0x7FD DUP2 DUP6 PUSH1 0x20 DUP7 ADD PUSH2 0x6B2 JUMP JUMPDEST DUP1 DUP5 ADD SWAP2 POP POP SWAP3 SWAP2 POP POP JUMP JUMPDEST PUSH1 0x0 PUSH2 0x815 DUP3 DUP5 PUSH2 0x7D8 JUMP JUMPDEST SWAP2 POP DUP2 SWAP1 POP SWAP3 SWAP2 POP POP JUMP JUMPDEST PUSH1 0x0 PUSH8 0xFFFFFFFFFFFFFFFF DUP3 GT ISZERO PUSH2 0x83B JUMPI PUSH2 0x83A PUSH2 0x3B0 JUMP JUMPDEST JUMPDEST PUSH1 0x20 DUP3 MUL SWAP1 POP PUSH1 0x20 DUP2 ADD SWAP1 POP SWAP2 SWAP1 POP JUMP JUMPDEST PUSH1 0x0 DUP1 REVERT JUMPDEST PUSH1 0x0 PUSH2 0x864 PUSH2 0x85F DUP5 PUSH2 0x42B JUMP JUMPDEST PUSH2 0x410 JUMP JUMPDEST SWAP1 POP DUP3 DUP2 MSTORE PUSH1 0x20 DUP2 ADD DUP5 DUP5 DUP5 ADD GT ISZERO PUSH2 0x880 JUMPI PUSH2 0x87F PUSH2 0x39A JUMP JUMPDEST JUMPDEST PUSH2 0x88B DUP5 DUP3 DUP6 PUSH2 0x6B2 JUMP JUMPDEST POP SWAP4 SWAP3 POP POP POP JUMP JUMPDEST PUSH1 0x0 DUP3 PUSH1 0x1F DUP4 ADD SLT PUSH2 0x8A8 JUMPI PUSH2 0x8A7 PUSH2 0x395 JUMP JUMPDEST JUMPDEST DUP2 MLOAD PUSH2 0x8B8 DUP5 DUP3 PUSH1 0x20 DUP7 ADD PUSH2 0x851 JUMP JUMPDEST SWAP2 POP POP SWAP3 SWAP2 POP POP JUMP JUMPDEST PUSH1 0x0 PUSH2 0x8D4 PUSH2 0x8CF DUP5 PUSH2 0x820 JUMP JUMPDEST PUSH2 0x410 JUMP JUMPDEST SWAP1 POP DUP1 DUP4 DUP3 MSTORE PUSH1 0x20 DUP3 ADD SWAP1 POP PUSH1 0x20 DUP5 MUL DUP4 ADD DUP6 DUP2 GT ISZERO PUSH2 0x8F7 JUMPI PUSH2 0x8F6 PUSH2 0x84C JUMP JUMPDEST JUMPDEST DUP4 JUMPDEST DUP2 DUP2 LT ISZERO PUSH2 0x93E JUMPI DUP1 MLOAD PUSH8 0xFFFFFFFFFFFFFFFF DUP2 GT ISZERO PUSH2 0x91C JUMPI PUSH2 0x91B PUSH2 0x395 JUMP JUMPDEST JUMPDEST DUP1 DUP7 ADD PUSH2 0x929 DUP10 DUP3 PUSH2 0x893 JUMP JUMPDEST DUP6 MSTORE PUSH1 0x20 DUP6 ADD SWAP5 POP POP POP PUSH1 0x20 DUP2 ADD SWAP1 POP PUSH2 0x8F9 JUMP JUMPDEST POP POP POP SWAP4 SWAP3 POP POP POP JUMP JUMPDEST PUSH1 0x0 DUP3 PUSH1 0x1F DUP4 ADD SLT PUSH2 0x95D JUMPI PUSH2 0x95C PUSH2 0x395 JUMP JUMPDEST JUMPDEST DUP2 MLOAD PUSH2 0x96D DUP5 DUP3 PUSH1 0x20 DUP7 ADD PUSH2 0x8C1 JUMP JUMPDEST SWAP2 POP POP SWAP3 SWAP2 POP POP JUMP JUMPDEST PUSH1 0x0 PUSH1 0x20 DUP3 DUP5 SUB SLT ISZERO PUSH2 0x98C JUMPI PUSH2 0x98B PUSH2 0x38B JUMP JUMPDEST JUMPDEST PUSH1 0x0 DUP3 ADD MLOAD PUSH8 0xFFFFFFFFFFFFFFFF DUP2 GT ISZERO PUSH2 0x9AA JUMPI PUSH2 0x9A9 PUSH2 0x390 JUMP JUMPDEST JUMPDEST PUSH2 0x9B6 DUP5 DUP3 DUP6 ADD PUSH2 0x948 JUMP JUMPDEST SWAP2 POP POP SWAP3 SWAP2 POP POP JUMP INVALID LOG2 PUSH5 0x6970667358 0x22 SLT KECCAK256 SAR MLOAD 0xD3 SUB SELFBALANCE 0xEC 0x5F PUSH1 0xF3 SWAP7 0x2B 0xA8 SMOD 0xC2 0xBB 0xB8 PUSH12 0xDA8D8FED2F3E7BEBBA9A5CED 0x4B 0xBC PUSH25 0x64736F6C634300081100330000000000000000000000000000 "
				},
				"gasEstimates": {
					"creation": {
						"codeDepositCost": "509800",
						"executionCost": "543",
						"totalCost": "510343"
					},
					"external": {
						"getAddress(string)": "infinite",
						"nodesMap(string)": "infinite",
						"notifyShareHolders(string)": "infinite",
						"regenerateSecret(string)": "infinite",
						"register(string,address)": "infinite"
					}
				},
				"methodIdentifiers": {
					"getAddress(string)": "bf40fac1",
					"nodesMap(string)": "6d71b697",
					"notifyShareHolders(string)": "3b31b59b",
					"regenerateSecret(string)": "f3bd37a0",
					"register(string,address)": "1e59c529"
				}
			},
			"storageLayout": {
				"storage": [
					{
						"astId": 268,
						"contract": "contracts/ShareSecret.sol:PublicContract",
						"label": "nodesMap",
						"offset": 0,
						"slot": "0",
						"type": "t_mapping(t_string_memory_ptr,t_contract(Node)263)"
					}
				],
				"types": {
					"t_contract(Node)263": {
						"encoding": "inplace",
						"label": "contract Node",
						"numberOfBytes": "20"
					},
					"t_mapping(t_string_memory_ptr,t_contract(Node)263)": {
						"encoding": "mapping",
						"key": "t_string_memory_ptr",
						"label": "mapping(string => contract Node)",
						"numberOfBytes": "32",
						"value": "t_contract(Node)263"
					},
					"t_string_memory_ptr": {
						"encoding": "bytes",
						"label": "string",
						"numberOfBytes": "32"
					}
				}
			},
			"userdoc": {
				"kind": "user",
				"methods": {},
				"version": 1
			}
		}
	}
}