{
	"contracts/ShareSecret.sol": {
		"Node": {
			"abi": [
				{
					"inputs": [
						{
							"internalType": "string[]",
							"name": "secretShares",
							"type": "string[]"
						}
					],
					"stateMutability": "nonpayable",
					"type": "constructor"
				},
				{
					"inputs": [],
					"name": "acceptInvitation",
					"outputs": [
						{
							"internalType": "bool",
							"name": "",
							"type": "bool"
						}
					],
					"stateMutability": "nonpayable",
					"type": "function"
				},
				{
					"inputs": [
						{
							"internalType": "address payable",
							"name": "shareHolder",
							"type": "address"
						}
					],
					"name": "addShareHolders",
					"outputs": [],
					"stateMutability": "nonpayable",
					"type": "function"
				},
				{
					"inputs": [],
					"name": "askingFromHolders",
					"outputs": [],
					"stateMutability": "nonpayable",
					"type": "function"
				},
				{
					"inputs": [],
					"name": "distribute",
					"outputs": [],
					"stateMutability": "nonpayable",
					"type": "function"
				},
				{
					"inputs": [],
					"name": "getShareHolders",
					"outputs": [
						{
							"internalType": "address payable[]",
							"name": "",
							"type": "address[]"
						}
					],
					"stateMutability": "view",
					"type": "function"
				},
				{
					"inputs": [],
					"name": "getShares",
					"outputs": [
						{
							"internalType": "string[]",
							"name": "",
							"type": "string[]"
						}
					],
					"stateMutability": "view",
					"type": "function"
				},
				{
					"inputs": [
						{
							"internalType": "bool",
							"name": "acceptStatus",
							"type": "bool"
						}
					],
					"name": "notifySecretOwner",
					"outputs": [],
					"stateMutability": "nonpayable",
					"type": "function"
				},
				{
					"inputs": [
						{
							"internalType": "address payable",
							"name": "holder",
							"type": "address"
						},
						{
							"internalType": "string",
							"name": "share",
							"type": "string"
						}
					],
					"name": "notifySendingToHolders",
					"outputs": [],
					"stateMutability": "nonpayable",
					"type": "function"
				},
				{
					"inputs": [],
					"name": "owner",
					"outputs": [
						{
							"internalType": "address",
							"name": "",
							"type": "address"
						}
					],
					"stateMutability": "view",
					"type": "function"
				},
				{
					"inputs": [],
					"name": "regenerate",
					"outputs": [
						{
							"internalType": "string[]",
							"name": "",
							"type": "string[]"
						}
					],
					"stateMutability": "view",
					"type": "function"
				},
				{
					"inputs": [],
					"name": "rejectInvitation",
					"outputs": [
						{
							"internalType": "bool",
							"name": "",
							"type": "bool"
						}
					],
					"stateMutability": "nonpayable",
					"type": "function"
				},
				{
					"inputs": [
						{
							"internalType": "address",
							"name": "ownerAddress",
							"type": "address"
						}
					],
					"name": "rejectSecretRequest",
					"outputs": [],
					"stateMutability": "view",
					"type": "function"
				},
				{
					"inputs": [
						{
							"internalType": "address",
							"name": "ownerAddress",
							"type": "address"
						}
					],
					"name": "releaseSecret",
					"outputs": [
						{
							"internalType": "string",
							"name": "",
							"type": "string"
						}
					],
					"stateMutability": "view",
					"type": "function"
				},
				{
					"inputs": [
						{
							"internalType": "uint256",
							"name": "index",
							"type": "uint256"
						}
					],
					"name": "remove",
					"outputs": [],
					"stateMutability": "nonpayable",
					"type": "function"
				},
				{
					"inputs": [
						{
							"internalType": "address payable",
							"name": "shareHolder",
							"type": "address"
						}
					],
					"name": "removeShareHolders",
					"outputs": [],
					"stateMutability": "nonpayable",
					"type": "function"
				},
				{
					"inputs": [],
					"name": "repayGasFee",
					"outputs": [],
					"stateMutability": "nonpayable",
					"type": "function"
				},
				{
					"inputs": [
						{
							"internalType": "uint256",
							"name": "",
							"type": "uint256"
						}
					],
					"name": "shareHolders",
					"outputs": [
						{
							"internalType": "address payable",
							"name": "",
							"type": "address"
						}
					],
					"stateMutability": "view",
					"type": "function"
				},
				{
					"inputs": [
						{
							"internalType": "address",
							"name": "",
							"type": "address"
						}
					],
					"name": "shareHoldersMap",
					"outputs": [
						{
							"internalType": "string",
							"name": "",
							"type": "string"
						}
					],
					"stateMutability": "view",
					"type": "function"
				},
				{
					"inputs": [
						{
							"internalType": "uint256",
							"name": "",
							"type": "uint256"
						}
					],
					"name": "shares",
					"outputs": [
						{
							"internalType": "string",
							"name": "",
							"type": "string"
						}
					],
					"stateMutability": "view",
					"type": "function"
				},
				{
					"inputs": [
						{
							"internalType": "address",
							"name": "",
							"type": "address"
						}
					],
					"name": "sharesMap",
					"outputs": [
						{
							"internalType": "string",
							"name": "",
							"type": "string"
						}
					],
					"stateMutability": "view",
					"type": "function"
				}
			],
			"devdoc": {
				"kind": "dev",
				"methods": {},
				"version": 1
			},
			"evm": {
				"assembly": "    /* \"contracts/ShareSecret.sol\":80:3316  contract Node {... */\n  mstore(0x40, 0x80)\n    /* \"contracts/ShareSecret.sol\":415:523  constructor(string[] memory secretShares) {... */\n  callvalue\n  dup1\n  iszero\n  tag_1\n  jumpi\n  0x00\n  dup1\n  revert\ntag_1:\n  pop\n  mload(0x40)\n  sub(codesize, bytecodeSize)\n  dup1\n  bytecodeSize\n  dup4\n  codecopy\n  dup2\n  dup2\n  add\n  0x40\n  mstore\n  dup2\n  add\n  swap1\n  tag_2\n  swap2\n  swap1\n  tag_3\n  jump\t// in\ntag_2:\n    /* \"contracts/ShareSecret.sol\":475:485  msg.sender */\n  caller\n    /* \"contracts/ShareSecret.sol\":467:472  owner */\n  0x00\n  dup1\n    /* \"contracts/ShareSecret.sol\":467:485  owner = msg.sender */\n  0x0100\n  exp\n  dup2\n  sload\n  dup2\n  0xffffffffffffffffffffffffffffffffffffffff\n  mul\n  not\n  and\n  swap1\n  dup4\n  0xffffffffffffffffffffffffffffffffffffffff\n  and\n  mul\n  or\n  swap1\n  sstore\n  pop\n    /* \"contracts/ShareSecret.sol\":503:515  secretShares */\n  dup1\n    /* \"contracts/ShareSecret.sol\":495:501  shares */\n  0x02\n    /* \"contracts/ShareSecret.sol\":495:515  shares =secretShares */\n  swap1\n  dup1\n  mload\n  swap1\n  0x20\n  add\n  swap1\n  tag_6\n  swap3\n  swap2\n  swap1\n  tag_7\n  jump\t// in\ntag_6:\n  pop\n    /* \"contracts/ShareSecret.sol\":415:523  constructor(string[] memory secretShares) {... */\n  pop\n    /* \"contracts/ShareSecret.sol\":80:3316  contract Node {... */\n  jump(tag_8)\ntag_7:\n  dup3\n  dup1\n  sload\n  dup3\n  dup3\n  sstore\n  swap1\n  0x00\n  mstore\n  keccak256(0x00, 0x20)\n  swap1\n  dup2\n  add\n  swap3\n  dup3\n  iszero\n  tag_9\n  jumpi\n  swap2\n  0x20\n  mul\n  dup3\n  add\ntag_10:\n  dup3\n  dup2\n  gt\n  iszero\n  tag_11\n  jumpi\n  dup3\n  mload\n  dup3\n  swap1\n  dup2\n  tag_12\n  swap2\n  swap1\n  tag_13\n  jump\t// in\ntag_12:\n  pop\n  swap2\n  0x20\n  add\n  swap2\n  swap1\n  0x01\n  add\n  swap1\n  jump(tag_10)\ntag_11:\ntag_9:\n  pop\n  swap1\n  pop\n  tag_14\n  swap2\n  swap1\n  tag_15\n  jump\t// in\ntag_14:\n  pop\n  swap1\n  jump\t// out\ntag_15:\ntag_16:\n  dup1\n  dup3\n  gt\n  iszero\n  tag_17\n  jumpi\n  0x00\n  dup2\n  dup2\n  tag_18\n  swap2\n  swap1\n  tag_19\n  jump\t// in\ntag_18:\n  pop\n  0x01\n  add\n  jump(tag_16)\ntag_17:\n  pop\n  swap1\n  jump\t// out\ntag_19:\n  pop\n  dup1\n  sload\n  tag_20\n  swap1\n  tag_21\n  jump\t// in\ntag_20:\n  0x00\n  dup3\n  sstore\n  dup1\n  0x1f\n  lt\n  tag_23\n  jumpi\n  pop\n  jump(tag_22)\ntag_23:\n  0x1f\n  add\n  0x20\n  swap1\n  div\n  swap1\n  0x00\n  mstore\n  keccak256(0x00, 0x20)\n  swap1\n  dup2\n  add\n  swap1\n  tag_24\n  swap2\n  swap1\n  tag_25\n  jump\t// in\ntag_24:\ntag_22:\n  pop\n  jump\t// out\ntag_25:\ntag_26:\n  dup1\n  dup3\n  gt\n  iszero\n  tag_27\n  jumpi\n  0x00\n  dup2\n  0x00\n  swap1\n  sstore\n  pop\n  0x01\n  add\n  jump(tag_26)\ntag_27:\n  pop\n  swap1\n  jump\t// out\n    /* \"#utility.yul\":7:82   */\ntag_28:\n    /* \"#utility.yul\":40:46   */\n  0x00\n    /* \"#utility.yul\":73:75   */\n  0x40\n    /* \"#utility.yul\":67:76   */\n  mload\n    /* \"#utility.yul\":57:76   */\n  swap1\n  pop\n    /* \"#utility.yul\":7:82   */\n  swap1\n  jump\t// out\n    /* \"#utility.yul\":88:205   */\ntag_29:\n    /* \"#utility.yul\":197:198   */\n  0x00\n    /* \"#utility.yul\":194:195   */\n  dup1\n    /* \"#utility.yul\":187:199   */\n  revert\n    /* \"#utility.yul\":211:328   */\ntag_30:\n    /* \"#utility.yul\":320:321   */\n  0x00\n    /* \"#utility.yul\":317:318   */\n  dup1\n    /* \"#utility.yul\":310:322   */\n  revert\n    /* \"#utility.yul\":334:451   */\ntag_31:\n    /* \"#utility.yul\":443:444   */\n  0x00\n    /* \"#utility.yul\":440:441   */\n  dup1\n    /* \"#utility.yul\":433:445   */\n  revert\n    /* \"#utility.yul\":457:559   */\ntag_32:\n    /* \"#utility.yul\":498:504   */\n  0x00\n    /* \"#utility.yul\":549:551   */\n  0x1f\n    /* \"#utility.yul\":545:552   */\n  not\n    /* \"#utility.yul\":540:542   */\n  0x1f\n    /* \"#utility.yul\":533:538   */\n  dup4\n    /* \"#utility.yul\":529:543   */\n  add\n    /* \"#utility.yul\":525:553   */\n  and\n    /* \"#utility.yul\":515:553   */\n  swap1\n  pop\n    /* \"#utility.yul\":457:559   */\n  swap2\n  swap1\n  pop\n  jump\t// out\n    /* \"#utility.yul\":565:745   */\ntag_33:\n    /* \"#utility.yul\":613:690   */\n  0x4e487b7100000000000000000000000000000000000000000000000000000000\n    /* \"#utility.yul\":610:611   */\n  0x00\n    /* \"#utility.yul\":603:691   */\n  mstore\n    /* \"#utility.yul\":710:714   */\n  0x41\n    /* \"#utility.yul\":707:708   */\n  0x04\n    /* \"#utility.yul\":700:715   */\n  mstore\n    /* \"#utility.yul\":734:738   */\n  0x24\n    /* \"#utility.yul\":731:732   */\n  0x00\n    /* \"#utility.yul\":724:739   */\n  revert\n    /* \"#utility.yul\":751:1032   */\ntag_34:\n    /* \"#utility.yul\":834:861   */\n  tag_71\n    /* \"#utility.yul\":856:860   */\n  dup3\n    /* \"#utility.yul\":834:861   */\n  tag_32\n  jump\t// in\ntag_71:\n    /* \"#utility.yul\":826:832   */\n  dup2\n    /* \"#utility.yul\":822:862   */\n  add\n    /* \"#utility.yul\":964:970   */\n  dup2\n    /* \"#utility.yul\":952:962   */\n  dup2\n    /* \"#utility.yul\":949:971   */\n  lt\n    /* \"#utility.yul\":928:946   */\n  0xffffffffffffffff\n    /* \"#utility.yul\":916:926   */\n  dup3\n    /* \"#utility.yul\":913:947   */\n  gt\n    /* \"#utility.yul\":910:972   */\n  or\n    /* \"#utility.yul\":907:995   */\n  iszero\n  tag_72\n  jumpi\n    /* \"#utility.yul\":975:993   */\n  tag_73\n  tag_33\n  jump\t// in\ntag_73:\n    /* \"#utility.yul\":907:995   */\ntag_72:\n    /* \"#utility.yul\":1015:1025   */\n  dup1\n    /* \"#utility.yul\":1011:1013   */\n  0x40\n    /* \"#utility.yul\":1004:1026   */\n  mstore\n    /* \"#utility.yul\":794:1032   */\n  pop\n    /* \"#utility.yul\":751:1032   */\n  pop\n  pop\n  jump\t// out\n    /* \"#utility.yul\":1038:1167   */\ntag_35:\n    /* \"#utility.yul\":1072:1078   */\n  0x00\n    /* \"#utility.yul\":1099:1119   */\n  tag_75\n  tag_28\n  jump\t// in\ntag_75:\n    /* \"#utility.yul\":1089:1119   */\n  swap1\n  pop\n    /* \"#utility.yul\":1128:1161   */\n  tag_76\n    /* \"#utility.yul\":1156:1160   */\n  dup3\n    /* \"#utility.yul\":1148:1154   */\n  dup3\n    /* \"#utility.yul\":1128:1161   */\n  tag_34\n  jump\t// in\ntag_76:\n    /* \"#utility.yul\":1038:1167   */\n  swap2\n  swap1\n  pop\n  jump\t// out\n    /* \"#utility.yul\":1173:1494   */\ntag_36:\n    /* \"#utility.yul\":1260:1264   */\n  0x00\n    /* \"#utility.yul\":1350:1368   */\n  0xffffffffffffffff\n    /* \"#utility.yul\":1342:1348   */\n  dup3\n    /* \"#utility.yul\":1339:1369   */\n  gt\n    /* \"#utility.yul\":1336:1392   */\n  iszero\n  tag_78\n  jumpi\n    /* \"#utility.yul\":1372:1390   */\n  tag_79\n  tag_33\n  jump\t// in\ntag_79:\n    /* \"#utility.yul\":1336:1392   */\ntag_78:\n    /* \"#utility.yul\":1422:1426   */\n  0x20\n    /* \"#utility.yul\":1414:1420   */\n  dup3\n    /* \"#utility.yul\":1410:1427   */\n  mul\n    /* \"#utility.yul\":1402:1427   */\n  swap1\n  pop\n    /* \"#utility.yul\":1482:1486   */\n  0x20\n    /* \"#utility.yul\":1476:1480   */\n  dup2\n    /* \"#utility.yul\":1472:1487   */\n  add\n    /* \"#utility.yul\":1464:1487   */\n  swap1\n  pop\n    /* \"#utility.yul\":1173:1494   */\n  swap2\n  swap1\n  pop\n  jump\t// out\n    /* \"#utility.yul\":1500:1617   */\ntag_37:\n    /* \"#utility.yul\":1609:1610   */\n  0x00\n    /* \"#utility.yul\":1606:1607   */\n  dup1\n    /* \"#utility.yul\":1599:1611   */\n  revert\n    /* \"#utility.yul\":1623:1740   */\ntag_38:\n    /* \"#utility.yul\":1732:1733   */\n  0x00\n    /* \"#utility.yul\":1729:1730   */\n  dup1\n    /* \"#utility.yul\":1722:1734   */\n  revert\n    /* \"#utility.yul\":1746:2054   */\ntag_39:\n    /* \"#utility.yul\":1808:1812   */\n  0x00\n    /* \"#utility.yul\":1898:1916   */\n  0xffffffffffffffff\n    /* \"#utility.yul\":1890:1896   */\n  dup3\n    /* \"#utility.yul\":1887:1917   */\n  gt\n    /* \"#utility.yul\":1884:1940   */\n  iszero\n  tag_83\n  jumpi\n    /* \"#utility.yul\":1920:1938   */\n  tag_84\n  tag_33\n  jump\t// in\ntag_84:\n    /* \"#utility.yul\":1884:1940   */\ntag_83:\n    /* \"#utility.yul\":1958:1987   */\n  tag_85\n    /* \"#utility.yul\":1980:1986   */\n  dup3\n    /* \"#utility.yul\":1958:1987   */\n  tag_32\n  jump\t// in\ntag_85:\n    /* \"#utility.yul\":1950:1987   */\n  swap1\n  pop\n    /* \"#utility.yul\":2042:2046   */\n  0x20\n    /* \"#utility.yul\":2036:2040   */\n  dup2\n    /* \"#utility.yul\":2032:2047   */\n  add\n    /* \"#utility.yul\":2024:2047   */\n  swap1\n  pop\n    /* \"#utility.yul\":1746:2054   */\n  swap2\n  swap1\n  pop\n  jump\t// out\n    /* \"#utility.yul\":2060:2306   */\ntag_40:\n    /* \"#utility.yul\":2141:2142   */\n  0x00\n    /* \"#utility.yul\":2151:2264   */\ntag_87:\n    /* \"#utility.yul\":2165:2171   */\n  dup4\n    /* \"#utility.yul\":2162:2163   */\n  dup2\n    /* \"#utility.yul\":2159:2172   */\n  lt\n    /* \"#utility.yul\":2151:2264   */\n  iszero\n  tag_89\n  jumpi\n    /* \"#utility.yul\":2250:2251   */\n  dup1\n    /* \"#utility.yul\":2245:2248   */\n  dup3\n    /* \"#utility.yul\":2241:2252   */\n  add\n    /* \"#utility.yul\":2235:2253   */\n  mload\n    /* \"#utility.yul\":2231:2232   */\n  dup2\n    /* \"#utility.yul\":2226:2229   */\n  dup5\n    /* \"#utility.yul\":2222:2233   */\n  add\n    /* \"#utility.yul\":2215:2254   */\n  mstore\n    /* \"#utility.yul\":2187:2189   */\n  0x20\n    /* \"#utility.yul\":2184:2185   */\n  dup2\n    /* \"#utility.yul\":2180:2190   */\n  add\n    /* \"#utility.yul\":2175:2190   */\n  swap1\n  pop\n    /* \"#utility.yul\":2151:2264   */\n  jump(tag_87)\ntag_89:\n    /* \"#utility.yul\":2298:2299   */\n  0x00\n    /* \"#utility.yul\":2289:2295   */\n  dup5\n    /* \"#utility.yul\":2284:2287   */\n  dup5\n    /* \"#utility.yul\":2280:2296   */\n  add\n    /* \"#utility.yul\":2273:2300   */\n  mstore\n    /* \"#utility.yul\":2122:2306   */\n  pop\n    /* \"#utility.yul\":2060:2306   */\n  pop\n  pop\n  pop\n  jump\t// out\n    /* \"#utility.yul\":2312:2746   */\ntag_41:\n    /* \"#utility.yul\":2401:2406   */\n  0x00\n    /* \"#utility.yul\":2426:2492   */\n  tag_91\n    /* \"#utility.yul\":2442:2491   */\n  tag_92\n    /* \"#utility.yul\":2484:2490   */\n  dup5\n    /* \"#utility.yul\":2442:2491   */\n  tag_39\n  jump\t// in\ntag_92:\n    /* \"#utility.yul\":2426:2492   */\n  tag_35\n  jump\t// in\ntag_91:\n    /* \"#utility.yul\":2417:2492   */\n  swap1\n  pop\n    /* \"#utility.yul\":2515:2521   */\n  dup3\n    /* \"#utility.yul\":2508:2513   */\n  dup2\n    /* \"#utility.yul\":2501:2522   */\n  mstore\n    /* \"#utility.yul\":2553:2557   */\n  0x20\n    /* \"#utility.yul\":2546:2551   */\n  dup2\n    /* \"#utility.yul\":2542:2558   */\n  add\n    /* \"#utility.yul\":2591:2594   */\n  dup5\n    /* \"#utility.yul\":2582:2588   */\n  dup5\n    /* \"#utility.yul\":2577:2580   */\n  dup5\n    /* \"#utility.yul\":2573:2589   */\n  add\n    /* \"#utility.yul\":2570:2595   */\n  gt\n    /* \"#utility.yul\":2567:2679   */\n  iszero\n  tag_93\n  jumpi\n    /* \"#utility.yul\":2598:2677   */\n  tag_94\n  tag_38\n  jump\t// in\ntag_94:\n    /* \"#utility.yul\":2567:2679   */\ntag_93:\n    /* \"#utility.yul\":2688:2740   */\n  tag_95\n    /* \"#utility.yul\":2733:2739   */\n  dup5\n    /* \"#utility.yul\":2728:2731   */\n  dup3\n    /* \"#utility.yul\":2723:2726   */\n  dup6\n    /* \"#utility.yul\":2688:2740   */\n  tag_40\n  jump\t// in\ntag_95:\n    /* \"#utility.yul\":2407:2746   */\n  pop\n    /* \"#utility.yul\":2312:2746   */\n  swap4\n  swap3\n  pop\n  pop\n  pop\n  jump\t// out\n    /* \"#utility.yul\":2766:3121   */\ntag_42:\n    /* \"#utility.yul\":2833:2838   */\n  0x00\n    /* \"#utility.yul\":2882:2885   */\n  dup3\n    /* \"#utility.yul\":2875:2879   */\n  0x1f\n    /* \"#utility.yul\":2867:2873   */\n  dup4\n    /* \"#utility.yul\":2863:2880   */\n  add\n    /* \"#utility.yul\":2859:2886   */\n  slt\n    /* \"#utility.yul\":2849:2971   */\n  tag_97\n  jumpi\n    /* \"#utility.yul\":2890:2969   */\n  tag_98\n  tag_31\n  jump\t// in\ntag_98:\n    /* \"#utility.yul\":2849:2971   */\ntag_97:\n    /* \"#utility.yul\":3000:3006   */\n  dup2\n    /* \"#utility.yul\":2994:3007   */\n  mload\n    /* \"#utility.yul\":3025:3115   */\n  tag_99\n    /* \"#utility.yul\":3111:3114   */\n  dup5\n    /* \"#utility.yul\":3103:3109   */\n  dup3\n    /* \"#utility.yul\":3096:3100   */\n  0x20\n    /* \"#utility.yul\":3088:3094   */\n  dup7\n    /* \"#utility.yul\":3084:3101   */\n  add\n    /* \"#utility.yul\":3025:3115   */\n  tag_41\n  jump\t// in\ntag_99:\n    /* \"#utility.yul\":3016:3115   */\n  swap2\n  pop\n    /* \"#utility.yul\":2839:3121   */\n  pop\n    /* \"#utility.yul\":2766:3121   */\n  swap3\n  swap2\n  pop\n  pop\n  jump\t// out\n    /* \"#utility.yul\":3143:4103   */\ntag_43:\n    /* \"#utility.yul\":3260:3265   */\n  0x00\n    /* \"#utility.yul\":3285:3376   */\n  tag_101\n    /* \"#utility.yul\":3301:3375   */\n  tag_102\n    /* \"#utility.yul\":3368:3374   */\n  dup5\n    /* \"#utility.yul\":3301:3375   */\n  tag_36\n  jump\t// in\ntag_102:\n    /* \"#utility.yul\":3285:3376   */\n  tag_35\n  jump\t// in\ntag_101:\n    /* \"#utility.yul\":3276:3376   */\n  swap1\n  pop\n    /* \"#utility.yul\":3396:3401   */\n  dup1\n    /* \"#utility.yul\":3425:3431   */\n  dup4\n    /* \"#utility.yul\":3418:3423   */\n  dup3\n    /* \"#utility.yul\":3411:3432   */\n  mstore\n    /* \"#utility.yul\":3459:3463   */\n  0x20\n    /* \"#utility.yul\":3452:3457   */\n  dup3\n    /* \"#utility.yul\":3448:3464   */\n  add\n    /* \"#utility.yul\":3441:3464   */\n  swap1\n  pop\n    /* \"#utility.yul\":3512:3516   */\n  0x20\n    /* \"#utility.yul\":3504:3510   */\n  dup5\n    /* \"#utility.yul\":3500:3517   */\n  mul\n    /* \"#utility.yul\":3492:3498   */\n  dup4\n    /* \"#utility.yul\":3488:3518   */\n  add\n    /* \"#utility.yul\":3541:3544   */\n  dup6\n    /* \"#utility.yul\":3533:3539   */\n  dup2\n    /* \"#utility.yul\":3530:3545   */\n  gt\n    /* \"#utility.yul\":3527:3649   */\n  iszero\n  tag_103\n  jumpi\n    /* \"#utility.yul\":3560:3639   */\n  tag_104\n  tag_37\n  jump\t// in\ntag_104:\n    /* \"#utility.yul\":3527:3649   */\ntag_103:\n    /* \"#utility.yul\":3675:3681   */\n  dup4\n    /* \"#utility.yul\":3658:4097   */\ntag_105:\n    /* \"#utility.yul\":3692:3698   */\n  dup2\n    /* \"#utility.yul\":3687:3690   */\n  dup2\n    /* \"#utility.yul\":3684:3699   */\n  lt\n    /* \"#utility.yul\":3658:4097   */\n  iszero\n  tag_107\n  jumpi\n    /* \"#utility.yul\":3774:3777   */\n  dup1\n    /* \"#utility.yul\":3768:3778   */\n  mload\n    /* \"#utility.yul\":3810:3828   */\n  0xffffffffffffffff\n    /* \"#utility.yul\":3797:3808   */\n  dup2\n    /* \"#utility.yul\":3794:3829   */\n  gt\n    /* \"#utility.yul\":3791:3913   */\n  iszero\n  tag_108\n  jumpi\n    /* \"#utility.yul\":3832:3911   */\n  tag_109\n  tag_31\n  jump\t// in\ntag_109:\n    /* \"#utility.yul\":3791:3913   */\ntag_108:\n    /* \"#utility.yul\":3956:3967   */\n  dup1\n    /* \"#utility.yul\":3948:3954   */\n  dup7\n    /* \"#utility.yul\":3944:3968   */\n  add\n    /* \"#utility.yul\":3994:4052   */\n  tag_110\n    /* \"#utility.yul\":4048:4051   */\n  dup10\n    /* \"#utility.yul\":4036:4046   */\n  dup3\n    /* \"#utility.yul\":3994:4052   */\n  tag_42\n  jump\t// in\ntag_110:\n    /* \"#utility.yul\":3989:3992   */\n  dup6\n    /* \"#utility.yul\":3982:4053   */\n  mstore\n    /* \"#utility.yul\":4082:4086   */\n  0x20\n    /* \"#utility.yul\":4077:4080   */\n  dup6\n    /* \"#utility.yul\":4073:4087   */\n  add\n    /* \"#utility.yul\":4066:4087   */\n  swap5\n  pop\n    /* \"#utility.yul\":3734:4097   */\n  pop\n  pop\n    /* \"#utility.yul\":3718:3722   */\n  0x20\n    /* \"#utility.yul\":3713:3716   */\n  dup2\n    /* \"#utility.yul\":3709:3723   */\n  add\n    /* \"#utility.yul\":3702:3723   */\n  swap1\n  pop\n    /* \"#utility.yul\":3658:4097   */\n  jump(tag_105)\ntag_107:\n    /* \"#utility.yul\":3662:3683   */\n  pop\n    /* \"#utility.yul\":3266:4103   */\n  pop\n  pop\n    /* \"#utility.yul\":3143:4103   */\n  swap4\n  swap3\n  pop\n  pop\n  pop\n  jump\t// out\n    /* \"#utility.yul\":4125:4530   */\ntag_44:\n    /* \"#utility.yul\":4217:4222   */\n  0x00\n    /* \"#utility.yul\":4266:4269   */\n  dup3\n    /* \"#utility.yul\":4259:4263   */\n  0x1f\n    /* \"#utility.yul\":4251:4257   */\n  dup4\n    /* \"#utility.yul\":4247:4264   */\n  add\n    /* \"#utility.yul\":4243:4270   */\n  slt\n    /* \"#utility.yul\":4233:4355   */\n  tag_112\n  jumpi\n    /* \"#utility.yul\":4274:4353   */\n  tag_113\n  tag_31\n  jump\t// in\ntag_113:\n    /* \"#utility.yul\":4233:4355   */\ntag_112:\n    /* \"#utility.yul\":4384:4390   */\n  dup2\n    /* \"#utility.yul\":4378:4391   */\n  mload\n    /* \"#utility.yul\":4409:4524   */\n  tag_114\n    /* \"#utility.yul\":4520:4523   */\n  dup5\n    /* \"#utility.yul\":4512:4518   */\n  dup3\n    /* \"#utility.yul\":4505:4509   */\n  0x20\n    /* \"#utility.yul\":4497:4503   */\n  dup7\n    /* \"#utility.yul\":4493:4510   */\n  add\n    /* \"#utility.yul\":4409:4524   */\n  tag_43\n  jump\t// in\ntag_114:\n    /* \"#utility.yul\":4400:4524   */\n  swap2\n  pop\n    /* \"#utility.yul\":4223:4530   */\n  pop\n    /* \"#utility.yul\":4125:4530   */\n  swap3\n  swap2\n  pop\n  pop\n  jump\t// out\n    /* \"#utility.yul\":4536:5110   */\ntag_3:\n    /* \"#utility.yul\":4641:4647   */\n  0x00\n    /* \"#utility.yul\":4690:4692   */\n  0x20\n    /* \"#utility.yul\":4678:4687   */\n  dup3\n    /* \"#utility.yul\":4669:4676   */\n  dup5\n    /* \"#utility.yul\":4665:4688   */\n  sub\n    /* \"#utility.yul\":4661:4693   */\n  slt\n    /* \"#utility.yul\":4658:4777   */\n  iszero\n  tag_116\n  jumpi\n    /* \"#utility.yul\":4696:4775   */\n  tag_117\n  tag_29\n  jump\t// in\ntag_117:\n    /* \"#utility.yul\":4658:4777   */\ntag_116:\n    /* \"#utility.yul\":4837:4838   */\n  0x00\n    /* \"#utility.yul\":4826:4835   */\n  dup3\n    /* \"#utility.yul\":4822:4839   */\n  add\n    /* \"#utility.yul\":4816:4840   */\n  mload\n    /* \"#utility.yul\":4867:4885   */\n  0xffffffffffffffff\n    /* \"#utility.yul\":4859:4865   */\n  dup2\n    /* \"#utility.yul\":4856:4886   */\n  gt\n    /* \"#utility.yul\":4853:4970   */\n  iszero\n  tag_118\n  jumpi\n    /* \"#utility.yul\":4889:4968   */\n  tag_119\n  tag_30\n  jump\t// in\ntag_119:\n    /* \"#utility.yul\":4853:4970   */\ntag_118:\n    /* \"#utility.yul\":4994:5093   */\n  tag_120\n    /* \"#utility.yul\":5085:5092   */\n  dup5\n    /* \"#utility.yul\":5076:5082   */\n  dup3\n    /* \"#utility.yul\":5065:5074   */\n  dup6\n    /* \"#utility.yul\":5061:5083   */\n  add\n    /* \"#utility.yul\":4994:5093   */\n  tag_44\n  jump\t// in\ntag_120:\n    /* \"#utility.yul\":4984:5093   */\n  swap2\n  pop\n    /* \"#utility.yul\":4787:5103   */\n  pop\n    /* \"#utility.yul\":4536:5110   */\n  swap3\n  swap2\n  pop\n  pop\n  jump\t// out\n    /* \"#utility.yul\":5116:5215   */\ntag_45:\n    /* \"#utility.yul\":5168:5174   */\n  0x00\n    /* \"#utility.yul\":5202:5207   */\n  dup2\n    /* \"#utility.yul\":5196:5208   */\n  mload\n    /* \"#utility.yul\":5186:5208   */\n  swap1\n  pop\n    /* \"#utility.yul\":5116:5215   */\n  swap2\n  swap1\n  pop\n  jump\t// out\n    /* \"#utility.yul\":5221:5401   */\ntag_46:\n    /* \"#utility.yul\":5269:5346   */\n  0x4e487b7100000000000000000000000000000000000000000000000000000000\n    /* \"#utility.yul\":5266:5267   */\n  0x00\n    /* \"#utility.yul\":5259:5347   */\n  mstore\n    /* \"#utility.yul\":5366:5370   */\n  0x22\n    /* \"#utility.yul\":5363:5364   */\n  0x04\n    /* \"#utility.yul\":5356:5371   */\n  mstore\n    /* \"#utility.yul\":5390:5394   */\n  0x24\n    /* \"#utility.yul\":5387:5388   */\n  0x00\n    /* \"#utility.yul\":5380:5395   */\n  revert\n    /* \"#utility.yul\":5407:5727   */\ntag_21:\n    /* \"#utility.yul\":5451:5457   */\n  0x00\n    /* \"#utility.yul\":5488:5489   */\n  0x02\n    /* \"#utility.yul\":5482:5486   */\n  dup3\n    /* \"#utility.yul\":5478:5490   */\n  div\n    /* \"#utility.yul\":5468:5490   */\n  swap1\n  pop\n    /* \"#utility.yul\":5535:5536   */\n  0x01\n    /* \"#utility.yul\":5529:5533   */\n  dup3\n    /* \"#utility.yul\":5525:5537   */\n  and\n    /* \"#utility.yul\":5556:5574   */\n  dup1\n    /* \"#utility.yul\":5546:5627   */\n  tag_124\n  jumpi\n    /* \"#utility.yul\":5612:5616   */\n  0x7f\n    /* \"#utility.yul\":5604:5610   */\n  dup3\n    /* \"#utility.yul\":5600:5617   */\n  and\n    /* \"#utility.yul\":5590:5617   */\n  swap2\n  pop\n    /* \"#utility.yul\":5546:5627   */\ntag_124:\n    /* \"#utility.yul\":5674:5676   */\n  0x20\n    /* \"#utility.yul\":5666:5672   */\n  dup3\n    /* \"#utility.yul\":5663:5677   */\n  lt\n    /* \"#utility.yul\":5643:5661   */\n  dup2\n    /* \"#utility.yul\":5640:5678   */\n  sub\n    /* \"#utility.yul\":5637:5721   */\n  tag_125\n  jumpi\n    /* \"#utility.yul\":5693:5711   */\n  tag_126\n  tag_46\n  jump\t// in\ntag_126:\n    /* \"#utility.yul\":5637:5721   */\ntag_125:\n    /* \"#utility.yul\":5458:5727   */\n  pop\n    /* \"#utility.yul\":5407:5727   */\n  swap2\n  swap1\n  pop\n  jump\t// out\n    /* \"#utility.yul\":5733:5874   */\ntag_47:\n    /* \"#utility.yul\":5782:5786   */\n  0x00\n    /* \"#utility.yul\":5805:5808   */\n  dup2\n    /* \"#utility.yul\":5797:5808   */\n  swap1\n  pop\n    /* \"#utility.yul\":5828:5831   */\n  dup2\n    /* \"#utility.yul\":5825:5826   */\n  0x00\n    /* \"#utility.yul\":5818:5832   */\n  mstore\n    /* \"#utility.yul\":5862:5866   */\n  0x20\n    /* \"#utility.yul\":5859:5860   */\n  0x00\n    /* \"#utility.yul\":5849:5867   */\n  keccak256\n    /* \"#utility.yul\":5841:5867   */\n  swap1\n  pop\n    /* \"#utility.yul\":5733:5874   */\n  swap2\n  swap1\n  pop\n  jump\t// out\n    /* \"#utility.yul\":5880:5973   */\ntag_48:\n    /* \"#utility.yul\":5917:5923   */\n  0x00\n    /* \"#utility.yul\":5964:5966   */\n  0x20\n    /* \"#utility.yul\":5959:5961   */\n  0x1f\n    /* \"#utility.yul\":5952:5957   */\n  dup4\n    /* \"#utility.yul\":5948:5962   */\n  add\n    /* \"#utility.yul\":5944:5967   */\n  div\n    /* \"#utility.yul\":5934:5967   */\n  swap1\n  pop\n    /* \"#utility.yul\":5880:5973   */\n  swap2\n  swap1\n  pop\n  jump\t// out\n    /* \"#utility.yul\":5979:6086   */\ntag_49:\n    /* \"#utility.yul\":6023:6031   */\n  0x00\n    /* \"#utility.yul\":6073:6078   */\n  dup3\n    /* \"#utility.yul\":6067:6071   */\n  dup3\n    /* \"#utility.yul\":6063:6079   */\n  shl\n    /* \"#utility.yul\":6042:6079   */\n  swap1\n  pop\n    /* \"#utility.yul\":5979:6086   */\n  swap3\n  swap2\n  pop\n  pop\n  jump\t// out\n    /* \"#utility.yul\":6092:6485   */\ntag_50:\n    /* \"#utility.yul\":6161:6167   */\n  0x00\n    /* \"#utility.yul\":6211:6212   */\n  0x08\n    /* \"#utility.yul\":6199:6209   */\n  dup4\n    /* \"#utility.yul\":6195:6213   */\n  mul\n    /* \"#utility.yul\":6234:6331   */\n  tag_131\n    /* \"#utility.yul\":6264:6330   */\n  0xffffffffffffffffffffffffffffffffffffffffffffffffffffffffffffffff\n    /* \"#utility.yul\":6253:6262   */\n  dup3\n    /* \"#utility.yul\":6234:6331   */\n  tag_49\n  jump\t// in\ntag_131:\n    /* \"#utility.yul\":6352:6391   */\n  tag_132\n    /* \"#utility.yul\":6382:6390   */\n  dup7\n    /* \"#utility.yul\":6371:6380   */\n  dup4\n    /* \"#utility.yul\":6352:6391   */\n  tag_49\n  jump\t// in\ntag_132:\n    /* \"#utility.yul\":6340:6391   */\n  swap6\n  pop\n    /* \"#utility.yul\":6424:6428   */\n  dup1\n    /* \"#utility.yul\":6420:6429   */\n  not\n    /* \"#utility.yul\":6413:6418   */\n  dup5\n    /* \"#utility.yul\":6409:6430   */\n  and\n    /* \"#utility.yul\":6400:6430   */\n  swap4\n  pop\n    /* \"#utility.yul\":6473:6477   */\n  dup1\n    /* \"#utility.yul\":6463:6471   */\n  dup7\n    /* \"#utility.yul\":6459:6478   */\n  and\n    /* \"#utility.yul\":6452:6457   */\n  dup5\n    /* \"#utility.yul\":6449:6479   */\n  or\n    /* \"#utility.yul\":6439:6479   */\n  swap3\n  pop\n    /* \"#utility.yul\":6168:6485   */\n  pop\n  pop\n    /* \"#utility.yul\":6092:6485   */\n  swap4\n  swap3\n  pop\n  pop\n  pop\n  jump\t// out\n    /* \"#utility.yul\":6491:6568   */\ntag_51:\n    /* \"#utility.yul\":6528:6535   */\n  0x00\n    /* \"#utility.yul\":6557:6562   */\n  dup2\n    /* \"#utility.yul\":6546:6562   */\n  swap1\n  pop\n    /* \"#utility.yul\":6491:6568   */\n  swap2\n  swap1\n  pop\n  jump\t// out\n    /* \"#utility.yul\":6574:6634   */\ntag_52:\n    /* \"#utility.yul\":6602:6605   */\n  0x00\n    /* \"#utility.yul\":6623:6628   */\n  dup2\n    /* \"#utility.yul\":6616:6628   */\n  swap1\n  pop\n    /* \"#utility.yul\":6574:6634   */\n  swap2\n  swap1\n  pop\n  jump\t// out\n    /* \"#utility.yul\":6640:6782   */\ntag_53:\n    /* \"#utility.yul\":6690:6699   */\n  0x00\n    /* \"#utility.yul\":6723:6776   */\n  tag_136\n    /* \"#utility.yul\":6741:6775   */\n  tag_137\n    /* \"#utility.yul\":6750:6774   */\n  tag_138\n    /* \"#utility.yul\":6768:6773   */\n  dup5\n    /* \"#utility.yul\":6750:6774   */\n  tag_51\n  jump\t// in\ntag_138:\n    /* \"#utility.yul\":6741:6775   */\n  tag_52\n  jump\t// in\ntag_137:\n    /* \"#utility.yul\":6723:6776   */\n  tag_51\n  jump\t// in\ntag_136:\n    /* \"#utility.yul\":6710:6776   */\n  swap1\n  pop\n    /* \"#utility.yul\":6640:6782   */\n  swap2\n  swap1\n  pop\n  jump\t// out\n    /* \"#utility.yul\":6788:6863   */\ntag_54:\n    /* \"#utility.yul\":6831:6834   */\n  0x00\n    /* \"#utility.yul\":6852:6857   */\n  dup2\n    /* \"#utility.yul\":6845:6857   */\n  swap1\n  pop\n    /* \"#utility.yul\":6788:6863   */\n  swap2\n  swap1\n  pop\n  jump\t// out\n    /* \"#utility.yul\":6869:7138   */\ntag_55:\n    /* \"#utility.yul\":6979:7018   */\n  tag_141\n    /* \"#utility.yul\":7010:7017   */\n  dup4\n    /* \"#utility.yul\":6979:7018   */\n  tag_53\n  jump\t// in\ntag_141:\n    /* \"#utility.yul\":7040:7131   */\n  tag_142\n    /* \"#utility.yul\":7089:7130   */\n  tag_143\n    /* \"#utility.yul\":7113:7129   */\n  dup3\n    /* \"#utility.yul\":7089:7130   */\n  tag_54\n  jump\t// in\ntag_143:\n    /* \"#utility.yul\":7081:7087   */\n  dup5\n    /* \"#utility.yul\":7074:7078   */\n  dup5\n    /* \"#utility.yul\":7068:7079   */\n  sload\n    /* \"#utility.yul\":7040:7131   */\n  tag_50\n  jump\t// in\ntag_142:\n    /* \"#utility.yul\":7034:7038   */\n  dup3\n    /* \"#utility.yul\":7027:7132   */\n  sstore\n    /* \"#utility.yul\":6945:7138   */\n  pop\n    /* \"#utility.yul\":6869:7138   */\n  pop\n  pop\n  pop\n  jump\t// out\n    /* \"#utility.yul\":7144:7217   */\ntag_56:\n    /* \"#utility.yul\":7189:7192   */\n  0x00\n    /* \"#utility.yul\":7144:7217   */\n  swap1\n  jump\t// out\n    /* \"#utility.yul\":7223:7412   */\ntag_57:\n    /* \"#utility.yul\":7300:7332   */\n  tag_146\n  tag_56\n  jump\t// in\ntag_146:\n    /* \"#utility.yul\":7341:7406   */\n  tag_147\n    /* \"#utility.yul\":7399:7405   */\n  dup2\n    /* \"#utility.yul\":7391:7397   */\n  dup5\n    /* \"#utility.yul\":7385:7389   */\n  dup5\n    /* \"#utility.yul\":7341:7406   */\n  tag_55\n  jump\t// in\ntag_147:\n    /* \"#utility.yul\":7276:7412   */\n  pop\n    /* \"#utility.yul\":7223:7412   */\n  pop\n  pop\n  jump\t// out\n    /* \"#utility.yul\":7418:7604   */\ntag_58:\n    /* \"#utility.yul\":7478:7598   */\ntag_149:\n    /* \"#utility.yul\":7495:7498   */\n  dup2\n    /* \"#utility.yul\":7488:7493   */\n  dup2\n    /* \"#utility.yul\":7485:7499   */\n  lt\n    /* \"#utility.yul\":7478:7598   */\n  iszero\n  tag_151\n  jumpi\n    /* \"#utility.yul\":7549:7588   */\n  tag_152\n    /* \"#utility.yul\":7586:7587   */\n  0x00\n    /* \"#utility.yul\":7579:7584   */\n  dup3\n    /* \"#utility.yul\":7549:7588   */\n  tag_57\n  jump\t// in\ntag_152:\n    /* \"#utility.yul\":7522:7523   */\n  0x01\n    /* \"#utility.yul\":7515:7520   */\n  dup2\n    /* \"#utility.yul\":7511:7524   */\n  add\n    /* \"#utility.yul\":7502:7524   */\n  swap1\n  pop\n    /* \"#utility.yul\":7478:7598   */\n  jump(tag_149)\ntag_151:\n    /* \"#utility.yul\":7418:7604   */\n  pop\n  pop\n  jump\t// out\n    /* \"#utility.yul\":7610:8153   */\ntag_59:\n    /* \"#utility.yul\":7711:7713   */\n  0x1f\n    /* \"#utility.yul\":7706:7709   */\n  dup3\n    /* \"#utility.yul\":7703:7714   */\n  gt\n    /* \"#utility.yul\":7700:8146   */\n  iszero\n  tag_154\n  jumpi\n    /* \"#utility.yul\":7745:7783   */\n  tag_155\n    /* \"#utility.yul\":7777:7782   */\n  dup2\n    /* \"#utility.yul\":7745:7783   */\n  tag_47\n  jump\t// in\ntag_155:\n    /* \"#utility.yul\":7829:7858   */\n  tag_156\n    /* \"#utility.yul\":7847:7857   */\n  dup5\n    /* \"#utility.yul\":7829:7858   */\n  tag_48\n  jump\t// in\ntag_156:\n    /* \"#utility.yul\":7819:7827   */\n  dup2\n    /* \"#utility.yul\":7815:7859   */\n  add\n    /* \"#utility.yul\":8012:8014   */\n  0x20\n    /* \"#utility.yul\":8000:8010   */\n  dup6\n    /* \"#utility.yul\":7997:8015   */\n  lt\n    /* \"#utility.yul\":7994:8043   */\n  iszero\n  tag_157\n  jumpi\n    /* \"#utility.yul\":8033:8041   */\n  dup2\n    /* \"#utility.yul\":8018:8041   */\n  swap1\n  pop\n    /* \"#utility.yul\":7994:8043   */\ntag_157:\n    /* \"#utility.yul\":8056:8136   */\n  tag_158\n    /* \"#utility.yul\":8112:8134   */\n  tag_159\n    /* \"#utility.yul\":8130:8133   */\n  dup6\n    /* \"#utility.yul\":8112:8134   */\n  tag_48\n  jump\t// in\ntag_159:\n    /* \"#utility.yul\":8102:8110   */\n  dup4\n    /* \"#utility.yul\":8098:8135   */\n  add\n    /* \"#utility.yul\":8085:8096   */\n  dup3\n    /* \"#utility.yul\":8056:8136   */\n  tag_58\n  jump\t// in\ntag_158:\n    /* \"#utility.yul\":7715:8146   */\n  pop\n  pop\n    /* \"#utility.yul\":7700:8146   */\ntag_154:\n    /* \"#utility.yul\":7610:8153   */\n  pop\n  pop\n  pop\n  jump\t// out\n    /* \"#utility.yul\":8159:8276   */\ntag_60:\n    /* \"#utility.yul\":8213:8221   */\n  0x00\n    /* \"#utility.yul\":8263:8268   */\n  dup3\n    /* \"#utility.yul\":8257:8261   */\n  dup3\n    /* \"#utility.yul\":8253:8269   */\n  shr\n    /* \"#utility.yul\":8232:8269   */\n  swap1\n  pop\n    /* \"#utility.yul\":8159:8276   */\n  swap3\n  swap2\n  pop\n  pop\n  jump\t// out\n    /* \"#utility.yul\":8282:8451   */\ntag_61:\n    /* \"#utility.yul\":8326:8332   */\n  0x00\n    /* \"#utility.yul\":8359:8410   */\n  tag_162\n    /* \"#utility.yul\":8407:8408   */\n  0x00\n    /* \"#utility.yul\":8403:8409   */\n  not\n    /* \"#utility.yul\":8395:8400   */\n  dup5\n    /* \"#utility.yul\":8392:8393   */\n  0x08\n    /* \"#utility.yul\":8388:8401   */\n  mul\n    /* \"#utility.yul\":8359:8410   */\n  tag_60\n  jump\t// in\ntag_162:\n    /* \"#utility.yul\":8355:8411   */\n  not\n    /* \"#utility.yul\":8440:8444   */\n  dup1\n    /* \"#utility.yul\":8434:8438   */\n  dup4\n    /* \"#utility.yul\":8430:8445   */\n  and\n    /* \"#utility.yul\":8420:8445   */\n  swap2\n  pop\n    /* \"#utility.yul\":8333:8451   */\n  pop\n    /* \"#utility.yul\":8282:8451   */\n  swap3\n  swap2\n  pop\n  pop\n  jump\t// out\n    /* \"#utility.yul\":8456:8751   */\ntag_62:\n    /* \"#utility.yul\":8532:8536   */\n  0x00\n    /* \"#utility.yul\":8678:8707   */\n  tag_164\n    /* \"#utility.yul\":8703:8706   */\n  dup4\n    /* \"#utility.yul\":8697:8701   */\n  dup4\n    /* \"#utility.yul\":8678:8707   */\n  tag_61\n  jump\t// in\ntag_164:\n    /* \"#utility.yul\":8670:8707   */\n  swap2\n  pop\n    /* \"#utility.yul\":8740:8743   */\n  dup3\n    /* \"#utility.yul\":8737:8738   */\n  0x02\n    /* \"#utility.yul\":8733:8744   */\n  mul\n    /* \"#utility.yul\":8727:8731   */\n  dup3\n    /* \"#utility.yul\":8724:8745   */\n  or\n    /* \"#utility.yul\":8716:8745   */\n  swap1\n  pop\n    /* \"#utility.yul\":8456:8751   */\n  swap3\n  swap2\n  pop\n  pop\n  jump\t// out\n    /* \"#utility.yul\":8756:10151   */\ntag_13:\n    /* \"#utility.yul\":8873:8910   */\n  tag_166\n    /* \"#utility.yul\":8906:8909   */\n  dup3\n    /* \"#utility.yul\":8873:8910   */\n  tag_45\n  jump\t// in\ntag_166:\n    /* \"#utility.yul\":8975:8993   */\n  0xffffffffffffffff\n    /* \"#utility.yul\":8967:8973   */\n  dup2\n    /* \"#utility.yul\":8964:8994   */\n  gt\n    /* \"#utility.yul\":8961:9017   */\n  iszero\n  tag_167\n  jumpi\n    /* \"#utility.yul\":8997:9015   */\n  tag_168\n  tag_33\n  jump\t// in\ntag_168:\n    /* \"#utility.yul\":8961:9017   */\ntag_167:\n    /* \"#utility.yul\":9041:9079   */\n  tag_169\n    /* \"#utility.yul\":9073:9077   */\n  dup3\n    /* \"#utility.yul\":9067:9078   */\n  sload\n    /* \"#utility.yul\":9041:9079   */\n  tag_21\n  jump\t// in\ntag_169:\n    /* \"#utility.yul\":9126:9193   */\n  tag_170\n    /* \"#utility.yul\":9186:9192   */\n  dup3\n    /* \"#utility.yul\":9178:9184   */\n  dup3\n    /* \"#utility.yul\":9172:9176   */\n  dup6\n    /* \"#utility.yul\":9126:9193   */\n  tag_59\n  jump\t// in\ntag_170:\n    /* \"#utility.yul\":9220:9221   */\n  0x00\n    /* \"#utility.yul\":9244:9248   */\n  0x20\n    /* \"#utility.yul\":9231:9248   */\n  swap1\n  pop\n    /* \"#utility.yul\":9276:9278   */\n  0x1f\n    /* \"#utility.yul\":9268:9274   */\n  dup4\n    /* \"#utility.yul\":9265:9279   */\n  gt\n    /* \"#utility.yul\":9293:9294   */\n  0x01\n    /* \"#utility.yul\":9288:9906   */\n  dup2\n  eq\n  tag_172\n  jumpi\n    /* \"#utility.yul\":9950:9951   */\n  0x00\n    /* \"#utility.yul\":9967:9973   */\n  dup5\n    /* \"#utility.yul\":9964:10041   */\n  iszero\n  tag_173\n  jumpi\n    /* \"#utility.yul\":10016:10025   */\n  dup3\n    /* \"#utility.yul\":10011:10014   */\n  dup8\n    /* \"#utility.yul\":10007:10026   */\n  add\n    /* \"#utility.yul\":10001:10027   */\n  mload\n    /* \"#utility.yul\":9992:10027   */\n  swap1\n  pop\n    /* \"#utility.yul\":9964:10041   */\ntag_173:\n    /* \"#utility.yul\":10067:10134   */\n  tag_174\n    /* \"#utility.yul\":10127:10133   */\n  dup6\n    /* \"#utility.yul\":10120:10125   */\n  dup3\n    /* \"#utility.yul\":10067:10134   */\n  tag_62\n  jump\t// in\ntag_174:\n    /* \"#utility.yul\":10061:10065   */\n  dup7\n    /* \"#utility.yul\":10054:10135   */\n  sstore\n    /* \"#utility.yul\":9923:10145   */\n  pop\n    /* \"#utility.yul\":9258:10145   */\n  jump(tag_171)\n    /* \"#utility.yul\":9288:9906   */\ntag_172:\n    /* \"#utility.yul\":9340:9344   */\n  0x1f\n    /* \"#utility.yul\":9336:9345   */\n  not\n    /* \"#utility.yul\":9328:9334   */\n  dup5\n    /* \"#utility.yul\":9324:9346   */\n  and\n    /* \"#utility.yul\":9374:9411   */\n  tag_175\n    /* \"#utility.yul\":9406:9410   */\n  dup7\n    /* \"#utility.yul\":9374:9411   */\n  tag_47\n  jump\t// in\ntag_175:\n    /* \"#utility.yul\":9433:9434   */\n  0x00\n    /* \"#utility.yul\":9447:9655   */\ntag_176:\n    /* \"#utility.yul\":9461:9468   */\n  dup3\n    /* \"#utility.yul\":9458:9459   */\n  dup2\n    /* \"#utility.yul\":9455:9469   */\n  lt\n    /* \"#utility.yul\":9447:9655   */\n  iszero\n  tag_178\n  jumpi\n    /* \"#utility.yul\":9540:9549   */\n  dup5\n    /* \"#utility.yul\":9535:9538   */\n  dup10\n    /* \"#utility.yul\":9531:9550   */\n  add\n    /* \"#utility.yul\":9525:9551   */\n  mload\n    /* \"#utility.yul\":9517:9523   */\n  dup3\n    /* \"#utility.yul\":9510:9552   */\n  sstore\n    /* \"#utility.yul\":9591:9592   */\n  0x01\n    /* \"#utility.yul\":9583:9589   */\n  dup3\n    /* \"#utility.yul\":9579:9593   */\n  add\n    /* \"#utility.yul\":9569:9593   */\n  swap2\n  pop\n    /* \"#utility.yul\":9638:9640   */\n  0x20\n    /* \"#utility.yul\":9627:9636   */\n  dup6\n    /* \"#utility.yul\":9623:9641   */\n  add\n    /* \"#utility.yul\":9610:9641   */\n  swap5\n  pop\n    /* \"#utility.yul\":9484:9488   */\n  0x20\n    /* \"#utility.yul\":9481:9482   */\n  dup2\n    /* \"#utility.yul\":9477:9489   */\n  add\n    /* \"#utility.yul\":9472:9489   */\n  swap1\n  pop\n    /* \"#utility.yul\":9447:9655   */\n  jump(tag_176)\ntag_178:\n    /* \"#utility.yul\":9683:9689   */\n  dup7\n    /* \"#utility.yul\":9674:9681   */\n  dup4\n    /* \"#utility.yul\":9671:9690   */\n  lt\n    /* \"#utility.yul\":9668:9847   */\n  iszero\n  tag_179\n  jumpi\n    /* \"#utility.yul\":9741:9750   */\n  dup5\n    /* \"#utility.yul\":9736:9739   */\n  dup10\n    /* \"#utility.yul\":9732:9751   */\n  add\n    /* \"#utility.yul\":9726:9752   */\n  mload\n    /* \"#utility.yul\":9784:9832   */\n  tag_180\n    /* \"#utility.yul\":9826:9830   */\n  0x1f\n    /* \"#utility.yul\":9818:9824   */\n  dup10\n    /* \"#utility.yul\":9814:9831   */\n  and\n    /* \"#utility.yul\":9803:9812   */\n  dup3\n    /* \"#utility.yul\":9784:9832   */\n  tag_61\n  jump\t// in\ntag_180:\n    /* \"#utility.yul\":9776:9782   */\n  dup4\n    /* \"#utility.yul\":9769:9833   */\n  sstore\n    /* \"#utility.yul\":9691:9847   */\n  pop\n    /* \"#utility.yul\":9668:9847   */\ntag_179:\n    /* \"#utility.yul\":9893:9894   */\n  0x01\n    /* \"#utility.yul\":9889:9890   */\n  0x02\n    /* \"#utility.yul\":9881:9887   */\n  dup9\n    /* \"#utility.yul\":9877:9891   */\n  mul\n    /* \"#utility.yul\":9873:9895   */\n  add\n    /* \"#utility.yul\":9867:9871   */\n  dup9\n    /* \"#utility.yul\":9860:9896   */\n  sstore\n    /* \"#utility.yul\":9295:9906   */\n  pop\n  pop\n  pop\n    /* \"#utility.yul\":9258:10145   */\ntag_171:\n  pop\n    /* \"#utility.yul\":8848:10151   */\n  pop\n  pop\n  pop\n    /* \"#utility.yul\":8756:10151   */\n  pop\n  pop\n  jump\t// out\n    /* \"contracts/ShareSecret.sol\":80:3316  contract Node {... */\ntag_8:\n  dataSize(sub_0)\n  dup1\n  dataOffset(sub_0)\n  0x00\n  codecopy\n  0x00\n  return\nstop\n\nsub_0: assembly {\n        /* \"contracts/ShareSecret.sol\":80:3316  contract Node {... */\n      mstore(0x40, 0x80)\n      callvalue\n      dup1\n      iszero\n      tag_1\n      jumpi\n      0x00\n      dup1\n      revert\n    tag_1:\n      pop\n      jumpi(tag_2, lt(calldatasize, 0x04))\n      shr(0xe0, calldataload(0x00))\n      dup1\n      0x7427a40c\n      gt\n      tag_23\n      jumpi\n      dup1\n      0xc0befa53\n      gt\n      tag_24\n      jumpi\n      dup1\n      0xc0befa53\n      eq\n      tag_18\n      jumpi\n      dup1\n      0xd534cc0e\n      eq\n      tag_19\n      jumpi\n      dup1\n      0xd73fe0aa\n      eq\n      tag_20\n      jumpi\n      dup1\n      0xe4fc6b6d\n      eq\n      tag_21\n      jumpi\n      dup1\n      0xebf47977\n      eq\n      tag_22\n      jumpi\n      jump(tag_2)\n    tag_24:\n      dup1\n      0x7427a40c\n      eq\n      tag_13\n      jumpi\n      dup1\n      0x790a0940\n      eq\n      tag_14\n      jumpi\n      dup1\n      0x8477d9f3\n      eq\n      tag_15\n      jumpi\n      dup1\n      0x8da5cb5b\n      eq\n      tag_16\n      jumpi\n      dup1\n      0x9a5eec33\n      eq\n      tag_17\n      jumpi\n      jump(tag_2)\n    tag_23:\n      dup1\n      0x3f8b4866\n      gt\n      tag_25\n      jumpi\n      dup1\n      0x3f8b4866\n      eq\n      tag_8\n      jumpi\n      dup1\n      0x4cc82215\n      eq\n      tag_9\n      jumpi\n      dup1\n      0x50e78191\n      eq\n      tag_10\n      jumpi\n      dup1\n      0x57a858fc\n      eq\n      tag_11\n      jumpi\n      dup1\n      0x728f1112\n      eq\n      tag_12\n      jumpi\n      jump(tag_2)\n    tag_25:\n      dup1\n      0x01570fe8\n      eq\n      tag_3\n      jumpi\n      dup1\n      0x17377f68\n      eq\n      tag_4\n      jumpi\n      dup1\n      0x1bf9cb17\n      eq\n      tag_5\n      jumpi\n      dup1\n      0x1e1cf160\n      eq\n      tag_6\n      jumpi\n      dup1\n      0x32c6afd0\n      eq\n      tag_7\n      jumpi\n    tag_2:\n      0x00\n      dup1\n      revert\n        /* \"contracts/ShareSecret.sol\":3003:3064  function notifySecretOwner(bool acceptStatus) public {... */\n    tag_3:\n      tag_26\n      0x04\n      dup1\n      calldatasize\n      sub\n      dup2\n      add\n      swap1\n      tag_27\n      swap2\n      swap1\n      tag_28\n      jump\t// in\n    tag_27:\n      tag_29\n      jump\t// in\n    tag_26:\n      stop\n        /* \"contracts/ShareSecret.sol\":2361:2450  function regenerate() public view returns (string[] memory){... */\n    tag_4:\n      tag_30\n      tag_31\n      jump\t// in\n    tag_30:\n      mload(0x40)\n      tag_32\n      swap2\n      swap1\n      tag_33\n      jump\t// in\n    tag_32:\n      mload(0x40)\n      dup1\n      swap2\n      sub\n      swap1\n      return\n        /* \"contracts/ShareSecret.sol\":2621:2667  function repayGasFee()public onlyOwner{... */\n    tag_5:\n      tag_34\n      tag_35\n      jump\t// in\n    tag_34:\n      stop\n        /* \"contracts/ShareSecret.sol\":339:382  mapping(address => string) public sharesMap */\n    tag_6:\n      tag_36\n      0x04\n      dup1\n      calldatasize\n      sub\n      dup2\n      add\n      swap1\n      tag_37\n      swap2\n      swap1\n      tag_38\n      jump\t// in\n    tag_37:\n      tag_39\n      jump\t// in\n    tag_36:\n      mload(0x40)\n      tag_40\n      swap2\n      swap1\n      tag_41\n      jump\t// in\n    tag_40:\n      mload(0x40)\n      dup1\n      swap2\n      sub\n      swap1\n      return\n        /* \"contracts/ShareSecret.sol\":2886:2998  function rejectInvitation() public returns (bool){... */\n    tag_7:\n      tag_42\n      tag_43\n      jump\t// in\n    tag_42:\n      mload(0x40)\n      tag_44\n      swap2\n      swap1\n      tag_45\n      jump\t// in\n    tag_44:\n      mload(0x40)\n      dup1\n      swap2\n      sub\n      swap1\n      return\n        /* \"contracts/ShareSecret.sol\":2456:2556  function notifySendingToHolders(address payable holder, string memory share)public onlyOwner{... */\n    tag_8:\n      tag_46\n      0x04\n      dup1\n      calldatasize\n      sub\n      dup2\n      add\n      swap1\n      tag_47\n      swap2\n      swap1\n      tag_48\n      jump\t// in\n    tag_47:\n      tag_49\n      jump\t// in\n    tag_46:\n      stop\n        /* \"contracts/ShareSecret.sol\":1805:2040  function remove(uint256 index) public {... */\n    tag_9:\n      tag_50\n      0x04\n      dup1\n      calldatasize\n      sub\n      dup2\n      add\n      swap1\n      tag_51\n      swap2\n      swap1\n      tag_52\n      jump\t// in\n    tag_51:\n      tag_53\n      jump\t// in\n    tag_50:\n      stop\n        /* \"contracts/ShareSecret.sol\":2087:2355  function removeShareHolders(address payable shareHolder) public onlyOwner {... */\n    tag_10:\n      tag_54\n      0x04\n      dup1\n      calldatasize\n      sub\n      dup2\n      add\n      swap1\n      tag_55\n      swap2\n      swap1\n      tag_56\n      jump\t// in\n    tag_55:\n      tag_57\n      jump\t// in\n    tag_54:\n      stop\n        /* \"contracts/ShareSecret.sol\":189:211  string[] public shares */\n    tag_11:\n      tag_58\n      0x04\n      dup1\n      calldatasize\n      sub\n      dup2\n      add\n      swap1\n      tag_59\n      swap2\n      swap1\n      tag_52\n      jump\t// in\n    tag_59:\n      tag_60\n      jump\t// in\n    tag_58:\n      mload(0x40)\n      tag_61\n      swap2\n      swap1\n      tag_41\n      jump\t// in\n    tag_61:\n      mload(0x40)\n      dup1\n      swap2\n      sub\n      swap1\n      return\n        /* \"contracts/ShareSecret.sol\":2771:2881  function acceptInvitation() public returns (bool){... */\n    tag_12:\n      tag_62\n      tag_63\n      jump\t// in\n    tag_62:\n      mload(0x40)\n      tag_64\n      swap2\n      swap1\n      tag_45\n      jump\t// in\n    tag_64:\n      mload(0x40)\n      dup1\n      swap2\n      sub\n      swap1\n      return\n        /* \"contracts/ShareSecret.sol\":126:163  address payable[] public shareHolders */\n    tag_13:\n      tag_65\n      0x04\n      dup1\n      calldatasize\n      sub\n      dup2\n      add\n      swap1\n      tag_66\n      swap2\n      swap1\n      tag_52\n      jump\t// in\n    tag_66:\n      tag_67\n      jump\t// in\n    tag_65:\n      mload(0x40)\n      tag_68\n      swap2\n      swap1\n      tag_69\n      jump\t// in\n    tag_68:\n      mload(0x40)\n      dup1\n      swap2\n      sub\n      swap1\n      return\n        /* \"contracts/ShareSecret.sol\":1681:1799  function addShareHolders(address payable shareHolder) public onlyOwner {... */\n    tag_14:\n      tag_70\n      0x04\n      dup1\n      calldatasize\n      sub\n      dup2\n      add\n      swap1\n      tag_71\n      swap2\n      swap1\n      tag_56\n      jump\t// in\n    tag_71:\n      tag_72\n      jump\t// in\n    tag_70:\n      stop\n        /* \"contracts/ShareSecret.sol\":1424:1534  function getShareHolders() public view returns (address payable[] memory) {... */\n    tag_15:\n      tag_73\n      tag_74\n      jump\t// in\n    tag_73:\n      mload(0x40)\n      tag_75\n      swap2\n      swap1\n      tag_76\n      jump\t// in\n    tag_75:\n      mload(0x40)\n      dup1\n      swap2\n      sub\n      swap1\n      return\n        /* \"contracts/ShareSecret.sol\":100:120  address public owner */\n    tag_16:\n      tag_77\n      tag_78\n      jump\t// in\n    tag_77:\n      mload(0x40)\n      tag_79\n      swap2\n      swap1\n      tag_80\n      jump\t// in\n    tag_79:\n      mload(0x40)\n      dup1\n      swap2\n      sub\n      swap1\n      return\n        /* \"contracts/ShareSecret.sol\":2562:2616  function askingFromHolders() public onlyOwner {... */\n    tag_17:\n      tag_81\n      tag_82\n      jump\t// in\n    tag_81:\n      stop\n        /* \"contracts/ShareSecret.sol\":3069:3234  function releaseSecret(address ownerAddress) public view returns (string memory){... */\n    tag_18:\n      tag_83\n      0x04\n      dup1\n      calldatasize\n      sub\n      dup2\n      add\n      swap1\n      tag_84\n      swap2\n      swap1\n      tag_38\n      jump\t// in\n    tag_84:\n      tag_85\n      jump\t// in\n    tag_83:\n      mload(0x40)\n      tag_86\n      swap2\n      swap1\n      tag_41\n      jump\t// in\n    tag_86:\n      mload(0x40)\n      dup1\n      swap2\n      sub\n      swap1\n      return\n        /* \"contracts/ShareSecret.sol\":257:306  mapping(address => string) public shareHoldersMap */\n    tag_19:\n      tag_87\n      0x04\n      dup1\n      calldatasize\n      sub\n      dup2\n      add\n      swap1\n      tag_88\n      swap2\n      swap1\n      tag_38\n      jump\t// in\n    tag_88:\n      tag_89\n      jump\t// in\n    tag_87:\n      mload(0x40)\n      tag_90\n      swap2\n      swap1\n      tag_41\n      jump\t// in\n    tag_90:\n      mload(0x40)\n      dup1\n      swap2\n      sub\n      swap1\n      return\n        /* \"contracts/ShareSecret.sol\":1540:1629  function getShares() public view returns (string[] memory) {... */\n    tag_20:\n      tag_91\n      tag_92\n      jump\t// in\n    tag_91:\n      mload(0x40)\n      tag_93\n      swap2\n      swap1\n      tag_33\n      jump\t// in\n    tag_93:\n      mload(0x40)\n      dup1\n      swap2\n      sub\n      swap1\n      return\n        /* \"contracts/ShareSecret.sol\":1108:1418  function distribute() public onlyOwner {... */\n    tag_21:\n      tag_94\n      tag_95\n      jump\t// in\n    tag_94:\n      stop\n        /* \"contracts/ShareSecret.sol\":3239:3308  function rejectSecretRequest(address ownerAddress)public view{... */\n    tag_22:\n      tag_96\n      0x04\n      dup1\n      calldatasize\n      sub\n      dup2\n      add\n      swap1\n      tag_97\n      swap2\n      swap1\n      tag_38\n      jump\t// in\n    tag_97:\n      tag_98\n      jump\t// in\n    tag_96:\n      stop\n        /* \"contracts/ShareSecret.sol\":3003:3064  function notifySecretOwner(bool acceptStatus) public {... */\n    tag_29:\n      pop\n      jump\t// out\n        /* \"contracts/ShareSecret.sol\":2361:2450  function regenerate() public view returns (string[] memory){... */\n    tag_31:\n        /* \"contracts/ShareSecret.sol\":2404:2419  string[] memory */\n      0x60\n        /* \"contracts/ShareSecret.sol\":2437:2443  shares */\n      0x02\n        /* \"contracts/ShareSecret.sol\":2430:2443  return shares */\n      dup1\n      sload\n      dup1\n      0x20\n      mul\n      0x20\n      add\n      mload(0x40)\n      swap1\n      dup2\n      add\n      0x40\n      mstore\n      dup1\n      swap3\n      swap2\n      swap1\n      dup2\n      dup2\n      mstore\n      0x20\n      add\n      0x00\n      swap1\n    tag_101:\n      dup3\n      dup3\n      lt\n      iszero\n      tag_102\n      jumpi\n      dup4\n      dup3\n      swap1\n      0x00\n      mstore\n      keccak256(0x00, 0x20)\n      add\n      dup1\n      sload\n      tag_104\n      swap1\n      tag_105\n      jump\t// in\n    tag_104:\n      dup1\n      0x1f\n      add\n      0x20\n      dup1\n      swap2\n      div\n      mul\n      0x20\n      add\n      mload(0x40)\n      swap1\n      dup2\n      add\n      0x40\n      mstore\n      dup1\n      swap3\n      swap2\n      swap1\n      dup2\n      dup2\n      mstore\n      0x20\n      add\n      dup3\n      dup1\n      sload\n      tag_106\n      swap1\n      tag_105\n      jump\t// in\n    tag_106:\n      dup1\n      iszero\n      tag_107\n      jumpi\n      dup1\n      0x1f\n      lt\n      tag_108\n      jumpi\n      0x0100\n      dup1\n      dup4\n      sload\n      div\n      mul\n      dup4\n      mstore\n      swap2\n      0x20\n      add\n      swap2\n      jump(tag_107)\n    tag_108:\n      dup3\n      add\n      swap2\n      swap1\n      0x00\n      mstore\n      keccak256(0x00, 0x20)\n      swap1\n    tag_109:\n      dup2\n      sload\n      dup2\n      mstore\n      swap1\n      0x01\n      add\n      swap1\n      0x20\n      add\n      dup1\n      dup4\n      gt\n      tag_109\n      jumpi\n      dup3\n      swap1\n      sub\n      0x1f\n      and\n      dup3\n      add\n      swap2\n    tag_107:\n      pop\n      pop\n      pop\n      pop\n      pop\n      dup2\n      mstore\n      0x20\n      add\n      swap1\n      0x01\n      add\n      swap1\n      jump(tag_101)\n    tag_102:\n      pop\n      pop\n      pop\n      pop\n      swap1\n      pop\n        /* \"contracts/ShareSecret.sol\":2361:2450  function regenerate() public view returns (string[] memory){... */\n      swap1\n      jump\t// out\n        /* \"contracts/ShareSecret.sol\":2621:2667  function repayGasFee()public onlyOwner{... */\n    tag_35:\n        /* \"contracts/ShareSecret.sol\":876:881  owner */\n      0x00\n      dup1\n      sload\n      swap1\n      0x0100\n      exp\n      swap1\n      div\n      0xffffffffffffffffffffffffffffffffffffffff\n      and\n        /* \"contracts/ShareSecret.sol\":862:881  msg.sender == owner */\n      0xffffffffffffffffffffffffffffffffffffffff\n      and\n        /* \"contracts/ShareSecret.sol\":862:872  msg.sender */\n      caller\n        /* \"contracts/ShareSecret.sol\":862:881  msg.sender == owner */\n      0xffffffffffffffffffffffffffffffffffffffff\n      and\n      eq\n        /* \"contracts/ShareSecret.sol\":854:914  require(msg.sender == owner, \"only owner has the privilege\") */\n      tag_111\n      jumpi\n      mload(0x40)\n      0x08c379a000000000000000000000000000000000000000000000000000000000\n      dup2\n      mstore\n      0x04\n      add\n      tag_112\n      swap1\n      tag_113\n      jump\t// in\n    tag_112:\n      mload(0x40)\n      dup1\n      swap2\n      sub\n      swap1\n      revert\n    tag_111:\n        /* \"contracts/ShareSecret.sol\":2621:2667  function repayGasFee()public onlyOwner{... */\n      jump\t// out\n        /* \"contracts/ShareSecret.sol\":339:382  mapping(address => string) public sharesMap */\n    tag_39:\n      mstore(0x20, 0x04)\n      dup1\n      0x00\n      mstore\n      keccak256(0x00, 0x40)\n      0x00\n      swap2\n      pop\n      swap1\n      pop\n      dup1\n      sload\n      tag_115\n      swap1\n      tag_105\n      jump\t// in\n    tag_115:\n      dup1\n      0x1f\n      add\n      0x20\n      dup1\n      swap2\n      div\n      mul\n      0x20\n      add\n      mload(0x40)\n      swap1\n      dup2\n      add\n      0x40\n      mstore\n      dup1\n      swap3\n      swap2\n      swap1\n      dup2\n      dup2\n      mstore\n      0x20\n      add\n      dup3\n      dup1\n      sload\n      tag_116\n      swap1\n      tag_105\n      jump\t// in\n    tag_116:\n      dup1\n      iszero\n      tag_117\n      jumpi\n      dup1\n      0x1f\n      lt\n      tag_118\n      jumpi\n      0x0100\n      dup1\n      dup4\n      sload\n      div\n      mul\n      dup4\n      mstore\n      swap2\n      0x20\n      add\n      swap2\n      jump(tag_117)\n    tag_118:\n      dup3\n      add\n      swap2\n      swap1\n      0x00\n      mstore\n      keccak256(0x00, 0x20)\n      swap1\n    tag_119:\n      dup2\n      sload\n      dup2\n      mstore\n      swap1\n      0x01\n      add\n      swap1\n      0x20\n      add\n      dup1\n      dup4\n      gt\n      tag_119\n      jumpi\n      dup3\n      swap1\n      sub\n      0x1f\n      and\n      dup3\n      add\n      swap2\n    tag_117:\n      pop\n      pop\n      pop\n      pop\n      pop\n      dup2\n      jump\t// out\n        /* \"contracts/ShareSecret.sol\":2886:2998  function rejectInvitation() public returns (bool){... */\n    tag_43:\n        /* \"contracts/ShareSecret.sol\":2930:2934  bool */\n      0x00\n        /* \"contracts/ShareSecret.sol\":2945:2969  notifySecretOwner(false) */\n      tag_121\n        /* \"contracts/ShareSecret.sol\":2963:2968  false */\n      0x00\n        /* \"contracts/ShareSecret.sol\":2945:2962  notifySecretOwner */\n      tag_29\n        /* \"contracts/ShareSecret.sol\":2945:2969  notifySecretOwner(false) */\n      jump\t// in\n    tag_121:\n        /* \"contracts/ShareSecret.sol\":2986:2991  false */\n      0x00\n        /* \"contracts/ShareSecret.sol\":2979:2991  return false */\n      swap1\n      pop\n        /* \"contracts/ShareSecret.sol\":2886:2998  function rejectInvitation() public returns (bool){... */\n      swap1\n      jump\t// out\n        /* \"contracts/ShareSecret.sol\":2456:2556  function notifySendingToHolders(address payable holder, string memory share)public onlyOwner{... */\n    tag_49:\n        /* \"contracts/ShareSecret.sol\":876:881  owner */\n      0x00\n      dup1\n      sload\n      swap1\n      0x0100\n      exp\n      swap1\n      div\n      0xffffffffffffffffffffffffffffffffffffffff\n      and\n        /* \"contracts/ShareSecret.sol\":862:881  msg.sender == owner */\n      0xffffffffffffffffffffffffffffffffffffffff\n      and\n        /* \"contracts/ShareSecret.sol\":862:872  msg.sender */\n      caller\n        /* \"contracts/ShareSecret.sol\":862:881  msg.sender == owner */\n      0xffffffffffffffffffffffffffffffffffffffff\n      and\n      eq\n        /* \"contracts/ShareSecret.sol\":854:914  require(msg.sender == owner, \"only owner has the privilege\") */\n      tag_123\n      jumpi\n      mload(0x40)\n      0x08c379a000000000000000000000000000000000000000000000000000000000\n      dup2\n      mstore\n      0x04\n      add\n      tag_124\n      swap1\n      tag_113\n      jump\t// in\n    tag_124:\n      mload(0x40)\n      dup1\n      swap2\n      sub\n      swap1\n      revert\n    tag_123:\n        /* \"contracts/ShareSecret.sol\":2456:2556  function notifySendingToHolders(address payable holder, string memory share)public onlyOwner{... */\n      pop\n      pop\n      jump\t// out\n        /* \"contracts/ShareSecret.sol\":1805:2040  function remove(uint256 index) public {... */\n    tag_53:\n        /* \"contracts/ShareSecret.sol\":1933:1945  shareHolders */\n      0x01\n        /* \"contracts/ShareSecret.sol\":1968:1969  1 */\n      dup1\n        /* \"contracts/ShareSecret.sol\":1946:1958  shareHolders */\n      dup1\n        /* \"contracts/ShareSecret.sol\":1946:1965  shareHolders.length */\n      dup1\n      sload\n      swap1\n      pop\n        /* \"contracts/ShareSecret.sol\":1946:1969  shareHolders.length - 1 */\n      tag_127\n      swap2\n      swap1\n      tag_128\n      jump\t// in\n    tag_127:\n        /* \"contracts/ShareSecret.sol\":1933:1970  shareHolders[shareHolders.length - 1] */\n      dup2\n      sload\n      dup2\n      lt\n      tag_129\n      jumpi\n      tag_130\n      tag_131\n      jump\t// in\n    tag_130:\n    tag_129:\n      swap1\n      0x00\n      mstore\n      keccak256(0x00, 0x20)\n      add\n      0x00\n      swap1\n      sload\n      swap1\n      0x0100\n      exp\n      swap1\n      div\n      0xffffffffffffffffffffffffffffffffffffffff\n      and\n        /* \"contracts/ShareSecret.sol\":1911:1923  shareHolders */\n      0x01\n        /* \"contracts/ShareSecret.sol\":1924:1929  index */\n      dup3\n        /* \"contracts/ShareSecret.sol\":1911:1930  shareHolders[index] */\n      dup2\n      sload\n      dup2\n      lt\n      tag_133\n      jumpi\n      tag_134\n      tag_131\n      jump\t// in\n    tag_134:\n    tag_133:\n      swap1\n      0x00\n      mstore\n      keccak256(0x00, 0x20)\n      add\n      0x00\n        /* \"contracts/ShareSecret.sol\":1911:1970  shareHolders[index] = shareHolders[shareHolders.length - 1] */\n      0x0100\n      exp\n      dup2\n      sload\n      dup2\n      0xffffffffffffffffffffffffffffffffffffffff\n      mul\n      not\n      and\n      swap1\n      dup4\n      0xffffffffffffffffffffffffffffffffffffffff\n      and\n      mul\n      or\n      swap1\n      sstore\n      pop\n        /* \"contracts/ShareSecret.sol\":2015:2027  shareHolders */\n      0x01\n        /* \"contracts/ShareSecret.sol\":2015:2033  shareHolders.pop() */\n      dup1\n      sload\n      dup1\n      tag_136\n      jumpi\n      tag_137\n      tag_138\n      jump\t// in\n    tag_137:\n    tag_136:\n      0x01\n      swap1\n      sub\n      dup2\n      dup2\n      swap1\n      0x00\n      mstore\n      keccak256(0x00, 0x20)\n      add\n      exp(0x0100, 0x00)\n      dup2\n      sload\n      swap1\n      0xffffffffffffffffffffffffffffffffffffffff\n      mul\n      not\n      and\n      swap1\n      sstore\n      swap1\n      sstore\n        /* \"contracts/ShareSecret.sol\":1805:2040  function remove(uint256 index) public {... */\n      pop\n      jump\t// out\n        /* \"contracts/ShareSecret.sol\":2087:2355  function removeShareHolders(address payable shareHolder) public onlyOwner {... */\n    tag_57:\n        /* \"contracts/ShareSecret.sol\":876:881  owner */\n      0x00\n      dup1\n      sload\n      swap1\n      0x0100\n      exp\n      swap1\n      div\n      0xffffffffffffffffffffffffffffffffffffffff\n      and\n        /* \"contracts/ShareSecret.sol\":862:881  msg.sender == owner */\n      0xffffffffffffffffffffffffffffffffffffffff\n      and\n        /* \"contracts/ShareSecret.sol\":862:872  msg.sender */\n      caller\n        /* \"contracts/ShareSecret.sol\":862:881  msg.sender == owner */\n      0xffffffffffffffffffffffffffffffffffffffff\n      and\n      eq\n        /* \"contracts/ShareSecret.sol\":854:914  require(msg.sender == owner, \"only owner has the privilege\") */\n      tag_141\n      jumpi\n      mload(0x40)\n      0x08c379a000000000000000000000000000000000000000000000000000000000\n      dup2\n      mstore\n      0x04\n      add\n      tag_142\n      swap1\n      tag_113\n      jump\t// in\n    tag_142:\n      mload(0x40)\n      dup1\n      swap2\n      sub\n      swap1\n      revert\n    tag_141:\n        /* \"contracts/ShareSecret.sol\":2171:2180  uint256 i */\n      0x00\n        /* \"contracts/ShareSecret.sol\":2194:2330  for (i; i < shareHolders.length; i++) {... */\n    tag_144:\n        /* \"contracts/ShareSecret.sol\":2206:2218  shareHolders */\n      0x01\n        /* \"contracts/ShareSecret.sol\":2206:2225  shareHolders.length */\n      dup1\n      sload\n      swap1\n      pop\n        /* \"contracts/ShareSecret.sol\":2202:2203  i */\n      dup2\n        /* \"contracts/ShareSecret.sol\":2202:2225  i < shareHolders.length */\n      lt\n        /* \"contracts/ShareSecret.sol\":2194:2330  for (i; i < shareHolders.length; i++) {... */\n      iszero\n      tag_145\n      jumpi\n        /* \"contracts/ShareSecret.sol\":2269:2280  shareHolder */\n      dup2\n        /* \"contracts/ShareSecret.sol\":2250:2280  shareHolders[i] == shareHolder */\n      0xffffffffffffffffffffffffffffffffffffffff\n      and\n        /* \"contracts/ShareSecret.sol\":2250:2262  shareHolders */\n      0x01\n        /* \"contracts/ShareSecret.sol\":2263:2264  i */\n      dup3\n        /* \"contracts/ShareSecret.sol\":2250:2265  shareHolders[i] */\n      dup2\n      sload\n      dup2\n      lt\n      tag_147\n      jumpi\n      tag_148\n      tag_131\n      jump\t// in\n    tag_148:\n    tag_147:\n      swap1\n      0x00\n      mstore\n      keccak256(0x00, 0x20)\n      add\n      0x00\n      swap1\n      sload\n      swap1\n      0x0100\n      exp\n      swap1\n      div\n      0xffffffffffffffffffffffffffffffffffffffff\n      and\n        /* \"contracts/ShareSecret.sol\":2250:2280  shareHolders[i] == shareHolder */\n      0xffffffffffffffffffffffffffffffffffffffff\n      and\n      sub\n        /* \"contracts/ShareSecret.sol\":2246:2320  if (shareHolders[i] == shareHolder) {... */\n      iszero\n        /* \"contracts/ShareSecret.sol\":2300:2305  break */\n      tag_145\n        /* \"contracts/ShareSecret.sol\":2246:2320  if (shareHolders[i] == shareHolder) {... */\n      jumpi\n        /* \"contracts/ShareSecret.sol\":2227:2230  i++ */\n      dup1\n      dup1\n      tag_151\n      swap1\n      tag_152\n      jump\t// in\n    tag_151:\n      swap2\n      pop\n      pop\n        /* \"contracts/ShareSecret.sol\":2194:2330  for (i; i < shareHolders.length; i++) {... */\n      jump(tag_144)\n    tag_145:\n        /* \"contracts/ShareSecret.sol\":2339:2348  remove(i) */\n      tag_153\n        /* \"contracts/ShareSecret.sol\":2346:2347  i */\n      dup2\n        /* \"contracts/ShareSecret.sol\":2339:2345  remove */\n      tag_53\n        /* \"contracts/ShareSecret.sol\":2339:2348  remove(i) */\n      jump\t// in\n    tag_153:\n        /* \"contracts/ShareSecret.sol\":2161:2355  {... */\n      pop\n        /* \"contracts/ShareSecret.sol\":2087:2355  function removeShareHolders(address payable shareHolder) public onlyOwner {... */\n      pop\n      jump\t// out\n        /* \"contracts/ShareSecret.sol\":189:211  string[] public shares */\n    tag_60:\n      0x02\n      dup2\n      dup2\n      sload\n      dup2\n      lt\n      tag_154\n      jumpi\n      0x00\n      dup1\n      revert\n    tag_154:\n      swap1\n      0x00\n      mstore\n      keccak256(0x00, 0x20)\n      add\n      0x00\n      swap2\n      pop\n      swap1\n      pop\n      dup1\n      sload\n      tag_156\n      swap1\n      tag_105\n      jump\t// in\n    tag_156:\n      dup1\n      0x1f\n      add\n      0x20\n      dup1\n      swap2\n      div\n      mul\n      0x20\n      add\n      mload(0x40)\n      swap1\n      dup2\n      add\n      0x40\n      mstore\n      dup1\n      swap3\n      swap2\n      swap1\n      dup2\n      dup2\n      mstore\n      0x20\n      add\n      dup3\n      dup1\n      sload\n      tag_157\n      swap1\n      tag_105\n      jump\t// in\n    tag_157:\n      dup1\n      iszero\n      tag_158\n      jumpi\n      dup1\n      0x1f\n      lt\n      tag_159\n      jumpi\n      0x0100\n      dup1\n      dup4\n      sload\n      div\n      mul\n      dup4\n      mstore\n      swap2\n      0x20\n      add\n      swap2\n      jump(tag_158)\n    tag_159:\n      dup3\n      add\n      swap2\n      swap1\n      0x00\n      mstore\n      keccak256(0x00, 0x20)\n      swap1\n    tag_160:\n      dup2\n      sload\n      dup2\n      mstore\n      swap1\n      0x01\n      add\n      swap1\n      0x20\n      add\n      dup1\n      dup4\n      gt\n      tag_160\n      jumpi\n      dup3\n      swap1\n      sub\n      0x1f\n      and\n      dup3\n      add\n      swap2\n    tag_158:\n      pop\n      pop\n      pop\n      pop\n      pop\n      dup2\n      jump\t// out\n        /* \"contracts/ShareSecret.sol\":2771:2881  function acceptInvitation() public returns (bool){... */\n    tag_63:\n        /* \"contracts/ShareSecret.sol\":2815:2819  bool */\n      0x00\n        /* \"contracts/ShareSecret.sol\":2830:2853  notifySecretOwner(true) */\n      tag_162\n        /* \"contracts/ShareSecret.sol\":2848:2852  true */\n      0x01\n        /* \"contracts/ShareSecret.sol\":2830:2847  notifySecretOwner */\n      tag_29\n        /* \"contracts/ShareSecret.sol\":2830:2853  notifySecretOwner(true) */\n      jump\t// in\n    tag_162:\n        /* \"contracts/ShareSecret.sol\":2870:2874  true */\n      0x01\n        /* \"contracts/ShareSecret.sol\":2863:2874  return true */\n      swap1\n      pop\n        /* \"contracts/ShareSecret.sol\":2771:2881  function acceptInvitation() public returns (bool){... */\n      swap1\n      jump\t// out\n        /* \"contracts/ShareSecret.sol\":126:163  address payable[] public shareHolders */\n    tag_67:\n      0x01\n      dup2\n      dup2\n      sload\n      dup2\n      lt\n      tag_163\n      jumpi\n      0x00\n      dup1\n      revert\n    tag_163:\n      swap1\n      0x00\n      mstore\n      keccak256(0x00, 0x20)\n      add\n      0x00\n      swap2\n      pop\n      sload\n      swap1\n      0x0100\n      exp\n      swap1\n      div\n      0xffffffffffffffffffffffffffffffffffffffff\n      and\n      dup2\n      jump\t// out\n        /* \"contracts/ShareSecret.sol\":1681:1799  function addShareHolders(address payable shareHolder) public onlyOwner {... */\n    tag_72:\n        /* \"contracts/ShareSecret.sol\":876:881  owner */\n      0x00\n      dup1\n      sload\n      swap1\n      0x0100\n      exp\n      swap1\n      div\n      0xffffffffffffffffffffffffffffffffffffffff\n      and\n        /* \"contracts/ShareSecret.sol\":862:881  msg.sender == owner */\n      0xffffffffffffffffffffffffffffffffffffffff\n      and\n        /* \"contracts/ShareSecret.sol\":862:872  msg.sender */\n      caller\n        /* \"contracts/ShareSecret.sol\":862:881  msg.sender == owner */\n      0xffffffffffffffffffffffffffffffffffffffff\n      and\n      eq\n        /* \"contracts/ShareSecret.sol\":854:914  require(msg.sender == owner, \"only owner has the privilege\") */\n      tag_166\n      jumpi\n      mload(0x40)\n      0x08c379a000000000000000000000000000000000000000000000000000000000\n      dup2\n      mstore\n      0x04\n      add\n      tag_167\n      swap1\n      tag_113\n      jump\t// in\n    tag_167:\n      mload(0x40)\n      dup1\n      swap2\n      sub\n      swap1\n      revert\n    tag_166:\n        /* \"contracts/ShareSecret.sol\":1762:1774  shareHolders */\n      0x01\n        /* \"contracts/ShareSecret.sol\":1780:1791  shareHolder */\n      dup2\n        /* \"contracts/ShareSecret.sol\":1762:1792  shareHolders.push(shareHolder) */\n      swap1\n      dup1\n      0x01\n      dup2\n      sload\n      add\n      dup1\n      dup3\n      sstore\n      dup1\n      swap2\n      pop\n      pop\n      0x01\n      swap1\n      sub\n      swap1\n      0x00\n      mstore\n      keccak256(0x00, 0x20)\n      add\n      0x00\n      swap1\n      swap2\n      swap1\n      swap2\n      swap1\n      swap2\n      0x0100\n      exp\n      dup2\n      sload\n      dup2\n      0xffffffffffffffffffffffffffffffffffffffff\n      mul\n      not\n      and\n      swap1\n      dup4\n      0xffffffffffffffffffffffffffffffffffffffff\n      and\n      mul\n      or\n      swap1\n      sstore\n      pop\n        /* \"contracts/ShareSecret.sol\":1681:1799  function addShareHolders(address payable shareHolder) public onlyOwner {... */\n      pop\n      jump\t// out\n        /* \"contracts/ShareSecret.sol\":1424:1534  function getShareHolders() public view returns (address payable[] memory) {... */\n    tag_74:\n        /* \"contracts/ShareSecret.sol\":1472:1496  address payable[] memory */\n      0x60\n        /* \"contracts/ShareSecret.sol\":1515:1527  shareHolders */\n      0x01\n        /* \"contracts/ShareSecret.sol\":1508:1527  return shareHolders */\n      dup1\n      sload\n      dup1\n      0x20\n      mul\n      0x20\n      add\n      mload(0x40)\n      swap1\n      dup2\n      add\n      0x40\n      mstore\n      dup1\n      swap3\n      swap2\n      swap1\n      dup2\n      dup2\n      mstore\n      0x20\n      add\n      dup3\n      dup1\n      sload\n      dup1\n      iszero\n      tag_171\n      jumpi\n      0x20\n      mul\n      dup3\n      add\n      swap2\n      swap1\n      0x00\n      mstore\n      keccak256(0x00, 0x20)\n      swap1\n    tag_172:\n      dup2\n      0x00\n      swap1\n      sload\n      swap1\n      0x0100\n      exp\n      swap1\n      div\n      0xffffffffffffffffffffffffffffffffffffffff\n      and\n      0xffffffffffffffffffffffffffffffffffffffff\n      and\n      dup2\n      mstore\n      0x20\n      add\n      swap1\n      0x01\n      add\n      swap1\n      dup1\n      dup4\n      gt\n      tag_172\n      jumpi\n    tag_171:\n      pop\n      pop\n      pop\n      pop\n      pop\n      swap1\n      pop\n        /* \"contracts/ShareSecret.sol\":1424:1534  function getShareHolders() public view returns (address payable[] memory) {... */\n      swap1\n      jump\t// out\n        /* \"contracts/ShareSecret.sol\":100:120  address public owner */\n    tag_78:\n      0x00\n      dup1\n      sload\n      swap1\n      0x0100\n      exp\n      swap1\n      div\n      0xffffffffffffffffffffffffffffffffffffffff\n      and\n      dup2\n      jump\t// out\n        /* \"contracts/ShareSecret.sol\":2562:2616  function askingFromHolders() public onlyOwner {... */\n    tag_82:\n        /* \"contracts/ShareSecret.sol\":876:881  owner */\n      0x00\n      dup1\n      sload\n      swap1\n      0x0100\n      exp\n      swap1\n      div\n      0xffffffffffffffffffffffffffffffffffffffff\n      and\n        /* \"contracts/ShareSecret.sol\":862:881  msg.sender == owner */\n      0xffffffffffffffffffffffffffffffffffffffff\n      and\n        /* \"contracts/ShareSecret.sol\":862:872  msg.sender */\n      caller\n        /* \"contracts/ShareSecret.sol\":862:881  msg.sender == owner */\n      0xffffffffffffffffffffffffffffffffffffffff\n      and\n      eq\n        /* \"contracts/ShareSecret.sol\":854:914  require(msg.sender == owner, \"only owner has the privilege\") */\n      tag_174\n      jumpi\n      mload(0x40)\n      0x08c379a000000000000000000000000000000000000000000000000000000000\n      dup2\n      mstore\n      0x04\n      add\n      tag_175\n      swap1\n      tag_113\n      jump\t// in\n    tag_175:\n      mload(0x40)\n      dup1\n      swap2\n      sub\n      swap1\n      revert\n    tag_174:\n        /* \"contracts/ShareSecret.sol\":2562:2616  function askingFromHolders() public onlyOwner {... */\n      jump\t// out\n        /* \"contracts/ShareSecret.sol\":3069:3234  function releaseSecret(address ownerAddress) public view returns (string memory){... */\n    tag_85:\n        /* \"contracts/ShareSecret.sol\":3135:3148  string memory */\n      0x60\n        /* \"contracts/ShareSecret.sol\":3159:3179  string memory secret */\n      0x00\n        /* \"contracts/ShareSecret.sol\":3181:3190  sharesMap */\n      0x04\n        /* \"contracts/ShareSecret.sol\":3181:3204  sharesMap[ownerAddress] */\n      0x00\n        /* \"contracts/ShareSecret.sol\":3191:3203  ownerAddress */\n      dup5\n        /* \"contracts/ShareSecret.sol\":3181:3204  sharesMap[ownerAddress] */\n      0xffffffffffffffffffffffffffffffffffffffff\n      and\n      0xffffffffffffffffffffffffffffffffffffffff\n      and\n      dup2\n      mstore\n      0x20\n      add\n      swap1\n      dup2\n      mstore\n      0x20\n      add\n      0x00\n      keccak256\n        /* \"contracts/ShareSecret.sol\":3159:3204  string memory secret =sharesMap[ownerAddress] */\n      dup1\n      sload\n      tag_178\n      swap1\n      tag_105\n      jump\t// in\n    tag_178:\n      dup1\n      0x1f\n      add\n      0x20\n      dup1\n      swap2\n      div\n      mul\n      0x20\n      add\n      mload(0x40)\n      swap1\n      dup2\n      add\n      0x40\n      mstore\n      dup1\n      swap3\n      swap2\n      swap1\n      dup2\n      dup2\n      mstore\n      0x20\n      add\n      dup3\n      dup1\n      sload\n      tag_179\n      swap1\n      tag_105\n      jump\t// in\n    tag_179:\n      dup1\n      iszero\n      tag_180\n      jumpi\n      dup1\n      0x1f\n      lt\n      tag_181\n      jumpi\n      0x0100\n      dup1\n      dup4\n      sload\n      div\n      mul\n      dup4\n      mstore\n      swap2\n      0x20\n      add\n      swap2\n      jump(tag_180)\n    tag_181:\n      dup3\n      add\n      swap2\n      swap1\n      0x00\n      mstore\n      keccak256(0x00, 0x20)\n      swap1\n    tag_182:\n      dup2\n      sload\n      dup2\n      mstore\n      swap1\n      0x01\n      add\n      swap1\n      0x20\n      add\n      dup1\n      dup4\n      gt\n      tag_182\n      jumpi\n      dup3\n      swap1\n      sub\n      0x1f\n      and\n      dup3\n      add\n      swap2\n    tag_180:\n      pop\n      pop\n      pop\n      pop\n      pop\n      swap1\n      pop\n        /* \"contracts/ShareSecret.sol\":3221:3227  secret */\n      dup1\n        /* \"contracts/ShareSecret.sol\":3214:3227  return secret */\n      swap2\n      pop\n      pop\n        /* \"contracts/ShareSecret.sol\":3069:3234  function releaseSecret(address ownerAddress) public view returns (string memory){... */\n      swap2\n      swap1\n      pop\n      jump\t// out\n        /* \"contracts/ShareSecret.sol\":257:306  mapping(address => string) public shareHoldersMap */\n    tag_89:\n      mstore(0x20, 0x03)\n      dup1\n      0x00\n      mstore\n      keccak256(0x00, 0x40)\n      0x00\n      swap2\n      pop\n      swap1\n      pop\n      dup1\n      sload\n      tag_183\n      swap1\n      tag_105\n      jump\t// in\n    tag_183:\n      dup1\n      0x1f\n      add\n      0x20\n      dup1\n      swap2\n      div\n      mul\n      0x20\n      add\n      mload(0x40)\n      swap1\n      dup2\n      add\n      0x40\n      mstore\n      dup1\n      swap3\n      swap2\n      swap1\n      dup2\n      dup2\n      mstore\n      0x20\n      add\n      dup3\n      dup1\n      sload\n      tag_184\n      swap1\n      tag_105\n      jump\t// in\n    tag_184:\n      dup1\n      iszero\n      tag_185\n      jumpi\n      dup1\n      0x1f\n      lt\n      tag_186\n      jumpi\n      0x0100\n      dup1\n      dup4\n      sload\n      div\n      mul\n      dup4\n      mstore\n      swap2\n      0x20\n      add\n      swap2\n      jump(tag_185)\n    tag_186:\n      dup3\n      add\n      swap2\n      swap1\n      0x00\n      mstore\n      keccak256(0x00, 0x20)\n      swap1\n    tag_187:\n      dup2\n      sload\n      dup2\n      mstore\n      swap1\n      0x01\n      add\n      swap1\n      0x20\n      add\n      dup1\n      dup4\n      gt\n      tag_187\n      jumpi\n      dup3\n      swap1\n      sub\n      0x1f\n      and\n      dup3\n      add\n      swap2\n    tag_185:\n      pop\n      pop\n      pop\n      pop\n      pop\n      dup2\n      jump\t// out\n        /* \"contracts/ShareSecret.sol\":1540:1629  function getShares() public view returns (string[] memory) {... */\n    tag_92:\n        /* \"contracts/ShareSecret.sol\":1582:1597  string[] memory */\n      0x60\n        /* \"contracts/ShareSecret.sol\":1616:1622  shares */\n      0x02\n        /* \"contracts/ShareSecret.sol\":1609:1622  return shares */\n      dup1\n      sload\n      dup1\n      0x20\n      mul\n      0x20\n      add\n      mload(0x40)\n      swap1\n      dup2\n      add\n      0x40\n      mstore\n      dup1\n      swap3\n      swap2\n      swap1\n      dup2\n      dup2\n      mstore\n      0x20\n      add\n      0x00\n      swap1\n    tag_189:\n      dup3\n      dup3\n      lt\n      iszero\n      tag_190\n      jumpi\n      dup4\n      dup3\n      swap1\n      0x00\n      mstore\n      keccak256(0x00, 0x20)\n      add\n      dup1\n      sload\n      tag_192\n      swap1\n      tag_105\n      jump\t// in\n    tag_192:\n      dup1\n      0x1f\n      add\n      0x20\n      dup1\n      swap2\n      div\n      mul\n      0x20\n      add\n      mload(0x40)\n      swap1\n      dup2\n      add\n      0x40\n      mstore\n      dup1\n      swap3\n      swap2\n      swap1\n      dup2\n      dup2\n      mstore\n      0x20\n      add\n      dup3\n      dup1\n      sload\n      tag_193\n      swap1\n      tag_105\n      jump\t// in\n    tag_193:\n      dup1\n      iszero\n      tag_194\n      jumpi\n      dup1\n      0x1f\n      lt\n      tag_195\n      jumpi\n      0x0100\n      dup1\n      dup4\n      sload\n      div\n      mul\n      dup4\n      mstore\n      swap2\n      0x20\n      add\n      swap2\n      jump(tag_194)\n    tag_195:\n      dup3\n      add\n      swap2\n      swap1\n      0x00\n      mstore\n      keccak256(0x00, 0x20)\n      swap1\n    tag_196:\n      dup2\n      sload\n      dup2\n      mstore\n      swap1\n      0x01\n      add\n      swap1\n      0x20\n      add\n      dup1\n      dup4\n      gt\n      tag_196\n      jumpi\n      dup3\n      swap1\n      sub\n      0x1f\n      and\n      dup3\n      add\n      swap2\n    tag_194:\n      pop\n      pop\n      pop\n      pop\n      pop\n      dup2\n      mstore\n      0x20\n      add\n      swap1\n      0x01\n      add\n      swap1\n      jump(tag_189)\n    tag_190:\n      pop\n      pop\n      pop\n      pop\n      swap1\n      pop\n        /* \"contracts/ShareSecret.sol\":1540:1629  function getShares() public view returns (string[] memory) {... */\n      swap1\n      jump\t// out\n        /* \"contracts/ShareSecret.sol\":1108:1418  function distribute() public onlyOwner {... */\n    tag_95:\n        /* \"contracts/ShareSecret.sol\":876:881  owner */\n      0x00\n      dup1\n      sload\n      swap1\n      0x0100\n      exp\n      swap1\n      div\n      0xffffffffffffffffffffffffffffffffffffffff\n      and\n        /* \"contracts/ShareSecret.sol\":862:881  msg.sender == owner */\n      0xffffffffffffffffffffffffffffffffffffffff\n      and\n        /* \"contracts/ShareSecret.sol\":862:872  msg.sender */\n      caller\n        /* \"contracts/ShareSecret.sol\":862:881  msg.sender == owner */\n      0xffffffffffffffffffffffffffffffffffffffff\n      and\n      eq\n        /* \"contracts/ShareSecret.sol\":854:914  require(msg.sender == owner, \"only owner has the privilege\") */\n      tag_198\n      jumpi\n      mload(0x40)\n      0x08c379a000000000000000000000000000000000000000000000000000000000\n      dup2\n      mstore\n      0x04\n      add\n      tag_199\n      swap1\n      tag_113\n      jump\t// in\n    tag_199:\n      mload(0x40)\n      dup1\n      swap2\n      sub\n      swap1\n      revert\n    tag_198:\n        /* \"contracts/ShareSecret.sol\":1178:1190  shareHolders */\n      0x01\n        /* \"contracts/ShareSecret.sol\":1178:1197  shareHolders.length */\n      dup1\n      sload\n      swap1\n      pop\n        /* \"contracts/ShareSecret.sol\":1161:1167  shares */\n      0x02\n        /* \"contracts/ShareSecret.sol\":1161:1174  shares.length */\n      dup1\n      sload\n      swap1\n      pop\n        /* \"contracts/ShareSecret.sol\":1161:1197  shares.length <= shareHolders.length */\n      gt\n        /* \"contracts/ShareSecret.sol\":1157:1412  if (shares.length <= shareHolders.length) {... */\n      tag_201\n      jumpi\n        /* \"contracts/ShareSecret.sol\":1218:1227  uint256 i */\n      0x00\n        /* \"contracts/ShareSecret.sol\":1213:1402  for (uint256 i = 0; i < shares.length; i++) {... */\n    tag_202:\n        /* \"contracts/ShareSecret.sol\":1237:1243  shares */\n      0x02\n        /* \"contracts/ShareSecret.sol\":1237:1250  shares.length */\n      dup1\n      sload\n      swap1\n      pop\n        /* \"contracts/ShareSecret.sol\":1233:1234  i */\n      dup2\n        /* \"contracts/ShareSecret.sol\":1233:1250  i < shares.length */\n      lt\n        /* \"contracts/ShareSecret.sol\":1213:1402  for (uint256 i = 0; i < shares.length; i++) {... */\n      iszero\n      tag_203\n      jumpi\n        /* \"contracts/ShareSecret.sol\":1310:1316  shares */\n      0x02\n        /* \"contracts/ShareSecret.sol\":1317:1318  i */\n      dup2\n        /* \"contracts/ShareSecret.sol\":1310:1319  shares[i] */\n      dup2\n      sload\n      dup2\n      lt\n      tag_205\n      jumpi\n      tag_206\n      tag_131\n      jump\t// in\n    tag_206:\n    tag_205:\n      swap1\n      0x00\n      mstore\n      keccak256(0x00, 0x20)\n      add\n        /* \"contracts/ShareSecret.sol\":1275:1290  shareHoldersMap */\n      0x03\n        /* \"contracts/ShareSecret.sol\":1275:1307  shareHoldersMap[shareHolders[i]] */\n      0x00\n        /* \"contracts/ShareSecret.sol\":1291:1303  shareHolders */\n      0x01\n        /* \"contracts/ShareSecret.sol\":1304:1305  i */\n      dup5\n        /* \"contracts/ShareSecret.sol\":1291:1306  shareHolders[i] */\n      dup2\n      sload\n      dup2\n      lt\n      tag_208\n      jumpi\n      tag_209\n      tag_131\n      jump\t// in\n    tag_209:\n    tag_208:\n      swap1\n      0x00\n      mstore\n      keccak256(0x00, 0x20)\n      add\n      0x00\n      swap1\n      sload\n      swap1\n      0x0100\n      exp\n      swap1\n      div\n      0xffffffffffffffffffffffffffffffffffffffff\n      and\n        /* \"contracts/ShareSecret.sol\":1275:1307  shareHoldersMap[shareHolders[i]] */\n      0xffffffffffffffffffffffffffffffffffffffff\n      and\n      0xffffffffffffffffffffffffffffffffffffffff\n      and\n      dup2\n      mstore\n      0x20\n      add\n      swap1\n      dup2\n      mstore\n      0x20\n      add\n      0x00\n      keccak256\n        /* \"contracts/ShareSecret.sol\":1275:1319  shareHoldersMap[shareHolders[i]] = shares[i] */\n      swap1\n      dup2\n      tag_211\n      swap2\n      swap1\n      tag_212\n      jump\t// in\n    tag_211:\n      pop\n        /* \"contracts/ShareSecret.sol\":1337:1387  notifySendingToHolders(shareHolders[i], shares[i]) */\n      tag_213\n        /* \"contracts/ShareSecret.sol\":1360:1372  shareHolders */\n      0x01\n        /* \"contracts/ShareSecret.sol\":1373:1374  i */\n      dup3\n        /* \"contracts/ShareSecret.sol\":1360:1375  shareHolders[i] */\n      dup2\n      sload\n      dup2\n      lt\n      tag_214\n      jumpi\n      tag_215\n      tag_131\n      jump\t// in\n    tag_215:\n    tag_214:\n      swap1\n      0x00\n      mstore\n      keccak256(0x00, 0x20)\n      add\n      0x00\n      swap1\n      sload\n      swap1\n      0x0100\n      exp\n      swap1\n      div\n      0xffffffffffffffffffffffffffffffffffffffff\n      and\n        /* \"contracts/ShareSecret.sol\":1377:1383  shares */\n      0x02\n        /* \"contracts/ShareSecret.sol\":1384:1385  i */\n      dup4\n        /* \"contracts/ShareSecret.sol\":1377:1386  shares[i] */\n      dup2\n      sload\n      dup2\n      lt\n      tag_217\n      jumpi\n      tag_218\n      tag_131\n      jump\t// in\n    tag_218:\n    tag_217:\n      swap1\n      0x00\n      mstore\n      keccak256(0x00, 0x20)\n      add\n        /* \"contracts/ShareSecret.sol\":1337:1387  notifySendingToHolders(shareHolders[i], shares[i]) */\n      dup1\n      sload\n      tag_220\n      swap1\n      tag_105\n      jump\t// in\n    tag_220:\n      dup1\n      0x1f\n      add\n      0x20\n      dup1\n      swap2\n      div\n      mul\n      0x20\n      add\n      mload(0x40)\n      swap1\n      dup2\n      add\n      0x40\n      mstore\n      dup1\n      swap3\n      swap2\n      swap1\n      dup2\n      dup2\n      mstore\n      0x20\n      add\n      dup3\n      dup1\n      sload\n      tag_221\n      swap1\n      tag_105\n      jump\t// in\n    tag_221:\n      dup1\n      iszero\n      tag_222\n      jumpi\n      dup1\n      0x1f\n      lt\n      tag_223\n      jumpi\n      0x0100\n      dup1\n      dup4\n      sload\n      div\n      mul\n      dup4\n      mstore\n      swap2\n      0x20\n      add\n      swap2\n      jump(tag_222)\n    tag_223:\n      dup3\n      add\n      swap2\n      swap1\n      0x00\n      mstore\n      keccak256(0x00, 0x20)\n      swap1\n    tag_224:\n      dup2\n      sload\n      dup2\n      mstore\n      swap1\n      0x01\n      add\n      swap1\n      0x20\n      add\n      dup1\n      dup4\n      gt\n      tag_224\n      jumpi\n      dup3\n      swap1\n      sub\n      0x1f\n      and\n      dup3\n      add\n      swap2\n    tag_222:\n      pop\n      pop\n      pop\n      pop\n      pop\n        /* \"contracts/ShareSecret.sol\":1337:1359  notifySendingToHolders */\n      tag_49\n        /* \"contracts/ShareSecret.sol\":1337:1387  notifySendingToHolders(shareHolders[i], shares[i]) */\n      jump\t// in\n    tag_213:\n        /* \"contracts/ShareSecret.sol\":1252:1255  i++ */\n      dup1\n      dup1\n      tag_225\n      swap1\n      tag_152\n      jump\t// in\n    tag_225:\n      swap2\n      pop\n      pop\n        /* \"contracts/ShareSecret.sol\":1213:1402  for (uint256 i = 0; i < shares.length; i++) {... */\n      jump(tag_202)\n    tag_203:\n      pop\n        /* \"contracts/ShareSecret.sol\":1157:1412  if (shares.length <= shareHolders.length) {... */\n    tag_201:\n        /* \"contracts/ShareSecret.sol\":1108:1418  function distribute() public onlyOwner {... */\n      jump\t// out\n        /* \"contracts/ShareSecret.sol\":3239:3308  function rejectSecretRequest(address ownerAddress)public view{... */\n    tag_98:\n      pop\n      jump\t// out\n        /* \"#utility.yul\":7:82   */\n    tag_227:\n        /* \"#utility.yul\":40:46   */\n      0x00\n        /* \"#utility.yul\":73:75   */\n      0x40\n        /* \"#utility.yul\":67:76   */\n      mload\n        /* \"#utility.yul\":57:76   */\n      swap1\n      pop\n        /* \"#utility.yul\":7:82   */\n      swap1\n      jump\t// out\n        /* \"#utility.yul\":88:205   */\n    tag_228:\n        /* \"#utility.yul\":197:198   */\n      0x00\n        /* \"#utility.yul\":194:195   */\n      dup1\n        /* \"#utility.yul\":187:199   */\n      revert\n        /* \"#utility.yul\":211:328   */\n    tag_229:\n        /* \"#utility.yul\":320:321   */\n      0x00\n        /* \"#utility.yul\":317:318   */\n      dup1\n        /* \"#utility.yul\":310:322   */\n      revert\n        /* \"#utility.yul\":334:424   */\n    tag_230:\n        /* \"#utility.yul\":368:375   */\n      0x00\n        /* \"#utility.yul\":411:416   */\n      dup2\n        /* \"#utility.yul\":404:417   */\n      iszero\n        /* \"#utility.yul\":397:418   */\n      iszero\n        /* \"#utility.yul\":386:418   */\n      swap1\n      pop\n        /* \"#utility.yul\":334:424   */\n      swap2\n      swap1\n      pop\n      jump\t// out\n        /* \"#utility.yul\":430:546   */\n    tag_231:\n        /* \"#utility.yul\":500:521   */\n      tag_302\n        /* \"#utility.yul\":515:520   */\n      dup2\n        /* \"#utility.yul\":500:521   */\n      tag_230\n      jump\t// in\n    tag_302:\n        /* \"#utility.yul\":493:498   */\n      dup2\n        /* \"#utility.yul\":490:522   */\n      eq\n        /* \"#utility.yul\":480:540   */\n      tag_303\n      jumpi\n        /* \"#utility.yul\":536:537   */\n      0x00\n        /* \"#utility.yul\":533:534   */\n      dup1\n        /* \"#utility.yul\":526:538   */\n      revert\n        /* \"#utility.yul\":480:540   */\n    tag_303:\n        /* \"#utility.yul\":430:546   */\n      pop\n      jump\t// out\n        /* \"#utility.yul\":552:685   */\n    tag_232:\n        /* \"#utility.yul\":595:600   */\n      0x00\n        /* \"#utility.yul\":633:639   */\n      dup2\n        /* \"#utility.yul\":620:640   */\n      calldataload\n        /* \"#utility.yul\":611:640   */\n      swap1\n      pop\n        /* \"#utility.yul\":649:679   */\n      tag_305\n        /* \"#utility.yul\":673:678   */\n      dup2\n        /* \"#utility.yul\":649:679   */\n      tag_231\n      jump\t// in\n    tag_305:\n        /* \"#utility.yul\":552:685   */\n      swap3\n      swap2\n      pop\n      pop\n      jump\t// out\n        /* \"#utility.yul\":691:1014   */\n    tag_28:\n        /* \"#utility.yul\":747:753   */\n      0x00\n        /* \"#utility.yul\":796:798   */\n      0x20\n        /* \"#utility.yul\":784:793   */\n      dup3\n        /* \"#utility.yul\":775:782   */\n      dup5\n        /* \"#utility.yul\":771:794   */\n      sub\n        /* \"#utility.yul\":767:799   */\n      slt\n        /* \"#utility.yul\":764:883   */\n      iszero\n      tag_307\n      jumpi\n        /* \"#utility.yul\":802:881   */\n      tag_308\n      tag_228\n      jump\t// in\n    tag_308:\n        /* \"#utility.yul\":764:883   */\n    tag_307:\n        /* \"#utility.yul\":922:923   */\n      0x00\n        /* \"#utility.yul\":947:997   */\n      tag_309\n        /* \"#utility.yul\":989:996   */\n      dup5\n        /* \"#utility.yul\":980:986   */\n      dup3\n        /* \"#utility.yul\":969:978   */\n      dup6\n        /* \"#utility.yul\":965:987   */\n      add\n        /* \"#utility.yul\":947:997   */\n      tag_232\n      jump\t// in\n    tag_309:\n        /* \"#utility.yul\":937:997   */\n      swap2\n      pop\n        /* \"#utility.yul\":893:1007   */\n      pop\n        /* \"#utility.yul\":691:1014   */\n      swap3\n      swap2\n      pop\n      pop\n      jump\t// out\n        /* \"#utility.yul\":1020:1144   */\n    tag_233:\n        /* \"#utility.yul\":1097:1103   */\n      0x00\n        /* \"#utility.yul\":1131:1136   */\n      dup2\n        /* \"#utility.yul\":1125:1137   */\n      mload\n        /* \"#utility.yul\":1115:1137   */\n      swap1\n      pop\n        /* \"#utility.yul\":1020:1144   */\n      swap2\n      swap1\n      pop\n      jump\t// out\n        /* \"#utility.yul\":1150:1344   */\n    tag_234:\n        /* \"#utility.yul\":1259:1270   */\n      0x00\n        /* \"#utility.yul\":1293:1299   */\n      dup3\n        /* \"#utility.yul\":1288:1291   */\n      dup3\n        /* \"#utility.yul\":1281:1300   */\n      mstore\n        /* \"#utility.yul\":1333:1337   */\n      0x20\n        /* \"#utility.yul\":1328:1331   */\n      dup3\n        /* \"#utility.yul\":1324:1338   */\n      add\n        /* \"#utility.yul\":1309:1338   */\n      swap1\n      pop\n        /* \"#utility.yul\":1150:1344   */\n      swap3\n      swap2\n      pop\n      pop\n      jump\t// out\n        /* \"#utility.yul\":1350:1492   */\n    tag_235:\n        /* \"#utility.yul\":1427:1431   */\n      0x00\n        /* \"#utility.yul\":1450:1453   */\n      dup2\n        /* \"#utility.yul\":1442:1453   */\n      swap1\n      pop\n        /* \"#utility.yul\":1480:1484   */\n      0x20\n        /* \"#utility.yul\":1475:1478   */\n      dup3\n        /* \"#utility.yul\":1471:1485   */\n      add\n        /* \"#utility.yul\":1463:1485   */\n      swap1\n      pop\n        /* \"#utility.yul\":1350:1492   */\n      swap2\n      swap1\n      pop\n      jump\t// out\n        /* \"#utility.yul\":1498:1597   */\n    tag_236:\n        /* \"#utility.yul\":1550:1556   */\n      0x00\n        /* \"#utility.yul\":1584:1589   */\n      dup2\n        /* \"#utility.yul\":1578:1590   */\n      mload\n        /* \"#utility.yul\":1568:1590   */\n      swap1\n      pop\n        /* \"#utility.yul\":1498:1597   */\n      swap2\n      swap1\n      pop\n      jump\t// out\n        /* \"#utility.yul\":1603:1762   */\n    tag_237:\n        /* \"#utility.yul\":1677:1688   */\n      0x00\n        /* \"#utility.yul\":1711:1717   */\n      dup3\n        /* \"#utility.yul\":1706:1709   */\n      dup3\n        /* \"#utility.yul\":1699:1718   */\n      mstore\n        /* \"#utility.yul\":1751:1755   */\n      0x20\n        /* \"#utility.yul\":1746:1749   */\n      dup3\n        /* \"#utility.yul\":1742:1756   */\n      add\n        /* \"#utility.yul\":1727:1756   */\n      swap1\n      pop\n        /* \"#utility.yul\":1603:1762   */\n      swap3\n      swap2\n      pop\n      pop\n      jump\t// out\n        /* \"#utility.yul\":1768:2014   */\n    tag_238:\n        /* \"#utility.yul\":1849:1850   */\n      0x00\n        /* \"#utility.yul\":1859:1972   */\n    tag_316:\n        /* \"#utility.yul\":1873:1879   */\n      dup4\n        /* \"#utility.yul\":1870:1871   */\n      dup2\n        /* \"#utility.yul\":1867:1880   */\n      lt\n        /* \"#utility.yul\":1859:1972   */\n      iszero\n      tag_318\n      jumpi\n        /* \"#utility.yul\":1958:1959   */\n      dup1\n        /* \"#utility.yul\":1953:1956   */\n      dup3\n        /* \"#utility.yul\":1949:1960   */\n      add\n        /* \"#utility.yul\":1943:1961   */\n      mload\n        /* \"#utility.yul\":1939:1940   */\n      dup2\n        /* \"#utility.yul\":1934:1937   */\n      dup5\n        /* \"#utility.yul\":1930:1941   */\n      add\n        /* \"#utility.yul\":1923:1962   */\n      mstore\n        /* \"#utility.yul\":1895:1897   */\n      0x20\n        /* \"#utility.yul\":1892:1893   */\n      dup2\n        /* \"#utility.yul\":1888:1898   */\n      add\n        /* \"#utility.yul\":1883:1898   */\n      swap1\n      pop\n        /* \"#utility.yul\":1859:1972   */\n      jump(tag_316)\n    tag_318:\n        /* \"#utility.yul\":2006:2007   */\n      0x00\n        /* \"#utility.yul\":1997:2003   */\n      dup5\n        /* \"#utility.yul\":1992:1995   */\n      dup5\n        /* \"#utility.yul\":1988:2004   */\n      add\n        /* \"#utility.yul\":1981:2008   */\n      mstore\n        /* \"#utility.yul\":1830:2014   */\n      pop\n        /* \"#utility.yul\":1768:2014   */\n      pop\n      pop\n      pop\n      jump\t// out\n        /* \"#utility.yul\":2020:2122   */\n    tag_239:\n        /* \"#utility.yul\":2061:2067   */\n      0x00\n        /* \"#utility.yul\":2112:2114   */\n      0x1f\n        /* \"#utility.yul\":2108:2115   */\n      not\n        /* \"#utility.yul\":2103:2105   */\n      0x1f\n        /* \"#utility.yul\":2096:2101   */\n      dup4\n        /* \"#utility.yul\":2092:2106   */\n      add\n        /* \"#utility.yul\":2088:2116   */\n      and\n        /* \"#utility.yul\":2078:2116   */\n      swap1\n      pop\n        /* \"#utility.yul\":2020:2122   */\n      swap2\n      swap1\n      pop\n      jump\t// out\n        /* \"#utility.yul\":2128:2485   */\n    tag_240:\n        /* \"#utility.yul\":2206:2209   */\n      0x00\n        /* \"#utility.yul\":2234:2273   */\n      tag_321\n        /* \"#utility.yul\":2267:2272   */\n      dup3\n        /* \"#utility.yul\":2234:2273   */\n      tag_236\n      jump\t// in\n    tag_321:\n        /* \"#utility.yul\":2289:2350   */\n      tag_322\n        /* \"#utility.yul\":2343:2349   */\n      dup2\n        /* \"#utility.yul\":2338:2341   */\n      dup6\n        /* \"#utility.yul\":2289:2350   */\n      tag_237\n      jump\t// in\n    tag_322:\n        /* \"#utility.yul\":2282:2350   */\n      swap4\n      pop\n        /* \"#utility.yul\":2359:2424   */\n      tag_323\n        /* \"#utility.yul\":2417:2423   */\n      dup2\n        /* \"#utility.yul\":2412:2415   */\n      dup6\n        /* \"#utility.yul\":2405:2409   */\n      0x20\n        /* \"#utility.yul\":2398:2403   */\n      dup7\n        /* \"#utility.yul\":2394:2410   */\n      add\n        /* \"#utility.yul\":2359:2424   */\n      tag_238\n      jump\t// in\n    tag_323:\n        /* \"#utility.yul\":2449:2478   */\n      tag_324\n        /* \"#utility.yul\":2471:2477   */\n      dup2\n        /* \"#utility.yul\":2449:2478   */\n      tag_239\n      jump\t// in\n    tag_324:\n        /* \"#utility.yul\":2444:2447   */\n      dup5\n        /* \"#utility.yul\":2440:2479   */\n      add\n        /* \"#utility.yul\":2433:2479   */\n      swap2\n      pop\n        /* \"#utility.yul\":2210:2485   */\n      pop\n        /* \"#utility.yul\":2128:2485   */\n      swap3\n      swap2\n      pop\n      pop\n      jump\t// out\n        /* \"#utility.yul\":2491:2687   */\n    tag_241:\n        /* \"#utility.yul\":2580:2590   */\n      0x00\n        /* \"#utility.yul\":2615:2681   */\n      tag_326\n        /* \"#utility.yul\":2677:2680   */\n      dup4\n        /* \"#utility.yul\":2669:2675   */\n      dup4\n        /* \"#utility.yul\":2615:2681   */\n      tag_240\n      jump\t// in\n    tag_326:\n        /* \"#utility.yul\":2601:2681   */\n      swap1\n      pop\n        /* \"#utility.yul\":2491:2687   */\n      swap3\n      swap2\n      pop\n      pop\n      jump\t// out\n        /* \"#utility.yul\":2693:2816   */\n    tag_242:\n        /* \"#utility.yul\":2773:2777   */\n      0x00\n        /* \"#utility.yul\":2805:2809   */\n      0x20\n        /* \"#utility.yul\":2800:2803   */\n      dup3\n        /* \"#utility.yul\":2796:2810   */\n      add\n        /* \"#utility.yul\":2788:2810   */\n      swap1\n      pop\n        /* \"#utility.yul\":2693:2816   */\n      swap2\n      swap1\n      pop\n      jump\t// out\n        /* \"#utility.yul\":2850:3841   */\n    tag_243:\n        /* \"#utility.yul\":2989:2992   */\n      0x00\n        /* \"#utility.yul\":3018:3082   */\n      tag_329\n        /* \"#utility.yul\":3076:3081   */\n      dup3\n        /* \"#utility.yul\":3018:3082   */\n      tag_233\n      jump\t// in\n    tag_329:\n        /* \"#utility.yul\":3098:3194   */\n      tag_330\n        /* \"#utility.yul\":3187:3193   */\n      dup2\n        /* \"#utility.yul\":3182:3185   */\n      dup6\n        /* \"#utility.yul\":3098:3194   */\n      tag_234\n      jump\t// in\n    tag_330:\n        /* \"#utility.yul\":3091:3194   */\n      swap4\n      pop\n        /* \"#utility.yul\":3220:3223   */\n      dup4\n        /* \"#utility.yul\":3265:3269   */\n      0x20\n        /* \"#utility.yul\":3257:3263   */\n      dup3\n        /* \"#utility.yul\":3253:3270   */\n      mul\n        /* \"#utility.yul\":3248:3251   */\n      dup6\n        /* \"#utility.yul\":3244:3271   */\n      add\n        /* \"#utility.yul\":3295:3361   */\n      tag_331\n        /* \"#utility.yul\":3355:3360   */\n      dup6\n        /* \"#utility.yul\":3295:3361   */\n      tag_235\n      jump\t// in\n    tag_331:\n        /* \"#utility.yul\":3384:3391   */\n      dup1\n        /* \"#utility.yul\":3415:3416   */\n      0x00\n        /* \"#utility.yul\":3400:3796   */\n    tag_332:\n        /* \"#utility.yul\":3425:3431   */\n      dup6\n        /* \"#utility.yul\":3422:3423   */\n      dup2\n        /* \"#utility.yul\":3419:3432   */\n      lt\n        /* \"#utility.yul\":3400:3796   */\n      iszero\n      tag_334\n      jumpi\n        /* \"#utility.yul\":3496:3505   */\n      dup5\n        /* \"#utility.yul\":3490:3494   */\n      dup5\n        /* \"#utility.yul\":3486:3506   */\n      sub\n        /* \"#utility.yul\":3481:3484   */\n      dup10\n        /* \"#utility.yul\":3474:3507   */\n      mstore\n        /* \"#utility.yul\":3547:3553   */\n      dup2\n        /* \"#utility.yul\":3541:3554   */\n      mload\n        /* \"#utility.yul\":3575:3659   */\n      tag_335\n        /* \"#utility.yul\":3654:3658   */\n      dup6\n        /* \"#utility.yul\":3639:3652   */\n      dup3\n        /* \"#utility.yul\":3575:3659   */\n      tag_241\n      jump\t// in\n    tag_335:\n        /* \"#utility.yul\":3567:3659   */\n      swap5\n      pop\n        /* \"#utility.yul\":3682:3752   */\n      tag_336\n        /* \"#utility.yul\":3745:3751   */\n      dup4\n        /* \"#utility.yul\":3682:3752   */\n      tag_242\n      jump\t// in\n    tag_336:\n        /* \"#utility.yul\":3672:3752   */\n      swap3\n      pop\n        /* \"#utility.yul\":3781:3785   */\n      0x20\n        /* \"#utility.yul\":3776:3779   */\n      dup11\n        /* \"#utility.yul\":3772:3786   */\n      add\n        /* \"#utility.yul\":3765:3786   */\n      swap10\n      pop\n        /* \"#utility.yul\":3460:3796   */\n      pop\n        /* \"#utility.yul\":3447:3448   */\n      0x01\n        /* \"#utility.yul\":3444:3445   */\n      dup2\n        /* \"#utility.yul\":3440:3449   */\n      add\n        /* \"#utility.yul\":3435:3449   */\n      swap1\n      pop\n        /* \"#utility.yul\":3400:3796   */\n      jump(tag_332)\n    tag_334:\n        /* \"#utility.yul\":3404:3418   */\n      pop\n        /* \"#utility.yul\":3812:3816   */\n      dup3\n        /* \"#utility.yul\":3805:3816   */\n      swap8\n      pop\n        /* \"#utility.yul\":3832:3835   */\n      dup8\n        /* \"#utility.yul\":3825:3835   */\n      swap6\n      pop\n        /* \"#utility.yul\":2994:3841   */\n      pop\n      pop\n      pop\n      pop\n      pop\n        /* \"#utility.yul\":2850:3841   */\n      swap3\n      swap2\n      pop\n      pop\n      jump\t// out\n        /* \"#utility.yul\":3847:4260   */\n    tag_33:\n        /* \"#utility.yul\":4010:4014   */\n      0x00\n        /* \"#utility.yul\":4048:4050   */\n      0x20\n        /* \"#utility.yul\":4037:4046   */\n      dup3\n        /* \"#utility.yul\":4033:4051   */\n      add\n        /* \"#utility.yul\":4025:4051   */\n      swap1\n      pop\n        /* \"#utility.yul\":4097:4106   */\n      dup2\n        /* \"#utility.yul\":4091:4095   */\n      dup2\n        /* \"#utility.yul\":4087:4107   */\n      sub\n        /* \"#utility.yul\":4083:4084   */\n      0x00\n        /* \"#utility.yul\":4072:4081   */\n      dup4\n        /* \"#utility.yul\":4068:4085   */\n      add\n        /* \"#utility.yul\":4061:4108   */\n      mstore\n        /* \"#utility.yul\":4125:4253   */\n      tag_338\n        /* \"#utility.yul\":4248:4252   */\n      dup2\n        /* \"#utility.yul\":4239:4245   */\n      dup5\n        /* \"#utility.yul\":4125:4253   */\n      tag_243\n      jump\t// in\n    tag_338:\n        /* \"#utility.yul\":4117:4253   */\n      swap1\n      pop\n        /* \"#utility.yul\":3847:4260   */\n      swap3\n      swap2\n      pop\n      pop\n      jump\t// out\n        /* \"#utility.yul\":4266:4392   */\n    tag_244:\n        /* \"#utility.yul\":4303:4310   */\n      0x00\n        /* \"#utility.yul\":4343:4385   */\n      0xffffffffffffffffffffffffffffffffffffffff\n        /* \"#utility.yul\":4336:4341   */\n      dup3\n        /* \"#utility.yul\":4332:4386   */\n      and\n        /* \"#utility.yul\":4321:4386   */\n      swap1\n      pop\n        /* \"#utility.yul\":4266:4392   */\n      swap2\n      swap1\n      pop\n      jump\t// out\n        /* \"#utility.yul\":4398:4494   */\n    tag_245:\n        /* \"#utility.yul\":4435:4442   */\n      0x00\n        /* \"#utility.yul\":4464:4488   */\n      tag_341\n        /* \"#utility.yul\":4482:4487   */\n      dup3\n        /* \"#utility.yul\":4464:4488   */\n      tag_244\n      jump\t// in\n    tag_341:\n        /* \"#utility.yul\":4453:4488   */\n      swap1\n      pop\n        /* \"#utility.yul\":4398:4494   */\n      swap2\n      swap1\n      pop\n      jump\t// out\n        /* \"#utility.yul\":4500:4622   */\n    tag_246:\n        /* \"#utility.yul\":4573:4597   */\n      tag_343\n        /* \"#utility.yul\":4591:4596   */\n      dup2\n        /* \"#utility.yul\":4573:4597   */\n      tag_245\n      jump\t// in\n    tag_343:\n        /* \"#utility.yul\":4566:4571   */\n      dup2\n        /* \"#utility.yul\":4563:4598   */\n      eq\n        /* \"#utility.yul\":4553:4616   */\n      tag_344\n      jumpi\n        /* \"#utility.yul\":4612:4613   */\n      0x00\n        /* \"#utility.yul\":4609:4610   */\n      dup1\n        /* \"#utility.yul\":4602:4614   */\n      revert\n        /* \"#utility.yul\":4553:4616   */\n    tag_344:\n        /* \"#utility.yul\":4500:4622   */\n      pop\n      jump\t// out\n        /* \"#utility.yul\":4628:4767   */\n    tag_247:\n        /* \"#utility.yul\":4674:4679   */\n      0x00\n        /* \"#utility.yul\":4712:4718   */\n      dup2\n        /* \"#utility.yul\":4699:4719   */\n      calldataload\n        /* \"#utility.yul\":4690:4719   */\n      swap1\n      pop\n        /* \"#utility.yul\":4728:4761   */\n      tag_346\n        /* \"#utility.yul\":4755:4760   */\n      dup2\n        /* \"#utility.yul\":4728:4761   */\n      tag_246\n      jump\t// in\n    tag_346:\n        /* \"#utility.yul\":4628:4767   */\n      swap3\n      swap2\n      pop\n      pop\n      jump\t// out\n        /* \"#utility.yul\":4773:5102   */\n    tag_38:\n        /* \"#utility.yul\":4832:4838   */\n      0x00\n        /* \"#utility.yul\":4881:4883   */\n      0x20\n        /* \"#utility.yul\":4869:4878   */\n      dup3\n        /* \"#utility.yul\":4860:4867   */\n      dup5\n        /* \"#utility.yul\":4856:4879   */\n      sub\n        /* \"#utility.yul\":4852:4884   */\n      slt\n        /* \"#utility.yul\":4849:4968   */\n      iszero\n      tag_348\n      jumpi\n        /* \"#utility.yul\":4887:4966   */\n      tag_349\n      tag_228\n      jump\t// in\n    tag_349:\n        /* \"#utility.yul\":4849:4968   */\n    tag_348:\n        /* \"#utility.yul\":5007:5008   */\n      0x00\n        /* \"#utility.yul\":5032:5085   */\n      tag_350\n        /* \"#utility.yul\":5077:5084   */\n      dup5\n        /* \"#utility.yul\":5068:5074   */\n      dup3\n        /* \"#utility.yul\":5057:5066   */\n      dup6\n        /* \"#utility.yul\":5053:5075   */\n      add\n        /* \"#utility.yul\":5032:5085   */\n      tag_247\n      jump\t// in\n    tag_350:\n        /* \"#utility.yul\":5022:5085   */\n      swap2\n      pop\n        /* \"#utility.yul\":4978:5095   */\n      pop\n        /* \"#utility.yul\":4773:5102   */\n      swap3\n      swap2\n      pop\n      pop\n      jump\t// out\n        /* \"#utility.yul\":5108:5277   */\n    tag_248:\n        /* \"#utility.yul\":5192:5203   */\n      0x00\n        /* \"#utility.yul\":5226:5232   */\n      dup3\n        /* \"#utility.yul\":5221:5224   */\n      dup3\n        /* \"#utility.yul\":5214:5233   */\n      mstore\n        /* \"#utility.yul\":5266:5270   */\n      0x20\n        /* \"#utility.yul\":5261:5264   */\n      dup3\n        /* \"#utility.yul\":5257:5271   */\n      add\n        /* \"#utility.yul\":5242:5271   */\n      swap1\n      pop\n        /* \"#utility.yul\":5108:5277   */\n      swap3\n      swap2\n      pop\n      pop\n      jump\t// out\n        /* \"#utility.yul\":5283:5660   */\n    tag_249:\n        /* \"#utility.yul\":5371:5374   */\n      0x00\n        /* \"#utility.yul\":5399:5438   */\n      tag_353\n        /* \"#utility.yul\":5432:5437   */\n      dup3\n        /* \"#utility.yul\":5399:5438   */\n      tag_236\n      jump\t// in\n    tag_353:\n        /* \"#utility.yul\":5454:5525   */\n      tag_354\n        /* \"#utility.yul\":5518:5524   */\n      dup2\n        /* \"#utility.yul\":5513:5516   */\n      dup6\n        /* \"#utility.yul\":5454:5525   */\n      tag_248\n      jump\t// in\n    tag_354:\n        /* \"#utility.yul\":5447:5525   */\n      swap4\n      pop\n        /* \"#utility.yul\":5534:5599   */\n      tag_355\n        /* \"#utility.yul\":5592:5598   */\n      dup2\n        /* \"#utility.yul\":5587:5590   */\n      dup6\n        /* \"#utility.yul\":5580:5584   */\n      0x20\n        /* \"#utility.yul\":5573:5578   */\n      dup7\n        /* \"#utility.yul\":5569:5585   */\n      add\n        /* \"#utility.yul\":5534:5599   */\n      tag_238\n      jump\t// in\n    tag_355:\n        /* \"#utility.yul\":5624:5653   */\n      tag_356\n        /* \"#utility.yul\":5646:5652   */\n      dup2\n        /* \"#utility.yul\":5624:5653   */\n      tag_239\n      jump\t// in\n    tag_356:\n        /* \"#utility.yul\":5619:5622   */\n      dup5\n        /* \"#utility.yul\":5615:5654   */\n      add\n        /* \"#utility.yul\":5608:5654   */\n      swap2\n      pop\n        /* \"#utility.yul\":5375:5660   */\n      pop\n        /* \"#utility.yul\":5283:5660   */\n      swap3\n      swap2\n      pop\n      pop\n      jump\t// out\n        /* \"#utility.yul\":5666:5979   */\n    tag_41:\n        /* \"#utility.yul\":5779:5783   */\n      0x00\n        /* \"#utility.yul\":5817:5819   */\n      0x20\n        /* \"#utility.yul\":5806:5815   */\n      dup3\n        /* \"#utility.yul\":5802:5820   */\n      add\n        /* \"#utility.yul\":5794:5820   */\n      swap1\n      pop\n        /* \"#utility.yul\":5866:5875   */\n      dup2\n        /* \"#utility.yul\":5860:5864   */\n      dup2\n        /* \"#utility.yul\":5856:5876   */\n      sub\n        /* \"#utility.yul\":5852:5853   */\n      0x00\n        /* \"#utility.yul\":5841:5850   */\n      dup4\n        /* \"#utility.yul\":5837:5854   */\n      add\n        /* \"#utility.yul\":5830:5877   */\n      mstore\n        /* \"#utility.yul\":5894:5972   */\n      tag_358\n        /* \"#utility.yul\":5967:5971   */\n      dup2\n        /* \"#utility.yul\":5958:5964   */\n      dup5\n        /* \"#utility.yul\":5894:5972   */\n      tag_249\n      jump\t// in\n    tag_358:\n        /* \"#utility.yul\":5886:5972   */\n      swap1\n      pop\n        /* \"#utility.yul\":5666:5979   */\n      swap3\n      swap2\n      pop\n      pop\n      jump\t// out\n        /* \"#utility.yul\":5985:6094   */\n    tag_250:\n        /* \"#utility.yul\":6066:6087   */\n      tag_360\n        /* \"#utility.yul\":6081:6086   */\n      dup2\n        /* \"#utility.yul\":6066:6087   */\n      tag_230\n      jump\t// in\n    tag_360:\n        /* \"#utility.yul\":6061:6064   */\n      dup3\n        /* \"#utility.yul\":6054:6088   */\n      mstore\n        /* \"#utility.yul\":5985:6094   */\n      pop\n      pop\n      jump\t// out\n        /* \"#utility.yul\":6100:6310   */\n    tag_45:\n        /* \"#utility.yul\":6187:6191   */\n      0x00\n        /* \"#utility.yul\":6225:6227   */\n      0x20\n        /* \"#utility.yul\":6214:6223   */\n      dup3\n        /* \"#utility.yul\":6210:6228   */\n      add\n        /* \"#utility.yul\":6202:6228   */\n      swap1\n      pop\n        /* \"#utility.yul\":6238:6303   */\n      tag_362\n        /* \"#utility.yul\":6300:6301   */\n      0x00\n        /* \"#utility.yul\":6289:6298   */\n      dup4\n        /* \"#utility.yul\":6285:6302   */\n      add\n        /* \"#utility.yul\":6276:6282   */\n      dup5\n        /* \"#utility.yul\":6238:6303   */\n      tag_250\n      jump\t// in\n    tag_362:\n        /* \"#utility.yul\":6100:6310   */\n      swap3\n      swap2\n      pop\n      pop\n      jump\t// out\n        /* \"#utility.yul\":6316:6420   */\n    tag_251:\n        /* \"#utility.yul\":6361:6368   */\n      0x00\n        /* \"#utility.yul\":6390:6414   */\n      tag_364\n        /* \"#utility.yul\":6408:6413   */\n      dup3\n        /* \"#utility.yul\":6390:6414   */\n      tag_244\n      jump\t// in\n    tag_364:\n        /* \"#utility.yul\":6379:6414   */\n      swap1\n      pop\n        /* \"#utility.yul\":6316:6420   */\n      swap2\n      swap1\n      pop\n      jump\t// out\n        /* \"#utility.yul\":6426:6564   */\n    tag_252:\n        /* \"#utility.yul\":6507:6539   */\n      tag_366\n        /* \"#utility.yul\":6533:6538   */\n      dup2\n        /* \"#utility.yul\":6507:6539   */\n      tag_251\n      jump\t// in\n    tag_366:\n        /* \"#utility.yul\":6500:6505   */\n      dup2\n        /* \"#utility.yul\":6497:6540   */\n      eq\n        /* \"#utility.yul\":6487:6558   */\n      tag_367\n      jumpi\n        /* \"#utility.yul\":6554:6555   */\n      0x00\n        /* \"#utility.yul\":6551:6552   */\n      dup1\n        /* \"#utility.yul\":6544:6556   */\n      revert\n        /* \"#utility.yul\":6487:6558   */\n    tag_367:\n        /* \"#utility.yul\":6426:6564   */\n      pop\n      jump\t// out\n        /* \"#utility.yul\":6570:6725   */\n    tag_253:\n        /* \"#utility.yul\":6624:6629   */\n      0x00\n        /* \"#utility.yul\":6662:6668   */\n      dup2\n        /* \"#utility.yul\":6649:6669   */\n      calldataload\n        /* \"#utility.yul\":6640:6669   */\n      swap1\n      pop\n        /* \"#utility.yul\":6678:6719   */\n      tag_369\n        /* \"#utility.yul\":6713:6718   */\n      dup2\n        /* \"#utility.yul\":6678:6719   */\n      tag_252\n      jump\t// in\n    tag_369:\n        /* \"#utility.yul\":6570:6725   */\n      swap3\n      swap2\n      pop\n      pop\n      jump\t// out\n        /* \"#utility.yul\":6731:6848   */\n    tag_254:\n        /* \"#utility.yul\":6840:6841   */\n      0x00\n        /* \"#utility.yul\":6837:6838   */\n      dup1\n        /* \"#utility.yul\":6830:6842   */\n      revert\n        /* \"#utility.yul\":6854:6971   */\n    tag_255:\n        /* \"#utility.yul\":6963:6964   */\n      0x00\n        /* \"#utility.yul\":6960:6961   */\n      dup1\n        /* \"#utility.yul\":6953:6965   */\n      revert\n        /* \"#utility.yul\":6977:7157   */\n    tag_256:\n        /* \"#utility.yul\":7025:7102   */\n      0x4e487b7100000000000000000000000000000000000000000000000000000000\n        /* \"#utility.yul\":7022:7023   */\n      0x00\n        /* \"#utility.yul\":7015:7103   */\n      mstore\n        /* \"#utility.yul\":7122:7126   */\n      0x41\n        /* \"#utility.yul\":7119:7120   */\n      0x04\n        /* \"#utility.yul\":7112:7127   */\n      mstore\n        /* \"#utility.yul\":7146:7150   */\n      0x24\n        /* \"#utility.yul\":7143:7144   */\n      0x00\n        /* \"#utility.yul\":7136:7151   */\n      revert\n        /* \"#utility.yul\":7163:7444   */\n    tag_257:\n        /* \"#utility.yul\":7246:7273   */\n      tag_374\n        /* \"#utility.yul\":7268:7272   */\n      dup3\n        /* \"#utility.yul\":7246:7273   */\n      tag_239\n      jump\t// in\n    tag_374:\n        /* \"#utility.yul\":7238:7244   */\n      dup2\n        /* \"#utility.yul\":7234:7274   */\n      add\n        /* \"#utility.yul\":7376:7382   */\n      dup2\n        /* \"#utility.yul\":7364:7374   */\n      dup2\n        /* \"#utility.yul\":7361:7383   */\n      lt\n        /* \"#utility.yul\":7340:7358   */\n      0xffffffffffffffff\n        /* \"#utility.yul\":7328:7338   */\n      dup3\n        /* \"#utility.yul\":7325:7359   */\n      gt\n        /* \"#utility.yul\":7322:7384   */\n      or\n        /* \"#utility.yul\":7319:7407   */\n      iszero\n      tag_375\n      jumpi\n        /* \"#utility.yul\":7387:7405   */\n      tag_376\n      tag_256\n      jump\t// in\n    tag_376:\n        /* \"#utility.yul\":7319:7407   */\n    tag_375:\n        /* \"#utility.yul\":7427:7437   */\n      dup1\n        /* \"#utility.yul\":7423:7425   */\n      0x40\n        /* \"#utility.yul\":7416:7438   */\n      mstore\n        /* \"#utility.yul\":7206:7444   */\n      pop\n        /* \"#utility.yul\":7163:7444   */\n      pop\n      pop\n      jump\t// out\n        /* \"#utility.yul\":7450:7579   */\n    tag_258:\n        /* \"#utility.yul\":7484:7490   */\n      0x00\n        /* \"#utility.yul\":7511:7531   */\n      tag_378\n      tag_227\n      jump\t// in\n    tag_378:\n        /* \"#utility.yul\":7501:7531   */\n      swap1\n      pop\n        /* \"#utility.yul\":7540:7573   */\n      tag_379\n        /* \"#utility.yul\":7568:7572   */\n      dup3\n        /* \"#utility.yul\":7560:7566   */\n      dup3\n        /* \"#utility.yul\":7540:7573   */\n      tag_257\n      jump\t// in\n    tag_379:\n        /* \"#utility.yul\":7450:7579   */\n      swap2\n      swap1\n      pop\n      jump\t// out\n        /* \"#utility.yul\":7585:7893   */\n    tag_259:\n        /* \"#utility.yul\":7647:7651   */\n      0x00\n        /* \"#utility.yul\":7737:7755   */\n      0xffffffffffffffff\n        /* \"#utility.yul\":7729:7735   */\n      dup3\n        /* \"#utility.yul\":7726:7756   */\n      gt\n        /* \"#utility.yul\":7723:7779   */\n      iszero\n      tag_381\n      jumpi\n        /* \"#utility.yul\":7759:7777   */\n      tag_382\n      tag_256\n      jump\t// in\n    tag_382:\n        /* \"#utility.yul\":7723:7779   */\n    tag_381:\n        /* \"#utility.yul\":7797:7826   */\n      tag_383\n        /* \"#utility.yul\":7819:7825   */\n      dup3\n        /* \"#utility.yul\":7797:7826   */\n      tag_239\n      jump\t// in\n    tag_383:\n        /* \"#utility.yul\":7789:7826   */\n      swap1\n      pop\n        /* \"#utility.yul\":7881:7885   */\n      0x20\n        /* \"#utility.yul\":7875:7879   */\n      dup2\n        /* \"#utility.yul\":7871:7886   */\n      add\n        /* \"#utility.yul\":7863:7886   */\n      swap1\n      pop\n        /* \"#utility.yul\":7585:7893   */\n      swap2\n      swap1\n      pop\n      jump\t// out\n        /* \"#utility.yul\":7899:8045   */\n    tag_260:\n        /* \"#utility.yul\":7996:8002   */\n      dup3\n        /* \"#utility.yul\":7991:7994   */\n      dup2\n        /* \"#utility.yul\":7986:7989   */\n      dup4\n        /* \"#utility.yul\":7973:8003   */\n      calldatacopy\n        /* \"#utility.yul\":8037:8038   */\n      0x00\n        /* \"#utility.yul\":8028:8034   */\n      dup4\n        /* \"#utility.yul\":8023:8026   */\n      dup4\n        /* \"#utility.yul\":8019:8035   */\n      add\n        /* \"#utility.yul\":8012:8039   */\n      mstore\n        /* \"#utility.yul\":7899:8045   */\n      pop\n      pop\n      pop\n      jump\t// out\n        /* \"#utility.yul\":8051:8476   */\n    tag_261:\n        /* \"#utility.yul\":8129:8134   */\n      0x00\n        /* \"#utility.yul\":8154:8220   */\n      tag_386\n        /* \"#utility.yul\":8170:8219   */\n      tag_387\n        /* \"#utility.yul\":8212:8218   */\n      dup5\n        /* \"#utility.yul\":8170:8219   */\n      tag_259\n      jump\t// in\n    tag_387:\n        /* \"#utility.yul\":8154:8220   */\n      tag_258\n      jump\t// in\n    tag_386:\n        /* \"#utility.yul\":8145:8220   */\n      swap1\n      pop\n        /* \"#utility.yul\":8243:8249   */\n      dup3\n        /* \"#utility.yul\":8236:8241   */\n      dup2\n        /* \"#utility.yul\":8229:8250   */\n      mstore\n        /* \"#utility.yul\":8281:8285   */\n      0x20\n        /* \"#utility.yul\":8274:8279   */\n      dup2\n        /* \"#utility.yul\":8270:8286   */\n      add\n        /* \"#utility.yul\":8319:8322   */\n      dup5\n        /* \"#utility.yul\":8310:8316   */\n      dup5\n        /* \"#utility.yul\":8305:8308   */\n      dup5\n        /* \"#utility.yul\":8301:8317   */\n      add\n        /* \"#utility.yul\":8298:8323   */\n      gt\n        /* \"#utility.yul\":8295:8407   */\n      iszero\n      tag_388\n      jumpi\n        /* \"#utility.yul\":8326:8405   */\n      tag_389\n      tag_255\n      jump\t// in\n    tag_389:\n        /* \"#utility.yul\":8295:8407   */\n    tag_388:\n        /* \"#utility.yul\":8416:8470   */\n      tag_390\n        /* \"#utility.yul\":8463:8469   */\n      dup5\n        /* \"#utility.yul\":8458:8461   */\n      dup3\n        /* \"#utility.yul\":8453:8456   */\n      dup6\n        /* \"#utility.yul\":8416:8470   */\n      tag_260\n      jump\t// in\n    tag_390:\n        /* \"#utility.yul\":8135:8476   */\n      pop\n        /* \"#utility.yul\":8051:8476   */\n      swap4\n      swap3\n      pop\n      pop\n      pop\n      jump\t// out\n        /* \"#utility.yul\":8496:8836   */\n    tag_262:\n        /* \"#utility.yul\":8552:8557   */\n      0x00\n        /* \"#utility.yul\":8601:8604   */\n      dup3\n        /* \"#utility.yul\":8594:8598   */\n      0x1f\n        /* \"#utility.yul\":8586:8592   */\n      dup4\n        /* \"#utility.yul\":8582:8599   */\n      add\n        /* \"#utility.yul\":8578:8605   */\n      slt\n        /* \"#utility.yul\":8568:8690   */\n      tag_392\n      jumpi\n        /* \"#utility.yul\":8609:8688   */\n      tag_393\n      tag_254\n      jump\t// in\n    tag_393:\n        /* \"#utility.yul\":8568:8690   */\n    tag_392:\n        /* \"#utility.yul\":8726:8732   */\n      dup2\n        /* \"#utility.yul\":8713:8733   */\n      calldataload\n        /* \"#utility.yul\":8751:8830   */\n      tag_394\n        /* \"#utility.yul\":8826:8829   */\n      dup5\n        /* \"#utility.yul\":8818:8824   */\n      dup3\n        /* \"#utility.yul\":8811:8815   */\n      0x20\n        /* \"#utility.yul\":8803:8809   */\n      dup7\n        /* \"#utility.yul\":8799:8816   */\n      add\n        /* \"#utility.yul\":8751:8830   */\n      tag_261\n      jump\t// in\n    tag_394:\n        /* \"#utility.yul\":8742:8830   */\n      swap2\n      pop\n        /* \"#utility.yul\":8558:8836   */\n      pop\n        /* \"#utility.yul\":8496:8836   */\n      swap3\n      swap2\n      pop\n      pop\n      jump\t// out\n        /* \"#utility.yul\":8842:9512   */\n    tag_48:\n        /* \"#utility.yul\":8928:8934   */\n      0x00\n        /* \"#utility.yul\":8936:8942   */\n      dup1\n        /* \"#utility.yul\":8985:8987   */\n      0x40\n        /* \"#utility.yul\":8973:8982   */\n      dup4\n        /* \"#utility.yul\":8964:8971   */\n      dup6\n        /* \"#utility.yul\":8960:8983   */\n      sub\n        /* \"#utility.yul\":8956:8988   */\n      slt\n        /* \"#utility.yul\":8953:9072   */\n      iszero\n      tag_396\n      jumpi\n        /* \"#utility.yul\":8991:9070   */\n      tag_397\n      tag_228\n      jump\t// in\n    tag_397:\n        /* \"#utility.yul\":8953:9072   */\n    tag_396:\n        /* \"#utility.yul\":9111:9112   */\n      0x00\n        /* \"#utility.yul\":9136:9197   */\n      tag_398\n        /* \"#utility.yul\":9189:9196   */\n      dup6\n        /* \"#utility.yul\":9180:9186   */\n      dup3\n        /* \"#utility.yul\":9169:9178   */\n      dup7\n        /* \"#utility.yul\":9165:9187   */\n      add\n        /* \"#utility.yul\":9136:9197   */\n      tag_253\n      jump\t// in\n    tag_398:\n        /* \"#utility.yul\":9126:9197   */\n      swap3\n      pop\n        /* \"#utility.yul\":9082:9207   */\n      pop\n        /* \"#utility.yul\":9274:9276   */\n      0x20\n        /* \"#utility.yul\":9263:9272   */\n      dup4\n        /* \"#utility.yul\":9259:9277   */\n      add\n        /* \"#utility.yul\":9246:9278   */\n      calldataload\n        /* \"#utility.yul\":9305:9323   */\n      0xffffffffffffffff\n        /* \"#utility.yul\":9297:9303   */\n      dup2\n        /* \"#utility.yul\":9294:9324   */\n      gt\n        /* \"#utility.yul\":9291:9408   */\n      iszero\n      tag_399\n      jumpi\n        /* \"#utility.yul\":9327:9406   */\n      tag_400\n      tag_229\n      jump\t// in\n    tag_400:\n        /* \"#utility.yul\":9291:9408   */\n    tag_399:\n        /* \"#utility.yul\":9432:9495   */\n      tag_401\n        /* \"#utility.yul\":9487:9494   */\n      dup6\n        /* \"#utility.yul\":9478:9484   */\n      dup3\n        /* \"#utility.yul\":9467:9476   */\n      dup7\n        /* \"#utility.yul\":9463:9485   */\n      add\n        /* \"#utility.yul\":9432:9495   */\n      tag_262\n      jump\t// in\n    tag_401:\n        /* \"#utility.yul\":9422:9495   */\n      swap2\n      pop\n        /* \"#utility.yul\":9217:9505   */\n      pop\n        /* \"#utility.yul\":8842:9512   */\n      swap3\n      pop\n      swap3\n      swap1\n      pop\n      jump\t// out\n        /* \"#utility.yul\":9518:9595   */\n    tag_263:\n        /* \"#utility.yul\":9555:9562   */\n      0x00\n        /* \"#utility.yul\":9584:9589   */\n      dup2\n        /* \"#utility.yul\":9573:9589   */\n      swap1\n      pop\n        /* \"#utility.yul\":9518:9595   */\n      swap2\n      swap1\n      pop\n      jump\t// out\n        /* \"#utility.yul\":9601:9723   */\n    tag_264:\n        /* \"#utility.yul\":9674:9698   */\n      tag_404\n        /* \"#utility.yul\":9692:9697   */\n      dup2\n        /* \"#utility.yul\":9674:9698   */\n      tag_263\n      jump\t// in\n    tag_404:\n        /* \"#utility.yul\":9667:9672   */\n      dup2\n        /* \"#utility.yul\":9664:9699   */\n      eq\n        /* \"#utility.yul\":9654:9717   */\n      tag_405\n      jumpi\n        /* \"#utility.yul\":9713:9714   */\n      0x00\n        /* \"#utility.yul\":9710:9711   */\n      dup1\n        /* \"#utility.yul\":9703:9715   */\n      revert\n        /* \"#utility.yul\":9654:9717   */\n    tag_405:\n        /* \"#utility.yul\":9601:9723   */\n      pop\n      jump\t// out\n        /* \"#utility.yul\":9729:9868   */\n    tag_265:\n        /* \"#utility.yul\":9775:9780   */\n      0x00\n        /* \"#utility.yul\":9813:9819   */\n      dup2\n        /* \"#utility.yul\":9800:9820   */\n      calldataload\n        /* \"#utility.yul\":9791:9820   */\n      swap1\n      pop\n        /* \"#utility.yul\":9829:9862   */\n      tag_407\n        /* \"#utility.yul\":9856:9861   */\n      dup2\n        /* \"#utility.yul\":9829:9862   */\n      tag_264\n      jump\t// in\n    tag_407:\n        /* \"#utility.yul\":9729:9868   */\n      swap3\n      swap2\n      pop\n      pop\n      jump\t// out\n        /* \"#utility.yul\":9874:10203   */\n    tag_52:\n        /* \"#utility.yul\":9933:9939   */\n      0x00\n        /* \"#utility.yul\":9982:9984   */\n      0x20\n        /* \"#utility.yul\":9970:9979   */\n      dup3\n        /* \"#utility.yul\":9961:9968   */\n      dup5\n        /* \"#utility.yul\":9957:9980   */\n      sub\n        /* \"#utility.yul\":9953:9985   */\n      slt\n        /* \"#utility.yul\":9950:10069   */\n      iszero\n      tag_409\n      jumpi\n        /* \"#utility.yul\":9988:10067   */\n      tag_410\n      tag_228\n      jump\t// in\n    tag_410:\n        /* \"#utility.yul\":9950:10069   */\n    tag_409:\n        /* \"#utility.yul\":10108:10109   */\n      0x00\n        /* \"#utility.yul\":10133:10186   */\n      tag_411\n        /* \"#utility.yul\":10178:10185   */\n      dup5\n        /* \"#utility.yul\":10169:10175   */\n      dup3\n        /* \"#utility.yul\":10158:10167   */\n      dup6\n        /* \"#utility.yul\":10154:10176   */\n      add\n        /* \"#utility.yul\":10133:10186   */\n      tag_265\n      jump\t// in\n    tag_411:\n        /* \"#utility.yul\":10123:10186   */\n      swap2\n      pop\n        /* \"#utility.yul\":10079:10196   */\n      pop\n        /* \"#utility.yul\":9874:10203   */\n      swap3\n      swap2\n      pop\n      pop\n      jump\t// out\n        /* \"#utility.yul\":10209:10554   */\n    tag_56:\n        /* \"#utility.yul\":10276:10282   */\n      0x00\n        /* \"#utility.yul\":10325:10327   */\n      0x20\n        /* \"#utility.yul\":10313:10322   */\n      dup3\n        /* \"#utility.yul\":10304:10311   */\n      dup5\n        /* \"#utility.yul\":10300:10323   */\n      sub\n        /* \"#utility.yul\":10296:10328   */\n      slt\n        /* \"#utility.yul\":10293:10412   */\n      iszero\n      tag_413\n      jumpi\n        /* \"#utility.yul\":10331:10410   */\n      tag_414\n      tag_228\n      jump\t// in\n    tag_414:\n        /* \"#utility.yul\":10293:10412   */\n    tag_413:\n        /* \"#utility.yul\":10451:10452   */\n      0x00\n        /* \"#utility.yul\":10476:10537   */\n      tag_415\n        /* \"#utility.yul\":10529:10536   */\n      dup5\n        /* \"#utility.yul\":10520:10526   */\n      dup3\n        /* \"#utility.yul\":10509:10518   */\n      dup6\n        /* \"#utility.yul\":10505:10527   */\n      add\n        /* \"#utility.yul\":10476:10537   */\n      tag_253\n      jump\t// in\n    tag_415:\n        /* \"#utility.yul\":10466:10537   */\n      swap2\n      pop\n        /* \"#utility.yul\":10422:10547   */\n      pop\n        /* \"#utility.yul\":10209:10554   */\n      swap3\n      swap2\n      pop\n      pop\n      jump\t// out\n        /* \"#utility.yul\":10560:10702   */\n    tag_266:\n        /* \"#utility.yul\":10663:10695   */\n      tag_417\n        /* \"#utility.yul\":10689:10694   */\n      dup2\n        /* \"#utility.yul\":10663:10695   */\n      tag_251\n      jump\t// in\n    tag_417:\n        /* \"#utility.yul\":10658:10661   */\n      dup3\n        /* \"#utility.yul\":10651:10696   */\n      mstore\n        /* \"#utility.yul\":10560:10702   */\n      pop\n      pop\n      jump\t// out\n        /* \"#utility.yul\":10708:10962   */\n    tag_69:\n        /* \"#utility.yul\":10817:10821   */\n      0x00\n        /* \"#utility.yul\":10855:10857   */\n      0x20\n        /* \"#utility.yul\":10844:10853   */\n      dup3\n        /* \"#utility.yul\":10840:10858   */\n      add\n        /* \"#utility.yul\":10832:10858   */\n      swap1\n      pop\n        /* \"#utility.yul\":10868:10955   */\n      tag_419\n        /* \"#utility.yul\":10952:10953   */\n      0x00\n        /* \"#utility.yul\":10941:10950   */\n      dup4\n        /* \"#utility.yul\":10937:10954   */\n      add\n        /* \"#utility.yul\":10928:10934   */\n      dup5\n        /* \"#utility.yul\":10868:10955   */\n      tag_266\n      jump\t// in\n    tag_419:\n        /* \"#utility.yul\":10708:10962   */\n      swap3\n      swap2\n      pop\n      pop\n      jump\t// out\n        /* \"#utility.yul\":10968:11090   */\n    tag_267:\n        /* \"#utility.yul\":11043:11049   */\n      0x00\n        /* \"#utility.yul\":11077:11082   */\n      dup2\n        /* \"#utility.yul\":11071:11083   */\n      mload\n        /* \"#utility.yul\":11061:11083   */\n      swap1\n      pop\n        /* \"#utility.yul\":10968:11090   */\n      swap2\n      swap1\n      pop\n      jump\t// out\n        /* \"#utility.yul\":11096:11288   */\n    tag_268:\n        /* \"#utility.yul\":11203:11214   */\n      0x00\n        /* \"#utility.yul\":11237:11243   */\n      dup3\n        /* \"#utility.yul\":11232:11235   */\n      dup3\n        /* \"#utility.yul\":11225:11244   */\n      mstore\n        /* \"#utility.yul\":11277:11281   */\n      0x20\n        /* \"#utility.yul\":11272:11275   */\n      dup3\n        /* \"#utility.yul\":11268:11282   */\n      add\n        /* \"#utility.yul\":11253:11282   */\n      swap1\n      pop\n        /* \"#utility.yul\":11096:11288   */\n      swap3\n      swap2\n      pop\n      pop\n      jump\t// out\n        /* \"#utility.yul\":11294:11434   */\n    tag_269:\n        /* \"#utility.yul\":11369:11373   */\n      0x00\n        /* \"#utility.yul\":11392:11395   */\n      dup2\n        /* \"#utility.yul\":11384:11395   */\n      swap1\n      pop\n        /* \"#utility.yul\":11422:11426   */\n      0x20\n        /* \"#utility.yul\":11417:11420   */\n      dup3\n        /* \"#utility.yul\":11413:11427   */\n      add\n        /* \"#utility.yul\":11405:11427   */\n      swap1\n      pop\n        /* \"#utility.yul\":11294:11434   */\n      swap2\n      swap1\n      pop\n      jump\t// out\n        /* \"#utility.yul\":11440:11572   */\n    tag_270:\n        /* \"#utility.yul\":11533:11565   */\n      tag_424\n        /* \"#utility.yul\":11559:11564   */\n      dup2\n        /* \"#utility.yul\":11533:11565   */\n      tag_251\n      jump\t// in\n    tag_424:\n        /* \"#utility.yul\":11528:11531   */\n      dup3\n        /* \"#utility.yul\":11521:11566   */\n      mstore\n        /* \"#utility.yul\":11440:11572   */\n      pop\n      pop\n      jump\t// out\n        /* \"#utility.yul\":11578:11789   */\n    tag_271:\n        /* \"#utility.yul\":11663:11673   */\n      0x00\n        /* \"#utility.yul\":11684:11746   */\n      tag_426\n        /* \"#utility.yul\":11742:11745   */\n      dup4\n        /* \"#utility.yul\":11734:11740   */\n      dup4\n        /* \"#utility.yul\":11684:11746   */\n      tag_270\n      jump\t// in\n    tag_426:\n        /* \"#utility.yul\":11778:11782   */\n      0x20\n        /* \"#utility.yul\":11773:11776   */\n      dup4\n        /* \"#utility.yul\":11769:11783   */\n      add\n        /* \"#utility.yul\":11755:11783   */\n      swap1\n      pop\n        /* \"#utility.yul\":11578:11789   */\n      swap3\n      swap2\n      pop\n      pop\n      jump\t// out\n        /* \"#utility.yul\":11795:11916   */\n    tag_272:\n        /* \"#utility.yul\":11873:11877   */\n      0x00\n        /* \"#utility.yul\":11905:11909   */\n      0x20\n        /* \"#utility.yul\":11900:11903   */\n      dup3\n        /* \"#utility.yul\":11896:11910   */\n      add\n        /* \"#utility.yul\":11888:11910   */\n      swap1\n      pop\n        /* \"#utility.yul\":11795:11916   */\n      swap2\n      swap1\n      pop\n      jump\t// out\n        /* \"#utility.yul\":11968:12764   */\n    tag_273:\n        /* \"#utility.yul\":12103:12106   */\n      0x00\n        /* \"#utility.yul\":12132:12194   */\n      tag_429\n        /* \"#utility.yul\":12188:12193   */\n      dup3\n        /* \"#utility.yul\":12132:12194   */\n      tag_267\n      jump\t// in\n    tag_429:\n        /* \"#utility.yul\":12210:12304   */\n      tag_430\n        /* \"#utility.yul\":12297:12303   */\n      dup2\n        /* \"#utility.yul\":12292:12295   */\n      dup6\n        /* \"#utility.yul\":12210:12304   */\n      tag_268\n      jump\t// in\n    tag_430:\n        /* \"#utility.yul\":12203:12304   */\n      swap4\n      pop\n        /* \"#utility.yul\":12328:12392   */\n      tag_431\n        /* \"#utility.yul\":12386:12391   */\n      dup4\n        /* \"#utility.yul\":12328:12392   */\n      tag_269\n      jump\t// in\n    tag_431:\n        /* \"#utility.yul\":12415:12422   */\n      dup1\n        /* \"#utility.yul\":12446:12447   */\n      0x00\n        /* \"#utility.yul\":12431:12739   */\n    tag_432:\n        /* \"#utility.yul\":12456:12462   */\n      dup4\n        /* \"#utility.yul\":12453:12454   */\n      dup2\n        /* \"#utility.yul\":12450:12463   */\n      lt\n        /* \"#utility.yul\":12431:12739   */\n      iszero\n      tag_434\n      jumpi\n        /* \"#utility.yul\":12532:12538   */\n      dup2\n        /* \"#utility.yul\":12526:12539   */\n      mload\n        /* \"#utility.yul\":12559:12638   */\n      tag_435\n        /* \"#utility.yul\":12634:12637   */\n      dup9\n        /* \"#utility.yul\":12619:12632   */\n      dup3\n        /* \"#utility.yul\":12559:12638   */\n      tag_271\n      jump\t// in\n    tag_435:\n        /* \"#utility.yul\":12552:12638   */\n      swap8\n      pop\n        /* \"#utility.yul\":12661:12729   */\n      tag_436\n        /* \"#utility.yul\":12722:12728   */\n      dup4\n        /* \"#utility.yul\":12661:12729   */\n      tag_272\n      jump\t// in\n    tag_436:\n        /* \"#utility.yul\":12651:12729   */\n      swap3\n      pop\n        /* \"#utility.yul\":12491:12739   */\n      pop\n        /* \"#utility.yul\":12478:12479   */\n      0x01\n        /* \"#utility.yul\":12475:12476   */\n      dup2\n        /* \"#utility.yul\":12471:12480   */\n      add\n        /* \"#utility.yul\":12466:12480   */\n      swap1\n      pop\n        /* \"#utility.yul\":12431:12739   */\n      jump(tag_432)\n    tag_434:\n        /* \"#utility.yul\":12435:12449   */\n      pop\n        /* \"#utility.yul\":12755:12758   */\n      dup6\n        /* \"#utility.yul\":12748:12758   */\n      swap4\n      pop\n        /* \"#utility.yul\":12108:12764   */\n      pop\n      pop\n      pop\n        /* \"#utility.yul\":11968:12764   */\n      swap3\n      swap2\n      pop\n      pop\n      jump\t// out\n        /* \"#utility.yul\":12770:13175   */\n    tag_76:\n        /* \"#utility.yul\":12929:12933   */\n      0x00\n        /* \"#utility.yul\":12967:12969   */\n      0x20\n        /* \"#utility.yul\":12956:12965   */\n      dup3\n        /* \"#utility.yul\":12952:12970   */\n      add\n        /* \"#utility.yul\":12944:12970   */\n      swap1\n      pop\n        /* \"#utility.yul\":13016:13025   */\n      dup2\n        /* \"#utility.yul\":13010:13014   */\n      dup2\n        /* \"#utility.yul\":13006:13026   */\n      sub\n        /* \"#utility.yul\":13002:13003   */\n      0x00\n        /* \"#utility.yul\":12991:13000   */\n      dup4\n        /* \"#utility.yul\":12987:13004   */\n      add\n        /* \"#utility.yul\":12980:13027   */\n      mstore\n        /* \"#utility.yul\":13044:13168   */\n      tag_438\n        /* \"#utility.yul\":13163:13167   */\n      dup2\n        /* \"#utility.yul\":13154:13160   */\n      dup5\n        /* \"#utility.yul\":13044:13168   */\n      tag_273\n      jump\t// in\n    tag_438:\n        /* \"#utility.yul\":13036:13168   */\n      swap1\n      pop\n        /* \"#utility.yul\":12770:13175   */\n      swap3\n      swap2\n      pop\n      pop\n      jump\t// out\n        /* \"#utility.yul\":13181:13299   */\n    tag_274:\n        /* \"#utility.yul\":13268:13292   */\n      tag_440\n        /* \"#utility.yul\":13286:13291   */\n      dup2\n        /* \"#utility.yul\":13268:13292   */\n      tag_245\n      jump\t// in\n    tag_440:\n        /* \"#utility.yul\":13263:13266   */\n      dup3\n        /* \"#utility.yul\":13256:13293   */\n      mstore\n        /* \"#utility.yul\":13181:13299   */\n      pop\n      pop\n      jump\t// out\n        /* \"#utility.yul\":13305:13527   */\n    tag_80:\n        /* \"#utility.yul\":13398:13402   */\n      0x00\n        /* \"#utility.yul\":13436:13438   */\n      0x20\n        /* \"#utility.yul\":13425:13434   */\n      dup3\n        /* \"#utility.yul\":13421:13439   */\n      add\n        /* \"#utility.yul\":13413:13439   */\n      swap1\n      pop\n        /* \"#utility.yul\":13449:13520   */\n      tag_442\n        /* \"#utility.yul\":13517:13518   */\n      0x00\n        /* \"#utility.yul\":13506:13515   */\n      dup4\n        /* \"#utility.yul\":13502:13519   */\n      add\n        /* \"#utility.yul\":13493:13499   */\n      dup5\n        /* \"#utility.yul\":13449:13520   */\n      tag_274\n      jump\t// in\n    tag_442:\n        /* \"#utility.yul\":13305:13527   */\n      swap3\n      swap2\n      pop\n      pop\n      jump\t// out\n        /* \"#utility.yul\":13533:13713   */\n    tag_275:\n        /* \"#utility.yul\":13581:13658   */\n      0x4e487b7100000000000000000000000000000000000000000000000000000000\n        /* \"#utility.yul\":13578:13579   */\n      0x00\n        /* \"#utility.yul\":13571:13659   */\n      mstore\n        /* \"#utility.yul\":13678:13682   */\n      0x22\n        /* \"#utility.yul\":13675:13676   */\n      0x04\n        /* \"#utility.yul\":13668:13683   */\n      mstore\n        /* \"#utility.yul\":13702:13706   */\n      0x24\n        /* \"#utility.yul\":13699:13700   */\n      0x00\n        /* \"#utility.yul\":13692:13707   */\n      revert\n        /* \"#utility.yul\":13719:14039   */\n    tag_105:\n        /* \"#utility.yul\":13763:13769   */\n      0x00\n        /* \"#utility.yul\":13800:13801   */\n      0x02\n        /* \"#utility.yul\":13794:13798   */\n      dup3\n        /* \"#utility.yul\":13790:13802   */\n      div\n        /* \"#utility.yul\":13780:13802   */\n      swap1\n      pop\n        /* \"#utility.yul\":13847:13848   */\n      0x01\n        /* \"#utility.yul\":13841:13845   */\n      dup3\n        /* \"#utility.yul\":13837:13849   */\n      and\n        /* \"#utility.yul\":13868:13886   */\n      dup1\n        /* \"#utility.yul\":13858:13939   */\n      tag_445\n      jumpi\n        /* \"#utility.yul\":13924:13928   */\n      0x7f\n        /* \"#utility.yul\":13916:13922   */\n      dup3\n        /* \"#utility.yul\":13912:13929   */\n      and\n        /* \"#utility.yul\":13902:13929   */\n      swap2\n      pop\n        /* \"#utility.yul\":13858:13939   */\n    tag_445:\n        /* \"#utility.yul\":13986:13988   */\n      0x20\n        /* \"#utility.yul\":13978:13984   */\n      dup3\n        /* \"#utility.yul\":13975:13989   */\n      lt\n        /* \"#utility.yul\":13955:13973   */\n      dup2\n        /* \"#utility.yul\":13952:13990   */\n      sub\n        /* \"#utility.yul\":13949:14033   */\n      tag_446\n      jumpi\n        /* \"#utility.yul\":14005:14023   */\n      tag_447\n      tag_275\n      jump\t// in\n    tag_447:\n        /* \"#utility.yul\":13949:14033   */\n    tag_446:\n        /* \"#utility.yul\":13770:14039   */\n      pop\n        /* \"#utility.yul\":13719:14039   */\n      swap2\n      swap1\n      pop\n      jump\t// out\n        /* \"#utility.yul\":14045:14223   */\n    tag_276:\n        /* \"#utility.yul\":14185:14215   */\n      0x6f6e6c79206f776e657220686173207468652070726976696c65676500000000\n        /* \"#utility.yul\":14181:14182   */\n      0x00\n        /* \"#utility.yul\":14173:14179   */\n      dup3\n        /* \"#utility.yul\":14169:14183   */\n      add\n        /* \"#utility.yul\":14162:14216   */\n      mstore\n        /* \"#utility.yul\":14045:14223   */\n      pop\n      jump\t// out\n        /* \"#utility.yul\":14229:14595   */\n    tag_277:\n        /* \"#utility.yul\":14371:14374   */\n      0x00\n        /* \"#utility.yul\":14392:14459   */\n      tag_450\n        /* \"#utility.yul\":14456:14458   */\n      0x1c\n        /* \"#utility.yul\":14451:14454   */\n      dup4\n        /* \"#utility.yul\":14392:14459   */\n      tag_248\n      jump\t// in\n    tag_450:\n        /* \"#utility.yul\":14385:14459   */\n      swap2\n      pop\n        /* \"#utility.yul\":14468:14561   */\n      tag_451\n        /* \"#utility.yul\":14557:14560   */\n      dup3\n        /* \"#utility.yul\":14468:14561   */\n      tag_276\n      jump\t// in\n    tag_451:\n        /* \"#utility.yul\":14586:14588   */\n      0x20\n        /* \"#utility.yul\":14581:14584   */\n      dup3\n        /* \"#utility.yul\":14577:14589   */\n      add\n        /* \"#utility.yul\":14570:14589   */\n      swap1\n      pop\n        /* \"#utility.yul\":14229:14595   */\n      swap2\n      swap1\n      pop\n      jump\t// out\n        /* \"#utility.yul\":14601:15020   */\n    tag_113:\n        /* \"#utility.yul\":14767:14771   */\n      0x00\n        /* \"#utility.yul\":14805:14807   */\n      0x20\n        /* \"#utility.yul\":14794:14803   */\n      dup3\n        /* \"#utility.yul\":14790:14808   */\n      add\n        /* \"#utility.yul\":14782:14808   */\n      swap1\n      pop\n        /* \"#utility.yul\":14854:14863   */\n      dup2\n        /* \"#utility.yul\":14848:14852   */\n      dup2\n        /* \"#utility.yul\":14844:14864   */\n      sub\n        /* \"#utility.yul\":14840:14841   */\n      0x00\n        /* \"#utility.yul\":14829:14838   */\n      dup4\n        /* \"#utility.yul\":14825:14842   */\n      add\n        /* \"#utility.yul\":14818:14865   */\n      mstore\n        /* \"#utility.yul\":14882:15013   */\n      tag_453\n        /* \"#utility.yul\":15008:15012   */\n      dup2\n        /* \"#utility.yul\":14882:15013   */\n      tag_277\n      jump\t// in\n    tag_453:\n        /* \"#utility.yul\":14874:15013   */\n      swap1\n      pop\n        /* \"#utility.yul\":14601:15020   */\n      swap2\n      swap1\n      pop\n      jump\t// out\n        /* \"#utility.yul\":15026:15206   */\n    tag_278:\n        /* \"#utility.yul\":15074:15151   */\n      0x4e487b7100000000000000000000000000000000000000000000000000000000\n        /* \"#utility.yul\":15071:15072   */\n      0x00\n        /* \"#utility.yul\":15064:15152   */\n      mstore\n        /* \"#utility.yul\":15171:15175   */\n      0x11\n        /* \"#utility.yul\":15168:15169   */\n      0x04\n        /* \"#utility.yul\":15161:15176   */\n      mstore\n        /* \"#utility.yul\":15195:15199   */\n      0x24\n        /* \"#utility.yul\":15192:15193   */\n      0x00\n        /* \"#utility.yul\":15185:15200   */\n      revert\n        /* \"#utility.yul\":15212:15406   */\n    tag_128:\n        /* \"#utility.yul\":15252:15256   */\n      0x00\n        /* \"#utility.yul\":15272:15292   */\n      tag_456\n        /* \"#utility.yul\":15290:15291   */\n      dup3\n        /* \"#utility.yul\":15272:15292   */\n      tag_263\n      jump\t// in\n    tag_456:\n        /* \"#utility.yul\":15267:15292   */\n      swap2\n      pop\n        /* \"#utility.yul\":15306:15326   */\n      tag_457\n        /* \"#utility.yul\":15324:15325   */\n      dup4\n        /* \"#utility.yul\":15306:15326   */\n      tag_263\n      jump\t// in\n    tag_457:\n        /* \"#utility.yul\":15301:15326   */\n      swap3\n      pop\n        /* \"#utility.yul\":15350:15351   */\n      dup3\n        /* \"#utility.yul\":15347:15348   */\n      dup3\n        /* \"#utility.yul\":15343:15352   */\n      sub\n        /* \"#utility.yul\":15335:15352   */\n      swap1\n      pop\n        /* \"#utility.yul\":15374:15375   */\n      dup2\n        /* \"#utility.yul\":15368:15372   */\n      dup2\n        /* \"#utility.yul\":15365:15376   */\n      gt\n        /* \"#utility.yul\":15362:15399   */\n      iszero\n      tag_458\n      jumpi\n        /* \"#utility.yul\":15379:15397   */\n      tag_459\n      tag_278\n      jump\t// in\n    tag_459:\n        /* \"#utility.yul\":15362:15399   */\n    tag_458:\n        /* \"#utility.yul\":15212:15406   */\n      swap3\n      swap2\n      pop\n      pop\n      jump\t// out\n        /* \"#utility.yul\":15412:15592   */\n    tag_131:\n        /* \"#utility.yul\":15460:15537   */\n      0x4e487b7100000000000000000000000000000000000000000000000000000000\n        /* \"#utility.yul\":15457:15458   */\n      0x00\n        /* \"#utility.yul\":15450:15538   */\n      mstore\n        /* \"#utility.yul\":15557:15561   */\n      0x32\n        /* \"#utility.yul\":15554:15555   */\n      0x04\n        /* \"#utility.yul\":15547:15562   */\n      mstore\n        /* \"#utility.yul\":15581:15585   */\n      0x24\n        /* \"#utility.yul\":15578:15579   */\n      0x00\n        /* \"#utility.yul\":15571:15586   */\n      revert\n        /* \"#utility.yul\":15598:15778   */\n    tag_138:\n        /* \"#utility.yul\":15646:15723   */\n      0x4e487b7100000000000000000000000000000000000000000000000000000000\n        /* \"#utility.yul\":15643:15644   */\n      0x00\n        /* \"#utility.yul\":15636:15724   */\n      mstore\n        /* \"#utility.yul\":15743:15747   */\n      0x31\n        /* \"#utility.yul\":15740:15741   */\n      0x04\n        /* \"#utility.yul\":15733:15748   */\n      mstore\n        /* \"#utility.yul\":15767:15771   */\n      0x24\n        /* \"#utility.yul\":15764:15765   */\n      0x00\n        /* \"#utility.yul\":15757:15772   */\n      revert\n        /* \"#utility.yul\":15784:16017   */\n    tag_152:\n        /* \"#utility.yul\":15823:15826   */\n      0x00\n        /* \"#utility.yul\":15846:15870   */\n      tag_463\n        /* \"#utility.yul\":15864:15869   */\n      dup3\n        /* \"#utility.yul\":15846:15870   */\n      tag_263\n      jump\t// in\n    tag_463:\n        /* \"#utility.yul\":15837:15870   */\n      swap2\n      pop\n        /* \"#utility.yul\":15892:15958   */\n      0xffffffffffffffffffffffffffffffffffffffffffffffffffffffffffffffff\n        /* \"#utility.yul\":15885:15890   */\n      dup3\n        /* \"#utility.yul\":15882:15959   */\n      sub\n        /* \"#utility.yul\":15879:15982   */\n      tag_464\n      jumpi\n        /* \"#utility.yul\":15962:15980   */\n      tag_465\n      tag_278\n      jump\t// in\n    tag_465:\n        /* \"#utility.yul\":15879:15982   */\n    tag_464:\n        /* \"#utility.yul\":16009:16010   */\n      0x01\n        /* \"#utility.yul\":16002:16007   */\n      dup3\n        /* \"#utility.yul\":15998:16011   */\n      add\n        /* \"#utility.yul\":15991:16011   */\n      swap1\n      pop\n        /* \"#utility.yul\":15784:16017   */\n      swap2\n      swap1\n      pop\n      jump\t// out\n        /* \"#utility.yul\":16023:16176   */\n    tag_279:\n        /* \"#utility.yul\":16076:16082   */\n      0x00\n        /* \"#utility.yul\":16110:16115   */\n      dup2\n        /* \"#utility.yul\":16104:16116   */\n      sload\n        /* \"#utility.yul\":16094:16116   */\n      swap1\n      pop\n        /* \"#utility.yul\":16136:16169   */\n      tag_467\n        /* \"#utility.yul\":16162:16168   */\n      dup2\n        /* \"#utility.yul\":16136:16169   */\n      tag_105\n      jump\t// in\n    tag_467:\n        /* \"#utility.yul\":16126:16169   */\n      swap1\n      pop\n        /* \"#utility.yul\":16023:16176   */\n      swap2\n      swap1\n      pop\n      jump\t// out\n        /* \"#utility.yul\":16182:16323   */\n    tag_280:\n        /* \"#utility.yul\":16231:16235   */\n      0x00\n        /* \"#utility.yul\":16254:16257   */\n      dup2\n        /* \"#utility.yul\":16246:16257   */\n      swap1\n      pop\n        /* \"#utility.yul\":16277:16280   */\n      dup2\n        /* \"#utility.yul\":16274:16275   */\n      0x00\n        /* \"#utility.yul\":16267:16281   */\n      mstore\n        /* \"#utility.yul\":16311:16315   */\n      0x20\n        /* \"#utility.yul\":16308:16309   */\n      0x00\n        /* \"#utility.yul\":16298:16316   */\n      keccak256\n        /* \"#utility.yul\":16290:16316   */\n      swap1\n      pop\n        /* \"#utility.yul\":16182:16323   */\n      swap2\n      swap1\n      pop\n      jump\t// out\n        /* \"#utility.yul\":16329:16474   */\n    tag_281:\n        /* \"#utility.yul\":16382:16386   */\n      0x00\n        /* \"#utility.yul\":16405:16408   */\n      dup2\n        /* \"#utility.yul\":16397:16408   */\n      swap1\n      pop\n        /* \"#utility.yul\":16428:16431   */\n      dup2\n        /* \"#utility.yul\":16425:16426   */\n      0x00\n        /* \"#utility.yul\":16418:16432   */\n      mstore\n        /* \"#utility.yul\":16462:16466   */\n      0x20\n        /* \"#utility.yul\":16459:16460   */\n      0x00\n        /* \"#utility.yul\":16449:16467   */\n      keccak256\n        /* \"#utility.yul\":16441:16467   */\n      swap1\n      pop\n        /* \"#utility.yul\":16329:16474   */\n      swap2\n      swap1\n      pop\n      jump\t// out\n        /* \"#utility.yul\":16480:16573   */\n    tag_282:\n        /* \"#utility.yul\":16517:16523   */\n      0x00\n        /* \"#utility.yul\":16564:16566   */\n      0x20\n        /* \"#utility.yul\":16559:16561   */\n      0x1f\n        /* \"#utility.yul\":16552:16557   */\n      dup4\n        /* \"#utility.yul\":16548:16562   */\n      add\n        /* \"#utility.yul\":16544:16567   */\n      div\n        /* \"#utility.yul\":16534:16567   */\n      swap1\n      pop\n        /* \"#utility.yul\":16480:16573   */\n      swap2\n      swap1\n      pop\n      jump\t// out\n        /* \"#utility.yul\":16579:16686   */\n    tag_283:\n        /* \"#utility.yul\":16623:16631   */\n      0x00\n        /* \"#utility.yul\":16673:16678   */\n      dup3\n        /* \"#utility.yul\":16667:16671   */\n      dup3\n        /* \"#utility.yul\":16663:16679   */\n      shl\n        /* \"#utility.yul\":16642:16679   */\n      swap1\n      pop\n        /* \"#utility.yul\":16579:16686   */\n      swap3\n      swap2\n      pop\n      pop\n      jump\t// out\n        /* \"#utility.yul\":16692:17085   */\n    tag_284:\n        /* \"#utility.yul\":16761:16767   */\n      0x00\n        /* \"#utility.yul\":16811:16812   */\n      0x08\n        /* \"#utility.yul\":16799:16809   */\n      dup4\n        /* \"#utility.yul\":16795:16813   */\n      mul\n        /* \"#utility.yul\":16834:16931   */\n      tag_473\n        /* \"#utility.yul\":16864:16930   */\n      0xffffffffffffffffffffffffffffffffffffffffffffffffffffffffffffffff\n        /* \"#utility.yul\":16853:16862   */\n      dup3\n        /* \"#utility.yul\":16834:16931   */\n      tag_283\n      jump\t// in\n    tag_473:\n        /* \"#utility.yul\":16952:16991   */\n      tag_474\n        /* \"#utility.yul\":16982:16990   */\n      dup7\n        /* \"#utility.yul\":16971:16980   */\n      dup4\n        /* \"#utility.yul\":16952:16991   */\n      tag_283\n      jump\t// in\n    tag_474:\n        /* \"#utility.yul\":16940:16991   */\n      swap6\n      pop\n        /* \"#utility.yul\":17024:17028   */\n      dup1\n        /* \"#utility.yul\":17020:17029   */\n      not\n        /* \"#utility.yul\":17013:17018   */\n      dup5\n        /* \"#utility.yul\":17009:17030   */\n      and\n        /* \"#utility.yul\":17000:17030   */\n      swap4\n      pop\n        /* \"#utility.yul\":17073:17077   */\n      dup1\n        /* \"#utility.yul\":17063:17071   */\n      dup7\n        /* \"#utility.yul\":17059:17078   */\n      and\n        /* \"#utility.yul\":17052:17057   */\n      dup5\n        /* \"#utility.yul\":17049:17079   */\n      or\n        /* \"#utility.yul\":17039:17079   */\n      swap3\n      pop\n        /* \"#utility.yul\":16768:17085   */\n      pop\n      pop\n        /* \"#utility.yul\":16692:17085   */\n      swap4\n      swap3\n      pop\n      pop\n      pop\n      jump\t// out\n        /* \"#utility.yul\":17091:17151   */\n    tag_285:\n        /* \"#utility.yul\":17119:17122   */\n      0x00\n        /* \"#utility.yul\":17140:17145   */\n      dup2\n        /* \"#utility.yul\":17133:17145   */\n      swap1\n      pop\n        /* \"#utility.yul\":17091:17151   */\n      swap2\n      swap1\n      pop\n      jump\t// out\n        /* \"#utility.yul\":17157:17299   */\n    tag_286:\n        /* \"#utility.yul\":17207:17216   */\n      0x00\n        /* \"#utility.yul\":17240:17293   */\n      tag_477\n        /* \"#utility.yul\":17258:17292   */\n      tag_478\n        /* \"#utility.yul\":17267:17291   */\n      tag_479\n        /* \"#utility.yul\":17285:17290   */\n      dup5\n        /* \"#utility.yul\":17267:17291   */\n      tag_263\n      jump\t// in\n    tag_479:\n        /* \"#utility.yul\":17258:17292   */\n      tag_285\n      jump\t// in\n    tag_478:\n        /* \"#utility.yul\":17240:17293   */\n      tag_263\n      jump\t// in\n    tag_477:\n        /* \"#utility.yul\":17227:17293   */\n      swap1\n      pop\n        /* \"#utility.yul\":17157:17299   */\n      swap2\n      swap1\n      pop\n      jump\t// out\n        /* \"#utility.yul\":17305:17380   */\n    tag_287:\n        /* \"#utility.yul\":17348:17351   */\n      0x00\n        /* \"#utility.yul\":17369:17374   */\n      dup2\n        /* \"#utility.yul\":17362:17374   */\n      swap1\n      pop\n        /* \"#utility.yul\":17305:17380   */\n      swap2\n      swap1\n      pop\n      jump\t// out\n        /* \"#utility.yul\":17386:17655   */\n    tag_288:\n        /* \"#utility.yul\":17496:17535   */\n      tag_482\n        /* \"#utility.yul\":17527:17534   */\n      dup4\n        /* \"#utility.yul\":17496:17535   */\n      tag_286\n      jump\t// in\n    tag_482:\n        /* \"#utility.yul\":17557:17648   */\n      tag_483\n        /* \"#utility.yul\":17606:17647   */\n      tag_484\n        /* \"#utility.yul\":17630:17646   */\n      dup3\n        /* \"#utility.yul\":17606:17647   */\n      tag_287\n      jump\t// in\n    tag_484:\n        /* \"#utility.yul\":17598:17604   */\n      dup5\n        /* \"#utility.yul\":17591:17595   */\n      dup5\n        /* \"#utility.yul\":17585:17596   */\n      sload\n        /* \"#utility.yul\":17557:17648   */\n      tag_284\n      jump\t// in\n    tag_483:\n        /* \"#utility.yul\":17551:17555   */\n      dup3\n        /* \"#utility.yul\":17544:17649   */\n      sstore\n        /* \"#utility.yul\":17462:17655   */\n      pop\n        /* \"#utility.yul\":17386:17655   */\n      pop\n      pop\n      pop\n      jump\t// out\n        /* \"#utility.yul\":17661:17734   */\n    tag_289:\n        /* \"#utility.yul\":17706:17709   */\n      0x00\n        /* \"#utility.yul\":17661:17734   */\n      swap1\n      jump\t// out\n        /* \"#utility.yul\":17740:17929   */\n    tag_290:\n        /* \"#utility.yul\":17817:17849   */\n      tag_487\n      tag_289\n      jump\t// in\n    tag_487:\n        /* \"#utility.yul\":17858:17923   */\n      tag_488\n        /* \"#utility.yul\":17916:17922   */\n      dup2\n        /* \"#utility.yul\":17908:17914   */\n      dup5\n        /* \"#utility.yul\":17902:17906   */\n      dup5\n        /* \"#utility.yul\":17858:17923   */\n      tag_288\n      jump\t// in\n    tag_488:\n        /* \"#utility.yul\":17793:17929   */\n      pop\n        /* \"#utility.yul\":17740:17929   */\n      pop\n      pop\n      jump\t// out\n        /* \"#utility.yul\":17935:18121   */\n    tag_291:\n        /* \"#utility.yul\":17995:18115   */\n    tag_490:\n        /* \"#utility.yul\":18012:18015   */\n      dup2\n        /* \"#utility.yul\":18005:18010   */\n      dup2\n        /* \"#utility.yul\":18002:18016   */\n      lt\n        /* \"#utility.yul\":17995:18115   */\n      iszero\n      tag_492\n      jumpi\n        /* \"#utility.yul\":18066:18105   */\n      tag_493\n        /* \"#utility.yul\":18103:18104   */\n      0x00\n        /* \"#utility.yul\":18096:18101   */\n      dup3\n        /* \"#utility.yul\":18066:18105   */\n      tag_290\n      jump\t// in\n    tag_493:\n        /* \"#utility.yul\":18039:18040   */\n      0x01\n        /* \"#utility.yul\":18032:18037   */\n      dup2\n        /* \"#utility.yul\":18028:18041   */\n      add\n        /* \"#utility.yul\":18019:18041   */\n      swap1\n      pop\n        /* \"#utility.yul\":17995:18115   */\n      jump(tag_490)\n    tag_492:\n        /* \"#utility.yul\":17935:18121   */\n      pop\n      pop\n      jump\t// out\n        /* \"#utility.yul\":18127:18670   */\n    tag_292:\n        /* \"#utility.yul\":18228:18230   */\n      0x1f\n        /* \"#utility.yul\":18223:18226   */\n      dup3\n        /* \"#utility.yul\":18220:18231   */\n      gt\n        /* \"#utility.yul\":18217:18663   */\n      iszero\n      tag_495\n      jumpi\n        /* \"#utility.yul\":18262:18300   */\n      tag_496\n        /* \"#utility.yul\":18294:18299   */\n      dup2\n        /* \"#utility.yul\":18262:18300   */\n      tag_280\n      jump\t// in\n    tag_496:\n        /* \"#utility.yul\":18346:18375   */\n      tag_497\n        /* \"#utility.yul\":18364:18374   */\n      dup5\n        /* \"#utility.yul\":18346:18375   */\n      tag_282\n      jump\t// in\n    tag_497:\n        /* \"#utility.yul\":18336:18344   */\n      dup2\n        /* \"#utility.yul\":18332:18376   */\n      add\n        /* \"#utility.yul\":18529:18531   */\n      0x20\n        /* \"#utility.yul\":18517:18527   */\n      dup6\n        /* \"#utility.yul\":18514:18532   */\n      lt\n        /* \"#utility.yul\":18511:18560   */\n      iszero\n      tag_498\n      jumpi\n        /* \"#utility.yul\":18550:18558   */\n      dup2\n        /* \"#utility.yul\":18535:18558   */\n      swap1\n      pop\n        /* \"#utility.yul\":18511:18560   */\n    tag_498:\n        /* \"#utility.yul\":18573:18653   */\n      tag_499\n        /* \"#utility.yul\":18629:18651   */\n      tag_500\n        /* \"#utility.yul\":18647:18650   */\n      dup6\n        /* \"#utility.yul\":18629:18651   */\n      tag_282\n      jump\t// in\n    tag_500:\n        /* \"#utility.yul\":18619:18627   */\n      dup4\n        /* \"#utility.yul\":18615:18652   */\n      add\n        /* \"#utility.yul\":18602:18613   */\n      dup3\n        /* \"#utility.yul\":18573:18653   */\n      tag_291\n      jump\t// in\n    tag_499:\n        /* \"#utility.yul\":18232:18663   */\n      pop\n      pop\n        /* \"#utility.yul\":18217:18663   */\n    tag_495:\n        /* \"#utility.yul\":18127:18670   */\n      pop\n      pop\n      pop\n      jump\t// out\n        /* \"#utility.yul\":18676:18793   */\n    tag_293:\n        /* \"#utility.yul\":18730:18738   */\n      0x00\n        /* \"#utility.yul\":18780:18785   */\n      dup3\n        /* \"#utility.yul\":18774:18778   */\n      dup3\n        /* \"#utility.yul\":18770:18786   */\n      shr\n        /* \"#utility.yul\":18749:18786   */\n      swap1\n      pop\n        /* \"#utility.yul\":18676:18793   */\n      swap3\n      swap2\n      pop\n      pop\n      jump\t// out\n        /* \"#utility.yul\":18799:18968   */\n    tag_294:\n        /* \"#utility.yul\":18843:18849   */\n      0x00\n        /* \"#utility.yul\":18876:18927   */\n      tag_503\n        /* \"#utility.yul\":18924:18925   */\n      0x00\n        /* \"#utility.yul\":18920:18926   */\n      not\n        /* \"#utility.yul\":18912:18917   */\n      dup5\n        /* \"#utility.yul\":18909:18910   */\n      0x08\n        /* \"#utility.yul\":18905:18918   */\n      mul\n        /* \"#utility.yul\":18876:18927   */\n      tag_293\n      jump\t// in\n    tag_503:\n        /* \"#utility.yul\":18872:18928   */\n      not\n        /* \"#utility.yul\":18957:18961   */\n      dup1\n        /* \"#utility.yul\":18951:18955   */\n      dup4\n        /* \"#utility.yul\":18947:18962   */\n      and\n        /* \"#utility.yul\":18937:18962   */\n      swap2\n      pop\n        /* \"#utility.yul\":18850:18968   */\n      pop\n        /* \"#utility.yul\":18799:18968   */\n      swap3\n      swap2\n      pop\n      pop\n      jump\t// out\n        /* \"#utility.yul\":18973:19268   */\n    tag_295:\n        /* \"#utility.yul\":19049:19053   */\n      0x00\n        /* \"#utility.yul\":19195:19224   */\n      tag_505\n        /* \"#utility.yul\":19220:19223   */\n      dup4\n        /* \"#utility.yul\":19214:19218   */\n      dup4\n        /* \"#utility.yul\":19195:19224   */\n      tag_294\n      jump\t// in\n    tag_505:\n        /* \"#utility.yul\":19187:19224   */\n      swap2\n      pop\n        /* \"#utility.yul\":19257:19260   */\n      dup3\n        /* \"#utility.yul\":19254:19255   */\n      0x02\n        /* \"#utility.yul\":19250:19261   */\n      mul\n        /* \"#utility.yul\":19244:19248   */\n      dup3\n        /* \"#utility.yul\":19241:19262   */\n      or\n        /* \"#utility.yul\":19233:19262   */\n      swap1\n      pop\n        /* \"#utility.yul\":18973:19268   */\n      swap3\n      swap2\n      pop\n      pop\n      jump\t// out\n        /* \"#utility.yul\":19273:20736   */\n    tag_212:\n        /* \"#utility.yul\":19388:19391   */\n      dup2\n        /* \"#utility.yul\":19382:19386   */\n      dup2\n        /* \"#utility.yul\":19379:19392   */\n      sub\n        /* \"#utility.yul\":19376:19402   */\n      tag_507\n      jumpi\n        /* \"#utility.yul\":19395:19400   */\n      pop\n      pop\n      jump(tag_506)\n        /* \"#utility.yul\":19376:19402   */\n    tag_507:\n        /* \"#utility.yul\":19426:19464   */\n      tag_508\n        /* \"#utility.yul\":19460:19463   */\n      dup3\n        /* \"#utility.yul\":19426:19464   */\n      tag_279\n      jump\t// in\n    tag_508:\n        /* \"#utility.yul\":19529:19547   */\n      0xffffffffffffffff\n        /* \"#utility.yul\":19521:19527   */\n      dup2\n        /* \"#utility.yul\":19518:19548   */\n      gt\n        /* \"#utility.yul\":19515:19571   */\n      iszero\n      tag_509\n      jumpi\n        /* \"#utility.yul\":19551:19569   */\n      tag_510\n      tag_256\n      jump\t// in\n    tag_510:\n        /* \"#utility.yul\":19515:19571   */\n    tag_509:\n        /* \"#utility.yul\":19595:19633   */\n      tag_511\n        /* \"#utility.yul\":19627:19631   */\n      dup3\n        /* \"#utility.yul\":19621:19632   */\n      sload\n        /* \"#utility.yul\":19595:19633   */\n      tag_105\n      jump\t// in\n    tag_511:\n        /* \"#utility.yul\":19680:19747   */\n      tag_512\n        /* \"#utility.yul\":19740:19746   */\n      dup3\n        /* \"#utility.yul\":19732:19738   */\n      dup3\n        /* \"#utility.yul\":19726:19730   */\n      dup6\n        /* \"#utility.yul\":19680:19747   */\n      tag_292\n      jump\t// in\n    tag_512:\n        /* \"#utility.yul\":19774:19775   */\n      0x00\n        /* \"#utility.yul\":19803:19805   */\n      0x1f\n        /* \"#utility.yul\":19795:19801   */\n      dup4\n        /* \"#utility.yul\":19792:19806   */\n      gt\n        /* \"#utility.yul\":19820:19821   */\n      0x01\n        /* \"#utility.yul\":19815:20491   */\n      dup2\n      eq\n      tag_514\n      jumpi\n        /* \"#utility.yul\":20535:20536   */\n      0x00\n        /* \"#utility.yul\":20552:20558   */\n      dup5\n        /* \"#utility.yul\":20549:20626   */\n      iszero\n      tag_515\n      jumpi\n        /* \"#utility.yul\":20601:20610   */\n      dup3\n        /* \"#utility.yul\":20596:20599   */\n      dup8\n        /* \"#utility.yul\":20592:20611   */\n      add\n        /* \"#utility.yul\":20586:20612   */\n      sload\n        /* \"#utility.yul\":20577:20612   */\n      swap1\n      pop\n        /* \"#utility.yul\":20549:20626   */\n    tag_515:\n        /* \"#utility.yul\":20652:20719   */\n      tag_516\n        /* \"#utility.yul\":20712:20718   */\n      dup6\n        /* \"#utility.yul\":20705:20710   */\n      dup3\n        /* \"#utility.yul\":20652:20719   */\n      tag_295\n      jump\t// in\n    tag_516:\n        /* \"#utility.yul\":20646:20650   */\n      dup7\n        /* \"#utility.yul\":20639:20720   */\n      sstore\n        /* \"#utility.yul\":20508:20730   */\n      pop\n        /* \"#utility.yul\":19785:20730   */\n      jump(tag_513)\n        /* \"#utility.yul\":19815:20491   */\n    tag_514:\n        /* \"#utility.yul\":19867:19871   */\n      0x1f\n        /* \"#utility.yul\":19863:19872   */\n      not\n        /* \"#utility.yul\":19855:19861   */\n      dup5\n        /* \"#utility.yul\":19851:19873   */\n      and\n        /* \"#utility.yul\":19893:19933   */\n      tag_517\n        /* \"#utility.yul\":19929:19932   */\n      dup8\n        /* \"#utility.yul\":19893:19933   */\n      tag_281\n      jump\t// in\n    tag_517:\n        /* \"#utility.yul\":19886:19933   */\n      swap7\n      pop\n        /* \"#utility.yul\":19960:19997   */\n      tag_518\n        /* \"#utility.yul\":19992:19996   */\n      dup7\n        /* \"#utility.yul\":19960:19997   */\n      tag_280\n      jump\t// in\n    tag_518:\n        /* \"#utility.yul\":20019:20020   */\n      0x00\n        /* \"#utility.yul\":20033:20240   */\n    tag_519:\n        /* \"#utility.yul\":20047:20054   */\n      dup3\n        /* \"#utility.yul\":20044:20045   */\n      dup2\n        /* \"#utility.yul\":20041:20055   */\n      lt\n        /* \"#utility.yul\":20033:20240   */\n      iszero\n      tag_521\n      jumpi\n        /* \"#utility.yul\":20126:20135   */\n      dup5\n        /* \"#utility.yul\":20121:20124   */\n      dup10\n        /* \"#utility.yul\":20117:20136   */\n      add\n        /* \"#utility.yul\":20111:20137   */\n      sload\n        /* \"#utility.yul\":20103:20109   */\n      dup3\n        /* \"#utility.yul\":20096:20138   */\n      sstore\n        /* \"#utility.yul\":20177:20178   */\n      0x01\n        /* \"#utility.yul\":20169:20175   */\n      dup3\n        /* \"#utility.yul\":20165:20179   */\n      add\n        /* \"#utility.yul\":20155:20179   */\n      swap2\n      pop\n        /* \"#utility.yul\":20224:20225   */\n      0x01\n        /* \"#utility.yul\":20213:20222   */\n      dup6\n        /* \"#utility.yul\":20209:20226   */\n      add\n        /* \"#utility.yul\":20196:20226   */\n      swap5\n      pop\n        /* \"#utility.yul\":20070:20074   */\n      0x20\n        /* \"#utility.yul\":20067:20068   */\n      dup2\n        /* \"#utility.yul\":20063:20075   */\n      add\n        /* \"#utility.yul\":20058:20075   */\n      swap1\n      pop\n        /* \"#utility.yul\":20033:20240   */\n      jump(tag_519)\n    tag_521:\n        /* \"#utility.yul\":20268:20274   */\n      dup7\n        /* \"#utility.yul\":20259:20266   */\n      dup4\n        /* \"#utility.yul\":20256:20275   */\n      lt\n        /* \"#utility.yul\":20253:20432   */\n      iszero\n      tag_522\n      jumpi\n        /* \"#utility.yul\":20326:20335   */\n      dup5\n        /* \"#utility.yul\":20321:20324   */\n      dup10\n        /* \"#utility.yul\":20317:20336   */\n      add\n        /* \"#utility.yul\":20311:20337   */\n      sload\n        /* \"#utility.yul\":20369:20417   */\n      tag_523\n        /* \"#utility.yul\":20411:20415   */\n      0x1f\n        /* \"#utility.yul\":20403:20409   */\n      dup10\n        /* \"#utility.yul\":20399:20416   */\n      and\n        /* \"#utility.yul\":20388:20397   */\n      dup3\n        /* \"#utility.yul\":20369:20417   */\n      tag_294\n      jump\t// in\n    tag_523:\n        /* \"#utility.yul\":20361:20367   */\n      dup4\n        /* \"#utility.yul\":20354:20418   */\n      sstore\n        /* \"#utility.yul\":20276:20432   */\n      pop\n        /* \"#utility.yul\":20253:20432   */\n    tag_522:\n        /* \"#utility.yul\":20478:20479   */\n      0x01\n        /* \"#utility.yul\":20474:20475   */\n      0x02\n        /* \"#utility.yul\":20466:20472   */\n      dup9\n        /* \"#utility.yul\":20462:20476   */\n      mul\n        /* \"#utility.yul\":20458:20480   */\n      add\n        /* \"#utility.yul\":20452:20456   */\n      dup9\n        /* \"#utility.yul\":20445:20481   */\n      sstore\n        /* \"#utility.yul\":19822:20491   */\n      pop\n      pop\n      pop\n        /* \"#utility.yul\":19785:20730   */\n    tag_513:\n      pop\n        /* \"#utility.yul\":19366:20736   */\n      pop\n      pop\n      pop\n        /* \"#utility.yul\":19273:20736   */\n      pop\n      pop\n    tag_506:\n      jump\t// out\n\n    auxdata: 0xa2646970667358221220c490f901a3e3215137825a0f49266825444e110bb641ba8710e1bfa395be7ef964736f6c63430008110033\n}\n",
				"bytecode": {
					"linkReferences": {},
					"object": "60806040523480156200001157600080fd5b506040516200236438038062002364833981810160405281019062000037919062000413565b336000806101000a81548173ffffffffffffffffffffffffffffffffffffffff021916908373ffffffffffffffffffffffffffffffffffffffff16021790555080600290805190602001906200008f92919062000097565b505062000796565b828054828255906000526020600020908101928215620000e4579160200282015b82811115620000e3578251829081620000d29190620006af565b5091602001919060010190620000b8565b5b509050620000f39190620000f7565b5090565b5b808211156200011b57600081816200011191906200011f565b50600101620000f8565b5090565b5080546200012d906200049e565b6000825580601f1062000141575062000162565b601f01602090049060005260206000209081019062000161919062000165565b5b50565b5b808211156200018057600081600090555060010162000166565b5090565b6000604051905090565b600080fd5b600080fd5b600080fd5b6000601f19601f8301169050919050565b7f4e487b7100000000000000000000000000000000000000000000000000000000600052604160045260246000fd5b620001e8826200019d565b810181811067ffffffffffffffff821117156200020a5762000209620001ae565b5b80604052505050565b60006200021f62000184565b90506200022d8282620001dd565b919050565b600067ffffffffffffffff82111562000250576200024f620001ae565b5b602082029050602081019050919050565b600080fd5b600080fd5b600067ffffffffffffffff821115620002895762000288620001ae565b5b62000294826200019d565b9050602081019050919050565b60005b83811015620002c1578082015181840152602081019050620002a4565b60008484015250505050565b6000620002e4620002de846200026b565b62000213565b90508281526020810184848401111562000303576200030262000266565b5b62000310848285620002a1565b509392505050565b600082601f83011262000330576200032f62000198565b5b815162000342848260208601620002cd565b91505092915050565b6000620003626200035c8462000232565b62000213565b9050808382526020820190506020840283018581111562000388576200038762000261565b5b835b81811015620003d657805167ffffffffffffffff811115620003b157620003b062000198565b5b808601620003c0898262000318565b855260208501945050506020810190506200038a565b5050509392505050565b600082601f830112620003f857620003f762000198565b5b81516200040a8482602086016200034b565b91505092915050565b6000602082840312156200042c576200042b6200018e565b5b600082015167ffffffffffffffff8111156200044d576200044c62000193565b5b6200045b84828501620003e0565b91505092915050565b600081519050919050565b7f4e487b7100000000000000000000000000000000000000000000000000000000600052602260045260246000fd5b60006002820490506001821680620004b757607f821691505b602082108103620004cd57620004cc6200046f565b5b50919050565b60008190508160005260206000209050919050565b60006020601f8301049050919050565b600082821b905092915050565b600060088302620005377fffffffffffffffffffffffffffffffffffffffffffffffffffffffffffffffff82620004f8565b620005438683620004f8565b95508019841693508086168417925050509392505050565b6000819050919050565b6000819050919050565b6000620005906200058a62000584846200055b565b62000565565b6200055b565b9050919050565b6000819050919050565b620005ac836200056f565b620005c4620005bb8262000597565b84845462000505565b825550505050565b600090565b620005db620005cc565b620005e8818484620005a1565b505050565b5b81811015620006105762000604600082620005d1565b600181019050620005ee565b5050565b601f8211156200065f576200062981620004d3565b6200063484620004e8565b8101602085101562000644578190505b6200065c6200065385620004e8565b830182620005ed565b50505b505050565b600082821c905092915050565b6000620006846000198460080262000664565b1980831691505092915050565b60006200069f838362000671565b9150826002028217905092915050565b620006ba8262000464565b67ffffffffffffffff811115620006d657620006d5620001ae565b5b620006e282546200049e565b620006ef82828562000614565b600060209050601f83116001811462000727576000841562000712578287015190505b6200071e858262000691565b8655506200078e565b601f1984166200073786620004d3565b60005b8281101562000761578489015182556001820191506020850194506020810190506200073a565b868310156200078157848901516200077d601f89168262000671565b8355505b6001600288020188555050505b505050505050565b611bbe80620007a66000396000f3fe608060405234801561001057600080fd5b506004361061012c5760003560e01c80637427a40c116100ad578063c0befa5311610071578063c0befa53146102f7578063d534cc0e14610327578063d73fe0aa14610357578063e4fc6b6d14610375578063ebf479771461037f5761012c565b80637427a40c14610265578063790a0940146102955780638477d9f3146102b15780638da5cb5b146102cf5780639a5eec33146102ed5761012c565b80633f8b4866116100f45780633f8b4866146101c35780634cc82215146101df57806350e78191146101fb57806357a858fc14610217578063728f1112146102475761012c565b806301570fe81461013157806317377f681461014d5780631bf9cb171461016b5780631e1cf1601461017557806332c6afd0146101a5575b600080fd5b61014b6004803603810190610146919061109f565b61039b565b005b61015561039e565b604051610162919061121e565b60405180910390f35b610173610477565b005b61018f600480360381019061018a919061129e565b610507565b60405161019c9190611315565b60405180910390f35b6101ad6105a7565b6040516101ba9190611346565b60405180910390f35b6101dd60048036038101906101d891906114d4565b6105ba565b005b6101f960048036038101906101f49190611566565b61064c565b005b61021560048036038101906102109190611593565b610740565b005b610231600480360381019061022c9190611566565b610870565b60405161023e9190611315565b60405180910390f35b61024f61091c565b60405161025c9190611346565b60405180910390f35b61027f600480360381019061027a9190611566565b61092f565b60405161028c91906115cf565b60405180910390f35b6102af60048036038101906102aa9190611593565b61096e565b005b6102b9610a62565b6040516102c691906116a8565b60405180910390f35b6102d7610af0565b6040516102e491906116d9565b60405180910390f35b6102f5610b14565b005b610311600480360381019061030c919061129e565b610ba4565b60405161031e9190611315565b60405180910390f35b610341600480360381019061033c919061129e565b610c7b565b60405161034e9190611315565b60405180910390f35b61035f610d1b565b60405161036c919061121e565b60405180910390f35b61037d610df4565b005b6103996004803603810190610394919061129e565b611050565b005b50565b60606002805480602002602001604051908101604052809291908181526020016000905b8282101561046e5783829060005260206000200180546103e190611723565b80601f016020809104026020016040519081016040528092919081815260200182805461040d90611723565b801561045a5780601f1061042f5761010080835404028352916020019161045a565b820191906000526020600020905b81548152906001019060200180831161043d57829003601f168201915b5050505050815260200190600101906103c2565b50505050905090565b60008054906101000a900473ffffffffffffffffffffffffffffffffffffffff1673ffffffffffffffffffffffffffffffffffffffff163373ffffffffffffffffffffffffffffffffffffffff1614610505576040517f08c379a00000000000000000000000000000000000000000000000000000000081526004016104fc906117a0565b60405180910390fd5b565b6004602052806000526040600020600091509050805461052690611723565b80601f016020809104026020016040519081016040528092919081815260200182805461055290611723565b801561059f5780601f106105745761010080835404028352916020019161059f565b820191906000526020600020905b81548152906001019060200180831161058257829003601f168201915b505050505081565b60006105b3600061039b565b6000905090565b60008054906101000a900473ffffffffffffffffffffffffffffffffffffffff1673ffffffffffffffffffffffffffffffffffffffff163373ffffffffffffffffffffffffffffffffffffffff1614610648576040517f08c379a000000000000000000000000000000000000000000000000000000000815260040161063f906117a0565b60405180910390fd5b5050565b600180808054905061065e91906117ef565b8154811061066f5761066e611823565b5b9060005260206000200160009054906101000a900473ffffffffffffffffffffffffffffffffffffffff16600182815481106106ae576106ad611823565b5b9060005260206000200160006101000a81548173ffffffffffffffffffffffffffffffffffffffff021916908373ffffffffffffffffffffffffffffffffffffffff160217905550600180548061070857610707611852565b5b6001900381819060005260206000200160006101000a81549073ffffffffffffffffffffffffffffffffffffffff0219169055905550565b60008054906101000a900473ffffffffffffffffffffffffffffffffffffffff1673ffffffffffffffffffffffffffffffffffffffff163373ffffffffffffffffffffffffffffffffffffffff16146107ce576040517f08c379a00000000000000000000000000000000000000000000000000000000081526004016107c5906117a0565b60405180910390fd5b60005b600180549050811015610863578173ffffffffffffffffffffffffffffffffffffffff166001828154811061080957610808611823565b5b9060005260206000200160009054906101000a900473ffffffffffffffffffffffffffffffffffffffff1673ffffffffffffffffffffffffffffffffffffffff16031561086357808061085b90611881565b9150506107d1565b61086c8161064c565b5050565b6002818154811061088057600080fd5b90600052602060002001600091509050805461089b90611723565b80601f01602080910402602001604051908101604052809291908181526020018280546108c790611723565b80156109145780601f106108e957610100808354040283529160200191610914565b820191906000526020600020905b8154815290600101906020018083116108f757829003601f168201915b505050505081565b6000610928600161039b565b6001905090565b6001818154811061093f57600080fd5b906000526020600020016000915054906101000a900473ffffffffffffffffffffffffffffffffffffffff1681565b60008054906101000a900473ffffffffffffffffffffffffffffffffffffffff1673ffffffffffffffffffffffffffffffffffffffff163373ffffffffffffffffffffffffffffffffffffffff16146109fc576040517f08c379a00000000000000000000000000000000000000000000000000000000081526004016109f3906117a0565b60405180910390fd5b6001819080600181540180825580915050600190039060005260206000200160009091909190916101000a81548173ffffffffffffffffffffffffffffffffffffffff021916908373ffffffffffffffffffffffffffffffffffffffff16021790555050565b60606001805480602002602001604051908101604052809291908181526020018280548015610ae657602002820191906000526020600020905b8160009054906101000a900473ffffffffffffffffffffffffffffffffffffffff1673ffffffffffffffffffffffffffffffffffffffff1681526020019060010190808311610a9c575b5050505050905090565b60008054906101000a900473ffffffffffffffffffffffffffffffffffffffff1681565b60008054906101000a900473ffffffffffffffffffffffffffffffffffffffff1673ffffffffffffffffffffffffffffffffffffffff163373ffffffffffffffffffffffffffffffffffffffff1614610ba2576040517f08c379a0000000000000000000000000000000000000000000000000000000008152600401610b99906117a0565b60405180910390fd5b565b60606000600460008473ffffffffffffffffffffffffffffffffffffffff1673ffffffffffffffffffffffffffffffffffffffff1681526020019081526020016000208054610bf290611723565b80601f0160208091040260200160405190810160405280929190818152602001828054610c1e90611723565b8015610c6b5780601f10610c4057610100808354040283529160200191610c6b565b820191906000526020600020905b815481529060010190602001808311610c4e57829003601f168201915b5050505050905080915050919050565b60036020528060005260406000206000915090508054610c9a90611723565b80601f0160208091040260200160405190810160405280929190818152602001828054610cc690611723565b8015610d135780601f10610ce857610100808354040283529160200191610d13565b820191906000526020600020905b815481529060010190602001808311610cf657829003601f168201915b505050505081565b60606002805480602002602001604051908101604052809291908181526020016000905b82821015610deb578382906000526020600020018054610d5e90611723565b80601f0160208091040260200160405190810160405280929190818152602001828054610d8a90611723565b8015610dd75780601f10610dac57610100808354040283529160200191610dd7565b820191906000526020600020905b815481529060010190602001808311610dba57829003601f168201915b505050505081526020019060010190610d3f565b50505050905090565b60008054906101000a900473ffffffffffffffffffffffffffffffffffffffff1673ffffffffffffffffffffffffffffffffffffffff163373ffffffffffffffffffffffffffffffffffffffff1614610e82576040517f08c379a0000000000000000000000000000000000000000000000000000000008152600401610e79906117a0565b60405180910390fd5b6001805490506002805490501161104e5760005b60028054905081101561104c5760028181548110610eb757610eb6611823565b5b906000526020600020016003600060018481548110610ed957610ed8611823565b5b9060005260206000200160009054906101000a900473ffffffffffffffffffffffffffffffffffffffff1673ffffffffffffffffffffffffffffffffffffffff1673ffffffffffffffffffffffffffffffffffffffff1681526020019081526020016000209081610f4a9190611aa0565b5061103960018281548110610f6257610f61611823565b5b9060005260206000200160009054906101000a900473ffffffffffffffffffffffffffffffffffffffff1660028381548110610fa157610fa0611823565b5b906000526020600020018054610fb690611723565b80601f0160208091040260200160405190810160405280929190818152602001828054610fe290611723565b801561102f5780601f106110045761010080835404028352916020019161102f565b820191906000526020600020905b81548152906001019060200180831161101257829003601f168201915b50505050506105ba565b808061104490611881565b915050610e96565b505b565b50565b6000604051905090565b600080fd5b600080fd5b60008115159050919050565b61107c81611067565b811461108757600080fd5b50565b60008135905061109981611073565b92915050565b6000602082840312156110b5576110b461105d565b5b60006110c38482850161108a565b91505092915050565b600081519050919050565b600082825260208201905092915050565b6000819050602082019050919050565b600081519050919050565b600082825260208201905092915050565b60005b83811015611132578082015181840152602081019050611117565b60008484015250505050565b6000601f19601f8301169050919050565b600061115a826110f8565b6111648185611103565b9350611174818560208601611114565b61117d8161113e565b840191505092915050565b6000611194838361114f565b905092915050565b6000602082019050919050565b60006111b4826110cc565b6111be81856110d7565b9350836020820285016111d0856110e8565b8060005b8581101561120c57848403895281516111ed8582611188565b94506111f88361119c565b925060208a019950506001810190506111d4565b50829750879550505050505092915050565b6000602082019050818103600083015261123881846111a9565b905092915050565b600073ffffffffffffffffffffffffffffffffffffffff82169050919050565b600061126b82611240565b9050919050565b61127b81611260565b811461128657600080fd5b50565b60008135905061129881611272565b92915050565b6000602082840312156112b4576112b361105d565b5b60006112c284828501611289565b91505092915050565b600082825260208201905092915050565b60006112e7826110f8565b6112f181856112cb565b9350611301818560208601611114565b61130a8161113e565b840191505092915050565b6000602082019050818103600083015261132f81846112dc565b905092915050565b61134081611067565b82525050565b600060208201905061135b6000830184611337565b92915050565b600061136c82611240565b9050919050565b61137c81611361565b811461138757600080fd5b50565b60008135905061139981611373565b92915050565b600080fd5b600080fd5b7f4e487b7100000000000000000000000000000000000000000000000000000000600052604160045260246000fd5b6113e18261113e565b810181811067ffffffffffffffff82111715611400576113ff6113a9565b5b80604052505050565b6000611413611053565b905061141f82826113d8565b919050565b600067ffffffffffffffff82111561143f5761143e6113a9565b5b6114488261113e565b9050602081019050919050565b82818337600083830152505050565b600061147761147284611424565b611409565b905082815260208101848484011115611493576114926113a4565b5b61149e848285611455565b509392505050565b600082601f8301126114bb576114ba61139f565b5b81356114cb848260208601611464565b91505092915050565b600080604083850312156114eb576114ea61105d565b5b60006114f98582860161138a565b925050602083013567ffffffffffffffff81111561151a57611519611062565b5b611526858286016114a6565b9150509250929050565b6000819050919050565b61154381611530565b811461154e57600080fd5b50565b6000813590506115608161153a565b92915050565b60006020828403121561157c5761157b61105d565b5b600061158a84828501611551565b91505092915050565b6000602082840312156115a9576115a861105d565b5b60006115b78482850161138a565b91505092915050565b6115c981611361565b82525050565b60006020820190506115e460008301846115c0565b92915050565b600081519050919050565b600082825260208201905092915050565b6000819050602082019050919050565b61161f81611361565b82525050565b60006116318383611616565b60208301905092915050565b6000602082019050919050565b6000611655826115ea565b61165f81856115f5565b935061166a83611606565b8060005b8381101561169b5781516116828882611625565b975061168d8361163d565b92505060018101905061166e565b5085935050505092915050565b600060208201905081810360008301526116c2818461164a565b905092915050565b6116d381611260565b82525050565b60006020820190506116ee60008301846116ca565b92915050565b7f4e487b7100000000000000000000000000000000000000000000000000000000600052602260045260246000fd5b6000600282049050600182168061173b57607f821691505b60208210810361174e5761174d6116f4565b5b50919050565b7f6f6e6c79206f776e657220686173207468652070726976696c65676500000000600082015250565b600061178a601c836112cb565b915061179582611754565b602082019050919050565b600060208201905081810360008301526117b98161177d565b9050919050565b7f4e487b7100000000000000000000000000000000000000000000000000000000600052601160045260246000fd5b60006117fa82611530565b915061180583611530565b925082820390508181111561181d5761181c6117c0565b5b92915050565b7f4e487b7100000000000000000000000000000000000000000000000000000000600052603260045260246000fd5b7f4e487b7100000000000000000000000000000000000000000000000000000000600052603160045260246000fd5b600061188c82611530565b91507fffffffffffffffffffffffffffffffffffffffffffffffffffffffffffffffff82036118be576118bd6117c0565b5b600182019050919050565b6000815490506118d881611723565b9050919050565b60008190508160005260206000209050919050565b60008190508160005260206000209050919050565b60006020601f8301049050919050565b600082821b905092915050565b6000600883026119567fffffffffffffffffffffffffffffffffffffffffffffffffffffffffffffffff82611919565b6119608683611919565b95508019841693508086168417925050509392505050565b6000819050919050565b600061199d61199861199384611530565b611978565b611530565b9050919050565b6000819050919050565b6119b783611982565b6119cb6119c3826119a4565b848454611926565b825550505050565b600090565b6119e06119d3565b6119eb8184846119ae565b505050565b5b81811015611a0f57611a046000826119d8565b6001810190506119f1565b5050565b601f821115611a5457611a25816118df565b611a2e84611909565b81016020851015611a3d578190505b611a51611a4985611909565b8301826119f0565b50505b505050565b600082821c905092915050565b6000611a7760001984600802611a59565b1980831691505092915050565b6000611a908383611a66565b9150826002028217905092915050565b818103611aae575050611b86565b611ab7826118c9565b67ffffffffffffffff811115611ad057611acf6113a9565b5b611ada8254611723565b611ae5828285611a13565b6000601f831160018114611b145760008415611b02578287015490505b611b0c8582611a84565b865550611b7f565b601f198416611b22876118f4565b9650611b2d866118df565b60005b82811015611b5557848901548255600182019150600185019450602081019050611b30565b86831015611b725784890154611b6e601f891682611a66565b8355505b6001600288020188555050505b5050505050505b56fea2646970667358221220c490f901a3e3215137825a0f49266825444e110bb641ba8710e1bfa395be7ef964736f6c63430008110033",
					"opcodes": "PUSH1 0x80 PUSH1 0x40 MSTORE CALLVALUE DUP1 ISZERO PUSH3 0x11 JUMPI PUSH1 0x0 DUP1 REVERT JUMPDEST POP PUSH1 0x40 MLOAD PUSH3 0x2364 CODESIZE SUB DUP1 PUSH3 0x2364 DUP4 CODECOPY DUP2 DUP2 ADD PUSH1 0x40 MSTORE DUP2 ADD SWAP1 PUSH3 0x37 SWAP2 SWAP1 PUSH3 0x413 JUMP JUMPDEST CALLER PUSH1 0x0 DUP1 PUSH2 0x100 EXP DUP2 SLOAD DUP2 PUSH20 0xFFFFFFFFFFFFFFFFFFFFFFFFFFFFFFFFFFFFFFFF MUL NOT AND SWAP1 DUP4 PUSH20 0xFFFFFFFFFFFFFFFFFFFFFFFFFFFFFFFFFFFFFFFF AND MUL OR SWAP1 SSTORE POP DUP1 PUSH1 0x2 SWAP1 DUP1 MLOAD SWAP1 PUSH1 0x20 ADD SWAP1 PUSH3 0x8F SWAP3 SWAP2 SWAP1 PUSH3 0x97 JUMP JUMPDEST POP POP PUSH3 0x796 JUMP JUMPDEST DUP3 DUP1 SLOAD DUP3 DUP3 SSTORE SWAP1 PUSH1 0x0 MSTORE PUSH1 0x20 PUSH1 0x0 KECCAK256 SWAP1 DUP2 ADD SWAP3 DUP3 ISZERO PUSH3 0xE4 JUMPI SWAP2 PUSH1 0x20 MUL DUP3 ADD JUMPDEST DUP3 DUP2 GT ISZERO PUSH3 0xE3 JUMPI DUP3 MLOAD DUP3 SWAP1 DUP2 PUSH3 0xD2 SWAP2 SWAP1 PUSH3 0x6AF JUMP JUMPDEST POP SWAP2 PUSH1 0x20 ADD SWAP2 SWAP1 PUSH1 0x1 ADD SWAP1 PUSH3 0xB8 JUMP JUMPDEST JUMPDEST POP SWAP1 POP PUSH3 0xF3 SWAP2 SWAP1 PUSH3 0xF7 JUMP JUMPDEST POP SWAP1 JUMP JUMPDEST JUMPDEST DUP1 DUP3 GT ISZERO PUSH3 0x11B JUMPI PUSH1 0x0 DUP2 DUP2 PUSH3 0x111 SWAP2 SWAP1 PUSH3 0x11F JUMP JUMPDEST POP PUSH1 0x1 ADD PUSH3 0xF8 JUMP JUMPDEST POP SWAP1 JUMP JUMPDEST POP DUP1 SLOAD PUSH3 0x12D SWAP1 PUSH3 0x49E JUMP JUMPDEST PUSH1 0x0 DUP3 SSTORE DUP1 PUSH1 0x1F LT PUSH3 0x141 JUMPI POP PUSH3 0x162 JUMP JUMPDEST PUSH1 0x1F ADD PUSH1 0x20 SWAP1 DIV SWAP1 PUSH1 0x0 MSTORE PUSH1 0x20 PUSH1 0x0 KECCAK256 SWAP1 DUP2 ADD SWAP1 PUSH3 0x161 SWAP2 SWAP1 PUSH3 0x165 JUMP JUMPDEST JUMPDEST POP JUMP JUMPDEST JUMPDEST DUP1 DUP3 GT ISZERO PUSH3 0x180 JUMPI PUSH1 0x0 DUP2 PUSH1 0x0 SWAP1 SSTORE POP PUSH1 0x1 ADD PUSH3 0x166 JUMP JUMPDEST POP SWAP1 JUMP JUMPDEST PUSH1 0x0 PUSH1 0x40 MLOAD SWAP1 POP SWAP1 JUMP JUMPDEST PUSH1 0x0 DUP1 REVERT JUMPDEST PUSH1 0x0 DUP1 REVERT JUMPDEST PUSH1 0x0 DUP1 REVERT JUMPDEST PUSH1 0x0 PUSH1 0x1F NOT PUSH1 0x1F DUP4 ADD AND SWAP1 POP SWAP2 SWAP1 POP JUMP JUMPDEST PUSH32 0x4E487B7100000000000000000000000000000000000000000000000000000000 PUSH1 0x0 MSTORE PUSH1 0x41 PUSH1 0x4 MSTORE PUSH1 0x24 PUSH1 0x0 REVERT JUMPDEST PUSH3 0x1E8 DUP3 PUSH3 0x19D JUMP JUMPDEST DUP2 ADD DUP2 DUP2 LT PUSH8 0xFFFFFFFFFFFFFFFF DUP3 GT OR ISZERO PUSH3 0x20A JUMPI PUSH3 0x209 PUSH3 0x1AE JUMP JUMPDEST JUMPDEST DUP1 PUSH1 0x40 MSTORE POP POP POP JUMP JUMPDEST PUSH1 0x0 PUSH3 0x21F PUSH3 0x184 JUMP JUMPDEST SWAP1 POP PUSH3 0x22D DUP3 DUP3 PUSH3 0x1DD JUMP JUMPDEST SWAP2 SWAP1 POP JUMP JUMPDEST PUSH1 0x0 PUSH8 0xFFFFFFFFFFFFFFFF DUP3 GT ISZERO PUSH3 0x250 JUMPI PUSH3 0x24F PUSH3 0x1AE JUMP JUMPDEST JUMPDEST PUSH1 0x20 DUP3 MUL SWAP1 POP PUSH1 0x20 DUP2 ADD SWAP1 POP SWAP2 SWAP1 POP JUMP JUMPDEST PUSH1 0x0 DUP1 REVERT JUMPDEST PUSH1 0x0 DUP1 REVERT JUMPDEST PUSH1 0x0 PUSH8 0xFFFFFFFFFFFFFFFF DUP3 GT ISZERO PUSH3 0x289 JUMPI PUSH3 0x288 PUSH3 0x1AE JUMP JUMPDEST JUMPDEST PUSH3 0x294 DUP3 PUSH3 0x19D JUMP JUMPDEST SWAP1 POP PUSH1 0x20 DUP2 ADD SWAP1 POP SWAP2 SWAP1 POP JUMP JUMPDEST PUSH1 0x0 JUMPDEST DUP4 DUP2 LT ISZERO PUSH3 0x2C1 JUMPI DUP1 DUP3 ADD MLOAD DUP2 DUP5 ADD MSTORE PUSH1 0x20 DUP2 ADD SWAP1 POP PUSH3 0x2A4 JUMP JUMPDEST PUSH1 0x0 DUP5 DUP5 ADD MSTORE POP POP POP POP JUMP JUMPDEST PUSH1 0x0 PUSH3 0x2E4 PUSH3 0x2DE DUP5 PUSH3 0x26B JUMP JUMPDEST PUSH3 0x213 JUMP JUMPDEST SWAP1 POP DUP3 DUP2 MSTORE PUSH1 0x20 DUP2 ADD DUP5 DUP5 DUP5 ADD GT ISZERO PUSH3 0x303 JUMPI PUSH3 0x302 PUSH3 0x266 JUMP JUMPDEST JUMPDEST PUSH3 0x310 DUP5 DUP3 DUP6 PUSH3 0x2A1 JUMP JUMPDEST POP SWAP4 SWAP3 POP POP POP JUMP JUMPDEST PUSH1 0x0 DUP3 PUSH1 0x1F DUP4 ADD SLT PUSH3 0x330 JUMPI PUSH3 0x32F PUSH3 0x198 JUMP JUMPDEST JUMPDEST DUP2 MLOAD PUSH3 0x342 DUP5 DUP3 PUSH1 0x20 DUP7 ADD PUSH3 0x2CD JUMP JUMPDEST SWAP2 POP POP SWAP3 SWAP2 POP POP JUMP JUMPDEST PUSH1 0x0 PUSH3 0x362 PUSH3 0x35C DUP5 PUSH3 0x232 JUMP JUMPDEST PUSH3 0x213 JUMP JUMPDEST SWAP1 POP DUP1 DUP4 DUP3 MSTORE PUSH1 0x20 DUP3 ADD SWAP1 POP PUSH1 0x20 DUP5 MUL DUP4 ADD DUP6 DUP2 GT ISZERO PUSH3 0x388 JUMPI PUSH3 0x387 PUSH3 0x261 JUMP JUMPDEST JUMPDEST DUP4 JUMPDEST DUP2 DUP2 LT ISZERO PUSH3 0x3D6 JUMPI DUP1 MLOAD PUSH8 0xFFFFFFFFFFFFFFFF DUP2 GT ISZERO PUSH3 0x3B1 JUMPI PUSH3 0x3B0 PUSH3 0x198 JUMP JUMPDEST JUMPDEST DUP1 DUP7 ADD PUSH3 0x3C0 DUP10 DUP3 PUSH3 0x318 JUMP JUMPDEST DUP6 MSTORE PUSH1 0x20 DUP6 ADD SWAP5 POP POP POP PUSH1 0x20 DUP2 ADD SWAP1 POP PUSH3 0x38A JUMP JUMPDEST POP POP POP SWAP4 SWAP3 POP POP POP JUMP JUMPDEST PUSH1 0x0 DUP3 PUSH1 0x1F DUP4 ADD SLT PUSH3 0x3F8 JUMPI PUSH3 0x3F7 PUSH3 0x198 JUMP JUMPDEST JUMPDEST DUP2 MLOAD PUSH3 0x40A DUP5 DUP3 PUSH1 0x20 DUP7 ADD PUSH3 0x34B JUMP JUMPDEST SWAP2 POP POP SWAP3 SWAP2 POP POP JUMP JUMPDEST PUSH1 0x0 PUSH1 0x20 DUP3 DUP5 SUB SLT ISZERO PUSH3 0x42C JUMPI PUSH3 0x42B PUSH3 0x18E JUMP JUMPDEST JUMPDEST PUSH1 0x0 DUP3 ADD MLOAD PUSH8 0xFFFFFFFFFFFFFFFF DUP2 GT ISZERO PUSH3 0x44D JUMPI PUSH3 0x44C PUSH3 0x193 JUMP JUMPDEST JUMPDEST PUSH3 0x45B DUP5 DUP3 DUP6 ADD PUSH3 0x3E0 JUMP JUMPDEST SWAP2 POP POP SWAP3 SWAP2 POP POP JUMP JUMPDEST PUSH1 0x0 DUP2 MLOAD SWAP1 POP SWAP2 SWAP1 POP JUMP JUMPDEST PUSH32 0x4E487B7100000000000000000000000000000000000000000000000000000000 PUSH1 0x0 MSTORE PUSH1 0x22 PUSH1 0x4 MSTORE PUSH1 0x24 PUSH1 0x0 REVERT JUMPDEST PUSH1 0x0 PUSH1 0x2 DUP3 DIV SWAP1 POP PUSH1 0x1 DUP3 AND DUP1 PUSH3 0x4B7 JUMPI PUSH1 0x7F DUP3 AND SWAP2 POP JUMPDEST PUSH1 0x20 DUP3 LT DUP2 SUB PUSH3 0x4CD JUMPI PUSH3 0x4CC PUSH3 0x46F JUMP JUMPDEST JUMPDEST POP SWAP2 SWAP1 POP JUMP JUMPDEST PUSH1 0x0 DUP2 SWAP1 POP DUP2 PUSH1 0x0 MSTORE PUSH1 0x20 PUSH1 0x0 KECCAK256 SWAP1 POP SWAP2 SWAP1 POP JUMP JUMPDEST PUSH1 0x0 PUSH1 0x20 PUSH1 0x1F DUP4 ADD DIV SWAP1 POP SWAP2 SWAP1 POP JUMP JUMPDEST PUSH1 0x0 DUP3 DUP3 SHL SWAP1 POP SWAP3 SWAP2 POP POP JUMP JUMPDEST PUSH1 0x0 PUSH1 0x8 DUP4 MUL PUSH3 0x537 PUSH32 0xFFFFFFFFFFFFFFFFFFFFFFFFFFFFFFFFFFFFFFFFFFFFFFFFFFFFFFFFFFFFFFFF DUP3 PUSH3 0x4F8 JUMP JUMPDEST PUSH3 0x543 DUP7 DUP4 PUSH3 0x4F8 JUMP JUMPDEST SWAP6 POP DUP1 NOT DUP5 AND SWAP4 POP DUP1 DUP7 AND DUP5 OR SWAP3 POP POP POP SWAP4 SWAP3 POP POP POP JUMP JUMPDEST PUSH1 0x0 DUP2 SWAP1 POP SWAP2 SWAP1 POP JUMP JUMPDEST PUSH1 0x0 DUP2 SWAP1 POP SWAP2 SWAP1 POP JUMP JUMPDEST PUSH1 0x0 PUSH3 0x590 PUSH3 0x58A PUSH3 0x584 DUP5 PUSH3 0x55B JUMP JUMPDEST PUSH3 0x565 JUMP JUMPDEST PUSH3 0x55B JUMP JUMPDEST SWAP1 POP SWAP2 SWAP1 POP JUMP JUMPDEST PUSH1 0x0 DUP2 SWAP1 POP SWAP2 SWAP1 POP JUMP JUMPDEST PUSH3 0x5AC DUP4 PUSH3 0x56F JUMP JUMPDEST PUSH3 0x5C4 PUSH3 0x5BB DUP3 PUSH3 0x597 JUMP JUMPDEST DUP5 DUP5 SLOAD PUSH3 0x505 JUMP JUMPDEST DUP3 SSTORE POP POP POP POP JUMP JUMPDEST PUSH1 0x0 SWAP1 JUMP JUMPDEST PUSH3 0x5DB PUSH3 0x5CC JUMP JUMPDEST PUSH3 0x5E8 DUP2 DUP5 DUP5 PUSH3 0x5A1 JUMP JUMPDEST POP POP POP JUMP JUMPDEST JUMPDEST DUP2 DUP2 LT ISZERO PUSH3 0x610 JUMPI PUSH3 0x604 PUSH1 0x0 DUP3 PUSH3 0x5D1 JUMP JUMPDEST PUSH1 0x1 DUP2 ADD SWAP1 POP PUSH3 0x5EE JUMP JUMPDEST POP POP JUMP JUMPDEST PUSH1 0x1F DUP3 GT ISZERO PUSH3 0x65F JUMPI PUSH3 0x629 DUP2 PUSH3 0x4D3 JUMP JUMPDEST PUSH3 0x634 DUP5 PUSH3 0x4E8 JUMP JUMPDEST DUP2 ADD PUSH1 0x20 DUP6 LT ISZERO PUSH3 0x644 JUMPI DUP2 SWAP1 POP JUMPDEST PUSH3 0x65C PUSH3 0x653 DUP6 PUSH3 0x4E8 JUMP JUMPDEST DUP4 ADD DUP3 PUSH3 0x5ED JUMP JUMPDEST POP POP JUMPDEST POP POP POP JUMP JUMPDEST PUSH1 0x0 DUP3 DUP3 SHR SWAP1 POP SWAP3 SWAP2 POP POP JUMP JUMPDEST PUSH1 0x0 PUSH3 0x684 PUSH1 0x0 NOT DUP5 PUSH1 0x8 MUL PUSH3 0x664 JUMP JUMPDEST NOT DUP1 DUP4 AND SWAP2 POP POP SWAP3 SWAP2 POP POP JUMP JUMPDEST PUSH1 0x0 PUSH3 0x69F DUP4 DUP4 PUSH3 0x671 JUMP JUMPDEST SWAP2 POP DUP3 PUSH1 0x2 MUL DUP3 OR SWAP1 POP SWAP3 SWAP2 POP POP JUMP JUMPDEST PUSH3 0x6BA DUP3 PUSH3 0x464 JUMP JUMPDEST PUSH8 0xFFFFFFFFFFFFFFFF DUP2 GT ISZERO PUSH3 0x6D6 JUMPI PUSH3 0x6D5 PUSH3 0x1AE JUMP JUMPDEST JUMPDEST PUSH3 0x6E2 DUP3 SLOAD PUSH3 0x49E JUMP JUMPDEST PUSH3 0x6EF DUP3 DUP3 DUP6 PUSH3 0x614 JUMP JUMPDEST PUSH1 0x0 PUSH1 0x20 SWAP1 POP PUSH1 0x1F DUP4 GT PUSH1 0x1 DUP2 EQ PUSH3 0x727 JUMPI PUSH1 0x0 DUP5 ISZERO PUSH3 0x712 JUMPI DUP3 DUP8 ADD MLOAD SWAP1 POP JUMPDEST PUSH3 0x71E DUP6 DUP3 PUSH3 0x691 JUMP JUMPDEST DUP7 SSTORE POP PUSH3 0x78E JUMP JUMPDEST PUSH1 0x1F NOT DUP5 AND PUSH3 0x737 DUP7 PUSH3 0x4D3 JUMP JUMPDEST PUSH1 0x0 JUMPDEST DUP3 DUP2 LT ISZERO PUSH3 0x761 JUMPI DUP5 DUP10 ADD MLOAD DUP3 SSTORE PUSH1 0x1 DUP3 ADD SWAP2 POP PUSH1 0x20 DUP6 ADD SWAP5 POP PUSH1 0x20 DUP2 ADD SWAP1 POP PUSH3 0x73A JUMP JUMPDEST DUP7 DUP4 LT ISZERO PUSH3 0x781 JUMPI DUP5 DUP10 ADD MLOAD PUSH3 0x77D PUSH1 0x1F DUP10 AND DUP3 PUSH3 0x671 JUMP JUMPDEST DUP4 SSTORE POP JUMPDEST PUSH1 0x1 PUSH1 0x2 DUP9 MUL ADD DUP9 SSTORE POP POP POP JUMPDEST POP POP POP POP POP POP JUMP JUMPDEST PUSH2 0x1BBE DUP1 PUSH3 0x7A6 PUSH1 0x0 CODECOPY PUSH1 0x0 RETURN INVALID PUSH1 0x80 PUSH1 0x40 MSTORE CALLVALUE DUP1 ISZERO PUSH2 0x10 JUMPI PUSH1 0x0 DUP1 REVERT JUMPDEST POP PUSH1 0x4 CALLDATASIZE LT PUSH2 0x12C JUMPI PUSH1 0x0 CALLDATALOAD PUSH1 0xE0 SHR DUP1 PUSH4 0x7427A40C GT PUSH2 0xAD JUMPI DUP1 PUSH4 0xC0BEFA53 GT PUSH2 0x71 JUMPI DUP1 PUSH4 0xC0BEFA53 EQ PUSH2 0x2F7 JUMPI DUP1 PUSH4 0xD534CC0E EQ PUSH2 0x327 JUMPI DUP1 PUSH4 0xD73FE0AA EQ PUSH2 0x357 JUMPI DUP1 PUSH4 0xE4FC6B6D EQ PUSH2 0x375 JUMPI DUP1 PUSH4 0xEBF47977 EQ PUSH2 0x37F JUMPI PUSH2 0x12C JUMP JUMPDEST DUP1 PUSH4 0x7427A40C EQ PUSH2 0x265 JUMPI DUP1 PUSH4 0x790A0940 EQ PUSH2 0x295 JUMPI DUP1 PUSH4 0x8477D9F3 EQ PUSH2 0x2B1 JUMPI DUP1 PUSH4 0x8DA5CB5B EQ PUSH2 0x2CF JUMPI DUP1 PUSH4 0x9A5EEC33 EQ PUSH2 0x2ED JUMPI PUSH2 0x12C JUMP JUMPDEST DUP1 PUSH4 0x3F8B4866 GT PUSH2 0xF4 JUMPI DUP1 PUSH4 0x3F8B4866 EQ PUSH2 0x1C3 JUMPI DUP1 PUSH4 0x4CC82215 EQ PUSH2 0x1DF JUMPI DUP1 PUSH4 0x50E78191 EQ PUSH2 0x1FB JUMPI DUP1 PUSH4 0x57A858FC EQ PUSH2 0x217 JUMPI DUP1 PUSH4 0x728F1112 EQ PUSH2 0x247 JUMPI PUSH2 0x12C JUMP JUMPDEST DUP1 PUSH4 0x1570FE8 EQ PUSH2 0x131 JUMPI DUP1 PUSH4 0x17377F68 EQ PUSH2 0x14D JUMPI DUP1 PUSH4 0x1BF9CB17 EQ PUSH2 0x16B JUMPI DUP1 PUSH4 0x1E1CF160 EQ PUSH2 0x175 JUMPI DUP1 PUSH4 0x32C6AFD0 EQ PUSH2 0x1A5 JUMPI JUMPDEST PUSH1 0x0 DUP1 REVERT JUMPDEST PUSH2 0x14B PUSH1 0x4 DUP1 CALLDATASIZE SUB DUP2 ADD SWAP1 PUSH2 0x146 SWAP2 SWAP1 PUSH2 0x109F JUMP JUMPDEST PUSH2 0x39B JUMP JUMPDEST STOP JUMPDEST PUSH2 0x155 PUSH2 0x39E JUMP JUMPDEST PUSH1 0x40 MLOAD PUSH2 0x162 SWAP2 SWAP1 PUSH2 0x121E JUMP JUMPDEST PUSH1 0x40 MLOAD DUP1 SWAP2 SUB SWAP1 RETURN JUMPDEST PUSH2 0x173 PUSH2 0x477 JUMP JUMPDEST STOP JUMPDEST PUSH2 0x18F PUSH1 0x4 DUP1 CALLDATASIZE SUB DUP2 ADD SWAP1 PUSH2 0x18A SWAP2 SWAP1 PUSH2 0x129E JUMP JUMPDEST PUSH2 0x507 JUMP JUMPDEST PUSH1 0x40 MLOAD PUSH2 0x19C SWAP2 SWAP1 PUSH2 0x1315 JUMP JUMPDEST PUSH1 0x40 MLOAD DUP1 SWAP2 SUB SWAP1 RETURN JUMPDEST PUSH2 0x1AD PUSH2 0x5A7 JUMP JUMPDEST PUSH1 0x40 MLOAD PUSH2 0x1BA SWAP2 SWAP1 PUSH2 0x1346 JUMP JUMPDEST PUSH1 0x40 MLOAD DUP1 SWAP2 SUB SWAP1 RETURN JUMPDEST PUSH2 0x1DD PUSH1 0x4 DUP1 CALLDATASIZE SUB DUP2 ADD SWAP1 PUSH2 0x1D8 SWAP2 SWAP1 PUSH2 0x14D4 JUMP JUMPDEST PUSH2 0x5BA JUMP JUMPDEST STOP JUMPDEST PUSH2 0x1F9 PUSH1 0x4 DUP1 CALLDATASIZE SUB DUP2 ADD SWAP1 PUSH2 0x1F4 SWAP2 SWAP1 PUSH2 0x1566 JUMP JUMPDEST PUSH2 0x64C JUMP JUMPDEST STOP JUMPDEST PUSH2 0x215 PUSH1 0x4 DUP1 CALLDATASIZE SUB DUP2 ADD SWAP1 PUSH2 0x210 SWAP2 SWAP1 PUSH2 0x1593 JUMP JUMPDEST PUSH2 0x740 JUMP JUMPDEST STOP JUMPDEST PUSH2 0x231 PUSH1 0x4 DUP1 CALLDATASIZE SUB DUP2 ADD SWAP1 PUSH2 0x22C SWAP2 SWAP1 PUSH2 0x1566 JUMP JUMPDEST PUSH2 0x870 JUMP JUMPDEST PUSH1 0x40 MLOAD PUSH2 0x23E SWAP2 SWAP1 PUSH2 0x1315 JUMP JUMPDEST PUSH1 0x40 MLOAD DUP1 SWAP2 SUB SWAP1 RETURN JUMPDEST PUSH2 0x24F PUSH2 0x91C JUMP JUMPDEST PUSH1 0x40 MLOAD PUSH2 0x25C SWAP2 SWAP1 PUSH2 0x1346 JUMP JUMPDEST PUSH1 0x40 MLOAD DUP1 SWAP2 SUB SWAP1 RETURN JUMPDEST PUSH2 0x27F PUSH1 0x4 DUP1 CALLDATASIZE SUB DUP2 ADD SWAP1 PUSH2 0x27A SWAP2 SWAP1 PUSH2 0x1566 JUMP JUMPDEST PUSH2 0x92F JUMP JUMPDEST PUSH1 0x40 MLOAD PUSH2 0x28C SWAP2 SWAP1 PUSH2 0x15CF JUMP JUMPDEST PUSH1 0x40 MLOAD DUP1 SWAP2 SUB SWAP1 RETURN JUMPDEST PUSH2 0x2AF PUSH1 0x4 DUP1 CALLDATASIZE SUB DUP2 ADD SWAP1 PUSH2 0x2AA SWAP2 SWAP1 PUSH2 0x1593 JUMP JUMPDEST PUSH2 0x96E JUMP JUMPDEST STOP JUMPDEST PUSH2 0x2B9 PUSH2 0xA62 JUMP JUMPDEST PUSH1 0x40 MLOAD PUSH2 0x2C6 SWAP2 SWAP1 PUSH2 0x16A8 JUMP JUMPDEST PUSH1 0x40 MLOAD DUP1 SWAP2 SUB SWAP1 RETURN JUMPDEST PUSH2 0x2D7 PUSH2 0xAF0 JUMP JUMPDEST PUSH1 0x40 MLOAD PUSH2 0x2E4 SWAP2 SWAP1 PUSH2 0x16D9 JUMP JUMPDEST PUSH1 0x40 MLOAD DUP1 SWAP2 SUB SWAP1 RETURN JUMPDEST PUSH2 0x2F5 PUSH2 0xB14 JUMP JUMPDEST STOP JUMPDEST PUSH2 0x311 PUSH1 0x4 DUP1 CALLDATASIZE SUB DUP2 ADD SWAP1 PUSH2 0x30C SWAP2 SWAP1 PUSH2 0x129E JUMP JUMPDEST PUSH2 0xBA4 JUMP JUMPDEST PUSH1 0x40 MLOAD PUSH2 0x31E SWAP2 SWAP1 PUSH2 0x1315 JUMP JUMPDEST PUSH1 0x40 MLOAD DUP1 SWAP2 SUB SWAP1 RETURN JUMPDEST PUSH2 0x341 PUSH1 0x4 DUP1 CALLDATASIZE SUB DUP2 ADD SWAP1 PUSH2 0x33C SWAP2 SWAP1 PUSH2 0x129E JUMP JUMPDEST PUSH2 0xC7B JUMP JUMPDEST PUSH1 0x40 MLOAD PUSH2 0x34E SWAP2 SWAP1 PUSH2 0x1315 JUMP JUMPDEST PUSH1 0x40 MLOAD DUP1 SWAP2 SUB SWAP1 RETURN JUMPDEST PUSH2 0x35F PUSH2 0xD1B JUMP JUMPDEST PUSH1 0x40 MLOAD PUSH2 0x36C SWAP2 SWAP1 PUSH2 0x121E JUMP JUMPDEST PUSH1 0x40 MLOAD DUP1 SWAP2 SUB SWAP1 RETURN JUMPDEST PUSH2 0x37D PUSH2 0xDF4 JUMP JUMPDEST STOP JUMPDEST PUSH2 0x399 PUSH1 0x4 DUP1 CALLDATASIZE SUB DUP2 ADD SWAP1 PUSH2 0x394 SWAP2 SWAP1 PUSH2 0x129E JUMP JUMPDEST PUSH2 0x1050 JUMP JUMPDEST STOP JUMPDEST POP JUMP JUMPDEST PUSH1 0x60 PUSH1 0x2 DUP1 SLOAD DUP1 PUSH1 0x20 MUL PUSH1 0x20 ADD PUSH1 0x40 MLOAD SWAP1 DUP2 ADD PUSH1 0x40 MSTORE DUP1 SWAP3 SWAP2 SWAP1 DUP2 DUP2 MSTORE PUSH1 0x20 ADD PUSH1 0x0 SWAP1 JUMPDEST DUP3 DUP3 LT ISZERO PUSH2 0x46E JUMPI DUP4 DUP3 SWAP1 PUSH1 0x0 MSTORE PUSH1 0x20 PUSH1 0x0 KECCAK256 ADD DUP1 SLOAD PUSH2 0x3E1 SWAP1 PUSH2 0x1723 JUMP JUMPDEST DUP1 PUSH1 0x1F ADD PUSH1 0x20 DUP1 SWAP2 DIV MUL PUSH1 0x20 ADD PUSH1 0x40 MLOAD SWAP1 DUP2 ADD PUSH1 0x40 MSTORE DUP1 SWAP3 SWAP2 SWAP1 DUP2 DUP2 MSTORE PUSH1 0x20 ADD DUP3 DUP1 SLOAD PUSH2 0x40D SWAP1 PUSH2 0x1723 JUMP JUMPDEST DUP1 ISZERO PUSH2 0x45A JUMPI DUP1 PUSH1 0x1F LT PUSH2 0x42F JUMPI PUSH2 0x100 DUP1 DUP4 SLOAD DIV MUL DUP4 MSTORE SWAP2 PUSH1 0x20 ADD SWAP2 PUSH2 0x45A JUMP JUMPDEST DUP3 ADD SWAP2 SWAP1 PUSH1 0x0 MSTORE PUSH1 0x20 PUSH1 0x0 KECCAK256 SWAP1 JUMPDEST DUP2 SLOAD DUP2 MSTORE SWAP1 PUSH1 0x1 ADD SWAP1 PUSH1 0x20 ADD DUP1 DUP4 GT PUSH2 0x43D JUMPI DUP3 SWAP1 SUB PUSH1 0x1F AND DUP3 ADD SWAP2 JUMPDEST POP POP POP POP POP DUP2 MSTORE PUSH1 0x20 ADD SWAP1 PUSH1 0x1 ADD SWAP1 PUSH2 0x3C2 JUMP JUMPDEST POP POP POP POP SWAP1 POP SWAP1 JUMP JUMPDEST PUSH1 0x0 DUP1 SLOAD SWAP1 PUSH2 0x100 EXP SWAP1 DIV PUSH20 0xFFFFFFFFFFFFFFFFFFFFFFFFFFFFFFFFFFFFFFFF AND PUSH20 0xFFFFFFFFFFFFFFFFFFFFFFFFFFFFFFFFFFFFFFFF AND CALLER PUSH20 0xFFFFFFFFFFFFFFFFFFFFFFFFFFFFFFFFFFFFFFFF AND EQ PUSH2 0x505 JUMPI PUSH1 0x40 MLOAD PUSH32 0x8C379A000000000000000000000000000000000000000000000000000000000 DUP2 MSTORE PUSH1 0x4 ADD PUSH2 0x4FC SWAP1 PUSH2 0x17A0 JUMP JUMPDEST PUSH1 0x40 MLOAD DUP1 SWAP2 SUB SWAP1 REVERT JUMPDEST JUMP JUMPDEST PUSH1 0x4 PUSH1 0x20 MSTORE DUP1 PUSH1 0x0 MSTORE PUSH1 0x40 PUSH1 0x0 KECCAK256 PUSH1 0x0 SWAP2 POP SWAP1 POP DUP1 SLOAD PUSH2 0x526 SWAP1 PUSH2 0x1723 JUMP JUMPDEST DUP1 PUSH1 0x1F ADD PUSH1 0x20 DUP1 SWAP2 DIV MUL PUSH1 0x20 ADD PUSH1 0x40 MLOAD SWAP1 DUP2 ADD PUSH1 0x40 MSTORE DUP1 SWAP3 SWAP2 SWAP1 DUP2 DUP2 MSTORE PUSH1 0x20 ADD DUP3 DUP1 SLOAD PUSH2 0x552 SWAP1 PUSH2 0x1723 JUMP JUMPDEST DUP1 ISZERO PUSH2 0x59F JUMPI DUP1 PUSH1 0x1F LT PUSH2 0x574 JUMPI PUSH2 0x100 DUP1 DUP4 SLOAD DIV MUL DUP4 MSTORE SWAP2 PUSH1 0x20 ADD SWAP2 PUSH2 0x59F JUMP JUMPDEST DUP3 ADD SWAP2 SWAP1 PUSH1 0x0 MSTORE PUSH1 0x20 PUSH1 0x0 KECCAK256 SWAP1 JUMPDEST DUP2 SLOAD DUP2 MSTORE SWAP1 PUSH1 0x1 ADD SWAP1 PUSH1 0x20 ADD DUP1 DUP4 GT PUSH2 0x582 JUMPI DUP3 SWAP1 SUB PUSH1 0x1F AND DUP3 ADD SWAP2 JUMPDEST POP POP POP POP POP DUP2 JUMP JUMPDEST PUSH1 0x0 PUSH2 0x5B3 PUSH1 0x0 PUSH2 0x39B JUMP JUMPDEST PUSH1 0x0 SWAP1 POP SWAP1 JUMP JUMPDEST PUSH1 0x0 DUP1 SLOAD SWAP1 PUSH2 0x100 EXP SWAP1 DIV PUSH20 0xFFFFFFFFFFFFFFFFFFFFFFFFFFFFFFFFFFFFFFFF AND PUSH20 0xFFFFFFFFFFFFFFFFFFFFFFFFFFFFFFFFFFFFFFFF AND CALLER PUSH20 0xFFFFFFFFFFFFFFFFFFFFFFFFFFFFFFFFFFFFFFFF AND EQ PUSH2 0x648 JUMPI PUSH1 0x40 MLOAD PUSH32 0x8C379A000000000000000000000000000000000000000000000000000000000 DUP2 MSTORE PUSH1 0x4 ADD PUSH2 0x63F SWAP1 PUSH2 0x17A0 JUMP JUMPDEST PUSH1 0x40 MLOAD DUP1 SWAP2 SUB SWAP1 REVERT JUMPDEST POP POP JUMP JUMPDEST PUSH1 0x1 DUP1 DUP1 DUP1 SLOAD SWAP1 POP PUSH2 0x65E SWAP2 SWAP1 PUSH2 0x17EF JUMP JUMPDEST DUP2 SLOAD DUP2 LT PUSH2 0x66F JUMPI PUSH2 0x66E PUSH2 0x1823 JUMP JUMPDEST JUMPDEST SWAP1 PUSH1 0x0 MSTORE PUSH1 0x20 PUSH1 0x0 KECCAK256 ADD PUSH1 0x0 SWAP1 SLOAD SWAP1 PUSH2 0x100 EXP SWAP1 DIV PUSH20 0xFFFFFFFFFFFFFFFFFFFFFFFFFFFFFFFFFFFFFFFF AND PUSH1 0x1 DUP3 DUP2 SLOAD DUP2 LT PUSH2 0x6AE JUMPI PUSH2 0x6AD PUSH2 0x1823 JUMP JUMPDEST JUMPDEST SWAP1 PUSH1 0x0 MSTORE PUSH1 0x20 PUSH1 0x0 KECCAK256 ADD PUSH1 0x0 PUSH2 0x100 EXP DUP2 SLOAD DUP2 PUSH20 0xFFFFFFFFFFFFFFFFFFFFFFFFFFFFFFFFFFFFFFFF MUL NOT AND SWAP1 DUP4 PUSH20 0xFFFFFFFFFFFFFFFFFFFFFFFFFFFFFFFFFFFFFFFF AND MUL OR SWAP1 SSTORE POP PUSH1 0x1 DUP1 SLOAD DUP1 PUSH2 0x708 JUMPI PUSH2 0x707 PUSH2 0x1852 JUMP JUMPDEST JUMPDEST PUSH1 0x1 SWAP1 SUB DUP2 DUP2 SWAP1 PUSH1 0x0 MSTORE PUSH1 0x20 PUSH1 0x0 KECCAK256 ADD PUSH1 0x0 PUSH2 0x100 EXP DUP2 SLOAD SWAP1 PUSH20 0xFFFFFFFFFFFFFFFFFFFFFFFFFFFFFFFFFFFFFFFF MUL NOT AND SWAP1 SSTORE SWAP1 SSTORE POP JUMP JUMPDEST PUSH1 0x0 DUP1 SLOAD SWAP1 PUSH2 0x100 EXP SWAP1 DIV PUSH20 0xFFFFFFFFFFFFFFFFFFFFFFFFFFFFFFFFFFFFFFFF AND PUSH20 0xFFFFFFFFFFFFFFFFFFFFFFFFFFFFFFFFFFFFFFFF AND CALLER PUSH20 0xFFFFFFFFFFFFFFFFFFFFFFFFFFFFFFFFFFFFFFFF AND EQ PUSH2 0x7CE JUMPI PUSH1 0x40 MLOAD PUSH32 0x8C379A000000000000000000000000000000000000000000000000000000000 DUP2 MSTORE PUSH1 0x4 ADD PUSH2 0x7C5 SWAP1 PUSH2 0x17A0 JUMP JUMPDEST PUSH1 0x40 MLOAD DUP1 SWAP2 SUB SWAP1 REVERT JUMPDEST PUSH1 0x0 JUMPDEST PUSH1 0x1 DUP1 SLOAD SWAP1 POP DUP2 LT ISZERO PUSH2 0x863 JUMPI DUP2 PUSH20 0xFFFFFFFFFFFFFFFFFFFFFFFFFFFFFFFFFFFFFFFF AND PUSH1 0x1 DUP3 DUP2 SLOAD DUP2 LT PUSH2 0x809 JUMPI PUSH2 0x808 PUSH2 0x1823 JUMP JUMPDEST JUMPDEST SWAP1 PUSH1 0x0 MSTORE PUSH1 0x20 PUSH1 0x0 KECCAK256 ADD PUSH1 0x0 SWAP1 SLOAD SWAP1 PUSH2 0x100 EXP SWAP1 DIV PUSH20 0xFFFFFFFFFFFFFFFFFFFFFFFFFFFFFFFFFFFFFFFF AND PUSH20 0xFFFFFFFFFFFFFFFFFFFFFFFFFFFFFFFFFFFFFFFF AND SUB ISZERO PUSH2 0x863 JUMPI DUP1 DUP1 PUSH2 0x85B SWAP1 PUSH2 0x1881 JUMP JUMPDEST SWAP2 POP POP PUSH2 0x7D1 JUMP JUMPDEST PUSH2 0x86C DUP2 PUSH2 0x64C JUMP JUMPDEST POP POP JUMP JUMPDEST PUSH1 0x2 DUP2 DUP2 SLOAD DUP2 LT PUSH2 0x880 JUMPI PUSH1 0x0 DUP1 REVERT JUMPDEST SWAP1 PUSH1 0x0 MSTORE PUSH1 0x20 PUSH1 0x0 KECCAK256 ADD PUSH1 0x0 SWAP2 POP SWAP1 POP DUP1 SLOAD PUSH2 0x89B SWAP1 PUSH2 0x1723 JUMP JUMPDEST DUP1 PUSH1 0x1F ADD PUSH1 0x20 DUP1 SWAP2 DIV MUL PUSH1 0x20 ADD PUSH1 0x40 MLOAD SWAP1 DUP2 ADD PUSH1 0x40 MSTORE DUP1 SWAP3 SWAP2 SWAP1 DUP2 DUP2 MSTORE PUSH1 0x20 ADD DUP3 DUP1 SLOAD PUSH2 0x8C7 SWAP1 PUSH2 0x1723 JUMP JUMPDEST DUP1 ISZERO PUSH2 0x914 JUMPI DUP1 PUSH1 0x1F LT PUSH2 0x8E9 JUMPI PUSH2 0x100 DUP1 DUP4 SLOAD DIV MUL DUP4 MSTORE SWAP2 PUSH1 0x20 ADD SWAP2 PUSH2 0x914 JUMP JUMPDEST DUP3 ADD SWAP2 SWAP1 PUSH1 0x0 MSTORE PUSH1 0x20 PUSH1 0x0 KECCAK256 SWAP1 JUMPDEST DUP2 SLOAD DUP2 MSTORE SWAP1 PUSH1 0x1 ADD SWAP1 PUSH1 0x20 ADD DUP1 DUP4 GT PUSH2 0x8F7 JUMPI DUP3 SWAP1 SUB PUSH1 0x1F AND DUP3 ADD SWAP2 JUMPDEST POP POP POP POP POP DUP2 JUMP JUMPDEST PUSH1 0x0 PUSH2 0x928 PUSH1 0x1 PUSH2 0x39B JUMP JUMPDEST PUSH1 0x1 SWAP1 POP SWAP1 JUMP JUMPDEST PUSH1 0x1 DUP2 DUP2 SLOAD DUP2 LT PUSH2 0x93F JUMPI PUSH1 0x0 DUP1 REVERT JUMPDEST SWAP1 PUSH1 0x0 MSTORE PUSH1 0x20 PUSH1 0x0 KECCAK256 ADD PUSH1 0x0 SWAP2 POP SLOAD SWAP1 PUSH2 0x100 EXP SWAP1 DIV PUSH20 0xFFFFFFFFFFFFFFFFFFFFFFFFFFFFFFFFFFFFFFFF AND DUP2 JUMP JUMPDEST PUSH1 0x0 DUP1 SLOAD SWAP1 PUSH2 0x100 EXP SWAP1 DIV PUSH20 0xFFFFFFFFFFFFFFFFFFFFFFFFFFFFFFFFFFFFFFFF AND PUSH20 0xFFFFFFFFFFFFFFFFFFFFFFFFFFFFFFFFFFFFFFFF AND CALLER PUSH20 0xFFFFFFFFFFFFFFFFFFFFFFFFFFFFFFFFFFFFFFFF AND EQ PUSH2 0x9FC JUMPI PUSH1 0x40 MLOAD PUSH32 0x8C379A000000000000000000000000000000000000000000000000000000000 DUP2 MSTORE PUSH1 0x4 ADD PUSH2 0x9F3 SWAP1 PUSH2 0x17A0 JUMP JUMPDEST PUSH1 0x40 MLOAD DUP1 SWAP2 SUB SWAP1 REVERT JUMPDEST PUSH1 0x1 DUP2 SWAP1 DUP1 PUSH1 0x1 DUP2 SLOAD ADD DUP1 DUP3 SSTORE DUP1 SWAP2 POP POP PUSH1 0x1 SWAP1 SUB SWAP1 PUSH1 0x0 MSTORE PUSH1 0x20 PUSH1 0x0 KECCAK256 ADD PUSH1 0x0 SWAP1 SWAP2 SWAP1 SWAP2 SWAP1 SWAP2 PUSH2 0x100 EXP DUP2 SLOAD DUP2 PUSH20 0xFFFFFFFFFFFFFFFFFFFFFFFFFFFFFFFFFFFFFFFF MUL NOT AND SWAP1 DUP4 PUSH20 0xFFFFFFFFFFFFFFFFFFFFFFFFFFFFFFFFFFFFFFFF AND MUL OR SWAP1 SSTORE POP POP JUMP JUMPDEST PUSH1 0x60 PUSH1 0x1 DUP1 SLOAD DUP1 PUSH1 0x20 MUL PUSH1 0x20 ADD PUSH1 0x40 MLOAD SWAP1 DUP2 ADD PUSH1 0x40 MSTORE DUP1 SWAP3 SWAP2 SWAP1 DUP2 DUP2 MSTORE PUSH1 0x20 ADD DUP3 DUP1 SLOAD DUP1 ISZERO PUSH2 0xAE6 JUMPI PUSH1 0x20 MUL DUP3 ADD SWAP2 SWAP1 PUSH1 0x0 MSTORE PUSH1 0x20 PUSH1 0x0 KECCAK256 SWAP1 JUMPDEST DUP2 PUSH1 0x0 SWAP1 SLOAD SWAP1 PUSH2 0x100 EXP SWAP1 DIV PUSH20 0xFFFFFFFFFFFFFFFFFFFFFFFFFFFFFFFFFFFFFFFF AND PUSH20 0xFFFFFFFFFFFFFFFFFFFFFFFFFFFFFFFFFFFFFFFF AND DUP2 MSTORE PUSH1 0x20 ADD SWAP1 PUSH1 0x1 ADD SWAP1 DUP1 DUP4 GT PUSH2 0xA9C JUMPI JUMPDEST POP POP POP POP POP SWAP1 POP SWAP1 JUMP JUMPDEST PUSH1 0x0 DUP1 SLOAD SWAP1 PUSH2 0x100 EXP SWAP1 DIV PUSH20 0xFFFFFFFFFFFFFFFFFFFFFFFFFFFFFFFFFFFFFFFF AND DUP2 JUMP JUMPDEST PUSH1 0x0 DUP1 SLOAD SWAP1 PUSH2 0x100 EXP SWAP1 DIV PUSH20 0xFFFFFFFFFFFFFFFFFFFFFFFFFFFFFFFFFFFFFFFF AND PUSH20 0xFFFFFFFFFFFFFFFFFFFFFFFFFFFFFFFFFFFFFFFF AND CALLER PUSH20 0xFFFFFFFFFFFFFFFFFFFFFFFFFFFFFFFFFFFFFFFF AND EQ PUSH2 0xBA2 JUMPI PUSH1 0x40 MLOAD PUSH32 0x8C379A000000000000000000000000000000000000000000000000000000000 DUP2 MSTORE PUSH1 0x4 ADD PUSH2 0xB99 SWAP1 PUSH2 0x17A0 JUMP JUMPDEST PUSH1 0x40 MLOAD DUP1 SWAP2 SUB SWAP1 REVERT JUMPDEST JUMP JUMPDEST PUSH1 0x60 PUSH1 0x0 PUSH1 0x4 PUSH1 0x0 DUP5 PUSH20 0xFFFFFFFFFFFFFFFFFFFFFFFFFFFFFFFFFFFFFFFF AND PUSH20 0xFFFFFFFFFFFFFFFFFFFFFFFFFFFFFFFFFFFFFFFF AND DUP2 MSTORE PUSH1 0x20 ADD SWAP1 DUP2 MSTORE PUSH1 0x20 ADD PUSH1 0x0 KECCAK256 DUP1 SLOAD PUSH2 0xBF2 SWAP1 PUSH2 0x1723 JUMP JUMPDEST DUP1 PUSH1 0x1F ADD PUSH1 0x20 DUP1 SWAP2 DIV MUL PUSH1 0x20 ADD PUSH1 0x40 MLOAD SWAP1 DUP2 ADD PUSH1 0x40 MSTORE DUP1 SWAP3 SWAP2 SWAP1 DUP2 DUP2 MSTORE PUSH1 0x20 ADD DUP3 DUP1 SLOAD PUSH2 0xC1E SWAP1 PUSH2 0x1723 JUMP JUMPDEST DUP1 ISZERO PUSH2 0xC6B JUMPI DUP1 PUSH1 0x1F LT PUSH2 0xC40 JUMPI PUSH2 0x100 DUP1 DUP4 SLOAD DIV MUL DUP4 MSTORE SWAP2 PUSH1 0x20 ADD SWAP2 PUSH2 0xC6B JUMP JUMPDEST DUP3 ADD SWAP2 SWAP1 PUSH1 0x0 MSTORE PUSH1 0x20 PUSH1 0x0 KECCAK256 SWAP1 JUMPDEST DUP2 SLOAD DUP2 MSTORE SWAP1 PUSH1 0x1 ADD SWAP1 PUSH1 0x20 ADD DUP1 DUP4 GT PUSH2 0xC4E JUMPI DUP3 SWAP1 SUB PUSH1 0x1F AND DUP3 ADD SWAP2 JUMPDEST POP POP POP POP POP SWAP1 POP DUP1 SWAP2 POP POP SWAP2 SWAP1 POP JUMP JUMPDEST PUSH1 0x3 PUSH1 0x20 MSTORE DUP1 PUSH1 0x0 MSTORE PUSH1 0x40 PUSH1 0x0 KECCAK256 PUSH1 0x0 SWAP2 POP SWAP1 POP DUP1 SLOAD PUSH2 0xC9A SWAP1 PUSH2 0x1723 JUMP JUMPDEST DUP1 PUSH1 0x1F ADD PUSH1 0x20 DUP1 SWAP2 DIV MUL PUSH1 0x20 ADD PUSH1 0x40 MLOAD SWAP1 DUP2 ADD PUSH1 0x40 MSTORE DUP1 SWAP3 SWAP2 SWAP1 DUP2 DUP2 MSTORE PUSH1 0x20 ADD DUP3 DUP1 SLOAD PUSH2 0xCC6 SWAP1 PUSH2 0x1723 JUMP JUMPDEST DUP1 ISZERO PUSH2 0xD13 JUMPI DUP1 PUSH1 0x1F LT PUSH2 0xCE8 JUMPI PUSH2 0x100 DUP1 DUP4 SLOAD DIV MUL DUP4 MSTORE SWAP2 PUSH1 0x20 ADD SWAP2 PUSH2 0xD13 JUMP JUMPDEST DUP3 ADD SWAP2 SWAP1 PUSH1 0x0 MSTORE PUSH1 0x20 PUSH1 0x0 KECCAK256 SWAP1 JUMPDEST DUP2 SLOAD DUP2 MSTORE SWAP1 PUSH1 0x1 ADD SWAP1 PUSH1 0x20 ADD DUP1 DUP4 GT PUSH2 0xCF6 JUMPI DUP3 SWAP1 SUB PUSH1 0x1F AND DUP3 ADD SWAP2 JUMPDEST POP POP POP POP POP DUP2 JUMP JUMPDEST PUSH1 0x60 PUSH1 0x2 DUP1 SLOAD DUP1 PUSH1 0x20 MUL PUSH1 0x20 ADD PUSH1 0x40 MLOAD SWAP1 DUP2 ADD PUSH1 0x40 MSTORE DUP1 SWAP3 SWAP2 SWAP1 DUP2 DUP2 MSTORE PUSH1 0x20 ADD PUSH1 0x0 SWAP1 JUMPDEST DUP3 DUP3 LT ISZERO PUSH2 0xDEB JUMPI DUP4 DUP3 SWAP1 PUSH1 0x0 MSTORE PUSH1 0x20 PUSH1 0x0 KECCAK256 ADD DUP1 SLOAD PUSH2 0xD5E SWAP1 PUSH2 0x1723 JUMP JUMPDEST DUP1 PUSH1 0x1F ADD PUSH1 0x20 DUP1 SWAP2 DIV MUL PUSH1 0x20 ADD PUSH1 0x40 MLOAD SWAP1 DUP2 ADD PUSH1 0x40 MSTORE DUP1 SWAP3 SWAP2 SWAP1 DUP2 DUP2 MSTORE PUSH1 0x20 ADD DUP3 DUP1 SLOAD PUSH2 0xD8A SWAP1 PUSH2 0x1723 JUMP JUMPDEST DUP1 ISZERO PUSH2 0xDD7 JUMPI DUP1 PUSH1 0x1F LT PUSH2 0xDAC JUMPI PUSH2 0x100 DUP1 DUP4 SLOAD DIV MUL DUP4 MSTORE SWAP2 PUSH1 0x20 ADD SWAP2 PUSH2 0xDD7 JUMP JUMPDEST DUP3 ADD SWAP2 SWAP1 PUSH1 0x0 MSTORE PUSH1 0x20 PUSH1 0x0 KECCAK256 SWAP1 JUMPDEST DUP2 SLOAD DUP2 MSTORE SWAP1 PUSH1 0x1 ADD SWAP1 PUSH1 0x20 ADD DUP1 DUP4 GT PUSH2 0xDBA JUMPI DUP3 SWAP1 SUB PUSH1 0x1F AND DUP3 ADD SWAP2 JUMPDEST POP POP POP POP POP DUP2 MSTORE PUSH1 0x20 ADD SWAP1 PUSH1 0x1 ADD SWAP1 PUSH2 0xD3F JUMP JUMPDEST POP POP POP POP SWAP1 POP SWAP1 JUMP JUMPDEST PUSH1 0x0 DUP1 SLOAD SWAP1 PUSH2 0x100 EXP SWAP1 DIV PUSH20 0xFFFFFFFFFFFFFFFFFFFFFFFFFFFFFFFFFFFFFFFF AND PUSH20 0xFFFFFFFFFFFFFFFFFFFFFFFFFFFFFFFFFFFFFFFF AND CALLER PUSH20 0xFFFFFFFFFFFFFFFFFFFFFFFFFFFFFFFFFFFFFFFF AND EQ PUSH2 0xE82 JUMPI PUSH1 0x40 MLOAD PUSH32 0x8C379A000000000000000000000000000000000000000000000000000000000 DUP2 MSTORE PUSH1 0x4 ADD PUSH2 0xE79 SWAP1 PUSH2 0x17A0 JUMP JUMPDEST PUSH1 0x40 MLOAD DUP1 SWAP2 SUB SWAP1 REVERT JUMPDEST PUSH1 0x1 DUP1 SLOAD SWAP1 POP PUSH1 0x2 DUP1 SLOAD SWAP1 POP GT PUSH2 0x104E JUMPI PUSH1 0x0 JUMPDEST PUSH1 0x2 DUP1 SLOAD SWAP1 POP DUP2 LT ISZERO PUSH2 0x104C JUMPI PUSH1 0x2 DUP2 DUP2 SLOAD DUP2 LT PUSH2 0xEB7 JUMPI PUSH2 0xEB6 PUSH2 0x1823 JUMP JUMPDEST JUMPDEST SWAP1 PUSH1 0x0 MSTORE PUSH1 0x20 PUSH1 0x0 KECCAK256 ADD PUSH1 0x3 PUSH1 0x0 PUSH1 0x1 DUP5 DUP2 SLOAD DUP2 LT PUSH2 0xED9 JUMPI PUSH2 0xED8 PUSH2 0x1823 JUMP JUMPDEST JUMPDEST SWAP1 PUSH1 0x0 MSTORE PUSH1 0x20 PUSH1 0x0 KECCAK256 ADD PUSH1 0x0 SWAP1 SLOAD SWAP1 PUSH2 0x100 EXP SWAP1 DIV PUSH20 0xFFFFFFFFFFFFFFFFFFFFFFFFFFFFFFFFFFFFFFFF AND PUSH20 0xFFFFFFFFFFFFFFFFFFFFFFFFFFFFFFFFFFFFFFFF AND PUSH20 0xFFFFFFFFFFFFFFFFFFFFFFFFFFFFFFFFFFFFFFFF AND DUP2 MSTORE PUSH1 0x20 ADD SWAP1 DUP2 MSTORE PUSH1 0x20 ADD PUSH1 0x0 KECCAK256 SWAP1 DUP2 PUSH2 0xF4A SWAP2 SWAP1 PUSH2 0x1AA0 JUMP JUMPDEST POP PUSH2 0x1039 PUSH1 0x1 DUP3 DUP2 SLOAD DUP2 LT PUSH2 0xF62 JUMPI PUSH2 0xF61 PUSH2 0x1823 JUMP JUMPDEST JUMPDEST SWAP1 PUSH1 0x0 MSTORE PUSH1 0x20 PUSH1 0x0 KECCAK256 ADD PUSH1 0x0 SWAP1 SLOAD SWAP1 PUSH2 0x100 EXP SWAP1 DIV PUSH20 0xFFFFFFFFFFFFFFFFFFFFFFFFFFFFFFFFFFFFFFFF AND PUSH1 0x2 DUP4 DUP2 SLOAD DUP2 LT PUSH2 0xFA1 JUMPI PUSH2 0xFA0 PUSH2 0x1823 JUMP JUMPDEST JUMPDEST SWAP1 PUSH1 0x0 MSTORE PUSH1 0x20 PUSH1 0x0 KECCAK256 ADD DUP1 SLOAD PUSH2 0xFB6 SWAP1 PUSH2 0x1723 JUMP JUMPDEST DUP1 PUSH1 0x1F ADD PUSH1 0x20 DUP1 SWAP2 DIV MUL PUSH1 0x20 ADD PUSH1 0x40 MLOAD SWAP1 DUP2 ADD PUSH1 0x40 MSTORE DUP1 SWAP3 SWAP2 SWAP1 DUP2 DUP2 MSTORE PUSH1 0x20 ADD DUP3 DUP1 SLOAD PUSH2 0xFE2 SWAP1 PUSH2 0x1723 JUMP JUMPDEST DUP1 ISZERO PUSH2 0x102F JUMPI DUP1 PUSH1 0x1F LT PUSH2 0x1004 JUMPI PUSH2 0x100 DUP1 DUP4 SLOAD DIV MUL DUP4 MSTORE SWAP2 PUSH1 0x20 ADD SWAP2 PUSH2 0x102F JUMP JUMPDEST DUP3 ADD SWAP2 SWAP1 PUSH1 0x0 MSTORE PUSH1 0x20 PUSH1 0x0 KECCAK256 SWAP1 JUMPDEST DUP2 SLOAD DUP2 MSTORE SWAP1 PUSH1 0x1 ADD SWAP1 PUSH1 0x20 ADD DUP1 DUP4 GT PUSH2 0x1012 JUMPI DUP3 SWAP1 SUB PUSH1 0x1F AND DUP3 ADD SWAP2 JUMPDEST POP POP POP POP POP PUSH2 0x5BA JUMP JUMPDEST DUP1 DUP1 PUSH2 0x1044 SWAP1 PUSH2 0x1881 JUMP JUMPDEST SWAP2 POP POP PUSH2 0xE96 JUMP JUMPDEST POP JUMPDEST JUMP JUMPDEST POP JUMP JUMPDEST PUSH1 0x0 PUSH1 0x40 MLOAD SWAP1 POP SWAP1 JUMP JUMPDEST PUSH1 0x0 DUP1 REVERT JUMPDEST PUSH1 0x0 DUP1 REVERT JUMPDEST PUSH1 0x0 DUP2 ISZERO ISZERO SWAP1 POP SWAP2 SWAP1 POP JUMP JUMPDEST PUSH2 0x107C DUP2 PUSH2 0x1067 JUMP JUMPDEST DUP2 EQ PUSH2 0x1087 JUMPI PUSH1 0x0 DUP1 REVERT JUMPDEST POP JUMP JUMPDEST PUSH1 0x0 DUP2 CALLDATALOAD SWAP1 POP PUSH2 0x1099 DUP2 PUSH2 0x1073 JUMP JUMPDEST SWAP3 SWAP2 POP POP JUMP JUMPDEST PUSH1 0x0 PUSH1 0x20 DUP3 DUP5 SUB SLT ISZERO PUSH2 0x10B5 JUMPI PUSH2 0x10B4 PUSH2 0x105D JUMP JUMPDEST JUMPDEST PUSH1 0x0 PUSH2 0x10C3 DUP5 DUP3 DUP6 ADD PUSH2 0x108A JUMP JUMPDEST SWAP2 POP POP SWAP3 SWAP2 POP POP JUMP JUMPDEST PUSH1 0x0 DUP2 MLOAD SWAP1 POP SWAP2 SWAP1 POP JUMP JUMPDEST PUSH1 0x0 DUP3 DUP3 MSTORE PUSH1 0x20 DUP3 ADD SWAP1 POP SWAP3 SWAP2 POP POP JUMP JUMPDEST PUSH1 0x0 DUP2 SWAP1 POP PUSH1 0x20 DUP3 ADD SWAP1 POP SWAP2 SWAP1 POP JUMP JUMPDEST PUSH1 0x0 DUP2 MLOAD SWAP1 POP SWAP2 SWAP1 POP JUMP JUMPDEST PUSH1 0x0 DUP3 DUP3 MSTORE PUSH1 0x20 DUP3 ADD SWAP1 POP SWAP3 SWAP2 POP POP JUMP JUMPDEST PUSH1 0x0 JUMPDEST DUP4 DUP2 LT ISZERO PUSH2 0x1132 JUMPI DUP1 DUP3 ADD MLOAD DUP2 DUP5 ADD MSTORE PUSH1 0x20 DUP2 ADD SWAP1 POP PUSH2 0x1117 JUMP JUMPDEST PUSH1 0x0 DUP5 DUP5 ADD MSTORE POP POP POP POP JUMP JUMPDEST PUSH1 0x0 PUSH1 0x1F NOT PUSH1 0x1F DUP4 ADD AND SWAP1 POP SWAP2 SWAP1 POP JUMP JUMPDEST PUSH1 0x0 PUSH2 0x115A DUP3 PUSH2 0x10F8 JUMP JUMPDEST PUSH2 0x1164 DUP2 DUP6 PUSH2 0x1103 JUMP JUMPDEST SWAP4 POP PUSH2 0x1174 DUP2 DUP6 PUSH1 0x20 DUP7 ADD PUSH2 0x1114 JUMP JUMPDEST PUSH2 0x117D DUP2 PUSH2 0x113E JUMP JUMPDEST DUP5 ADD SWAP2 POP POP SWAP3 SWAP2 POP POP JUMP JUMPDEST PUSH1 0x0 PUSH2 0x1194 DUP4 DUP4 PUSH2 0x114F JUMP JUMPDEST SWAP1 POP SWAP3 SWAP2 POP POP JUMP JUMPDEST PUSH1 0x0 PUSH1 0x20 DUP3 ADD SWAP1 POP SWAP2 SWAP1 POP JUMP JUMPDEST PUSH1 0x0 PUSH2 0x11B4 DUP3 PUSH2 0x10CC JUMP JUMPDEST PUSH2 0x11BE DUP2 DUP6 PUSH2 0x10D7 JUMP JUMPDEST SWAP4 POP DUP4 PUSH1 0x20 DUP3 MUL DUP6 ADD PUSH2 0x11D0 DUP6 PUSH2 0x10E8 JUMP JUMPDEST DUP1 PUSH1 0x0 JUMPDEST DUP6 DUP2 LT ISZERO PUSH2 0x120C JUMPI DUP5 DUP5 SUB DUP10 MSTORE DUP2 MLOAD PUSH2 0x11ED DUP6 DUP3 PUSH2 0x1188 JUMP JUMPDEST SWAP5 POP PUSH2 0x11F8 DUP4 PUSH2 0x119C JUMP JUMPDEST SWAP3 POP PUSH1 0x20 DUP11 ADD SWAP10 POP POP PUSH1 0x1 DUP2 ADD SWAP1 POP PUSH2 0x11D4 JUMP JUMPDEST POP DUP3 SWAP8 POP DUP8 SWAP6 POP POP POP POP POP POP SWAP3 SWAP2 POP POP JUMP JUMPDEST PUSH1 0x0 PUSH1 0x20 DUP3 ADD SWAP1 POP DUP2 DUP2 SUB PUSH1 0x0 DUP4 ADD MSTORE PUSH2 0x1238 DUP2 DUP5 PUSH2 0x11A9 JUMP JUMPDEST SWAP1 POP SWAP3 SWAP2 POP POP JUMP JUMPDEST PUSH1 0x0 PUSH20 0xFFFFFFFFFFFFFFFFFFFFFFFFFFFFFFFFFFFFFFFF DUP3 AND SWAP1 POP SWAP2 SWAP1 POP JUMP JUMPDEST PUSH1 0x0 PUSH2 0x126B DUP3 PUSH2 0x1240 JUMP JUMPDEST SWAP1 POP SWAP2 SWAP1 POP JUMP JUMPDEST PUSH2 0x127B DUP2 PUSH2 0x1260 JUMP JUMPDEST DUP2 EQ PUSH2 0x1286 JUMPI PUSH1 0x0 DUP1 REVERT JUMPDEST POP JUMP JUMPDEST PUSH1 0x0 DUP2 CALLDATALOAD SWAP1 POP PUSH2 0x1298 DUP2 PUSH2 0x1272 JUMP JUMPDEST SWAP3 SWAP2 POP POP JUMP JUMPDEST PUSH1 0x0 PUSH1 0x20 DUP3 DUP5 SUB SLT ISZERO PUSH2 0x12B4 JUMPI PUSH2 0x12B3 PUSH2 0x105D JUMP JUMPDEST JUMPDEST PUSH1 0x0 PUSH2 0x12C2 DUP5 DUP3 DUP6 ADD PUSH2 0x1289 JUMP JUMPDEST SWAP2 POP POP SWAP3 SWAP2 POP POP JUMP JUMPDEST PUSH1 0x0 DUP3 DUP3 MSTORE PUSH1 0x20 DUP3 ADD SWAP1 POP SWAP3 SWAP2 POP POP JUMP JUMPDEST PUSH1 0x0 PUSH2 0x12E7 DUP3 PUSH2 0x10F8 JUMP JUMPDEST PUSH2 0x12F1 DUP2 DUP6 PUSH2 0x12CB JUMP JUMPDEST SWAP4 POP PUSH2 0x1301 DUP2 DUP6 PUSH1 0x20 DUP7 ADD PUSH2 0x1114 JUMP JUMPDEST PUSH2 0x130A DUP2 PUSH2 0x113E JUMP JUMPDEST DUP5 ADD SWAP2 POP POP SWAP3 SWAP2 POP POP JUMP JUMPDEST PUSH1 0x0 PUSH1 0x20 DUP3 ADD SWAP1 POP DUP2 DUP2 SUB PUSH1 0x0 DUP4 ADD MSTORE PUSH2 0x132F DUP2 DUP5 PUSH2 0x12DC JUMP JUMPDEST SWAP1 POP SWAP3 SWAP2 POP POP JUMP JUMPDEST PUSH2 0x1340 DUP2 PUSH2 0x1067 JUMP JUMPDEST DUP3 MSTORE POP POP JUMP JUMPDEST PUSH1 0x0 PUSH1 0x20 DUP3 ADD SWAP1 POP PUSH2 0x135B PUSH1 0x0 DUP4 ADD DUP5 PUSH2 0x1337 JUMP JUMPDEST SWAP3 SWAP2 POP POP JUMP JUMPDEST PUSH1 0x0 PUSH2 0x136C DUP3 PUSH2 0x1240 JUMP JUMPDEST SWAP1 POP SWAP2 SWAP1 POP JUMP JUMPDEST PUSH2 0x137C DUP2 PUSH2 0x1361 JUMP JUMPDEST DUP2 EQ PUSH2 0x1387 JUMPI PUSH1 0x0 DUP1 REVERT JUMPDEST POP JUMP JUMPDEST PUSH1 0x0 DUP2 CALLDATALOAD SWAP1 POP PUSH2 0x1399 DUP2 PUSH2 0x1373 JUMP JUMPDEST SWAP3 SWAP2 POP POP JUMP JUMPDEST PUSH1 0x0 DUP1 REVERT JUMPDEST PUSH1 0x0 DUP1 REVERT JUMPDEST PUSH32 0x4E487B7100000000000000000000000000000000000000000000000000000000 PUSH1 0x0 MSTORE PUSH1 0x41 PUSH1 0x4 MSTORE PUSH1 0x24 PUSH1 0x0 REVERT JUMPDEST PUSH2 0x13E1 DUP3 PUSH2 0x113E JUMP JUMPDEST DUP2 ADD DUP2 DUP2 LT PUSH8 0xFFFFFFFFFFFFFFFF DUP3 GT OR ISZERO PUSH2 0x1400 JUMPI PUSH2 0x13FF PUSH2 0x13A9 JUMP JUMPDEST JUMPDEST DUP1 PUSH1 0x40 MSTORE POP POP POP JUMP JUMPDEST PUSH1 0x0 PUSH2 0x1413 PUSH2 0x1053 JUMP JUMPDEST SWAP1 POP PUSH2 0x141F DUP3 DUP3 PUSH2 0x13D8 JUMP JUMPDEST SWAP2 SWAP1 POP JUMP JUMPDEST PUSH1 0x0 PUSH8 0xFFFFFFFFFFFFFFFF DUP3 GT ISZERO PUSH2 0x143F JUMPI PUSH2 0x143E PUSH2 0x13A9 JUMP JUMPDEST JUMPDEST PUSH2 0x1448 DUP3 PUSH2 0x113E JUMP JUMPDEST SWAP1 POP PUSH1 0x20 DUP2 ADD SWAP1 POP SWAP2 SWAP1 POP JUMP JUMPDEST DUP3 DUP2 DUP4 CALLDATACOPY PUSH1 0x0 DUP4 DUP4 ADD MSTORE POP POP POP JUMP JUMPDEST PUSH1 0x0 PUSH2 0x1477 PUSH2 0x1472 DUP5 PUSH2 0x1424 JUMP JUMPDEST PUSH2 0x1409 JUMP JUMPDEST SWAP1 POP DUP3 DUP2 MSTORE PUSH1 0x20 DUP2 ADD DUP5 DUP5 DUP5 ADD GT ISZERO PUSH2 0x1493 JUMPI PUSH2 0x1492 PUSH2 0x13A4 JUMP JUMPDEST JUMPDEST PUSH2 0x149E DUP5 DUP3 DUP6 PUSH2 0x1455 JUMP JUMPDEST POP SWAP4 SWAP3 POP POP POP JUMP JUMPDEST PUSH1 0x0 DUP3 PUSH1 0x1F DUP4 ADD SLT PUSH2 0x14BB JUMPI PUSH2 0x14BA PUSH2 0x139F JUMP JUMPDEST JUMPDEST DUP2 CALLDATALOAD PUSH2 0x14CB DUP5 DUP3 PUSH1 0x20 DUP7 ADD PUSH2 0x1464 JUMP JUMPDEST SWAP2 POP POP SWAP3 SWAP2 POP POP JUMP JUMPDEST PUSH1 0x0 DUP1 PUSH1 0x40 DUP4 DUP6 SUB SLT ISZERO PUSH2 0x14EB JUMPI PUSH2 0x14EA PUSH2 0x105D JUMP JUMPDEST JUMPDEST PUSH1 0x0 PUSH2 0x14F9 DUP6 DUP3 DUP7 ADD PUSH2 0x138A JUMP JUMPDEST SWAP3 POP POP PUSH1 0x20 DUP4 ADD CALLDATALOAD PUSH8 0xFFFFFFFFFFFFFFFF DUP2 GT ISZERO PUSH2 0x151A JUMPI PUSH2 0x1519 PUSH2 0x1062 JUMP JUMPDEST JUMPDEST PUSH2 0x1526 DUP6 DUP3 DUP7 ADD PUSH2 0x14A6 JUMP JUMPDEST SWAP2 POP POP SWAP3 POP SWAP3 SWAP1 POP JUMP JUMPDEST PUSH1 0x0 DUP2 SWAP1 POP SWAP2 SWAP1 POP JUMP JUMPDEST PUSH2 0x1543 DUP2 PUSH2 0x1530 JUMP JUMPDEST DUP2 EQ PUSH2 0x154E JUMPI PUSH1 0x0 DUP1 REVERT JUMPDEST POP JUMP JUMPDEST PUSH1 0x0 DUP2 CALLDATALOAD SWAP1 POP PUSH2 0x1560 DUP2 PUSH2 0x153A JUMP JUMPDEST SWAP3 SWAP2 POP POP JUMP JUMPDEST PUSH1 0x0 PUSH1 0x20 DUP3 DUP5 SUB SLT ISZERO PUSH2 0x157C JUMPI PUSH2 0x157B PUSH2 0x105D JUMP JUMPDEST JUMPDEST PUSH1 0x0 PUSH2 0x158A DUP5 DUP3 DUP6 ADD PUSH2 0x1551 JUMP JUMPDEST SWAP2 POP POP SWAP3 SWAP2 POP POP JUMP JUMPDEST PUSH1 0x0 PUSH1 0x20 DUP3 DUP5 SUB SLT ISZERO PUSH2 0x15A9 JUMPI PUSH2 0x15A8 PUSH2 0x105D JUMP JUMPDEST JUMPDEST PUSH1 0x0 PUSH2 0x15B7 DUP5 DUP3 DUP6 ADD PUSH2 0x138A JUMP JUMPDEST SWAP2 POP POP SWAP3 SWAP2 POP POP JUMP JUMPDEST PUSH2 0x15C9 DUP2 PUSH2 0x1361 JUMP JUMPDEST DUP3 MSTORE POP POP JUMP JUMPDEST PUSH1 0x0 PUSH1 0x20 DUP3 ADD SWAP1 POP PUSH2 0x15E4 PUSH1 0x0 DUP4 ADD DUP5 PUSH2 0x15C0 JUMP JUMPDEST SWAP3 SWAP2 POP POP JUMP JUMPDEST PUSH1 0x0 DUP2 MLOAD SWAP1 POP SWAP2 SWAP1 POP JUMP JUMPDEST PUSH1 0x0 DUP3 DUP3 MSTORE PUSH1 0x20 DUP3 ADD SWAP1 POP SWAP3 SWAP2 POP POP JUMP JUMPDEST PUSH1 0x0 DUP2 SWAP1 POP PUSH1 0x20 DUP3 ADD SWAP1 POP SWAP2 SWAP1 POP JUMP JUMPDEST PUSH2 0x161F DUP2 PUSH2 0x1361 JUMP JUMPDEST DUP3 MSTORE POP POP JUMP JUMPDEST PUSH1 0x0 PUSH2 0x1631 DUP4 DUP4 PUSH2 0x1616 JUMP JUMPDEST PUSH1 0x20 DUP4 ADD SWAP1 POP SWAP3 SWAP2 POP POP JUMP JUMPDEST PUSH1 0x0 PUSH1 0x20 DUP3 ADD SWAP1 POP SWAP2 SWAP1 POP JUMP JUMPDEST PUSH1 0x0 PUSH2 0x1655 DUP3 PUSH2 0x15EA JUMP JUMPDEST PUSH2 0x165F DUP2 DUP6 PUSH2 0x15F5 JUMP JUMPDEST SWAP4 POP PUSH2 0x166A DUP4 PUSH2 0x1606 JUMP JUMPDEST DUP1 PUSH1 0x0 JUMPDEST DUP4 DUP2 LT ISZERO PUSH2 0x169B JUMPI DUP2 MLOAD PUSH2 0x1682 DUP9 DUP3 PUSH2 0x1625 JUMP JUMPDEST SWAP8 POP PUSH2 0x168D DUP4 PUSH2 0x163D JUMP JUMPDEST SWAP3 POP POP PUSH1 0x1 DUP2 ADD SWAP1 POP PUSH2 0x166E JUMP JUMPDEST POP DUP6 SWAP4 POP POP POP POP SWAP3 SWAP2 POP POP JUMP JUMPDEST PUSH1 0x0 PUSH1 0x20 DUP3 ADD SWAP1 POP DUP2 DUP2 SUB PUSH1 0x0 DUP4 ADD MSTORE PUSH2 0x16C2 DUP2 DUP5 PUSH2 0x164A JUMP JUMPDEST SWAP1 POP SWAP3 SWAP2 POP POP JUMP JUMPDEST PUSH2 0x16D3 DUP2 PUSH2 0x1260 JUMP JUMPDEST DUP3 MSTORE POP POP JUMP JUMPDEST PUSH1 0x0 PUSH1 0x20 DUP3 ADD SWAP1 POP PUSH2 0x16EE PUSH1 0x0 DUP4 ADD DUP5 PUSH2 0x16CA JUMP JUMPDEST SWAP3 SWAP2 POP POP JUMP JUMPDEST PUSH32 0x4E487B7100000000000000000000000000000000000000000000000000000000 PUSH1 0x0 MSTORE PUSH1 0x22 PUSH1 0x4 MSTORE PUSH1 0x24 PUSH1 0x0 REVERT JUMPDEST PUSH1 0x0 PUSH1 0x2 DUP3 DIV SWAP1 POP PUSH1 0x1 DUP3 AND DUP1 PUSH2 0x173B JUMPI PUSH1 0x7F DUP3 AND SWAP2 POP JUMPDEST PUSH1 0x20 DUP3 LT DUP2 SUB PUSH2 0x174E JUMPI PUSH2 0x174D PUSH2 0x16F4 JUMP JUMPDEST JUMPDEST POP SWAP2 SWAP1 POP JUMP JUMPDEST PUSH32 0x6F6E6C79206F776E657220686173207468652070726976696C65676500000000 PUSH1 0x0 DUP3 ADD MSTORE POP JUMP JUMPDEST PUSH1 0x0 PUSH2 0x178A PUSH1 0x1C DUP4 PUSH2 0x12CB JUMP JUMPDEST SWAP2 POP PUSH2 0x1795 DUP3 PUSH2 0x1754 JUMP JUMPDEST PUSH1 0x20 DUP3 ADD SWAP1 POP SWAP2 SWAP1 POP JUMP JUMPDEST PUSH1 0x0 PUSH1 0x20 DUP3 ADD SWAP1 POP DUP2 DUP2 SUB PUSH1 0x0 DUP4 ADD MSTORE PUSH2 0x17B9 DUP2 PUSH2 0x177D JUMP JUMPDEST SWAP1 POP SWAP2 SWAP1 POP JUMP JUMPDEST PUSH32 0x4E487B7100000000000000000000000000000000000000000000000000000000 PUSH1 0x0 MSTORE PUSH1 0x11 PUSH1 0x4 MSTORE PUSH1 0x24 PUSH1 0x0 REVERT JUMPDEST PUSH1 0x0 PUSH2 0x17FA DUP3 PUSH2 0x1530 JUMP JUMPDEST SWAP2 POP PUSH2 0x1805 DUP4 PUSH2 0x1530 JUMP JUMPDEST SWAP3 POP DUP3 DUP3 SUB SWAP1 POP DUP2 DUP2 GT ISZERO PUSH2 0x181D JUMPI PUSH2 0x181C PUSH2 0x17C0 JUMP JUMPDEST JUMPDEST SWAP3 SWAP2 POP POP JUMP JUMPDEST PUSH32 0x4E487B7100000000000000000000000000000000000000000000000000000000 PUSH1 0x0 MSTORE PUSH1 0x32 PUSH1 0x4 MSTORE PUSH1 0x24 PUSH1 0x0 REVERT JUMPDEST PUSH32 0x4E487B7100000000000000000000000000000000000000000000000000000000 PUSH1 0x0 MSTORE PUSH1 0x31 PUSH1 0x4 MSTORE PUSH1 0x24 PUSH1 0x0 REVERT JUMPDEST PUSH1 0x0 PUSH2 0x188C DUP3 PUSH2 0x1530 JUMP JUMPDEST SWAP2 POP PUSH32 0xFFFFFFFFFFFFFFFFFFFFFFFFFFFFFFFFFFFFFFFFFFFFFFFFFFFFFFFFFFFFFFFF DUP3 SUB PUSH2 0x18BE JUMPI PUSH2 0x18BD PUSH2 0x17C0 JUMP JUMPDEST JUMPDEST PUSH1 0x1 DUP3 ADD SWAP1 POP SWAP2 SWAP1 POP JUMP JUMPDEST PUSH1 0x0 DUP2 SLOAD SWAP1 POP PUSH2 0x18D8 DUP2 PUSH2 0x1723 JUMP JUMPDEST SWAP1 POP SWAP2 SWAP1 POP JUMP JUMPDEST PUSH1 0x0 DUP2 SWAP1 POP DUP2 PUSH1 0x0 MSTORE PUSH1 0x20 PUSH1 0x0 KECCAK256 SWAP1 POP SWAP2 SWAP1 POP JUMP JUMPDEST PUSH1 0x0 DUP2 SWAP1 POP DUP2 PUSH1 0x0 MSTORE PUSH1 0x20 PUSH1 0x0 KECCAK256 SWAP1 POP SWAP2 SWAP1 POP JUMP JUMPDEST PUSH1 0x0 PUSH1 0x20 PUSH1 0x1F DUP4 ADD DIV SWAP1 POP SWAP2 SWAP1 POP JUMP JUMPDEST PUSH1 0x0 DUP3 DUP3 SHL SWAP1 POP SWAP3 SWAP2 POP POP JUMP JUMPDEST PUSH1 0x0 PUSH1 0x8 DUP4 MUL PUSH2 0x1956 PUSH32 0xFFFFFFFFFFFFFFFFFFFFFFFFFFFFFFFFFFFFFFFFFFFFFFFFFFFFFFFFFFFFFFFF DUP3 PUSH2 0x1919 JUMP JUMPDEST PUSH2 0x1960 DUP7 DUP4 PUSH2 0x1919 JUMP JUMPDEST SWAP6 POP DUP1 NOT DUP5 AND SWAP4 POP DUP1 DUP7 AND DUP5 OR SWAP3 POP POP POP SWAP4 SWAP3 POP POP POP JUMP JUMPDEST PUSH1 0x0 DUP2 SWAP1 POP SWAP2 SWAP1 POP JUMP JUMPDEST PUSH1 0x0 PUSH2 0x199D PUSH2 0x1998 PUSH2 0x1993 DUP5 PUSH2 0x1530 JUMP JUMPDEST PUSH2 0x1978 JUMP JUMPDEST PUSH2 0x1530 JUMP JUMPDEST SWAP1 POP SWAP2 SWAP1 POP JUMP JUMPDEST PUSH1 0x0 DUP2 SWAP1 POP SWAP2 SWAP1 POP JUMP JUMPDEST PUSH2 0x19B7 DUP4 PUSH2 0x1982 JUMP JUMPDEST PUSH2 0x19CB PUSH2 0x19C3 DUP3 PUSH2 0x19A4 JUMP JUMPDEST DUP5 DUP5 SLOAD PUSH2 0x1926 JUMP JUMPDEST DUP3 SSTORE POP POP POP POP JUMP JUMPDEST PUSH1 0x0 SWAP1 JUMP JUMPDEST PUSH2 0x19E0 PUSH2 0x19D3 JUMP JUMPDEST PUSH2 0x19EB DUP2 DUP5 DUP5 PUSH2 0x19AE JUMP JUMPDEST POP POP POP JUMP JUMPDEST JUMPDEST DUP2 DUP2 LT ISZERO PUSH2 0x1A0F JUMPI PUSH2 0x1A04 PUSH1 0x0 DUP3 PUSH2 0x19D8 JUMP JUMPDEST PUSH1 0x1 DUP2 ADD SWAP1 POP PUSH2 0x19F1 JUMP JUMPDEST POP POP JUMP JUMPDEST PUSH1 0x1F DUP3 GT ISZERO PUSH2 0x1A54 JUMPI PUSH2 0x1A25 DUP2 PUSH2 0x18DF JUMP JUMPDEST PUSH2 0x1A2E DUP5 PUSH2 0x1909 JUMP JUMPDEST DUP2 ADD PUSH1 0x20 DUP6 LT ISZERO PUSH2 0x1A3D JUMPI DUP2 SWAP1 POP JUMPDEST PUSH2 0x1A51 PUSH2 0x1A49 DUP6 PUSH2 0x1909 JUMP JUMPDEST DUP4 ADD DUP3 PUSH2 0x19F0 JUMP JUMPDEST POP POP JUMPDEST POP POP POP JUMP JUMPDEST PUSH1 0x0 DUP3 DUP3 SHR SWAP1 POP SWAP3 SWAP2 POP POP JUMP JUMPDEST PUSH1 0x0 PUSH2 0x1A77 PUSH1 0x0 NOT DUP5 PUSH1 0x8 MUL PUSH2 0x1A59 JUMP JUMPDEST NOT DUP1 DUP4 AND SWAP2 POP POP SWAP3 SWAP2 POP POP JUMP JUMPDEST PUSH1 0x0 PUSH2 0x1A90 DUP4 DUP4 PUSH2 0x1A66 JUMP JUMPDEST SWAP2 POP DUP3 PUSH1 0x2 MUL DUP3 OR SWAP1 POP SWAP3 SWAP2 POP POP JUMP JUMPDEST DUP2 DUP2 SUB PUSH2 0x1AAE JUMPI POP POP PUSH2 0x1B86 JUMP JUMPDEST PUSH2 0x1AB7 DUP3 PUSH2 0x18C9 JUMP JUMPDEST PUSH8 0xFFFFFFFFFFFFFFFF DUP2 GT ISZERO PUSH2 0x1AD0 JUMPI PUSH2 0x1ACF PUSH2 0x13A9 JUMP JUMPDEST JUMPDEST PUSH2 0x1ADA DUP3 SLOAD PUSH2 0x1723 JUMP JUMPDEST PUSH2 0x1AE5 DUP3 DUP3 DUP6 PUSH2 0x1A13 JUMP JUMPDEST PUSH1 0x0 PUSH1 0x1F DUP4 GT PUSH1 0x1 DUP2 EQ PUSH2 0x1B14 JUMPI PUSH1 0x0 DUP5 ISZERO PUSH2 0x1B02 JUMPI DUP3 DUP8 ADD SLOAD SWAP1 POP JUMPDEST PUSH2 0x1B0C DUP6 DUP3 PUSH2 0x1A84 JUMP JUMPDEST DUP7 SSTORE POP PUSH2 0x1B7F JUMP JUMPDEST PUSH1 0x1F NOT DUP5 AND PUSH2 0x1B22 DUP8 PUSH2 0x18F4 JUMP JUMPDEST SWAP7 POP PUSH2 0x1B2D DUP7 PUSH2 0x18DF JUMP JUMPDEST PUSH1 0x0 JUMPDEST DUP3 DUP2 LT ISZERO PUSH2 0x1B55 JUMPI DUP5 DUP10 ADD SLOAD DUP3 SSTORE PUSH1 0x1 DUP3 ADD SWAP2 POP PUSH1 0x1 DUP6 ADD SWAP5 POP PUSH1 0x20 DUP2 ADD SWAP1 POP PUSH2 0x1B30 JUMP JUMPDEST DUP7 DUP4 LT ISZERO PUSH2 0x1B72 JUMPI DUP5 DUP10 ADD SLOAD PUSH2 0x1B6E PUSH1 0x1F DUP10 AND DUP3 PUSH2 0x1A66 JUMP JUMPDEST DUP4 SSTORE POP JUMPDEST PUSH1 0x1 PUSH1 0x2 DUP9 MUL ADD DUP9 SSTORE POP POP POP JUMPDEST POP POP POP POP POP POP JUMPDEST JUMP INVALID LOG2 PUSH5 0x6970667358 0x22 SLT KECCAK256 0xC4 SWAP1 0xF9 ADD LOG3 0xE3 0x21 MLOAD CALLDATACOPY DUP3 GAS 0xF 0x49 0x26 PUSH9 0x25444E110BB641BA87 LT 0xE1 0xBF LOG3 SWAP6 0xBE PUSH31 0xF964736F6C6343000811003300000000000000000000000000000000000000 "
				},
				"gasEstimates": {
					"creation": {
						"codeDepositCost": "1420400",
						"executionCost": "infinite",
						"totalCost": "infinite"
					},
					"external": {
						"acceptInvitation()": "483",
						"addShareHolders(address)": "51246",
						"askingFromHolders()": "2711",
						"distribute()": "infinite",
						"getShareHolders()": "infinite",
						"getShares()": "infinite",
						"notifySecretOwner(bool)": "436",
						"notifySendingToHolders(address,string)": "infinite",
						"owner()": "2600",
						"regenerate()": "infinite",
						"rejectInvitation()": "484",
						"rejectSecretRequest(address)": "565",
						"releaseSecret(address)": "infinite",
						"remove(uint256)": "infinite",
						"removeShareHolders(address)": "infinite",
						"repayGasFee()": "2668",
						"shareHolders(uint256)": "4979",
						"shareHoldersMap(address)": "infinite",
						"shares(uint256)": "infinite",
						"sharesMap(address)": "infinite"
					}
				},
				"methodIdentifiers": {
					"acceptInvitation()": "728f1112",
					"addShareHolders(address)": "790a0940",
					"askingFromHolders()": "9a5eec33",
					"distribute()": "e4fc6b6d",
					"getShareHolders()": "8477d9f3",
					"getShares()": "d73fe0aa",
					"notifySecretOwner(bool)": "01570fe8",
					"notifySendingToHolders(address,string)": "3f8b4866",
					"owner()": "8da5cb5b",
					"regenerate()": "17377f68",
					"rejectInvitation()": "32c6afd0",
					"rejectSecretRequest(address)": "ebf47977",
					"releaseSecret(address)": "c0befa53",
					"remove(uint256)": "4cc82215",
					"removeShareHolders(address)": "50e78191",
					"repayGasFee()": "1bf9cb17",
					"shareHolders(uint256)": "7427a40c",
					"shareHoldersMap(address)": "d534cc0e",
					"shares(uint256)": "57a858fc",
					"sharesMap(address)": "1e1cf160"
				}
			},
			"storageLayout": {
				"storage": [
					{
						"astId": 3,
						"contract": "contracts/ShareSecret.sol:Node",
						"label": "owner",
						"offset": 0,
						"slot": "0",
						"type": "t_address"
					},
					{
						"astId": 6,
						"contract": "contracts/ShareSecret.sol:Node",
						"label": "shareHolders",
						"offset": 0,
						"slot": "1",
						"type": "t_array(t_address_payable)dyn_storage"
					},
					{
						"astId": 9,
						"contract": "contracts/ShareSecret.sol:Node",
						"label": "shares",
						"offset": 0,
						"slot": "2",
						"type": "t_array(t_string_storage)dyn_storage"
					},
					{
						"astId": 13,
						"contract": "contracts/ShareSecret.sol:Node",
						"label": "shareHoldersMap",
						"offset": 0,
						"slot": "3",
						"type": "t_mapping(t_address,t_string_storage)"
					},
					{
						"astId": 17,
						"contract": "contracts/ShareSecret.sol:Node",
						"label": "sharesMap",
						"offset": 0,
						"slot": "4",
						"type": "t_mapping(t_address,t_string_storage)"
					}
				],
				"types": {
					"t_address": {
						"encoding": "inplace",
						"label": "address",
						"numberOfBytes": "20"
					},
					"t_address_payable": {
						"encoding": "inplace",
						"label": "address payable",
						"numberOfBytes": "20"
					},
					"t_array(t_address_payable)dyn_storage": {
						"base": "t_address_payable",
						"encoding": "dynamic_array",
						"label": "address payable[]",
						"numberOfBytes": "32"
					},
					"t_array(t_string_storage)dyn_storage": {
						"base": "t_string_storage",
						"encoding": "dynamic_array",
						"label": "string[]",
						"numberOfBytes": "32"
					},
					"t_mapping(t_address,t_string_storage)": {
						"encoding": "mapping",
						"key": "t_address",
						"label": "mapping(address => string)",
						"numberOfBytes": "32",
						"value": "t_string_storage"
					},
					"t_string_storage": {
						"encoding": "bytes",
						"label": "string",
						"numberOfBytes": "32"
					}
				}
			},
			"userdoc": {
				"kind": "user",
				"methods": {},
				"version": 1
			}
		}
	}
}