{
	"contracts/PublicContract.sol": {
		"PublicContract": {
			"abi": [
				{
					"inputs": [
						{
							"internalType": "address",
							"name": "owner",
							"type": "address"
						}
					],
					"name": "checkRequestsByShareholder",
					"outputs": [
						{
							"internalType": "address[]",
							"name": "",
							"type": "address[]"
						}
					],
					"stateMutability": "view",
					"type": "function"
				},
				{
					"inputs": [
						{
							"internalType": "string",
							"name": "name",
							"type": "string"
						}
					],
					"name": "getAddress",
					"outputs": [
						{
							"internalType": "contract Node",
							"name": "",
							"type": "address"
						}
					],
					"stateMutability": "view",
					"type": "function"
				},
				{
					"inputs": [
						{
							"internalType": "string",
							"name": "",
							"type": "string"
						}
					],
					"name": "nodesMap",
					"outputs": [
						{
							"internalType": "contract Node",
							"name": "",
							"type": "address"
						}
					],
					"stateMutability": "view",
					"type": "function"
				},
				{
					"inputs": [
						{
							"internalType": "string",
							"name": "name",
							"type": "string"
						}
					],
					"name": "notifyShareHolders",
					"outputs": [],
					"stateMutability": "nonpayable",
					"type": "function"
				},
				{
					"inputs": [
						{
							"internalType": "string",
							"name": "name",
							"type": "string"
						}
					],
					"name": "regenerateSecret",
					"outputs": [
						{
							"internalType": "string[]",
							"name": "",
							"type": "string[]"
						}
					],
					"stateMutability": "view",
					"type": "function"
				},
				{
					"inputs": [
						{
							"internalType": "string",
							"name": "name",
							"type": "string"
						},
						{
							"internalType": "contract Node",
							"name": "node",
							"type": "address"
						}
					],
					"name": "register",
					"outputs": [],
					"stateMutability": "nonpayable",
					"type": "function"
				}
			],
			"devdoc": {
				"kind": "dev",
				"methods": {},
				"version": 1
			},
			"evm": {
				"assembly": "    /* \"contracts/PublicContract.sol\":106:1494  contract PublicContract {... */\n  mstore(0x40, 0x80)\n  callvalue\n  dup1\n  iszero\n  tag_1\n  jumpi\n  0x00\n  dup1\n  revert\ntag_1:\n  pop\n  dataSize(sub_0)\n  dup1\n  dataOffset(sub_0)\n  0x00\n  codecopy\n  0x00\n  return\nstop\n\nsub_0: assembly {\n        /* \"contracts/PublicContract.sol\":106:1494  contract PublicContract {... */\n      mstore(0x40, 0x80)\n      callvalue\n      dup1\n      iszero\n      tag_1\n      jumpi\n      0x00\n      dup1\n      revert\n    tag_1:\n      pop\n      jumpi(tag_2, lt(calldatasize, 0x04))\n      shr(0xe0, calldataload(0x00))\n      dup1\n      0x1e59c529\n      eq\n      tag_3\n      jumpi\n      dup1\n      0x3b31b59b\n      eq\n      tag_4\n      jumpi\n      dup1\n      0x6d71b697\n      eq\n      tag_5\n      jumpi\n      dup1\n      0x99f8b09f\n      eq\n      tag_6\n      jumpi\n      dup1\n      0xbf40fac1\n      eq\n      tag_7\n      jumpi\n      dup1\n      0xf3bd37a0\n      eq\n      tag_8\n      jumpi\n    tag_2:\n      0x00\n      dup1\n      revert\n        /* \"contracts/PublicContract.sol\":530:639  function register(string memory name,Node node)public {... */\n    tag_3:\n      tag_9\n      0x04\n      dup1\n      calldatasize\n      sub\n      dup2\n      add\n      swap1\n      tag_10\n      swap2\n      swap1\n      tag_11\n      jump\t// in\n    tag_10:\n      tag_12\n      jump\t// in\n    tag_9:\n      stop\n        /* \"contracts/PublicContract.sol\":645:799  function notifyShareHolders(string memory name)public {... */\n    tag_4:\n      tag_13\n      0x04\n      dup1\n      calldatasize\n      sub\n      dup2\n      add\n      swap1\n      tag_14\n      swap2\n      swap1\n      tag_15\n      jump\t// in\n    tag_14:\n      tag_16\n      jump\t// in\n    tag_13:\n      stop\n        /* \"contracts/PublicContract.sol\":308:347  mapping(string => Node) public nodesMap */\n    tag_5:\n      tag_17\n      0x04\n      dup1\n      calldatasize\n      sub\n      dup2\n      add\n      swap1\n      tag_18\n      swap2\n      swap1\n      tag_15\n      jump\t// in\n    tag_18:\n      tag_19\n      jump\t// in\n    tag_17:\n      mload(0x40)\n      tag_20\n      swap2\n      swap1\n      tag_21\n      jump\t// in\n    tag_20:\n      mload(0x40)\n      dup1\n      swap2\n      sub\n      swap1\n      return\n        /* \"contracts/PublicContract.sol\":1024:1481  function checkRequestsByShareholder(address owner)public view returns(address[] memory ) {... */\n    tag_6:\n      tag_22\n      0x04\n      dup1\n      calldatasize\n      sub\n      dup2\n      add\n      swap1\n      tag_23\n      swap2\n      swap1\n      tag_24\n      jump\t// in\n    tag_23:\n      tag_25\n      jump\t// in\n    tag_22:\n      mload(0x40)\n      tag_26\n      swap2\n      swap1\n      tag_27\n      jump\t// in\n    tag_26:\n      mload(0x40)\n      dup1\n      swap2\n      sub\n      swap1\n      return\n        /* \"contracts/PublicContract.sol\":419:524  function getAddress(string memory name) public view returns(Node){... */\n    tag_7:\n      tag_28\n      0x04\n      dup1\n      calldatasize\n      sub\n      dup2\n      add\n      swap1\n      tag_29\n      swap2\n      swap1\n      tag_15\n      jump\t// in\n    tag_29:\n      tag_30\n      jump\t// in\n    tag_28:\n      mload(0x40)\n      tag_31\n      swap2\n      swap1\n      tag_21\n      jump\t// in\n    tag_31:\n      mload(0x40)\n      dup1\n      swap2\n      sub\n      swap1\n      return\n        /* \"contracts/PublicContract.sol\":805:1018  function regenerateSecret(string memory name)public view returns (string[] memory){... */\n    tag_8:\n      tag_32\n      0x04\n      dup1\n      calldatasize\n      sub\n      dup2\n      add\n      swap1\n      tag_33\n      swap2\n      swap1\n      tag_15\n      jump\t// in\n    tag_33:\n      tag_34\n      jump\t// in\n    tag_32:\n      mload(0x40)\n      tag_35\n      swap2\n      swap1\n      tag_36\n      jump\t// in\n    tag_35:\n      mload(0x40)\n      dup1\n      swap2\n      sub\n      swap1\n      return\n        /* \"contracts/PublicContract.sol\":530:639  function register(string memory name,Node node)public {... */\n    tag_12:\n        /* \"contracts/PublicContract.sol\":610:614  node */\n      dup1\n        /* \"contracts/PublicContract.sol\":595:603  nodesMap */\n      0x00\n        /* \"contracts/PublicContract.sol\":604:608  name */\n      dup4\n        /* \"contracts/PublicContract.sol\":595:609  nodesMap[name] */\n      mload(0x40)\n      tag_38\n      swap2\n      swap1\n      tag_39\n      jump\t// in\n    tag_38:\n      swap1\n      dup2\n      mstore\n      0x20\n      add\n      mload(0x40)\n      dup1\n      swap2\n      sub\n      swap1\n      keccak256\n      0x00\n        /* \"contracts/PublicContract.sol\":595:614  nodesMap[name]=node */\n      0x0100\n      exp\n      dup2\n      sload\n      dup2\n      0xffffffffffffffffffffffffffffffffffffffff\n      mul\n      not\n      and\n      swap1\n      dup4\n      0xffffffffffffffffffffffffffffffffffffffff\n      and\n      mul\n      or\n      swap1\n      sstore\n      pop\n        /* \"contracts/PublicContract.sol\":530:639  function register(string memory name,Node node)public {... */\n      pop\n      pop\n      jump\t// out\n        /* \"contracts/PublicContract.sol\":645:799  function notifyShareHolders(string memory name)public {... */\n    tag_16:\n        /* \"contracts/PublicContract.sol\":710:721  Node myNode */\n      0x00\n        /* \"contracts/PublicContract.sol\":723:731  nodesMap */\n      dup1\n        /* \"contracts/PublicContract.sol\":732:736  name */\n      dup3\n        /* \"contracts/PublicContract.sol\":723:737  nodesMap[name] */\n      mload(0x40)\n      tag_41\n      swap2\n      swap1\n      tag_39\n      jump\t// in\n    tag_41:\n      swap1\n      dup2\n      mstore\n      0x20\n      add\n      mload(0x40)\n      dup1\n      swap2\n      sub\n      swap1\n      keccak256\n      0x00\n      swap1\n      sload\n      swap1\n      0x0100\n      exp\n      swap1\n      div\n      0xffffffffffffffffffffffffffffffffffffffff\n      and\n        /* \"contracts/PublicContract.sol\":710:737  Node myNode= nodesMap[name] */\n      swap1\n      pop\n        /* \"contracts/PublicContract.sol\":748:754  myNode */\n      dup1\n        /* \"contracts/PublicContract.sol\":748:772  myNode.askingFromHolders */\n      0xffffffffffffffffffffffffffffffffffffffff\n      and\n      0x9a5eec33\n        /* \"contracts/PublicContract.sol\":748:774  myNode.askingFromHolders() */\n      mload(0x40)\n      dup2\n      0xffffffff\n      and\n      0xe0\n      shl\n      dup2\n      mstore\n      0x04\n      add\n      0x00\n      mload(0x40)\n      dup1\n      dup4\n      sub\n      dup2\n      0x00\n      dup8\n      dup1\n      extcodesize\n      iszero\n      dup1\n      iszero\n      tag_42\n      jumpi\n      0x00\n      dup1\n      revert\n    tag_42:\n      pop\n      gas\n      call\n      iszero\n      dup1\n      iszero\n      tag_44\n      jumpi\n      returndatasize\n      0x00\n      dup1\n      returndatacopy\n      revert(0x00, returndatasize)\n    tag_44:\n      pop\n      pop\n      pop\n      pop\n        /* \"contracts/PublicContract.sol\":785:792  return; */\n      pop\n        /* \"contracts/PublicContract.sol\":645:799  function notifyShareHolders(string memory name)public {... */\n      pop\n      jump\t// out\n        /* \"contracts/PublicContract.sol\":308:347  mapping(string => Node) public nodesMap */\n    tag_19:\n      0x00\n      dup2\n      dup1\n      mload\n      0x20\n      dup2\n      add\n      dup3\n      add\n      dup1\n      mload\n      dup5\n      dup3\n      mstore\n      0x20\n      dup4\n      add\n      0x20\n      dup6\n      add\n      keccak256\n      dup2\n      dup4\n      mstore\n      dup1\n      swap6\n      pop\n      pop\n      pop\n      pop\n      pop\n      pop\n      0x00\n      swap2\n      pop\n      sload\n      swap1\n      0x0100\n      exp\n      swap1\n      div\n      0xffffffffffffffffffffffffffffffffffffffff\n      and\n      dup2\n      jump\t// out\n        /* \"contracts/PublicContract.sol\":1024:1481  function checkRequestsByShareholder(address owner)public view returns(address[] memory ) {... */\n    tag_25:\n        /* \"contracts/PublicContract.sol\":1094:1110  address[] memory */\n      0x60\n        /* \"contracts/PublicContract.sol\":1124:1161  address[] memory secretOwnerAddresses */\n      dup1\n        /* \"contracts/PublicContract.sol\":1172:1181  uint256 i */\n      0x00\n        /* \"contracts/PublicContract.sol\":1196:1439  for (i; i<holderRequests.length; i++){... */\n    tag_46:\n        /* \"contracts/PublicContract.sol\":1206:1220  holderRequests */\n      0x01\n        /* \"contracts/PublicContract.sol\":1206:1227  holderRequests.length */\n      dup1\n      sload\n      swap1\n      pop\n        /* \"contracts/PublicContract.sol\":1204:1205  i */\n      dup2\n        /* \"contracts/PublicContract.sol\":1204:1227  i<holderRequests.length */\n      lt\n        /* \"contracts/PublicContract.sol\":1196:1439  for (i; i<holderRequests.length; i++){... */\n      iszero\n      tag_47\n      jumpi\n        /* \"contracts/PublicContract.sol\":1248:1279  AddHolderRequest memory request */\n      0x00\n        /* \"contracts/PublicContract.sol\":1281:1295  holderRequests */\n      0x01\n        /* \"contracts/PublicContract.sol\":1296:1297  i */\n      dup3\n        /* \"contracts/PublicContract.sol\":1281:1298  holderRequests[i] */\n      dup2\n      sload\n      dup2\n      lt\n      tag_49\n      jumpi\n      tag_50\n      tag_51\n      jump\t// in\n    tag_50:\n    tag_49:\n      swap1\n      0x00\n      mstore\n      keccak256(0x00, 0x20)\n      swap1\n      0x02\n      mul\n      add\n        /* \"contracts/PublicContract.sol\":1248:1298  AddHolderRequest memory request= holderRequests[i] */\n      mload(0x40)\n      dup1\n      0x40\n      add\n      0x40\n      mstore\n      swap1\n      dup2\n      0x00\n      dup3\n      add\n      0x00\n      swap1\n      sload\n      swap1\n      0x0100\n      exp\n      swap1\n      div\n      0xffffffffffffffffffffffffffffffffffffffff\n      and\n      0xffffffffffffffffffffffffffffffffffffffff\n      and\n      0xffffffffffffffffffffffffffffffffffffffff\n      and\n      dup2\n      mstore\n      0x20\n      add\n      0x01\n      dup3\n      add\n      0x00\n      swap1\n      sload\n      swap1\n      0x0100\n      exp\n      swap1\n      div\n      0xffffffffffffffffffffffffffffffffffffffff\n      and\n      0xffffffffffffffffffffffffffffffffffffffff\n      and\n      0xffffffffffffffffffffffffffffffffffffffff\n      and\n      dup2\n      mstore\n      pop\n      pop\n      swap1\n      pop\n        /* \"contracts/PublicContract.sol\":1338:1343  owner */\n      dup5\n        /* \"contracts/PublicContract.sol\":1317:1343  request.shareHolder==owner */\n      0xffffffffffffffffffffffffffffffffffffffff\n      and\n        /* \"contracts/PublicContract.sol\":1317:1324  request */\n      dup2\n        /* \"contracts/PublicContract.sol\":1317:1336  request.shareHolder */\n      0x20\n      add\n      mload\n        /* \"contracts/PublicContract.sol\":1317:1343  request.shareHolder==owner */\n      pop\n      pop\n        /* \"contracts/PublicContract.sol\":1233:1439  {... */\n      pop\n        /* \"contracts/PublicContract.sol\":1229:1232  i++ */\n      dup1\n      dup1\n      tag_54\n      swap1\n      tag_55\n      jump\t// in\n    tag_54:\n      swap2\n      pop\n      pop\n        /* \"contracts/PublicContract.sol\":1196:1439  for (i; i<holderRequests.length; i++){... */\n      jump(tag_46)\n    tag_47:\n        /* \"contracts/PublicContract.sol\":1453:1473  secretOwnerAddresses */\n      dup2\n        /* \"contracts/PublicContract.sol\":1446:1473  return secretOwnerAddresses */\n      swap3\n      pop\n      pop\n      pop\n        /* \"contracts/PublicContract.sol\":1024:1481  function checkRequestsByShareholder(address owner)public view returns(address[] memory ) {... */\n      swap2\n      swap1\n      pop\n      jump\t// out\n        /* \"contracts/PublicContract.sol\":419:524  function getAddress(string memory name) public view returns(Node){... */\n    tag_30:\n        /* \"contracts/PublicContract.sol\":479:483  Node */\n      0x00\n        /* \"contracts/PublicContract.sol\":502:510  nodesMap */\n      dup1\n        /* \"contracts/PublicContract.sol\":511:515  name */\n      dup3\n        /* \"contracts/PublicContract.sol\":502:516  nodesMap[name] */\n      mload(0x40)\n      tag_57\n      swap2\n      swap1\n      tag_39\n      jump\t// in\n    tag_57:\n      swap1\n      dup2\n      mstore\n      0x20\n      add\n      mload(0x40)\n      dup1\n      swap2\n      sub\n      swap1\n      keccak256\n      0x00\n      swap1\n      sload\n      swap1\n      0x0100\n      exp\n      swap1\n      div\n      0xffffffffffffffffffffffffffffffffffffffff\n      and\n        /* \"contracts/PublicContract.sol\":495:516  return nodesMap[name] */\n      swap1\n      pop\n        /* \"contracts/PublicContract.sol\":419:524  function getAddress(string memory name) public view returns(Node){... */\n      swap2\n      swap1\n      pop\n      jump\t// out\n        /* \"contracts/PublicContract.sol\":805:1018  function regenerateSecret(string memory name)public view returns (string[] memory){... */\n    tag_34:\n        /* \"contracts/PublicContract.sol\":871:886  string[] memory */\n      0x60\n        /* \"contracts/PublicContract.sol\":898:909  Node myNode */\n      0x00\n        /* \"contracts/PublicContract.sol\":911:919  nodesMap */\n      dup1\n        /* \"contracts/PublicContract.sol\":920:924  name */\n      dup4\n        /* \"contracts/PublicContract.sol\":911:925  nodesMap[name] */\n      mload(0x40)\n      tag_59\n      swap2\n      swap1\n      tag_39\n      jump\t// in\n    tag_59:\n      swap1\n      dup2\n      mstore\n      0x20\n      add\n      mload(0x40)\n      dup1\n      swap2\n      sub\n      swap1\n      keccak256\n      0x00\n      swap1\n      sload\n      swap1\n      0x0100\n      exp\n      swap1\n      div\n      0xffffffffffffffffffffffffffffffffffffffff\n      and\n        /* \"contracts/PublicContract.sol\":898:925  Node myNode= nodesMap[name] */\n      swap1\n      pop\n        /* \"contracts/PublicContract.sol\":936:962  string[] memory shares_new */\n      0x00\n        /* \"contracts/PublicContract.sol\":963:969  myNode */\n      dup2\n        /* \"contracts/PublicContract.sol\":963:980  myNode.regenerate */\n      0xffffffffffffffffffffffffffffffffffffffff\n      and\n      0x17377f68\n        /* \"contracts/PublicContract.sol\":963:982  myNode.regenerate() */\n      mload(0x40)\n      dup2\n      0xffffffff\n      and\n      0xe0\n      shl\n      dup2\n      mstore\n      0x04\n      add\n      0x00\n      mload(0x40)\n      dup1\n      dup4\n      sub\n      dup2\n      dup7\n      gas\n      staticcall\n      iszero\n      dup1\n      iszero\n      tag_61\n      jumpi\n      returndatasize\n      0x00\n      dup1\n      returndatacopy\n      revert(0x00, returndatasize)\n    tag_61:\n      pop\n      pop\n      pop\n      pop\n      mload(0x40)\n      returndatasize\n      0x00\n      dup3\n      returndatacopy\n      returndatasize\n      not(0x1f)\n      0x1f\n      dup3\n      add\n      and\n      dup3\n      add\n      dup1\n      0x40\n      mstore\n      pop\n      dup2\n      add\n      swap1\n      tag_62\n      swap2\n      swap1\n      tag_63\n      jump\t// in\n    tag_62:\n        /* \"contracts/PublicContract.sol\":936:982  string[] memory shares_new=myNode.regenerate() */\n      swap1\n      pop\n        /* \"contracts/PublicContract.sol\":1000:1010  shares_new */\n      dup1\n        /* \"contracts/PublicContract.sol\":993:1010  return shares_new */\n      swap3\n      pop\n      pop\n      pop\n        /* \"contracts/PublicContract.sol\":805:1018  function regenerateSecret(string memory name)public view returns (string[] memory){... */\n      swap2\n      swap1\n      pop\n      jump\t// out\n        /* \"#utility.yul\":7:82   */\n    tag_64:\n        /* \"#utility.yul\":40:46   */\n      0x00\n        /* \"#utility.yul\":73:75   */\n      0x40\n        /* \"#utility.yul\":67:76   */\n      mload\n        /* \"#utility.yul\":57:76   */\n      swap1\n      pop\n        /* \"#utility.yul\":7:82   */\n      swap1\n      jump\t// out\n        /* \"#utility.yul\":88:205   */\n    tag_65:\n        /* \"#utility.yul\":197:198   */\n      0x00\n        /* \"#utility.yul\":194:195   */\n      dup1\n        /* \"#utility.yul\":187:199   */\n      revert\n        /* \"#utility.yul\":211:328   */\n    tag_66:\n        /* \"#utility.yul\":320:321   */\n      0x00\n        /* \"#utility.yul\":317:318   */\n      dup1\n        /* \"#utility.yul\":310:322   */\n      revert\n        /* \"#utility.yul\":334:451   */\n    tag_67:\n        /* \"#utility.yul\":443:444   */\n      0x00\n        /* \"#utility.yul\":440:441   */\n      dup1\n        /* \"#utility.yul\":433:445   */\n      revert\n        /* \"#utility.yul\":457:574   */\n    tag_68:\n        /* \"#utility.yul\":566:567   */\n      0x00\n        /* \"#utility.yul\":563:564   */\n      dup1\n        /* \"#utility.yul\":556:568   */\n      revert\n        /* \"#utility.yul\":580:682   */\n    tag_69:\n        /* \"#utility.yul\":621:627   */\n      0x00\n        /* \"#utility.yul\":672:674   */\n      0x1f\n        /* \"#utility.yul\":668:675   */\n      not\n        /* \"#utility.yul\":663:665   */\n      0x1f\n        /* \"#utility.yul\":656:661   */\n      dup4\n        /* \"#utility.yul\":652:666   */\n      add\n        /* \"#utility.yul\":648:676   */\n      and\n        /* \"#utility.yul\":638:676   */\n      swap1\n      pop\n        /* \"#utility.yul\":580:682   */\n      swap2\n      swap1\n      pop\n      jump\t// out\n        /* \"#utility.yul\":688:868   */\n    tag_70:\n        /* \"#utility.yul\":736:813   */\n      0x4e487b7100000000000000000000000000000000000000000000000000000000\n        /* \"#utility.yul\":733:734   */\n      0x00\n        /* \"#utility.yul\":726:814   */\n      mstore\n        /* \"#utility.yul\":833:837   */\n      0x41\n        /* \"#utility.yul\":830:831   */\n      0x04\n        /* \"#utility.yul\":823:838   */\n      mstore\n        /* \"#utility.yul\":857:861   */\n      0x24\n        /* \"#utility.yul\":854:855   */\n      0x00\n        /* \"#utility.yul\":847:862   */\n      revert\n        /* \"#utility.yul\":874:1155   */\n    tag_71:\n        /* \"#utility.yul\":957:984   */\n      tag_125\n        /* \"#utility.yul\":979:983   */\n      dup3\n        /* \"#utility.yul\":957:984   */\n      tag_69\n      jump\t// in\n    tag_125:\n        /* \"#utility.yul\":949:955   */\n      dup2\n        /* \"#utility.yul\":945:985   */\n      add\n        /* \"#utility.yul\":1087:1093   */\n      dup2\n        /* \"#utility.yul\":1075:1085   */\n      dup2\n        /* \"#utility.yul\":1072:1094   */\n      lt\n        /* \"#utility.yul\":1051:1069   */\n      0xffffffffffffffff\n        /* \"#utility.yul\":1039:1049   */\n      dup3\n        /* \"#utility.yul\":1036:1070   */\n      gt\n        /* \"#utility.yul\":1033:1095   */\n      or\n        /* \"#utility.yul\":1030:1118   */\n      iszero\n      tag_126\n      jumpi\n        /* \"#utility.yul\":1098:1116   */\n      tag_127\n      tag_70\n      jump\t// in\n    tag_127:\n        /* \"#utility.yul\":1030:1118   */\n    tag_126:\n        /* \"#utility.yul\":1138:1148   */\n      dup1\n        /* \"#utility.yul\":1134:1136   */\n      0x40\n        /* \"#utility.yul\":1127:1149   */\n      mstore\n        /* \"#utility.yul\":917:1155   */\n      pop\n        /* \"#utility.yul\":874:1155   */\n      pop\n      pop\n      jump\t// out\n        /* \"#utility.yul\":1161:1290   */\n    tag_72:\n        /* \"#utility.yul\":1195:1201   */\n      0x00\n        /* \"#utility.yul\":1222:1242   */\n      tag_129\n      tag_64\n      jump\t// in\n    tag_129:\n        /* \"#utility.yul\":1212:1242   */\n      swap1\n      pop\n        /* \"#utility.yul\":1251:1284   */\n      tag_130\n        /* \"#utility.yul\":1279:1283   */\n      dup3\n        /* \"#utility.yul\":1271:1277   */\n      dup3\n        /* \"#utility.yul\":1251:1284   */\n      tag_71\n      jump\t// in\n    tag_130:\n        /* \"#utility.yul\":1161:1290   */\n      swap2\n      swap1\n      pop\n      jump\t// out\n        /* \"#utility.yul\":1296:1604   */\n    tag_73:\n        /* \"#utility.yul\":1358:1362   */\n      0x00\n        /* \"#utility.yul\":1448:1466   */\n      0xffffffffffffffff\n        /* \"#utility.yul\":1440:1446   */\n      dup3\n        /* \"#utility.yul\":1437:1467   */\n      gt\n        /* \"#utility.yul\":1434:1490   */\n      iszero\n      tag_132\n      jumpi\n        /* \"#utility.yul\":1470:1488   */\n      tag_133\n      tag_70\n      jump\t// in\n    tag_133:\n        /* \"#utility.yul\":1434:1490   */\n    tag_132:\n        /* \"#utility.yul\":1508:1537   */\n      tag_134\n        /* \"#utility.yul\":1530:1536   */\n      dup3\n        /* \"#utility.yul\":1508:1537   */\n      tag_69\n      jump\t// in\n    tag_134:\n        /* \"#utility.yul\":1500:1537   */\n      swap1\n      pop\n        /* \"#utility.yul\":1592:1596   */\n      0x20\n        /* \"#utility.yul\":1586:1590   */\n      dup2\n        /* \"#utility.yul\":1582:1597   */\n      add\n        /* \"#utility.yul\":1574:1597   */\n      swap1\n      pop\n        /* \"#utility.yul\":1296:1604   */\n      swap2\n      swap1\n      pop\n      jump\t// out\n        /* \"#utility.yul\":1610:1756   */\n    tag_74:\n        /* \"#utility.yul\":1707:1713   */\n      dup3\n        /* \"#utility.yul\":1702:1705   */\n      dup2\n        /* \"#utility.yul\":1697:1700   */\n      dup4\n        /* \"#utility.yul\":1684:1714   */\n      calldatacopy\n        /* \"#utility.yul\":1748:1749   */\n      0x00\n        /* \"#utility.yul\":1739:1745   */\n      dup4\n        /* \"#utility.yul\":1734:1737   */\n      dup4\n        /* \"#utility.yul\":1730:1746   */\n      add\n        /* \"#utility.yul\":1723:1750   */\n      mstore\n        /* \"#utility.yul\":1610:1756   */\n      pop\n      pop\n      pop\n      jump\t// out\n        /* \"#utility.yul\":1762:2187   */\n    tag_75:\n        /* \"#utility.yul\":1840:1845   */\n      0x00\n        /* \"#utility.yul\":1865:1931   */\n      tag_137\n        /* \"#utility.yul\":1881:1930   */\n      tag_138\n        /* \"#utility.yul\":1923:1929   */\n      dup5\n        /* \"#utility.yul\":1881:1930   */\n      tag_73\n      jump\t// in\n    tag_138:\n        /* \"#utility.yul\":1865:1931   */\n      tag_72\n      jump\t// in\n    tag_137:\n        /* \"#utility.yul\":1856:1931   */\n      swap1\n      pop\n        /* \"#utility.yul\":1954:1960   */\n      dup3\n        /* \"#utility.yul\":1947:1952   */\n      dup2\n        /* \"#utility.yul\":1940:1961   */\n      mstore\n        /* \"#utility.yul\":1992:1996   */\n      0x20\n        /* \"#utility.yul\":1985:1990   */\n      dup2\n        /* \"#utility.yul\":1981:1997   */\n      add\n        /* \"#utility.yul\":2030:2033   */\n      dup5\n        /* \"#utility.yul\":2021:2027   */\n      dup5\n        /* \"#utility.yul\":2016:2019   */\n      dup5\n        /* \"#utility.yul\":2012:2028   */\n      add\n        /* \"#utility.yul\":2009:2034   */\n      gt\n        /* \"#utility.yul\":2006:2118   */\n      iszero\n      tag_139\n      jumpi\n        /* \"#utility.yul\":2037:2116   */\n      tag_140\n      tag_68\n      jump\t// in\n    tag_140:\n        /* \"#utility.yul\":2006:2118   */\n    tag_139:\n        /* \"#utility.yul\":2127:2181   */\n      tag_141\n        /* \"#utility.yul\":2174:2180   */\n      dup5\n        /* \"#utility.yul\":2169:2172   */\n      dup3\n        /* \"#utility.yul\":2164:2167   */\n      dup6\n        /* \"#utility.yul\":2127:2181   */\n      tag_74\n      jump\t// in\n    tag_141:\n        /* \"#utility.yul\":1846:2187   */\n      pop\n        /* \"#utility.yul\":1762:2187   */\n      swap4\n      swap3\n      pop\n      pop\n      pop\n      jump\t// out\n        /* \"#utility.yul\":2207:2547   */\n    tag_76:\n        /* \"#utility.yul\":2263:2268   */\n      0x00\n        /* \"#utility.yul\":2312:2315   */\n      dup3\n        /* \"#utility.yul\":2305:2309   */\n      0x1f\n        /* \"#utility.yul\":2297:2303   */\n      dup4\n        /* \"#utility.yul\":2293:2310   */\n      add\n        /* \"#utility.yul\":2289:2316   */\n      slt\n        /* \"#utility.yul\":2279:2401   */\n      tag_143\n      jumpi\n        /* \"#utility.yul\":2320:2399   */\n      tag_144\n      tag_67\n      jump\t// in\n    tag_144:\n        /* \"#utility.yul\":2279:2401   */\n    tag_143:\n        /* \"#utility.yul\":2437:2443   */\n      dup2\n        /* \"#utility.yul\":2424:2444   */\n      calldataload\n        /* \"#utility.yul\":2462:2541   */\n      tag_145\n        /* \"#utility.yul\":2537:2540   */\n      dup5\n        /* \"#utility.yul\":2529:2535   */\n      dup3\n        /* \"#utility.yul\":2522:2526   */\n      0x20\n        /* \"#utility.yul\":2514:2520   */\n      dup7\n        /* \"#utility.yul\":2510:2527   */\n      add\n        /* \"#utility.yul\":2462:2541   */\n      tag_75\n      jump\t// in\n    tag_145:\n        /* \"#utility.yul\":2453:2541   */\n      swap2\n      pop\n        /* \"#utility.yul\":2269:2547   */\n      pop\n        /* \"#utility.yul\":2207:2547   */\n      swap3\n      swap2\n      pop\n      pop\n      jump\t// out\n        /* \"#utility.yul\":2553:2679   */\n    tag_77:\n        /* \"#utility.yul\":2590:2597   */\n      0x00\n        /* \"#utility.yul\":2630:2672   */\n      0xffffffffffffffffffffffffffffffffffffffff\n        /* \"#utility.yul\":2623:2628   */\n      dup3\n        /* \"#utility.yul\":2619:2673   */\n      and\n        /* \"#utility.yul\":2608:2673   */\n      swap1\n      pop\n        /* \"#utility.yul\":2553:2679   */\n      swap2\n      swap1\n      pop\n      jump\t// out\n        /* \"#utility.yul\":2685:2781   */\n    tag_78:\n        /* \"#utility.yul\":2722:2729   */\n      0x00\n        /* \"#utility.yul\":2751:2775   */\n      tag_148\n        /* \"#utility.yul\":2769:2774   */\n      dup3\n        /* \"#utility.yul\":2751:2775   */\n      tag_77\n      jump\t// in\n    tag_148:\n        /* \"#utility.yul\":2740:2775   */\n      swap1\n      pop\n        /* \"#utility.yul\":2685:2781   */\n      swap2\n      swap1\n      pop\n      jump\t// out\n        /* \"#utility.yul\":2787:2895   */\n    tag_79:\n        /* \"#utility.yul\":2836:2843   */\n      0x00\n        /* \"#utility.yul\":2865:2889   */\n      tag_150\n        /* \"#utility.yul\":2883:2888   */\n      dup3\n        /* \"#utility.yul\":2865:2889   */\n      tag_78\n      jump\t// in\n    tag_150:\n        /* \"#utility.yul\":2854:2889   */\n      swap1\n      pop\n        /* \"#utility.yul\":2787:2895   */\n      swap2\n      swap1\n      pop\n      jump\t// out\n        /* \"#utility.yul\":2901:3047   */\n    tag_80:\n        /* \"#utility.yul\":2986:3022   */\n      tag_152\n        /* \"#utility.yul\":3016:3021   */\n      dup2\n        /* \"#utility.yul\":2986:3022   */\n      tag_79\n      jump\t// in\n    tag_152:\n        /* \"#utility.yul\":2979:2984   */\n      dup2\n        /* \"#utility.yul\":2976:3023   */\n      eq\n        /* \"#utility.yul\":2966:3041   */\n      tag_153\n      jumpi\n        /* \"#utility.yul\":3037:3038   */\n      0x00\n        /* \"#utility.yul\":3034:3035   */\n      dup1\n        /* \"#utility.yul\":3027:3039   */\n      revert\n        /* \"#utility.yul\":2966:3041   */\n    tag_153:\n        /* \"#utility.yul\":2901:3047   */\n      pop\n      jump\t// out\n        /* \"#utility.yul\":3053:3216   */\n    tag_81:\n        /* \"#utility.yul\":3111:3116   */\n      0x00\n        /* \"#utility.yul\":3149:3155   */\n      dup2\n        /* \"#utility.yul\":3136:3156   */\n      calldataload\n        /* \"#utility.yul\":3127:3156   */\n      swap1\n      pop\n        /* \"#utility.yul\":3165:3210   */\n      tag_155\n        /* \"#utility.yul\":3204:3209   */\n      dup2\n        /* \"#utility.yul\":3165:3210   */\n      tag_80\n      jump\t// in\n    tag_155:\n        /* \"#utility.yul\":3053:3216   */\n      swap3\n      swap2\n      pop\n      pop\n      jump\t// out\n        /* \"#utility.yul\":3222:3900   */\n    tag_11:\n        /* \"#utility.yul\":3312:3318   */\n      0x00\n        /* \"#utility.yul\":3320:3326   */\n      dup1\n        /* \"#utility.yul\":3369:3371   */\n      0x40\n        /* \"#utility.yul\":3357:3366   */\n      dup4\n        /* \"#utility.yul\":3348:3355   */\n      dup6\n        /* \"#utility.yul\":3344:3367   */\n      sub\n        /* \"#utility.yul\":3340:3372   */\n      slt\n        /* \"#utility.yul\":3337:3456   */\n      iszero\n      tag_157\n      jumpi\n        /* \"#utility.yul\":3375:3454   */\n      tag_158\n      tag_65\n      jump\t// in\n    tag_158:\n        /* \"#utility.yul\":3337:3456   */\n    tag_157:\n        /* \"#utility.yul\":3523:3524   */\n      0x00\n        /* \"#utility.yul\":3512:3521   */\n      dup4\n        /* \"#utility.yul\":3508:3525   */\n      add\n        /* \"#utility.yul\":3495:3526   */\n      calldataload\n        /* \"#utility.yul\":3553:3571   */\n      0xffffffffffffffff\n        /* \"#utility.yul\":3545:3551   */\n      dup2\n        /* \"#utility.yul\":3542:3572   */\n      gt\n        /* \"#utility.yul\":3539:3656   */\n      iszero\n      tag_159\n      jumpi\n        /* \"#utility.yul\":3575:3654   */\n      tag_160\n      tag_66\n      jump\t// in\n    tag_160:\n        /* \"#utility.yul\":3539:3656   */\n    tag_159:\n        /* \"#utility.yul\":3680:3743   */\n      tag_161\n        /* \"#utility.yul\":3735:3742   */\n      dup6\n        /* \"#utility.yul\":3726:3732   */\n      dup3\n        /* \"#utility.yul\":3715:3724   */\n      dup7\n        /* \"#utility.yul\":3711:3733   */\n      add\n        /* \"#utility.yul\":3680:3743   */\n      tag_76\n      jump\t// in\n    tag_161:\n        /* \"#utility.yul\":3670:3743   */\n      swap3\n      pop\n        /* \"#utility.yul\":3466:3753   */\n      pop\n        /* \"#utility.yul\":3792:3794   */\n      0x20\n        /* \"#utility.yul\":3818:3883   */\n      tag_162\n        /* \"#utility.yul\":3875:3882   */\n      dup6\n        /* \"#utility.yul\":3866:3872   */\n      dup3\n        /* \"#utility.yul\":3855:3864   */\n      dup7\n        /* \"#utility.yul\":3851:3873   */\n      add\n        /* \"#utility.yul\":3818:3883   */\n      tag_81\n      jump\t// in\n    tag_162:\n        /* \"#utility.yul\":3808:3883   */\n      swap2\n      pop\n        /* \"#utility.yul\":3763:3893   */\n      pop\n        /* \"#utility.yul\":3222:3900   */\n      swap3\n      pop\n      swap3\n      swap1\n      pop\n      jump\t// out\n        /* \"#utility.yul\":3906:4415   */\n    tag_15:\n        /* \"#utility.yul\":3975:3981   */\n      0x00\n        /* \"#utility.yul\":4024:4026   */\n      0x20\n        /* \"#utility.yul\":4012:4021   */\n      dup3\n        /* \"#utility.yul\":4003:4010   */\n      dup5\n        /* \"#utility.yul\":3999:4022   */\n      sub\n        /* \"#utility.yul\":3995:4027   */\n      slt\n        /* \"#utility.yul\":3992:4111   */\n      iszero\n      tag_164\n      jumpi\n        /* \"#utility.yul\":4030:4109   */\n      tag_165\n      tag_65\n      jump\t// in\n    tag_165:\n        /* \"#utility.yul\":3992:4111   */\n    tag_164:\n        /* \"#utility.yul\":4178:4179   */\n      0x00\n        /* \"#utility.yul\":4167:4176   */\n      dup3\n        /* \"#utility.yul\":4163:4180   */\n      add\n        /* \"#utility.yul\":4150:4181   */\n      calldataload\n        /* \"#utility.yul\":4208:4226   */\n      0xffffffffffffffff\n        /* \"#utility.yul\":4200:4206   */\n      dup2\n        /* \"#utility.yul\":4197:4227   */\n      gt\n        /* \"#utility.yul\":4194:4311   */\n      iszero\n      tag_166\n      jumpi\n        /* \"#utility.yul\":4230:4309   */\n      tag_167\n      tag_66\n      jump\t// in\n    tag_167:\n        /* \"#utility.yul\":4194:4311   */\n    tag_166:\n        /* \"#utility.yul\":4335:4398   */\n      tag_168\n        /* \"#utility.yul\":4390:4397   */\n      dup5\n        /* \"#utility.yul\":4381:4387   */\n      dup3\n        /* \"#utility.yul\":4370:4379   */\n      dup6\n        /* \"#utility.yul\":4366:4388   */\n      add\n        /* \"#utility.yul\":4335:4398   */\n      tag_76\n      jump\t// in\n    tag_168:\n        /* \"#utility.yul\":4325:4398   */\n      swap2\n      pop\n        /* \"#utility.yul\":4121:4408   */\n      pop\n        /* \"#utility.yul\":3906:4415   */\n      swap3\n      swap2\n      pop\n      pop\n      jump\t// out\n        /* \"#utility.yul\":4421:4481   */\n    tag_82:\n        /* \"#utility.yul\":4449:4452   */\n      0x00\n        /* \"#utility.yul\":4470:4475   */\n      dup2\n        /* \"#utility.yul\":4463:4475   */\n      swap1\n      pop\n        /* \"#utility.yul\":4421:4481   */\n      swap2\n      swap1\n      pop\n      jump\t// out\n        /* \"#utility.yul\":4487:4629   */\n    tag_83:\n        /* \"#utility.yul\":4537:4546   */\n      0x00\n        /* \"#utility.yul\":4570:4623   */\n      tag_171\n        /* \"#utility.yul\":4588:4622   */\n      tag_172\n        /* \"#utility.yul\":4597:4621   */\n      tag_173\n        /* \"#utility.yul\":4615:4620   */\n      dup5\n        /* \"#utility.yul\":4597:4621   */\n      tag_77\n      jump\t// in\n    tag_173:\n        /* \"#utility.yul\":4588:4622   */\n      tag_82\n      jump\t// in\n    tag_172:\n        /* \"#utility.yul\":4570:4623   */\n      tag_77\n      jump\t// in\n    tag_171:\n        /* \"#utility.yul\":4557:4623   */\n      swap1\n      pop\n        /* \"#utility.yul\":4487:4629   */\n      swap2\n      swap1\n      pop\n      jump\t// out\n        /* \"#utility.yul\":4635:4761   */\n    tag_84:\n        /* \"#utility.yul\":4685:4694   */\n      0x00\n        /* \"#utility.yul\":4718:4755   */\n      tag_175\n        /* \"#utility.yul\":4749:4754   */\n      dup3\n        /* \"#utility.yul\":4718:4755   */\n      tag_83\n      jump\t// in\n    tag_175:\n        /* \"#utility.yul\":4705:4755   */\n      swap1\n      pop\n        /* \"#utility.yul\":4635:4761   */\n      swap2\n      swap1\n      pop\n      jump\t// out\n        /* \"#utility.yul\":4767:4905   */\n    tag_85:\n        /* \"#utility.yul\":4829:4838   */\n      0x00\n        /* \"#utility.yul\":4862:4899   */\n      tag_177\n        /* \"#utility.yul\":4893:4898   */\n      dup3\n        /* \"#utility.yul\":4862:4899   */\n      tag_84\n      jump\t// in\n    tag_177:\n        /* \"#utility.yul\":4849:4899   */\n      swap1\n      pop\n        /* \"#utility.yul\":4767:4905   */\n      swap2\n      swap1\n      pop\n      jump\t// out\n        /* \"#utility.yul\":4911:5066   */\n    tag_86:\n        /* \"#utility.yul\":5010:5059   */\n      tag_179\n        /* \"#utility.yul\":5053:5058   */\n      dup2\n        /* \"#utility.yul\":5010:5059   */\n      tag_85\n      jump\t// in\n    tag_179:\n        /* \"#utility.yul\":5005:5008   */\n      dup3\n        /* \"#utility.yul\":4998:5060   */\n      mstore\n        /* \"#utility.yul\":4911:5066   */\n      pop\n      pop\n      jump\t// out\n        /* \"#utility.yul\":5072:5318   */\n    tag_21:\n        /* \"#utility.yul\":5177:5181   */\n      0x00\n        /* \"#utility.yul\":5215:5217   */\n      0x20\n        /* \"#utility.yul\":5204:5213   */\n      dup3\n        /* \"#utility.yul\":5200:5218   */\n      add\n        /* \"#utility.yul\":5192:5218   */\n      swap1\n      pop\n        /* \"#utility.yul\":5228:5311   */\n      tag_181\n        /* \"#utility.yul\":5308:5309   */\n      0x00\n        /* \"#utility.yul\":5297:5306   */\n      dup4\n        /* \"#utility.yul\":5293:5310   */\n      add\n        /* \"#utility.yul\":5284:5290   */\n      dup5\n        /* \"#utility.yul\":5228:5311   */\n      tag_86\n      jump\t// in\n    tag_181:\n        /* \"#utility.yul\":5072:5318   */\n      swap3\n      swap2\n      pop\n      pop\n      jump\t// out\n        /* \"#utility.yul\":5324:5446   */\n    tag_87:\n        /* \"#utility.yul\":5397:5421   */\n      tag_183\n        /* \"#utility.yul\":5415:5420   */\n      dup2\n        /* \"#utility.yul\":5397:5421   */\n      tag_78\n      jump\t// in\n    tag_183:\n        /* \"#utility.yul\":5390:5395   */\n      dup2\n        /* \"#utility.yul\":5387:5422   */\n      eq\n        /* \"#utility.yul\":5377:5440   */\n      tag_184\n      jumpi\n        /* \"#utility.yul\":5436:5437   */\n      0x00\n        /* \"#utility.yul\":5433:5434   */\n      dup1\n        /* \"#utility.yul\":5426:5438   */\n      revert\n        /* \"#utility.yul\":5377:5440   */\n    tag_184:\n        /* \"#utility.yul\":5324:5446   */\n      pop\n      jump\t// out\n        /* \"#utility.yul\":5452:5591   */\n    tag_88:\n        /* \"#utility.yul\":5498:5503   */\n      0x00\n        /* \"#utility.yul\":5536:5542   */\n      dup2\n        /* \"#utility.yul\":5523:5543   */\n      calldataload\n        /* \"#utility.yul\":5514:5543   */\n      swap1\n      pop\n        /* \"#utility.yul\":5552:5585   */\n      tag_186\n        /* \"#utility.yul\":5579:5584   */\n      dup2\n        /* \"#utility.yul\":5552:5585   */\n      tag_87\n      jump\t// in\n    tag_186:\n        /* \"#utility.yul\":5452:5591   */\n      swap3\n      swap2\n      pop\n      pop\n      jump\t// out\n        /* \"#utility.yul\":5597:5926   */\n    tag_24:\n        /* \"#utility.yul\":5656:5662   */\n      0x00\n        /* \"#utility.yul\":5705:5707   */\n      0x20\n        /* \"#utility.yul\":5693:5702   */\n      dup3\n        /* \"#utility.yul\":5684:5691   */\n      dup5\n        /* \"#utility.yul\":5680:5703   */\n      sub\n        /* \"#utility.yul\":5676:5708   */\n      slt\n        /* \"#utility.yul\":5673:5792   */\n      iszero\n      tag_188\n      jumpi\n        /* \"#utility.yul\":5711:5790   */\n      tag_189\n      tag_65\n      jump\t// in\n    tag_189:\n        /* \"#utility.yul\":5673:5792   */\n    tag_188:\n        /* \"#utility.yul\":5831:5832   */\n      0x00\n        /* \"#utility.yul\":5856:5909   */\n      tag_190\n        /* \"#utility.yul\":5901:5908   */\n      dup5\n        /* \"#utility.yul\":5892:5898   */\n      dup3\n        /* \"#utility.yul\":5881:5890   */\n      dup6\n        /* \"#utility.yul\":5877:5899   */\n      add\n        /* \"#utility.yul\":5856:5909   */\n      tag_88\n      jump\t// in\n    tag_190:\n        /* \"#utility.yul\":5846:5909   */\n      swap2\n      pop\n        /* \"#utility.yul\":5802:5919   */\n      pop\n        /* \"#utility.yul\":5597:5926   */\n      swap3\n      swap2\n      pop\n      pop\n      jump\t// out\n        /* \"#utility.yul\":5932:6046   */\n    tag_89:\n        /* \"#utility.yul\":5999:6005   */\n      0x00\n        /* \"#utility.yul\":6033:6038   */\n      dup2\n        /* \"#utility.yul\":6027:6039   */\n      mload\n        /* \"#utility.yul\":6017:6039   */\n      swap1\n      pop\n        /* \"#utility.yul\":5932:6046   */\n      swap2\n      swap1\n      pop\n      jump\t// out\n        /* \"#utility.yul\":6052:6236   */\n    tag_90:\n        /* \"#utility.yul\":6151:6162   */\n      0x00\n        /* \"#utility.yul\":6185:6191   */\n      dup3\n        /* \"#utility.yul\":6180:6183   */\n      dup3\n        /* \"#utility.yul\":6173:6192   */\n      mstore\n        /* \"#utility.yul\":6225:6229   */\n      0x20\n        /* \"#utility.yul\":6220:6223   */\n      dup3\n        /* \"#utility.yul\":6216:6230   */\n      add\n        /* \"#utility.yul\":6201:6230   */\n      swap1\n      pop\n        /* \"#utility.yul\":6052:6236   */\n      swap3\n      swap2\n      pop\n      pop\n      jump\t// out\n        /* \"#utility.yul\":6242:6374   */\n    tag_91:\n        /* \"#utility.yul\":6309:6313   */\n      0x00\n        /* \"#utility.yul\":6332:6335   */\n      dup2\n        /* \"#utility.yul\":6324:6335   */\n      swap1\n      pop\n        /* \"#utility.yul\":6362:6366   */\n      0x20\n        /* \"#utility.yul\":6357:6360   */\n      dup3\n        /* \"#utility.yul\":6353:6367   */\n      add\n        /* \"#utility.yul\":6345:6367   */\n      swap1\n      pop\n        /* \"#utility.yul\":6242:6374   */\n      swap2\n      swap1\n      pop\n      jump\t// out\n        /* \"#utility.yul\":6380:6488   */\n    tag_92:\n        /* \"#utility.yul\":6457:6481   */\n      tag_195\n        /* \"#utility.yul\":6475:6480   */\n      dup2\n        /* \"#utility.yul\":6457:6481   */\n      tag_78\n      jump\t// in\n    tag_195:\n        /* \"#utility.yul\":6452:6455   */\n      dup3\n        /* \"#utility.yul\":6445:6482   */\n      mstore\n        /* \"#utility.yul\":6380:6488   */\n      pop\n      pop\n      jump\t// out\n        /* \"#utility.yul\":6494:6673   */\n    tag_93:\n        /* \"#utility.yul\":6563:6573   */\n      0x00\n        /* \"#utility.yul\":6584:6630   */\n      tag_197\n        /* \"#utility.yul\":6626:6629   */\n      dup4\n        /* \"#utility.yul\":6618:6624   */\n      dup4\n        /* \"#utility.yul\":6584:6630   */\n      tag_92\n      jump\t// in\n    tag_197:\n        /* \"#utility.yul\":6662:6666   */\n      0x20\n        /* \"#utility.yul\":6657:6660   */\n      dup4\n        /* \"#utility.yul\":6653:6667   */\n      add\n        /* \"#utility.yul\":6639:6667   */\n      swap1\n      pop\n        /* \"#utility.yul\":6494:6673   */\n      swap3\n      swap2\n      pop\n      pop\n      jump\t// out\n        /* \"#utility.yul\":6679:6792   */\n    tag_94:\n        /* \"#utility.yul\":6749:6753   */\n      0x00\n        /* \"#utility.yul\":6781:6785   */\n      0x20\n        /* \"#utility.yul\":6776:6779   */\n      dup3\n        /* \"#utility.yul\":6772:6786   */\n      add\n        /* \"#utility.yul\":6764:6786   */\n      swap1\n      pop\n        /* \"#utility.yul\":6679:6792   */\n      swap2\n      swap1\n      pop\n      jump\t// out\n        /* \"#utility.yul\":6828:7560   */\n    tag_95:\n        /* \"#utility.yul\":6947:6950   */\n      0x00\n        /* \"#utility.yul\":6976:7030   */\n      tag_200\n        /* \"#utility.yul\":7024:7029   */\n      dup3\n        /* \"#utility.yul\":6976:7030   */\n      tag_89\n      jump\t// in\n    tag_200:\n        /* \"#utility.yul\":7046:7132   */\n      tag_201\n        /* \"#utility.yul\":7125:7131   */\n      dup2\n        /* \"#utility.yul\":7120:7123   */\n      dup6\n        /* \"#utility.yul\":7046:7132   */\n      tag_90\n      jump\t// in\n    tag_201:\n        /* \"#utility.yul\":7039:7132   */\n      swap4\n      pop\n        /* \"#utility.yul\":7156:7212   */\n      tag_202\n        /* \"#utility.yul\":7206:7211   */\n      dup4\n        /* \"#utility.yul\":7156:7212   */\n      tag_91\n      jump\t// in\n    tag_202:\n        /* \"#utility.yul\":7235:7242   */\n      dup1\n        /* \"#utility.yul\":7266:7267   */\n      0x00\n        /* \"#utility.yul\":7251:7535   */\n    tag_203:\n        /* \"#utility.yul\":7276:7282   */\n      dup4\n        /* \"#utility.yul\":7273:7274   */\n      dup2\n        /* \"#utility.yul\":7270:7283   */\n      lt\n        /* \"#utility.yul\":7251:7535   */\n      iszero\n      tag_205\n      jumpi\n        /* \"#utility.yul\":7352:7358   */\n      dup2\n        /* \"#utility.yul\":7346:7359   */\n      mload\n        /* \"#utility.yul\":7379:7442   */\n      tag_206\n        /* \"#utility.yul\":7438:7441   */\n      dup9\n        /* \"#utility.yul\":7423:7436   */\n      dup3\n        /* \"#utility.yul\":7379:7442   */\n      tag_93\n      jump\t// in\n    tag_206:\n        /* \"#utility.yul\":7372:7442   */\n      swap8\n      pop\n        /* \"#utility.yul\":7465:7525   */\n      tag_207\n        /* \"#utility.yul\":7518:7524   */\n      dup4\n        /* \"#utility.yul\":7465:7525   */\n      tag_94\n      jump\t// in\n    tag_207:\n        /* \"#utility.yul\":7455:7525   */\n      swap3\n      pop\n        /* \"#utility.yul\":7311:7535   */\n      pop\n        /* \"#utility.yul\":7298:7299   */\n      0x01\n        /* \"#utility.yul\":7295:7296   */\n      dup2\n        /* \"#utility.yul\":7291:7300   */\n      add\n        /* \"#utility.yul\":7286:7300   */\n      swap1\n      pop\n        /* \"#utility.yul\":7251:7535   */\n      jump(tag_203)\n    tag_205:\n        /* \"#utility.yul\":7255:7269   */\n      pop\n        /* \"#utility.yul\":7551:7554   */\n      dup6\n        /* \"#utility.yul\":7544:7554   */\n      swap4\n      pop\n        /* \"#utility.yul\":6952:7560   */\n      pop\n      pop\n      pop\n        /* \"#utility.yul\":6828:7560   */\n      swap3\n      swap2\n      pop\n      pop\n      jump\t// out\n        /* \"#utility.yul\":7566:7939   */\n    tag_27:\n        /* \"#utility.yul\":7709:7713   */\n      0x00\n        /* \"#utility.yul\":7747:7749   */\n      0x20\n        /* \"#utility.yul\":7736:7745   */\n      dup3\n        /* \"#utility.yul\":7732:7750   */\n      add\n        /* \"#utility.yul\":7724:7750   */\n      swap1\n      pop\n        /* \"#utility.yul\":7796:7805   */\n      dup2\n        /* \"#utility.yul\":7790:7794   */\n      dup2\n        /* \"#utility.yul\":7786:7806   */\n      sub\n        /* \"#utility.yul\":7782:7783   */\n      0x00\n        /* \"#utility.yul\":7771:7780   */\n      dup4\n        /* \"#utility.yul\":7767:7784   */\n      add\n        /* \"#utility.yul\":7760:7807   */\n      mstore\n        /* \"#utility.yul\":7824:7932   */\n      tag_209\n        /* \"#utility.yul\":7927:7931   */\n      dup2\n        /* \"#utility.yul\":7918:7924   */\n      dup5\n        /* \"#utility.yul\":7824:7932   */\n      tag_95\n      jump\t// in\n    tag_209:\n        /* \"#utility.yul\":7816:7932   */\n      swap1\n      pop\n        /* \"#utility.yul\":7566:7939   */\n      swap3\n      swap2\n      pop\n      pop\n      jump\t// out\n        /* \"#utility.yul\":7945:8069   */\n    tag_96:\n        /* \"#utility.yul\":8022:8028   */\n      0x00\n        /* \"#utility.yul\":8056:8061   */\n      dup2\n        /* \"#utility.yul\":8050:8062   */\n      mload\n        /* \"#utility.yul\":8040:8062   */\n      swap1\n      pop\n        /* \"#utility.yul\":7945:8069   */\n      swap2\n      swap1\n      pop\n      jump\t// out\n        /* \"#utility.yul\":8075:8269   */\n    tag_97:\n        /* \"#utility.yul\":8184:8195   */\n      0x00\n        /* \"#utility.yul\":8218:8224   */\n      dup3\n        /* \"#utility.yul\":8213:8216   */\n      dup3\n        /* \"#utility.yul\":8206:8225   */\n      mstore\n        /* \"#utility.yul\":8258:8262   */\n      0x20\n        /* \"#utility.yul\":8253:8256   */\n      dup3\n        /* \"#utility.yul\":8249:8263   */\n      add\n        /* \"#utility.yul\":8234:8263   */\n      swap1\n      pop\n        /* \"#utility.yul\":8075:8269   */\n      swap3\n      swap2\n      pop\n      pop\n      jump\t// out\n        /* \"#utility.yul\":8275:8417   */\n    tag_98:\n        /* \"#utility.yul\":8352:8356   */\n      0x00\n        /* \"#utility.yul\":8375:8378   */\n      dup2\n        /* \"#utility.yul\":8367:8378   */\n      swap1\n      pop\n        /* \"#utility.yul\":8405:8409   */\n      0x20\n        /* \"#utility.yul\":8400:8403   */\n      dup3\n        /* \"#utility.yul\":8396:8410   */\n      add\n        /* \"#utility.yul\":8388:8410   */\n      swap1\n      pop\n        /* \"#utility.yul\":8275:8417   */\n      swap2\n      swap1\n      pop\n      jump\t// out\n        /* \"#utility.yul\":8423:8522   */\n    tag_99:\n        /* \"#utility.yul\":8475:8481   */\n      0x00\n        /* \"#utility.yul\":8509:8514   */\n      dup2\n        /* \"#utility.yul\":8503:8515   */\n      mload\n        /* \"#utility.yul\":8493:8515   */\n      swap1\n      pop\n        /* \"#utility.yul\":8423:8522   */\n      swap2\n      swap1\n      pop\n      jump\t// out\n        /* \"#utility.yul\":8528:8687   */\n    tag_100:\n        /* \"#utility.yul\":8602:8613   */\n      0x00\n        /* \"#utility.yul\":8636:8642   */\n      dup3\n        /* \"#utility.yul\":8631:8634   */\n      dup3\n        /* \"#utility.yul\":8624:8643   */\n      mstore\n        /* \"#utility.yul\":8676:8680   */\n      0x20\n        /* \"#utility.yul\":8671:8674   */\n      dup3\n        /* \"#utility.yul\":8667:8681   */\n      add\n        /* \"#utility.yul\":8652:8681   */\n      swap1\n      pop\n        /* \"#utility.yul\":8528:8687   */\n      swap3\n      swap2\n      pop\n      pop\n      jump\t// out\n        /* \"#utility.yul\":8693:8939   */\n    tag_101:\n        /* \"#utility.yul\":8774:8775   */\n      0x00\n        /* \"#utility.yul\":8784:8897   */\n    tag_216:\n        /* \"#utility.yul\":8798:8804   */\n      dup4\n        /* \"#utility.yul\":8795:8796   */\n      dup2\n        /* \"#utility.yul\":8792:8805   */\n      lt\n        /* \"#utility.yul\":8784:8897   */\n      iszero\n      tag_218\n      jumpi\n        /* \"#utility.yul\":8883:8884   */\n      dup1\n        /* \"#utility.yul\":8878:8881   */\n      dup3\n        /* \"#utility.yul\":8874:8885   */\n      add\n        /* \"#utility.yul\":8868:8886   */\n      mload\n        /* \"#utility.yul\":8864:8865   */\n      dup2\n        /* \"#utility.yul\":8859:8862   */\n      dup5\n        /* \"#utility.yul\":8855:8866   */\n      add\n        /* \"#utility.yul\":8848:8887   */\n      mstore\n        /* \"#utility.yul\":8820:8822   */\n      0x20\n        /* \"#utility.yul\":8817:8818   */\n      dup2\n        /* \"#utility.yul\":8813:8823   */\n      add\n        /* \"#utility.yul\":8808:8823   */\n      swap1\n      pop\n        /* \"#utility.yul\":8784:8897   */\n      jump(tag_216)\n    tag_218:\n        /* \"#utility.yul\":8931:8932   */\n      0x00\n        /* \"#utility.yul\":8922:8928   */\n      dup5\n        /* \"#utility.yul\":8917:8920   */\n      dup5\n        /* \"#utility.yul\":8913:8929   */\n      add\n        /* \"#utility.yul\":8906:8933   */\n      mstore\n        /* \"#utility.yul\":8755:8939   */\n      pop\n        /* \"#utility.yul\":8693:8939   */\n      pop\n      pop\n      pop\n      jump\t// out\n        /* \"#utility.yul\":8945:9302   */\n    tag_102:\n        /* \"#utility.yul\":9023:9026   */\n      0x00\n        /* \"#utility.yul\":9051:9090   */\n      tag_220\n        /* \"#utility.yul\":9084:9089   */\n      dup3\n        /* \"#utility.yul\":9051:9090   */\n      tag_99\n      jump\t// in\n    tag_220:\n        /* \"#utility.yul\":9106:9167   */\n      tag_221\n        /* \"#utility.yul\":9160:9166   */\n      dup2\n        /* \"#utility.yul\":9155:9158   */\n      dup6\n        /* \"#utility.yul\":9106:9167   */\n      tag_100\n      jump\t// in\n    tag_221:\n        /* \"#utility.yul\":9099:9167   */\n      swap4\n      pop\n        /* \"#utility.yul\":9176:9241   */\n      tag_222\n        /* \"#utility.yul\":9234:9240   */\n      dup2\n        /* \"#utility.yul\":9229:9232   */\n      dup6\n        /* \"#utility.yul\":9222:9226   */\n      0x20\n        /* \"#utility.yul\":9215:9220   */\n      dup7\n        /* \"#utility.yul\":9211:9227   */\n      add\n        /* \"#utility.yul\":9176:9241   */\n      tag_101\n      jump\t// in\n    tag_222:\n        /* \"#utility.yul\":9266:9295   */\n      tag_223\n        /* \"#utility.yul\":9288:9294   */\n      dup2\n        /* \"#utility.yul\":9266:9295   */\n      tag_69\n      jump\t// in\n    tag_223:\n        /* \"#utility.yul\":9261:9264   */\n      dup5\n        /* \"#utility.yul\":9257:9296   */\n      add\n        /* \"#utility.yul\":9250:9296   */\n      swap2\n      pop\n        /* \"#utility.yul\":9027:9302   */\n      pop\n        /* \"#utility.yul\":8945:9302   */\n      swap3\n      swap2\n      pop\n      pop\n      jump\t// out\n        /* \"#utility.yul\":9308:9504   */\n    tag_103:\n        /* \"#utility.yul\":9397:9407   */\n      0x00\n        /* \"#utility.yul\":9432:9498   */\n      tag_225\n        /* \"#utility.yul\":9494:9497   */\n      dup4\n        /* \"#utility.yul\":9486:9492   */\n      dup4\n        /* \"#utility.yul\":9432:9498   */\n      tag_102\n      jump\t// in\n    tag_225:\n        /* \"#utility.yul\":9418:9498   */\n      swap1\n      pop\n        /* \"#utility.yul\":9308:9504   */\n      swap3\n      swap2\n      pop\n      pop\n      jump\t// out\n        /* \"#utility.yul\":9510:9633   */\n    tag_104:\n        /* \"#utility.yul\":9590:9594   */\n      0x00\n        /* \"#utility.yul\":9622:9626   */\n      0x20\n        /* \"#utility.yul\":9617:9620   */\n      dup3\n        /* \"#utility.yul\":9613:9627   */\n      add\n        /* \"#utility.yul\":9605:9627   */\n      swap1\n      pop\n        /* \"#utility.yul\":9510:9633   */\n      swap2\n      swap1\n      pop\n      jump\t// out\n        /* \"#utility.yul\":9667:10658   */\n    tag_105:\n        /* \"#utility.yul\":9806:9809   */\n      0x00\n        /* \"#utility.yul\":9835:9899   */\n      tag_228\n        /* \"#utility.yul\":9893:9898   */\n      dup3\n        /* \"#utility.yul\":9835:9899   */\n      tag_96\n      jump\t// in\n    tag_228:\n        /* \"#utility.yul\":9915:10011   */\n      tag_229\n        /* \"#utility.yul\":10004:10010   */\n      dup2\n        /* \"#utility.yul\":9999:10002   */\n      dup6\n        /* \"#utility.yul\":9915:10011   */\n      tag_97\n      jump\t// in\n    tag_229:\n        /* \"#utility.yul\":9908:10011   */\n      swap4\n      pop\n        /* \"#utility.yul\":10037:10040   */\n      dup4\n        /* \"#utility.yul\":10082:10086   */\n      0x20\n        /* \"#utility.yul\":10074:10080   */\n      dup3\n        /* \"#utility.yul\":10070:10087   */\n      mul\n        /* \"#utility.yul\":10065:10068   */\n      dup6\n        /* \"#utility.yul\":10061:10088   */\n      add\n        /* \"#utility.yul\":10112:10178   */\n      tag_230\n        /* \"#utility.yul\":10172:10177   */\n      dup6\n        /* \"#utility.yul\":10112:10178   */\n      tag_98\n      jump\t// in\n    tag_230:\n        /* \"#utility.yul\":10201:10208   */\n      dup1\n        /* \"#utility.yul\":10232:10233   */\n      0x00\n        /* \"#utility.yul\":10217:10613   */\n    tag_231:\n        /* \"#utility.yul\":10242:10248   */\n      dup6\n        /* \"#utility.yul\":10239:10240   */\n      dup2\n        /* \"#utility.yul\":10236:10249   */\n      lt\n        /* \"#utility.yul\":10217:10613   */\n      iszero\n      tag_233\n      jumpi\n        /* \"#utility.yul\":10313:10322   */\n      dup5\n        /* \"#utility.yul\":10307:10311   */\n      dup5\n        /* \"#utility.yul\":10303:10323   */\n      sub\n        /* \"#utility.yul\":10298:10301   */\n      dup10\n        /* \"#utility.yul\":10291:10324   */\n      mstore\n        /* \"#utility.yul\":10364:10370   */\n      dup2\n        /* \"#utility.yul\":10358:10371   */\n      mload\n        /* \"#utility.yul\":10392:10476   */\n      tag_234\n        /* \"#utility.yul\":10471:10475   */\n      dup6\n        /* \"#utility.yul\":10456:10469   */\n      dup3\n        /* \"#utility.yul\":10392:10476   */\n      tag_103\n      jump\t// in\n    tag_234:\n        /* \"#utility.yul\":10384:10476   */\n      swap5\n      pop\n        /* \"#utility.yul\":10499:10569   */\n      tag_235\n        /* \"#utility.yul\":10562:10568   */\n      dup4\n        /* \"#utility.yul\":10499:10569   */\n      tag_104\n      jump\t// in\n    tag_235:\n        /* \"#utility.yul\":10489:10569   */\n      swap3\n      pop\n        /* \"#utility.yul\":10598:10602   */\n      0x20\n        /* \"#utility.yul\":10593:10596   */\n      dup11\n        /* \"#utility.yul\":10589:10603   */\n      add\n        /* \"#utility.yul\":10582:10603   */\n      swap10\n      pop\n        /* \"#utility.yul\":10277:10613   */\n      pop\n        /* \"#utility.yul\":10264:10265   */\n      0x01\n        /* \"#utility.yul\":10261:10262   */\n      dup2\n        /* \"#utility.yul\":10257:10266   */\n      add\n        /* \"#utility.yul\":10252:10266   */\n      swap1\n      pop\n        /* \"#utility.yul\":10217:10613   */\n      jump(tag_231)\n    tag_233:\n        /* \"#utility.yul\":10221:10235   */\n      pop\n        /* \"#utility.yul\":10629:10633   */\n      dup3\n        /* \"#utility.yul\":10622:10633   */\n      swap8\n      pop\n        /* \"#utility.yul\":10649:10652   */\n      dup8\n        /* \"#utility.yul\":10642:10652   */\n      swap6\n      pop\n        /* \"#utility.yul\":9811:10658   */\n      pop\n      pop\n      pop\n      pop\n      pop\n        /* \"#utility.yul\":9667:10658   */\n      swap3\n      swap2\n      pop\n      pop\n      jump\t// out\n        /* \"#utility.yul\":10664:11077   */\n    tag_36:\n        /* \"#utility.yul\":10827:10831   */\n      0x00\n        /* \"#utility.yul\":10865:10867   */\n      0x20\n        /* \"#utility.yul\":10854:10863   */\n      dup3\n        /* \"#utility.yul\":10850:10868   */\n      add\n        /* \"#utility.yul\":10842:10868   */\n      swap1\n      pop\n        /* \"#utility.yul\":10914:10923   */\n      dup2\n        /* \"#utility.yul\":10908:10912   */\n      dup2\n        /* \"#utility.yul\":10904:10924   */\n      sub\n        /* \"#utility.yul\":10900:10901   */\n      0x00\n        /* \"#utility.yul\":10889:10898   */\n      dup4\n        /* \"#utility.yul\":10885:10902   */\n      add\n        /* \"#utility.yul\":10878:10925   */\n      mstore\n        /* \"#utility.yul\":10942:11070   */\n      tag_237\n        /* \"#utility.yul\":11065:11069   */\n      dup2\n        /* \"#utility.yul\":11056:11062   */\n      dup5\n        /* \"#utility.yul\":10942:11070   */\n      tag_105\n      jump\t// in\n    tag_237:\n        /* \"#utility.yul\":10934:11070   */\n      swap1\n      pop\n        /* \"#utility.yul\":10664:11077   */\n      swap3\n      swap2\n      pop\n      pop\n      jump\t// out\n        /* \"#utility.yul\":11083:11231   */\n    tag_106:\n        /* \"#utility.yul\":11185:11196   */\n      0x00\n        /* \"#utility.yul\":11222:11225   */\n      dup2\n        /* \"#utility.yul\":11207:11225   */\n      swap1\n      pop\n        /* \"#utility.yul\":11083:11231   */\n      swap3\n      swap2\n      pop\n      pop\n      jump\t// out\n        /* \"#utility.yul\":11237:11627   */\n    tag_107:\n        /* \"#utility.yul\":11343:11346   */\n      0x00\n        /* \"#utility.yul\":11371:11410   */\n      tag_240\n        /* \"#utility.yul\":11404:11409   */\n      dup3\n        /* \"#utility.yul\":11371:11410   */\n      tag_99\n      jump\t// in\n    tag_240:\n        /* \"#utility.yul\":11426:11515   */\n      tag_241\n        /* \"#utility.yul\":11508:11514   */\n      dup2\n        /* \"#utility.yul\":11503:11506   */\n      dup6\n        /* \"#utility.yul\":11426:11515   */\n      tag_106\n      jump\t// in\n    tag_241:\n        /* \"#utility.yul\":11419:11515   */\n      swap4\n      pop\n        /* \"#utility.yul\":11524:11589   */\n      tag_242\n        /* \"#utility.yul\":11582:11588   */\n      dup2\n        /* \"#utility.yul\":11577:11580   */\n      dup6\n        /* \"#utility.yul\":11570:11574   */\n      0x20\n        /* \"#utility.yul\":11563:11568   */\n      dup7\n        /* \"#utility.yul\":11559:11575   */\n      add\n        /* \"#utility.yul\":11524:11589   */\n      tag_101\n      jump\t// in\n    tag_242:\n        /* \"#utility.yul\":11614:11620   */\n      dup1\n        /* \"#utility.yul\":11609:11612   */\n      dup5\n        /* \"#utility.yul\":11605:11621   */\n      add\n        /* \"#utility.yul\":11598:11621   */\n      swap2\n      pop\n        /* \"#utility.yul\":11347:11627   */\n      pop\n        /* \"#utility.yul\":11237:11627   */\n      swap3\n      swap2\n      pop\n      pop\n      jump\t// out\n        /* \"#utility.yul\":11633:11908   */\n    tag_39:\n        /* \"#utility.yul\":11765:11768   */\n      0x00\n        /* \"#utility.yul\":11787:11882   */\n      tag_244\n        /* \"#utility.yul\":11878:11881   */\n      dup3\n        /* \"#utility.yul\":11869:11875   */\n      dup5\n        /* \"#utility.yul\":11787:11882   */\n      tag_107\n      jump\t// in\n    tag_244:\n        /* \"#utility.yul\":11780:11882   */\n      swap2\n      pop\n        /* \"#utility.yul\":11899:11902   */\n      dup2\n        /* \"#utility.yul\":11892:11902   */\n      swap1\n      pop\n        /* \"#utility.yul\":11633:11908   */\n      swap3\n      swap2\n      pop\n      pop\n      jump\t// out\n        /* \"#utility.yul\":11914:12094   */\n    tag_51:\n        /* \"#utility.yul\":11962:12039   */\n      0x4e487b7100000000000000000000000000000000000000000000000000000000\n        /* \"#utility.yul\":11959:11960   */\n      0x00\n        /* \"#utility.yul\":11952:12040   */\n      mstore\n        /* \"#utility.yul\":12059:12063   */\n      0x32\n        /* \"#utility.yul\":12056:12057   */\n      0x04\n        /* \"#utility.yul\":12049:12064   */\n      mstore\n        /* \"#utility.yul\":12083:12087   */\n      0x24\n        /* \"#utility.yul\":12080:12081   */\n      0x00\n        /* \"#utility.yul\":12073:12088   */\n      revert\n        /* \"#utility.yul\":12100:12280   */\n    tag_108:\n        /* \"#utility.yul\":12148:12225   */\n      0x4e487b7100000000000000000000000000000000000000000000000000000000\n        /* \"#utility.yul\":12145:12146   */\n      0x00\n        /* \"#utility.yul\":12138:12226   */\n      mstore\n        /* \"#utility.yul\":12245:12249   */\n      0x11\n        /* \"#utility.yul\":12242:12243   */\n      0x04\n        /* \"#utility.yul\":12235:12250   */\n      mstore\n        /* \"#utility.yul\":12269:12273   */\n      0x24\n        /* \"#utility.yul\":12266:12267   */\n      0x00\n        /* \"#utility.yul\":12259:12274   */\n      revert\n        /* \"#utility.yul\":12286:12363   */\n    tag_109:\n        /* \"#utility.yul\":12323:12330   */\n      0x00\n        /* \"#utility.yul\":12352:12357   */\n      dup2\n        /* \"#utility.yul\":12341:12357   */\n      swap1\n      pop\n        /* \"#utility.yul\":12286:12363   */\n      swap2\n      swap1\n      pop\n      jump\t// out\n        /* \"#utility.yul\":12369:12602   */\n    tag_55:\n        /* \"#utility.yul\":12408:12411   */\n      0x00\n        /* \"#utility.yul\":12431:12455   */\n      tag_249\n        /* \"#utility.yul\":12449:12454   */\n      dup3\n        /* \"#utility.yul\":12431:12455   */\n      tag_109\n      jump\t// in\n    tag_249:\n        /* \"#utility.yul\":12422:12455   */\n      swap2\n      pop\n        /* \"#utility.yul\":12477:12543   */\n      0xffffffffffffffffffffffffffffffffffffffffffffffffffffffffffffffff\n        /* \"#utility.yul\":12470:12475   */\n      dup3\n        /* \"#utility.yul\":12467:12544   */\n      sub\n        /* \"#utility.yul\":12464:12567   */\n      tag_250\n      jumpi\n        /* \"#utility.yul\":12547:12565   */\n      tag_251\n      tag_108\n      jump\t// in\n    tag_251:\n        /* \"#utility.yul\":12464:12567   */\n    tag_250:\n        /* \"#utility.yul\":12594:12595   */\n      0x01\n        /* \"#utility.yul\":12587:12592   */\n      dup3\n        /* \"#utility.yul\":12583:12596   */\n      add\n        /* \"#utility.yul\":12576:12596   */\n      swap1\n      pop\n        /* \"#utility.yul\":12369:12602   */\n      swap2\n      swap1\n      pop\n      jump\t// out\n        /* \"#utility.yul\":12608:12929   */\n    tag_110:\n        /* \"#utility.yul\":12695:12699   */\n      0x00\n        /* \"#utility.yul\":12785:12803   */\n      0xffffffffffffffff\n        /* \"#utility.yul\":12777:12783   */\n      dup3\n        /* \"#utility.yul\":12774:12804   */\n      gt\n        /* \"#utility.yul\":12771:12827   */\n      iszero\n      tag_253\n      jumpi\n        /* \"#utility.yul\":12807:12825   */\n      tag_254\n      tag_70\n      jump\t// in\n    tag_254:\n        /* \"#utility.yul\":12771:12827   */\n    tag_253:\n        /* \"#utility.yul\":12857:12861   */\n      0x20\n        /* \"#utility.yul\":12849:12855   */\n      dup3\n        /* \"#utility.yul\":12845:12862   */\n      mul\n        /* \"#utility.yul\":12837:12862   */\n      swap1\n      pop\n        /* \"#utility.yul\":12917:12921   */\n      0x20\n        /* \"#utility.yul\":12911:12915   */\n      dup2\n        /* \"#utility.yul\":12907:12922   */\n      add\n        /* \"#utility.yul\":12899:12922   */\n      swap1\n      pop\n        /* \"#utility.yul\":12608:12929   */\n      swap2\n      swap1\n      pop\n      jump\t// out\n        /* \"#utility.yul\":12935:13052   */\n    tag_111:\n        /* \"#utility.yul\":13044:13045   */\n      0x00\n        /* \"#utility.yul\":13041:13042   */\n      dup1\n        /* \"#utility.yul\":13034:13046   */\n      revert\n        /* \"#utility.yul\":13058:13492   */\n    tag_112:\n        /* \"#utility.yul\":13147:13152   */\n      0x00\n        /* \"#utility.yul\":13172:13238   */\n      tag_257\n        /* \"#utility.yul\":13188:13237   */\n      tag_258\n        /* \"#utility.yul\":13230:13236   */\n      dup5\n        /* \"#utility.yul\":13188:13237   */\n      tag_73\n      jump\t// in\n    tag_258:\n        /* \"#utility.yul\":13172:13238   */\n      tag_72\n      jump\t// in\n    tag_257:\n        /* \"#utility.yul\":13163:13238   */\n      swap1\n      pop\n        /* \"#utility.yul\":13261:13267   */\n      dup3\n        /* \"#utility.yul\":13254:13259   */\n      dup2\n        /* \"#utility.yul\":13247:13268   */\n      mstore\n        /* \"#utility.yul\":13299:13303   */\n      0x20\n        /* \"#utility.yul\":13292:13297   */\n      dup2\n        /* \"#utility.yul\":13288:13304   */\n      add\n        /* \"#utility.yul\":13337:13340   */\n      dup5\n        /* \"#utility.yul\":13328:13334   */\n      dup5\n        /* \"#utility.yul\":13323:13326   */\n      dup5\n        /* \"#utility.yul\":13319:13335   */\n      add\n        /* \"#utility.yul\":13316:13341   */\n      gt\n        /* \"#utility.yul\":13313:13425   */\n      iszero\n      tag_259\n      jumpi\n        /* \"#utility.yul\":13344:13423   */\n      tag_260\n      tag_68\n      jump\t// in\n    tag_260:\n        /* \"#utility.yul\":13313:13425   */\n    tag_259:\n        /* \"#utility.yul\":13434:13486   */\n      tag_261\n        /* \"#utility.yul\":13479:13485   */\n      dup5\n        /* \"#utility.yul\":13474:13477   */\n      dup3\n        /* \"#utility.yul\":13469:13472   */\n      dup6\n        /* \"#utility.yul\":13434:13486   */\n      tag_101\n      jump\t// in\n    tag_261:\n        /* \"#utility.yul\":13153:13492   */\n      pop\n        /* \"#utility.yul\":13058:13492   */\n      swap4\n      swap3\n      pop\n      pop\n      pop\n      jump\t// out\n        /* \"#utility.yul\":13512:13867   */\n    tag_113:\n        /* \"#utility.yul\":13579:13584   */\n      0x00\n        /* \"#utility.yul\":13628:13631   */\n      dup3\n        /* \"#utility.yul\":13621:13625   */\n      0x1f\n        /* \"#utility.yul\":13613:13619   */\n      dup4\n        /* \"#utility.yul\":13609:13626   */\n      add\n        /* \"#utility.yul\":13605:13632   */\n      slt\n        /* \"#utility.yul\":13595:13717   */\n      tag_263\n      jumpi\n        /* \"#utility.yul\":13636:13715   */\n      tag_264\n      tag_67\n      jump\t// in\n    tag_264:\n        /* \"#utility.yul\":13595:13717   */\n    tag_263:\n        /* \"#utility.yul\":13746:13752   */\n      dup2\n        /* \"#utility.yul\":13740:13753   */\n      mload\n        /* \"#utility.yul\":13771:13861   */\n      tag_265\n        /* \"#utility.yul\":13857:13860   */\n      dup5\n        /* \"#utility.yul\":13849:13855   */\n      dup3\n        /* \"#utility.yul\":13842:13846   */\n      0x20\n        /* \"#utility.yul\":13834:13840   */\n      dup7\n        /* \"#utility.yul\":13830:13847   */\n      add\n        /* \"#utility.yul\":13771:13861   */\n      tag_112\n      jump\t// in\n    tag_265:\n        /* \"#utility.yul\":13762:13861   */\n      swap2\n      pop\n        /* \"#utility.yul\":13585:13867   */\n      pop\n        /* \"#utility.yul\":13512:13867   */\n      swap3\n      swap2\n      pop\n      pop\n      jump\t// out\n        /* \"#utility.yul\":13889:14849   */\n    tag_114:\n        /* \"#utility.yul\":14006:14011   */\n      0x00\n        /* \"#utility.yul\":14031:14122   */\n      tag_267\n        /* \"#utility.yul\":14047:14121   */\n      tag_268\n        /* \"#utility.yul\":14114:14120   */\n      dup5\n        /* \"#utility.yul\":14047:14121   */\n      tag_110\n      jump\t// in\n    tag_268:\n        /* \"#utility.yul\":14031:14122   */\n      tag_72\n      jump\t// in\n    tag_267:\n        /* \"#utility.yul\":14022:14122   */\n      swap1\n      pop\n        /* \"#utility.yul\":14142:14147   */\n      dup1\n        /* \"#utility.yul\":14171:14177   */\n      dup4\n        /* \"#utility.yul\":14164:14169   */\n      dup3\n        /* \"#utility.yul\":14157:14178   */\n      mstore\n        /* \"#utility.yul\":14205:14209   */\n      0x20\n        /* \"#utility.yul\":14198:14203   */\n      dup3\n        /* \"#utility.yul\":14194:14210   */\n      add\n        /* \"#utility.yul\":14187:14210   */\n      swap1\n      pop\n        /* \"#utility.yul\":14258:14262   */\n      0x20\n        /* \"#utility.yul\":14250:14256   */\n      dup5\n        /* \"#utility.yul\":14246:14263   */\n      mul\n        /* \"#utility.yul\":14238:14244   */\n      dup4\n        /* \"#utility.yul\":14234:14264   */\n      add\n        /* \"#utility.yul\":14287:14290   */\n      dup6\n        /* \"#utility.yul\":14279:14285   */\n      dup2\n        /* \"#utility.yul\":14276:14291   */\n      gt\n        /* \"#utility.yul\":14273:14395   */\n      iszero\n      tag_269\n      jumpi\n        /* \"#utility.yul\":14306:14385   */\n      tag_270\n      tag_111\n      jump\t// in\n    tag_270:\n        /* \"#utility.yul\":14273:14395   */\n    tag_269:\n        /* \"#utility.yul\":14421:14427   */\n      dup4\n        /* \"#utility.yul\":14404:14843   */\n    tag_271:\n        /* \"#utility.yul\":14438:14444   */\n      dup2\n        /* \"#utility.yul\":14433:14436   */\n      dup2\n        /* \"#utility.yul\":14430:14445   */\n      lt\n        /* \"#utility.yul\":14404:14843   */\n      iszero\n      tag_273\n      jumpi\n        /* \"#utility.yul\":14520:14523   */\n      dup1\n        /* \"#utility.yul\":14514:14524   */\n      mload\n        /* \"#utility.yul\":14556:14574   */\n      0xffffffffffffffff\n        /* \"#utility.yul\":14543:14554   */\n      dup2\n        /* \"#utility.yul\":14540:14575   */\n      gt\n        /* \"#utility.yul\":14537:14659   */\n      iszero\n      tag_274\n      jumpi\n        /* \"#utility.yul\":14578:14657   */\n      tag_275\n      tag_67\n      jump\t// in\n    tag_275:\n        /* \"#utility.yul\":14537:14659   */\n    tag_274:\n        /* \"#utility.yul\":14702:14713   */\n      dup1\n        /* \"#utility.yul\":14694:14700   */\n      dup7\n        /* \"#utility.yul\":14690:14714   */\n      add\n        /* \"#utility.yul\":14740:14798   */\n      tag_276\n        /* \"#utility.yul\":14794:14797   */\n      dup10\n        /* \"#utility.yul\":14782:14792   */\n      dup3\n        /* \"#utility.yul\":14740:14798   */\n      tag_113\n      jump\t// in\n    tag_276:\n        /* \"#utility.yul\":14735:14738   */\n      dup6\n        /* \"#utility.yul\":14728:14799   */\n      mstore\n        /* \"#utility.yul\":14828:14832   */\n      0x20\n        /* \"#utility.yul\":14823:14826   */\n      dup6\n        /* \"#utility.yul\":14819:14833   */\n      add\n        /* \"#utility.yul\":14812:14833   */\n      swap5\n      pop\n        /* \"#utility.yul\":14480:14843   */\n      pop\n      pop\n        /* \"#utility.yul\":14464:14468   */\n      0x20\n        /* \"#utility.yul\":14459:14462   */\n      dup2\n        /* \"#utility.yul\":14455:14469   */\n      add\n        /* \"#utility.yul\":14448:14469   */\n      swap1\n      pop\n        /* \"#utility.yul\":14404:14843   */\n      jump(tag_271)\n    tag_273:\n        /* \"#utility.yul\":14408:14429   */\n      pop\n        /* \"#utility.yul\":14012:14849   */\n      pop\n      pop\n        /* \"#utility.yul\":13889:14849   */\n      swap4\n      swap3\n      pop\n      pop\n      pop\n      jump\t// out\n        /* \"#utility.yul\":14871:15276   */\n    tag_115:\n        /* \"#utility.yul\":14963:14968   */\n      0x00\n        /* \"#utility.yul\":15012:15015   */\n      dup3\n        /* \"#utility.yul\":15005:15009   */\n      0x1f\n        /* \"#utility.yul\":14997:15003   */\n      dup4\n        /* \"#utility.yul\":14993:15010   */\n      add\n        /* \"#utility.yul\":14989:15016   */\n      slt\n        /* \"#utility.yul\":14979:15101   */\n      tag_278\n      jumpi\n        /* \"#utility.yul\":15020:15099   */\n      tag_279\n      tag_67\n      jump\t// in\n    tag_279:\n        /* \"#utility.yul\":14979:15101   */\n    tag_278:\n        /* \"#utility.yul\":15130:15136   */\n      dup2\n        /* \"#utility.yul\":15124:15137   */\n      mload\n        /* \"#utility.yul\":15155:15270   */\n      tag_280\n        /* \"#utility.yul\":15266:15269   */\n      dup5\n        /* \"#utility.yul\":15258:15264   */\n      dup3\n        /* \"#utility.yul\":15251:15255   */\n      0x20\n        /* \"#utility.yul\":15243:15249   */\n      dup7\n        /* \"#utility.yul\":15239:15256   */\n      add\n        /* \"#utility.yul\":15155:15270   */\n      tag_114\n      jump\t// in\n    tag_280:\n        /* \"#utility.yul\":15146:15270   */\n      swap2\n      pop\n        /* \"#utility.yul\":14969:15276   */\n      pop\n        /* \"#utility.yul\":14871:15276   */\n      swap3\n      swap2\n      pop\n      pop\n      jump\t// out\n        /* \"#utility.yul\":15282:15856   */\n    tag_63:\n        /* \"#utility.yul\":15387:15393   */\n      0x00\n        /* \"#utility.yul\":15436:15438   */\n      0x20\n        /* \"#utility.yul\":15424:15433   */\n      dup3\n        /* \"#utility.yul\":15415:15422   */\n      dup5\n        /* \"#utility.yul\":15411:15434   */\n      sub\n        /* \"#utility.yul\":15407:15439   */\n      slt\n        /* \"#utility.yul\":15404:15523   */\n      iszero\n      tag_282\n      jumpi\n        /* \"#utility.yul\":15442:15521   */\n      tag_283\n      tag_65\n      jump\t// in\n    tag_283:\n        /* \"#utility.yul\":15404:15523   */\n    tag_282:\n        /* \"#utility.yul\":15583:15584   */\n      0x00\n        /* \"#utility.yul\":15572:15581   */\n      dup3\n        /* \"#utility.yul\":15568:15585   */\n      add\n        /* \"#utility.yul\":15562:15586   */\n      mload\n        /* \"#utility.yul\":15613:15631   */\n      0xffffffffffffffff\n        /* \"#utility.yul\":15605:15611   */\n      dup2\n        /* \"#utility.yul\":15602:15632   */\n      gt\n        /* \"#utility.yul\":15599:15716   */\n      iszero\n      tag_284\n      jumpi\n        /* \"#utility.yul\":15635:15714   */\n      tag_285\n      tag_66\n      jump\t// in\n    tag_285:\n        /* \"#utility.yul\":15599:15716   */\n    tag_284:\n        /* \"#utility.yul\":15740:15839   */\n      tag_286\n        /* \"#utility.yul\":15831:15838   */\n      dup5\n        /* \"#utility.yul\":15822:15828   */\n      dup3\n        /* \"#utility.yul\":15811:15820   */\n      dup6\n        /* \"#utility.yul\":15807:15829   */\n      add\n        /* \"#utility.yul\":15740:15839   */\n      tag_115\n      jump\t// in\n    tag_286:\n        /* \"#utility.yul\":15730:15839   */\n      swap2\n      pop\n        /* \"#utility.yul\":15533:15849   */\n      pop\n        /* \"#utility.yul\":15282:15856   */\n      swap3\n      swap2\n      pop\n      pop\n      jump\t// out\n\n    auxdata: 0xa2646970667358221220c56d3d9313dbc39f72cf15fd8fd247fe6b3e1a30c96113ef3b3f97980ef2394064736f6c63430008110033\n}\n",
				"bytecode": {
					"linkReferences": {},
					"object": "608060405234801561001057600080fd5b50610d45806100206000396000f3fe608060405234801561001057600080fd5b50600436106100625760003560e01c80631e59c529146100675780633b31b59b146100835780636d71b6971461009f57806399f8b09f146100cf578063bf40fac1146100ff578063f3bd37a01461012f575b600080fd5b610081600480360381019061007c91906106b2565b61015f565b005b61009d6004803603810190610098919061070e565b6101c0565b005b6100b960048036038101906100b4919061070e565b610266565b6040516100c691906107b6565b60405180910390f35b6100e960048036038101906100e491906107fd565b6102af565b6040516100f691906108e8565b60405180910390f35b6101196004803603810190610114919061070e565b6103db565b60405161012691906107b6565b60405180910390f35b6101496004803603810190610144919061070e565b610422565b6040516101569190610a4b565b60405180910390f35b806000836040516101709190610aa9565b908152602001604051809103902060006101000a81548173ffffffffffffffffffffffffffffffffffffffff021916908373ffffffffffffffffffffffffffffffffffffffff1602179055505050565b600080826040516101d19190610aa9565b908152602001604051809103902060009054906101000a900473ffffffffffffffffffffffffffffffffffffffff1690508073ffffffffffffffffffffffffffffffffffffffff16639a5eec336040518163ffffffff1660e01b8152600401600060405180830381600087803b15801561024a57600080fd5b505af115801561025e573d6000803e3d6000fd5b505050505050565b6000818051602081018201805184825260208301602085012081835280955050505050506000915054906101000a900473ffffffffffffffffffffffffffffffffffffffff1681565b60608060005b6001805490508110156103d1576000600182815481106102d8576102d7610ac0565b5b90600052602060002090600202016040518060400160405290816000820160009054906101000a900473ffffffffffffffffffffffffffffffffffffffff1673ffffffffffffffffffffffffffffffffffffffff1673ffffffffffffffffffffffffffffffffffffffff1681526020016001820160009054906101000a900473ffffffffffffffffffffffffffffffffffffffff1673ffffffffffffffffffffffffffffffffffffffff1673ffffffffffffffffffffffffffffffffffffffff168152505090508473ffffffffffffffffffffffffffffffffffffffff16816020015150505080806103c990610b28565b9150506102b5565b8192505050919050565b600080826040516103ec9190610aa9565b908152602001604051809103902060009054906101000a900473ffffffffffffffffffffffffffffffffffffffff169050919050565b6060600080836040516104359190610aa9565b908152602001604051809103902060009054906101000a900473ffffffffffffffffffffffffffffffffffffffff16905060008173ffffffffffffffffffffffffffffffffffffffff166317377f686040518163ffffffff1660e01b8152600401600060405180830381865afa1580156104b3573d6000803e3d6000fd5b505050506040513d6000823e3d601f19601f820116820180604052508101906104dc9190610cc6565b90508092505050919050565b6000604051905090565b600080fd5b600080fd5b600080fd5b600080fd5b6000601f19601f8301169050919050565b7f4e487b7100000000000000000000000000000000000000000000000000000000600052604160045260246000fd5b61054f82610506565b810181811067ffffffffffffffff8211171561056e5761056d610517565b5b80604052505050565b60006105816104e8565b905061058d8282610546565b919050565b600067ffffffffffffffff8211156105ad576105ac610517565b5b6105b682610506565b9050602081019050919050565b82818337600083830152505050565b60006105e56105e084610592565b610577565b90508281526020810184848401111561060157610600610501565b5b61060c8482856105c3565b509392505050565b600082601f830112610629576106286104fc565b5b81356106398482602086016105d2565b91505092915050565b600073ffffffffffffffffffffffffffffffffffffffff82169050919050565b600061066d82610642565b9050919050565b600061067f82610662565b9050919050565b61068f81610674565b811461069a57600080fd5b50565b6000813590506106ac81610686565b92915050565b600080604083850312156106c9576106c86104f2565b5b600083013567ffffffffffffffff8111156106e7576106e66104f7565b5b6106f385828601610614565b92505060206107048582860161069d565b9150509250929050565b600060208284031215610724576107236104f2565b5b600082013567ffffffffffffffff811115610742576107416104f7565b5b61074e84828501610614565b91505092915050565b6000819050919050565b600061077c61077761077284610642565b610757565b610642565b9050919050565b600061078e82610761565b9050919050565b60006107a082610783565b9050919050565b6107b081610795565b82525050565b60006020820190506107cb60008301846107a7565b92915050565b6107da81610662565b81146107e557600080fd5b50565b6000813590506107f7816107d1565b92915050565b600060208284031215610813576108126104f2565b5b6000610821848285016107e8565b91505092915050565b600081519050919050565b600082825260208201905092915050565b6000819050602082019050919050565b61085f81610662565b82525050565b60006108718383610856565b60208301905092915050565b6000602082019050919050565b60006108958261082a565b61089f8185610835565b93506108aa83610846565b8060005b838110156108db5781516108c28882610865565b97506108cd8361087d565b9250506001810190506108ae565b5085935050505092915050565b60006020820190508181036000830152610902818461088a565b905092915050565b600081519050919050565b600082825260208201905092915050565b6000819050602082019050919050565b600081519050919050565b600082825260208201905092915050565b60005b83811015610970578082015181840152602081019050610955565b60008484015250505050565b600061098782610936565b6109918185610941565b93506109a1818560208601610952565b6109aa81610506565b840191505092915050565b60006109c1838361097c565b905092915050565b6000602082019050919050565b60006109e18261090a565b6109eb8185610915565b9350836020820285016109fd85610926565b8060005b85811015610a395784840389528151610a1a85826109b5565b9450610a25836109c9565b925060208a01995050600181019050610a01565b50829750879550505050505092915050565b60006020820190508181036000830152610a6581846109d6565b905092915050565b600081905092915050565b6000610a8382610936565b610a8d8185610a6d565b9350610a9d818560208601610952565b80840191505092915050565b6000610ab58284610a78565b915081905092915050565b7f4e487b7100000000000000000000000000000000000000000000000000000000600052603260045260246000fd5b7f4e487b7100000000000000000000000000000000000000000000000000000000600052601160045260246000fd5b6000819050919050565b6000610b3382610b1e565b91507fffffffffffffffffffffffffffffffffffffffffffffffffffffffffffffffff8203610b6557610b64610aef565b5b600182019050919050565b600067ffffffffffffffff821115610b8b57610b8a610517565b5b602082029050602081019050919050565b600080fd5b6000610bb4610baf84610592565b610577565b905082815260208101848484011115610bd057610bcf610501565b5b610bdb848285610952565b509392505050565b600082601f830112610bf857610bf76104fc565b5b8151610c08848260208601610ba1565b91505092915050565b6000610c24610c1f84610b70565b610577565b90508083825260208201905060208402830185811115610c4757610c46610b9c565b5b835b81811015610c8e57805167ffffffffffffffff811115610c6c57610c6b6104fc565b5b808601610c798982610be3565b85526020850194505050602081019050610c49565b5050509392505050565b600082601f830112610cad57610cac6104fc565b5b8151610cbd848260208601610c11565b91505092915050565b600060208284031215610cdc57610cdb6104f2565b5b600082015167ffffffffffffffff811115610cfa57610cf96104f7565b5b610d0684828501610c98565b9150509291505056fea2646970667358221220c56d3d9313dbc39f72cf15fd8fd247fe6b3e1a30c96113ef3b3f97980ef2394064736f6c63430008110033",
					"opcodes": "PUSH1 0x80 PUSH1 0x40 MSTORE CALLVALUE DUP1 ISZERO PUSH2 0x10 JUMPI PUSH1 0x0 DUP1 REVERT JUMPDEST POP PUSH2 0xD45 DUP1 PUSH2 0x20 PUSH1 0x0 CODECOPY PUSH1 0x0 RETURN INVALID PUSH1 0x80 PUSH1 0x40 MSTORE CALLVALUE DUP1 ISZERO PUSH2 0x10 JUMPI PUSH1 0x0 DUP1 REVERT JUMPDEST POP PUSH1 0x4 CALLDATASIZE LT PUSH2 0x62 JUMPI PUSH1 0x0 CALLDATALOAD PUSH1 0xE0 SHR DUP1 PUSH4 0x1E59C529 EQ PUSH2 0x67 JUMPI DUP1 PUSH4 0x3B31B59B EQ PUSH2 0x83 JUMPI DUP1 PUSH4 0x6D71B697 EQ PUSH2 0x9F JUMPI DUP1 PUSH4 0x99F8B09F EQ PUSH2 0xCF JUMPI DUP1 PUSH4 0xBF40FAC1 EQ PUSH2 0xFF JUMPI DUP1 PUSH4 0xF3BD37A0 EQ PUSH2 0x12F JUMPI JUMPDEST PUSH1 0x0 DUP1 REVERT JUMPDEST PUSH2 0x81 PUSH1 0x4 DUP1 CALLDATASIZE SUB DUP2 ADD SWAP1 PUSH2 0x7C SWAP2 SWAP1 PUSH2 0x6B2 JUMP JUMPDEST PUSH2 0x15F JUMP JUMPDEST STOP JUMPDEST PUSH2 0x9D PUSH1 0x4 DUP1 CALLDATASIZE SUB DUP2 ADD SWAP1 PUSH2 0x98 SWAP2 SWAP1 PUSH2 0x70E JUMP JUMPDEST PUSH2 0x1C0 JUMP JUMPDEST STOP JUMPDEST PUSH2 0xB9 PUSH1 0x4 DUP1 CALLDATASIZE SUB DUP2 ADD SWAP1 PUSH2 0xB4 SWAP2 SWAP1 PUSH2 0x70E JUMP JUMPDEST PUSH2 0x266 JUMP JUMPDEST PUSH1 0x40 MLOAD PUSH2 0xC6 SWAP2 SWAP1 PUSH2 0x7B6 JUMP JUMPDEST PUSH1 0x40 MLOAD DUP1 SWAP2 SUB SWAP1 RETURN JUMPDEST PUSH2 0xE9 PUSH1 0x4 DUP1 CALLDATASIZE SUB DUP2 ADD SWAP1 PUSH2 0xE4 SWAP2 SWAP1 PUSH2 0x7FD JUMP JUMPDEST PUSH2 0x2AF JUMP JUMPDEST PUSH1 0x40 MLOAD PUSH2 0xF6 SWAP2 SWAP1 PUSH2 0x8E8 JUMP JUMPDEST PUSH1 0x40 MLOAD DUP1 SWAP2 SUB SWAP1 RETURN JUMPDEST PUSH2 0x119 PUSH1 0x4 DUP1 CALLDATASIZE SUB DUP2 ADD SWAP1 PUSH2 0x114 SWAP2 SWAP1 PUSH2 0x70E JUMP JUMPDEST PUSH2 0x3DB JUMP JUMPDEST PUSH1 0x40 MLOAD PUSH2 0x126 SWAP2 SWAP1 PUSH2 0x7B6 JUMP JUMPDEST PUSH1 0x40 MLOAD DUP1 SWAP2 SUB SWAP1 RETURN JUMPDEST PUSH2 0x149 PUSH1 0x4 DUP1 CALLDATASIZE SUB DUP2 ADD SWAP1 PUSH2 0x144 SWAP2 SWAP1 PUSH2 0x70E JUMP JUMPDEST PUSH2 0x422 JUMP JUMPDEST PUSH1 0x40 MLOAD PUSH2 0x156 SWAP2 SWAP1 PUSH2 0xA4B JUMP JUMPDEST PUSH1 0x40 MLOAD DUP1 SWAP2 SUB SWAP1 RETURN JUMPDEST DUP1 PUSH1 0x0 DUP4 PUSH1 0x40 MLOAD PUSH2 0x170 SWAP2 SWAP1 PUSH2 0xAA9 JUMP JUMPDEST SWAP1 DUP2 MSTORE PUSH1 0x20 ADD PUSH1 0x40 MLOAD DUP1 SWAP2 SUB SWAP1 KECCAK256 PUSH1 0x0 PUSH2 0x100 EXP DUP2 SLOAD DUP2 PUSH20 0xFFFFFFFFFFFFFFFFFFFFFFFFFFFFFFFFFFFFFFFF MUL NOT AND SWAP1 DUP4 PUSH20 0xFFFFFFFFFFFFFFFFFFFFFFFFFFFFFFFFFFFFFFFF AND MUL OR SWAP1 SSTORE POP POP POP JUMP JUMPDEST PUSH1 0x0 DUP1 DUP3 PUSH1 0x40 MLOAD PUSH2 0x1D1 SWAP2 SWAP1 PUSH2 0xAA9 JUMP JUMPDEST SWAP1 DUP2 MSTORE PUSH1 0x20 ADD PUSH1 0x40 MLOAD DUP1 SWAP2 SUB SWAP1 KECCAK256 PUSH1 0x0 SWAP1 SLOAD SWAP1 PUSH2 0x100 EXP SWAP1 DIV PUSH20 0xFFFFFFFFFFFFFFFFFFFFFFFFFFFFFFFFFFFFFFFF AND SWAP1 POP DUP1 PUSH20 0xFFFFFFFFFFFFFFFFFFFFFFFFFFFFFFFFFFFFFFFF AND PUSH4 0x9A5EEC33 PUSH1 0x40 MLOAD DUP2 PUSH4 0xFFFFFFFF AND PUSH1 0xE0 SHL DUP2 MSTORE PUSH1 0x4 ADD PUSH1 0x0 PUSH1 0x40 MLOAD DUP1 DUP4 SUB DUP2 PUSH1 0x0 DUP8 DUP1 EXTCODESIZE ISZERO DUP1 ISZERO PUSH2 0x24A JUMPI PUSH1 0x0 DUP1 REVERT JUMPDEST POP GAS CALL ISZERO DUP1 ISZERO PUSH2 0x25E JUMPI RETURNDATASIZE PUSH1 0x0 DUP1 RETURNDATACOPY RETURNDATASIZE PUSH1 0x0 REVERT JUMPDEST POP POP POP POP POP POP JUMP JUMPDEST PUSH1 0x0 DUP2 DUP1 MLOAD PUSH1 0x20 DUP2 ADD DUP3 ADD DUP1 MLOAD DUP5 DUP3 MSTORE PUSH1 0x20 DUP4 ADD PUSH1 0x20 DUP6 ADD KECCAK256 DUP2 DUP4 MSTORE DUP1 SWAP6 POP POP POP POP POP POP PUSH1 0x0 SWAP2 POP SLOAD SWAP1 PUSH2 0x100 EXP SWAP1 DIV PUSH20 0xFFFFFFFFFFFFFFFFFFFFFFFFFFFFFFFFFFFFFFFF AND DUP2 JUMP JUMPDEST PUSH1 0x60 DUP1 PUSH1 0x0 JUMPDEST PUSH1 0x1 DUP1 SLOAD SWAP1 POP DUP2 LT ISZERO PUSH2 0x3D1 JUMPI PUSH1 0x0 PUSH1 0x1 DUP3 DUP2 SLOAD DUP2 LT PUSH2 0x2D8 JUMPI PUSH2 0x2D7 PUSH2 0xAC0 JUMP JUMPDEST JUMPDEST SWAP1 PUSH1 0x0 MSTORE PUSH1 0x20 PUSH1 0x0 KECCAK256 SWAP1 PUSH1 0x2 MUL ADD PUSH1 0x40 MLOAD DUP1 PUSH1 0x40 ADD PUSH1 0x40 MSTORE SWAP1 DUP2 PUSH1 0x0 DUP3 ADD PUSH1 0x0 SWAP1 SLOAD SWAP1 PUSH2 0x100 EXP SWAP1 DIV PUSH20 0xFFFFFFFFFFFFFFFFFFFFFFFFFFFFFFFFFFFFFFFF AND PUSH20 0xFFFFFFFFFFFFFFFFFFFFFFFFFFFFFFFFFFFFFFFF AND PUSH20 0xFFFFFFFFFFFFFFFFFFFFFFFFFFFFFFFFFFFFFFFF AND DUP2 MSTORE PUSH1 0x20 ADD PUSH1 0x1 DUP3 ADD PUSH1 0x0 SWAP1 SLOAD SWAP1 PUSH2 0x100 EXP SWAP1 DIV PUSH20 0xFFFFFFFFFFFFFFFFFFFFFFFFFFFFFFFFFFFFFFFF AND PUSH20 0xFFFFFFFFFFFFFFFFFFFFFFFFFFFFFFFFFFFFFFFF AND PUSH20 0xFFFFFFFFFFFFFFFFFFFFFFFFFFFFFFFFFFFFFFFF AND DUP2 MSTORE POP POP SWAP1 POP DUP5 PUSH20 0xFFFFFFFFFFFFFFFFFFFFFFFFFFFFFFFFFFFFFFFF AND DUP2 PUSH1 0x20 ADD MLOAD POP POP POP DUP1 DUP1 PUSH2 0x3C9 SWAP1 PUSH2 0xB28 JUMP JUMPDEST SWAP2 POP POP PUSH2 0x2B5 JUMP JUMPDEST DUP2 SWAP3 POP POP POP SWAP2 SWAP1 POP JUMP JUMPDEST PUSH1 0x0 DUP1 DUP3 PUSH1 0x40 MLOAD PUSH2 0x3EC SWAP2 SWAP1 PUSH2 0xAA9 JUMP JUMPDEST SWAP1 DUP2 MSTORE PUSH1 0x20 ADD PUSH1 0x40 MLOAD DUP1 SWAP2 SUB SWAP1 KECCAK256 PUSH1 0x0 SWAP1 SLOAD SWAP1 PUSH2 0x100 EXP SWAP1 DIV PUSH20 0xFFFFFFFFFFFFFFFFFFFFFFFFFFFFFFFFFFFFFFFF AND SWAP1 POP SWAP2 SWAP1 POP JUMP JUMPDEST PUSH1 0x60 PUSH1 0x0 DUP1 DUP4 PUSH1 0x40 MLOAD PUSH2 0x435 SWAP2 SWAP1 PUSH2 0xAA9 JUMP JUMPDEST SWAP1 DUP2 MSTORE PUSH1 0x20 ADD PUSH1 0x40 MLOAD DUP1 SWAP2 SUB SWAP1 KECCAK256 PUSH1 0x0 SWAP1 SLOAD SWAP1 PUSH2 0x100 EXP SWAP1 DIV PUSH20 0xFFFFFFFFFFFFFFFFFFFFFFFFFFFFFFFFFFFFFFFF AND SWAP1 POP PUSH1 0x0 DUP2 PUSH20 0xFFFFFFFFFFFFFFFFFFFFFFFFFFFFFFFFFFFFFFFF AND PUSH4 0x17377F68 PUSH1 0x40 MLOAD DUP2 PUSH4 0xFFFFFFFF AND PUSH1 0xE0 SHL DUP2 MSTORE PUSH1 0x4 ADD PUSH1 0x0 PUSH1 0x40 MLOAD DUP1 DUP4 SUB DUP2 DUP7 GAS STATICCALL ISZERO DUP1 ISZERO PUSH2 0x4B3 JUMPI RETURNDATASIZE PUSH1 0x0 DUP1 RETURNDATACOPY RETURNDATASIZE PUSH1 0x0 REVERT JUMPDEST POP POP POP POP PUSH1 0x40 MLOAD RETURNDATASIZE PUSH1 0x0 DUP3 RETURNDATACOPY RETURNDATASIZE PUSH1 0x1F NOT PUSH1 0x1F DUP3 ADD AND DUP3 ADD DUP1 PUSH1 0x40 MSTORE POP DUP2 ADD SWAP1 PUSH2 0x4DC SWAP2 SWAP1 PUSH2 0xCC6 JUMP JUMPDEST SWAP1 POP DUP1 SWAP3 POP POP POP SWAP2 SWAP1 POP JUMP JUMPDEST PUSH1 0x0 PUSH1 0x40 MLOAD SWAP1 POP SWAP1 JUMP JUMPDEST PUSH1 0x0 DUP1 REVERT JUMPDEST PUSH1 0x0 DUP1 REVERT JUMPDEST PUSH1 0x0 DUP1 REVERT JUMPDEST PUSH1 0x0 DUP1 REVERT JUMPDEST PUSH1 0x0 PUSH1 0x1F NOT PUSH1 0x1F DUP4 ADD AND SWAP1 POP SWAP2 SWAP1 POP JUMP JUMPDEST PUSH32 0x4E487B7100000000000000000000000000000000000000000000000000000000 PUSH1 0x0 MSTORE PUSH1 0x41 PUSH1 0x4 MSTORE PUSH1 0x24 PUSH1 0x0 REVERT JUMPDEST PUSH2 0x54F DUP3 PUSH2 0x506 JUMP JUMPDEST DUP2 ADD DUP2 DUP2 LT PUSH8 0xFFFFFFFFFFFFFFFF DUP3 GT OR ISZERO PUSH2 0x56E JUMPI PUSH2 0x56D PUSH2 0x517 JUMP JUMPDEST JUMPDEST DUP1 PUSH1 0x40 MSTORE POP POP POP JUMP JUMPDEST PUSH1 0x0 PUSH2 0x581 PUSH2 0x4E8 JUMP JUMPDEST SWAP1 POP PUSH2 0x58D DUP3 DUP3 PUSH2 0x546 JUMP JUMPDEST SWAP2 SWAP1 POP JUMP JUMPDEST PUSH1 0x0 PUSH8 0xFFFFFFFFFFFFFFFF DUP3 GT ISZERO PUSH2 0x5AD JUMPI PUSH2 0x5AC PUSH2 0x517 JUMP JUMPDEST JUMPDEST PUSH2 0x5B6 DUP3 PUSH2 0x506 JUMP JUMPDEST SWAP1 POP PUSH1 0x20 DUP2 ADD SWAP1 POP SWAP2 SWAP1 POP JUMP JUMPDEST DUP3 DUP2 DUP4 CALLDATACOPY PUSH1 0x0 DUP4 DUP4 ADD MSTORE POP POP POP JUMP JUMPDEST PUSH1 0x0 PUSH2 0x5E5 PUSH2 0x5E0 DUP5 PUSH2 0x592 JUMP JUMPDEST PUSH2 0x577 JUMP JUMPDEST SWAP1 POP DUP3 DUP2 MSTORE PUSH1 0x20 DUP2 ADD DUP5 DUP5 DUP5 ADD GT ISZERO PUSH2 0x601 JUMPI PUSH2 0x600 PUSH2 0x501 JUMP JUMPDEST JUMPDEST PUSH2 0x60C DUP5 DUP3 DUP6 PUSH2 0x5C3 JUMP JUMPDEST POP SWAP4 SWAP3 POP POP POP JUMP JUMPDEST PUSH1 0x0 DUP3 PUSH1 0x1F DUP4 ADD SLT PUSH2 0x629 JUMPI PUSH2 0x628 PUSH2 0x4FC JUMP JUMPDEST JUMPDEST DUP2 CALLDATALOAD PUSH2 0x639 DUP5 DUP3 PUSH1 0x20 DUP7 ADD PUSH2 0x5D2 JUMP JUMPDEST SWAP2 POP POP SWAP3 SWAP2 POP POP JUMP JUMPDEST PUSH1 0x0 PUSH20 0xFFFFFFFFFFFFFFFFFFFFFFFFFFFFFFFFFFFFFFFF DUP3 AND SWAP1 POP SWAP2 SWAP1 POP JUMP JUMPDEST PUSH1 0x0 PUSH2 0x66D DUP3 PUSH2 0x642 JUMP JUMPDEST SWAP1 POP SWAP2 SWAP1 POP JUMP JUMPDEST PUSH1 0x0 PUSH2 0x67F DUP3 PUSH2 0x662 JUMP JUMPDEST SWAP1 POP SWAP2 SWAP1 POP JUMP JUMPDEST PUSH2 0x68F DUP2 PUSH2 0x674 JUMP JUMPDEST DUP2 EQ PUSH2 0x69A JUMPI PUSH1 0x0 DUP1 REVERT JUMPDEST POP JUMP JUMPDEST PUSH1 0x0 DUP2 CALLDATALOAD SWAP1 POP PUSH2 0x6AC DUP2 PUSH2 0x686 JUMP JUMPDEST SWAP3 SWAP2 POP POP JUMP JUMPDEST PUSH1 0x0 DUP1 PUSH1 0x40 DUP4 DUP6 SUB SLT ISZERO PUSH2 0x6C9 JUMPI PUSH2 0x6C8 PUSH2 0x4F2 JUMP JUMPDEST JUMPDEST PUSH1 0x0 DUP4 ADD CALLDATALOAD PUSH8 0xFFFFFFFFFFFFFFFF DUP2 GT ISZERO PUSH2 0x6E7 JUMPI PUSH2 0x6E6 PUSH2 0x4F7 JUMP JUMPDEST JUMPDEST PUSH2 0x6F3 DUP6 DUP3 DUP7 ADD PUSH2 0x614 JUMP JUMPDEST SWAP3 POP POP PUSH1 0x20 PUSH2 0x704 DUP6 DUP3 DUP7 ADD PUSH2 0x69D JUMP JUMPDEST SWAP2 POP POP SWAP3 POP SWAP3 SWAP1 POP JUMP JUMPDEST PUSH1 0x0 PUSH1 0x20 DUP3 DUP5 SUB SLT ISZERO PUSH2 0x724 JUMPI PUSH2 0x723 PUSH2 0x4F2 JUMP JUMPDEST JUMPDEST PUSH1 0x0 DUP3 ADD CALLDATALOAD PUSH8 0xFFFFFFFFFFFFFFFF DUP2 GT ISZERO PUSH2 0x742 JUMPI PUSH2 0x741 PUSH2 0x4F7 JUMP JUMPDEST JUMPDEST PUSH2 0x74E DUP5 DUP3 DUP6 ADD PUSH2 0x614 JUMP JUMPDEST SWAP2 POP POP SWAP3 SWAP2 POP POP JUMP JUMPDEST PUSH1 0x0 DUP2 SWAP1 POP SWAP2 SWAP1 POP JUMP JUMPDEST PUSH1 0x0 PUSH2 0x77C PUSH2 0x777 PUSH2 0x772 DUP5 PUSH2 0x642 JUMP JUMPDEST PUSH2 0x757 JUMP JUMPDEST PUSH2 0x642 JUMP JUMPDEST SWAP1 POP SWAP2 SWAP1 POP JUMP JUMPDEST PUSH1 0x0 PUSH2 0x78E DUP3 PUSH2 0x761 JUMP JUMPDEST SWAP1 POP SWAP2 SWAP1 POP JUMP JUMPDEST PUSH1 0x0 PUSH2 0x7A0 DUP3 PUSH2 0x783 JUMP JUMPDEST SWAP1 POP SWAP2 SWAP1 POP JUMP JUMPDEST PUSH2 0x7B0 DUP2 PUSH2 0x795 JUMP JUMPDEST DUP3 MSTORE POP POP JUMP JUMPDEST PUSH1 0x0 PUSH1 0x20 DUP3 ADD SWAP1 POP PUSH2 0x7CB PUSH1 0x0 DUP4 ADD DUP5 PUSH2 0x7A7 JUMP JUMPDEST SWAP3 SWAP2 POP POP JUMP JUMPDEST PUSH2 0x7DA DUP2 PUSH2 0x662 JUMP JUMPDEST DUP2 EQ PUSH2 0x7E5 JUMPI PUSH1 0x0 DUP1 REVERT JUMPDEST POP JUMP JUMPDEST PUSH1 0x0 DUP2 CALLDATALOAD SWAP1 POP PUSH2 0x7F7 DUP2 PUSH2 0x7D1 JUMP JUMPDEST SWAP3 SWAP2 POP POP JUMP JUMPDEST PUSH1 0x0 PUSH1 0x20 DUP3 DUP5 SUB SLT ISZERO PUSH2 0x813 JUMPI PUSH2 0x812 PUSH2 0x4F2 JUMP JUMPDEST JUMPDEST PUSH1 0x0 PUSH2 0x821 DUP5 DUP3 DUP6 ADD PUSH2 0x7E8 JUMP JUMPDEST SWAP2 POP POP SWAP3 SWAP2 POP POP JUMP JUMPDEST PUSH1 0x0 DUP2 MLOAD SWAP1 POP SWAP2 SWAP1 POP JUMP JUMPDEST PUSH1 0x0 DUP3 DUP3 MSTORE PUSH1 0x20 DUP3 ADD SWAP1 POP SWAP3 SWAP2 POP POP JUMP JUMPDEST PUSH1 0x0 DUP2 SWAP1 POP PUSH1 0x20 DUP3 ADD SWAP1 POP SWAP2 SWAP1 POP JUMP JUMPDEST PUSH2 0x85F DUP2 PUSH2 0x662 JUMP JUMPDEST DUP3 MSTORE POP POP JUMP JUMPDEST PUSH1 0x0 PUSH2 0x871 DUP4 DUP4 PUSH2 0x856 JUMP JUMPDEST PUSH1 0x20 DUP4 ADD SWAP1 POP SWAP3 SWAP2 POP POP JUMP JUMPDEST PUSH1 0x0 PUSH1 0x20 DUP3 ADD SWAP1 POP SWAP2 SWAP1 POP JUMP JUMPDEST PUSH1 0x0 PUSH2 0x895 DUP3 PUSH2 0x82A JUMP JUMPDEST PUSH2 0x89F DUP2 DUP6 PUSH2 0x835 JUMP JUMPDEST SWAP4 POP PUSH2 0x8AA DUP4 PUSH2 0x846 JUMP JUMPDEST DUP1 PUSH1 0x0 JUMPDEST DUP4 DUP2 LT ISZERO PUSH2 0x8DB JUMPI DUP2 MLOAD PUSH2 0x8C2 DUP9 DUP3 PUSH2 0x865 JUMP JUMPDEST SWAP8 POP PUSH2 0x8CD DUP4 PUSH2 0x87D JUMP JUMPDEST SWAP3 POP POP PUSH1 0x1 DUP2 ADD SWAP1 POP PUSH2 0x8AE JUMP JUMPDEST POP DUP6 SWAP4 POP POP POP POP SWAP3 SWAP2 POP POP JUMP JUMPDEST PUSH1 0x0 PUSH1 0x20 DUP3 ADD SWAP1 POP DUP2 DUP2 SUB PUSH1 0x0 DUP4 ADD MSTORE PUSH2 0x902 DUP2 DUP5 PUSH2 0x88A JUMP JUMPDEST SWAP1 POP SWAP3 SWAP2 POP POP JUMP JUMPDEST PUSH1 0x0 DUP2 MLOAD SWAP1 POP SWAP2 SWAP1 POP JUMP JUMPDEST PUSH1 0x0 DUP3 DUP3 MSTORE PUSH1 0x20 DUP3 ADD SWAP1 POP SWAP3 SWAP2 POP POP JUMP JUMPDEST PUSH1 0x0 DUP2 SWAP1 POP PUSH1 0x20 DUP3 ADD SWAP1 POP SWAP2 SWAP1 POP JUMP JUMPDEST PUSH1 0x0 DUP2 MLOAD SWAP1 POP SWAP2 SWAP1 POP JUMP JUMPDEST PUSH1 0x0 DUP3 DUP3 MSTORE PUSH1 0x20 DUP3 ADD SWAP1 POP SWAP3 SWAP2 POP POP JUMP JUMPDEST PUSH1 0x0 JUMPDEST DUP4 DUP2 LT ISZERO PUSH2 0x970 JUMPI DUP1 DUP3 ADD MLOAD DUP2 DUP5 ADD MSTORE PUSH1 0x20 DUP2 ADD SWAP1 POP PUSH2 0x955 JUMP JUMPDEST PUSH1 0x0 DUP5 DUP5 ADD MSTORE POP POP POP POP JUMP JUMPDEST PUSH1 0x0 PUSH2 0x987 DUP3 PUSH2 0x936 JUMP JUMPDEST PUSH2 0x991 DUP2 DUP6 PUSH2 0x941 JUMP JUMPDEST SWAP4 POP PUSH2 0x9A1 DUP2 DUP6 PUSH1 0x20 DUP7 ADD PUSH2 0x952 JUMP JUMPDEST PUSH2 0x9AA DUP2 PUSH2 0x506 JUMP JUMPDEST DUP5 ADD SWAP2 POP POP SWAP3 SWAP2 POP POP JUMP JUMPDEST PUSH1 0x0 PUSH2 0x9C1 DUP4 DUP4 PUSH2 0x97C JUMP JUMPDEST SWAP1 POP SWAP3 SWAP2 POP POP JUMP JUMPDEST PUSH1 0x0 PUSH1 0x20 DUP3 ADD SWAP1 POP SWAP2 SWAP1 POP JUMP JUMPDEST PUSH1 0x0 PUSH2 0x9E1 DUP3 PUSH2 0x90A JUMP JUMPDEST PUSH2 0x9EB DUP2 DUP6 PUSH2 0x915 JUMP JUMPDEST SWAP4 POP DUP4 PUSH1 0x20 DUP3 MUL DUP6 ADD PUSH2 0x9FD DUP6 PUSH2 0x926 JUMP JUMPDEST DUP1 PUSH1 0x0 JUMPDEST DUP6 DUP2 LT ISZERO PUSH2 0xA39 JUMPI DUP5 DUP5 SUB DUP10 MSTORE DUP2 MLOAD PUSH2 0xA1A DUP6 DUP3 PUSH2 0x9B5 JUMP JUMPDEST SWAP5 POP PUSH2 0xA25 DUP4 PUSH2 0x9C9 JUMP JUMPDEST SWAP3 POP PUSH1 0x20 DUP11 ADD SWAP10 POP POP PUSH1 0x1 DUP2 ADD SWAP1 POP PUSH2 0xA01 JUMP JUMPDEST POP DUP3 SWAP8 POP DUP8 SWAP6 POP POP POP POP POP POP SWAP3 SWAP2 POP POP JUMP JUMPDEST PUSH1 0x0 PUSH1 0x20 DUP3 ADD SWAP1 POP DUP2 DUP2 SUB PUSH1 0x0 DUP4 ADD MSTORE PUSH2 0xA65 DUP2 DUP5 PUSH2 0x9D6 JUMP JUMPDEST SWAP1 POP SWAP3 SWAP2 POP POP JUMP JUMPDEST PUSH1 0x0 DUP2 SWAP1 POP SWAP3 SWAP2 POP POP JUMP JUMPDEST PUSH1 0x0 PUSH2 0xA83 DUP3 PUSH2 0x936 JUMP JUMPDEST PUSH2 0xA8D DUP2 DUP6 PUSH2 0xA6D JUMP JUMPDEST SWAP4 POP PUSH2 0xA9D DUP2 DUP6 PUSH1 0x20 DUP7 ADD PUSH2 0x952 JUMP JUMPDEST DUP1 DUP5 ADD SWAP2 POP POP SWAP3 SWAP2 POP POP JUMP JUMPDEST PUSH1 0x0 PUSH2 0xAB5 DUP3 DUP5 PUSH2 0xA78 JUMP JUMPDEST SWAP2 POP DUP2 SWAP1 POP SWAP3 SWAP2 POP POP JUMP JUMPDEST PUSH32 0x4E487B7100000000000000000000000000000000000000000000000000000000 PUSH1 0x0 MSTORE PUSH1 0x32 PUSH1 0x4 MSTORE PUSH1 0x24 PUSH1 0x0 REVERT JUMPDEST PUSH32 0x4E487B7100000000000000000000000000000000000000000000000000000000 PUSH1 0x0 MSTORE PUSH1 0x11 PUSH1 0x4 MSTORE PUSH1 0x24 PUSH1 0x0 REVERT JUMPDEST PUSH1 0x0 DUP2 SWAP1 POP SWAP2 SWAP1 POP JUMP JUMPDEST PUSH1 0x0 PUSH2 0xB33 DUP3 PUSH2 0xB1E JUMP JUMPDEST SWAP2 POP PUSH32 0xFFFFFFFFFFFFFFFFFFFFFFFFFFFFFFFFFFFFFFFFFFFFFFFFFFFFFFFFFFFFFFFF DUP3 SUB PUSH2 0xB65 JUMPI PUSH2 0xB64 PUSH2 0xAEF JUMP JUMPDEST JUMPDEST PUSH1 0x1 DUP3 ADD SWAP1 POP SWAP2 SWAP1 POP JUMP JUMPDEST PUSH1 0x0 PUSH8 0xFFFFFFFFFFFFFFFF DUP3 GT ISZERO PUSH2 0xB8B JUMPI PUSH2 0xB8A PUSH2 0x517 JUMP JUMPDEST JUMPDEST PUSH1 0x20 DUP3 MUL SWAP1 POP PUSH1 0x20 DUP2 ADD SWAP1 POP SWAP2 SWAP1 POP JUMP JUMPDEST PUSH1 0x0 DUP1 REVERT JUMPDEST PUSH1 0x0 PUSH2 0xBB4 PUSH2 0xBAF DUP5 PUSH2 0x592 JUMP JUMPDEST PUSH2 0x577 JUMP JUMPDEST SWAP1 POP DUP3 DUP2 MSTORE PUSH1 0x20 DUP2 ADD DUP5 DUP5 DUP5 ADD GT ISZERO PUSH2 0xBD0 JUMPI PUSH2 0xBCF PUSH2 0x501 JUMP JUMPDEST JUMPDEST PUSH2 0xBDB DUP5 DUP3 DUP6 PUSH2 0x952 JUMP JUMPDEST POP SWAP4 SWAP3 POP POP POP JUMP JUMPDEST PUSH1 0x0 DUP3 PUSH1 0x1F DUP4 ADD SLT PUSH2 0xBF8 JUMPI PUSH2 0xBF7 PUSH2 0x4FC JUMP JUMPDEST JUMPDEST DUP2 MLOAD PUSH2 0xC08 DUP5 DUP3 PUSH1 0x20 DUP7 ADD PUSH2 0xBA1 JUMP JUMPDEST SWAP2 POP POP SWAP3 SWAP2 POP POP JUMP JUMPDEST PUSH1 0x0 PUSH2 0xC24 PUSH2 0xC1F DUP5 PUSH2 0xB70 JUMP JUMPDEST PUSH2 0x577 JUMP JUMPDEST SWAP1 POP DUP1 DUP4 DUP3 MSTORE PUSH1 0x20 DUP3 ADD SWAP1 POP PUSH1 0x20 DUP5 MUL DUP4 ADD DUP6 DUP2 GT ISZERO PUSH2 0xC47 JUMPI PUSH2 0xC46 PUSH2 0xB9C JUMP JUMPDEST JUMPDEST DUP4 JUMPDEST DUP2 DUP2 LT ISZERO PUSH2 0xC8E JUMPI DUP1 MLOAD PUSH8 0xFFFFFFFFFFFFFFFF DUP2 GT ISZERO PUSH2 0xC6C JUMPI PUSH2 0xC6B PUSH2 0x4FC JUMP JUMPDEST JUMPDEST DUP1 DUP7 ADD PUSH2 0xC79 DUP10 DUP3 PUSH2 0xBE3 JUMP JUMPDEST DUP6 MSTORE PUSH1 0x20 DUP6 ADD SWAP5 POP POP POP PUSH1 0x20 DUP2 ADD SWAP1 POP PUSH2 0xC49 JUMP JUMPDEST POP POP POP SWAP4 SWAP3 POP POP POP JUMP JUMPDEST PUSH1 0x0 DUP3 PUSH1 0x1F DUP4 ADD SLT PUSH2 0xCAD JUMPI PUSH2 0xCAC PUSH2 0x4FC JUMP JUMPDEST JUMPDEST DUP2 MLOAD PUSH2 0xCBD DUP5 DUP3 PUSH1 0x20 DUP7 ADD PUSH2 0xC11 JUMP JUMPDEST SWAP2 POP POP SWAP3 SWAP2 POP POP JUMP JUMPDEST PUSH1 0x0 PUSH1 0x20 DUP3 DUP5 SUB SLT ISZERO PUSH2 0xCDC JUMPI PUSH2 0xCDB PUSH2 0x4F2 JUMP JUMPDEST JUMPDEST PUSH1 0x0 DUP3 ADD MLOAD PUSH8 0xFFFFFFFFFFFFFFFF DUP2 GT ISZERO PUSH2 0xCFA JUMPI PUSH2 0xCF9 PUSH2 0x4F7 JUMP JUMPDEST JUMPDEST PUSH2 0xD06 DUP5 DUP3 DUP6 ADD PUSH2 0xC98 JUMP JUMPDEST SWAP2 POP POP SWAP3 SWAP2 POP POP JUMP INVALID LOG2 PUSH5 0x6970667358 0x22 SLT KECCAK256 0xC5 PUSH14 0x3D9313DBC39F72CF15FD8FD247FE PUSH12 0x3E1A30C96113EF3B3F97980E CALLCODE CODECOPY BLOCKHASH PUSH5 0x736F6C6343 STOP ADDMOD GT STOP CALLER "
				},
				"gasEstimates": {
					"creation": {
						"codeDepositCost": "679400",
						"executionCost": "715",
						"totalCost": "680115"
					},
					"external": {
						"checkRequestsByShareholder(address)": "infinite",
						"getAddress(string)": "infinite",
						"nodesMap(string)": "infinite",
						"notifyShareHolders(string)": "infinite",
						"regenerateSecret(string)": "infinite",
						"register(string,address)": "infinite"
					}
				},
				"methodIdentifiers": {
					"checkRequestsByShareholder(address)": "99f8b09f",
					"getAddress(string)": "bf40fac1",
					"nodesMap(string)": "6d71b697",
					"notifyShareHolders(string)": "3b31b59b",
					"regenerateSecret(string)": "f3bd37a0",
					"register(string,address)": "1e59c529"
				}
			},
			"storageLayout": {
				"storage": [
					{
						"astId": 12,
						"contract": "contracts/PublicContract.sol:PublicContract",
						"label": "nodesMap",
						"offset": 0,
						"slot": "0",
						"type": "t_mapping(t_string_memory_ptr,t_contract(Node)428)"
					},
					{
						"astId": 16,
						"contract": "contracts/PublicContract.sol:PublicContract",
						"label": "holderRequests",
						"offset": 0,
						"slot": "1",
						"type": "t_array(t_struct(AddHolderRequest)7_storage)dyn_storage"
					}
				],
				"types": {
					"t_address": {
						"encoding": "inplace",
						"label": "address",
						"numberOfBytes": "20"
					},
					"t_array(t_struct(AddHolderRequest)7_storage)dyn_storage": {
						"base": "t_struct(AddHolderRequest)7_storage",
						"encoding": "dynamic_array",
						"label": "struct PublicContract.AddHolderRequest[]",
						"numberOfBytes": "32"
					},
					"t_contract(Node)428": {
						"encoding": "inplace",
						"label": "contract Node",
						"numberOfBytes": "20"
					},
					"t_mapping(t_string_memory_ptr,t_contract(Node)428)": {
						"encoding": "mapping",
						"key": "t_string_memory_ptr",
						"label": "mapping(string => contract Node)",
						"numberOfBytes": "32",
						"value": "t_contract(Node)428"
					},
					"t_string_memory_ptr": {
						"encoding": "bytes",
						"label": "string",
						"numberOfBytes": "32"
					},
					"t_struct(AddHolderRequest)7_storage": {
						"encoding": "inplace",
						"label": "struct PublicContract.AddHolderRequest",
						"members": [
							{
								"astId": 4,
								"contract": "contracts/PublicContract.sol:PublicContract",
								"label": "secretOwner",
								"offset": 0,
								"slot": "0",
								"type": "t_address"
							},
							{
								"astId": 6,
								"contract": "contracts/PublicContract.sol:PublicContract",
								"label": "shareHolder",
								"offset": 0,
								"slot": "1",
								"type": "t_address"
							}
						],
						"numberOfBytes": "64"
					}
				}
			},
			"userdoc": {
				"kind": "user",
				"methods": {},
				"version": 1
			}
		}
	}
}