{
	"contracts/ShareSecret.sol": {
		"Node": {
			"abi": [
				{
					"inputs": [
						{
							"internalType": "string[]",
							"name": "secretShares",
							"type": "string[]"
						}
					],
					"stateMutability": "nonpayable",
					"type": "constructor"
				},
				{
					"inputs": [],
					"name": "acceptInvitation",
					"outputs": [
						{
							"internalType": "bool",
							"name": "",
							"type": "bool"
						}
					],
					"stateMutability": "nonpayable",
					"type": "function"
				},
				{
					"inputs": [
						{
							"internalType": "address payable",
							"name": "shareHolder",
							"type": "address"
						}
					],
					"name": "addShareHolders",
					"outputs": [],
					"stateMutability": "nonpayable",
					"type": "function"
				},
				{
					"inputs": [],
					"name": "askingFromHolders",
					"outputs": [],
					"stateMutability": "nonpayable",
					"type": "function"
				},
				{
					"inputs": [],
					"name": "checkRequestsForBeAHolder",
					"outputs": [
						{
							"internalType": "address[]",
							"name": "",
							"type": "address[]"
						}
					],
					"stateMutability": "view",
					"type": "function"
				},
				{
					"inputs": [],
					"name": "distribute",
					"outputs": [],
					"stateMutability": "nonpayable",
					"type": "function"
				},
				{
					"inputs": [],
					"name": "getShareHolders",
					"outputs": [
						{
							"internalType": "address payable[]",
							"name": "",
							"type": "address[]"
						}
					],
					"stateMutability": "view",
					"type": "function"
				},
				{
					"inputs": [],
					"name": "getShares",
					"outputs": [
						{
							"internalType": "string[]",
							"name": "",
							"type": "string[]"
						}
					],
					"stateMutability": "view",
					"type": "function"
				},
				{
					"inputs": [
						{
							"internalType": "bool",
							"name": "acceptStatus",
							"type": "bool"
						}
					],
					"name": "notifySecretOwner",
					"outputs": [],
					"stateMutability": "nonpayable",
					"type": "function"
				},
				{
					"inputs": [],
					"name": "owner",
					"outputs": [
						{
							"internalType": "address",
							"name": "",
							"type": "address"
						}
					],
					"stateMutability": "view",
					"type": "function"
				},
				{
					"inputs": [],
					"name": "regenerate",
					"outputs": [
						{
							"internalType": "string[]",
							"name": "",
							"type": "string[]"
						}
					],
					"stateMutability": "view",
					"type": "function"
				},
				{
					"inputs": [],
					"name": "rejectInvitation",
					"outputs": [
						{
							"internalType": "bool",
							"name": "",
							"type": "bool"
						}
					],
					"stateMutability": "nonpayable",
					"type": "function"
				},
				{
					"inputs": [
						{
							"internalType": "address",
							"name": "ownerAddress",
							"type": "address"
						}
					],
					"name": "rejectSecretRequest",
					"outputs": [],
					"stateMutability": "view",
					"type": "function"
				},
				{
					"inputs": [
						{
							"internalType": "address",
							"name": "ownerAddress",
							"type": "address"
						}
					],
					"name": "releaseSecret",
					"outputs": [
						{
							"internalType": "string",
							"name": "",
							"type": "string"
						}
					],
					"stateMutability": "view",
					"type": "function"
				},
				{
					"inputs": [
						{
							"internalType": "uint256",
							"name": "index",
							"type": "uint256"
						}
					],
					"name": "remove",
					"outputs": [],
					"stateMutability": "nonpayable",
					"type": "function"
				},
				{
					"inputs": [
						{
							"internalType": "address payable",
							"name": "shareHolder",
							"type": "address"
						}
					],
					"name": "removeShareHolders",
					"outputs": [],
					"stateMutability": "nonpayable",
					"type": "function"
				},
				{
					"inputs": [],
					"name": "repayGasFee",
					"outputs": [],
					"stateMutability": "nonpayable",
					"type": "function"
				},
				{
					"inputs": [
						{
							"internalType": "uint256",
							"name": "",
							"type": "uint256"
						}
					],
					"name": "shareHolders",
					"outputs": [
						{
							"internalType": "address payable",
							"name": "",
							"type": "address"
						}
					],
					"stateMutability": "view",
					"type": "function"
				},
				{
					"inputs": [
						{
							"internalType": "address",
							"name": "",
							"type": "address"
						}
					],
					"name": "shareHoldersMap",
					"outputs": [
						{
							"internalType": "string",
							"name": "",
							"type": "string"
						}
					],
					"stateMutability": "view",
					"type": "function"
				},
				{
					"inputs": [
						{
							"internalType": "uint256",
							"name": "",
							"type": "uint256"
						}
					],
					"name": "shares",
					"outputs": [
						{
							"internalType": "string",
							"name": "",
							"type": "string"
						}
					],
					"stateMutability": "view",
					"type": "function"
				},
				{
					"inputs": [
						{
							"internalType": "address",
							"name": "",
							"type": "address"
						}
					],
					"name": "sharesMap",
					"outputs": [
						{
							"internalType": "string",
							"name": "",
							"type": "string"
						}
					],
					"stateMutability": "view",
					"type": "function"
				}
			],
			"devdoc": {
				"kind": "dev",
				"methods": {},
				"version": 1
			},
			"evm": {
				"assembly": "    /* \"contracts/ShareSecret.sol\":110:3834  contract Node {... */\n  mstore(0x40, 0x80)\n    /* \"contracts/ShareSecret.sol\":480:724  constructor(string[] memory secretShares) {... */\n  callvalue\n  dup1\n  iszero\n  tag_1\n  jumpi\n  0x00\n  dup1\n  revert\ntag_1:\n  pop\n  mload(0x40)\n  sub(codesize, bytecodeSize)\n  dup1\n  bytecodeSize\n  dup4\n  codecopy\n  dup2\n  dup2\n  add\n  0x40\n  mstore\n  dup2\n  add\n  swap1\n  tag_2\n  swap2\n  swap1\n  tag_3\n  jump\t// in\ntag_2:\n    /* \"contracts/ShareSecret.sol\":540:550  msg.sender */\n  caller\n    /* \"contracts/ShareSecret.sol\":532:537  owner */\n  0x00\n  dup1\n    /* \"contracts/ShareSecret.sol\":532:550  owner = msg.sender */\n  0x0100\n  exp\n  dup2\n  sload\n  dup2\n  0xffffffffffffffffffffffffffffffffffffffff\n  mul\n  not\n  and\n  swap1\n  dup4\n  0xffffffffffffffffffffffffffffffffffffffff\n  and\n  mul\n  or\n  swap1\n  sstore\n  pop\n    /* \"contracts/ShareSecret.sol\":568:580  secretShares */\n  dup1\n    /* \"contracts/ShareSecret.sol\":560:566  shares */\n  0x02\n    /* \"contracts/ShareSecret.sol\":560:580  shares =secretShares */\n  swap1\n  dup1\n  mload\n  swap1\n  0x20\n  add\n  swap1\n  tag_6\n  swap3\n  swap2\n  swap1\n  tag_7\n  jump\t// in\ntag_6:\n  pop\n    /* \"contracts/ShareSecret.sol\":674:716  0xd9145CCE52D386f254917e481eB44e9943F39138 */\n  0xd9145cce52d386f254917e481eb44e9943f39138\n    /* \"contracts/ShareSecret.sol\":646:658  contract_new */\n  0x05\n  0x00\n    /* \"contracts/ShareSecret.sol\":646:717  contract_new=PublicContract(0xd9145CCE52D386f254917e481eB44e9943F39138) */\n  0x0100\n  exp\n  dup2\n  sload\n  dup2\n  0xffffffffffffffffffffffffffffffffffffffff\n  mul\n  not\n  and\n  swap1\n  dup4\n  0xffffffffffffffffffffffffffffffffffffffff\n  and\n  mul\n  or\n  swap1\n  sstore\n  pop\n    /* \"contracts/ShareSecret.sol\":480:724  constructor(string[] memory secretShares) {... */\n  pop\n    /* \"contracts/ShareSecret.sol\":110:3834  contract Node {... */\n  jump(tag_8)\ntag_7:\n  dup3\n  dup1\n  sload\n  dup3\n  dup3\n  sstore\n  swap1\n  0x00\n  mstore\n  keccak256(0x00, 0x20)\n  swap1\n  dup2\n  add\n  swap3\n  dup3\n  iszero\n  tag_9\n  jumpi\n  swap2\n  0x20\n  mul\n  dup3\n  add\ntag_10:\n  dup3\n  dup2\n  gt\n  iszero\n  tag_11\n  jumpi\n  dup3\n  mload\n  dup3\n  swap1\n  dup2\n  tag_12\n  swap2\n  swap1\n  tag_13\n  jump\t// in\ntag_12:\n  pop\n  swap2\n  0x20\n  add\n  swap2\n  swap1\n  0x01\n  add\n  swap1\n  jump(tag_10)\ntag_11:\ntag_9:\n  pop\n  swap1\n  pop\n  tag_14\n  swap2\n  swap1\n  tag_15\n  jump\t// in\ntag_14:\n  pop\n  swap1\n  jump\t// out\ntag_15:\ntag_16:\n  dup1\n  dup3\n  gt\n  iszero\n  tag_17\n  jumpi\n  0x00\n  dup2\n  dup2\n  tag_18\n  swap2\n  swap1\n  tag_19\n  jump\t// in\ntag_18:\n  pop\n  0x01\n  add\n  jump(tag_16)\ntag_17:\n  pop\n  swap1\n  jump\t// out\ntag_19:\n  pop\n  dup1\n  sload\n  tag_20\n  swap1\n  tag_21\n  jump\t// in\ntag_20:\n  0x00\n  dup3\n  sstore\n  dup1\n  0x1f\n  lt\n  tag_23\n  jumpi\n  pop\n  jump(tag_22)\ntag_23:\n  0x1f\n  add\n  0x20\n  swap1\n  div\n  swap1\n  0x00\n  mstore\n  keccak256(0x00, 0x20)\n  swap1\n  dup2\n  add\n  swap1\n  tag_24\n  swap2\n  swap1\n  tag_25\n  jump\t// in\ntag_24:\ntag_22:\n  pop\n  jump\t// out\ntag_25:\ntag_26:\n  dup1\n  dup3\n  gt\n  iszero\n  tag_27\n  jumpi\n  0x00\n  dup2\n  0x00\n  swap1\n  sstore\n  pop\n  0x01\n  add\n  jump(tag_26)\ntag_27:\n  pop\n  swap1\n  jump\t// out\n    /* \"#utility.yul\":7:82   */\ntag_28:\n    /* \"#utility.yul\":40:46   */\n  0x00\n    /* \"#utility.yul\":73:75   */\n  0x40\n    /* \"#utility.yul\":67:76   */\n  mload\n    /* \"#utility.yul\":57:76   */\n  swap1\n  pop\n    /* \"#utility.yul\":7:82   */\n  swap1\n  jump\t// out\n    /* \"#utility.yul\":88:205   */\ntag_29:\n    /* \"#utility.yul\":197:198   */\n  0x00\n    /* \"#utility.yul\":194:195   */\n  dup1\n    /* \"#utility.yul\":187:199   */\n  revert\n    /* \"#utility.yul\":211:328   */\ntag_30:\n    /* \"#utility.yul\":320:321   */\n  0x00\n    /* \"#utility.yul\":317:318   */\n  dup1\n    /* \"#utility.yul\":310:322   */\n  revert\n    /* \"#utility.yul\":334:451   */\ntag_31:\n    /* \"#utility.yul\":443:444   */\n  0x00\n    /* \"#utility.yul\":440:441   */\n  dup1\n    /* \"#utility.yul\":433:445   */\n  revert\n    /* \"#utility.yul\":457:559   */\ntag_32:\n    /* \"#utility.yul\":498:504   */\n  0x00\n    /* \"#utility.yul\":549:551   */\n  0x1f\n    /* \"#utility.yul\":545:552   */\n  not\n    /* \"#utility.yul\":540:542   */\n  0x1f\n    /* \"#utility.yul\":533:538   */\n  dup4\n    /* \"#utility.yul\":529:543   */\n  add\n    /* \"#utility.yul\":525:553   */\n  and\n    /* \"#utility.yul\":515:553   */\n  swap1\n  pop\n    /* \"#utility.yul\":457:559   */\n  swap2\n  swap1\n  pop\n  jump\t// out\n    /* \"#utility.yul\":565:745   */\ntag_33:\n    /* \"#utility.yul\":613:690   */\n  0x4e487b7100000000000000000000000000000000000000000000000000000000\n    /* \"#utility.yul\":610:611   */\n  0x00\n    /* \"#utility.yul\":603:691   */\n  mstore\n    /* \"#utility.yul\":710:714   */\n  0x41\n    /* \"#utility.yul\":707:708   */\n  0x04\n    /* \"#utility.yul\":700:715   */\n  mstore\n    /* \"#utility.yul\":734:738   */\n  0x24\n    /* \"#utility.yul\":731:732   */\n  0x00\n    /* \"#utility.yul\":724:739   */\n  revert\n    /* \"#utility.yul\":751:1032   */\ntag_34:\n    /* \"#utility.yul\":834:861   */\n  tag_71\n    /* \"#utility.yul\":856:860   */\n  dup3\n    /* \"#utility.yul\":834:861   */\n  tag_32\n  jump\t// in\ntag_71:\n    /* \"#utility.yul\":826:832   */\n  dup2\n    /* \"#utility.yul\":822:862   */\n  add\n    /* \"#utility.yul\":964:970   */\n  dup2\n    /* \"#utility.yul\":952:962   */\n  dup2\n    /* \"#utility.yul\":949:971   */\n  lt\n    /* \"#utility.yul\":928:946   */\n  0xffffffffffffffff\n    /* \"#utility.yul\":916:926   */\n  dup3\n    /* \"#utility.yul\":913:947   */\n  gt\n    /* \"#utility.yul\":910:972   */\n  or\n    /* \"#utility.yul\":907:995   */\n  iszero\n  tag_72\n  jumpi\n    /* \"#utility.yul\":975:993   */\n  tag_73\n  tag_33\n  jump\t// in\ntag_73:\n    /* \"#utility.yul\":907:995   */\ntag_72:\n    /* \"#utility.yul\":1015:1025   */\n  dup1\n    /* \"#utility.yul\":1011:1013   */\n  0x40\n    /* \"#utility.yul\":1004:1026   */\n  mstore\n    /* \"#utility.yul\":794:1032   */\n  pop\n    /* \"#utility.yul\":751:1032   */\n  pop\n  pop\n  jump\t// out\n    /* \"#utility.yul\":1038:1167   */\ntag_35:\n    /* \"#utility.yul\":1072:1078   */\n  0x00\n    /* \"#utility.yul\":1099:1119   */\n  tag_75\n  tag_28\n  jump\t// in\ntag_75:\n    /* \"#utility.yul\":1089:1119   */\n  swap1\n  pop\n    /* \"#utility.yul\":1128:1161   */\n  tag_76\n    /* \"#utility.yul\":1156:1160   */\n  dup3\n    /* \"#utility.yul\":1148:1154   */\n  dup3\n    /* \"#utility.yul\":1128:1161   */\n  tag_34\n  jump\t// in\ntag_76:\n    /* \"#utility.yul\":1038:1167   */\n  swap2\n  swap1\n  pop\n  jump\t// out\n    /* \"#utility.yul\":1173:1494   */\ntag_36:\n    /* \"#utility.yul\":1260:1264   */\n  0x00\n    /* \"#utility.yul\":1350:1368   */\n  0xffffffffffffffff\n    /* \"#utility.yul\":1342:1348   */\n  dup3\n    /* \"#utility.yul\":1339:1369   */\n  gt\n    /* \"#utility.yul\":1336:1392   */\n  iszero\n  tag_78\n  jumpi\n    /* \"#utility.yul\":1372:1390   */\n  tag_79\n  tag_33\n  jump\t// in\ntag_79:\n    /* \"#utility.yul\":1336:1392   */\ntag_78:\n    /* \"#utility.yul\":1422:1426   */\n  0x20\n    /* \"#utility.yul\":1414:1420   */\n  dup3\n    /* \"#utility.yul\":1410:1427   */\n  mul\n    /* \"#utility.yul\":1402:1427   */\n  swap1\n  pop\n    /* \"#utility.yul\":1482:1486   */\n  0x20\n    /* \"#utility.yul\":1476:1480   */\n  dup2\n    /* \"#utility.yul\":1472:1487   */\n  add\n    /* \"#utility.yul\":1464:1487   */\n  swap1\n  pop\n    /* \"#utility.yul\":1173:1494   */\n  swap2\n  swap1\n  pop\n  jump\t// out\n    /* \"#utility.yul\":1500:1617   */\ntag_37:\n    /* \"#utility.yul\":1609:1610   */\n  0x00\n    /* \"#utility.yul\":1606:1607   */\n  dup1\n    /* \"#utility.yul\":1599:1611   */\n  revert\n    /* \"#utility.yul\":1623:1740   */\ntag_38:\n    /* \"#utility.yul\":1732:1733   */\n  0x00\n    /* \"#utility.yul\":1729:1730   */\n  dup1\n    /* \"#utility.yul\":1722:1734   */\n  revert\n    /* \"#utility.yul\":1746:2054   */\ntag_39:\n    /* \"#utility.yul\":1808:1812   */\n  0x00\n    /* \"#utility.yul\":1898:1916   */\n  0xffffffffffffffff\n    /* \"#utility.yul\":1890:1896   */\n  dup3\n    /* \"#utility.yul\":1887:1917   */\n  gt\n    /* \"#utility.yul\":1884:1940   */\n  iszero\n  tag_83\n  jumpi\n    /* \"#utility.yul\":1920:1938   */\n  tag_84\n  tag_33\n  jump\t// in\ntag_84:\n    /* \"#utility.yul\":1884:1940   */\ntag_83:\n    /* \"#utility.yul\":1958:1987   */\n  tag_85\n    /* \"#utility.yul\":1980:1986   */\n  dup3\n    /* \"#utility.yul\":1958:1987   */\n  tag_32\n  jump\t// in\ntag_85:\n    /* \"#utility.yul\":1950:1987   */\n  swap1\n  pop\n    /* \"#utility.yul\":2042:2046   */\n  0x20\n    /* \"#utility.yul\":2036:2040   */\n  dup2\n    /* \"#utility.yul\":2032:2047   */\n  add\n    /* \"#utility.yul\":2024:2047   */\n  swap1\n  pop\n    /* \"#utility.yul\":1746:2054   */\n  swap2\n  swap1\n  pop\n  jump\t// out\n    /* \"#utility.yul\":2060:2306   */\ntag_40:\n    /* \"#utility.yul\":2141:2142   */\n  0x00\n    /* \"#utility.yul\":2151:2264   */\ntag_87:\n    /* \"#utility.yul\":2165:2171   */\n  dup4\n    /* \"#utility.yul\":2162:2163   */\n  dup2\n    /* \"#utility.yul\":2159:2172   */\n  lt\n    /* \"#utility.yul\":2151:2264   */\n  iszero\n  tag_89\n  jumpi\n    /* \"#utility.yul\":2250:2251   */\n  dup1\n    /* \"#utility.yul\":2245:2248   */\n  dup3\n    /* \"#utility.yul\":2241:2252   */\n  add\n    /* \"#utility.yul\":2235:2253   */\n  mload\n    /* \"#utility.yul\":2231:2232   */\n  dup2\n    /* \"#utility.yul\":2226:2229   */\n  dup5\n    /* \"#utility.yul\":2222:2233   */\n  add\n    /* \"#utility.yul\":2215:2254   */\n  mstore\n    /* \"#utility.yul\":2187:2189   */\n  0x20\n    /* \"#utility.yul\":2184:2185   */\n  dup2\n    /* \"#utility.yul\":2180:2190   */\n  add\n    /* \"#utility.yul\":2175:2190   */\n  swap1\n  pop\n    /* \"#utility.yul\":2151:2264   */\n  jump(tag_87)\ntag_89:\n    /* \"#utility.yul\":2298:2299   */\n  0x00\n    /* \"#utility.yul\":2289:2295   */\n  dup5\n    /* \"#utility.yul\":2284:2287   */\n  dup5\n    /* \"#utility.yul\":2280:2296   */\n  add\n    /* \"#utility.yul\":2273:2300   */\n  mstore\n    /* \"#utility.yul\":2122:2306   */\n  pop\n    /* \"#utility.yul\":2060:2306   */\n  pop\n  pop\n  pop\n  jump\t// out\n    /* \"#utility.yul\":2312:2746   */\ntag_41:\n    /* \"#utility.yul\":2401:2406   */\n  0x00\n    /* \"#utility.yul\":2426:2492   */\n  tag_91\n    /* \"#utility.yul\":2442:2491   */\n  tag_92\n    /* \"#utility.yul\":2484:2490   */\n  dup5\n    /* \"#utility.yul\":2442:2491   */\n  tag_39\n  jump\t// in\ntag_92:\n    /* \"#utility.yul\":2426:2492   */\n  tag_35\n  jump\t// in\ntag_91:\n    /* \"#utility.yul\":2417:2492   */\n  swap1\n  pop\n    /* \"#utility.yul\":2515:2521   */\n  dup3\n    /* \"#utility.yul\":2508:2513   */\n  dup2\n    /* \"#utility.yul\":2501:2522   */\n  mstore\n    /* \"#utility.yul\":2553:2557   */\n  0x20\n    /* \"#utility.yul\":2546:2551   */\n  dup2\n    /* \"#utility.yul\":2542:2558   */\n  add\n    /* \"#utility.yul\":2591:2594   */\n  dup5\n    /* \"#utility.yul\":2582:2588   */\n  dup5\n    /* \"#utility.yul\":2577:2580   */\n  dup5\n    /* \"#utility.yul\":2573:2589   */\n  add\n    /* \"#utility.yul\":2570:2595   */\n  gt\n    /* \"#utility.yul\":2567:2679   */\n  iszero\n  tag_93\n  jumpi\n    /* \"#utility.yul\":2598:2677   */\n  tag_94\n  tag_38\n  jump\t// in\ntag_94:\n    /* \"#utility.yul\":2567:2679   */\ntag_93:\n    /* \"#utility.yul\":2688:2740   */\n  tag_95\n    /* \"#utility.yul\":2733:2739   */\n  dup5\n    /* \"#utility.yul\":2728:2731   */\n  dup3\n    /* \"#utility.yul\":2723:2726   */\n  dup6\n    /* \"#utility.yul\":2688:2740   */\n  tag_40\n  jump\t// in\ntag_95:\n    /* \"#utility.yul\":2407:2746   */\n  pop\n    /* \"#utility.yul\":2312:2746   */\n  swap4\n  swap3\n  pop\n  pop\n  pop\n  jump\t// out\n    /* \"#utility.yul\":2766:3121   */\ntag_42:\n    /* \"#utility.yul\":2833:2838   */\n  0x00\n    /* \"#utility.yul\":2882:2885   */\n  dup3\n    /* \"#utility.yul\":2875:2879   */\n  0x1f\n    /* \"#utility.yul\":2867:2873   */\n  dup4\n    /* \"#utility.yul\":2863:2880   */\n  add\n    /* \"#utility.yul\":2859:2886   */\n  slt\n    /* \"#utility.yul\":2849:2971   */\n  tag_97\n  jumpi\n    /* \"#utility.yul\":2890:2969   */\n  tag_98\n  tag_31\n  jump\t// in\ntag_98:\n    /* \"#utility.yul\":2849:2971   */\ntag_97:\n    /* \"#utility.yul\":3000:3006   */\n  dup2\n    /* \"#utility.yul\":2994:3007   */\n  mload\n    /* \"#utility.yul\":3025:3115   */\n  tag_99\n    /* \"#utility.yul\":3111:3114   */\n  dup5\n    /* \"#utility.yul\":3103:3109   */\n  dup3\n    /* \"#utility.yul\":3096:3100   */\n  0x20\n    /* \"#utility.yul\":3088:3094   */\n  dup7\n    /* \"#utility.yul\":3084:3101   */\n  add\n    /* \"#utility.yul\":3025:3115   */\n  tag_41\n  jump\t// in\ntag_99:\n    /* \"#utility.yul\":3016:3115   */\n  swap2\n  pop\n    /* \"#utility.yul\":2839:3121   */\n  pop\n    /* \"#utility.yul\":2766:3121   */\n  swap3\n  swap2\n  pop\n  pop\n  jump\t// out\n    /* \"#utility.yul\":3143:4103   */\ntag_43:\n    /* \"#utility.yul\":3260:3265   */\n  0x00\n    /* \"#utility.yul\":3285:3376   */\n  tag_101\n    /* \"#utility.yul\":3301:3375   */\n  tag_102\n    /* \"#utility.yul\":3368:3374   */\n  dup5\n    /* \"#utility.yul\":3301:3375   */\n  tag_36\n  jump\t// in\ntag_102:\n    /* \"#utility.yul\":3285:3376   */\n  tag_35\n  jump\t// in\ntag_101:\n    /* \"#utility.yul\":3276:3376   */\n  swap1\n  pop\n    /* \"#utility.yul\":3396:3401   */\n  dup1\n    /* \"#utility.yul\":3425:3431   */\n  dup4\n    /* \"#utility.yul\":3418:3423   */\n  dup3\n    /* \"#utility.yul\":3411:3432   */\n  mstore\n    /* \"#utility.yul\":3459:3463   */\n  0x20\n    /* \"#utility.yul\":3452:3457   */\n  dup3\n    /* \"#utility.yul\":3448:3464   */\n  add\n    /* \"#utility.yul\":3441:3464   */\n  swap1\n  pop\n    /* \"#utility.yul\":3512:3516   */\n  0x20\n    /* \"#utility.yul\":3504:3510   */\n  dup5\n    /* \"#utility.yul\":3500:3517   */\n  mul\n    /* \"#utility.yul\":3492:3498   */\n  dup4\n    /* \"#utility.yul\":3488:3518   */\n  add\n    /* \"#utility.yul\":3541:3544   */\n  dup6\n    /* \"#utility.yul\":3533:3539   */\n  dup2\n    /* \"#utility.yul\":3530:3545   */\n  gt\n    /* \"#utility.yul\":3527:3649   */\n  iszero\n  tag_103\n  jumpi\n    /* \"#utility.yul\":3560:3639   */\n  tag_104\n  tag_37\n  jump\t// in\ntag_104:\n    /* \"#utility.yul\":3527:3649   */\ntag_103:\n    /* \"#utility.yul\":3675:3681   */\n  dup4\n    /* \"#utility.yul\":3658:4097   */\ntag_105:\n    /* \"#utility.yul\":3692:3698   */\n  dup2\n    /* \"#utility.yul\":3687:3690   */\n  dup2\n    /* \"#utility.yul\":3684:3699   */\n  lt\n    /* \"#utility.yul\":3658:4097   */\n  iszero\n  tag_107\n  jumpi\n    /* \"#utility.yul\":3774:3777   */\n  dup1\n    /* \"#utility.yul\":3768:3778   */\n  mload\n    /* \"#utility.yul\":3810:3828   */\n  0xffffffffffffffff\n    /* \"#utility.yul\":3797:3808   */\n  dup2\n    /* \"#utility.yul\":3794:3829   */\n  gt\n    /* \"#utility.yul\":3791:3913   */\n  iszero\n  tag_108\n  jumpi\n    /* \"#utility.yul\":3832:3911   */\n  tag_109\n  tag_31\n  jump\t// in\ntag_109:\n    /* \"#utility.yul\":3791:3913   */\ntag_108:\n    /* \"#utility.yul\":3956:3967   */\n  dup1\n    /* \"#utility.yul\":3948:3954   */\n  dup7\n    /* \"#utility.yul\":3944:3968   */\n  add\n    /* \"#utility.yul\":3994:4052   */\n  tag_110\n    /* \"#utility.yul\":4048:4051   */\n  dup10\n    /* \"#utility.yul\":4036:4046   */\n  dup3\n    /* \"#utility.yul\":3994:4052   */\n  tag_42\n  jump\t// in\ntag_110:\n    /* \"#utility.yul\":3989:3992   */\n  dup6\n    /* \"#utility.yul\":3982:4053   */\n  mstore\n    /* \"#utility.yul\":4082:4086   */\n  0x20\n    /* \"#utility.yul\":4077:4080   */\n  dup6\n    /* \"#utility.yul\":4073:4087   */\n  add\n    /* \"#utility.yul\":4066:4087   */\n  swap5\n  pop\n    /* \"#utility.yul\":3734:4097   */\n  pop\n  pop\n    /* \"#utility.yul\":3718:3722   */\n  0x20\n    /* \"#utility.yul\":3713:3716   */\n  dup2\n    /* \"#utility.yul\":3709:3723   */\n  add\n    /* \"#utility.yul\":3702:3723   */\n  swap1\n  pop\n    /* \"#utility.yul\":3658:4097   */\n  jump(tag_105)\ntag_107:\n    /* \"#utility.yul\":3662:3683   */\n  pop\n    /* \"#utility.yul\":3266:4103   */\n  pop\n  pop\n    /* \"#utility.yul\":3143:4103   */\n  swap4\n  swap3\n  pop\n  pop\n  pop\n  jump\t// out\n    /* \"#utility.yul\":4125:4530   */\ntag_44:\n    /* \"#utility.yul\":4217:4222   */\n  0x00\n    /* \"#utility.yul\":4266:4269   */\n  dup3\n    /* \"#utility.yul\":4259:4263   */\n  0x1f\n    /* \"#utility.yul\":4251:4257   */\n  dup4\n    /* \"#utility.yul\":4247:4264   */\n  add\n    /* \"#utility.yul\":4243:4270   */\n  slt\n    /* \"#utility.yul\":4233:4355   */\n  tag_112\n  jumpi\n    /* \"#utility.yul\":4274:4353   */\n  tag_113\n  tag_31\n  jump\t// in\ntag_113:\n    /* \"#utility.yul\":4233:4355   */\ntag_112:\n    /* \"#utility.yul\":4384:4390   */\n  dup2\n    /* \"#utility.yul\":4378:4391   */\n  mload\n    /* \"#utility.yul\":4409:4524   */\n  tag_114\n    /* \"#utility.yul\":4520:4523   */\n  dup5\n    /* \"#utility.yul\":4512:4518   */\n  dup3\n    /* \"#utility.yul\":4505:4509   */\n  0x20\n    /* \"#utility.yul\":4497:4503   */\n  dup7\n    /* \"#utility.yul\":4493:4510   */\n  add\n    /* \"#utility.yul\":4409:4524   */\n  tag_43\n  jump\t// in\ntag_114:\n    /* \"#utility.yul\":4400:4524   */\n  swap2\n  pop\n    /* \"#utility.yul\":4223:4530   */\n  pop\n    /* \"#utility.yul\":4125:4530   */\n  swap3\n  swap2\n  pop\n  pop\n  jump\t// out\n    /* \"#utility.yul\":4536:5110   */\ntag_3:\n    /* \"#utility.yul\":4641:4647   */\n  0x00\n    /* \"#utility.yul\":4690:4692   */\n  0x20\n    /* \"#utility.yul\":4678:4687   */\n  dup3\n    /* \"#utility.yul\":4669:4676   */\n  dup5\n    /* \"#utility.yul\":4665:4688   */\n  sub\n    /* \"#utility.yul\":4661:4693   */\n  slt\n    /* \"#utility.yul\":4658:4777   */\n  iszero\n  tag_116\n  jumpi\n    /* \"#utility.yul\":4696:4775   */\n  tag_117\n  tag_29\n  jump\t// in\ntag_117:\n    /* \"#utility.yul\":4658:4777   */\ntag_116:\n    /* \"#utility.yul\":4837:4838   */\n  0x00\n    /* \"#utility.yul\":4826:4835   */\n  dup3\n    /* \"#utility.yul\":4822:4839   */\n  add\n    /* \"#utility.yul\":4816:4840   */\n  mload\n    /* \"#utility.yul\":4867:4885   */\n  0xffffffffffffffff\n    /* \"#utility.yul\":4859:4865   */\n  dup2\n    /* \"#utility.yul\":4856:4886   */\n  gt\n    /* \"#utility.yul\":4853:4970   */\n  iszero\n  tag_118\n  jumpi\n    /* \"#utility.yul\":4889:4968   */\n  tag_119\n  tag_30\n  jump\t// in\ntag_119:\n    /* \"#utility.yul\":4853:4970   */\ntag_118:\n    /* \"#utility.yul\":4994:5093   */\n  tag_120\n    /* \"#utility.yul\":5085:5092   */\n  dup5\n    /* \"#utility.yul\":5076:5082   */\n  dup3\n    /* \"#utility.yul\":5065:5074   */\n  dup6\n    /* \"#utility.yul\":5061:5083   */\n  add\n    /* \"#utility.yul\":4994:5093   */\n  tag_44\n  jump\t// in\ntag_120:\n    /* \"#utility.yul\":4984:5093   */\n  swap2\n  pop\n    /* \"#utility.yul\":4787:5103   */\n  pop\n    /* \"#utility.yul\":4536:5110   */\n  swap3\n  swap2\n  pop\n  pop\n  jump\t// out\n    /* \"#utility.yul\":5116:5215   */\ntag_45:\n    /* \"#utility.yul\":5168:5174   */\n  0x00\n    /* \"#utility.yul\":5202:5207   */\n  dup2\n    /* \"#utility.yul\":5196:5208   */\n  mload\n    /* \"#utility.yul\":5186:5208   */\n  swap1\n  pop\n    /* \"#utility.yul\":5116:5215   */\n  swap2\n  swap1\n  pop\n  jump\t// out\n    /* \"#utility.yul\":5221:5401   */\ntag_46:\n    /* \"#utility.yul\":5269:5346   */\n  0x4e487b7100000000000000000000000000000000000000000000000000000000\n    /* \"#utility.yul\":5266:5267   */\n  0x00\n    /* \"#utility.yul\":5259:5347   */\n  mstore\n    /* \"#utility.yul\":5366:5370   */\n  0x22\n    /* \"#utility.yul\":5363:5364   */\n  0x04\n    /* \"#utility.yul\":5356:5371   */\n  mstore\n    /* \"#utility.yul\":5390:5394   */\n  0x24\n    /* \"#utility.yul\":5387:5388   */\n  0x00\n    /* \"#utility.yul\":5380:5395   */\n  revert\n    /* \"#utility.yul\":5407:5727   */\ntag_21:\n    /* \"#utility.yul\":5451:5457   */\n  0x00\n    /* \"#utility.yul\":5488:5489   */\n  0x02\n    /* \"#utility.yul\":5482:5486   */\n  dup3\n    /* \"#utility.yul\":5478:5490   */\n  div\n    /* \"#utility.yul\":5468:5490   */\n  swap1\n  pop\n    /* \"#utility.yul\":5535:5536   */\n  0x01\n    /* \"#utility.yul\":5529:5533   */\n  dup3\n    /* \"#utility.yul\":5525:5537   */\n  and\n    /* \"#utility.yul\":5556:5574   */\n  dup1\n    /* \"#utility.yul\":5546:5627   */\n  tag_124\n  jumpi\n    /* \"#utility.yul\":5612:5616   */\n  0x7f\n    /* \"#utility.yul\":5604:5610   */\n  dup3\n    /* \"#utility.yul\":5600:5617   */\n  and\n    /* \"#utility.yul\":5590:5617   */\n  swap2\n  pop\n    /* \"#utility.yul\":5546:5627   */\ntag_124:\n    /* \"#utility.yul\":5674:5676   */\n  0x20\n    /* \"#utility.yul\":5666:5672   */\n  dup3\n    /* \"#utility.yul\":5663:5677   */\n  lt\n    /* \"#utility.yul\":5643:5661   */\n  dup2\n    /* \"#utility.yul\":5640:5678   */\n  sub\n    /* \"#utility.yul\":5637:5721   */\n  tag_125\n  jumpi\n    /* \"#utility.yul\":5693:5711   */\n  tag_126\n  tag_46\n  jump\t// in\ntag_126:\n    /* \"#utility.yul\":5637:5721   */\ntag_125:\n    /* \"#utility.yul\":5458:5727   */\n  pop\n    /* \"#utility.yul\":5407:5727   */\n  swap2\n  swap1\n  pop\n  jump\t// out\n    /* \"#utility.yul\":5733:5874   */\ntag_47:\n    /* \"#utility.yul\":5782:5786   */\n  0x00\n    /* \"#utility.yul\":5805:5808   */\n  dup2\n    /* \"#utility.yul\":5797:5808   */\n  swap1\n  pop\n    /* \"#utility.yul\":5828:5831   */\n  dup2\n    /* \"#utility.yul\":5825:5826   */\n  0x00\n    /* \"#utility.yul\":5818:5832   */\n  mstore\n    /* \"#utility.yul\":5862:5866   */\n  0x20\n    /* \"#utility.yul\":5859:5860   */\n  0x00\n    /* \"#utility.yul\":5849:5867   */\n  keccak256\n    /* \"#utility.yul\":5841:5867   */\n  swap1\n  pop\n    /* \"#utility.yul\":5733:5874   */\n  swap2\n  swap1\n  pop\n  jump\t// out\n    /* \"#utility.yul\":5880:5973   */\ntag_48:\n    /* \"#utility.yul\":5917:5923   */\n  0x00\n    /* \"#utility.yul\":5964:5966   */\n  0x20\n    /* \"#utility.yul\":5959:5961   */\n  0x1f\n    /* \"#utility.yul\":5952:5957   */\n  dup4\n    /* \"#utility.yul\":5948:5962   */\n  add\n    /* \"#utility.yul\":5944:5967   */\n  div\n    /* \"#utility.yul\":5934:5967   */\n  swap1\n  pop\n    /* \"#utility.yul\":5880:5973   */\n  swap2\n  swap1\n  pop\n  jump\t// out\n    /* \"#utility.yul\":5979:6086   */\ntag_49:\n    /* \"#utility.yul\":6023:6031   */\n  0x00\n    /* \"#utility.yul\":6073:6078   */\n  dup3\n    /* \"#utility.yul\":6067:6071   */\n  dup3\n    /* \"#utility.yul\":6063:6079   */\n  shl\n    /* \"#utility.yul\":6042:6079   */\n  swap1\n  pop\n    /* \"#utility.yul\":5979:6086   */\n  swap3\n  swap2\n  pop\n  pop\n  jump\t// out\n    /* \"#utility.yul\":6092:6485   */\ntag_50:\n    /* \"#utility.yul\":6161:6167   */\n  0x00\n    /* \"#utility.yul\":6211:6212   */\n  0x08\n    /* \"#utility.yul\":6199:6209   */\n  dup4\n    /* \"#utility.yul\":6195:6213   */\n  mul\n    /* \"#utility.yul\":6234:6331   */\n  tag_131\n    /* \"#utility.yul\":6264:6330   */\n  0xffffffffffffffffffffffffffffffffffffffffffffffffffffffffffffffff\n    /* \"#utility.yul\":6253:6262   */\n  dup3\n    /* \"#utility.yul\":6234:6331   */\n  tag_49\n  jump\t// in\ntag_131:\n    /* \"#utility.yul\":6352:6391   */\n  tag_132\n    /* \"#utility.yul\":6382:6390   */\n  dup7\n    /* \"#utility.yul\":6371:6380   */\n  dup4\n    /* \"#utility.yul\":6352:6391   */\n  tag_49\n  jump\t// in\ntag_132:\n    /* \"#utility.yul\":6340:6391   */\n  swap6\n  pop\n    /* \"#utility.yul\":6424:6428   */\n  dup1\n    /* \"#utility.yul\":6420:6429   */\n  not\n    /* \"#utility.yul\":6413:6418   */\n  dup5\n    /* \"#utility.yul\":6409:6430   */\n  and\n    /* \"#utility.yul\":6400:6430   */\n  swap4\n  pop\n    /* \"#utility.yul\":6473:6477   */\n  dup1\n    /* \"#utility.yul\":6463:6471   */\n  dup7\n    /* \"#utility.yul\":6459:6478   */\n  and\n    /* \"#utility.yul\":6452:6457   */\n  dup5\n    /* \"#utility.yul\":6449:6479   */\n  or\n    /* \"#utility.yul\":6439:6479   */\n  swap3\n  pop\n    /* \"#utility.yul\":6168:6485   */\n  pop\n  pop\n    /* \"#utility.yul\":6092:6485   */\n  swap4\n  swap3\n  pop\n  pop\n  pop\n  jump\t// out\n    /* \"#utility.yul\":6491:6568   */\ntag_51:\n    /* \"#utility.yul\":6528:6535   */\n  0x00\n    /* \"#utility.yul\":6557:6562   */\n  dup2\n    /* \"#utility.yul\":6546:6562   */\n  swap1\n  pop\n    /* \"#utility.yul\":6491:6568   */\n  swap2\n  swap1\n  pop\n  jump\t// out\n    /* \"#utility.yul\":6574:6634   */\ntag_52:\n    /* \"#utility.yul\":6602:6605   */\n  0x00\n    /* \"#utility.yul\":6623:6628   */\n  dup2\n    /* \"#utility.yul\":6616:6628   */\n  swap1\n  pop\n    /* \"#utility.yul\":6574:6634   */\n  swap2\n  swap1\n  pop\n  jump\t// out\n    /* \"#utility.yul\":6640:6782   */\ntag_53:\n    /* \"#utility.yul\":6690:6699   */\n  0x00\n    /* \"#utility.yul\":6723:6776   */\n  tag_136\n    /* \"#utility.yul\":6741:6775   */\n  tag_137\n    /* \"#utility.yul\":6750:6774   */\n  tag_138\n    /* \"#utility.yul\":6768:6773   */\n  dup5\n    /* \"#utility.yul\":6750:6774   */\n  tag_51\n  jump\t// in\ntag_138:\n    /* \"#utility.yul\":6741:6775   */\n  tag_52\n  jump\t// in\ntag_137:\n    /* \"#utility.yul\":6723:6776   */\n  tag_51\n  jump\t// in\ntag_136:\n    /* \"#utility.yul\":6710:6776   */\n  swap1\n  pop\n    /* \"#utility.yul\":6640:6782   */\n  swap2\n  swap1\n  pop\n  jump\t// out\n    /* \"#utility.yul\":6788:6863   */\ntag_54:\n    /* \"#utility.yul\":6831:6834   */\n  0x00\n    /* \"#utility.yul\":6852:6857   */\n  dup2\n    /* \"#utility.yul\":6845:6857   */\n  swap1\n  pop\n    /* \"#utility.yul\":6788:6863   */\n  swap2\n  swap1\n  pop\n  jump\t// out\n    /* \"#utility.yul\":6869:7138   */\ntag_55:\n    /* \"#utility.yul\":6979:7018   */\n  tag_141\n    /* \"#utility.yul\":7010:7017   */\n  dup4\n    /* \"#utility.yul\":6979:7018   */\n  tag_53\n  jump\t// in\ntag_141:\n    /* \"#utility.yul\":7040:7131   */\n  tag_142\n    /* \"#utility.yul\":7089:7130   */\n  tag_143\n    /* \"#utility.yul\":7113:7129   */\n  dup3\n    /* \"#utility.yul\":7089:7130   */\n  tag_54\n  jump\t// in\ntag_143:\n    /* \"#utility.yul\":7081:7087   */\n  dup5\n    /* \"#utility.yul\":7074:7078   */\n  dup5\n    /* \"#utility.yul\":7068:7079   */\n  sload\n    /* \"#utility.yul\":7040:7131   */\n  tag_50\n  jump\t// in\ntag_142:\n    /* \"#utility.yul\":7034:7038   */\n  dup3\n    /* \"#utility.yul\":7027:7132   */\n  sstore\n    /* \"#utility.yul\":6945:7138   */\n  pop\n    /* \"#utility.yul\":6869:7138   */\n  pop\n  pop\n  pop\n  jump\t// out\n    /* \"#utility.yul\":7144:7217   */\ntag_56:\n    /* \"#utility.yul\":7189:7192   */\n  0x00\n    /* \"#utility.yul\":7144:7217   */\n  swap1\n  jump\t// out\n    /* \"#utility.yul\":7223:7412   */\ntag_57:\n    /* \"#utility.yul\":7300:7332   */\n  tag_146\n  tag_56\n  jump\t// in\ntag_146:\n    /* \"#utility.yul\":7341:7406   */\n  tag_147\n    /* \"#utility.yul\":7399:7405   */\n  dup2\n    /* \"#utility.yul\":7391:7397   */\n  dup5\n    /* \"#utility.yul\":7385:7389   */\n  dup5\n    /* \"#utility.yul\":7341:7406   */\n  tag_55\n  jump\t// in\ntag_147:\n    /* \"#utility.yul\":7276:7412   */\n  pop\n    /* \"#utility.yul\":7223:7412   */\n  pop\n  pop\n  jump\t// out\n    /* \"#utility.yul\":7418:7604   */\ntag_58:\n    /* \"#utility.yul\":7478:7598   */\ntag_149:\n    /* \"#utility.yul\":7495:7498   */\n  dup2\n    /* \"#utility.yul\":7488:7493   */\n  dup2\n    /* \"#utility.yul\":7485:7499   */\n  lt\n    /* \"#utility.yul\":7478:7598   */\n  iszero\n  tag_151\n  jumpi\n    /* \"#utility.yul\":7549:7588   */\n  tag_152\n    /* \"#utility.yul\":7586:7587   */\n  0x00\n    /* \"#utility.yul\":7579:7584   */\n  dup3\n    /* \"#utility.yul\":7549:7588   */\n  tag_57\n  jump\t// in\ntag_152:\n    /* \"#utility.yul\":7522:7523   */\n  0x01\n    /* \"#utility.yul\":7515:7520   */\n  dup2\n    /* \"#utility.yul\":7511:7524   */\n  add\n    /* \"#utility.yul\":7502:7524   */\n  swap1\n  pop\n    /* \"#utility.yul\":7478:7598   */\n  jump(tag_149)\ntag_151:\n    /* \"#utility.yul\":7418:7604   */\n  pop\n  pop\n  jump\t// out\n    /* \"#utility.yul\":7610:8153   */\ntag_59:\n    /* \"#utility.yul\":7711:7713   */\n  0x1f\n    /* \"#utility.yul\":7706:7709   */\n  dup3\n    /* \"#utility.yul\":7703:7714   */\n  gt\n    /* \"#utility.yul\":7700:8146   */\n  iszero\n  tag_154\n  jumpi\n    /* \"#utility.yul\":7745:7783   */\n  tag_155\n    /* \"#utility.yul\":7777:7782   */\n  dup2\n    /* \"#utility.yul\":7745:7783   */\n  tag_47\n  jump\t// in\ntag_155:\n    /* \"#utility.yul\":7829:7858   */\n  tag_156\n    /* \"#utility.yul\":7847:7857   */\n  dup5\n    /* \"#utility.yul\":7829:7858   */\n  tag_48\n  jump\t// in\ntag_156:\n    /* \"#utility.yul\":7819:7827   */\n  dup2\n    /* \"#utility.yul\":7815:7859   */\n  add\n    /* \"#utility.yul\":8012:8014   */\n  0x20\n    /* \"#utility.yul\":8000:8010   */\n  dup6\n    /* \"#utility.yul\":7997:8015   */\n  lt\n    /* \"#utility.yul\":7994:8043   */\n  iszero\n  tag_157\n  jumpi\n    /* \"#utility.yul\":8033:8041   */\n  dup2\n    /* \"#utility.yul\":8018:8041   */\n  swap1\n  pop\n    /* \"#utility.yul\":7994:8043   */\ntag_157:\n    /* \"#utility.yul\":8056:8136   */\n  tag_158\n    /* \"#utility.yul\":8112:8134   */\n  tag_159\n    /* \"#utility.yul\":8130:8133   */\n  dup6\n    /* \"#utility.yul\":8112:8134   */\n  tag_48\n  jump\t// in\ntag_159:\n    /* \"#utility.yul\":8102:8110   */\n  dup4\n    /* \"#utility.yul\":8098:8135   */\n  add\n    /* \"#utility.yul\":8085:8096   */\n  dup3\n    /* \"#utility.yul\":8056:8136   */\n  tag_58\n  jump\t// in\ntag_158:\n    /* \"#utility.yul\":7715:8146   */\n  pop\n  pop\n    /* \"#utility.yul\":7700:8146   */\ntag_154:\n    /* \"#utility.yul\":7610:8153   */\n  pop\n  pop\n  pop\n  jump\t// out\n    /* \"#utility.yul\":8159:8276   */\ntag_60:\n    /* \"#utility.yul\":8213:8221   */\n  0x00\n    /* \"#utility.yul\":8263:8268   */\n  dup3\n    /* \"#utility.yul\":8257:8261   */\n  dup3\n    /* \"#utility.yul\":8253:8269   */\n  shr\n    /* \"#utility.yul\":8232:8269   */\n  swap1\n  pop\n    /* \"#utility.yul\":8159:8276   */\n  swap3\n  swap2\n  pop\n  pop\n  jump\t// out\n    /* \"#utility.yul\":8282:8451   */\ntag_61:\n    /* \"#utility.yul\":8326:8332   */\n  0x00\n    /* \"#utility.yul\":8359:8410   */\n  tag_162\n    /* \"#utility.yul\":8407:8408   */\n  0x00\n    /* \"#utility.yul\":8403:8409   */\n  not\n    /* \"#utility.yul\":8395:8400   */\n  dup5\n    /* \"#utility.yul\":8392:8393   */\n  0x08\n    /* \"#utility.yul\":8388:8401   */\n  mul\n    /* \"#utility.yul\":8359:8410   */\n  tag_60\n  jump\t// in\ntag_162:\n    /* \"#utility.yul\":8355:8411   */\n  not\n    /* \"#utility.yul\":8440:8444   */\n  dup1\n    /* \"#utility.yul\":8434:8438   */\n  dup4\n    /* \"#utility.yul\":8430:8445   */\n  and\n    /* \"#utility.yul\":8420:8445   */\n  swap2\n  pop\n    /* \"#utility.yul\":8333:8451   */\n  pop\n    /* \"#utility.yul\":8282:8451   */\n  swap3\n  swap2\n  pop\n  pop\n  jump\t// out\n    /* \"#utility.yul\":8456:8751   */\ntag_62:\n    /* \"#utility.yul\":8532:8536   */\n  0x00\n    /* \"#utility.yul\":8678:8707   */\n  tag_164\n    /* \"#utility.yul\":8703:8706   */\n  dup4\n    /* \"#utility.yul\":8697:8701   */\n  dup4\n    /* \"#utility.yul\":8678:8707   */\n  tag_61\n  jump\t// in\ntag_164:\n    /* \"#utility.yul\":8670:8707   */\n  swap2\n  pop\n    /* \"#utility.yul\":8740:8743   */\n  dup3\n    /* \"#utility.yul\":8737:8738   */\n  0x02\n    /* \"#utility.yul\":8733:8744   */\n  mul\n    /* \"#utility.yul\":8727:8731   */\n  dup3\n    /* \"#utility.yul\":8724:8745   */\n  or\n    /* \"#utility.yul\":8716:8745   */\n  swap1\n  pop\n    /* \"#utility.yul\":8456:8751   */\n  swap3\n  swap2\n  pop\n  pop\n  jump\t// out\n    /* \"#utility.yul\":8756:10151   */\ntag_13:\n    /* \"#utility.yul\":8873:8910   */\n  tag_166\n    /* \"#utility.yul\":8906:8909   */\n  dup3\n    /* \"#utility.yul\":8873:8910   */\n  tag_45\n  jump\t// in\ntag_166:\n    /* \"#utility.yul\":8975:8993   */\n  0xffffffffffffffff\n    /* \"#utility.yul\":8967:8973   */\n  dup2\n    /* \"#utility.yul\":8964:8994   */\n  gt\n    /* \"#utility.yul\":8961:9017   */\n  iszero\n  tag_167\n  jumpi\n    /* \"#utility.yul\":8997:9015   */\n  tag_168\n  tag_33\n  jump\t// in\ntag_168:\n    /* \"#utility.yul\":8961:9017   */\ntag_167:\n    /* \"#utility.yul\":9041:9079   */\n  tag_169\n    /* \"#utility.yul\":9073:9077   */\n  dup3\n    /* \"#utility.yul\":9067:9078   */\n  sload\n    /* \"#utility.yul\":9041:9079   */\n  tag_21\n  jump\t// in\ntag_169:\n    /* \"#utility.yul\":9126:9193   */\n  tag_170\n    /* \"#utility.yul\":9186:9192   */\n  dup3\n    /* \"#utility.yul\":9178:9184   */\n  dup3\n    /* \"#utility.yul\":9172:9176   */\n  dup6\n    /* \"#utility.yul\":9126:9193   */\n  tag_59\n  jump\t// in\ntag_170:\n    /* \"#utility.yul\":9220:9221   */\n  0x00\n    /* \"#utility.yul\":9244:9248   */\n  0x20\n    /* \"#utility.yul\":9231:9248   */\n  swap1\n  pop\n    /* \"#utility.yul\":9276:9278   */\n  0x1f\n    /* \"#utility.yul\":9268:9274   */\n  dup4\n    /* \"#utility.yul\":9265:9279   */\n  gt\n    /* \"#utility.yul\":9293:9294   */\n  0x01\n    /* \"#utility.yul\":9288:9906   */\n  dup2\n  eq\n  tag_172\n  jumpi\n    /* \"#utility.yul\":9950:9951   */\n  0x00\n    /* \"#utility.yul\":9967:9973   */\n  dup5\n    /* \"#utility.yul\":9964:10041   */\n  iszero\n  tag_173\n  jumpi\n    /* \"#utility.yul\":10016:10025   */\n  dup3\n    /* \"#utility.yul\":10011:10014   */\n  dup8\n    /* \"#utility.yul\":10007:10026   */\n  add\n    /* \"#utility.yul\":10001:10027   */\n  mload\n    /* \"#utility.yul\":9992:10027   */\n  swap1\n  pop\n    /* \"#utility.yul\":9964:10041   */\ntag_173:\n    /* \"#utility.yul\":10067:10134   */\n  tag_174\n    /* \"#utility.yul\":10127:10133   */\n  dup6\n    /* \"#utility.yul\":10120:10125   */\n  dup3\n    /* \"#utility.yul\":10067:10134   */\n  tag_62\n  jump\t// in\ntag_174:\n    /* \"#utility.yul\":10061:10065   */\n  dup7\n    /* \"#utility.yul\":10054:10135   */\n  sstore\n    /* \"#utility.yul\":9923:10145   */\n  pop\n    /* \"#utility.yul\":9258:10145   */\n  jump(tag_171)\n    /* \"#utility.yul\":9288:9906   */\ntag_172:\n    /* \"#utility.yul\":9340:9344   */\n  0x1f\n    /* \"#utility.yul\":9336:9345   */\n  not\n    /* \"#utility.yul\":9328:9334   */\n  dup5\n    /* \"#utility.yul\":9324:9346   */\n  and\n    /* \"#utility.yul\":9374:9411   */\n  tag_175\n    /* \"#utility.yul\":9406:9410   */\n  dup7\n    /* \"#utility.yul\":9374:9411   */\n  tag_47\n  jump\t// in\ntag_175:\n    /* \"#utility.yul\":9433:9434   */\n  0x00\n    /* \"#utility.yul\":9447:9655   */\ntag_176:\n    /* \"#utility.yul\":9461:9468   */\n  dup3\n    /* \"#utility.yul\":9458:9459   */\n  dup2\n    /* \"#utility.yul\":9455:9469   */\n  lt\n    /* \"#utility.yul\":9447:9655   */\n  iszero\n  tag_178\n  jumpi\n    /* \"#utility.yul\":9540:9549   */\n  dup5\n    /* \"#utility.yul\":9535:9538   */\n  dup10\n    /* \"#utility.yul\":9531:9550   */\n  add\n    /* \"#utility.yul\":9525:9551   */\n  mload\n    /* \"#utility.yul\":9517:9523   */\n  dup3\n    /* \"#utility.yul\":9510:9552   */\n  sstore\n    /* \"#utility.yul\":9591:9592   */\n  0x01\n    /* \"#utility.yul\":9583:9589   */\n  dup3\n    /* \"#utility.yul\":9579:9593   */\n  add\n    /* \"#utility.yul\":9569:9593   */\n  swap2\n  pop\n    /* \"#utility.yul\":9638:9640   */\n  0x20\n    /* \"#utility.yul\":9627:9636   */\n  dup6\n    /* \"#utility.yul\":9623:9641   */\n  add\n    /* \"#utility.yul\":9610:9641   */\n  swap5\n  pop\n    /* \"#utility.yul\":9484:9488   */\n  0x20\n    /* \"#utility.yul\":9481:9482   */\n  dup2\n    /* \"#utility.yul\":9477:9489   */\n  add\n    /* \"#utility.yul\":9472:9489   */\n  swap1\n  pop\n    /* \"#utility.yul\":9447:9655   */\n  jump(tag_176)\ntag_178:\n    /* \"#utility.yul\":9683:9689   */\n  dup7\n    /* \"#utility.yul\":9674:9681   */\n  dup4\n    /* \"#utility.yul\":9671:9690   */\n  lt\n    /* \"#utility.yul\":9668:9847   */\n  iszero\n  tag_179\n  jumpi\n    /* \"#utility.yul\":9741:9750   */\n  dup5\n    /* \"#utility.yul\":9736:9739   */\n  dup10\n    /* \"#utility.yul\":9732:9751   */\n  add\n    /* \"#utility.yul\":9726:9752   */\n  mload\n    /* \"#utility.yul\":9784:9832   */\n  tag_180\n    /* \"#utility.yul\":9826:9830   */\n  0x1f\n    /* \"#utility.yul\":9818:9824   */\n  dup10\n    /* \"#utility.yul\":9814:9831   */\n  and\n    /* \"#utility.yul\":9803:9812   */\n  dup3\n    /* \"#utility.yul\":9784:9832   */\n  tag_61\n  jump\t// in\ntag_180:\n    /* \"#utility.yul\":9776:9782   */\n  dup4\n    /* \"#utility.yul\":9769:9833   */\n  sstore\n    /* \"#utility.yul\":9691:9847   */\n  pop\n    /* \"#utility.yul\":9668:9847   */\ntag_179:\n    /* \"#utility.yul\":9893:9894   */\n  0x01\n    /* \"#utility.yul\":9889:9890   */\n  0x02\n    /* \"#utility.yul\":9881:9887   */\n  dup9\n    /* \"#utility.yul\":9877:9891   */\n  mul\n    /* \"#utility.yul\":9873:9895   */\n  add\n    /* \"#utility.yul\":9867:9871   */\n  dup9\n    /* \"#utility.yul\":9860:9896   */\n  sstore\n    /* \"#utility.yul\":9295:9906   */\n  pop\n  pop\n  pop\n    /* \"#utility.yul\":9258:10145   */\ntag_171:\n  pop\n    /* \"#utility.yul\":8848:10151   */\n  pop\n  pop\n  pop\n    /* \"#utility.yul\":8756:10151   */\n  pop\n  pop\n  jump\t// out\n    /* \"contracts/ShareSecret.sol\":110:3834  contract Node {... */\ntag_8:\n  dataSize(sub_0)\n  dup1\n  dataOffset(sub_0)\n  0x00\n  codecopy\n  0x00\n  return\nstop\n\nsub_0: assembly {\n        /* \"contracts/ShareSecret.sol\":110:3834  contract Node {... */\n      mstore(0x40, 0x80)\n      callvalue\n      dup1\n      iszero\n      tag_1\n      jumpi\n      0x00\n      dup1\n      revert\n    tag_1:\n      pop\n      jumpi(tag_2, lt(calldatasize, 0x04))\n      shr(0xe0, calldataload(0x00))\n      dup1\n      0x7427a40c\n      gt\n      tag_23\n      jumpi\n      dup1\n      0xc0befa53\n      gt\n      tag_24\n      jumpi\n      dup1\n      0xc0befa53\n      eq\n      tag_18\n      jumpi\n      dup1\n      0xd534cc0e\n      eq\n      tag_19\n      jumpi\n      dup1\n      0xd73fe0aa\n      eq\n      tag_20\n      jumpi\n      dup1\n      0xe4fc6b6d\n      eq\n      tag_21\n      jumpi\n      dup1\n      0xebf47977\n      eq\n      tag_22\n      jumpi\n      jump(tag_2)\n    tag_24:\n      dup1\n      0x7427a40c\n      eq\n      tag_13\n      jumpi\n      dup1\n      0x790a0940\n      eq\n      tag_14\n      jumpi\n      dup1\n      0x8477d9f3\n      eq\n      tag_15\n      jumpi\n      dup1\n      0x8da5cb5b\n      eq\n      tag_16\n      jumpi\n      dup1\n      0x9a5eec33\n      eq\n      tag_17\n      jumpi\n      jump(tag_2)\n    tag_23:\n      dup1\n      0x32c6afd0\n      gt\n      tag_25\n      jumpi\n      dup1\n      0x32c6afd0\n      eq\n      tag_8\n      jumpi\n      dup1\n      0x4cc82215\n      eq\n      tag_9\n      jumpi\n      dup1\n      0x50e78191\n      eq\n      tag_10\n      jumpi\n      dup1\n      0x57a858fc\n      eq\n      tag_11\n      jumpi\n      dup1\n      0x728f1112\n      eq\n      tag_12\n      jumpi\n      jump(tag_2)\n    tag_25:\n      dup1\n      0x01570fe8\n      eq\n      tag_3\n      jumpi\n      dup1\n      0x0d2baaa1\n      eq\n      tag_4\n      jumpi\n      dup1\n      0x17377f68\n      eq\n      tag_5\n      jumpi\n      dup1\n      0x1bf9cb17\n      eq\n      tag_6\n      jumpi\n      dup1\n      0x1e1cf160\n      eq\n      tag_7\n      jumpi\n    tag_2:\n      0x00\n      dup1\n      revert\n        /* \"contracts/ShareSecret.sol\":3486:3556  function notifySecretOwner(bool acceptStatus) public onlyOwner{... */\n    tag_3:\n      tag_26\n      0x04\n      dup1\n      calldatasize\n      sub\n      dup2\n      add\n      swap1\n      tag_27\n      swap2\n      swap1\n      tag_28\n      jump\t// in\n    tag_27:\n      tag_29\n      jump\t// in\n    tag_26:\n      stop\n        /* \"contracts/ShareSecret.sol\":3024:3226  function checkRequestsForBeAHolder()public view onlyOwner returns (address[] memory){... */\n    tag_4:\n      tag_30\n      tag_31\n      jump\t// in\n    tag_30:\n      mload(0x40)\n      tag_32\n      swap2\n      swap1\n      tag_33\n      jump\t// in\n    tag_32:\n      mload(0x40)\n      dup1\n      swap2\n      sub\n      swap1\n      return\n        /* \"contracts/ShareSecret.sol\":2587:2729  function regenerate() public view returns (string[] memory){... */\n    tag_5:\n      tag_34\n      tag_35\n      jump\t// in\n    tag_34:\n      mload(0x40)\n      tag_36\n      swap2\n      swap1\n      tag_37\n      jump\t// in\n    tag_36:\n      mload(0x40)\n      dup1\n      swap2\n      sub\n      swap1\n      return\n        /* \"contracts/ShareSecret.sol\":2795:2841  function repayGasFee()public onlyOwner{... */\n    tag_6:\n      tag_38\n      tag_39\n      jump\t// in\n    tag_38:\n      stop\n        /* \"contracts/ShareSecret.sol\":369:412  mapping(address => string) public sharesMap */\n    tag_7:\n      tag_40\n      0x04\n      dup1\n      calldatasize\n      sub\n      dup2\n      add\n      swap1\n      tag_41\n      swap2\n      swap1\n      tag_42\n      jump\t// in\n    tag_41:\n      tag_43\n      jump\t// in\n    tag_40:\n      mload(0x40)\n      tag_44\n      swap2\n      swap1\n      tag_45\n      jump\t// in\n    tag_44:\n      mload(0x40)\n      dup1\n      swap2\n      sub\n      swap1\n      return\n        /* \"contracts/ShareSecret.sol\":3359:3481  function rejectInvitation() public onlyOwner returns (bool){... */\n    tag_8:\n      tag_46\n      tag_47\n      jump\t// in\n    tag_46:\n      mload(0x40)\n      tag_48\n      swap2\n      swap1\n      tag_49\n      jump\t// in\n    tag_48:\n      mload(0x40)\n      dup1\n      swap2\n      sub\n      swap1\n      return\n        /* \"contracts/ShareSecret.sol\":2031:2266  function remove(uint256 index) public {... */\n    tag_9:\n      tag_50\n      0x04\n      dup1\n      calldatasize\n      sub\n      dup2\n      add\n      swap1\n      tag_51\n      swap2\n      swap1\n      tag_52\n      jump\t// in\n    tag_51:\n      tag_53\n      jump\t// in\n    tag_50:\n      stop\n        /* \"contracts/ShareSecret.sol\":2313:2581  function removeShareHolders(address payable shareHolder) public onlyOwner {... */\n    tag_10:\n      tag_54\n      0x04\n      dup1\n      calldatasize\n      sub\n      dup2\n      add\n      swap1\n      tag_55\n      swap2\n      swap1\n      tag_56\n      jump\t// in\n    tag_55:\n      tag_57\n      jump\t// in\n    tag_54:\n      stop\n        /* \"contracts/ShareSecret.sol\":219:241  string[] public shares */\n    tag_11:\n      tag_58\n      0x04\n      dup1\n      calldatasize\n      sub\n      dup2\n      add\n      swap1\n      tag_59\n      swap2\n      swap1\n      tag_52\n      jump\t// in\n    tag_59:\n      tag_60\n      jump\t// in\n    tag_58:\n      mload(0x40)\n      tag_61\n      swap2\n      swap1\n      tag_45\n      jump\t// in\n    tag_61:\n      mload(0x40)\n      dup1\n      swap2\n      sub\n      swap1\n      return\n        /* \"contracts/ShareSecret.sol\":3233:3354  function acceptInvitation() public onlyOwner returns (bool) {... */\n    tag_12:\n      tag_62\n      tag_63\n      jump\t// in\n    tag_62:\n      mload(0x40)\n      tag_64\n      swap2\n      swap1\n      tag_49\n      jump\t// in\n    tag_64:\n      mload(0x40)\n      dup1\n      swap2\n      sub\n      swap1\n      return\n        /* \"contracts/ShareSecret.sol\":156:193  address payable[] public shareHolders */\n    tag_13:\n      tag_65\n      0x04\n      dup1\n      calldatasize\n      sub\n      dup2\n      add\n      swap1\n      tag_66\n      swap2\n      swap1\n      tag_52\n      jump\t// in\n    tag_66:\n      tag_67\n      jump\t// in\n    tag_65:\n      mload(0x40)\n      tag_68\n      swap2\n      swap1\n      tag_69\n      jump\t// in\n    tag_68:\n      mload(0x40)\n      dup1\n      swap2\n      sub\n      swap1\n      return\n        /* \"contracts/ShareSecret.sol\":1907:2025  function addShareHolders(address payable shareHolder) public onlyOwner {... */\n    tag_14:\n      tag_70\n      0x04\n      dup1\n      calldatasize\n      sub\n      dup2\n      add\n      swap1\n      tag_71\n      swap2\n      swap1\n      tag_56\n      jump\t// in\n    tag_71:\n      tag_72\n      jump\t// in\n    tag_70:\n      stop\n        /* \"contracts/ShareSecret.sol\":1650:1760  function getShareHolders() public view returns (address payable[] memory) {... */\n    tag_15:\n      tag_73\n      tag_74\n      jump\t// in\n    tag_73:\n      mload(0x40)\n      tag_75\n      swap2\n      swap1\n      tag_76\n      jump\t// in\n    tag_75:\n      mload(0x40)\n      dup1\n      swap2\n      sub\n      swap1\n      return\n        /* \"contracts/ShareSecret.sol\":130:150  address public owner */\n    tag_16:\n      tag_77\n      tag_78\n      jump\t// in\n    tag_77:\n      mload(0x40)\n      tag_79\n      swap2\n      swap1\n      tag_80\n      jump\t// in\n    tag_79:\n      mload(0x40)\n      dup1\n      swap2\n      sub\n      swap1\n      return\n        /* \"contracts/ShareSecret.sol\":2736:2790  function askingFromHolders() public onlyOwner {... */\n    tag_17:\n      tag_81\n      tag_82\n      jump\t// in\n    tag_81:\n      stop\n        /* \"contracts/ShareSecret.sol\":3561:3736  function releaseSecret(address ownerAddress) public onlyOwner view returns (string memory){... */\n    tag_18:\n      tag_83\n      0x04\n      dup1\n      calldatasize\n      sub\n      dup2\n      add\n      swap1\n      tag_84\n      swap2\n      swap1\n      tag_42\n      jump\t// in\n    tag_84:\n      tag_85\n      jump\t// in\n    tag_83:\n      mload(0x40)\n      tag_86\n      swap2\n      swap1\n      tag_45\n      jump\t// in\n    tag_86:\n      mload(0x40)\n      dup1\n      swap2\n      sub\n      swap1\n      return\n        /* \"contracts/ShareSecret.sol\":287:336  mapping(address => string) public shareHoldersMap */\n    tag_19:\n      tag_87\n      0x04\n      dup1\n      calldatasize\n      sub\n      dup2\n      add\n      swap1\n      tag_88\n      swap2\n      swap1\n      tag_42\n      jump\t// in\n    tag_88:\n      tag_89\n      jump\t// in\n    tag_87:\n      mload(0x40)\n      tag_90\n      swap2\n      swap1\n      tag_45\n      jump\t// in\n    tag_90:\n      mload(0x40)\n      dup1\n      swap2\n      sub\n      swap1\n      return\n        /* \"contracts/ShareSecret.sol\":1766:1855  function getShares() public view returns (string[] memory) {... */\n    tag_20:\n      tag_91\n      tag_92\n      jump\t// in\n    tag_91:\n      mload(0x40)\n      tag_93\n      swap2\n      swap1\n      tag_37\n      jump\t// in\n    tag_93:\n      mload(0x40)\n      dup1\n      swap2\n      sub\n      swap1\n      return\n        /* \"contracts/ShareSecret.sol\":1402:1644  function distribute() public onlyOwner {... */\n    tag_21:\n      tag_94\n      tag_95\n      jump\t// in\n    tag_94:\n      stop\n        /* \"contracts/ShareSecret.sol\":3741:3820  function rejectSecretRequest(address ownerAddress)public onlyOwner view{... */\n    tag_22:\n      tag_96\n      0x04\n      dup1\n      calldatasize\n      sub\n      dup2\n      add\n      swap1\n      tag_97\n      swap2\n      swap1\n      tag_42\n      jump\t// in\n    tag_97:\n      tag_98\n      jump\t// in\n    tag_96:\n      stop\n        /* \"contracts/ShareSecret.sol\":3486:3556  function notifySecretOwner(bool acceptStatus) public onlyOwner{... */\n    tag_29:\n        /* \"contracts/ShareSecret.sol\":1170:1175  owner */\n      0x00\n      dup1\n      sload\n      swap1\n      0x0100\n      exp\n      swap1\n      div\n      0xffffffffffffffffffffffffffffffffffffffff\n      and\n        /* \"contracts/ShareSecret.sol\":1156:1175  msg.sender == owner */\n      0xffffffffffffffffffffffffffffffffffffffff\n      and\n        /* \"contracts/ShareSecret.sol\":1156:1166  msg.sender */\n      caller\n        /* \"contracts/ShareSecret.sol\":1156:1175  msg.sender == owner */\n      0xffffffffffffffffffffffffffffffffffffffff\n      and\n      eq\n        /* \"contracts/ShareSecret.sol\":1148:1208  require(msg.sender == owner, \"Only owner has the privilege\") */\n      tag_100\n      jumpi\n      mload(0x40)\n      0x08c379a000000000000000000000000000000000000000000000000000000000\n      dup2\n      mstore\n      0x04\n      add\n      tag_101\n      swap1\n      tag_102\n      jump\t// in\n    tag_101:\n      mload(0x40)\n      dup1\n      swap2\n      sub\n      swap1\n      revert\n    tag_100:\n        /* \"contracts/ShareSecret.sol\":3486:3556  function notifySecretOwner(bool acceptStatus) public onlyOwner{... */\n      pop\n      jump\t// out\n        /* \"contracts/ShareSecret.sol\":3024:3226  function checkRequestsForBeAHolder()public view onlyOwner returns (address[] memory){... */\n    tag_31:\n        /* \"contracts/ShareSecret.sol\":3091:3107  address[] memory */\n      0x60\n        /* \"contracts/ShareSecret.sol\":1170:1175  owner */\n      0x00\n      dup1\n      sload\n      swap1\n      0x0100\n      exp\n      swap1\n      div\n      0xffffffffffffffffffffffffffffffffffffffff\n      and\n        /* \"contracts/ShareSecret.sol\":1156:1175  msg.sender == owner */\n      0xffffffffffffffffffffffffffffffffffffffff\n      and\n        /* \"contracts/ShareSecret.sol\":1156:1166  msg.sender */\n      caller\n        /* \"contracts/ShareSecret.sol\":1156:1175  msg.sender == owner */\n      0xffffffffffffffffffffffffffffffffffffffff\n      and\n      eq\n        /* \"contracts/ShareSecret.sol\":1148:1208  require(msg.sender == owner, \"Only owner has the privilege\") */\n      tag_105\n      jumpi\n      mload(0x40)\n      0x08c379a000000000000000000000000000000000000000000000000000000000\n      dup2\n      mstore\n      0x04\n      add\n      tag_106\n      swap1\n      tag_102\n      jump\t// in\n    tag_106:\n      mload(0x40)\n      dup1\n      swap2\n      sub\n      swap1\n      revert\n    tag_105:\n        /* \"contracts/ShareSecret.sol\":3114:3144  address[] memory requestsForMe */\n      0x00\n        /* \"contracts/ShareSecret.sol\":3147:3159  contract_new */\n      0x05\n      0x00\n      swap1\n      sload\n      swap1\n      0x0100\n      exp\n      swap1\n      div\n      0xffffffffffffffffffffffffffffffffffffffff\n      and\n        /* \"contracts/ShareSecret.sol\":3147:3186  contract_new.checkRequestsByShareholder */\n      0xffffffffffffffffffffffffffffffffffffffff\n      and\n      0x99f8b09f\n        /* \"contracts/ShareSecret.sol\":3187:3192  owner */\n      0x00\n      dup1\n      sload\n      swap1\n      0x0100\n      exp\n      swap1\n      div\n      0xffffffffffffffffffffffffffffffffffffffff\n      and\n        /* \"contracts/ShareSecret.sol\":3147:3193  contract_new.checkRequestsByShareholder(owner) */\n      mload(0x40)\n      dup3\n      0xffffffff\n      and\n      0xe0\n      shl\n      dup2\n      mstore\n      0x04\n      add\n      tag_108\n      swap2\n      swap1\n      tag_80\n      jump\t// in\n    tag_108:\n      0x00\n      mload(0x40)\n      dup1\n      dup4\n      sub\n      dup2\n      dup7\n      gas\n      staticcall\n      iszero\n      dup1\n      iszero\n      tag_110\n      jumpi\n      returndatasize\n      0x00\n      dup1\n      returndatacopy\n      revert(0x00, returndatasize)\n    tag_110:\n      pop\n      pop\n      pop\n      pop\n      mload(0x40)\n      returndatasize\n      0x00\n      dup3\n      returndatacopy\n      returndatasize\n      not(0x1f)\n      0x1f\n      dup3\n      add\n      and\n      dup3\n      add\n      dup1\n      0x40\n      mstore\n      pop\n      dup2\n      add\n      swap1\n      tag_111\n      swap2\n      swap1\n      tag_112\n      jump\t// in\n    tag_111:\n        /* \"contracts/ShareSecret.sol\":3114:3193  address[] memory requestsForMe = contract_new.checkRequestsByShareholder(owner) */\n      swap1\n      pop\n        /* \"contracts/ShareSecret.sol\":3206:3219  requestsForMe */\n      dup1\n        /* \"contracts/ShareSecret.sol\":3199:3219  return requestsForMe */\n      swap2\n      pop\n      pop\n        /* \"contracts/ShareSecret.sol\":3024:3226  function checkRequestsForBeAHolder()public view onlyOwner returns (address[] memory){... */\n      swap1\n      jump\t// out\n        /* \"contracts/ShareSecret.sol\":2587:2729  function regenerate() public view returns (string[] memory){... */\n    tag_35:\n        /* \"contracts/ShareSecret.sol\":2630:2645  string[] memory */\n      0x60\n        /* \"contracts/ShareSecret.sol\":2716:2722  shares */\n      0x02\n        /* \"contracts/ShareSecret.sol\":2709:2722  return shares */\n      dup1\n      sload\n      dup1\n      0x20\n      mul\n      0x20\n      add\n      mload(0x40)\n      swap1\n      dup2\n      add\n      0x40\n      mstore\n      dup1\n      swap3\n      swap2\n      swap1\n      dup2\n      dup2\n      mstore\n      0x20\n      add\n      0x00\n      swap1\n    tag_114:\n      dup3\n      dup3\n      lt\n      iszero\n      tag_115\n      jumpi\n      dup4\n      dup3\n      swap1\n      0x00\n      mstore\n      keccak256(0x00, 0x20)\n      add\n      dup1\n      sload\n      tag_117\n      swap1\n      tag_118\n      jump\t// in\n    tag_117:\n      dup1\n      0x1f\n      add\n      0x20\n      dup1\n      swap2\n      div\n      mul\n      0x20\n      add\n      mload(0x40)\n      swap1\n      dup2\n      add\n      0x40\n      mstore\n      dup1\n      swap3\n      swap2\n      swap1\n      dup2\n      dup2\n      mstore\n      0x20\n      add\n      dup3\n      dup1\n      sload\n      tag_119\n      swap1\n      tag_118\n      jump\t// in\n    tag_119:\n      dup1\n      iszero\n      tag_120\n      jumpi\n      dup1\n      0x1f\n      lt\n      tag_121\n      jumpi\n      0x0100\n      dup1\n      dup4\n      sload\n      div\n      mul\n      dup4\n      mstore\n      swap2\n      0x20\n      add\n      swap2\n      jump(tag_120)\n    tag_121:\n      dup3\n      add\n      swap2\n      swap1\n      0x00\n      mstore\n      keccak256(0x00, 0x20)\n      swap1\n    tag_122:\n      dup2\n      sload\n      dup2\n      mstore\n      swap1\n      0x01\n      add\n      swap1\n      0x20\n      add\n      dup1\n      dup4\n      gt\n      tag_122\n      jumpi\n      dup3\n      swap1\n      sub\n      0x1f\n      and\n      dup3\n      add\n      swap2\n    tag_120:\n      pop\n      pop\n      pop\n      pop\n      pop\n      dup2\n      mstore\n      0x20\n      add\n      swap1\n      0x01\n      add\n      swap1\n      jump(tag_114)\n    tag_115:\n      pop\n      pop\n      pop\n      pop\n      swap1\n      pop\n        /* \"contracts/ShareSecret.sol\":2587:2729  function regenerate() public view returns (string[] memory){... */\n      swap1\n      jump\t// out\n        /* \"contracts/ShareSecret.sol\":2795:2841  function repayGasFee()public onlyOwner{... */\n    tag_39:\n        /* \"contracts/ShareSecret.sol\":1170:1175  owner */\n      0x00\n      dup1\n      sload\n      swap1\n      0x0100\n      exp\n      swap1\n      div\n      0xffffffffffffffffffffffffffffffffffffffff\n      and\n        /* \"contracts/ShareSecret.sol\":1156:1175  msg.sender == owner */\n      0xffffffffffffffffffffffffffffffffffffffff\n      and\n        /* \"contracts/ShareSecret.sol\":1156:1166  msg.sender */\n      caller\n        /* \"contracts/ShareSecret.sol\":1156:1175  msg.sender == owner */\n      0xffffffffffffffffffffffffffffffffffffffff\n      and\n      eq\n        /* \"contracts/ShareSecret.sol\":1148:1208  require(msg.sender == owner, \"Only owner has the privilege\") */\n      tag_124\n      jumpi\n      mload(0x40)\n      0x08c379a000000000000000000000000000000000000000000000000000000000\n      dup2\n      mstore\n      0x04\n      add\n      tag_125\n      swap1\n      tag_102\n      jump\t// in\n    tag_125:\n      mload(0x40)\n      dup1\n      swap2\n      sub\n      swap1\n      revert\n    tag_124:\n        /* \"contracts/ShareSecret.sol\":2795:2841  function repayGasFee()public onlyOwner{... */\n      jump\t// out\n        /* \"contracts/ShareSecret.sol\":369:412  mapping(address => string) public sharesMap */\n    tag_43:\n      mstore(0x20, 0x04)\n      dup1\n      0x00\n      mstore\n      keccak256(0x00, 0x40)\n      0x00\n      swap2\n      pop\n      swap1\n      pop\n      dup1\n      sload\n      tag_127\n      swap1\n      tag_118\n      jump\t// in\n    tag_127:\n      dup1\n      0x1f\n      add\n      0x20\n      dup1\n      swap2\n      div\n      mul\n      0x20\n      add\n      mload(0x40)\n      swap1\n      dup2\n      add\n      0x40\n      mstore\n      dup1\n      swap3\n      swap2\n      swap1\n      dup2\n      dup2\n      mstore\n      0x20\n      add\n      dup3\n      dup1\n      sload\n      tag_128\n      swap1\n      tag_118\n      jump\t// in\n    tag_128:\n      dup1\n      iszero\n      tag_129\n      jumpi\n      dup1\n      0x1f\n      lt\n      tag_130\n      jumpi\n      0x0100\n      dup1\n      dup4\n      sload\n      div\n      mul\n      dup4\n      mstore\n      swap2\n      0x20\n      add\n      swap2\n      jump(tag_129)\n    tag_130:\n      dup3\n      add\n      swap2\n      swap1\n      0x00\n      mstore\n      keccak256(0x00, 0x20)\n      swap1\n    tag_131:\n      dup2\n      sload\n      dup2\n      mstore\n      swap1\n      0x01\n      add\n      swap1\n      0x20\n      add\n      dup1\n      dup4\n      gt\n      tag_131\n      jumpi\n      dup3\n      swap1\n      sub\n      0x1f\n      and\n      dup3\n      add\n      swap2\n    tag_129:\n      pop\n      pop\n      pop\n      pop\n      pop\n      dup2\n      jump\t// out\n        /* \"contracts/ShareSecret.sol\":3359:3481  function rejectInvitation() public onlyOwner returns (bool){... */\n    tag_47:\n        /* \"contracts/ShareSecret.sol\":3413:3417  bool */\n      0x00\n        /* \"contracts/ShareSecret.sol\":1170:1175  owner */\n      dup1\n      0x00\n      swap1\n      sload\n      swap1\n      0x0100\n      exp\n      swap1\n      div\n      0xffffffffffffffffffffffffffffffffffffffff\n      and\n        /* \"contracts/ShareSecret.sol\":1156:1175  msg.sender == owner */\n      0xffffffffffffffffffffffffffffffffffffffff\n      and\n        /* \"contracts/ShareSecret.sol\":1156:1166  msg.sender */\n      caller\n        /* \"contracts/ShareSecret.sol\":1156:1175  msg.sender == owner */\n      0xffffffffffffffffffffffffffffffffffffffff\n      and\n      eq\n        /* \"contracts/ShareSecret.sol\":1148:1208  require(msg.sender == owner, \"Only owner has the privilege\") */\n      tag_133\n      jumpi\n      mload(0x40)\n      0x08c379a000000000000000000000000000000000000000000000000000000000\n      dup2\n      mstore\n      0x04\n      add\n      tag_134\n      swap1\n      tag_102\n      jump\t// in\n    tag_134:\n      mload(0x40)\n      dup1\n      swap2\n      sub\n      swap1\n      revert\n    tag_133:\n        /* \"contracts/ShareSecret.sol\":3428:3452  notifySecretOwner(false) */\n      tag_136\n        /* \"contracts/ShareSecret.sol\":3446:3451  false */\n      0x00\n        /* \"contracts/ShareSecret.sol\":3428:3445  notifySecretOwner */\n      tag_29\n        /* \"contracts/ShareSecret.sol\":3428:3452  notifySecretOwner(false) */\n      jump\t// in\n    tag_136:\n        /* \"contracts/ShareSecret.sol\":3469:3474  false */\n      0x00\n        /* \"contracts/ShareSecret.sol\":3462:3474  return false */\n      swap1\n      pop\n        /* \"contracts/ShareSecret.sol\":3359:3481  function rejectInvitation() public onlyOwner returns (bool){... */\n      swap1\n      jump\t// out\n        /* \"contracts/ShareSecret.sol\":2031:2266  function remove(uint256 index) public {... */\n    tag_53:\n        /* \"contracts/ShareSecret.sol\":2159:2171  shareHolders */\n      0x01\n        /* \"contracts/ShareSecret.sol\":2194:2195  1 */\n      dup1\n        /* \"contracts/ShareSecret.sol\":2172:2184  shareHolders */\n      dup1\n        /* \"contracts/ShareSecret.sol\":2172:2191  shareHolders.length */\n      dup1\n      sload\n      swap1\n      pop\n        /* \"contracts/ShareSecret.sol\":2172:2195  shareHolders.length - 1 */\n      tag_138\n      swap2\n      swap1\n      tag_139\n      jump\t// in\n    tag_138:\n        /* \"contracts/ShareSecret.sol\":2159:2196  shareHolders[shareHolders.length - 1] */\n      dup2\n      sload\n      dup2\n      lt\n      tag_140\n      jumpi\n      tag_141\n      tag_142\n      jump\t// in\n    tag_141:\n    tag_140:\n      swap1\n      0x00\n      mstore\n      keccak256(0x00, 0x20)\n      add\n      0x00\n      swap1\n      sload\n      swap1\n      0x0100\n      exp\n      swap1\n      div\n      0xffffffffffffffffffffffffffffffffffffffff\n      and\n        /* \"contracts/ShareSecret.sol\":2137:2149  shareHolders */\n      0x01\n        /* \"contracts/ShareSecret.sol\":2150:2155  index */\n      dup3\n        /* \"contracts/ShareSecret.sol\":2137:2156  shareHolders[index] */\n      dup2\n      sload\n      dup2\n      lt\n      tag_144\n      jumpi\n      tag_145\n      tag_142\n      jump\t// in\n    tag_145:\n    tag_144:\n      swap1\n      0x00\n      mstore\n      keccak256(0x00, 0x20)\n      add\n      0x00\n        /* \"contracts/ShareSecret.sol\":2137:2196  shareHolders[index] = shareHolders[shareHolders.length - 1] */\n      0x0100\n      exp\n      dup2\n      sload\n      dup2\n      0xffffffffffffffffffffffffffffffffffffffff\n      mul\n      not\n      and\n      swap1\n      dup4\n      0xffffffffffffffffffffffffffffffffffffffff\n      and\n      mul\n      or\n      swap1\n      sstore\n      pop\n        /* \"contracts/ShareSecret.sol\":2241:2253  shareHolders */\n      0x01\n        /* \"contracts/ShareSecret.sol\":2241:2259  shareHolders.pop() */\n      dup1\n      sload\n      dup1\n      tag_147\n      jumpi\n      tag_148\n      tag_149\n      jump\t// in\n    tag_148:\n    tag_147:\n      0x01\n      swap1\n      sub\n      dup2\n      dup2\n      swap1\n      0x00\n      mstore\n      keccak256(0x00, 0x20)\n      add\n      exp(0x0100, 0x00)\n      dup2\n      sload\n      swap1\n      0xffffffffffffffffffffffffffffffffffffffff\n      mul\n      not\n      and\n      swap1\n      sstore\n      swap1\n      sstore\n        /* \"contracts/ShareSecret.sol\":2031:2266  function remove(uint256 index) public {... */\n      pop\n      jump\t// out\n        /* \"contracts/ShareSecret.sol\":2313:2581  function removeShareHolders(address payable shareHolder) public onlyOwner {... */\n    tag_57:\n        /* \"contracts/ShareSecret.sol\":1170:1175  owner */\n      0x00\n      dup1\n      sload\n      swap1\n      0x0100\n      exp\n      swap1\n      div\n      0xffffffffffffffffffffffffffffffffffffffff\n      and\n        /* \"contracts/ShareSecret.sol\":1156:1175  msg.sender == owner */\n      0xffffffffffffffffffffffffffffffffffffffff\n      and\n        /* \"contracts/ShareSecret.sol\":1156:1166  msg.sender */\n      caller\n        /* \"contracts/ShareSecret.sol\":1156:1175  msg.sender == owner */\n      0xffffffffffffffffffffffffffffffffffffffff\n      and\n      eq\n        /* \"contracts/ShareSecret.sol\":1148:1208  require(msg.sender == owner, \"Only owner has the privilege\") */\n      tag_152\n      jumpi\n      mload(0x40)\n      0x08c379a000000000000000000000000000000000000000000000000000000000\n      dup2\n      mstore\n      0x04\n      add\n      tag_153\n      swap1\n      tag_102\n      jump\t// in\n    tag_153:\n      mload(0x40)\n      dup1\n      swap2\n      sub\n      swap1\n      revert\n    tag_152:\n        /* \"contracts/ShareSecret.sol\":2397:2406  uint256 i */\n      0x00\n        /* \"contracts/ShareSecret.sol\":2420:2556  for (i; i < shareHolders.length; i++) {... */\n    tag_155:\n        /* \"contracts/ShareSecret.sol\":2432:2444  shareHolders */\n      0x01\n        /* \"contracts/ShareSecret.sol\":2432:2451  shareHolders.length */\n      dup1\n      sload\n      swap1\n      pop\n        /* \"contracts/ShareSecret.sol\":2428:2429  i */\n      dup2\n        /* \"contracts/ShareSecret.sol\":2428:2451  i < shareHolders.length */\n      lt\n        /* \"contracts/ShareSecret.sol\":2420:2556  for (i; i < shareHolders.length; i++) {... */\n      iszero\n      tag_156\n      jumpi\n        /* \"contracts/ShareSecret.sol\":2495:2506  shareHolder */\n      dup2\n        /* \"contracts/ShareSecret.sol\":2476:2506  shareHolders[i] == shareHolder */\n      0xffffffffffffffffffffffffffffffffffffffff\n      and\n        /* \"contracts/ShareSecret.sol\":2476:2488  shareHolders */\n      0x01\n        /* \"contracts/ShareSecret.sol\":2489:2490  i */\n      dup3\n        /* \"contracts/ShareSecret.sol\":2476:2491  shareHolders[i] */\n      dup2\n      sload\n      dup2\n      lt\n      tag_158\n      jumpi\n      tag_159\n      tag_142\n      jump\t// in\n    tag_159:\n    tag_158:\n      swap1\n      0x00\n      mstore\n      keccak256(0x00, 0x20)\n      add\n      0x00\n      swap1\n      sload\n      swap1\n      0x0100\n      exp\n      swap1\n      div\n      0xffffffffffffffffffffffffffffffffffffffff\n      and\n        /* \"contracts/ShareSecret.sol\":2476:2506  shareHolders[i] == shareHolder */\n      0xffffffffffffffffffffffffffffffffffffffff\n      and\n      sub\n        /* \"contracts/ShareSecret.sol\":2472:2546  if (shareHolders[i] == shareHolder) {... */\n      iszero\n        /* \"contracts/ShareSecret.sol\":2526:2531  break */\n      tag_156\n        /* \"contracts/ShareSecret.sol\":2472:2546  if (shareHolders[i] == shareHolder) {... */\n      jumpi\n        /* \"contracts/ShareSecret.sol\":2453:2456  i++ */\n      dup1\n      dup1\n      tag_162\n      swap1\n      tag_163\n      jump\t// in\n    tag_162:\n      swap2\n      pop\n      pop\n        /* \"contracts/ShareSecret.sol\":2420:2556  for (i; i < shareHolders.length; i++) {... */\n      jump(tag_155)\n    tag_156:\n        /* \"contracts/ShareSecret.sol\":2565:2574  remove(i) */\n      tag_164\n        /* \"contracts/ShareSecret.sol\":2572:2573  i */\n      dup2\n        /* \"contracts/ShareSecret.sol\":2565:2571  remove */\n      tag_53\n        /* \"contracts/ShareSecret.sol\":2565:2574  remove(i) */\n      jump\t// in\n    tag_164:\n        /* \"contracts/ShareSecret.sol\":2387:2581  {... */\n      pop\n        /* \"contracts/ShareSecret.sol\":2313:2581  function removeShareHolders(address payable shareHolder) public onlyOwner {... */\n      pop\n      jump\t// out\n        /* \"contracts/ShareSecret.sol\":219:241  string[] public shares */\n    tag_60:\n      0x02\n      dup2\n      dup2\n      sload\n      dup2\n      lt\n      tag_165\n      jumpi\n      0x00\n      dup1\n      revert\n    tag_165:\n      swap1\n      0x00\n      mstore\n      keccak256(0x00, 0x20)\n      add\n      0x00\n      swap2\n      pop\n      swap1\n      pop\n      dup1\n      sload\n      tag_167\n      swap1\n      tag_118\n      jump\t// in\n    tag_167:\n      dup1\n      0x1f\n      add\n      0x20\n      dup1\n      swap2\n      div\n      mul\n      0x20\n      add\n      mload(0x40)\n      swap1\n      dup2\n      add\n      0x40\n      mstore\n      dup1\n      swap3\n      swap2\n      swap1\n      dup2\n      dup2\n      mstore\n      0x20\n      add\n      dup3\n      dup1\n      sload\n      tag_168\n      swap1\n      tag_118\n      jump\t// in\n    tag_168:\n      dup1\n      iszero\n      tag_169\n      jumpi\n      dup1\n      0x1f\n      lt\n      tag_170\n      jumpi\n      0x0100\n      dup1\n      dup4\n      sload\n      div\n      mul\n      dup4\n      mstore\n      swap2\n      0x20\n      add\n      swap2\n      jump(tag_169)\n    tag_170:\n      dup3\n      add\n      swap2\n      swap1\n      0x00\n      mstore\n      keccak256(0x00, 0x20)\n      swap1\n    tag_171:\n      dup2\n      sload\n      dup2\n      mstore\n      swap1\n      0x01\n      add\n      swap1\n      0x20\n      add\n      dup1\n      dup4\n      gt\n      tag_171\n      jumpi\n      dup3\n      swap1\n      sub\n      0x1f\n      and\n      dup3\n      add\n      swap2\n    tag_169:\n      pop\n      pop\n      pop\n      pop\n      pop\n      dup2\n      jump\t// out\n        /* \"contracts/ShareSecret.sol\":3233:3354  function acceptInvitation() public onlyOwner returns (bool) {... */\n    tag_63:\n        /* \"contracts/ShareSecret.sol\":3287:3291  bool */\n      0x00\n        /* \"contracts/ShareSecret.sol\":1170:1175  owner */\n      dup1\n      0x00\n      swap1\n      sload\n      swap1\n      0x0100\n      exp\n      swap1\n      div\n      0xffffffffffffffffffffffffffffffffffffffff\n      and\n        /* \"contracts/ShareSecret.sol\":1156:1175  msg.sender == owner */\n      0xffffffffffffffffffffffffffffffffffffffff\n      and\n        /* \"contracts/ShareSecret.sol\":1156:1166  msg.sender */\n      caller\n        /* \"contracts/ShareSecret.sol\":1156:1175  msg.sender == owner */\n      0xffffffffffffffffffffffffffffffffffffffff\n      and\n      eq\n        /* \"contracts/ShareSecret.sol\":1148:1208  require(msg.sender == owner, \"Only owner has the privilege\") */\n      tag_173\n      jumpi\n      mload(0x40)\n      0x08c379a000000000000000000000000000000000000000000000000000000000\n      dup2\n      mstore\n      0x04\n      add\n      tag_174\n      swap1\n      tag_102\n      jump\t// in\n    tag_174:\n      mload(0x40)\n      dup1\n      swap2\n      sub\n      swap1\n      revert\n    tag_173:\n        /* \"contracts/ShareSecret.sol\":3303:3326  notifySecretOwner(true) */\n      tag_176\n        /* \"contracts/ShareSecret.sol\":3321:3325  true */\n      0x01\n        /* \"contracts/ShareSecret.sol\":3303:3320  notifySecretOwner */\n      tag_29\n        /* \"contracts/ShareSecret.sol\":3303:3326  notifySecretOwner(true) */\n      jump\t// in\n    tag_176:\n        /* \"contracts/ShareSecret.sol\":3343:3347  true */\n      0x01\n        /* \"contracts/ShareSecret.sol\":3336:3347  return true */\n      swap1\n      pop\n        /* \"contracts/ShareSecret.sol\":3233:3354  function acceptInvitation() public onlyOwner returns (bool) {... */\n      swap1\n      jump\t// out\n        /* \"contracts/ShareSecret.sol\":156:193  address payable[] public shareHolders */\n    tag_67:\n      0x01\n      dup2\n      dup2\n      sload\n      dup2\n      lt\n      tag_177\n      jumpi\n      0x00\n      dup1\n      revert\n    tag_177:\n      swap1\n      0x00\n      mstore\n      keccak256(0x00, 0x20)\n      add\n      0x00\n      swap2\n      pop\n      sload\n      swap1\n      0x0100\n      exp\n      swap1\n      div\n      0xffffffffffffffffffffffffffffffffffffffff\n      and\n      dup2\n      jump\t// out\n        /* \"contracts/ShareSecret.sol\":1907:2025  function addShareHolders(address payable shareHolder) public onlyOwner {... */\n    tag_72:\n        /* \"contracts/ShareSecret.sol\":1170:1175  owner */\n      0x00\n      dup1\n      sload\n      swap1\n      0x0100\n      exp\n      swap1\n      div\n      0xffffffffffffffffffffffffffffffffffffffff\n      and\n        /* \"contracts/ShareSecret.sol\":1156:1175  msg.sender == owner */\n      0xffffffffffffffffffffffffffffffffffffffff\n      and\n        /* \"contracts/ShareSecret.sol\":1156:1166  msg.sender */\n      caller\n        /* \"contracts/ShareSecret.sol\":1156:1175  msg.sender == owner */\n      0xffffffffffffffffffffffffffffffffffffffff\n      and\n      eq\n        /* \"contracts/ShareSecret.sol\":1148:1208  require(msg.sender == owner, \"Only owner has the privilege\") */\n      tag_180\n      jumpi\n      mload(0x40)\n      0x08c379a000000000000000000000000000000000000000000000000000000000\n      dup2\n      mstore\n      0x04\n      add\n      tag_181\n      swap1\n      tag_102\n      jump\t// in\n    tag_181:\n      mload(0x40)\n      dup1\n      swap2\n      sub\n      swap1\n      revert\n    tag_180:\n        /* \"contracts/ShareSecret.sol\":1988:2000  shareHolders */\n      0x01\n        /* \"contracts/ShareSecret.sol\":2006:2017  shareHolder */\n      dup2\n        /* \"contracts/ShareSecret.sol\":1988:2018  shareHolders.push(shareHolder) */\n      swap1\n      dup1\n      0x01\n      dup2\n      sload\n      add\n      dup1\n      dup3\n      sstore\n      dup1\n      swap2\n      pop\n      pop\n      0x01\n      swap1\n      sub\n      swap1\n      0x00\n      mstore\n      keccak256(0x00, 0x20)\n      add\n      0x00\n      swap1\n      swap2\n      swap1\n      swap2\n      swap1\n      swap2\n      0x0100\n      exp\n      dup2\n      sload\n      dup2\n      0xffffffffffffffffffffffffffffffffffffffff\n      mul\n      not\n      and\n      swap1\n      dup4\n      0xffffffffffffffffffffffffffffffffffffffff\n      and\n      mul\n      or\n      swap1\n      sstore\n      pop\n        /* \"contracts/ShareSecret.sol\":1907:2025  function addShareHolders(address payable shareHolder) public onlyOwner {... */\n      pop\n      jump\t// out\n        /* \"contracts/ShareSecret.sol\":1650:1760  function getShareHolders() public view returns (address payable[] memory) {... */\n    tag_74:\n        /* \"contracts/ShareSecret.sol\":1698:1722  address payable[] memory */\n      0x60\n        /* \"contracts/ShareSecret.sol\":1741:1753  shareHolders */\n      0x01\n        /* \"contracts/ShareSecret.sol\":1734:1753  return shareHolders */\n      dup1\n      sload\n      dup1\n      0x20\n      mul\n      0x20\n      add\n      mload(0x40)\n      swap1\n      dup2\n      add\n      0x40\n      mstore\n      dup1\n      swap3\n      swap2\n      swap1\n      dup2\n      dup2\n      mstore\n      0x20\n      add\n      dup3\n      dup1\n      sload\n      dup1\n      iszero\n      tag_185\n      jumpi\n      0x20\n      mul\n      dup3\n      add\n      swap2\n      swap1\n      0x00\n      mstore\n      keccak256(0x00, 0x20)\n      swap1\n    tag_186:\n      dup2\n      0x00\n      swap1\n      sload\n      swap1\n      0x0100\n      exp\n      swap1\n      div\n      0xffffffffffffffffffffffffffffffffffffffff\n      and\n      0xffffffffffffffffffffffffffffffffffffffff\n      and\n      dup2\n      mstore\n      0x20\n      add\n      swap1\n      0x01\n      add\n      swap1\n      dup1\n      dup4\n      gt\n      tag_186\n      jumpi\n    tag_185:\n      pop\n      pop\n      pop\n      pop\n      pop\n      swap1\n      pop\n        /* \"contracts/ShareSecret.sol\":1650:1760  function getShareHolders() public view returns (address payable[] memory) {... */\n      swap1\n      jump\t// out\n        /* \"contracts/ShareSecret.sol\":130:150  address public owner */\n    tag_78:\n      0x00\n      dup1\n      sload\n      swap1\n      0x0100\n      exp\n      swap1\n      div\n      0xffffffffffffffffffffffffffffffffffffffff\n      and\n      dup2\n      jump\t// out\n        /* \"contracts/ShareSecret.sol\":2736:2790  function askingFromHolders() public onlyOwner {... */\n    tag_82:\n        /* \"contracts/ShareSecret.sol\":1170:1175  owner */\n      0x00\n      dup1\n      sload\n      swap1\n      0x0100\n      exp\n      swap1\n      div\n      0xffffffffffffffffffffffffffffffffffffffff\n      and\n        /* \"contracts/ShareSecret.sol\":1156:1175  msg.sender == owner */\n      0xffffffffffffffffffffffffffffffffffffffff\n      and\n        /* \"contracts/ShareSecret.sol\":1156:1166  msg.sender */\n      caller\n        /* \"contracts/ShareSecret.sol\":1156:1175  msg.sender == owner */\n      0xffffffffffffffffffffffffffffffffffffffff\n      and\n      eq\n        /* \"contracts/ShareSecret.sol\":1148:1208  require(msg.sender == owner, \"Only owner has the privilege\") */\n      tag_188\n      jumpi\n      mload(0x40)\n      0x08c379a000000000000000000000000000000000000000000000000000000000\n      dup2\n      mstore\n      0x04\n      add\n      tag_189\n      swap1\n      tag_102\n      jump\t// in\n    tag_189:\n      mload(0x40)\n      dup1\n      swap2\n      sub\n      swap1\n      revert\n    tag_188:\n        /* \"contracts/ShareSecret.sol\":2736:2790  function askingFromHolders() public onlyOwner {... */\n      jump\t// out\n        /* \"contracts/ShareSecret.sol\":3561:3736  function releaseSecret(address ownerAddress) public onlyOwner view returns (string memory){... */\n    tag_85:\n        /* \"contracts/ShareSecret.sol\":3637:3650  string memory */\n      0x60\n        /* \"contracts/ShareSecret.sol\":1170:1175  owner */\n      0x00\n      dup1\n      sload\n      swap1\n      0x0100\n      exp\n      swap1\n      div\n      0xffffffffffffffffffffffffffffffffffffffff\n      and\n        /* \"contracts/ShareSecret.sol\":1156:1175  msg.sender == owner */\n      0xffffffffffffffffffffffffffffffffffffffff\n      and\n        /* \"contracts/ShareSecret.sol\":1156:1166  msg.sender */\n      caller\n        /* \"contracts/ShareSecret.sol\":1156:1175  msg.sender == owner */\n      0xffffffffffffffffffffffffffffffffffffffff\n      and\n      eq\n        /* \"contracts/ShareSecret.sol\":1148:1208  require(msg.sender == owner, \"Only owner has the privilege\") */\n      tag_192\n      jumpi\n      mload(0x40)\n      0x08c379a000000000000000000000000000000000000000000000000000000000\n      dup2\n      mstore\n      0x04\n      add\n      tag_193\n      swap1\n      tag_102\n      jump\t// in\n    tag_193:\n      mload(0x40)\n      dup1\n      swap2\n      sub\n      swap1\n      revert\n    tag_192:\n        /* \"contracts/ShareSecret.sol\":3661:3681  string memory secret */\n      0x00\n        /* \"contracts/ShareSecret.sol\":3683:3692  sharesMap */\n      0x04\n        /* \"contracts/ShareSecret.sol\":3683:3706  sharesMap[ownerAddress] */\n      0x00\n        /* \"contracts/ShareSecret.sol\":3693:3705  ownerAddress */\n      dup5\n        /* \"contracts/ShareSecret.sol\":3683:3706  sharesMap[ownerAddress] */\n      0xffffffffffffffffffffffffffffffffffffffff\n      and\n      0xffffffffffffffffffffffffffffffffffffffff\n      and\n      dup2\n      mstore\n      0x20\n      add\n      swap1\n      dup2\n      mstore\n      0x20\n      add\n      0x00\n      keccak256\n        /* \"contracts/ShareSecret.sol\":3661:3706  string memory secret =sharesMap[ownerAddress] */\n      dup1\n      sload\n      tag_195\n      swap1\n      tag_118\n      jump\t// in\n    tag_195:\n      dup1\n      0x1f\n      add\n      0x20\n      dup1\n      swap2\n      div\n      mul\n      0x20\n      add\n      mload(0x40)\n      swap1\n      dup2\n      add\n      0x40\n      mstore\n      dup1\n      swap3\n      swap2\n      swap1\n      dup2\n      dup2\n      mstore\n      0x20\n      add\n      dup3\n      dup1\n      sload\n      tag_196\n      swap1\n      tag_118\n      jump\t// in\n    tag_196:\n      dup1\n      iszero\n      tag_197\n      jumpi\n      dup1\n      0x1f\n      lt\n      tag_198\n      jumpi\n      0x0100\n      dup1\n      dup4\n      sload\n      div\n      mul\n      dup4\n      mstore\n      swap2\n      0x20\n      add\n      swap2\n      jump(tag_197)\n    tag_198:\n      dup3\n      add\n      swap2\n      swap1\n      0x00\n      mstore\n      keccak256(0x00, 0x20)\n      swap1\n    tag_199:\n      dup2\n      sload\n      dup2\n      mstore\n      swap1\n      0x01\n      add\n      swap1\n      0x20\n      add\n      dup1\n      dup4\n      gt\n      tag_199\n      jumpi\n      dup3\n      swap1\n      sub\n      0x1f\n      and\n      dup3\n      add\n      swap2\n    tag_197:\n      pop\n      pop\n      pop\n      pop\n      pop\n      swap1\n      pop\n        /* \"contracts/ShareSecret.sol\":3723:3729  secret */\n      dup1\n        /* \"contracts/ShareSecret.sol\":3716:3729  return secret */\n      swap2\n      pop\n      pop\n        /* \"contracts/ShareSecret.sol\":3561:3736  function releaseSecret(address ownerAddress) public onlyOwner view returns (string memory){... */\n      swap2\n      swap1\n      pop\n      jump\t// out\n        /* \"contracts/ShareSecret.sol\":287:336  mapping(address => string) public shareHoldersMap */\n    tag_89:\n      mstore(0x20, 0x03)\n      dup1\n      0x00\n      mstore\n      keccak256(0x00, 0x40)\n      0x00\n      swap2\n      pop\n      swap1\n      pop\n      dup1\n      sload\n      tag_200\n      swap1\n      tag_118\n      jump\t// in\n    tag_200:\n      dup1\n      0x1f\n      add\n      0x20\n      dup1\n      swap2\n      div\n      mul\n      0x20\n      add\n      mload(0x40)\n      swap1\n      dup2\n      add\n      0x40\n      mstore\n      dup1\n      swap3\n      swap2\n      swap1\n      dup2\n      dup2\n      mstore\n      0x20\n      add\n      dup3\n      dup1\n      sload\n      tag_201\n      swap1\n      tag_118\n      jump\t// in\n    tag_201:\n      dup1\n      iszero\n      tag_202\n      jumpi\n      dup1\n      0x1f\n      lt\n      tag_203\n      jumpi\n      0x0100\n      dup1\n      dup4\n      sload\n      div\n      mul\n      dup4\n      mstore\n      swap2\n      0x20\n      add\n      swap2\n      jump(tag_202)\n    tag_203:\n      dup3\n      add\n      swap2\n      swap1\n      0x00\n      mstore\n      keccak256(0x00, 0x20)\n      swap1\n    tag_204:\n      dup2\n      sload\n      dup2\n      mstore\n      swap1\n      0x01\n      add\n      swap1\n      0x20\n      add\n      dup1\n      dup4\n      gt\n      tag_204\n      jumpi\n      dup3\n      swap1\n      sub\n      0x1f\n      and\n      dup3\n      add\n      swap2\n    tag_202:\n      pop\n      pop\n      pop\n      pop\n      pop\n      dup2\n      jump\t// out\n        /* \"contracts/ShareSecret.sol\":1766:1855  function getShares() public view returns (string[] memory) {... */\n    tag_92:\n        /* \"contracts/ShareSecret.sol\":1808:1823  string[] memory */\n      0x60\n        /* \"contracts/ShareSecret.sol\":1842:1848  shares */\n      0x02\n        /* \"contracts/ShareSecret.sol\":1835:1848  return shares */\n      dup1\n      sload\n      dup1\n      0x20\n      mul\n      0x20\n      add\n      mload(0x40)\n      swap1\n      dup2\n      add\n      0x40\n      mstore\n      dup1\n      swap3\n      swap2\n      swap1\n      dup2\n      dup2\n      mstore\n      0x20\n      add\n      0x00\n      swap1\n    tag_206:\n      dup3\n      dup3\n      lt\n      iszero\n      tag_207\n      jumpi\n      dup4\n      dup3\n      swap1\n      0x00\n      mstore\n      keccak256(0x00, 0x20)\n      add\n      dup1\n      sload\n      tag_209\n      swap1\n      tag_118\n      jump\t// in\n    tag_209:\n      dup1\n      0x1f\n      add\n      0x20\n      dup1\n      swap2\n      div\n      mul\n      0x20\n      add\n      mload(0x40)\n      swap1\n      dup2\n      add\n      0x40\n      mstore\n      dup1\n      swap3\n      swap2\n      swap1\n      dup2\n      dup2\n      mstore\n      0x20\n      add\n      dup3\n      dup1\n      sload\n      tag_210\n      swap1\n      tag_118\n      jump\t// in\n    tag_210:\n      dup1\n      iszero\n      tag_211\n      jumpi\n      dup1\n      0x1f\n      lt\n      tag_212\n      jumpi\n      0x0100\n      dup1\n      dup4\n      sload\n      div\n      mul\n      dup4\n      mstore\n      swap2\n      0x20\n      add\n      swap2\n      jump(tag_211)\n    tag_212:\n      dup3\n      add\n      swap2\n      swap1\n      0x00\n      mstore\n      keccak256(0x00, 0x20)\n      swap1\n    tag_213:\n      dup2\n      sload\n      dup2\n      mstore\n      swap1\n      0x01\n      add\n      swap1\n      0x20\n      add\n      dup1\n      dup4\n      gt\n      tag_213\n      jumpi\n      dup3\n      swap1\n      sub\n      0x1f\n      and\n      dup3\n      add\n      swap2\n    tag_211:\n      pop\n      pop\n      pop\n      pop\n      pop\n      dup2\n      mstore\n      0x20\n      add\n      swap1\n      0x01\n      add\n      swap1\n      jump(tag_206)\n    tag_207:\n      pop\n      pop\n      pop\n      pop\n      swap1\n      pop\n        /* \"contracts/ShareSecret.sol\":1766:1855  function getShares() public view returns (string[] memory) {... */\n      swap1\n      jump\t// out\n        /* \"contracts/ShareSecret.sol\":1402:1644  function distribute() public onlyOwner {... */\n    tag_95:\n        /* \"contracts/ShareSecret.sol\":1170:1175  owner */\n      0x00\n      dup1\n      sload\n      swap1\n      0x0100\n      exp\n      swap1\n      div\n      0xffffffffffffffffffffffffffffffffffffffff\n      and\n        /* \"contracts/ShareSecret.sol\":1156:1175  msg.sender == owner */\n      0xffffffffffffffffffffffffffffffffffffffff\n      and\n        /* \"contracts/ShareSecret.sol\":1156:1166  msg.sender */\n      caller\n        /* \"contracts/ShareSecret.sol\":1156:1175  msg.sender == owner */\n      0xffffffffffffffffffffffffffffffffffffffff\n      and\n      eq\n        /* \"contracts/ShareSecret.sol\":1148:1208  require(msg.sender == owner, \"Only owner has the privilege\") */\n      tag_215\n      jumpi\n      mload(0x40)\n      0x08c379a000000000000000000000000000000000000000000000000000000000\n      dup2\n      mstore\n      0x04\n      add\n      tag_216\n      swap1\n      tag_102\n      jump\t// in\n    tag_216:\n      mload(0x40)\n      dup1\n      swap2\n      sub\n      swap1\n      revert\n    tag_215:\n        /* \"contracts/ShareSecret.sol\":1472:1484  shareHolders */\n      0x01\n        /* \"contracts/ShareSecret.sol\":1472:1491  shareHolders.length */\n      dup1\n      sload\n      swap1\n      pop\n        /* \"contracts/ShareSecret.sol\":1455:1461  shares */\n      0x02\n        /* \"contracts/ShareSecret.sol\":1455:1468  shares.length */\n      dup1\n      sload\n      swap1\n      pop\n        /* \"contracts/ShareSecret.sol\":1455:1491  shares.length <= shareHolders.length */\n      gt\n        /* \"contracts/ShareSecret.sol\":1451:1638  if (shares.length <= shareHolders.length) {... */\n      tag_218\n      jumpi\n        /* \"contracts/ShareSecret.sol\":1512:1521  uint256 i */\n      0x00\n        /* \"contracts/ShareSecret.sol\":1507:1628  for (uint256 i = 0; i < shares.length; i++) {... */\n    tag_219:\n        /* \"contracts/ShareSecret.sol\":1531:1537  shares */\n      0x02\n        /* \"contracts/ShareSecret.sol\":1531:1544  shares.length */\n      dup1\n      sload\n      swap1\n      pop\n        /* \"contracts/ShareSecret.sol\":1527:1528  i */\n      dup2\n        /* \"contracts/ShareSecret.sol\":1527:1544  i < shares.length */\n      lt\n        /* \"contracts/ShareSecret.sol\":1507:1628  for (uint256 i = 0; i < shares.length; i++) {... */\n      iszero\n      tag_220\n      jumpi\n        /* \"contracts/ShareSecret.sol\":1604:1610  shares */\n      0x02\n        /* \"contracts/ShareSecret.sol\":1611:1612  i */\n      dup2\n        /* \"contracts/ShareSecret.sol\":1604:1613  shares[i] */\n      dup2\n      sload\n      dup2\n      lt\n      tag_222\n      jumpi\n      tag_223\n      tag_142\n      jump\t// in\n    tag_223:\n    tag_222:\n      swap1\n      0x00\n      mstore\n      keccak256(0x00, 0x20)\n      add\n        /* \"contracts/ShareSecret.sol\":1569:1584  shareHoldersMap */\n      0x03\n        /* \"contracts/ShareSecret.sol\":1569:1601  shareHoldersMap[shareHolders[i]] */\n      0x00\n        /* \"contracts/ShareSecret.sol\":1585:1597  shareHolders */\n      0x01\n        /* \"contracts/ShareSecret.sol\":1598:1599  i */\n      dup5\n        /* \"contracts/ShareSecret.sol\":1585:1600  shareHolders[i] */\n      dup2\n      sload\n      dup2\n      lt\n      tag_225\n      jumpi\n      tag_226\n      tag_142\n      jump\t// in\n    tag_226:\n    tag_225:\n      swap1\n      0x00\n      mstore\n      keccak256(0x00, 0x20)\n      add\n      0x00\n      swap1\n      sload\n      swap1\n      0x0100\n      exp\n      swap1\n      div\n      0xffffffffffffffffffffffffffffffffffffffff\n      and\n        /* \"contracts/ShareSecret.sol\":1569:1601  shareHoldersMap[shareHolders[i]] */\n      0xffffffffffffffffffffffffffffffffffffffff\n      and\n      0xffffffffffffffffffffffffffffffffffffffff\n      and\n      dup2\n      mstore\n      0x20\n      add\n      swap1\n      dup2\n      mstore\n      0x20\n      add\n      0x00\n      keccak256\n        /* \"contracts/ShareSecret.sol\":1569:1613  shareHoldersMap[shareHolders[i]] = shares[i] */\n      swap1\n      dup2\n      tag_228\n      swap2\n      swap1\n      tag_229\n      jump\t// in\n    tag_228:\n      pop\n        /* \"contracts/ShareSecret.sol\":1546:1549  i++ */\n      dup1\n      dup1\n      tag_230\n      swap1\n      tag_163\n      jump\t// in\n    tag_230:\n      swap2\n      pop\n      pop\n        /* \"contracts/ShareSecret.sol\":1507:1628  for (uint256 i = 0; i < shares.length; i++) {... */\n      jump(tag_219)\n    tag_220:\n      pop\n        /* \"contracts/ShareSecret.sol\":1451:1638  if (shares.length <= shareHolders.length) {... */\n    tag_218:\n        /* \"contracts/ShareSecret.sol\":1402:1644  function distribute() public onlyOwner {... */\n      jump\t// out\n        /* \"contracts/ShareSecret.sol\":3741:3820  function rejectSecretRequest(address ownerAddress)public onlyOwner view{... */\n    tag_98:\n        /* \"contracts/ShareSecret.sol\":1170:1175  owner */\n      0x00\n      dup1\n      sload\n      swap1\n      0x0100\n      exp\n      swap1\n      div\n      0xffffffffffffffffffffffffffffffffffffffff\n      and\n        /* \"contracts/ShareSecret.sol\":1156:1175  msg.sender == owner */\n      0xffffffffffffffffffffffffffffffffffffffff\n      and\n        /* \"contracts/ShareSecret.sol\":1156:1166  msg.sender */\n      caller\n        /* \"contracts/ShareSecret.sol\":1156:1175  msg.sender == owner */\n      0xffffffffffffffffffffffffffffffffffffffff\n      and\n      eq\n        /* \"contracts/ShareSecret.sol\":1148:1208  require(msg.sender == owner, \"Only owner has the privilege\") */\n      tag_232\n      jumpi\n      mload(0x40)\n      0x08c379a000000000000000000000000000000000000000000000000000000000\n      dup2\n      mstore\n      0x04\n      add\n      tag_233\n      swap1\n      tag_102\n      jump\t// in\n    tag_233:\n      mload(0x40)\n      dup1\n      swap2\n      sub\n      swap1\n      revert\n    tag_232:\n        /* \"contracts/ShareSecret.sol\":3741:3820  function rejectSecretRequest(address ownerAddress)public onlyOwner view{... */\n      pop\n      jump\t// out\n        /* \"#utility.yul\":7:82   */\n    tag_235:\n        /* \"#utility.yul\":40:46   */\n      0x00\n        /* \"#utility.yul\":73:75   */\n      0x40\n        /* \"#utility.yul\":67:76   */\n      mload\n        /* \"#utility.yul\":57:76   */\n      swap1\n      pop\n        /* \"#utility.yul\":7:82   */\n      swap1\n      jump\t// out\n        /* \"#utility.yul\":88:205   */\n    tag_236:\n        /* \"#utility.yul\":197:198   */\n      0x00\n        /* \"#utility.yul\":194:195   */\n      dup1\n        /* \"#utility.yul\":187:199   */\n      revert\n        /* \"#utility.yul\":211:328   */\n    tag_237:\n        /* \"#utility.yul\":320:321   */\n      0x00\n        /* \"#utility.yul\":317:318   */\n      dup1\n        /* \"#utility.yul\":310:322   */\n      revert\n        /* \"#utility.yul\":334:424   */\n    tag_238:\n        /* \"#utility.yul\":368:375   */\n      0x00\n        /* \"#utility.yul\":411:416   */\n      dup2\n        /* \"#utility.yul\":404:417   */\n      iszero\n        /* \"#utility.yul\":397:418   */\n      iszero\n        /* \"#utility.yul\":386:418   */\n      swap1\n      pop\n        /* \"#utility.yul\":334:424   */\n      swap2\n      swap1\n      pop\n      jump\t// out\n        /* \"#utility.yul\":430:546   */\n    tag_239:\n        /* \"#utility.yul\":500:521   */\n      tag_317\n        /* \"#utility.yul\":515:520   */\n      dup2\n        /* \"#utility.yul\":500:521   */\n      tag_238\n      jump\t// in\n    tag_317:\n        /* \"#utility.yul\":493:498   */\n      dup2\n        /* \"#utility.yul\":490:522   */\n      eq\n        /* \"#utility.yul\":480:540   */\n      tag_318\n      jumpi\n        /* \"#utility.yul\":536:537   */\n      0x00\n        /* \"#utility.yul\":533:534   */\n      dup1\n        /* \"#utility.yul\":526:538   */\n      revert\n        /* \"#utility.yul\":480:540   */\n    tag_318:\n        /* \"#utility.yul\":430:546   */\n      pop\n      jump\t// out\n        /* \"#utility.yul\":552:685   */\n    tag_240:\n        /* \"#utility.yul\":595:600   */\n      0x00\n        /* \"#utility.yul\":633:639   */\n      dup2\n        /* \"#utility.yul\":620:640   */\n      calldataload\n        /* \"#utility.yul\":611:640   */\n      swap1\n      pop\n        /* \"#utility.yul\":649:679   */\n      tag_320\n        /* \"#utility.yul\":673:678   */\n      dup2\n        /* \"#utility.yul\":649:679   */\n      tag_239\n      jump\t// in\n    tag_320:\n        /* \"#utility.yul\":552:685   */\n      swap3\n      swap2\n      pop\n      pop\n      jump\t// out\n        /* \"#utility.yul\":691:1014   */\n    tag_28:\n        /* \"#utility.yul\":747:753   */\n      0x00\n        /* \"#utility.yul\":796:798   */\n      0x20\n        /* \"#utility.yul\":784:793   */\n      dup3\n        /* \"#utility.yul\":775:782   */\n      dup5\n        /* \"#utility.yul\":771:794   */\n      sub\n        /* \"#utility.yul\":767:799   */\n      slt\n        /* \"#utility.yul\":764:883   */\n      iszero\n      tag_322\n      jumpi\n        /* \"#utility.yul\":802:881   */\n      tag_323\n      tag_236\n      jump\t// in\n    tag_323:\n        /* \"#utility.yul\":764:883   */\n    tag_322:\n        /* \"#utility.yul\":922:923   */\n      0x00\n        /* \"#utility.yul\":947:997   */\n      tag_324\n        /* \"#utility.yul\":989:996   */\n      dup5\n        /* \"#utility.yul\":980:986   */\n      dup3\n        /* \"#utility.yul\":969:978   */\n      dup6\n        /* \"#utility.yul\":965:987   */\n      add\n        /* \"#utility.yul\":947:997   */\n      tag_240\n      jump\t// in\n    tag_324:\n        /* \"#utility.yul\":937:997   */\n      swap2\n      pop\n        /* \"#utility.yul\":893:1007   */\n      pop\n        /* \"#utility.yul\":691:1014   */\n      swap3\n      swap2\n      pop\n      pop\n      jump\t// out\n        /* \"#utility.yul\":1020:1134   */\n    tag_241:\n        /* \"#utility.yul\":1087:1093   */\n      0x00\n        /* \"#utility.yul\":1121:1126   */\n      dup2\n        /* \"#utility.yul\":1115:1127   */\n      mload\n        /* \"#utility.yul\":1105:1127   */\n      swap1\n      pop\n        /* \"#utility.yul\":1020:1134   */\n      swap2\n      swap1\n      pop\n      jump\t// out\n        /* \"#utility.yul\":1140:1324   */\n    tag_242:\n        /* \"#utility.yul\":1239:1250   */\n      0x00\n        /* \"#utility.yul\":1273:1279   */\n      dup3\n        /* \"#utility.yul\":1268:1271   */\n      dup3\n        /* \"#utility.yul\":1261:1280   */\n      mstore\n        /* \"#utility.yul\":1313:1317   */\n      0x20\n        /* \"#utility.yul\":1308:1311   */\n      dup3\n        /* \"#utility.yul\":1304:1318   */\n      add\n        /* \"#utility.yul\":1289:1318   */\n      swap1\n      pop\n        /* \"#utility.yul\":1140:1324   */\n      swap3\n      swap2\n      pop\n      pop\n      jump\t// out\n        /* \"#utility.yul\":1330:1462   */\n    tag_243:\n        /* \"#utility.yul\":1397:1401   */\n      0x00\n        /* \"#utility.yul\":1420:1423   */\n      dup2\n        /* \"#utility.yul\":1412:1423   */\n      swap1\n      pop\n        /* \"#utility.yul\":1450:1454   */\n      0x20\n        /* \"#utility.yul\":1445:1448   */\n      dup3\n        /* \"#utility.yul\":1441:1455   */\n      add\n        /* \"#utility.yul\":1433:1455   */\n      swap1\n      pop\n        /* \"#utility.yul\":1330:1462   */\n      swap2\n      swap1\n      pop\n      jump\t// out\n        /* \"#utility.yul\":1468:1594   */\n    tag_244:\n        /* \"#utility.yul\":1505:1512   */\n      0x00\n        /* \"#utility.yul\":1545:1587   */\n      0xffffffffffffffffffffffffffffffffffffffff\n        /* \"#utility.yul\":1538:1543   */\n      dup3\n        /* \"#utility.yul\":1534:1588   */\n      and\n        /* \"#utility.yul\":1523:1588   */\n      swap1\n      pop\n        /* \"#utility.yul\":1468:1594   */\n      swap2\n      swap1\n      pop\n      jump\t// out\n        /* \"#utility.yul\":1600:1696   */\n    tag_245:\n        /* \"#utility.yul\":1637:1644   */\n      0x00\n        /* \"#utility.yul\":1666:1690   */\n      tag_330\n        /* \"#utility.yul\":1684:1689   */\n      dup3\n        /* \"#utility.yul\":1666:1690   */\n      tag_244\n      jump\t// in\n    tag_330:\n        /* \"#utility.yul\":1655:1690   */\n      swap1\n      pop\n        /* \"#utility.yul\":1600:1696   */\n      swap2\n      swap1\n      pop\n      jump\t// out\n        /* \"#utility.yul\":1702:1810   */\n    tag_246:\n        /* \"#utility.yul\":1779:1803   */\n      tag_332\n        /* \"#utility.yul\":1797:1802   */\n      dup2\n        /* \"#utility.yul\":1779:1803   */\n      tag_245\n      jump\t// in\n    tag_332:\n        /* \"#utility.yul\":1774:1777   */\n      dup3\n        /* \"#utility.yul\":1767:1804   */\n      mstore\n        /* \"#utility.yul\":1702:1810   */\n      pop\n      pop\n      jump\t// out\n        /* \"#utility.yul\":1816:1995   */\n    tag_247:\n        /* \"#utility.yul\":1885:1895   */\n      0x00\n        /* \"#utility.yul\":1906:1952   */\n      tag_334\n        /* \"#utility.yul\":1948:1951   */\n      dup4\n        /* \"#utility.yul\":1940:1946   */\n      dup4\n        /* \"#utility.yul\":1906:1952   */\n      tag_246\n      jump\t// in\n    tag_334:\n        /* \"#utility.yul\":1984:1988   */\n      0x20\n        /* \"#utility.yul\":1979:1982   */\n      dup4\n        /* \"#utility.yul\":1975:1989   */\n      add\n        /* \"#utility.yul\":1961:1989   */\n      swap1\n      pop\n        /* \"#utility.yul\":1816:1995   */\n      swap3\n      swap2\n      pop\n      pop\n      jump\t// out\n        /* \"#utility.yul\":2001:2114   */\n    tag_248:\n        /* \"#utility.yul\":2071:2075   */\n      0x00\n        /* \"#utility.yul\":2103:2107   */\n      0x20\n        /* \"#utility.yul\":2098:2101   */\n      dup3\n        /* \"#utility.yul\":2094:2108   */\n      add\n        /* \"#utility.yul\":2086:2108   */\n      swap1\n      pop\n        /* \"#utility.yul\":2001:2114   */\n      swap2\n      swap1\n      pop\n      jump\t// out\n        /* \"#utility.yul\":2150:2882   */\n    tag_249:\n        /* \"#utility.yul\":2269:2272   */\n      0x00\n        /* \"#utility.yul\":2298:2352   */\n      tag_337\n        /* \"#utility.yul\":2346:2351   */\n      dup3\n        /* \"#utility.yul\":2298:2352   */\n      tag_241\n      jump\t// in\n    tag_337:\n        /* \"#utility.yul\":2368:2454   */\n      tag_338\n        /* \"#utility.yul\":2447:2453   */\n      dup2\n        /* \"#utility.yul\":2442:2445   */\n      dup6\n        /* \"#utility.yul\":2368:2454   */\n      tag_242\n      jump\t// in\n    tag_338:\n        /* \"#utility.yul\":2361:2454   */\n      swap4\n      pop\n        /* \"#utility.yul\":2478:2534   */\n      tag_339\n        /* \"#utility.yul\":2528:2533   */\n      dup4\n        /* \"#utility.yul\":2478:2534   */\n      tag_243\n      jump\t// in\n    tag_339:\n        /* \"#utility.yul\":2557:2564   */\n      dup1\n        /* \"#utility.yul\":2588:2589   */\n      0x00\n        /* \"#utility.yul\":2573:2857   */\n    tag_340:\n        /* \"#utility.yul\":2598:2604   */\n      dup4\n        /* \"#utility.yul\":2595:2596   */\n      dup2\n        /* \"#utility.yul\":2592:2605   */\n      lt\n        /* \"#utility.yul\":2573:2857   */\n      iszero\n      tag_342\n      jumpi\n        /* \"#utility.yul\":2674:2680   */\n      dup2\n        /* \"#utility.yul\":2668:2681   */\n      mload\n        /* \"#utility.yul\":2701:2764   */\n      tag_343\n        /* \"#utility.yul\":2760:2763   */\n      dup9\n        /* \"#utility.yul\":2745:2758   */\n      dup3\n        /* \"#utility.yul\":2701:2764   */\n      tag_247\n      jump\t// in\n    tag_343:\n        /* \"#utility.yul\":2694:2764   */\n      swap8\n      pop\n        /* \"#utility.yul\":2787:2847   */\n      tag_344\n        /* \"#utility.yul\":2840:2846   */\n      dup4\n        /* \"#utility.yul\":2787:2847   */\n      tag_248\n      jump\t// in\n    tag_344:\n        /* \"#utility.yul\":2777:2847   */\n      swap3\n      pop\n        /* \"#utility.yul\":2633:2857   */\n      pop\n        /* \"#utility.yul\":2620:2621   */\n      0x01\n        /* \"#utility.yul\":2617:2618   */\n      dup2\n        /* \"#utility.yul\":2613:2622   */\n      add\n        /* \"#utility.yul\":2608:2622   */\n      swap1\n      pop\n        /* \"#utility.yul\":2573:2857   */\n      jump(tag_340)\n    tag_342:\n        /* \"#utility.yul\":2577:2591   */\n      pop\n        /* \"#utility.yul\":2873:2876   */\n      dup6\n        /* \"#utility.yul\":2866:2876   */\n      swap4\n      pop\n        /* \"#utility.yul\":2274:2882   */\n      pop\n      pop\n      pop\n        /* \"#utility.yul\":2150:2882   */\n      swap3\n      swap2\n      pop\n      pop\n      jump\t// out\n        /* \"#utility.yul\":2888:3261   */\n    tag_33:\n        /* \"#utility.yul\":3031:3035   */\n      0x00\n        /* \"#utility.yul\":3069:3071   */\n      0x20\n        /* \"#utility.yul\":3058:3067   */\n      dup3\n        /* \"#utility.yul\":3054:3072   */\n      add\n        /* \"#utility.yul\":3046:3072   */\n      swap1\n      pop\n        /* \"#utility.yul\":3118:3127   */\n      dup2\n        /* \"#utility.yul\":3112:3116   */\n      dup2\n        /* \"#utility.yul\":3108:3128   */\n      sub\n        /* \"#utility.yul\":3104:3105   */\n      0x00\n        /* \"#utility.yul\":3093:3102   */\n      dup4\n        /* \"#utility.yul\":3089:3106   */\n      add\n        /* \"#utility.yul\":3082:3129   */\n      mstore\n        /* \"#utility.yul\":3146:3254   */\n      tag_346\n        /* \"#utility.yul\":3249:3253   */\n      dup2\n        /* \"#utility.yul\":3240:3246   */\n      dup5\n        /* \"#utility.yul\":3146:3254   */\n      tag_249\n      jump\t// in\n    tag_346:\n        /* \"#utility.yul\":3138:3254   */\n      swap1\n      pop\n        /* \"#utility.yul\":2888:3261   */\n      swap3\n      swap2\n      pop\n      pop\n      jump\t// out\n        /* \"#utility.yul\":3267:3391   */\n    tag_250:\n        /* \"#utility.yul\":3344:3350   */\n      0x00\n        /* \"#utility.yul\":3378:3383   */\n      dup2\n        /* \"#utility.yul\":3372:3384   */\n      mload\n        /* \"#utility.yul\":3362:3384   */\n      swap1\n      pop\n        /* \"#utility.yul\":3267:3391   */\n      swap2\n      swap1\n      pop\n      jump\t// out\n        /* \"#utility.yul\":3397:3591   */\n    tag_251:\n        /* \"#utility.yul\":3506:3517   */\n      0x00\n        /* \"#utility.yul\":3540:3546   */\n      dup3\n        /* \"#utility.yul\":3535:3538   */\n      dup3\n        /* \"#utility.yul\":3528:3547   */\n      mstore\n        /* \"#utility.yul\":3580:3584   */\n      0x20\n        /* \"#utility.yul\":3575:3578   */\n      dup3\n        /* \"#utility.yul\":3571:3585   */\n      add\n        /* \"#utility.yul\":3556:3585   */\n      swap1\n      pop\n        /* \"#utility.yul\":3397:3591   */\n      swap3\n      swap2\n      pop\n      pop\n      jump\t// out\n        /* \"#utility.yul\":3597:3739   */\n    tag_252:\n        /* \"#utility.yul\":3674:3678   */\n      0x00\n        /* \"#utility.yul\":3697:3700   */\n      dup2\n        /* \"#utility.yul\":3689:3700   */\n      swap1\n      pop\n        /* \"#utility.yul\":3727:3731   */\n      0x20\n        /* \"#utility.yul\":3722:3725   */\n      dup3\n        /* \"#utility.yul\":3718:3732   */\n      add\n        /* \"#utility.yul\":3710:3732   */\n      swap1\n      pop\n        /* \"#utility.yul\":3597:3739   */\n      swap2\n      swap1\n      pop\n      jump\t// out\n        /* \"#utility.yul\":3745:3844   */\n    tag_253:\n        /* \"#utility.yul\":3797:3803   */\n      0x00\n        /* \"#utility.yul\":3831:3836   */\n      dup2\n        /* \"#utility.yul\":3825:3837   */\n      mload\n        /* \"#utility.yul\":3815:3837   */\n      swap1\n      pop\n        /* \"#utility.yul\":3745:3844   */\n      swap2\n      swap1\n      pop\n      jump\t// out\n        /* \"#utility.yul\":3850:4009   */\n    tag_254:\n        /* \"#utility.yul\":3924:3935   */\n      0x00\n        /* \"#utility.yul\":3958:3964   */\n      dup3\n        /* \"#utility.yul\":3953:3956   */\n      dup3\n        /* \"#utility.yul\":3946:3965   */\n      mstore\n        /* \"#utility.yul\":3998:4002   */\n      0x20\n        /* \"#utility.yul\":3993:3996   */\n      dup3\n        /* \"#utility.yul\":3989:4003   */\n      add\n        /* \"#utility.yul\":3974:4003   */\n      swap1\n      pop\n        /* \"#utility.yul\":3850:4009   */\n      swap3\n      swap2\n      pop\n      pop\n      jump\t// out\n        /* \"#utility.yul\":4015:4261   */\n    tag_255:\n        /* \"#utility.yul\":4096:4097   */\n      0x00\n        /* \"#utility.yul\":4106:4219   */\n    tag_353:\n        /* \"#utility.yul\":4120:4126   */\n      dup4\n        /* \"#utility.yul\":4117:4118   */\n      dup2\n        /* \"#utility.yul\":4114:4127   */\n      lt\n        /* \"#utility.yul\":4106:4219   */\n      iszero\n      tag_355\n      jumpi\n        /* \"#utility.yul\":4205:4206   */\n      dup1\n        /* \"#utility.yul\":4200:4203   */\n      dup3\n        /* \"#utility.yul\":4196:4207   */\n      add\n        /* \"#utility.yul\":4190:4208   */\n      mload\n        /* \"#utility.yul\":4186:4187   */\n      dup2\n        /* \"#utility.yul\":4181:4184   */\n      dup5\n        /* \"#utility.yul\":4177:4188   */\n      add\n        /* \"#utility.yul\":4170:4209   */\n      mstore\n        /* \"#utility.yul\":4142:4144   */\n      0x20\n        /* \"#utility.yul\":4139:4140   */\n      dup2\n        /* \"#utility.yul\":4135:4145   */\n      add\n        /* \"#utility.yul\":4130:4145   */\n      swap1\n      pop\n        /* \"#utility.yul\":4106:4219   */\n      jump(tag_353)\n    tag_355:\n        /* \"#utility.yul\":4253:4254   */\n      0x00\n        /* \"#utility.yul\":4244:4250   */\n      dup5\n        /* \"#utility.yul\":4239:4242   */\n      dup5\n        /* \"#utility.yul\":4235:4251   */\n      add\n        /* \"#utility.yul\":4228:4255   */\n      mstore\n        /* \"#utility.yul\":4077:4261   */\n      pop\n        /* \"#utility.yul\":4015:4261   */\n      pop\n      pop\n      pop\n      jump\t// out\n        /* \"#utility.yul\":4267:4369   */\n    tag_256:\n        /* \"#utility.yul\":4308:4314   */\n      0x00\n        /* \"#utility.yul\":4359:4361   */\n      0x1f\n        /* \"#utility.yul\":4355:4362   */\n      not\n        /* \"#utility.yul\":4350:4352   */\n      0x1f\n        /* \"#utility.yul\":4343:4348   */\n      dup4\n        /* \"#utility.yul\":4339:4353   */\n      add\n        /* \"#utility.yul\":4335:4363   */\n      and\n        /* \"#utility.yul\":4325:4363   */\n      swap1\n      pop\n        /* \"#utility.yul\":4267:4369   */\n      swap2\n      swap1\n      pop\n      jump\t// out\n        /* \"#utility.yul\":4375:4732   */\n    tag_257:\n        /* \"#utility.yul\":4453:4456   */\n      0x00\n        /* \"#utility.yul\":4481:4520   */\n      tag_358\n        /* \"#utility.yul\":4514:4519   */\n      dup3\n        /* \"#utility.yul\":4481:4520   */\n      tag_253\n      jump\t// in\n    tag_358:\n        /* \"#utility.yul\":4536:4597   */\n      tag_359\n        /* \"#utility.yul\":4590:4596   */\n      dup2\n        /* \"#utility.yul\":4585:4588   */\n      dup6\n        /* \"#utility.yul\":4536:4597   */\n      tag_254\n      jump\t// in\n    tag_359:\n        /* \"#utility.yul\":4529:4597   */\n      swap4\n      pop\n        /* \"#utility.yul\":4606:4671   */\n      tag_360\n        /* \"#utility.yul\":4664:4670   */\n      dup2\n        /* \"#utility.yul\":4659:4662   */\n      dup6\n        /* \"#utility.yul\":4652:4656   */\n      0x20\n        /* \"#utility.yul\":4645:4650   */\n      dup7\n        /* \"#utility.yul\":4641:4657   */\n      add\n        /* \"#utility.yul\":4606:4671   */\n      tag_255\n      jump\t// in\n    tag_360:\n        /* \"#utility.yul\":4696:4725   */\n      tag_361\n        /* \"#utility.yul\":4718:4724   */\n      dup2\n        /* \"#utility.yul\":4696:4725   */\n      tag_256\n      jump\t// in\n    tag_361:\n        /* \"#utility.yul\":4691:4694   */\n      dup5\n        /* \"#utility.yul\":4687:4726   */\n      add\n        /* \"#utility.yul\":4680:4726   */\n      swap2\n      pop\n        /* \"#utility.yul\":4457:4732   */\n      pop\n        /* \"#utility.yul\":4375:4732   */\n      swap3\n      swap2\n      pop\n      pop\n      jump\t// out\n        /* \"#utility.yul\":4738:4934   */\n    tag_258:\n        /* \"#utility.yul\":4827:4837   */\n      0x00\n        /* \"#utility.yul\":4862:4928   */\n      tag_363\n        /* \"#utility.yul\":4924:4927   */\n      dup4\n        /* \"#utility.yul\":4916:4922   */\n      dup4\n        /* \"#utility.yul\":4862:4928   */\n      tag_257\n      jump\t// in\n    tag_363:\n        /* \"#utility.yul\":4848:4928   */\n      swap1\n      pop\n        /* \"#utility.yul\":4738:4934   */\n      swap3\n      swap2\n      pop\n      pop\n      jump\t// out\n        /* \"#utility.yul\":4940:5063   */\n    tag_259:\n        /* \"#utility.yul\":5020:5024   */\n      0x00\n        /* \"#utility.yul\":5052:5056   */\n      0x20\n        /* \"#utility.yul\":5047:5050   */\n      dup3\n        /* \"#utility.yul\":5043:5057   */\n      add\n        /* \"#utility.yul\":5035:5057   */\n      swap1\n      pop\n        /* \"#utility.yul\":4940:5063   */\n      swap2\n      swap1\n      pop\n      jump\t// out\n        /* \"#utility.yul\":5097:6088   */\n    tag_260:\n        /* \"#utility.yul\":5236:5239   */\n      0x00\n        /* \"#utility.yul\":5265:5329   */\n      tag_366\n        /* \"#utility.yul\":5323:5328   */\n      dup3\n        /* \"#utility.yul\":5265:5329   */\n      tag_250\n      jump\t// in\n    tag_366:\n        /* \"#utility.yul\":5345:5441   */\n      tag_367\n        /* \"#utility.yul\":5434:5440   */\n      dup2\n        /* \"#utility.yul\":5429:5432   */\n      dup6\n        /* \"#utility.yul\":5345:5441   */\n      tag_251\n      jump\t// in\n    tag_367:\n        /* \"#utility.yul\":5338:5441   */\n      swap4\n      pop\n        /* \"#utility.yul\":5467:5470   */\n      dup4\n        /* \"#utility.yul\":5512:5516   */\n      0x20\n        /* \"#utility.yul\":5504:5510   */\n      dup3\n        /* \"#utility.yul\":5500:5517   */\n      mul\n        /* \"#utility.yul\":5495:5498   */\n      dup6\n        /* \"#utility.yul\":5491:5518   */\n      add\n        /* \"#utility.yul\":5542:5608   */\n      tag_368\n        /* \"#utility.yul\":5602:5607   */\n      dup6\n        /* \"#utility.yul\":5542:5608   */\n      tag_252\n      jump\t// in\n    tag_368:\n        /* \"#utility.yul\":5631:5638   */\n      dup1\n        /* \"#utility.yul\":5662:5663   */\n      0x00\n        /* \"#utility.yul\":5647:6043   */\n    tag_369:\n        /* \"#utility.yul\":5672:5678   */\n      dup6\n        /* \"#utility.yul\":5669:5670   */\n      dup2\n        /* \"#utility.yul\":5666:5679   */\n      lt\n        /* \"#utility.yul\":5647:6043   */\n      iszero\n      tag_371\n      jumpi\n        /* \"#utility.yul\":5743:5752   */\n      dup5\n        /* \"#utility.yul\":5737:5741   */\n      dup5\n        /* \"#utility.yul\":5733:5753   */\n      sub\n        /* \"#utility.yul\":5728:5731   */\n      dup10\n        /* \"#utility.yul\":5721:5754   */\n      mstore\n        /* \"#utility.yul\":5794:5800   */\n      dup2\n        /* \"#utility.yul\":5788:5801   */\n      mload\n        /* \"#utility.yul\":5822:5906   */\n      tag_372\n        /* \"#utility.yul\":5901:5905   */\n      dup6\n        /* \"#utility.yul\":5886:5899   */\n      dup3\n        /* \"#utility.yul\":5822:5906   */\n      tag_258\n      jump\t// in\n    tag_372:\n        /* \"#utility.yul\":5814:5906   */\n      swap5\n      pop\n        /* \"#utility.yul\":5929:5999   */\n      tag_373\n        /* \"#utility.yul\":5992:5998   */\n      dup4\n        /* \"#utility.yul\":5929:5999   */\n      tag_259\n      jump\t// in\n    tag_373:\n        /* \"#utility.yul\":5919:5999   */\n      swap3\n      pop\n        /* \"#utility.yul\":6028:6032   */\n      0x20\n        /* \"#utility.yul\":6023:6026   */\n      dup11\n        /* \"#utility.yul\":6019:6033   */\n      add\n        /* \"#utility.yul\":6012:6033   */\n      swap10\n      pop\n        /* \"#utility.yul\":5707:6043   */\n      pop\n        /* \"#utility.yul\":5694:5695   */\n      0x01\n        /* \"#utility.yul\":5691:5692   */\n      dup2\n        /* \"#utility.yul\":5687:5696   */\n      add\n        /* \"#utility.yul\":5682:5696   */\n      swap1\n      pop\n        /* \"#utility.yul\":5647:6043   */\n      jump(tag_369)\n    tag_371:\n        /* \"#utility.yul\":5651:5665   */\n      pop\n        /* \"#utility.yul\":6059:6063   */\n      dup3\n        /* \"#utility.yul\":6052:6063   */\n      swap8\n      pop\n        /* \"#utility.yul\":6079:6082   */\n      dup8\n        /* \"#utility.yul\":6072:6082   */\n      swap6\n      pop\n        /* \"#utility.yul\":5241:6088   */\n      pop\n      pop\n      pop\n      pop\n      pop\n        /* \"#utility.yul\":5097:6088   */\n      swap3\n      swap2\n      pop\n      pop\n      jump\t// out\n        /* \"#utility.yul\":6094:6507   */\n    tag_37:\n        /* \"#utility.yul\":6257:6261   */\n      0x00\n        /* \"#utility.yul\":6295:6297   */\n      0x20\n        /* \"#utility.yul\":6284:6293   */\n      dup3\n        /* \"#utility.yul\":6280:6298   */\n      add\n        /* \"#utility.yul\":6272:6298   */\n      swap1\n      pop\n        /* \"#utility.yul\":6344:6353   */\n      dup2\n        /* \"#utility.yul\":6338:6342   */\n      dup2\n        /* \"#utility.yul\":6334:6354   */\n      sub\n        /* \"#utility.yul\":6330:6331   */\n      0x00\n        /* \"#utility.yul\":6319:6328   */\n      dup4\n        /* \"#utility.yul\":6315:6332   */\n      add\n        /* \"#utility.yul\":6308:6355   */\n      mstore\n        /* \"#utility.yul\":6372:6500   */\n      tag_375\n        /* \"#utility.yul\":6495:6499   */\n      dup2\n        /* \"#utility.yul\":6486:6492   */\n      dup5\n        /* \"#utility.yul\":6372:6500   */\n      tag_260\n      jump\t// in\n    tag_375:\n        /* \"#utility.yul\":6364:6500   */\n      swap1\n      pop\n        /* \"#utility.yul\":6094:6507   */\n      swap3\n      swap2\n      pop\n      pop\n      jump\t// out\n        /* \"#utility.yul\":6513:6635   */\n    tag_261:\n        /* \"#utility.yul\":6586:6610   */\n      tag_377\n        /* \"#utility.yul\":6604:6609   */\n      dup2\n        /* \"#utility.yul\":6586:6610   */\n      tag_245\n      jump\t// in\n    tag_377:\n        /* \"#utility.yul\":6579:6584   */\n      dup2\n        /* \"#utility.yul\":6576:6611   */\n      eq\n        /* \"#utility.yul\":6566:6629   */\n      tag_378\n      jumpi\n        /* \"#utility.yul\":6625:6626   */\n      0x00\n        /* \"#utility.yul\":6622:6623   */\n      dup1\n        /* \"#utility.yul\":6615:6627   */\n      revert\n        /* \"#utility.yul\":6566:6629   */\n    tag_378:\n        /* \"#utility.yul\":6513:6635   */\n      pop\n      jump\t// out\n        /* \"#utility.yul\":6641:6780   */\n    tag_262:\n        /* \"#utility.yul\":6687:6692   */\n      0x00\n        /* \"#utility.yul\":6725:6731   */\n      dup2\n        /* \"#utility.yul\":6712:6732   */\n      calldataload\n        /* \"#utility.yul\":6703:6732   */\n      swap1\n      pop\n        /* \"#utility.yul\":6741:6774   */\n      tag_380\n        /* \"#utility.yul\":6768:6773   */\n      dup2\n        /* \"#utility.yul\":6741:6774   */\n      tag_261\n      jump\t// in\n    tag_380:\n        /* \"#utility.yul\":6641:6780   */\n      swap3\n      swap2\n      pop\n      pop\n      jump\t// out\n        /* \"#utility.yul\":6786:7115   */\n    tag_42:\n        /* \"#utility.yul\":6845:6851   */\n      0x00\n        /* \"#utility.yul\":6894:6896   */\n      0x20\n        /* \"#utility.yul\":6882:6891   */\n      dup3\n        /* \"#utility.yul\":6873:6880   */\n      dup5\n        /* \"#utility.yul\":6869:6892   */\n      sub\n        /* \"#utility.yul\":6865:6897   */\n      slt\n        /* \"#utility.yul\":6862:6981   */\n      iszero\n      tag_382\n      jumpi\n        /* \"#utility.yul\":6900:6979   */\n      tag_383\n      tag_236\n      jump\t// in\n    tag_383:\n        /* \"#utility.yul\":6862:6981   */\n    tag_382:\n        /* \"#utility.yul\":7020:7021   */\n      0x00\n        /* \"#utility.yul\":7045:7098   */\n      tag_384\n        /* \"#utility.yul\":7090:7097   */\n      dup5\n        /* \"#utility.yul\":7081:7087   */\n      dup3\n        /* \"#utility.yul\":7070:7079   */\n      dup6\n        /* \"#utility.yul\":7066:7088   */\n      add\n        /* \"#utility.yul\":7045:7098   */\n      tag_262\n      jump\t// in\n    tag_384:\n        /* \"#utility.yul\":7035:7098   */\n      swap2\n      pop\n        /* \"#utility.yul\":6991:7108   */\n      pop\n        /* \"#utility.yul\":6786:7115   */\n      swap3\n      swap2\n      pop\n      pop\n      jump\t// out\n        /* \"#utility.yul\":7121:7290   */\n    tag_263:\n        /* \"#utility.yul\":7205:7216   */\n      0x00\n        /* \"#utility.yul\":7239:7245   */\n      dup3\n        /* \"#utility.yul\":7234:7237   */\n      dup3\n        /* \"#utility.yul\":7227:7246   */\n      mstore\n        /* \"#utility.yul\":7279:7283   */\n      0x20\n        /* \"#utility.yul\":7274:7277   */\n      dup3\n        /* \"#utility.yul\":7270:7284   */\n      add\n        /* \"#utility.yul\":7255:7284   */\n      swap1\n      pop\n        /* \"#utility.yul\":7121:7290   */\n      swap3\n      swap2\n      pop\n      pop\n      jump\t// out\n        /* \"#utility.yul\":7296:7673   */\n    tag_264:\n        /* \"#utility.yul\":7384:7387   */\n      0x00\n        /* \"#utility.yul\":7412:7451   */\n      tag_387\n        /* \"#utility.yul\":7445:7450   */\n      dup3\n        /* \"#utility.yul\":7412:7451   */\n      tag_253\n      jump\t// in\n    tag_387:\n        /* \"#utility.yul\":7467:7538   */\n      tag_388\n        /* \"#utility.yul\":7531:7537   */\n      dup2\n        /* \"#utility.yul\":7526:7529   */\n      dup6\n        /* \"#utility.yul\":7467:7538   */\n      tag_263\n      jump\t// in\n    tag_388:\n        /* \"#utility.yul\":7460:7538   */\n      swap4\n      pop\n        /* \"#utility.yul\":7547:7612   */\n      tag_389\n        /* \"#utility.yul\":7605:7611   */\n      dup2\n        /* \"#utility.yul\":7600:7603   */\n      dup6\n        /* \"#utility.yul\":7593:7597   */\n      0x20\n        /* \"#utility.yul\":7586:7591   */\n      dup7\n        /* \"#utility.yul\":7582:7598   */\n      add\n        /* \"#utility.yul\":7547:7612   */\n      tag_255\n      jump\t// in\n    tag_389:\n        /* \"#utility.yul\":7637:7666   */\n      tag_390\n        /* \"#utility.yul\":7659:7665   */\n      dup2\n        /* \"#utility.yul\":7637:7666   */\n      tag_256\n      jump\t// in\n    tag_390:\n        /* \"#utility.yul\":7632:7635   */\n      dup5\n        /* \"#utility.yul\":7628:7667   */\n      add\n        /* \"#utility.yul\":7621:7667   */\n      swap2\n      pop\n        /* \"#utility.yul\":7388:7673   */\n      pop\n        /* \"#utility.yul\":7296:7673   */\n      swap3\n      swap2\n      pop\n      pop\n      jump\t// out\n        /* \"#utility.yul\":7679:7992   */\n    tag_45:\n        /* \"#utility.yul\":7792:7796   */\n      0x00\n        /* \"#utility.yul\":7830:7832   */\n      0x20\n        /* \"#utility.yul\":7819:7828   */\n      dup3\n        /* \"#utility.yul\":7815:7833   */\n      add\n        /* \"#utility.yul\":7807:7833   */\n      swap1\n      pop\n        /* \"#utility.yul\":7879:7888   */\n      dup2\n        /* \"#utility.yul\":7873:7877   */\n      dup2\n        /* \"#utility.yul\":7869:7889   */\n      sub\n        /* \"#utility.yul\":7865:7866   */\n      0x00\n        /* \"#utility.yul\":7854:7863   */\n      dup4\n        /* \"#utility.yul\":7850:7867   */\n      add\n        /* \"#utility.yul\":7843:7890   */\n      mstore\n        /* \"#utility.yul\":7907:7985   */\n      tag_392\n        /* \"#utility.yul\":7980:7984   */\n      dup2\n        /* \"#utility.yul\":7971:7977   */\n      dup5\n        /* \"#utility.yul\":7907:7985   */\n      tag_264\n      jump\t// in\n    tag_392:\n        /* \"#utility.yul\":7899:7985   */\n      swap1\n      pop\n        /* \"#utility.yul\":7679:7992   */\n      swap3\n      swap2\n      pop\n      pop\n      jump\t// out\n        /* \"#utility.yul\":7998:8107   */\n    tag_265:\n        /* \"#utility.yul\":8079:8100   */\n      tag_394\n        /* \"#utility.yul\":8094:8099   */\n      dup2\n        /* \"#utility.yul\":8079:8100   */\n      tag_238\n      jump\t// in\n    tag_394:\n        /* \"#utility.yul\":8074:8077   */\n      dup3\n        /* \"#utility.yul\":8067:8101   */\n      mstore\n        /* \"#utility.yul\":7998:8107   */\n      pop\n      pop\n      jump\t// out\n        /* \"#utility.yul\":8113:8323   */\n    tag_49:\n        /* \"#utility.yul\":8200:8204   */\n      0x00\n        /* \"#utility.yul\":8238:8240   */\n      0x20\n        /* \"#utility.yul\":8227:8236   */\n      dup3\n        /* \"#utility.yul\":8223:8241   */\n      add\n        /* \"#utility.yul\":8215:8241   */\n      swap1\n      pop\n        /* \"#utility.yul\":8251:8316   */\n      tag_396\n        /* \"#utility.yul\":8313:8314   */\n      0x00\n        /* \"#utility.yul\":8302:8311   */\n      dup4\n        /* \"#utility.yul\":8298:8315   */\n      add\n        /* \"#utility.yul\":8289:8295   */\n      dup5\n        /* \"#utility.yul\":8251:8316   */\n      tag_265\n      jump\t// in\n    tag_396:\n        /* \"#utility.yul\":8113:8323   */\n      swap3\n      swap2\n      pop\n      pop\n      jump\t// out\n        /* \"#utility.yul\":8329:8406   */\n    tag_266:\n        /* \"#utility.yul\":8366:8373   */\n      0x00\n        /* \"#utility.yul\":8395:8400   */\n      dup2\n        /* \"#utility.yul\":8384:8400   */\n      swap1\n      pop\n        /* \"#utility.yul\":8329:8406   */\n      swap2\n      swap1\n      pop\n      jump\t// out\n        /* \"#utility.yul\":8412:8534   */\n    tag_267:\n        /* \"#utility.yul\":8485:8509   */\n      tag_399\n        /* \"#utility.yul\":8503:8508   */\n      dup2\n        /* \"#utility.yul\":8485:8509   */\n      tag_266\n      jump\t// in\n    tag_399:\n        /* \"#utility.yul\":8478:8483   */\n      dup2\n        /* \"#utility.yul\":8475:8510   */\n      eq\n        /* \"#utility.yul\":8465:8528   */\n      tag_400\n      jumpi\n        /* \"#utility.yul\":8524:8525   */\n      0x00\n        /* \"#utility.yul\":8521:8522   */\n      dup1\n        /* \"#utility.yul\":8514:8526   */\n      revert\n        /* \"#utility.yul\":8465:8528   */\n    tag_400:\n        /* \"#utility.yul\":8412:8534   */\n      pop\n      jump\t// out\n        /* \"#utility.yul\":8540:8679   */\n    tag_268:\n        /* \"#utility.yul\":8586:8591   */\n      0x00\n        /* \"#utility.yul\":8624:8630   */\n      dup2\n        /* \"#utility.yul\":8611:8631   */\n      calldataload\n        /* \"#utility.yul\":8602:8631   */\n      swap1\n      pop\n        /* \"#utility.yul\":8640:8673   */\n      tag_402\n        /* \"#utility.yul\":8667:8672   */\n      dup2\n        /* \"#utility.yul\":8640:8673   */\n      tag_267\n      jump\t// in\n    tag_402:\n        /* \"#utility.yul\":8540:8679   */\n      swap3\n      swap2\n      pop\n      pop\n      jump\t// out\n        /* \"#utility.yul\":8685:9014   */\n    tag_52:\n        /* \"#utility.yul\":8744:8750   */\n      0x00\n        /* \"#utility.yul\":8793:8795   */\n      0x20\n        /* \"#utility.yul\":8781:8790   */\n      dup3\n        /* \"#utility.yul\":8772:8779   */\n      dup5\n        /* \"#utility.yul\":8768:8791   */\n      sub\n        /* \"#utility.yul\":8764:8796   */\n      slt\n        /* \"#utility.yul\":8761:8880   */\n      iszero\n      tag_404\n      jumpi\n        /* \"#utility.yul\":8799:8878   */\n      tag_405\n      tag_236\n      jump\t// in\n    tag_405:\n        /* \"#utility.yul\":8761:8880   */\n    tag_404:\n        /* \"#utility.yul\":8919:8920   */\n      0x00\n        /* \"#utility.yul\":8944:8997   */\n      tag_406\n        /* \"#utility.yul\":8989:8996   */\n      dup5\n        /* \"#utility.yul\":8980:8986   */\n      dup3\n        /* \"#utility.yul\":8969:8978   */\n      dup6\n        /* \"#utility.yul\":8965:8987   */\n      add\n        /* \"#utility.yul\":8944:8997   */\n      tag_268\n      jump\t// in\n    tag_406:\n        /* \"#utility.yul\":8934:8997   */\n      swap2\n      pop\n        /* \"#utility.yul\":8890:9007   */\n      pop\n        /* \"#utility.yul\":8685:9014   */\n      swap3\n      swap2\n      pop\n      pop\n      jump\t// out\n        /* \"#utility.yul\":9020:9124   */\n    tag_269:\n        /* \"#utility.yul\":9065:9072   */\n      0x00\n        /* \"#utility.yul\":9094:9118   */\n      tag_408\n        /* \"#utility.yul\":9112:9117   */\n      dup3\n        /* \"#utility.yul\":9094:9118   */\n      tag_244\n      jump\t// in\n    tag_408:\n        /* \"#utility.yul\":9083:9118   */\n      swap1\n      pop\n        /* \"#utility.yul\":9020:9124   */\n      swap2\n      swap1\n      pop\n      jump\t// out\n        /* \"#utility.yul\":9130:9268   */\n    tag_270:\n        /* \"#utility.yul\":9211:9243   */\n      tag_410\n        /* \"#utility.yul\":9237:9242   */\n      dup2\n        /* \"#utility.yul\":9211:9243   */\n      tag_269\n      jump\t// in\n    tag_410:\n        /* \"#utility.yul\":9204:9209   */\n      dup2\n        /* \"#utility.yul\":9201:9244   */\n      eq\n        /* \"#utility.yul\":9191:9262   */\n      tag_411\n      jumpi\n        /* \"#utility.yul\":9258:9259   */\n      0x00\n        /* \"#utility.yul\":9255:9256   */\n      dup1\n        /* \"#utility.yul\":9248:9260   */\n      revert\n        /* \"#utility.yul\":9191:9262   */\n    tag_411:\n        /* \"#utility.yul\":9130:9268   */\n      pop\n      jump\t// out\n        /* \"#utility.yul\":9274:9429   */\n    tag_271:\n        /* \"#utility.yul\":9328:9333   */\n      0x00\n        /* \"#utility.yul\":9366:9372   */\n      dup2\n        /* \"#utility.yul\":9353:9373   */\n      calldataload\n        /* \"#utility.yul\":9344:9373   */\n      swap1\n      pop\n        /* \"#utility.yul\":9382:9423   */\n      tag_413\n        /* \"#utility.yul\":9417:9422   */\n      dup2\n        /* \"#utility.yul\":9382:9423   */\n      tag_270\n      jump\t// in\n    tag_413:\n        /* \"#utility.yul\":9274:9429   */\n      swap3\n      swap2\n      pop\n      pop\n      jump\t// out\n        /* \"#utility.yul\":9435:9780   */\n    tag_56:\n        /* \"#utility.yul\":9502:9508   */\n      0x00\n        /* \"#utility.yul\":9551:9553   */\n      0x20\n        /* \"#utility.yul\":9539:9548   */\n      dup3\n        /* \"#utility.yul\":9530:9537   */\n      dup5\n        /* \"#utility.yul\":9526:9549   */\n      sub\n        /* \"#utility.yul\":9522:9554   */\n      slt\n        /* \"#utility.yul\":9519:9638   */\n      iszero\n      tag_415\n      jumpi\n        /* \"#utility.yul\":9557:9636   */\n      tag_416\n      tag_236\n      jump\t// in\n    tag_416:\n        /* \"#utility.yul\":9519:9638   */\n    tag_415:\n        /* \"#utility.yul\":9677:9678   */\n      0x00\n        /* \"#utility.yul\":9702:9763   */\n      tag_417\n        /* \"#utility.yul\":9755:9762   */\n      dup5\n        /* \"#utility.yul\":9746:9752   */\n      dup3\n        /* \"#utility.yul\":9735:9744   */\n      dup6\n        /* \"#utility.yul\":9731:9753   */\n      add\n        /* \"#utility.yul\":9702:9763   */\n      tag_271\n      jump\t// in\n    tag_417:\n        /* \"#utility.yul\":9692:9763   */\n      swap2\n      pop\n        /* \"#utility.yul\":9648:9773   */\n      pop\n        /* \"#utility.yul\":9435:9780   */\n      swap3\n      swap2\n      pop\n      pop\n      jump\t// out\n        /* \"#utility.yul\":9786:9928   */\n    tag_272:\n        /* \"#utility.yul\":9889:9921   */\n      tag_419\n        /* \"#utility.yul\":9915:9920   */\n      dup2\n        /* \"#utility.yul\":9889:9921   */\n      tag_269\n      jump\t// in\n    tag_419:\n        /* \"#utility.yul\":9884:9887   */\n      dup3\n        /* \"#utility.yul\":9877:9922   */\n      mstore\n        /* \"#utility.yul\":9786:9928   */\n      pop\n      pop\n      jump\t// out\n        /* \"#utility.yul\":9934:10188   */\n    tag_69:\n        /* \"#utility.yul\":10043:10047   */\n      0x00\n        /* \"#utility.yul\":10081:10083   */\n      0x20\n        /* \"#utility.yul\":10070:10079   */\n      dup3\n        /* \"#utility.yul\":10066:10084   */\n      add\n        /* \"#utility.yul\":10058:10084   */\n      swap1\n      pop\n        /* \"#utility.yul\":10094:10181   */\n      tag_421\n        /* \"#utility.yul\":10178:10179   */\n      0x00\n        /* \"#utility.yul\":10167:10176   */\n      dup4\n        /* \"#utility.yul\":10163:10180   */\n      add\n        /* \"#utility.yul\":10154:10160   */\n      dup5\n        /* \"#utility.yul\":10094:10181   */\n      tag_272\n      jump\t// in\n    tag_421:\n        /* \"#utility.yul\":9934:10188   */\n      swap3\n      swap2\n      pop\n      pop\n      jump\t// out\n        /* \"#utility.yul\":10194:10316   */\n    tag_273:\n        /* \"#utility.yul\":10269:10275   */\n      0x00\n        /* \"#utility.yul\":10303:10308   */\n      dup2\n        /* \"#utility.yul\":10297:10309   */\n      mload\n        /* \"#utility.yul\":10287:10309   */\n      swap1\n      pop\n        /* \"#utility.yul\":10194:10316   */\n      swap2\n      swap1\n      pop\n      jump\t// out\n        /* \"#utility.yul\":10322:10514   */\n    tag_274:\n        /* \"#utility.yul\":10429:10440   */\n      0x00\n        /* \"#utility.yul\":10463:10469   */\n      dup3\n        /* \"#utility.yul\":10458:10461   */\n      dup3\n        /* \"#utility.yul\":10451:10470   */\n      mstore\n        /* \"#utility.yul\":10503:10507   */\n      0x20\n        /* \"#utility.yul\":10498:10501   */\n      dup3\n        /* \"#utility.yul\":10494:10508   */\n      add\n        /* \"#utility.yul\":10479:10508   */\n      swap1\n      pop\n        /* \"#utility.yul\":10322:10514   */\n      swap3\n      swap2\n      pop\n      pop\n      jump\t// out\n        /* \"#utility.yul\":10520:10660   */\n    tag_275:\n        /* \"#utility.yul\":10595:10599   */\n      0x00\n        /* \"#utility.yul\":10618:10621   */\n      dup2\n        /* \"#utility.yul\":10610:10621   */\n      swap1\n      pop\n        /* \"#utility.yul\":10648:10652   */\n      0x20\n        /* \"#utility.yul\":10643:10646   */\n      dup3\n        /* \"#utility.yul\":10639:10653   */\n      add\n        /* \"#utility.yul\":10631:10653   */\n      swap1\n      pop\n        /* \"#utility.yul\":10520:10660   */\n      swap2\n      swap1\n      pop\n      jump\t// out\n        /* \"#utility.yul\":10666:10798   */\n    tag_276:\n        /* \"#utility.yul\":10759:10791   */\n      tag_426\n        /* \"#utility.yul\":10785:10790   */\n      dup2\n        /* \"#utility.yul\":10759:10791   */\n      tag_269\n      jump\t// in\n    tag_426:\n        /* \"#utility.yul\":10754:10757   */\n      dup3\n        /* \"#utility.yul\":10747:10792   */\n      mstore\n        /* \"#utility.yul\":10666:10798   */\n      pop\n      pop\n      jump\t// out\n        /* \"#utility.yul\":10804:11015   */\n    tag_277:\n        /* \"#utility.yul\":10889:10899   */\n      0x00\n        /* \"#utility.yul\":10910:10972   */\n      tag_428\n        /* \"#utility.yul\":10968:10971   */\n      dup4\n        /* \"#utility.yul\":10960:10966   */\n      dup4\n        /* \"#utility.yul\":10910:10972   */\n      tag_276\n      jump\t// in\n    tag_428:\n        /* \"#utility.yul\":11004:11008   */\n      0x20\n        /* \"#utility.yul\":10999:11002   */\n      dup4\n        /* \"#utility.yul\":10995:11009   */\n      add\n        /* \"#utility.yul\":10981:11009   */\n      swap1\n      pop\n        /* \"#utility.yul\":10804:11015   */\n      swap3\n      swap2\n      pop\n      pop\n      jump\t// out\n        /* \"#utility.yul\":11021:11142   */\n    tag_278:\n        /* \"#utility.yul\":11099:11103   */\n      0x00\n        /* \"#utility.yul\":11131:11135   */\n      0x20\n        /* \"#utility.yul\":11126:11129   */\n      dup3\n        /* \"#utility.yul\":11122:11136   */\n      add\n        /* \"#utility.yul\":11114:11136   */\n      swap1\n      pop\n        /* \"#utility.yul\":11021:11142   */\n      swap2\n      swap1\n      pop\n      jump\t// out\n        /* \"#utility.yul\":11194:11990   */\n    tag_279:\n        /* \"#utility.yul\":11329:11332   */\n      0x00\n        /* \"#utility.yul\":11358:11420   */\n      tag_431\n        /* \"#utility.yul\":11414:11419   */\n      dup3\n        /* \"#utility.yul\":11358:11420   */\n      tag_273\n      jump\t// in\n    tag_431:\n        /* \"#utility.yul\":11436:11530   */\n      tag_432\n        /* \"#utility.yul\":11523:11529   */\n      dup2\n        /* \"#utility.yul\":11518:11521   */\n      dup6\n        /* \"#utility.yul\":11436:11530   */\n      tag_274\n      jump\t// in\n    tag_432:\n        /* \"#utility.yul\":11429:11530   */\n      swap4\n      pop\n        /* \"#utility.yul\":11554:11618   */\n      tag_433\n        /* \"#utility.yul\":11612:11617   */\n      dup4\n        /* \"#utility.yul\":11554:11618   */\n      tag_275\n      jump\t// in\n    tag_433:\n        /* \"#utility.yul\":11641:11648   */\n      dup1\n        /* \"#utility.yul\":11672:11673   */\n      0x00\n        /* \"#utility.yul\":11657:11965   */\n    tag_434:\n        /* \"#utility.yul\":11682:11688   */\n      dup4\n        /* \"#utility.yul\":11679:11680   */\n      dup2\n        /* \"#utility.yul\":11676:11689   */\n      lt\n        /* \"#utility.yul\":11657:11965   */\n      iszero\n      tag_436\n      jumpi\n        /* \"#utility.yul\":11758:11764   */\n      dup2\n        /* \"#utility.yul\":11752:11765   */\n      mload\n        /* \"#utility.yul\":11785:11864   */\n      tag_437\n        /* \"#utility.yul\":11860:11863   */\n      dup9\n        /* \"#utility.yul\":11845:11858   */\n      dup3\n        /* \"#utility.yul\":11785:11864   */\n      tag_277\n      jump\t// in\n    tag_437:\n        /* \"#utility.yul\":11778:11864   */\n      swap8\n      pop\n        /* \"#utility.yul\":11887:11955   */\n      tag_438\n        /* \"#utility.yul\":11948:11954   */\n      dup4\n        /* \"#utility.yul\":11887:11955   */\n      tag_278\n      jump\t// in\n    tag_438:\n        /* \"#utility.yul\":11877:11955   */\n      swap3\n      pop\n        /* \"#utility.yul\":11717:11965   */\n      pop\n        /* \"#utility.yul\":11704:11705   */\n      0x01\n        /* \"#utility.yul\":11701:11702   */\n      dup2\n        /* \"#utility.yul\":11697:11706   */\n      add\n        /* \"#utility.yul\":11692:11706   */\n      swap1\n      pop\n        /* \"#utility.yul\":11657:11965   */\n      jump(tag_434)\n    tag_436:\n        /* \"#utility.yul\":11661:11675   */\n      pop\n        /* \"#utility.yul\":11981:11984   */\n      dup6\n        /* \"#utility.yul\":11974:11984   */\n      swap4\n      pop\n        /* \"#utility.yul\":11334:11990   */\n      pop\n      pop\n      pop\n        /* \"#utility.yul\":11194:11990   */\n      swap3\n      swap2\n      pop\n      pop\n      jump\t// out\n        /* \"#utility.yul\":11996:12401   */\n    tag_76:\n        /* \"#utility.yul\":12155:12159   */\n      0x00\n        /* \"#utility.yul\":12193:12195   */\n      0x20\n        /* \"#utility.yul\":12182:12191   */\n      dup3\n        /* \"#utility.yul\":12178:12196   */\n      add\n        /* \"#utility.yul\":12170:12196   */\n      swap1\n      pop\n        /* \"#utility.yul\":12242:12251   */\n      dup2\n        /* \"#utility.yul\":12236:12240   */\n      dup2\n        /* \"#utility.yul\":12232:12252   */\n      sub\n        /* \"#utility.yul\":12228:12229   */\n      0x00\n        /* \"#utility.yul\":12217:12226   */\n      dup4\n        /* \"#utility.yul\":12213:12230   */\n      add\n        /* \"#utility.yul\":12206:12253   */\n      mstore\n        /* \"#utility.yul\":12270:12394   */\n      tag_440\n        /* \"#utility.yul\":12389:12393   */\n      dup2\n        /* \"#utility.yul\":12380:12386   */\n      dup5\n        /* \"#utility.yul\":12270:12394   */\n      tag_279\n      jump\t// in\n    tag_440:\n        /* \"#utility.yul\":12262:12394   */\n      swap1\n      pop\n        /* \"#utility.yul\":11996:12401   */\n      swap3\n      swap2\n      pop\n      pop\n      jump\t// out\n        /* \"#utility.yul\":12407:12525   */\n    tag_280:\n        /* \"#utility.yul\":12494:12518   */\n      tag_442\n        /* \"#utility.yul\":12512:12517   */\n      dup2\n        /* \"#utility.yul\":12494:12518   */\n      tag_245\n      jump\t// in\n    tag_442:\n        /* \"#utility.yul\":12489:12492   */\n      dup3\n        /* \"#utility.yul\":12482:12519   */\n      mstore\n        /* \"#utility.yul\":12407:12525   */\n      pop\n      pop\n      jump\t// out\n        /* \"#utility.yul\":12531:12753   */\n    tag_80:\n        /* \"#utility.yul\":12624:12628   */\n      0x00\n        /* \"#utility.yul\":12662:12664   */\n      0x20\n        /* \"#utility.yul\":12651:12660   */\n      dup3\n        /* \"#utility.yul\":12647:12665   */\n      add\n        /* \"#utility.yul\":12639:12665   */\n      swap1\n      pop\n        /* \"#utility.yul\":12675:12746   */\n      tag_444\n        /* \"#utility.yul\":12743:12744   */\n      0x00\n        /* \"#utility.yul\":12732:12741   */\n      dup4\n        /* \"#utility.yul\":12728:12745   */\n      add\n        /* \"#utility.yul\":12719:12725   */\n      dup5\n        /* \"#utility.yul\":12675:12746   */\n      tag_280\n      jump\t// in\n    tag_444:\n        /* \"#utility.yul\":12531:12753   */\n      swap3\n      swap2\n      pop\n      pop\n      jump\t// out\n        /* \"#utility.yul\":12759:12937   */\n    tag_281:\n        /* \"#utility.yul\":12899:12929   */\n      0x4f6e6c79206f776e657220686173207468652070726976696c65676500000000\n        /* \"#utility.yul\":12895:12896   */\n      0x00\n        /* \"#utility.yul\":12887:12893   */\n      dup3\n        /* \"#utility.yul\":12883:12897   */\n      add\n        /* \"#utility.yul\":12876:12930   */\n      mstore\n        /* \"#utility.yul\":12759:12937   */\n      pop\n      jump\t// out\n        /* \"#utility.yul\":12943:13309   */\n    tag_282:\n        /* \"#utility.yul\":13085:13088   */\n      0x00\n        /* \"#utility.yul\":13106:13173   */\n      tag_447\n        /* \"#utility.yul\":13170:13172   */\n      0x1c\n        /* \"#utility.yul\":13165:13168   */\n      dup4\n        /* \"#utility.yul\":13106:13173   */\n      tag_263\n      jump\t// in\n    tag_447:\n        /* \"#utility.yul\":13099:13173   */\n      swap2\n      pop\n        /* \"#utility.yul\":13182:13275   */\n      tag_448\n        /* \"#utility.yul\":13271:13274   */\n      dup3\n        /* \"#utility.yul\":13182:13275   */\n      tag_281\n      jump\t// in\n    tag_448:\n        /* \"#utility.yul\":13300:13302   */\n      0x20\n        /* \"#utility.yul\":13295:13298   */\n      dup3\n        /* \"#utility.yul\":13291:13303   */\n      add\n        /* \"#utility.yul\":13284:13303   */\n      swap1\n      pop\n        /* \"#utility.yul\":12943:13309   */\n      swap2\n      swap1\n      pop\n      jump\t// out\n        /* \"#utility.yul\":13315:13734   */\n    tag_102:\n        /* \"#utility.yul\":13481:13485   */\n      0x00\n        /* \"#utility.yul\":13519:13521   */\n      0x20\n        /* \"#utility.yul\":13508:13517   */\n      dup3\n        /* \"#utility.yul\":13504:13522   */\n      add\n        /* \"#utility.yul\":13496:13522   */\n      swap1\n      pop\n        /* \"#utility.yul\":13568:13577   */\n      dup2\n        /* \"#utility.yul\":13562:13566   */\n      dup2\n        /* \"#utility.yul\":13558:13578   */\n      sub\n        /* \"#utility.yul\":13554:13555   */\n      0x00\n        /* \"#utility.yul\":13543:13552   */\n      dup4\n        /* \"#utility.yul\":13539:13556   */\n      add\n        /* \"#utility.yul\":13532:13579   */\n      mstore\n        /* \"#utility.yul\":13596:13727   */\n      tag_450\n        /* \"#utility.yul\":13722:13726   */\n      dup2\n        /* \"#utility.yul\":13596:13727   */\n      tag_282\n      jump\t// in\n    tag_450:\n        /* \"#utility.yul\":13588:13727   */\n      swap1\n      pop\n        /* \"#utility.yul\":13315:13734   */\n      swap2\n      swap1\n      pop\n      jump\t// out\n        /* \"#utility.yul\":13740:13857   */\n    tag_283:\n        /* \"#utility.yul\":13849:13850   */\n      0x00\n        /* \"#utility.yul\":13846:13847   */\n      dup1\n        /* \"#utility.yul\":13839:13851   */\n      revert\n        /* \"#utility.yul\":13863:14043   */\n    tag_284:\n        /* \"#utility.yul\":13911:13988   */\n      0x4e487b7100000000000000000000000000000000000000000000000000000000\n        /* \"#utility.yul\":13908:13909   */\n      0x00\n        /* \"#utility.yul\":13901:13989   */\n      mstore\n        /* \"#utility.yul\":14008:14012   */\n      0x41\n        /* \"#utility.yul\":14005:14006   */\n      0x04\n        /* \"#utility.yul\":13998:14013   */\n      mstore\n        /* \"#utility.yul\":14032:14036   */\n      0x24\n        /* \"#utility.yul\":14029:14030   */\n      0x00\n        /* \"#utility.yul\":14022:14037   */\n      revert\n        /* \"#utility.yul\":14049:14330   */\n    tag_285:\n        /* \"#utility.yul\":14132:14159   */\n      tag_454\n        /* \"#utility.yul\":14154:14158   */\n      dup3\n        /* \"#utility.yul\":14132:14159   */\n      tag_256\n      jump\t// in\n    tag_454:\n        /* \"#utility.yul\":14124:14130   */\n      dup2\n        /* \"#utility.yul\":14120:14160   */\n      add\n        /* \"#utility.yul\":14262:14268   */\n      dup2\n        /* \"#utility.yul\":14250:14260   */\n      dup2\n        /* \"#utility.yul\":14247:14269   */\n      lt\n        /* \"#utility.yul\":14226:14244   */\n      0xffffffffffffffff\n        /* \"#utility.yul\":14214:14224   */\n      dup3\n        /* \"#utility.yul\":14211:14245   */\n      gt\n        /* \"#utility.yul\":14208:14270   */\n      or\n        /* \"#utility.yul\":14205:14293   */\n      iszero\n      tag_455\n      jumpi\n        /* \"#utility.yul\":14273:14291   */\n      tag_456\n      tag_284\n      jump\t// in\n    tag_456:\n        /* \"#utility.yul\":14205:14293   */\n    tag_455:\n        /* \"#utility.yul\":14313:14323   */\n      dup1\n        /* \"#utility.yul\":14309:14311   */\n      0x40\n        /* \"#utility.yul\":14302:14324   */\n      mstore\n        /* \"#utility.yul\":14092:14330   */\n      pop\n        /* \"#utility.yul\":14049:14330   */\n      pop\n      pop\n      jump\t// out\n        /* \"#utility.yul\":14336:14465   */\n    tag_286:\n        /* \"#utility.yul\":14370:14376   */\n      0x00\n        /* \"#utility.yul\":14397:14417   */\n      tag_458\n      tag_235\n      jump\t// in\n    tag_458:\n        /* \"#utility.yul\":14387:14417   */\n      swap1\n      pop\n        /* \"#utility.yul\":14426:14459   */\n      tag_459\n        /* \"#utility.yul\":14454:14458   */\n      dup3\n        /* \"#utility.yul\":14446:14452   */\n      dup3\n        /* \"#utility.yul\":14426:14459   */\n      tag_285\n      jump\t// in\n    tag_459:\n        /* \"#utility.yul\":14336:14465   */\n      swap2\n      swap1\n      pop\n      jump\t// out\n        /* \"#utility.yul\":14471:14782   */\n    tag_287:\n        /* \"#utility.yul\":14548:14552   */\n      0x00\n        /* \"#utility.yul\":14638:14656   */\n      0xffffffffffffffff\n        /* \"#utility.yul\":14630:14636   */\n      dup3\n        /* \"#utility.yul\":14627:14657   */\n      gt\n        /* \"#utility.yul\":14624:14680   */\n      iszero\n      tag_461\n      jumpi\n        /* \"#utility.yul\":14660:14678   */\n      tag_462\n      tag_284\n      jump\t// in\n    tag_462:\n        /* \"#utility.yul\":14624:14680   */\n    tag_461:\n        /* \"#utility.yul\":14710:14714   */\n      0x20\n        /* \"#utility.yul\":14702:14708   */\n      dup3\n        /* \"#utility.yul\":14698:14715   */\n      mul\n        /* \"#utility.yul\":14690:14715   */\n      swap1\n      pop\n        /* \"#utility.yul\":14770:14774   */\n      0x20\n        /* \"#utility.yul\":14764:14768   */\n      dup2\n        /* \"#utility.yul\":14760:14775   */\n      add\n        /* \"#utility.yul\":14752:14775   */\n      swap1\n      pop\n        /* \"#utility.yul\":14471:14782   */\n      swap2\n      swap1\n      pop\n      jump\t// out\n        /* \"#utility.yul\":14788:14905   */\n    tag_288:\n        /* \"#utility.yul\":14897:14898   */\n      0x00\n        /* \"#utility.yul\":14894:14895   */\n      dup1\n        /* \"#utility.yul\":14887:14899   */\n      revert\n        /* \"#utility.yul\":14911:15054   */\n    tag_289:\n        /* \"#utility.yul\":14968:14973   */\n      0x00\n        /* \"#utility.yul\":14999:15005   */\n      dup2\n        /* \"#utility.yul\":14993:15006   */\n      mload\n        /* \"#utility.yul\":14984:15006   */\n      swap1\n      pop\n        /* \"#utility.yul\":15015:15048   */\n      tag_465\n        /* \"#utility.yul\":15042:15047   */\n      dup2\n        /* \"#utility.yul\":15015:15048   */\n      tag_261\n      jump\t// in\n    tag_465:\n        /* \"#utility.yul\":14911:15054   */\n      swap3\n      swap2\n      pop\n      pop\n      jump\t// out\n        /* \"#utility.yul\":15077:15809   */\n    tag_290:\n        /* \"#utility.yul\":15184:15189   */\n      0x00\n        /* \"#utility.yul\":15209:15290   */\n      tag_467\n        /* \"#utility.yul\":15225:15289   */\n      tag_468\n        /* \"#utility.yul\":15282:15288   */\n      dup5\n        /* \"#utility.yul\":15225:15289   */\n      tag_287\n      jump\t// in\n    tag_468:\n        /* \"#utility.yul\":15209:15290   */\n      tag_286\n      jump\t// in\n    tag_467:\n        /* \"#utility.yul\":15200:15290   */\n      swap1\n      pop\n        /* \"#utility.yul\":15310:15315   */\n      dup1\n        /* \"#utility.yul\":15339:15345   */\n      dup4\n        /* \"#utility.yul\":15332:15337   */\n      dup3\n        /* \"#utility.yul\":15325:15346   */\n      mstore\n        /* \"#utility.yul\":15373:15377   */\n      0x20\n        /* \"#utility.yul\":15366:15371   */\n      dup3\n        /* \"#utility.yul\":15362:15378   */\n      add\n        /* \"#utility.yul\":15355:15378   */\n      swap1\n      pop\n        /* \"#utility.yul\":15426:15430   */\n      0x20\n        /* \"#utility.yul\":15418:15424   */\n      dup5\n        /* \"#utility.yul\":15414:15431   */\n      mul\n        /* \"#utility.yul\":15406:15412   */\n      dup4\n        /* \"#utility.yul\":15402:15432   */\n      add\n        /* \"#utility.yul\":15455:15458   */\n      dup6\n        /* \"#utility.yul\":15447:15453   */\n      dup2\n        /* \"#utility.yul\":15444:15459   */\n      gt\n        /* \"#utility.yul\":15441:15563   */\n      iszero\n      tag_469\n      jumpi\n        /* \"#utility.yul\":15474:15553   */\n      tag_470\n      tag_288\n      jump\t// in\n    tag_470:\n        /* \"#utility.yul\":15441:15563   */\n    tag_469:\n        /* \"#utility.yul\":15589:15595   */\n      dup4\n        /* \"#utility.yul\":15572:15803   */\n    tag_471:\n        /* \"#utility.yul\":15606:15612   */\n      dup2\n        /* \"#utility.yul\":15601:15604   */\n      dup2\n        /* \"#utility.yul\":15598:15613   */\n      lt\n        /* \"#utility.yul\":15572:15803   */\n      iszero\n      tag_473\n      jumpi\n        /* \"#utility.yul\":15681:15684   */\n      dup1\n        /* \"#utility.yul\":15710:15758   */\n      tag_474\n        /* \"#utility.yul\":15754:15757   */\n      dup9\n        /* \"#utility.yul\":15742:15752   */\n      dup3\n        /* \"#utility.yul\":15710:15758   */\n      tag_289\n      jump\t// in\n    tag_474:\n        /* \"#utility.yul\":15705:15708   */\n      dup5\n        /* \"#utility.yul\":15698:15759   */\n      mstore\n        /* \"#utility.yul\":15788:15792   */\n      0x20\n        /* \"#utility.yul\":15783:15786   */\n      dup5\n        /* \"#utility.yul\":15779:15793   */\n      add\n        /* \"#utility.yul\":15772:15793   */\n      swap4\n      pop\n        /* \"#utility.yul\":15648:15803   */\n      pop\n        /* \"#utility.yul\":15632:15636   */\n      0x20\n        /* \"#utility.yul\":15627:15630   */\n      dup2\n        /* \"#utility.yul\":15623:15637   */\n      add\n        /* \"#utility.yul\":15616:15637   */\n      swap1\n      pop\n        /* \"#utility.yul\":15572:15803   */\n      jump(tag_471)\n    tag_473:\n        /* \"#utility.yul\":15576:15597   */\n      pop\n        /* \"#utility.yul\":15190:15809   */\n      pop\n      pop\n        /* \"#utility.yul\":15077:15809   */\n      swap4\n      swap3\n      pop\n      pop\n      pop\n      jump\t// out\n        /* \"#utility.yul\":15832:16217   */\n    tag_291:\n        /* \"#utility.yul\":15914:15919   */\n      0x00\n        /* \"#utility.yul\":15963:15966   */\n      dup3\n        /* \"#utility.yul\":15956:15960   */\n      0x1f\n        /* \"#utility.yul\":15948:15954   */\n      dup4\n        /* \"#utility.yul\":15944:15961   */\n      add\n        /* \"#utility.yul\":15940:15967   */\n      slt\n        /* \"#utility.yul\":15930:16052   */\n      tag_476\n      jumpi\n        /* \"#utility.yul\":15971:16050   */\n      tag_477\n      tag_283\n      jump\t// in\n    tag_477:\n        /* \"#utility.yul\":15930:16052   */\n    tag_476:\n        /* \"#utility.yul\":16081:16087   */\n      dup2\n        /* \"#utility.yul\":16075:16088   */\n      mload\n        /* \"#utility.yul\":16106:16211   */\n      tag_478\n        /* \"#utility.yul\":16207:16210   */\n      dup5\n        /* \"#utility.yul\":16199:16205   */\n      dup3\n        /* \"#utility.yul\":16192:16196   */\n      0x20\n        /* \"#utility.yul\":16184:16190   */\n      dup7\n        /* \"#utility.yul\":16180:16197   */\n      add\n        /* \"#utility.yul\":16106:16211   */\n      tag_290\n      jump\t// in\n    tag_478:\n        /* \"#utility.yul\":16097:16211   */\n      swap2\n      pop\n        /* \"#utility.yul\":15920:16217   */\n      pop\n        /* \"#utility.yul\":15832:16217   */\n      swap3\n      swap2\n      pop\n      pop\n      jump\t// out\n        /* \"#utility.yul\":16223:16777   */\n    tag_112:\n        /* \"#utility.yul\":16318:16324   */\n      0x00\n        /* \"#utility.yul\":16367:16369   */\n      0x20\n        /* \"#utility.yul\":16355:16364   */\n      dup3\n        /* \"#utility.yul\":16346:16353   */\n      dup5\n        /* \"#utility.yul\":16342:16365   */\n      sub\n        /* \"#utility.yul\":16338:16370   */\n      slt\n        /* \"#utility.yul\":16335:16454   */\n      iszero\n      tag_480\n      jumpi\n        /* \"#utility.yul\":16373:16452   */\n      tag_481\n      tag_236\n      jump\t// in\n    tag_481:\n        /* \"#utility.yul\":16335:16454   */\n    tag_480:\n        /* \"#utility.yul\":16514:16515   */\n      0x00\n        /* \"#utility.yul\":16503:16512   */\n      dup3\n        /* \"#utility.yul\":16499:16516   */\n      add\n        /* \"#utility.yul\":16493:16517   */\n      mload\n        /* \"#utility.yul\":16544:16562   */\n      0xffffffffffffffff\n        /* \"#utility.yul\":16536:16542   */\n      dup2\n        /* \"#utility.yul\":16533:16563   */\n      gt\n        /* \"#utility.yul\":16530:16647   */\n      iszero\n      tag_482\n      jumpi\n        /* \"#utility.yul\":16566:16645   */\n      tag_483\n      tag_237\n      jump\t// in\n    tag_483:\n        /* \"#utility.yul\":16530:16647   */\n    tag_482:\n        /* \"#utility.yul\":16671:16760   */\n      tag_484\n        /* \"#utility.yul\":16752:16759   */\n      dup5\n        /* \"#utility.yul\":16743:16749   */\n      dup3\n        /* \"#utility.yul\":16732:16741   */\n      dup6\n        /* \"#utility.yul\":16728:16750   */\n      add\n        /* \"#utility.yul\":16671:16760   */\n      tag_291\n      jump\t// in\n    tag_484:\n        /* \"#utility.yul\":16661:16760   */\n      swap2\n      pop\n        /* \"#utility.yul\":16464:16770   */\n      pop\n        /* \"#utility.yul\":16223:16777   */\n      swap3\n      swap2\n      pop\n      pop\n      jump\t// out\n        /* \"#utility.yul\":16783:16963   */\n    tag_292:\n        /* \"#utility.yul\":16831:16908   */\n      0x4e487b7100000000000000000000000000000000000000000000000000000000\n        /* \"#utility.yul\":16828:16829   */\n      0x00\n        /* \"#utility.yul\":16821:16909   */\n      mstore\n        /* \"#utility.yul\":16928:16932   */\n      0x22\n        /* \"#utility.yul\":16925:16926   */\n      0x04\n        /* \"#utility.yul\":16918:16933   */\n      mstore\n        /* \"#utility.yul\":16952:16956   */\n      0x24\n        /* \"#utility.yul\":16949:16950   */\n      0x00\n        /* \"#utility.yul\":16942:16957   */\n      revert\n        /* \"#utility.yul\":16969:17289   */\n    tag_118:\n        /* \"#utility.yul\":17013:17019   */\n      0x00\n        /* \"#utility.yul\":17050:17051   */\n      0x02\n        /* \"#utility.yul\":17044:17048   */\n      dup3\n        /* \"#utility.yul\":17040:17052   */\n      div\n        /* \"#utility.yul\":17030:17052   */\n      swap1\n      pop\n        /* \"#utility.yul\":17097:17098   */\n      0x01\n        /* \"#utility.yul\":17091:17095   */\n      dup3\n        /* \"#utility.yul\":17087:17099   */\n      and\n        /* \"#utility.yul\":17118:17136   */\n      dup1\n        /* \"#utility.yul\":17108:17189   */\n      tag_487\n      jumpi\n        /* \"#utility.yul\":17174:17178   */\n      0x7f\n        /* \"#utility.yul\":17166:17172   */\n      dup3\n        /* \"#utility.yul\":17162:17179   */\n      and\n        /* \"#utility.yul\":17152:17179   */\n      swap2\n      pop\n        /* \"#utility.yul\":17108:17189   */\n    tag_487:\n        /* \"#utility.yul\":17236:17238   */\n      0x20\n        /* \"#utility.yul\":17228:17234   */\n      dup3\n        /* \"#utility.yul\":17225:17239   */\n      lt\n        /* \"#utility.yul\":17205:17223   */\n      dup2\n        /* \"#utility.yul\":17202:17240   */\n      sub\n        /* \"#utility.yul\":17199:17283   */\n      tag_488\n      jumpi\n        /* \"#utility.yul\":17255:17273   */\n      tag_489\n      tag_292\n      jump\t// in\n    tag_489:\n        /* \"#utility.yul\":17199:17283   */\n    tag_488:\n        /* \"#utility.yul\":17020:17289   */\n      pop\n        /* \"#utility.yul\":16969:17289   */\n      swap2\n      swap1\n      pop\n      jump\t// out\n        /* \"#utility.yul\":17295:17475   */\n    tag_293:\n        /* \"#utility.yul\":17343:17420   */\n      0x4e487b7100000000000000000000000000000000000000000000000000000000\n        /* \"#utility.yul\":17340:17341   */\n      0x00\n        /* \"#utility.yul\":17333:17421   */\n      mstore\n        /* \"#utility.yul\":17440:17444   */\n      0x11\n        /* \"#utility.yul\":17437:17438   */\n      0x04\n        /* \"#utility.yul\":17430:17445   */\n      mstore\n        /* \"#utility.yul\":17464:17468   */\n      0x24\n        /* \"#utility.yul\":17461:17462   */\n      0x00\n        /* \"#utility.yul\":17454:17469   */\n      revert\n        /* \"#utility.yul\":17481:17675   */\n    tag_139:\n        /* \"#utility.yul\":17521:17525   */\n      0x00\n        /* \"#utility.yul\":17541:17561   */\n      tag_492\n        /* \"#utility.yul\":17559:17560   */\n      dup3\n        /* \"#utility.yul\":17541:17561   */\n      tag_266\n      jump\t// in\n    tag_492:\n        /* \"#utility.yul\":17536:17561   */\n      swap2\n      pop\n        /* \"#utility.yul\":17575:17595   */\n      tag_493\n        /* \"#utility.yul\":17593:17594   */\n      dup4\n        /* \"#utility.yul\":17575:17595   */\n      tag_266\n      jump\t// in\n    tag_493:\n        /* \"#utility.yul\":17570:17595   */\n      swap3\n      pop\n        /* \"#utility.yul\":17619:17620   */\n      dup3\n        /* \"#utility.yul\":17616:17617   */\n      dup3\n        /* \"#utility.yul\":17612:17621   */\n      sub\n        /* \"#utility.yul\":17604:17621   */\n      swap1\n      pop\n        /* \"#utility.yul\":17643:17644   */\n      dup2\n        /* \"#utility.yul\":17637:17641   */\n      dup2\n        /* \"#utility.yul\":17634:17645   */\n      gt\n        /* \"#utility.yul\":17631:17668   */\n      iszero\n      tag_494\n      jumpi\n        /* \"#utility.yul\":17648:17666   */\n      tag_495\n      tag_293\n      jump\t// in\n    tag_495:\n        /* \"#utility.yul\":17631:17668   */\n    tag_494:\n        /* \"#utility.yul\":17481:17675   */\n      swap3\n      swap2\n      pop\n      pop\n      jump\t// out\n        /* \"#utility.yul\":17681:17861   */\n    tag_142:\n        /* \"#utility.yul\":17729:17806   */\n      0x4e487b7100000000000000000000000000000000000000000000000000000000\n        /* \"#utility.yul\":17726:17727   */\n      0x00\n        /* \"#utility.yul\":17719:17807   */\n      mstore\n        /* \"#utility.yul\":17826:17830   */\n      0x32\n        /* \"#utility.yul\":17823:17824   */\n      0x04\n        /* \"#utility.yul\":17816:17831   */\n      mstore\n        /* \"#utility.yul\":17850:17854   */\n      0x24\n        /* \"#utility.yul\":17847:17848   */\n      0x00\n        /* \"#utility.yul\":17840:17855   */\n      revert\n        /* \"#utility.yul\":17867:18047   */\n    tag_149:\n        /* \"#utility.yul\":17915:17992   */\n      0x4e487b7100000000000000000000000000000000000000000000000000000000\n        /* \"#utility.yul\":17912:17913   */\n      0x00\n        /* \"#utility.yul\":17905:17993   */\n      mstore\n        /* \"#utility.yul\":18012:18016   */\n      0x31\n        /* \"#utility.yul\":18009:18010   */\n      0x04\n        /* \"#utility.yul\":18002:18017   */\n      mstore\n        /* \"#utility.yul\":18036:18040   */\n      0x24\n        /* \"#utility.yul\":18033:18034   */\n      0x00\n        /* \"#utility.yul\":18026:18041   */\n      revert\n        /* \"#utility.yul\":18053:18286   */\n    tag_163:\n        /* \"#utility.yul\":18092:18095   */\n      0x00\n        /* \"#utility.yul\":18115:18139   */\n      tag_499\n        /* \"#utility.yul\":18133:18138   */\n      dup3\n        /* \"#utility.yul\":18115:18139   */\n      tag_266\n      jump\t// in\n    tag_499:\n        /* \"#utility.yul\":18106:18139   */\n      swap2\n      pop\n        /* \"#utility.yul\":18161:18227   */\n      0xffffffffffffffffffffffffffffffffffffffffffffffffffffffffffffffff\n        /* \"#utility.yul\":18154:18159   */\n      dup3\n        /* \"#utility.yul\":18151:18228   */\n      sub\n        /* \"#utility.yul\":18148:18251   */\n      tag_500\n      jumpi\n        /* \"#utility.yul\":18231:18249   */\n      tag_501\n      tag_293\n      jump\t// in\n    tag_501:\n        /* \"#utility.yul\":18148:18251   */\n    tag_500:\n        /* \"#utility.yul\":18278:18279   */\n      0x01\n        /* \"#utility.yul\":18271:18276   */\n      dup3\n        /* \"#utility.yul\":18267:18280   */\n      add\n        /* \"#utility.yul\":18260:18280   */\n      swap1\n      pop\n        /* \"#utility.yul\":18053:18286   */\n      swap2\n      swap1\n      pop\n      jump\t// out\n        /* \"#utility.yul\":18292:18445   */\n    tag_294:\n        /* \"#utility.yul\":18345:18351   */\n      0x00\n        /* \"#utility.yul\":18379:18384   */\n      dup2\n        /* \"#utility.yul\":18373:18385   */\n      sload\n        /* \"#utility.yul\":18363:18385   */\n      swap1\n      pop\n        /* \"#utility.yul\":18405:18438   */\n      tag_503\n        /* \"#utility.yul\":18431:18437   */\n      dup2\n        /* \"#utility.yul\":18405:18438   */\n      tag_118\n      jump\t// in\n    tag_503:\n        /* \"#utility.yul\":18395:18438   */\n      swap1\n      pop\n        /* \"#utility.yul\":18292:18445   */\n      swap2\n      swap1\n      pop\n      jump\t// out\n        /* \"#utility.yul\":18451:18592   */\n    tag_295:\n        /* \"#utility.yul\":18500:18504   */\n      0x00\n        /* \"#utility.yul\":18523:18526   */\n      dup2\n        /* \"#utility.yul\":18515:18526   */\n      swap1\n      pop\n        /* \"#utility.yul\":18546:18549   */\n      dup2\n        /* \"#utility.yul\":18543:18544   */\n      0x00\n        /* \"#utility.yul\":18536:18550   */\n      mstore\n        /* \"#utility.yul\":18580:18584   */\n      0x20\n        /* \"#utility.yul\":18577:18578   */\n      0x00\n        /* \"#utility.yul\":18567:18585   */\n      keccak256\n        /* \"#utility.yul\":18559:18585   */\n      swap1\n      pop\n        /* \"#utility.yul\":18451:18592   */\n      swap2\n      swap1\n      pop\n      jump\t// out\n        /* \"#utility.yul\":18598:18743   */\n    tag_296:\n        /* \"#utility.yul\":18651:18655   */\n      0x00\n        /* \"#utility.yul\":18674:18677   */\n      dup2\n        /* \"#utility.yul\":18666:18677   */\n      swap1\n      pop\n        /* \"#utility.yul\":18697:18700   */\n      dup2\n        /* \"#utility.yul\":18694:18695   */\n      0x00\n        /* \"#utility.yul\":18687:18701   */\n      mstore\n        /* \"#utility.yul\":18731:18735   */\n      0x20\n        /* \"#utility.yul\":18728:18729   */\n      0x00\n        /* \"#utility.yul\":18718:18736   */\n      keccak256\n        /* \"#utility.yul\":18710:18736   */\n      swap1\n      pop\n        /* \"#utility.yul\":18598:18743   */\n      swap2\n      swap1\n      pop\n      jump\t// out\n        /* \"#utility.yul\":18749:18842   */\n    tag_297:\n        /* \"#utility.yul\":18786:18792   */\n      0x00\n        /* \"#utility.yul\":18833:18835   */\n      0x20\n        /* \"#utility.yul\":18828:18830   */\n      0x1f\n        /* \"#utility.yul\":18821:18826   */\n      dup4\n        /* \"#utility.yul\":18817:18831   */\n      add\n        /* \"#utility.yul\":18813:18836   */\n      div\n        /* \"#utility.yul\":18803:18836   */\n      swap1\n      pop\n        /* \"#utility.yul\":18749:18842   */\n      swap2\n      swap1\n      pop\n      jump\t// out\n        /* \"#utility.yul\":18848:18955   */\n    tag_298:\n        /* \"#utility.yul\":18892:18900   */\n      0x00\n        /* \"#utility.yul\":18942:18947   */\n      dup3\n        /* \"#utility.yul\":18936:18940   */\n      dup3\n        /* \"#utility.yul\":18932:18948   */\n      shl\n        /* \"#utility.yul\":18911:18948   */\n      swap1\n      pop\n        /* \"#utility.yul\":18848:18955   */\n      swap3\n      swap2\n      pop\n      pop\n      jump\t// out\n        /* \"#utility.yul\":18961:19354   */\n    tag_299:\n        /* \"#utility.yul\":19030:19036   */\n      0x00\n        /* \"#utility.yul\":19080:19081   */\n      0x08\n        /* \"#utility.yul\":19068:19078   */\n      dup4\n        /* \"#utility.yul\":19064:19082   */\n      mul\n        /* \"#utility.yul\":19103:19200   */\n      tag_509\n        /* \"#utility.yul\":19133:19199   */\n      0xffffffffffffffffffffffffffffffffffffffffffffffffffffffffffffffff\n        /* \"#utility.yul\":19122:19131   */\n      dup3\n        /* \"#utility.yul\":19103:19200   */\n      tag_298\n      jump\t// in\n    tag_509:\n        /* \"#utility.yul\":19221:19260   */\n      tag_510\n        /* \"#utility.yul\":19251:19259   */\n      dup7\n        /* \"#utility.yul\":19240:19249   */\n      dup4\n        /* \"#utility.yul\":19221:19260   */\n      tag_298\n      jump\t// in\n    tag_510:\n        /* \"#utility.yul\":19209:19260   */\n      swap6\n      pop\n        /* \"#utility.yul\":19293:19297   */\n      dup1\n        /* \"#utility.yul\":19289:19298   */\n      not\n        /* \"#utility.yul\":19282:19287   */\n      dup5\n        /* \"#utility.yul\":19278:19299   */\n      and\n        /* \"#utility.yul\":19269:19299   */\n      swap4\n      pop\n        /* \"#utility.yul\":19342:19346   */\n      dup1\n        /* \"#utility.yul\":19332:19340   */\n      dup7\n        /* \"#utility.yul\":19328:19347   */\n      and\n        /* \"#utility.yul\":19321:19326   */\n      dup5\n        /* \"#utility.yul\":19318:19348   */\n      or\n        /* \"#utility.yul\":19308:19348   */\n      swap3\n      pop\n        /* \"#utility.yul\":19037:19354   */\n      pop\n      pop\n        /* \"#utility.yul\":18961:19354   */\n      swap4\n      swap3\n      pop\n      pop\n      pop\n      jump\t// out\n        /* \"#utility.yul\":19360:19420   */\n    tag_300:\n        /* \"#utility.yul\":19388:19391   */\n      0x00\n        /* \"#utility.yul\":19409:19414   */\n      dup2\n        /* \"#utility.yul\":19402:19414   */\n      swap1\n      pop\n        /* \"#utility.yul\":19360:19420   */\n      swap2\n      swap1\n      pop\n      jump\t// out\n        /* \"#utility.yul\":19426:19568   */\n    tag_301:\n        /* \"#utility.yul\":19476:19485   */\n      0x00\n        /* \"#utility.yul\":19509:19562   */\n      tag_513\n        /* \"#utility.yul\":19527:19561   */\n      tag_514\n        /* \"#utility.yul\":19536:19560   */\n      tag_515\n        /* \"#utility.yul\":19554:19559   */\n      dup5\n        /* \"#utility.yul\":19536:19560   */\n      tag_266\n      jump\t// in\n    tag_515:\n        /* \"#utility.yul\":19527:19561   */\n      tag_300\n      jump\t// in\n    tag_514:\n        /* \"#utility.yul\":19509:19562   */\n      tag_266\n      jump\t// in\n    tag_513:\n        /* \"#utility.yul\":19496:19562   */\n      swap1\n      pop\n        /* \"#utility.yul\":19426:19568   */\n      swap2\n      swap1\n      pop\n      jump\t// out\n        /* \"#utility.yul\":19574:19649   */\n    tag_302:\n        /* \"#utility.yul\":19617:19620   */\n      0x00\n        /* \"#utility.yul\":19638:19643   */\n      dup2\n        /* \"#utility.yul\":19631:19643   */\n      swap1\n      pop\n        /* \"#utility.yul\":19574:19649   */\n      swap2\n      swap1\n      pop\n      jump\t// out\n        /* \"#utility.yul\":19655:19924   */\n    tag_303:\n        /* \"#utility.yul\":19765:19804   */\n      tag_518\n        /* \"#utility.yul\":19796:19803   */\n      dup4\n        /* \"#utility.yul\":19765:19804   */\n      tag_301\n      jump\t// in\n    tag_518:\n        /* \"#utility.yul\":19826:19917   */\n      tag_519\n        /* \"#utility.yul\":19875:19916   */\n      tag_520\n        /* \"#utility.yul\":19899:19915   */\n      dup3\n        /* \"#utility.yul\":19875:19916   */\n      tag_302\n      jump\t// in\n    tag_520:\n        /* \"#utility.yul\":19867:19873   */\n      dup5\n        /* \"#utility.yul\":19860:19864   */\n      dup5\n        /* \"#utility.yul\":19854:19865   */\n      sload\n        /* \"#utility.yul\":19826:19917   */\n      tag_299\n      jump\t// in\n    tag_519:\n        /* \"#utility.yul\":19820:19824   */\n      dup3\n        /* \"#utility.yul\":19813:19918   */\n      sstore\n        /* \"#utility.yul\":19731:19924   */\n      pop\n        /* \"#utility.yul\":19655:19924   */\n      pop\n      pop\n      pop\n      jump\t// out\n        /* \"#utility.yul\":19930:20003   */\n    tag_304:\n        /* \"#utility.yul\":19975:19978   */\n      0x00\n        /* \"#utility.yul\":19930:20003   */\n      swap1\n      jump\t// out\n        /* \"#utility.yul\":20009:20198   */\n    tag_305:\n        /* \"#utility.yul\":20086:20118   */\n      tag_523\n      tag_304\n      jump\t// in\n    tag_523:\n        /* \"#utility.yul\":20127:20192   */\n      tag_524\n        /* \"#utility.yul\":20185:20191   */\n      dup2\n        /* \"#utility.yul\":20177:20183   */\n      dup5\n        /* \"#utility.yul\":20171:20175   */\n      dup5\n        /* \"#utility.yul\":20127:20192   */\n      tag_303\n      jump\t// in\n    tag_524:\n        /* \"#utility.yul\":20062:20198   */\n      pop\n        /* \"#utility.yul\":20009:20198   */\n      pop\n      pop\n      jump\t// out\n        /* \"#utility.yul\":20204:20390   */\n    tag_306:\n        /* \"#utility.yul\":20264:20384   */\n    tag_526:\n        /* \"#utility.yul\":20281:20284   */\n      dup2\n        /* \"#utility.yul\":20274:20279   */\n      dup2\n        /* \"#utility.yul\":20271:20285   */\n      lt\n        /* \"#utility.yul\":20264:20384   */\n      iszero\n      tag_528\n      jumpi\n        /* \"#utility.yul\":20335:20374   */\n      tag_529\n        /* \"#utility.yul\":20372:20373   */\n      0x00\n        /* \"#utility.yul\":20365:20370   */\n      dup3\n        /* \"#utility.yul\":20335:20374   */\n      tag_305\n      jump\t// in\n    tag_529:\n        /* \"#utility.yul\":20308:20309   */\n      0x01\n        /* \"#utility.yul\":20301:20306   */\n      dup2\n        /* \"#utility.yul\":20297:20310   */\n      add\n        /* \"#utility.yul\":20288:20310   */\n      swap1\n      pop\n        /* \"#utility.yul\":20264:20384   */\n      jump(tag_526)\n    tag_528:\n        /* \"#utility.yul\":20204:20390   */\n      pop\n      pop\n      jump\t// out\n        /* \"#utility.yul\":20396:20939   */\n    tag_307:\n        /* \"#utility.yul\":20497:20499   */\n      0x1f\n        /* \"#utility.yul\":20492:20495   */\n      dup3\n        /* \"#utility.yul\":20489:20500   */\n      gt\n        /* \"#utility.yul\":20486:20932   */\n      iszero\n      tag_531\n      jumpi\n        /* \"#utility.yul\":20531:20569   */\n      tag_532\n        /* \"#utility.yul\":20563:20568   */\n      dup2\n        /* \"#utility.yul\":20531:20569   */\n      tag_295\n      jump\t// in\n    tag_532:\n        /* \"#utility.yul\":20615:20644   */\n      tag_533\n        /* \"#utility.yul\":20633:20643   */\n      dup5\n        /* \"#utility.yul\":20615:20644   */\n      tag_297\n      jump\t// in\n    tag_533:\n        /* \"#utility.yul\":20605:20613   */\n      dup2\n        /* \"#utility.yul\":20601:20645   */\n      add\n        /* \"#utility.yul\":20798:20800   */\n      0x20\n        /* \"#utility.yul\":20786:20796   */\n      dup6\n        /* \"#utility.yul\":20783:20801   */\n      lt\n        /* \"#utility.yul\":20780:20829   */\n      iszero\n      tag_534\n      jumpi\n        /* \"#utility.yul\":20819:20827   */\n      dup2\n        /* \"#utility.yul\":20804:20827   */\n      swap1\n      pop\n        /* \"#utility.yul\":20780:20829   */\n    tag_534:\n        /* \"#utility.yul\":20842:20922   */\n      tag_535\n        /* \"#utility.yul\":20898:20920   */\n      tag_536\n        /* \"#utility.yul\":20916:20919   */\n      dup6\n        /* \"#utility.yul\":20898:20920   */\n      tag_297\n      jump\t// in\n    tag_536:\n        /* \"#utility.yul\":20888:20896   */\n      dup4\n        /* \"#utility.yul\":20884:20921   */\n      add\n        /* \"#utility.yul\":20871:20882   */\n      dup3\n        /* \"#utility.yul\":20842:20922   */\n      tag_306\n      jump\t// in\n    tag_535:\n        /* \"#utility.yul\":20501:20932   */\n      pop\n      pop\n        /* \"#utility.yul\":20486:20932   */\n    tag_531:\n        /* \"#utility.yul\":20396:20939   */\n      pop\n      pop\n      pop\n      jump\t// out\n        /* \"#utility.yul\":20945:21062   */\n    tag_308:\n        /* \"#utility.yul\":20999:21007   */\n      0x00\n        /* \"#utility.yul\":21049:21054   */\n      dup3\n        /* \"#utility.yul\":21043:21047   */\n      dup3\n        /* \"#utility.yul\":21039:21055   */\n      shr\n        /* \"#utility.yul\":21018:21055   */\n      swap1\n      pop\n        /* \"#utility.yul\":20945:21062   */\n      swap3\n      swap2\n      pop\n      pop\n      jump\t// out\n        /* \"#utility.yul\":21068:21237   */\n    tag_309:\n        /* \"#utility.yul\":21112:21118   */\n      0x00\n        /* \"#utility.yul\":21145:21196   */\n      tag_539\n        /* \"#utility.yul\":21193:21194   */\n      0x00\n        /* \"#utility.yul\":21189:21195   */\n      not\n        /* \"#utility.yul\":21181:21186   */\n      dup5\n        /* \"#utility.yul\":21178:21179   */\n      0x08\n        /* \"#utility.yul\":21174:21187   */\n      mul\n        /* \"#utility.yul\":21145:21196   */\n      tag_308\n      jump\t// in\n    tag_539:\n        /* \"#utility.yul\":21141:21197   */\n      not\n        /* \"#utility.yul\":21226:21230   */\n      dup1\n        /* \"#utility.yul\":21220:21224   */\n      dup4\n        /* \"#utility.yul\":21216:21231   */\n      and\n        /* \"#utility.yul\":21206:21231   */\n      swap2\n      pop\n        /* \"#utility.yul\":21119:21237   */\n      pop\n        /* \"#utility.yul\":21068:21237   */\n      swap3\n      swap2\n      pop\n      pop\n      jump\t// out\n        /* \"#utility.yul\":21242:21537   */\n    tag_310:\n        /* \"#utility.yul\":21318:21322   */\n      0x00\n        /* \"#utility.yul\":21464:21493   */\n      tag_541\n        /* \"#utility.yul\":21489:21492   */\n      dup4\n        /* \"#utility.yul\":21483:21487   */\n      dup4\n        /* \"#utility.yul\":21464:21493   */\n      tag_309\n      jump\t// in\n    tag_541:\n        /* \"#utility.yul\":21456:21493   */\n      swap2\n      pop\n        /* \"#utility.yul\":21526:21529   */\n      dup3\n        /* \"#utility.yul\":21523:21524   */\n      0x02\n        /* \"#utility.yul\":21519:21530   */\n      mul\n        /* \"#utility.yul\":21513:21517   */\n      dup3\n        /* \"#utility.yul\":21510:21531   */\n      or\n        /* \"#utility.yul\":21502:21531   */\n      swap1\n      pop\n        /* \"#utility.yul\":21242:21537   */\n      swap3\n      swap2\n      pop\n      pop\n      jump\t// out\n        /* \"#utility.yul\":21542:23005   */\n    tag_229:\n        /* \"#utility.yul\":21657:21660   */\n      dup2\n        /* \"#utility.yul\":21651:21655   */\n      dup2\n        /* \"#utility.yul\":21648:21661   */\n      sub\n        /* \"#utility.yul\":21645:21671   */\n      tag_543\n      jumpi\n        /* \"#utility.yul\":21664:21669   */\n      pop\n      pop\n      jump(tag_542)\n        /* \"#utility.yul\":21645:21671   */\n    tag_543:\n        /* \"#utility.yul\":21695:21733   */\n      tag_544\n        /* \"#utility.yul\":21729:21732   */\n      dup3\n        /* \"#utility.yul\":21695:21733   */\n      tag_294\n      jump\t// in\n    tag_544:\n        /* \"#utility.yul\":21798:21816   */\n      0xffffffffffffffff\n        /* \"#utility.yul\":21790:21796   */\n      dup2\n        /* \"#utility.yul\":21787:21817   */\n      gt\n        /* \"#utility.yul\":21784:21840   */\n      iszero\n      tag_545\n      jumpi\n        /* \"#utility.yul\":21820:21838   */\n      tag_546\n      tag_284\n      jump\t// in\n    tag_546:\n        /* \"#utility.yul\":21784:21840   */\n    tag_545:\n        /* \"#utility.yul\":21864:21902   */\n      tag_547\n        /* \"#utility.yul\":21896:21900   */\n      dup3\n        /* \"#utility.yul\":21890:21901   */\n      sload\n        /* \"#utility.yul\":21864:21902   */\n      tag_118\n      jump\t// in\n    tag_547:\n        /* \"#utility.yul\":21949:22016   */\n      tag_548\n        /* \"#utility.yul\":22009:22015   */\n      dup3\n        /* \"#utility.yul\":22001:22007   */\n      dup3\n        /* \"#utility.yul\":21995:21999   */\n      dup6\n        /* \"#utility.yul\":21949:22016   */\n      tag_307\n      jump\t// in\n    tag_548:\n        /* \"#utility.yul\":22043:22044   */\n      0x00\n        /* \"#utility.yul\":22072:22074   */\n      0x1f\n        /* \"#utility.yul\":22064:22070   */\n      dup4\n        /* \"#utility.yul\":22061:22075   */\n      gt\n        /* \"#utility.yul\":22089:22090   */\n      0x01\n        /* \"#utility.yul\":22084:22760   */\n      dup2\n      eq\n      tag_550\n      jumpi\n        /* \"#utility.yul\":22804:22805   */\n      0x00\n        /* \"#utility.yul\":22821:22827   */\n      dup5\n        /* \"#utility.yul\":22818:22895   */\n      iszero\n      tag_551\n      jumpi\n        /* \"#utility.yul\":22870:22879   */\n      dup3\n        /* \"#utility.yul\":22865:22868   */\n      dup8\n        /* \"#utility.yul\":22861:22880   */\n      add\n        /* \"#utility.yul\":22855:22881   */\n      sload\n        /* \"#utility.yul\":22846:22881   */\n      swap1\n      pop\n        /* \"#utility.yul\":22818:22895   */\n    tag_551:\n        /* \"#utility.yul\":22921:22988   */\n      tag_552\n        /* \"#utility.yul\":22981:22987   */\n      dup6\n        /* \"#utility.yul\":22974:22979   */\n      dup3\n        /* \"#utility.yul\":22921:22988   */\n      tag_310\n      jump\t// in\n    tag_552:\n        /* \"#utility.yul\":22915:22919   */\n      dup7\n        /* \"#utility.yul\":22908:22989   */\n      sstore\n        /* \"#utility.yul\":22777:22999   */\n      pop\n        /* \"#utility.yul\":22054:22999   */\n      jump(tag_549)\n        /* \"#utility.yul\":22084:22760   */\n    tag_550:\n        /* \"#utility.yul\":22136:22140   */\n      0x1f\n        /* \"#utility.yul\":22132:22141   */\n      not\n        /* \"#utility.yul\":22124:22130   */\n      dup5\n        /* \"#utility.yul\":22120:22142   */\n      and\n        /* \"#utility.yul\":22162:22202   */\n      tag_553\n        /* \"#utility.yul\":22198:22201   */\n      dup8\n        /* \"#utility.yul\":22162:22202   */\n      tag_296\n      jump\t// in\n    tag_553:\n        /* \"#utility.yul\":22155:22202   */\n      swap7\n      pop\n        /* \"#utility.yul\":22229:22266   */\n      tag_554\n        /* \"#utility.yul\":22261:22265   */\n      dup7\n        /* \"#utility.yul\":22229:22266   */\n      tag_295\n      jump\t// in\n    tag_554:\n        /* \"#utility.yul\":22288:22289   */\n      0x00\n        /* \"#utility.yul\":22302:22509   */\n    tag_555:\n        /* \"#utility.yul\":22316:22323   */\n      dup3\n        /* \"#utility.yul\":22313:22314   */\n      dup2\n        /* \"#utility.yul\":22310:22324   */\n      lt\n        /* \"#utility.yul\":22302:22509   */\n      iszero\n      tag_557\n      jumpi\n        /* \"#utility.yul\":22395:22404   */\n      dup5\n        /* \"#utility.yul\":22390:22393   */\n      dup10\n        /* \"#utility.yul\":22386:22405   */\n      add\n        /* \"#utility.yul\":22380:22406   */\n      sload\n        /* \"#utility.yul\":22372:22378   */\n      dup3\n        /* \"#utility.yul\":22365:22407   */\n      sstore\n        /* \"#utility.yul\":22446:22447   */\n      0x01\n        /* \"#utility.yul\":22438:22444   */\n      dup3\n        /* \"#utility.yul\":22434:22448   */\n      add\n        /* \"#utility.yul\":22424:22448   */\n      swap2\n      pop\n        /* \"#utility.yul\":22493:22494   */\n      0x01\n        /* \"#utility.yul\":22482:22491   */\n      dup6\n        /* \"#utility.yul\":22478:22495   */\n      add\n        /* \"#utility.yul\":22465:22495   */\n      swap5\n      pop\n        /* \"#utility.yul\":22339:22343   */\n      0x20\n        /* \"#utility.yul\":22336:22337   */\n      dup2\n        /* \"#utility.yul\":22332:22344   */\n      add\n        /* \"#utility.yul\":22327:22344   */\n      swap1\n      pop\n        /* \"#utility.yul\":22302:22509   */\n      jump(tag_555)\n    tag_557:\n        /* \"#utility.yul\":22537:22543   */\n      dup7\n        /* \"#utility.yul\":22528:22535   */\n      dup4\n        /* \"#utility.yul\":22525:22544   */\n      lt\n        /* \"#utility.yul\":22522:22701   */\n      iszero\n      tag_558\n      jumpi\n        /* \"#utility.yul\":22595:22604   */\n      dup5\n        /* \"#utility.yul\":22590:22593   */\n      dup10\n        /* \"#utility.yul\":22586:22605   */\n      add\n        /* \"#utility.yul\":22580:22606   */\n      sload\n        /* \"#utility.yul\":22638:22686   */\n      tag_559\n        /* \"#utility.yul\":22680:22684   */\n      0x1f\n        /* \"#utility.yul\":22672:22678   */\n      dup10\n        /* \"#utility.yul\":22668:22685   */\n      and\n        /* \"#utility.yul\":22657:22666   */\n      dup3\n        /* \"#utility.yul\":22638:22686   */\n      tag_309\n      jump\t// in\n    tag_559:\n        /* \"#utility.yul\":22630:22636   */\n      dup4\n        /* \"#utility.yul\":22623:22687   */\n      sstore\n        /* \"#utility.yul\":22545:22701   */\n      pop\n        /* \"#utility.yul\":22522:22701   */\n    tag_558:\n        /* \"#utility.yul\":22747:22748   */\n      0x01\n        /* \"#utility.yul\":22743:22744   */\n      0x02\n        /* \"#utility.yul\":22735:22741   */\n      dup9\n        /* \"#utility.yul\":22731:22745   */\n      mul\n        /* \"#utility.yul\":22727:22749   */\n      add\n        /* \"#utility.yul\":22721:22725   */\n      dup9\n        /* \"#utility.yul\":22714:22750   */\n      sstore\n        /* \"#utility.yul\":22091:22760   */\n      pop\n      pop\n      pop\n        /* \"#utility.yul\":22054:22999   */\n    tag_549:\n      pop\n        /* \"#utility.yul\":21635:23005   */\n      pop\n      pop\n      pop\n        /* \"#utility.yul\":21542:23005   */\n      pop\n      pop\n    tag_542:\n      jump\t// out\n\n    auxdata: 0xa2646970667358221220b590f5ffb057084cfbb4c8f4373de9c5e8dd0820eb14840a078d8c6fbcb7d62164736f6c63430008110033\n}\n",
				"bytecode": {
					"linkReferences": {},
					"object": "60806040523480156200001157600080fd5b506040516200275438038062002754833981810160405281019062000037919062000468565b336000806101000a81548173ffffffffffffffffffffffffffffffffffffffff021916908373ffffffffffffffffffffffffffffffffffffffff16021790555080600290805190602001906200008f929190620000ec565b5073d9145cce52d386f254917e481eb44e9943f39138600560006101000a81548173ffffffffffffffffffffffffffffffffffffffff021916908373ffffffffffffffffffffffffffffffffffffffff16021790555050620007eb565b82805482825590600052602060002090810192821562000139579160200282015b828111156200013857825182908162000127919062000704565b50916020019190600101906200010d565b5b5090506200014891906200014c565b5090565b5b8082111562000170576000818162000166919062000174565b506001016200014d565b5090565b5080546200018290620004f3565b6000825580601f10620001965750620001b7565b601f016020900490600052602060002090810190620001b69190620001ba565b5b50565b5b80821115620001d5576000816000905550600101620001bb565b5090565b6000604051905090565b600080fd5b600080fd5b600080fd5b6000601f19601f8301169050919050565b7f4e487b7100000000000000000000000000000000000000000000000000000000600052604160045260246000fd5b6200023d82620001f2565b810181811067ffffffffffffffff821117156200025f576200025e62000203565b5b80604052505050565b600062000274620001d9565b905062000282828262000232565b919050565b600067ffffffffffffffff821115620002a557620002a462000203565b5b602082029050602081019050919050565b600080fd5b600080fd5b600067ffffffffffffffff821115620002de57620002dd62000203565b5b620002e982620001f2565b9050602081019050919050565b60005b8381101562000316578082015181840152602081019050620002f9565b60008484015250505050565b6000620003396200033384620002c0565b62000268565b905082815260208101848484011115620003585762000357620002bb565b5b62000365848285620002f6565b509392505050565b600082601f830112620003855762000384620001ed565b5b81516200039784826020860162000322565b91505092915050565b6000620003b7620003b18462000287565b62000268565b90508083825260208201905060208402830185811115620003dd57620003dc620002b6565b5b835b818110156200042b57805167ffffffffffffffff811115620004065762000405620001ed565b5b8086016200041589826200036d565b85526020850194505050602081019050620003df565b5050509392505050565b600082601f8301126200044d576200044c620001ed565b5b81516200045f848260208601620003a0565b91505092915050565b600060208284031215620004815762000480620001e3565b5b600082015167ffffffffffffffff811115620004a257620004a1620001e8565b5b620004b08482850162000435565b91505092915050565b600081519050919050565b7f4e487b7100000000000000000000000000000000000000000000000000000000600052602260045260246000fd5b600060028204905060018216806200050c57607f821691505b602082108103620005225762000521620004c4565b5b50919050565b60008190508160005260206000209050919050565b60006020601f8301049050919050565b600082821b905092915050565b6000600883026200058c7fffffffffffffffffffffffffffffffffffffffffffffffffffffffffffffffff826200054d565b6200059886836200054d565b95508019841693508086168417925050509392505050565b6000819050919050565b6000819050919050565b6000620005e5620005df620005d984620005b0565b620005ba565b620005b0565b9050919050565b6000819050919050565b6200060183620005c4565b620006196200061082620005ec565b8484546200055a565b825550505050565b600090565b6200063062000621565b6200063d818484620005f6565b505050565b5b8181101562000665576200065960008262000626565b60018101905062000643565b5050565b601f821115620006b4576200067e8162000528565b62000689846200053d565b8101602085101562000699578190505b620006b1620006a8856200053d565b83018262000642565b50505b505050565b600082821c905092915050565b6000620006d960001984600802620006b9565b1980831691505092915050565b6000620006f48383620006c6565b9150826002028217905092915050565b6200070f82620004b9565b67ffffffffffffffff8111156200072b576200072a62000203565b5b620007378254620004f3565b6200074482828562000669565b600060209050601f8311600181146200077c576000841562000767578287015190505b620007738582620006e6565b865550620007e3565b601f1984166200078c8662000528565b60005b82811015620007b6578489015182556001820191506020850194506020810190506200078f565b86831015620007d65784890151620007d2601f891682620006c6565b8355505b6001600288020188555050505b505050505050565b611f5980620007fb6000396000f3fe608060405234801561001057600080fd5b506004361061012c5760003560e01c80637427a40c116100ad578063c0befa5311610071578063c0befa53146102f9578063d534cc0e14610329578063d73fe0aa14610359578063e4fc6b6d14610377578063ebf47977146103815761012c565b80637427a40c14610267578063790a0940146102975780638477d9f3146102b35780638da5cb5b146102d15780639a5eec33146102ef5761012c565b806332c6afd0116100f457806332c6afd0146101c35780634cc82215146101e157806350e78191146101fd57806357a858fc14610219578063728f1112146102495761012c565b806301570fe8146101315780630d2baaa11461014d57806317377f681461016b5780631bf9cb17146101895780631e1cf16014610193575b600080fd5b61014b60048036038101906101469190611345565b61039d565b005b61015561042e565b6040516101629190611462565b60405180910390f35b61017361058a565b60405161018091906115d6565b60405180910390f35b610191610663565b005b6101ad60048036038101906101a89190611624565b6106f3565b6040516101ba919061169b565b60405180910390f35b6101cb610793565b6040516101d891906116cc565b60405180910390f35b6101fb60048036038101906101f6919061171d565b610835565b005b61021760048036038101906102129190611788565b610929565b005b610233600480360381019061022e919061171d565b610a59565b604051610240919061169b565b60405180910390f35b610251610b05565b60405161025e91906116cc565b60405180910390f35b610281600480360381019061027c919061171d565b610ba7565b60405161028e91906117c4565b60405180910390f35b6102b160048036038101906102ac9190611788565b610be6565b005b6102bb610cda565b6040516102c8919061189d565b60405180910390f35b6102d9610d68565b6040516102e691906118ce565b60405180910390f35b6102f7610d8c565b005b610313600480360381019061030e9190611624565b610e1c565b604051610320919061169b565b60405180910390f35b610343600480360381019061033e9190611624565b610f81565b604051610350919061169b565b60405180910390f35b610361611021565b60405161036e91906115d6565b60405180910390f35b61037f6110fa565b005b61039b60048036038101906103969190611624565b611268565b005b60008054906101000a900473ffffffffffffffffffffffffffffffffffffffff1673ffffffffffffffffffffffffffffffffffffffff163373ffffffffffffffffffffffffffffffffffffffff161461042b576040517f08c379a000000000000000000000000000000000000000000000000000000000815260040161042290611935565b60405180910390fd5b50565b606060008054906101000a900473ffffffffffffffffffffffffffffffffffffffff1673ffffffffffffffffffffffffffffffffffffffff163373ffffffffffffffffffffffffffffffffffffffff16146104be576040517f08c379a00000000000000000000000000000000000000000000000000000000081526004016104b590611935565b60405180910390fd5b6000600560009054906101000a900473ffffffffffffffffffffffffffffffffffffffff1673ffffffffffffffffffffffffffffffffffffffff166399f8b09f60008054906101000a900473ffffffffffffffffffffffffffffffffffffffff166040518263ffffffff1660e01b815260040161053b91906118ce565b600060405180830381865afa158015610558573d6000803e3d6000fd5b505050506040513d6000823e3d601f19601f820116820180604052508101906105819190611ab2565b90508091505090565b60606002805480602002602001604051908101604052809291908181526020016000905b8282101561065a5783829060005260206000200180546105cd90611b2a565b80601f01602080910402602001604051908101604052809291908181526020018280546105f990611b2a565b80156106465780601f1061061b57610100808354040283529160200191610646565b820191906000526020600020905b81548152906001019060200180831161062957829003601f168201915b5050505050815260200190600101906105ae565b50505050905090565b60008054906101000a900473ffffffffffffffffffffffffffffffffffffffff1673ffffffffffffffffffffffffffffffffffffffff163373ffffffffffffffffffffffffffffffffffffffff16146106f1576040517f08c379a00000000000000000000000000000000000000000000000000000000081526004016106e890611935565b60405180910390fd5b565b6004602052806000526040600020600091509050805461071290611b2a565b80601f016020809104026020016040519081016040528092919081815260200182805461073e90611b2a565b801561078b5780601f106107605761010080835404028352916020019161078b565b820191906000526020600020905b81548152906001019060200180831161076e57829003601f168201915b505050505081565b60008060009054906101000a900473ffffffffffffffffffffffffffffffffffffffff1673ffffffffffffffffffffffffffffffffffffffff163373ffffffffffffffffffffffffffffffffffffffff1614610824576040517f08c379a000000000000000000000000000000000000000000000000000000000815260040161081b90611935565b60405180910390fd5b61082e600061039d565b6000905090565b60018080805490506108479190611b8a565b8154811061085857610857611bbe565b5b9060005260206000200160009054906101000a900473ffffffffffffffffffffffffffffffffffffffff166001828154811061089757610896611bbe565b5b9060005260206000200160006101000a81548173ffffffffffffffffffffffffffffffffffffffff021916908373ffffffffffffffffffffffffffffffffffffffff16021790555060018054806108f1576108f0611bed565b5b6001900381819060005260206000200160006101000a81549073ffffffffffffffffffffffffffffffffffffffff0219169055905550565b60008054906101000a900473ffffffffffffffffffffffffffffffffffffffff1673ffffffffffffffffffffffffffffffffffffffff163373ffffffffffffffffffffffffffffffffffffffff16146109b7576040517f08c379a00000000000000000000000000000000000000000000000000000000081526004016109ae90611935565b60405180910390fd5b60005b600180549050811015610a4c578173ffffffffffffffffffffffffffffffffffffffff16600182815481106109f2576109f1611bbe565b5b9060005260206000200160009054906101000a900473ffffffffffffffffffffffffffffffffffffffff1673ffffffffffffffffffffffffffffffffffffffff160315610a4c578080610a4490611c1c565b9150506109ba565b610a5581610835565b5050565b60028181548110610a6957600080fd5b906000526020600020016000915090508054610a8490611b2a565b80601f0160208091040260200160405190810160405280929190818152602001828054610ab090611b2a565b8015610afd5780601f10610ad257610100808354040283529160200191610afd565b820191906000526020600020905b815481529060010190602001808311610ae057829003601f168201915b505050505081565b60008060009054906101000a900473ffffffffffffffffffffffffffffffffffffffff1673ffffffffffffffffffffffffffffffffffffffff163373ffffffffffffffffffffffffffffffffffffffff1614610b96576040517f08c379a0000000000000000000000000000000000000000000000000000000008152600401610b8d90611935565b60405180910390fd5b610ba0600161039d565b6001905090565b60018181548110610bb757600080fd5b906000526020600020016000915054906101000a900473ffffffffffffffffffffffffffffffffffffffff1681565b60008054906101000a900473ffffffffffffffffffffffffffffffffffffffff1673ffffffffffffffffffffffffffffffffffffffff163373ffffffffffffffffffffffffffffffffffffffff1614610c74576040517f08c379a0000000000000000000000000000000000000000000000000000000008152600401610c6b90611935565b60405180910390fd5b6001819080600181540180825580915050600190039060005260206000200160009091909190916101000a81548173ffffffffffffffffffffffffffffffffffffffff021916908373ffffffffffffffffffffffffffffffffffffffff16021790555050565b60606001805480602002602001604051908101604052809291908181526020018280548015610d5e57602002820191906000526020600020905b8160009054906101000a900473ffffffffffffffffffffffffffffffffffffffff1673ffffffffffffffffffffffffffffffffffffffff1681526020019060010190808311610d14575b5050505050905090565b60008054906101000a900473ffffffffffffffffffffffffffffffffffffffff1681565b60008054906101000a900473ffffffffffffffffffffffffffffffffffffffff1673ffffffffffffffffffffffffffffffffffffffff163373ffffffffffffffffffffffffffffffffffffffff1614610e1a576040517f08c379a0000000000000000000000000000000000000000000000000000000008152600401610e1190611935565b60405180910390fd5b565b606060008054906101000a900473ffffffffffffffffffffffffffffffffffffffff1673ffffffffffffffffffffffffffffffffffffffff163373ffffffffffffffffffffffffffffffffffffffff1614610eac576040517f08c379a0000000000000000000000000000000000000000000000000000000008152600401610ea390611935565b60405180910390fd5b6000600460008473ffffffffffffffffffffffffffffffffffffffff1673ffffffffffffffffffffffffffffffffffffffff1681526020019081526020016000208054610ef890611b2a565b80601f0160208091040260200160405190810160405280929190818152602001828054610f2490611b2a565b8015610f715780601f10610f4657610100808354040283529160200191610f71565b820191906000526020600020905b815481529060010190602001808311610f5457829003601f168201915b5050505050905080915050919050565b60036020528060005260406000206000915090508054610fa090611b2a565b80601f0160208091040260200160405190810160405280929190818152602001828054610fcc90611b2a565b80156110195780601f10610fee57610100808354040283529160200191611019565b820191906000526020600020905b815481529060010190602001808311610ffc57829003601f168201915b505050505081565b60606002805480602002602001604051908101604052809291908181526020016000905b828210156110f157838290600052602060002001805461106490611b2a565b80601f016020809104026020016040519081016040528092919081815260200182805461109090611b2a565b80156110dd5780601f106110b2576101008083540402835291602001916110dd565b820191906000526020600020905b8154815290600101906020018083116110c057829003601f168201915b505050505081526020019060010190611045565b50505050905090565b60008054906101000a900473ffffffffffffffffffffffffffffffffffffffff1673ffffffffffffffffffffffffffffffffffffffff163373ffffffffffffffffffffffffffffffffffffffff1614611188576040517f08c379a000000000000000000000000000000000000000000000000000000000815260040161117f90611935565b60405180910390fd5b600180549050600280549050116112665760005b60028054905081101561126457600281815481106111bd576111bc611bbe565b5b9060005260206000200160036000600184815481106111df576111de611bbe565b5b9060005260206000200160009054906101000a900473ffffffffffffffffffffffffffffffffffffffff1673ffffffffffffffffffffffffffffffffffffffff1673ffffffffffffffffffffffffffffffffffffffff16815260200190815260200160002090816112509190611e3b565b50808061125c90611c1c565b91505061119c565b505b565b60008054906101000a900473ffffffffffffffffffffffffffffffffffffffff1673ffffffffffffffffffffffffffffffffffffffff163373ffffffffffffffffffffffffffffffffffffffff16146112f6576040517f08c379a00000000000000000000000000000000000000000000000000000000081526004016112ed90611935565b60405180910390fd5b50565b6000604051905090565b600080fd5b600080fd5b60008115159050919050565b6113228161130d565b811461132d57600080fd5b50565b60008135905061133f81611319565b92915050565b60006020828403121561135b5761135a611303565b5b600061136984828501611330565b91505092915050565b600081519050919050565b600082825260208201905092915050565b6000819050602082019050919050565b600073ffffffffffffffffffffffffffffffffffffffff82169050919050565b60006113c98261139e565b9050919050565b6113d9816113be565b82525050565b60006113eb83836113d0565b60208301905092915050565b6000602082019050919050565b600061140f82611372565b611419818561137d565b93506114248361138e565b8060005b8381101561145557815161143c88826113df565b9750611447836113f7565b925050600181019050611428565b5085935050505092915050565b6000602082019050818103600083015261147c8184611404565b905092915050565b600081519050919050565b600082825260208201905092915050565b6000819050602082019050919050565b600081519050919050565b600082825260208201905092915050565b60005b838110156114ea5780820151818401526020810190506114cf565b60008484015250505050565b6000601f19601f8301169050919050565b6000611512826114b0565b61151c81856114bb565b935061152c8185602086016114cc565b611535816114f6565b840191505092915050565b600061154c8383611507565b905092915050565b6000602082019050919050565b600061156c82611484565b611576818561148f565b935083602082028501611588856114a0565b8060005b858110156115c457848403895281516115a58582611540565b94506115b083611554565b925060208a0199505060018101905061158c565b50829750879550505050505092915050565b600060208201905081810360008301526115f08184611561565b905092915050565b611601816113be565b811461160c57600080fd5b50565b60008135905061161e816115f8565b92915050565b60006020828403121561163a57611639611303565b5b60006116488482850161160f565b91505092915050565b600082825260208201905092915050565b600061166d826114b0565b6116778185611651565b93506116878185602086016114cc565b611690816114f6565b840191505092915050565b600060208201905081810360008301526116b58184611662565b905092915050565b6116c68161130d565b82525050565b60006020820190506116e160008301846116bd565b92915050565b6000819050919050565b6116fa816116e7565b811461170557600080fd5b50565b600081359050611717816116f1565b92915050565b60006020828403121561173357611732611303565b5b600061174184828501611708565b91505092915050565b60006117558261139e565b9050919050565b6117658161174a565b811461177057600080fd5b50565b6000813590506117828161175c565b92915050565b60006020828403121561179e5761179d611303565b5b60006117ac84828501611773565b91505092915050565b6117be8161174a565b82525050565b60006020820190506117d960008301846117b5565b92915050565b600081519050919050565b600082825260208201905092915050565b6000819050602082019050919050565b6118148161174a565b82525050565b6000611826838361180b565b60208301905092915050565b6000602082019050919050565b600061184a826117df565b61185481856117ea565b935061185f836117fb565b8060005b83811015611890578151611877888261181a565b975061188283611832565b925050600181019050611863565b5085935050505092915050565b600060208201905081810360008301526118b7818461183f565b905092915050565b6118c8816113be565b82525050565b60006020820190506118e360008301846118bf565b92915050565b7f4f6e6c79206f776e657220686173207468652070726976696c65676500000000600082015250565b600061191f601c83611651565b915061192a826118e9565b602082019050919050565b6000602082019050818103600083015261194e81611912565b9050919050565b600080fd5b7f4e487b7100000000000000000000000000000000000000000000000000000000600052604160045260246000fd5b611992826114f6565b810181811067ffffffffffffffff821117156119b1576119b061195a565b5b80604052505050565b60006119c46112f9565b90506119d08282611989565b919050565b600067ffffffffffffffff8211156119f0576119ef61195a565b5b602082029050602081019050919050565b600080fd5b600081519050611a15816115f8565b92915050565b6000611a2e611a29846119d5565b6119ba565b90508083825260208201905060208402830185811115611a5157611a50611a01565b5b835b81811015611a7a5780611a668882611a06565b845260208401935050602081019050611a53565b5050509392505050565b600082601f830112611a9957611a98611955565b5b8151611aa9848260208601611a1b565b91505092915050565b600060208284031215611ac857611ac7611303565b5b600082015167ffffffffffffffff811115611ae657611ae5611308565b5b611af284828501611a84565b91505092915050565b7f4e487b7100000000000000000000000000000000000000000000000000000000600052602260045260246000fd5b60006002820490506001821680611b4257607f821691505b602082108103611b5557611b54611afb565b5b50919050565b7f4e487b7100000000000000000000000000000000000000000000000000000000600052601160045260246000fd5b6000611b95826116e7565b9150611ba0836116e7565b9250828203905081811115611bb857611bb7611b5b565b5b92915050565b7f4e487b7100000000000000000000000000000000000000000000000000000000600052603260045260246000fd5b7f4e487b7100000000000000000000000000000000000000000000000000000000600052603160045260246000fd5b6000611c27826116e7565b91507fffffffffffffffffffffffffffffffffffffffffffffffffffffffffffffffff8203611c5957611c58611b5b565b5b600182019050919050565b600081549050611c7381611b2a565b9050919050565b60008190508160005260206000209050919050565b60008190508160005260206000209050919050565b60006020601f8301049050919050565b600082821b905092915050565b600060088302611cf17fffffffffffffffffffffffffffffffffffffffffffffffffffffffffffffffff82611cb4565b611cfb8683611cb4565b95508019841693508086168417925050509392505050565b6000819050919050565b6000611d38611d33611d2e846116e7565b611d13565b6116e7565b9050919050565b6000819050919050565b611d5283611d1d565b611d66611d5e82611d3f565b848454611cc1565b825550505050565b600090565b611d7b611d6e565b611d86818484611d49565b505050565b5b81811015611daa57611d9f600082611d73565b600181019050611d8c565b5050565b601f821115611def57611dc081611c7a565b611dc984611ca4565b81016020851015611dd8578190505b611dec611de485611ca4565b830182611d8b565b50505b505050565b600082821c905092915050565b6000611e1260001984600802611df4565b1980831691505092915050565b6000611e2b8383611e01565b9150826002028217905092915050565b818103611e49575050611f21565b611e5282611c64565b67ffffffffffffffff811115611e6b57611e6a61195a565b5b611e758254611b2a565b611e80828285611dae565b6000601f831160018114611eaf5760008415611e9d578287015490505b611ea78582611e1f565b865550611f1a565b601f198416611ebd87611c8f565b9650611ec886611c7a565b60005b82811015611ef057848901548255600182019150600185019450602081019050611ecb565b86831015611f0d5784890154611f09601f891682611e01565b8355505b6001600288020188555050505b5050505050505b56fea2646970667358221220b590f5ffb057084cfbb4c8f4373de9c5e8dd0820eb14840a078d8c6fbcb7d62164736f6c63430008110033",
					"opcodes": "PUSH1 0x80 PUSH1 0x40 MSTORE CALLVALUE DUP1 ISZERO PUSH3 0x11 JUMPI PUSH1 0x0 DUP1 REVERT JUMPDEST POP PUSH1 0x40 MLOAD PUSH3 0x2754 CODESIZE SUB DUP1 PUSH3 0x2754 DUP4 CODECOPY DUP2 DUP2 ADD PUSH1 0x40 MSTORE DUP2 ADD SWAP1 PUSH3 0x37 SWAP2 SWAP1 PUSH3 0x468 JUMP JUMPDEST CALLER PUSH1 0x0 DUP1 PUSH2 0x100 EXP DUP2 SLOAD DUP2 PUSH20 0xFFFFFFFFFFFFFFFFFFFFFFFFFFFFFFFFFFFFFFFF MUL NOT AND SWAP1 DUP4 PUSH20 0xFFFFFFFFFFFFFFFFFFFFFFFFFFFFFFFFFFFFFFFF AND MUL OR SWAP1 SSTORE POP DUP1 PUSH1 0x2 SWAP1 DUP1 MLOAD SWAP1 PUSH1 0x20 ADD SWAP1 PUSH3 0x8F SWAP3 SWAP2 SWAP1 PUSH3 0xEC JUMP JUMPDEST POP PUSH20 0xD9145CCE52D386F254917E481EB44E9943F39138 PUSH1 0x5 PUSH1 0x0 PUSH2 0x100 EXP DUP2 SLOAD DUP2 PUSH20 0xFFFFFFFFFFFFFFFFFFFFFFFFFFFFFFFFFFFFFFFF MUL NOT AND SWAP1 DUP4 PUSH20 0xFFFFFFFFFFFFFFFFFFFFFFFFFFFFFFFFFFFFFFFF AND MUL OR SWAP1 SSTORE POP POP PUSH3 0x7EB JUMP JUMPDEST DUP3 DUP1 SLOAD DUP3 DUP3 SSTORE SWAP1 PUSH1 0x0 MSTORE PUSH1 0x20 PUSH1 0x0 KECCAK256 SWAP1 DUP2 ADD SWAP3 DUP3 ISZERO PUSH3 0x139 JUMPI SWAP2 PUSH1 0x20 MUL DUP3 ADD JUMPDEST DUP3 DUP2 GT ISZERO PUSH3 0x138 JUMPI DUP3 MLOAD DUP3 SWAP1 DUP2 PUSH3 0x127 SWAP2 SWAP1 PUSH3 0x704 JUMP JUMPDEST POP SWAP2 PUSH1 0x20 ADD SWAP2 SWAP1 PUSH1 0x1 ADD SWAP1 PUSH3 0x10D JUMP JUMPDEST JUMPDEST POP SWAP1 POP PUSH3 0x148 SWAP2 SWAP1 PUSH3 0x14C JUMP JUMPDEST POP SWAP1 JUMP JUMPDEST JUMPDEST DUP1 DUP3 GT ISZERO PUSH3 0x170 JUMPI PUSH1 0x0 DUP2 DUP2 PUSH3 0x166 SWAP2 SWAP1 PUSH3 0x174 JUMP JUMPDEST POP PUSH1 0x1 ADD PUSH3 0x14D JUMP JUMPDEST POP SWAP1 JUMP JUMPDEST POP DUP1 SLOAD PUSH3 0x182 SWAP1 PUSH3 0x4F3 JUMP JUMPDEST PUSH1 0x0 DUP3 SSTORE DUP1 PUSH1 0x1F LT PUSH3 0x196 JUMPI POP PUSH3 0x1B7 JUMP JUMPDEST PUSH1 0x1F ADD PUSH1 0x20 SWAP1 DIV SWAP1 PUSH1 0x0 MSTORE PUSH1 0x20 PUSH1 0x0 KECCAK256 SWAP1 DUP2 ADD SWAP1 PUSH3 0x1B6 SWAP2 SWAP1 PUSH3 0x1BA JUMP JUMPDEST JUMPDEST POP JUMP JUMPDEST JUMPDEST DUP1 DUP3 GT ISZERO PUSH3 0x1D5 JUMPI PUSH1 0x0 DUP2 PUSH1 0x0 SWAP1 SSTORE POP PUSH1 0x1 ADD PUSH3 0x1BB JUMP JUMPDEST POP SWAP1 JUMP JUMPDEST PUSH1 0x0 PUSH1 0x40 MLOAD SWAP1 POP SWAP1 JUMP JUMPDEST PUSH1 0x0 DUP1 REVERT JUMPDEST PUSH1 0x0 DUP1 REVERT JUMPDEST PUSH1 0x0 DUP1 REVERT JUMPDEST PUSH1 0x0 PUSH1 0x1F NOT PUSH1 0x1F DUP4 ADD AND SWAP1 POP SWAP2 SWAP1 POP JUMP JUMPDEST PUSH32 0x4E487B7100000000000000000000000000000000000000000000000000000000 PUSH1 0x0 MSTORE PUSH1 0x41 PUSH1 0x4 MSTORE PUSH1 0x24 PUSH1 0x0 REVERT JUMPDEST PUSH3 0x23D DUP3 PUSH3 0x1F2 JUMP JUMPDEST DUP2 ADD DUP2 DUP2 LT PUSH8 0xFFFFFFFFFFFFFFFF DUP3 GT OR ISZERO PUSH3 0x25F JUMPI PUSH3 0x25E PUSH3 0x203 JUMP JUMPDEST JUMPDEST DUP1 PUSH1 0x40 MSTORE POP POP POP JUMP JUMPDEST PUSH1 0x0 PUSH3 0x274 PUSH3 0x1D9 JUMP JUMPDEST SWAP1 POP PUSH3 0x282 DUP3 DUP3 PUSH3 0x232 JUMP JUMPDEST SWAP2 SWAP1 POP JUMP JUMPDEST PUSH1 0x0 PUSH8 0xFFFFFFFFFFFFFFFF DUP3 GT ISZERO PUSH3 0x2A5 JUMPI PUSH3 0x2A4 PUSH3 0x203 JUMP JUMPDEST JUMPDEST PUSH1 0x20 DUP3 MUL SWAP1 POP PUSH1 0x20 DUP2 ADD SWAP1 POP SWAP2 SWAP1 POP JUMP JUMPDEST PUSH1 0x0 DUP1 REVERT JUMPDEST PUSH1 0x0 DUP1 REVERT JUMPDEST PUSH1 0x0 PUSH8 0xFFFFFFFFFFFFFFFF DUP3 GT ISZERO PUSH3 0x2DE JUMPI PUSH3 0x2DD PUSH3 0x203 JUMP JUMPDEST JUMPDEST PUSH3 0x2E9 DUP3 PUSH3 0x1F2 JUMP JUMPDEST SWAP1 POP PUSH1 0x20 DUP2 ADD SWAP1 POP SWAP2 SWAP1 POP JUMP JUMPDEST PUSH1 0x0 JUMPDEST DUP4 DUP2 LT ISZERO PUSH3 0x316 JUMPI DUP1 DUP3 ADD MLOAD DUP2 DUP5 ADD MSTORE PUSH1 0x20 DUP2 ADD SWAP1 POP PUSH3 0x2F9 JUMP JUMPDEST PUSH1 0x0 DUP5 DUP5 ADD MSTORE POP POP POP POP JUMP JUMPDEST PUSH1 0x0 PUSH3 0x339 PUSH3 0x333 DUP5 PUSH3 0x2C0 JUMP JUMPDEST PUSH3 0x268 JUMP JUMPDEST SWAP1 POP DUP3 DUP2 MSTORE PUSH1 0x20 DUP2 ADD DUP5 DUP5 DUP5 ADD GT ISZERO PUSH3 0x358 JUMPI PUSH3 0x357 PUSH3 0x2BB JUMP JUMPDEST JUMPDEST PUSH3 0x365 DUP5 DUP3 DUP6 PUSH3 0x2F6 JUMP JUMPDEST POP SWAP4 SWAP3 POP POP POP JUMP JUMPDEST PUSH1 0x0 DUP3 PUSH1 0x1F DUP4 ADD SLT PUSH3 0x385 JUMPI PUSH3 0x384 PUSH3 0x1ED JUMP JUMPDEST JUMPDEST DUP2 MLOAD PUSH3 0x397 DUP5 DUP3 PUSH1 0x20 DUP7 ADD PUSH3 0x322 JUMP JUMPDEST SWAP2 POP POP SWAP3 SWAP2 POP POP JUMP JUMPDEST PUSH1 0x0 PUSH3 0x3B7 PUSH3 0x3B1 DUP5 PUSH3 0x287 JUMP JUMPDEST PUSH3 0x268 JUMP JUMPDEST SWAP1 POP DUP1 DUP4 DUP3 MSTORE PUSH1 0x20 DUP3 ADD SWAP1 POP PUSH1 0x20 DUP5 MUL DUP4 ADD DUP6 DUP2 GT ISZERO PUSH3 0x3DD JUMPI PUSH3 0x3DC PUSH3 0x2B6 JUMP JUMPDEST JUMPDEST DUP4 JUMPDEST DUP2 DUP2 LT ISZERO PUSH3 0x42B JUMPI DUP1 MLOAD PUSH8 0xFFFFFFFFFFFFFFFF DUP2 GT ISZERO PUSH3 0x406 JUMPI PUSH3 0x405 PUSH3 0x1ED JUMP JUMPDEST JUMPDEST DUP1 DUP7 ADD PUSH3 0x415 DUP10 DUP3 PUSH3 0x36D JUMP JUMPDEST DUP6 MSTORE PUSH1 0x20 DUP6 ADD SWAP5 POP POP POP PUSH1 0x20 DUP2 ADD SWAP1 POP PUSH3 0x3DF JUMP JUMPDEST POP POP POP SWAP4 SWAP3 POP POP POP JUMP JUMPDEST PUSH1 0x0 DUP3 PUSH1 0x1F DUP4 ADD SLT PUSH3 0x44D JUMPI PUSH3 0x44C PUSH3 0x1ED JUMP JUMPDEST JUMPDEST DUP2 MLOAD PUSH3 0x45F DUP5 DUP3 PUSH1 0x20 DUP7 ADD PUSH3 0x3A0 JUMP JUMPDEST SWAP2 POP POP SWAP3 SWAP2 POP POP JUMP JUMPDEST PUSH1 0x0 PUSH1 0x20 DUP3 DUP5 SUB SLT ISZERO PUSH3 0x481 JUMPI PUSH3 0x480 PUSH3 0x1E3 JUMP JUMPDEST JUMPDEST PUSH1 0x0 DUP3 ADD MLOAD PUSH8 0xFFFFFFFFFFFFFFFF DUP2 GT ISZERO PUSH3 0x4A2 JUMPI PUSH3 0x4A1 PUSH3 0x1E8 JUMP JUMPDEST JUMPDEST PUSH3 0x4B0 DUP5 DUP3 DUP6 ADD PUSH3 0x435 JUMP JUMPDEST SWAP2 POP POP SWAP3 SWAP2 POP POP JUMP JUMPDEST PUSH1 0x0 DUP2 MLOAD SWAP1 POP SWAP2 SWAP1 POP JUMP JUMPDEST PUSH32 0x4E487B7100000000000000000000000000000000000000000000000000000000 PUSH1 0x0 MSTORE PUSH1 0x22 PUSH1 0x4 MSTORE PUSH1 0x24 PUSH1 0x0 REVERT JUMPDEST PUSH1 0x0 PUSH1 0x2 DUP3 DIV SWAP1 POP PUSH1 0x1 DUP3 AND DUP1 PUSH3 0x50C JUMPI PUSH1 0x7F DUP3 AND SWAP2 POP JUMPDEST PUSH1 0x20 DUP3 LT DUP2 SUB PUSH3 0x522 JUMPI PUSH3 0x521 PUSH3 0x4C4 JUMP JUMPDEST JUMPDEST POP SWAP2 SWAP1 POP JUMP JUMPDEST PUSH1 0x0 DUP2 SWAP1 POP DUP2 PUSH1 0x0 MSTORE PUSH1 0x20 PUSH1 0x0 KECCAK256 SWAP1 POP SWAP2 SWAP1 POP JUMP JUMPDEST PUSH1 0x0 PUSH1 0x20 PUSH1 0x1F DUP4 ADD DIV SWAP1 POP SWAP2 SWAP1 POP JUMP JUMPDEST PUSH1 0x0 DUP3 DUP3 SHL SWAP1 POP SWAP3 SWAP2 POP POP JUMP JUMPDEST PUSH1 0x0 PUSH1 0x8 DUP4 MUL PUSH3 0x58C PUSH32 0xFFFFFFFFFFFFFFFFFFFFFFFFFFFFFFFFFFFFFFFFFFFFFFFFFFFFFFFFFFFFFFFF DUP3 PUSH3 0x54D JUMP JUMPDEST PUSH3 0x598 DUP7 DUP4 PUSH3 0x54D JUMP JUMPDEST SWAP6 POP DUP1 NOT DUP5 AND SWAP4 POP DUP1 DUP7 AND DUP5 OR SWAP3 POP POP POP SWAP4 SWAP3 POP POP POP JUMP JUMPDEST PUSH1 0x0 DUP2 SWAP1 POP SWAP2 SWAP1 POP JUMP JUMPDEST PUSH1 0x0 DUP2 SWAP1 POP SWAP2 SWAP1 POP JUMP JUMPDEST PUSH1 0x0 PUSH3 0x5E5 PUSH3 0x5DF PUSH3 0x5D9 DUP5 PUSH3 0x5B0 JUMP JUMPDEST PUSH3 0x5BA JUMP JUMPDEST PUSH3 0x5B0 JUMP JUMPDEST SWAP1 POP SWAP2 SWAP1 POP JUMP JUMPDEST PUSH1 0x0 DUP2 SWAP1 POP SWAP2 SWAP1 POP JUMP JUMPDEST PUSH3 0x601 DUP4 PUSH3 0x5C4 JUMP JUMPDEST PUSH3 0x619 PUSH3 0x610 DUP3 PUSH3 0x5EC JUMP JUMPDEST DUP5 DUP5 SLOAD PUSH3 0x55A JUMP JUMPDEST DUP3 SSTORE POP POP POP POP JUMP JUMPDEST PUSH1 0x0 SWAP1 JUMP JUMPDEST PUSH3 0x630 PUSH3 0x621 JUMP JUMPDEST PUSH3 0x63D DUP2 DUP5 DUP5 PUSH3 0x5F6 JUMP JUMPDEST POP POP POP JUMP JUMPDEST JUMPDEST DUP2 DUP2 LT ISZERO PUSH3 0x665 JUMPI PUSH3 0x659 PUSH1 0x0 DUP3 PUSH3 0x626 JUMP JUMPDEST PUSH1 0x1 DUP2 ADD SWAP1 POP PUSH3 0x643 JUMP JUMPDEST POP POP JUMP JUMPDEST PUSH1 0x1F DUP3 GT ISZERO PUSH3 0x6B4 JUMPI PUSH3 0x67E DUP2 PUSH3 0x528 JUMP JUMPDEST PUSH3 0x689 DUP5 PUSH3 0x53D JUMP JUMPDEST DUP2 ADD PUSH1 0x20 DUP6 LT ISZERO PUSH3 0x699 JUMPI DUP2 SWAP1 POP JUMPDEST PUSH3 0x6B1 PUSH3 0x6A8 DUP6 PUSH3 0x53D JUMP JUMPDEST DUP4 ADD DUP3 PUSH3 0x642 JUMP JUMPDEST POP POP JUMPDEST POP POP POP JUMP JUMPDEST PUSH1 0x0 DUP3 DUP3 SHR SWAP1 POP SWAP3 SWAP2 POP POP JUMP JUMPDEST PUSH1 0x0 PUSH3 0x6D9 PUSH1 0x0 NOT DUP5 PUSH1 0x8 MUL PUSH3 0x6B9 JUMP JUMPDEST NOT DUP1 DUP4 AND SWAP2 POP POP SWAP3 SWAP2 POP POP JUMP JUMPDEST PUSH1 0x0 PUSH3 0x6F4 DUP4 DUP4 PUSH3 0x6C6 JUMP JUMPDEST SWAP2 POP DUP3 PUSH1 0x2 MUL DUP3 OR SWAP1 POP SWAP3 SWAP2 POP POP JUMP JUMPDEST PUSH3 0x70F DUP3 PUSH3 0x4B9 JUMP JUMPDEST PUSH8 0xFFFFFFFFFFFFFFFF DUP2 GT ISZERO PUSH3 0x72B JUMPI PUSH3 0x72A PUSH3 0x203 JUMP JUMPDEST JUMPDEST PUSH3 0x737 DUP3 SLOAD PUSH3 0x4F3 JUMP JUMPDEST PUSH3 0x744 DUP3 DUP3 DUP6 PUSH3 0x669 JUMP JUMPDEST PUSH1 0x0 PUSH1 0x20 SWAP1 POP PUSH1 0x1F DUP4 GT PUSH1 0x1 DUP2 EQ PUSH3 0x77C JUMPI PUSH1 0x0 DUP5 ISZERO PUSH3 0x767 JUMPI DUP3 DUP8 ADD MLOAD SWAP1 POP JUMPDEST PUSH3 0x773 DUP6 DUP3 PUSH3 0x6E6 JUMP JUMPDEST DUP7 SSTORE POP PUSH3 0x7E3 JUMP JUMPDEST PUSH1 0x1F NOT DUP5 AND PUSH3 0x78C DUP7 PUSH3 0x528 JUMP JUMPDEST PUSH1 0x0 JUMPDEST DUP3 DUP2 LT ISZERO PUSH3 0x7B6 JUMPI DUP5 DUP10 ADD MLOAD DUP3 SSTORE PUSH1 0x1 DUP3 ADD SWAP2 POP PUSH1 0x20 DUP6 ADD SWAP5 POP PUSH1 0x20 DUP2 ADD SWAP1 POP PUSH3 0x78F JUMP JUMPDEST DUP7 DUP4 LT ISZERO PUSH3 0x7D6 JUMPI DUP5 DUP10 ADD MLOAD PUSH3 0x7D2 PUSH1 0x1F DUP10 AND DUP3 PUSH3 0x6C6 JUMP JUMPDEST DUP4 SSTORE POP JUMPDEST PUSH1 0x1 PUSH1 0x2 DUP9 MUL ADD DUP9 SSTORE POP POP POP JUMPDEST POP POP POP POP POP POP JUMP JUMPDEST PUSH2 0x1F59 DUP1 PUSH3 0x7FB PUSH1 0x0 CODECOPY PUSH1 0x0 RETURN INVALID PUSH1 0x80 PUSH1 0x40 MSTORE CALLVALUE DUP1 ISZERO PUSH2 0x10 JUMPI PUSH1 0x0 DUP1 REVERT JUMPDEST POP PUSH1 0x4 CALLDATASIZE LT PUSH2 0x12C JUMPI PUSH1 0x0 CALLDATALOAD PUSH1 0xE0 SHR DUP1 PUSH4 0x7427A40C GT PUSH2 0xAD JUMPI DUP1 PUSH4 0xC0BEFA53 GT PUSH2 0x71 JUMPI DUP1 PUSH4 0xC0BEFA53 EQ PUSH2 0x2F9 JUMPI DUP1 PUSH4 0xD534CC0E EQ PUSH2 0x329 JUMPI DUP1 PUSH4 0xD73FE0AA EQ PUSH2 0x359 JUMPI DUP1 PUSH4 0xE4FC6B6D EQ PUSH2 0x377 JUMPI DUP1 PUSH4 0xEBF47977 EQ PUSH2 0x381 JUMPI PUSH2 0x12C JUMP JUMPDEST DUP1 PUSH4 0x7427A40C EQ PUSH2 0x267 JUMPI DUP1 PUSH4 0x790A0940 EQ PUSH2 0x297 JUMPI DUP1 PUSH4 0x8477D9F3 EQ PUSH2 0x2B3 JUMPI DUP1 PUSH4 0x8DA5CB5B EQ PUSH2 0x2D1 JUMPI DUP1 PUSH4 0x9A5EEC33 EQ PUSH2 0x2EF JUMPI PUSH2 0x12C JUMP JUMPDEST DUP1 PUSH4 0x32C6AFD0 GT PUSH2 0xF4 JUMPI DUP1 PUSH4 0x32C6AFD0 EQ PUSH2 0x1C3 JUMPI DUP1 PUSH4 0x4CC82215 EQ PUSH2 0x1E1 JUMPI DUP1 PUSH4 0x50E78191 EQ PUSH2 0x1FD JUMPI DUP1 PUSH4 0x57A858FC EQ PUSH2 0x219 JUMPI DUP1 PUSH4 0x728F1112 EQ PUSH2 0x249 JUMPI PUSH2 0x12C JUMP JUMPDEST DUP1 PUSH4 0x1570FE8 EQ PUSH2 0x131 JUMPI DUP1 PUSH4 0xD2BAAA1 EQ PUSH2 0x14D JUMPI DUP1 PUSH4 0x17377F68 EQ PUSH2 0x16B JUMPI DUP1 PUSH4 0x1BF9CB17 EQ PUSH2 0x189 JUMPI DUP1 PUSH4 0x1E1CF160 EQ PUSH2 0x193 JUMPI JUMPDEST PUSH1 0x0 DUP1 REVERT JUMPDEST PUSH2 0x14B PUSH1 0x4 DUP1 CALLDATASIZE SUB DUP2 ADD SWAP1 PUSH2 0x146 SWAP2 SWAP1 PUSH2 0x1345 JUMP JUMPDEST PUSH2 0x39D JUMP JUMPDEST STOP JUMPDEST PUSH2 0x155 PUSH2 0x42E JUMP JUMPDEST PUSH1 0x40 MLOAD PUSH2 0x162 SWAP2 SWAP1 PUSH2 0x1462 JUMP JUMPDEST PUSH1 0x40 MLOAD DUP1 SWAP2 SUB SWAP1 RETURN JUMPDEST PUSH2 0x173 PUSH2 0x58A JUMP JUMPDEST PUSH1 0x40 MLOAD PUSH2 0x180 SWAP2 SWAP1 PUSH2 0x15D6 JUMP JUMPDEST PUSH1 0x40 MLOAD DUP1 SWAP2 SUB SWAP1 RETURN JUMPDEST PUSH2 0x191 PUSH2 0x663 JUMP JUMPDEST STOP JUMPDEST PUSH2 0x1AD PUSH1 0x4 DUP1 CALLDATASIZE SUB DUP2 ADD SWAP1 PUSH2 0x1A8 SWAP2 SWAP1 PUSH2 0x1624 JUMP JUMPDEST PUSH2 0x6F3 JUMP JUMPDEST PUSH1 0x40 MLOAD PUSH2 0x1BA SWAP2 SWAP1 PUSH2 0x169B JUMP JUMPDEST PUSH1 0x40 MLOAD DUP1 SWAP2 SUB SWAP1 RETURN JUMPDEST PUSH2 0x1CB PUSH2 0x793 JUMP JUMPDEST PUSH1 0x40 MLOAD PUSH2 0x1D8 SWAP2 SWAP1 PUSH2 0x16CC JUMP JUMPDEST PUSH1 0x40 MLOAD DUP1 SWAP2 SUB SWAP1 RETURN JUMPDEST PUSH2 0x1FB PUSH1 0x4 DUP1 CALLDATASIZE SUB DUP2 ADD SWAP1 PUSH2 0x1F6 SWAP2 SWAP1 PUSH2 0x171D JUMP JUMPDEST PUSH2 0x835 JUMP JUMPDEST STOP JUMPDEST PUSH2 0x217 PUSH1 0x4 DUP1 CALLDATASIZE SUB DUP2 ADD SWAP1 PUSH2 0x212 SWAP2 SWAP1 PUSH2 0x1788 JUMP JUMPDEST PUSH2 0x929 JUMP JUMPDEST STOP JUMPDEST PUSH2 0x233 PUSH1 0x4 DUP1 CALLDATASIZE SUB DUP2 ADD SWAP1 PUSH2 0x22E SWAP2 SWAP1 PUSH2 0x171D JUMP JUMPDEST PUSH2 0xA59 JUMP JUMPDEST PUSH1 0x40 MLOAD PUSH2 0x240 SWAP2 SWAP1 PUSH2 0x169B JUMP JUMPDEST PUSH1 0x40 MLOAD DUP1 SWAP2 SUB SWAP1 RETURN JUMPDEST PUSH2 0x251 PUSH2 0xB05 JUMP JUMPDEST PUSH1 0x40 MLOAD PUSH2 0x25E SWAP2 SWAP1 PUSH2 0x16CC JUMP JUMPDEST PUSH1 0x40 MLOAD DUP1 SWAP2 SUB SWAP1 RETURN JUMPDEST PUSH2 0x281 PUSH1 0x4 DUP1 CALLDATASIZE SUB DUP2 ADD SWAP1 PUSH2 0x27C SWAP2 SWAP1 PUSH2 0x171D JUMP JUMPDEST PUSH2 0xBA7 JUMP JUMPDEST PUSH1 0x40 MLOAD PUSH2 0x28E SWAP2 SWAP1 PUSH2 0x17C4 JUMP JUMPDEST PUSH1 0x40 MLOAD DUP1 SWAP2 SUB SWAP1 RETURN JUMPDEST PUSH2 0x2B1 PUSH1 0x4 DUP1 CALLDATASIZE SUB DUP2 ADD SWAP1 PUSH2 0x2AC SWAP2 SWAP1 PUSH2 0x1788 JUMP JUMPDEST PUSH2 0xBE6 JUMP JUMPDEST STOP JUMPDEST PUSH2 0x2BB PUSH2 0xCDA JUMP JUMPDEST PUSH1 0x40 MLOAD PUSH2 0x2C8 SWAP2 SWAP1 PUSH2 0x189D JUMP JUMPDEST PUSH1 0x40 MLOAD DUP1 SWAP2 SUB SWAP1 RETURN JUMPDEST PUSH2 0x2D9 PUSH2 0xD68 JUMP JUMPDEST PUSH1 0x40 MLOAD PUSH2 0x2E6 SWAP2 SWAP1 PUSH2 0x18CE JUMP JUMPDEST PUSH1 0x40 MLOAD DUP1 SWAP2 SUB SWAP1 RETURN JUMPDEST PUSH2 0x2F7 PUSH2 0xD8C JUMP JUMPDEST STOP JUMPDEST PUSH2 0x313 PUSH1 0x4 DUP1 CALLDATASIZE SUB DUP2 ADD SWAP1 PUSH2 0x30E SWAP2 SWAP1 PUSH2 0x1624 JUMP JUMPDEST PUSH2 0xE1C JUMP JUMPDEST PUSH1 0x40 MLOAD PUSH2 0x320 SWAP2 SWAP1 PUSH2 0x169B JUMP JUMPDEST PUSH1 0x40 MLOAD DUP1 SWAP2 SUB SWAP1 RETURN JUMPDEST PUSH2 0x343 PUSH1 0x4 DUP1 CALLDATASIZE SUB DUP2 ADD SWAP1 PUSH2 0x33E SWAP2 SWAP1 PUSH2 0x1624 JUMP JUMPDEST PUSH2 0xF81 JUMP JUMPDEST PUSH1 0x40 MLOAD PUSH2 0x350 SWAP2 SWAP1 PUSH2 0x169B JUMP JUMPDEST PUSH1 0x40 MLOAD DUP1 SWAP2 SUB SWAP1 RETURN JUMPDEST PUSH2 0x361 PUSH2 0x1021 JUMP JUMPDEST PUSH1 0x40 MLOAD PUSH2 0x36E SWAP2 SWAP1 PUSH2 0x15D6 JUMP JUMPDEST PUSH1 0x40 MLOAD DUP1 SWAP2 SUB SWAP1 RETURN JUMPDEST PUSH2 0x37F PUSH2 0x10FA JUMP JUMPDEST STOP JUMPDEST PUSH2 0x39B PUSH1 0x4 DUP1 CALLDATASIZE SUB DUP2 ADD SWAP1 PUSH2 0x396 SWAP2 SWAP1 PUSH2 0x1624 JUMP JUMPDEST PUSH2 0x1268 JUMP JUMPDEST STOP JUMPDEST PUSH1 0x0 DUP1 SLOAD SWAP1 PUSH2 0x100 EXP SWAP1 DIV PUSH20 0xFFFFFFFFFFFFFFFFFFFFFFFFFFFFFFFFFFFFFFFF AND PUSH20 0xFFFFFFFFFFFFFFFFFFFFFFFFFFFFFFFFFFFFFFFF AND CALLER PUSH20 0xFFFFFFFFFFFFFFFFFFFFFFFFFFFFFFFFFFFFFFFF AND EQ PUSH2 0x42B JUMPI PUSH1 0x40 MLOAD PUSH32 0x8C379A000000000000000000000000000000000000000000000000000000000 DUP2 MSTORE PUSH1 0x4 ADD PUSH2 0x422 SWAP1 PUSH2 0x1935 JUMP JUMPDEST PUSH1 0x40 MLOAD DUP1 SWAP2 SUB SWAP1 REVERT JUMPDEST POP JUMP JUMPDEST PUSH1 0x60 PUSH1 0x0 DUP1 SLOAD SWAP1 PUSH2 0x100 EXP SWAP1 DIV PUSH20 0xFFFFFFFFFFFFFFFFFFFFFFFFFFFFFFFFFFFFFFFF AND PUSH20 0xFFFFFFFFFFFFFFFFFFFFFFFFFFFFFFFFFFFFFFFF AND CALLER PUSH20 0xFFFFFFFFFFFFFFFFFFFFFFFFFFFFFFFFFFFFFFFF AND EQ PUSH2 0x4BE JUMPI PUSH1 0x40 MLOAD PUSH32 0x8C379A000000000000000000000000000000000000000000000000000000000 DUP2 MSTORE PUSH1 0x4 ADD PUSH2 0x4B5 SWAP1 PUSH2 0x1935 JUMP JUMPDEST PUSH1 0x40 MLOAD DUP1 SWAP2 SUB SWAP1 REVERT JUMPDEST PUSH1 0x0 PUSH1 0x5 PUSH1 0x0 SWAP1 SLOAD SWAP1 PUSH2 0x100 EXP SWAP1 DIV PUSH20 0xFFFFFFFFFFFFFFFFFFFFFFFFFFFFFFFFFFFFFFFF AND PUSH20 0xFFFFFFFFFFFFFFFFFFFFFFFFFFFFFFFFFFFFFFFF AND PUSH4 0x99F8B09F PUSH1 0x0 DUP1 SLOAD SWAP1 PUSH2 0x100 EXP SWAP1 DIV PUSH20 0xFFFFFFFFFFFFFFFFFFFFFFFFFFFFFFFFFFFFFFFF AND PUSH1 0x40 MLOAD DUP3 PUSH4 0xFFFFFFFF AND PUSH1 0xE0 SHL DUP2 MSTORE PUSH1 0x4 ADD PUSH2 0x53B SWAP2 SWAP1 PUSH2 0x18CE JUMP JUMPDEST PUSH1 0x0 PUSH1 0x40 MLOAD DUP1 DUP4 SUB DUP2 DUP7 GAS STATICCALL ISZERO DUP1 ISZERO PUSH2 0x558 JUMPI RETURNDATASIZE PUSH1 0x0 DUP1 RETURNDATACOPY RETURNDATASIZE PUSH1 0x0 REVERT JUMPDEST POP POP POP POP PUSH1 0x40 MLOAD RETURNDATASIZE PUSH1 0x0 DUP3 RETURNDATACOPY RETURNDATASIZE PUSH1 0x1F NOT PUSH1 0x1F DUP3 ADD AND DUP3 ADD DUP1 PUSH1 0x40 MSTORE POP DUP2 ADD SWAP1 PUSH2 0x581 SWAP2 SWAP1 PUSH2 0x1AB2 JUMP JUMPDEST SWAP1 POP DUP1 SWAP2 POP POP SWAP1 JUMP JUMPDEST PUSH1 0x60 PUSH1 0x2 DUP1 SLOAD DUP1 PUSH1 0x20 MUL PUSH1 0x20 ADD PUSH1 0x40 MLOAD SWAP1 DUP2 ADD PUSH1 0x40 MSTORE DUP1 SWAP3 SWAP2 SWAP1 DUP2 DUP2 MSTORE PUSH1 0x20 ADD PUSH1 0x0 SWAP1 JUMPDEST DUP3 DUP3 LT ISZERO PUSH2 0x65A JUMPI DUP4 DUP3 SWAP1 PUSH1 0x0 MSTORE PUSH1 0x20 PUSH1 0x0 KECCAK256 ADD DUP1 SLOAD PUSH2 0x5CD SWAP1 PUSH2 0x1B2A JUMP JUMPDEST DUP1 PUSH1 0x1F ADD PUSH1 0x20 DUP1 SWAP2 DIV MUL PUSH1 0x20 ADD PUSH1 0x40 MLOAD SWAP1 DUP2 ADD PUSH1 0x40 MSTORE DUP1 SWAP3 SWAP2 SWAP1 DUP2 DUP2 MSTORE PUSH1 0x20 ADD DUP3 DUP1 SLOAD PUSH2 0x5F9 SWAP1 PUSH2 0x1B2A JUMP JUMPDEST DUP1 ISZERO PUSH2 0x646 JUMPI DUP1 PUSH1 0x1F LT PUSH2 0x61B JUMPI PUSH2 0x100 DUP1 DUP4 SLOAD DIV MUL DUP4 MSTORE SWAP2 PUSH1 0x20 ADD SWAP2 PUSH2 0x646 JUMP JUMPDEST DUP3 ADD SWAP2 SWAP1 PUSH1 0x0 MSTORE PUSH1 0x20 PUSH1 0x0 KECCAK256 SWAP1 JUMPDEST DUP2 SLOAD DUP2 MSTORE SWAP1 PUSH1 0x1 ADD SWAP1 PUSH1 0x20 ADD DUP1 DUP4 GT PUSH2 0x629 JUMPI DUP3 SWAP1 SUB PUSH1 0x1F AND DUP3 ADD SWAP2 JUMPDEST POP POP POP POP POP DUP2 MSTORE PUSH1 0x20 ADD SWAP1 PUSH1 0x1 ADD SWAP1 PUSH2 0x5AE JUMP JUMPDEST POP POP POP POP SWAP1 POP SWAP1 JUMP JUMPDEST PUSH1 0x0 DUP1 SLOAD SWAP1 PUSH2 0x100 EXP SWAP1 DIV PUSH20 0xFFFFFFFFFFFFFFFFFFFFFFFFFFFFFFFFFFFFFFFF AND PUSH20 0xFFFFFFFFFFFFFFFFFFFFFFFFFFFFFFFFFFFFFFFF AND CALLER PUSH20 0xFFFFFFFFFFFFFFFFFFFFFFFFFFFFFFFFFFFFFFFF AND EQ PUSH2 0x6F1 JUMPI PUSH1 0x40 MLOAD PUSH32 0x8C379A000000000000000000000000000000000000000000000000000000000 DUP2 MSTORE PUSH1 0x4 ADD PUSH2 0x6E8 SWAP1 PUSH2 0x1935 JUMP JUMPDEST PUSH1 0x40 MLOAD DUP1 SWAP2 SUB SWAP1 REVERT JUMPDEST JUMP JUMPDEST PUSH1 0x4 PUSH1 0x20 MSTORE DUP1 PUSH1 0x0 MSTORE PUSH1 0x40 PUSH1 0x0 KECCAK256 PUSH1 0x0 SWAP2 POP SWAP1 POP DUP1 SLOAD PUSH2 0x712 SWAP1 PUSH2 0x1B2A JUMP JUMPDEST DUP1 PUSH1 0x1F ADD PUSH1 0x20 DUP1 SWAP2 DIV MUL PUSH1 0x20 ADD PUSH1 0x40 MLOAD SWAP1 DUP2 ADD PUSH1 0x40 MSTORE DUP1 SWAP3 SWAP2 SWAP1 DUP2 DUP2 MSTORE PUSH1 0x20 ADD DUP3 DUP1 SLOAD PUSH2 0x73E SWAP1 PUSH2 0x1B2A JUMP JUMPDEST DUP1 ISZERO PUSH2 0x78B JUMPI DUP1 PUSH1 0x1F LT PUSH2 0x760 JUMPI PUSH2 0x100 DUP1 DUP4 SLOAD DIV MUL DUP4 MSTORE SWAP2 PUSH1 0x20 ADD SWAP2 PUSH2 0x78B JUMP JUMPDEST DUP3 ADD SWAP2 SWAP1 PUSH1 0x0 MSTORE PUSH1 0x20 PUSH1 0x0 KECCAK256 SWAP1 JUMPDEST DUP2 SLOAD DUP2 MSTORE SWAP1 PUSH1 0x1 ADD SWAP1 PUSH1 0x20 ADD DUP1 DUP4 GT PUSH2 0x76E JUMPI DUP3 SWAP1 SUB PUSH1 0x1F AND DUP3 ADD SWAP2 JUMPDEST POP POP POP POP POP DUP2 JUMP JUMPDEST PUSH1 0x0 DUP1 PUSH1 0x0 SWAP1 SLOAD SWAP1 PUSH2 0x100 EXP SWAP1 DIV PUSH20 0xFFFFFFFFFFFFFFFFFFFFFFFFFFFFFFFFFFFFFFFF AND PUSH20 0xFFFFFFFFFFFFFFFFFFFFFFFFFFFFFFFFFFFFFFFF AND CALLER PUSH20 0xFFFFFFFFFFFFFFFFFFFFFFFFFFFFFFFFFFFFFFFF AND EQ PUSH2 0x824 JUMPI PUSH1 0x40 MLOAD PUSH32 0x8C379A000000000000000000000000000000000000000000000000000000000 DUP2 MSTORE PUSH1 0x4 ADD PUSH2 0x81B SWAP1 PUSH2 0x1935 JUMP JUMPDEST PUSH1 0x40 MLOAD DUP1 SWAP2 SUB SWAP1 REVERT JUMPDEST PUSH2 0x82E PUSH1 0x0 PUSH2 0x39D JUMP JUMPDEST PUSH1 0x0 SWAP1 POP SWAP1 JUMP JUMPDEST PUSH1 0x1 DUP1 DUP1 DUP1 SLOAD SWAP1 POP PUSH2 0x847 SWAP2 SWAP1 PUSH2 0x1B8A JUMP JUMPDEST DUP2 SLOAD DUP2 LT PUSH2 0x858 JUMPI PUSH2 0x857 PUSH2 0x1BBE JUMP JUMPDEST JUMPDEST SWAP1 PUSH1 0x0 MSTORE PUSH1 0x20 PUSH1 0x0 KECCAK256 ADD PUSH1 0x0 SWAP1 SLOAD SWAP1 PUSH2 0x100 EXP SWAP1 DIV PUSH20 0xFFFFFFFFFFFFFFFFFFFFFFFFFFFFFFFFFFFFFFFF AND PUSH1 0x1 DUP3 DUP2 SLOAD DUP2 LT PUSH2 0x897 JUMPI PUSH2 0x896 PUSH2 0x1BBE JUMP JUMPDEST JUMPDEST SWAP1 PUSH1 0x0 MSTORE PUSH1 0x20 PUSH1 0x0 KECCAK256 ADD PUSH1 0x0 PUSH2 0x100 EXP DUP2 SLOAD DUP2 PUSH20 0xFFFFFFFFFFFFFFFFFFFFFFFFFFFFFFFFFFFFFFFF MUL NOT AND SWAP1 DUP4 PUSH20 0xFFFFFFFFFFFFFFFFFFFFFFFFFFFFFFFFFFFFFFFF AND MUL OR SWAP1 SSTORE POP PUSH1 0x1 DUP1 SLOAD DUP1 PUSH2 0x8F1 JUMPI PUSH2 0x8F0 PUSH2 0x1BED JUMP JUMPDEST JUMPDEST PUSH1 0x1 SWAP1 SUB DUP2 DUP2 SWAP1 PUSH1 0x0 MSTORE PUSH1 0x20 PUSH1 0x0 KECCAK256 ADD PUSH1 0x0 PUSH2 0x100 EXP DUP2 SLOAD SWAP1 PUSH20 0xFFFFFFFFFFFFFFFFFFFFFFFFFFFFFFFFFFFFFFFF MUL NOT AND SWAP1 SSTORE SWAP1 SSTORE POP JUMP JUMPDEST PUSH1 0x0 DUP1 SLOAD SWAP1 PUSH2 0x100 EXP SWAP1 DIV PUSH20 0xFFFFFFFFFFFFFFFFFFFFFFFFFFFFFFFFFFFFFFFF AND PUSH20 0xFFFFFFFFFFFFFFFFFFFFFFFFFFFFFFFFFFFFFFFF AND CALLER PUSH20 0xFFFFFFFFFFFFFFFFFFFFFFFFFFFFFFFFFFFFFFFF AND EQ PUSH2 0x9B7 JUMPI PUSH1 0x40 MLOAD PUSH32 0x8C379A000000000000000000000000000000000000000000000000000000000 DUP2 MSTORE PUSH1 0x4 ADD PUSH2 0x9AE SWAP1 PUSH2 0x1935 JUMP JUMPDEST PUSH1 0x40 MLOAD DUP1 SWAP2 SUB SWAP1 REVERT JUMPDEST PUSH1 0x0 JUMPDEST PUSH1 0x1 DUP1 SLOAD SWAP1 POP DUP2 LT ISZERO PUSH2 0xA4C JUMPI DUP2 PUSH20 0xFFFFFFFFFFFFFFFFFFFFFFFFFFFFFFFFFFFFFFFF AND PUSH1 0x1 DUP3 DUP2 SLOAD DUP2 LT PUSH2 0x9F2 JUMPI PUSH2 0x9F1 PUSH2 0x1BBE JUMP JUMPDEST JUMPDEST SWAP1 PUSH1 0x0 MSTORE PUSH1 0x20 PUSH1 0x0 KECCAK256 ADD PUSH1 0x0 SWAP1 SLOAD SWAP1 PUSH2 0x100 EXP SWAP1 DIV PUSH20 0xFFFFFFFFFFFFFFFFFFFFFFFFFFFFFFFFFFFFFFFF AND PUSH20 0xFFFFFFFFFFFFFFFFFFFFFFFFFFFFFFFFFFFFFFFF AND SUB ISZERO PUSH2 0xA4C JUMPI DUP1 DUP1 PUSH2 0xA44 SWAP1 PUSH2 0x1C1C JUMP JUMPDEST SWAP2 POP POP PUSH2 0x9BA JUMP JUMPDEST PUSH2 0xA55 DUP2 PUSH2 0x835 JUMP JUMPDEST POP POP JUMP JUMPDEST PUSH1 0x2 DUP2 DUP2 SLOAD DUP2 LT PUSH2 0xA69 JUMPI PUSH1 0x0 DUP1 REVERT JUMPDEST SWAP1 PUSH1 0x0 MSTORE PUSH1 0x20 PUSH1 0x0 KECCAK256 ADD PUSH1 0x0 SWAP2 POP SWAP1 POP DUP1 SLOAD PUSH2 0xA84 SWAP1 PUSH2 0x1B2A JUMP JUMPDEST DUP1 PUSH1 0x1F ADD PUSH1 0x20 DUP1 SWAP2 DIV MUL PUSH1 0x20 ADD PUSH1 0x40 MLOAD SWAP1 DUP2 ADD PUSH1 0x40 MSTORE DUP1 SWAP3 SWAP2 SWAP1 DUP2 DUP2 MSTORE PUSH1 0x20 ADD DUP3 DUP1 SLOAD PUSH2 0xAB0 SWAP1 PUSH2 0x1B2A JUMP JUMPDEST DUP1 ISZERO PUSH2 0xAFD JUMPI DUP1 PUSH1 0x1F LT PUSH2 0xAD2 JUMPI PUSH2 0x100 DUP1 DUP4 SLOAD DIV MUL DUP4 MSTORE SWAP2 PUSH1 0x20 ADD SWAP2 PUSH2 0xAFD JUMP JUMPDEST DUP3 ADD SWAP2 SWAP1 PUSH1 0x0 MSTORE PUSH1 0x20 PUSH1 0x0 KECCAK256 SWAP1 JUMPDEST DUP2 SLOAD DUP2 MSTORE SWAP1 PUSH1 0x1 ADD SWAP1 PUSH1 0x20 ADD DUP1 DUP4 GT PUSH2 0xAE0 JUMPI DUP3 SWAP1 SUB PUSH1 0x1F AND DUP3 ADD SWAP2 JUMPDEST POP POP POP POP POP DUP2 JUMP JUMPDEST PUSH1 0x0 DUP1 PUSH1 0x0 SWAP1 SLOAD SWAP1 PUSH2 0x100 EXP SWAP1 DIV PUSH20 0xFFFFFFFFFFFFFFFFFFFFFFFFFFFFFFFFFFFFFFFF AND PUSH20 0xFFFFFFFFFFFFFFFFFFFFFFFFFFFFFFFFFFFFFFFF AND CALLER PUSH20 0xFFFFFFFFFFFFFFFFFFFFFFFFFFFFFFFFFFFFFFFF AND EQ PUSH2 0xB96 JUMPI PUSH1 0x40 MLOAD PUSH32 0x8C379A000000000000000000000000000000000000000000000000000000000 DUP2 MSTORE PUSH1 0x4 ADD PUSH2 0xB8D SWAP1 PUSH2 0x1935 JUMP JUMPDEST PUSH1 0x40 MLOAD DUP1 SWAP2 SUB SWAP1 REVERT JUMPDEST PUSH2 0xBA0 PUSH1 0x1 PUSH2 0x39D JUMP JUMPDEST PUSH1 0x1 SWAP1 POP SWAP1 JUMP JUMPDEST PUSH1 0x1 DUP2 DUP2 SLOAD DUP2 LT PUSH2 0xBB7 JUMPI PUSH1 0x0 DUP1 REVERT JUMPDEST SWAP1 PUSH1 0x0 MSTORE PUSH1 0x20 PUSH1 0x0 KECCAK256 ADD PUSH1 0x0 SWAP2 POP SLOAD SWAP1 PUSH2 0x100 EXP SWAP1 DIV PUSH20 0xFFFFFFFFFFFFFFFFFFFFFFFFFFFFFFFFFFFFFFFF AND DUP2 JUMP JUMPDEST PUSH1 0x0 DUP1 SLOAD SWAP1 PUSH2 0x100 EXP SWAP1 DIV PUSH20 0xFFFFFFFFFFFFFFFFFFFFFFFFFFFFFFFFFFFFFFFF AND PUSH20 0xFFFFFFFFFFFFFFFFFFFFFFFFFFFFFFFFFFFFFFFF AND CALLER PUSH20 0xFFFFFFFFFFFFFFFFFFFFFFFFFFFFFFFFFFFFFFFF AND EQ PUSH2 0xC74 JUMPI PUSH1 0x40 MLOAD PUSH32 0x8C379A000000000000000000000000000000000000000000000000000000000 DUP2 MSTORE PUSH1 0x4 ADD PUSH2 0xC6B SWAP1 PUSH2 0x1935 JUMP JUMPDEST PUSH1 0x40 MLOAD DUP1 SWAP2 SUB SWAP1 REVERT JUMPDEST PUSH1 0x1 DUP2 SWAP1 DUP1 PUSH1 0x1 DUP2 SLOAD ADD DUP1 DUP3 SSTORE DUP1 SWAP2 POP POP PUSH1 0x1 SWAP1 SUB SWAP1 PUSH1 0x0 MSTORE PUSH1 0x20 PUSH1 0x0 KECCAK256 ADD PUSH1 0x0 SWAP1 SWAP2 SWAP1 SWAP2 SWAP1 SWAP2 PUSH2 0x100 EXP DUP2 SLOAD DUP2 PUSH20 0xFFFFFFFFFFFFFFFFFFFFFFFFFFFFFFFFFFFFFFFF MUL NOT AND SWAP1 DUP4 PUSH20 0xFFFFFFFFFFFFFFFFFFFFFFFFFFFFFFFFFFFFFFFF AND MUL OR SWAP1 SSTORE POP POP JUMP JUMPDEST PUSH1 0x60 PUSH1 0x1 DUP1 SLOAD DUP1 PUSH1 0x20 MUL PUSH1 0x20 ADD PUSH1 0x40 MLOAD SWAP1 DUP2 ADD PUSH1 0x40 MSTORE DUP1 SWAP3 SWAP2 SWAP1 DUP2 DUP2 MSTORE PUSH1 0x20 ADD DUP3 DUP1 SLOAD DUP1 ISZERO PUSH2 0xD5E JUMPI PUSH1 0x20 MUL DUP3 ADD SWAP2 SWAP1 PUSH1 0x0 MSTORE PUSH1 0x20 PUSH1 0x0 KECCAK256 SWAP1 JUMPDEST DUP2 PUSH1 0x0 SWAP1 SLOAD SWAP1 PUSH2 0x100 EXP SWAP1 DIV PUSH20 0xFFFFFFFFFFFFFFFFFFFFFFFFFFFFFFFFFFFFFFFF AND PUSH20 0xFFFFFFFFFFFFFFFFFFFFFFFFFFFFFFFFFFFFFFFF AND DUP2 MSTORE PUSH1 0x20 ADD SWAP1 PUSH1 0x1 ADD SWAP1 DUP1 DUP4 GT PUSH2 0xD14 JUMPI JUMPDEST POP POP POP POP POP SWAP1 POP SWAP1 JUMP JUMPDEST PUSH1 0x0 DUP1 SLOAD SWAP1 PUSH2 0x100 EXP SWAP1 DIV PUSH20 0xFFFFFFFFFFFFFFFFFFFFFFFFFFFFFFFFFFFFFFFF AND DUP2 JUMP JUMPDEST PUSH1 0x0 DUP1 SLOAD SWAP1 PUSH2 0x100 EXP SWAP1 DIV PUSH20 0xFFFFFFFFFFFFFFFFFFFFFFFFFFFFFFFFFFFFFFFF AND PUSH20 0xFFFFFFFFFFFFFFFFFFFFFFFFFFFFFFFFFFFFFFFF AND CALLER PUSH20 0xFFFFFFFFFFFFFFFFFFFFFFFFFFFFFFFFFFFFFFFF AND EQ PUSH2 0xE1A JUMPI PUSH1 0x40 MLOAD PUSH32 0x8C379A000000000000000000000000000000000000000000000000000000000 DUP2 MSTORE PUSH1 0x4 ADD PUSH2 0xE11 SWAP1 PUSH2 0x1935 JUMP JUMPDEST PUSH1 0x40 MLOAD DUP1 SWAP2 SUB SWAP1 REVERT JUMPDEST JUMP JUMPDEST PUSH1 0x60 PUSH1 0x0 DUP1 SLOAD SWAP1 PUSH2 0x100 EXP SWAP1 DIV PUSH20 0xFFFFFFFFFFFFFFFFFFFFFFFFFFFFFFFFFFFFFFFF AND PUSH20 0xFFFFFFFFFFFFFFFFFFFFFFFFFFFFFFFFFFFFFFFF AND CALLER PUSH20 0xFFFFFFFFFFFFFFFFFFFFFFFFFFFFFFFFFFFFFFFF AND EQ PUSH2 0xEAC JUMPI PUSH1 0x40 MLOAD PUSH32 0x8C379A000000000000000000000000000000000000000000000000000000000 DUP2 MSTORE PUSH1 0x4 ADD PUSH2 0xEA3 SWAP1 PUSH2 0x1935 JUMP JUMPDEST PUSH1 0x40 MLOAD DUP1 SWAP2 SUB SWAP1 REVERT JUMPDEST PUSH1 0x0 PUSH1 0x4 PUSH1 0x0 DUP5 PUSH20 0xFFFFFFFFFFFFFFFFFFFFFFFFFFFFFFFFFFFFFFFF AND PUSH20 0xFFFFFFFFFFFFFFFFFFFFFFFFFFFFFFFFFFFFFFFF AND DUP2 MSTORE PUSH1 0x20 ADD SWAP1 DUP2 MSTORE PUSH1 0x20 ADD PUSH1 0x0 KECCAK256 DUP1 SLOAD PUSH2 0xEF8 SWAP1 PUSH2 0x1B2A JUMP JUMPDEST DUP1 PUSH1 0x1F ADD PUSH1 0x20 DUP1 SWAP2 DIV MUL PUSH1 0x20 ADD PUSH1 0x40 MLOAD SWAP1 DUP2 ADD PUSH1 0x40 MSTORE DUP1 SWAP3 SWAP2 SWAP1 DUP2 DUP2 MSTORE PUSH1 0x20 ADD DUP3 DUP1 SLOAD PUSH2 0xF24 SWAP1 PUSH2 0x1B2A JUMP JUMPDEST DUP1 ISZERO PUSH2 0xF71 JUMPI DUP1 PUSH1 0x1F LT PUSH2 0xF46 JUMPI PUSH2 0x100 DUP1 DUP4 SLOAD DIV MUL DUP4 MSTORE SWAP2 PUSH1 0x20 ADD SWAP2 PUSH2 0xF71 JUMP JUMPDEST DUP3 ADD SWAP2 SWAP1 PUSH1 0x0 MSTORE PUSH1 0x20 PUSH1 0x0 KECCAK256 SWAP1 JUMPDEST DUP2 SLOAD DUP2 MSTORE SWAP1 PUSH1 0x1 ADD SWAP1 PUSH1 0x20 ADD DUP1 DUP4 GT PUSH2 0xF54 JUMPI DUP3 SWAP1 SUB PUSH1 0x1F AND DUP3 ADD SWAP2 JUMPDEST POP POP POP POP POP SWAP1 POP DUP1 SWAP2 POP POP SWAP2 SWAP1 POP JUMP JUMPDEST PUSH1 0x3 PUSH1 0x20 MSTORE DUP1 PUSH1 0x0 MSTORE PUSH1 0x40 PUSH1 0x0 KECCAK256 PUSH1 0x0 SWAP2 POP SWAP1 POP DUP1 SLOAD PUSH2 0xFA0 SWAP1 PUSH2 0x1B2A JUMP JUMPDEST DUP1 PUSH1 0x1F ADD PUSH1 0x20 DUP1 SWAP2 DIV MUL PUSH1 0x20 ADD PUSH1 0x40 MLOAD SWAP1 DUP2 ADD PUSH1 0x40 MSTORE DUP1 SWAP3 SWAP2 SWAP1 DUP2 DUP2 MSTORE PUSH1 0x20 ADD DUP3 DUP1 SLOAD PUSH2 0xFCC SWAP1 PUSH2 0x1B2A JUMP JUMPDEST DUP1 ISZERO PUSH2 0x1019 JUMPI DUP1 PUSH1 0x1F LT PUSH2 0xFEE JUMPI PUSH2 0x100 DUP1 DUP4 SLOAD DIV MUL DUP4 MSTORE SWAP2 PUSH1 0x20 ADD SWAP2 PUSH2 0x1019 JUMP JUMPDEST DUP3 ADD SWAP2 SWAP1 PUSH1 0x0 MSTORE PUSH1 0x20 PUSH1 0x0 KECCAK256 SWAP1 JUMPDEST DUP2 SLOAD DUP2 MSTORE SWAP1 PUSH1 0x1 ADD SWAP1 PUSH1 0x20 ADD DUP1 DUP4 GT PUSH2 0xFFC JUMPI DUP3 SWAP1 SUB PUSH1 0x1F AND DUP3 ADD SWAP2 JUMPDEST POP POP POP POP POP DUP2 JUMP JUMPDEST PUSH1 0x60 PUSH1 0x2 DUP1 SLOAD DUP1 PUSH1 0x20 MUL PUSH1 0x20 ADD PUSH1 0x40 MLOAD SWAP1 DUP2 ADD PUSH1 0x40 MSTORE DUP1 SWAP3 SWAP2 SWAP1 DUP2 DUP2 MSTORE PUSH1 0x20 ADD PUSH1 0x0 SWAP1 JUMPDEST DUP3 DUP3 LT ISZERO PUSH2 0x10F1 JUMPI DUP4 DUP3 SWAP1 PUSH1 0x0 MSTORE PUSH1 0x20 PUSH1 0x0 KECCAK256 ADD DUP1 SLOAD PUSH2 0x1064 SWAP1 PUSH2 0x1B2A JUMP JUMPDEST DUP1 PUSH1 0x1F ADD PUSH1 0x20 DUP1 SWAP2 DIV MUL PUSH1 0x20 ADD PUSH1 0x40 MLOAD SWAP1 DUP2 ADD PUSH1 0x40 MSTORE DUP1 SWAP3 SWAP2 SWAP1 DUP2 DUP2 MSTORE PUSH1 0x20 ADD DUP3 DUP1 SLOAD PUSH2 0x1090 SWAP1 PUSH2 0x1B2A JUMP JUMPDEST DUP1 ISZERO PUSH2 0x10DD JUMPI DUP1 PUSH1 0x1F LT PUSH2 0x10B2 JUMPI PUSH2 0x100 DUP1 DUP4 SLOAD DIV MUL DUP4 MSTORE SWAP2 PUSH1 0x20 ADD SWAP2 PUSH2 0x10DD JUMP JUMPDEST DUP3 ADD SWAP2 SWAP1 PUSH1 0x0 MSTORE PUSH1 0x20 PUSH1 0x0 KECCAK256 SWAP1 JUMPDEST DUP2 SLOAD DUP2 MSTORE SWAP1 PUSH1 0x1 ADD SWAP1 PUSH1 0x20 ADD DUP1 DUP4 GT PUSH2 0x10C0 JUMPI DUP3 SWAP1 SUB PUSH1 0x1F AND DUP3 ADD SWAP2 JUMPDEST POP POP POP POP POP DUP2 MSTORE PUSH1 0x20 ADD SWAP1 PUSH1 0x1 ADD SWAP1 PUSH2 0x1045 JUMP JUMPDEST POP POP POP POP SWAP1 POP SWAP1 JUMP JUMPDEST PUSH1 0x0 DUP1 SLOAD SWAP1 PUSH2 0x100 EXP SWAP1 DIV PUSH20 0xFFFFFFFFFFFFFFFFFFFFFFFFFFFFFFFFFFFFFFFF AND PUSH20 0xFFFFFFFFFFFFFFFFFFFFFFFFFFFFFFFFFFFFFFFF AND CALLER PUSH20 0xFFFFFFFFFFFFFFFFFFFFFFFFFFFFFFFFFFFFFFFF AND EQ PUSH2 0x1188 JUMPI PUSH1 0x40 MLOAD PUSH32 0x8C379A000000000000000000000000000000000000000000000000000000000 DUP2 MSTORE PUSH1 0x4 ADD PUSH2 0x117F SWAP1 PUSH2 0x1935 JUMP JUMPDEST PUSH1 0x40 MLOAD DUP1 SWAP2 SUB SWAP1 REVERT JUMPDEST PUSH1 0x1 DUP1 SLOAD SWAP1 POP PUSH1 0x2 DUP1 SLOAD SWAP1 POP GT PUSH2 0x1266 JUMPI PUSH1 0x0 JUMPDEST PUSH1 0x2 DUP1 SLOAD SWAP1 POP DUP2 LT ISZERO PUSH2 0x1264 JUMPI PUSH1 0x2 DUP2 DUP2 SLOAD DUP2 LT PUSH2 0x11BD JUMPI PUSH2 0x11BC PUSH2 0x1BBE JUMP JUMPDEST JUMPDEST SWAP1 PUSH1 0x0 MSTORE PUSH1 0x20 PUSH1 0x0 KECCAK256 ADD PUSH1 0x3 PUSH1 0x0 PUSH1 0x1 DUP5 DUP2 SLOAD DUP2 LT PUSH2 0x11DF JUMPI PUSH2 0x11DE PUSH2 0x1BBE JUMP JUMPDEST JUMPDEST SWAP1 PUSH1 0x0 MSTORE PUSH1 0x20 PUSH1 0x0 KECCAK256 ADD PUSH1 0x0 SWAP1 SLOAD SWAP1 PUSH2 0x100 EXP SWAP1 DIV PUSH20 0xFFFFFFFFFFFFFFFFFFFFFFFFFFFFFFFFFFFFFFFF AND PUSH20 0xFFFFFFFFFFFFFFFFFFFFFFFFFFFFFFFFFFFFFFFF AND PUSH20 0xFFFFFFFFFFFFFFFFFFFFFFFFFFFFFFFFFFFFFFFF AND DUP2 MSTORE PUSH1 0x20 ADD SWAP1 DUP2 MSTORE PUSH1 0x20 ADD PUSH1 0x0 KECCAK256 SWAP1 DUP2 PUSH2 0x1250 SWAP2 SWAP1 PUSH2 0x1E3B JUMP JUMPDEST POP DUP1 DUP1 PUSH2 0x125C SWAP1 PUSH2 0x1C1C JUMP JUMPDEST SWAP2 POP POP PUSH2 0x119C JUMP JUMPDEST POP JUMPDEST JUMP JUMPDEST PUSH1 0x0 DUP1 SLOAD SWAP1 PUSH2 0x100 EXP SWAP1 DIV PUSH20 0xFFFFFFFFFFFFFFFFFFFFFFFFFFFFFFFFFFFFFFFF AND PUSH20 0xFFFFFFFFFFFFFFFFFFFFFFFFFFFFFFFFFFFFFFFF AND CALLER PUSH20 0xFFFFFFFFFFFFFFFFFFFFFFFFFFFFFFFFFFFFFFFF AND EQ PUSH2 0x12F6 JUMPI PUSH1 0x40 MLOAD PUSH32 0x8C379A000000000000000000000000000000000000000000000000000000000 DUP2 MSTORE PUSH1 0x4 ADD PUSH2 0x12ED SWAP1 PUSH2 0x1935 JUMP JUMPDEST PUSH1 0x40 MLOAD DUP1 SWAP2 SUB SWAP1 REVERT JUMPDEST POP JUMP JUMPDEST PUSH1 0x0 PUSH1 0x40 MLOAD SWAP1 POP SWAP1 JUMP JUMPDEST PUSH1 0x0 DUP1 REVERT JUMPDEST PUSH1 0x0 DUP1 REVERT JUMPDEST PUSH1 0x0 DUP2 ISZERO ISZERO SWAP1 POP SWAP2 SWAP1 POP JUMP JUMPDEST PUSH2 0x1322 DUP2 PUSH2 0x130D JUMP JUMPDEST DUP2 EQ PUSH2 0x132D JUMPI PUSH1 0x0 DUP1 REVERT JUMPDEST POP JUMP JUMPDEST PUSH1 0x0 DUP2 CALLDATALOAD SWAP1 POP PUSH2 0x133F DUP2 PUSH2 0x1319 JUMP JUMPDEST SWAP3 SWAP2 POP POP JUMP JUMPDEST PUSH1 0x0 PUSH1 0x20 DUP3 DUP5 SUB SLT ISZERO PUSH2 0x135B JUMPI PUSH2 0x135A PUSH2 0x1303 JUMP JUMPDEST JUMPDEST PUSH1 0x0 PUSH2 0x1369 DUP5 DUP3 DUP6 ADD PUSH2 0x1330 JUMP JUMPDEST SWAP2 POP POP SWAP3 SWAP2 POP POP JUMP JUMPDEST PUSH1 0x0 DUP2 MLOAD SWAP1 POP SWAP2 SWAP1 POP JUMP JUMPDEST PUSH1 0x0 DUP3 DUP3 MSTORE PUSH1 0x20 DUP3 ADD SWAP1 POP SWAP3 SWAP2 POP POP JUMP JUMPDEST PUSH1 0x0 DUP2 SWAP1 POP PUSH1 0x20 DUP3 ADD SWAP1 POP SWAP2 SWAP1 POP JUMP JUMPDEST PUSH1 0x0 PUSH20 0xFFFFFFFFFFFFFFFFFFFFFFFFFFFFFFFFFFFFFFFF DUP3 AND SWAP1 POP SWAP2 SWAP1 POP JUMP JUMPDEST PUSH1 0x0 PUSH2 0x13C9 DUP3 PUSH2 0x139E JUMP JUMPDEST SWAP1 POP SWAP2 SWAP1 POP JUMP JUMPDEST PUSH2 0x13D9 DUP2 PUSH2 0x13BE JUMP JUMPDEST DUP3 MSTORE POP POP JUMP JUMPDEST PUSH1 0x0 PUSH2 0x13EB DUP4 DUP4 PUSH2 0x13D0 JUMP JUMPDEST PUSH1 0x20 DUP4 ADD SWAP1 POP SWAP3 SWAP2 POP POP JUMP JUMPDEST PUSH1 0x0 PUSH1 0x20 DUP3 ADD SWAP1 POP SWAP2 SWAP1 POP JUMP JUMPDEST PUSH1 0x0 PUSH2 0x140F DUP3 PUSH2 0x1372 JUMP JUMPDEST PUSH2 0x1419 DUP2 DUP6 PUSH2 0x137D JUMP JUMPDEST SWAP4 POP PUSH2 0x1424 DUP4 PUSH2 0x138E JUMP JUMPDEST DUP1 PUSH1 0x0 JUMPDEST DUP4 DUP2 LT ISZERO PUSH2 0x1455 JUMPI DUP2 MLOAD PUSH2 0x143C DUP9 DUP3 PUSH2 0x13DF JUMP JUMPDEST SWAP8 POP PUSH2 0x1447 DUP4 PUSH2 0x13F7 JUMP JUMPDEST SWAP3 POP POP PUSH1 0x1 DUP2 ADD SWAP1 POP PUSH2 0x1428 JUMP JUMPDEST POP DUP6 SWAP4 POP POP POP POP SWAP3 SWAP2 POP POP JUMP JUMPDEST PUSH1 0x0 PUSH1 0x20 DUP3 ADD SWAP1 POP DUP2 DUP2 SUB PUSH1 0x0 DUP4 ADD MSTORE PUSH2 0x147C DUP2 DUP5 PUSH2 0x1404 JUMP JUMPDEST SWAP1 POP SWAP3 SWAP2 POP POP JUMP JUMPDEST PUSH1 0x0 DUP2 MLOAD SWAP1 POP SWAP2 SWAP1 POP JUMP JUMPDEST PUSH1 0x0 DUP3 DUP3 MSTORE PUSH1 0x20 DUP3 ADD SWAP1 POP SWAP3 SWAP2 POP POP JUMP JUMPDEST PUSH1 0x0 DUP2 SWAP1 POP PUSH1 0x20 DUP3 ADD SWAP1 POP SWAP2 SWAP1 POP JUMP JUMPDEST PUSH1 0x0 DUP2 MLOAD SWAP1 POP SWAP2 SWAP1 POP JUMP JUMPDEST PUSH1 0x0 DUP3 DUP3 MSTORE PUSH1 0x20 DUP3 ADD SWAP1 POP SWAP3 SWAP2 POP POP JUMP JUMPDEST PUSH1 0x0 JUMPDEST DUP4 DUP2 LT ISZERO PUSH2 0x14EA JUMPI DUP1 DUP3 ADD MLOAD DUP2 DUP5 ADD MSTORE PUSH1 0x20 DUP2 ADD SWAP1 POP PUSH2 0x14CF JUMP JUMPDEST PUSH1 0x0 DUP5 DUP5 ADD MSTORE POP POP POP POP JUMP JUMPDEST PUSH1 0x0 PUSH1 0x1F NOT PUSH1 0x1F DUP4 ADD AND SWAP1 POP SWAP2 SWAP1 POP JUMP JUMPDEST PUSH1 0x0 PUSH2 0x1512 DUP3 PUSH2 0x14B0 JUMP JUMPDEST PUSH2 0x151C DUP2 DUP6 PUSH2 0x14BB JUMP JUMPDEST SWAP4 POP PUSH2 0x152C DUP2 DUP6 PUSH1 0x20 DUP7 ADD PUSH2 0x14CC JUMP JUMPDEST PUSH2 0x1535 DUP2 PUSH2 0x14F6 JUMP JUMPDEST DUP5 ADD SWAP2 POP POP SWAP3 SWAP2 POP POP JUMP JUMPDEST PUSH1 0x0 PUSH2 0x154C DUP4 DUP4 PUSH2 0x1507 JUMP JUMPDEST SWAP1 POP SWAP3 SWAP2 POP POP JUMP JUMPDEST PUSH1 0x0 PUSH1 0x20 DUP3 ADD SWAP1 POP SWAP2 SWAP1 POP JUMP JUMPDEST PUSH1 0x0 PUSH2 0x156C DUP3 PUSH2 0x1484 JUMP JUMPDEST PUSH2 0x1576 DUP2 DUP6 PUSH2 0x148F JUMP JUMPDEST SWAP4 POP DUP4 PUSH1 0x20 DUP3 MUL DUP6 ADD PUSH2 0x1588 DUP6 PUSH2 0x14A0 JUMP JUMPDEST DUP1 PUSH1 0x0 JUMPDEST DUP6 DUP2 LT ISZERO PUSH2 0x15C4 JUMPI DUP5 DUP5 SUB DUP10 MSTORE DUP2 MLOAD PUSH2 0x15A5 DUP6 DUP3 PUSH2 0x1540 JUMP JUMPDEST SWAP5 POP PUSH2 0x15B0 DUP4 PUSH2 0x1554 JUMP JUMPDEST SWAP3 POP PUSH1 0x20 DUP11 ADD SWAP10 POP POP PUSH1 0x1 DUP2 ADD SWAP1 POP PUSH2 0x158C JUMP JUMPDEST POP DUP3 SWAP8 POP DUP8 SWAP6 POP POP POP POP POP POP SWAP3 SWAP2 POP POP JUMP JUMPDEST PUSH1 0x0 PUSH1 0x20 DUP3 ADD SWAP1 POP DUP2 DUP2 SUB PUSH1 0x0 DUP4 ADD MSTORE PUSH2 0x15F0 DUP2 DUP5 PUSH2 0x1561 JUMP JUMPDEST SWAP1 POP SWAP3 SWAP2 POP POP JUMP JUMPDEST PUSH2 0x1601 DUP2 PUSH2 0x13BE JUMP JUMPDEST DUP2 EQ PUSH2 0x160C JUMPI PUSH1 0x0 DUP1 REVERT JUMPDEST POP JUMP JUMPDEST PUSH1 0x0 DUP2 CALLDATALOAD SWAP1 POP PUSH2 0x161E DUP2 PUSH2 0x15F8 JUMP JUMPDEST SWAP3 SWAP2 POP POP JUMP JUMPDEST PUSH1 0x0 PUSH1 0x20 DUP3 DUP5 SUB SLT ISZERO PUSH2 0x163A JUMPI PUSH2 0x1639 PUSH2 0x1303 JUMP JUMPDEST JUMPDEST PUSH1 0x0 PUSH2 0x1648 DUP5 DUP3 DUP6 ADD PUSH2 0x160F JUMP JUMPDEST SWAP2 POP POP SWAP3 SWAP2 POP POP JUMP JUMPDEST PUSH1 0x0 DUP3 DUP3 MSTORE PUSH1 0x20 DUP3 ADD SWAP1 POP SWAP3 SWAP2 POP POP JUMP JUMPDEST PUSH1 0x0 PUSH2 0x166D DUP3 PUSH2 0x14B0 JUMP JUMPDEST PUSH2 0x1677 DUP2 DUP6 PUSH2 0x1651 JUMP JUMPDEST SWAP4 POP PUSH2 0x1687 DUP2 DUP6 PUSH1 0x20 DUP7 ADD PUSH2 0x14CC JUMP JUMPDEST PUSH2 0x1690 DUP2 PUSH2 0x14F6 JUMP JUMPDEST DUP5 ADD SWAP2 POP POP SWAP3 SWAP2 POP POP JUMP JUMPDEST PUSH1 0x0 PUSH1 0x20 DUP3 ADD SWAP1 POP DUP2 DUP2 SUB PUSH1 0x0 DUP4 ADD MSTORE PUSH2 0x16B5 DUP2 DUP5 PUSH2 0x1662 JUMP JUMPDEST SWAP1 POP SWAP3 SWAP2 POP POP JUMP JUMPDEST PUSH2 0x16C6 DUP2 PUSH2 0x130D JUMP JUMPDEST DUP3 MSTORE POP POP JUMP JUMPDEST PUSH1 0x0 PUSH1 0x20 DUP3 ADD SWAP1 POP PUSH2 0x16E1 PUSH1 0x0 DUP4 ADD DUP5 PUSH2 0x16BD JUMP JUMPDEST SWAP3 SWAP2 POP POP JUMP JUMPDEST PUSH1 0x0 DUP2 SWAP1 POP SWAP2 SWAP1 POP JUMP JUMPDEST PUSH2 0x16FA DUP2 PUSH2 0x16E7 JUMP JUMPDEST DUP2 EQ PUSH2 0x1705 JUMPI PUSH1 0x0 DUP1 REVERT JUMPDEST POP JUMP JUMPDEST PUSH1 0x0 DUP2 CALLDATALOAD SWAP1 POP PUSH2 0x1717 DUP2 PUSH2 0x16F1 JUMP JUMPDEST SWAP3 SWAP2 POP POP JUMP JUMPDEST PUSH1 0x0 PUSH1 0x20 DUP3 DUP5 SUB SLT ISZERO PUSH2 0x1733 JUMPI PUSH2 0x1732 PUSH2 0x1303 JUMP JUMPDEST JUMPDEST PUSH1 0x0 PUSH2 0x1741 DUP5 DUP3 DUP6 ADD PUSH2 0x1708 JUMP JUMPDEST SWAP2 POP POP SWAP3 SWAP2 POP POP JUMP JUMPDEST PUSH1 0x0 PUSH2 0x1755 DUP3 PUSH2 0x139E JUMP JUMPDEST SWAP1 POP SWAP2 SWAP1 POP JUMP JUMPDEST PUSH2 0x1765 DUP2 PUSH2 0x174A JUMP JUMPDEST DUP2 EQ PUSH2 0x1770 JUMPI PUSH1 0x0 DUP1 REVERT JUMPDEST POP JUMP JUMPDEST PUSH1 0x0 DUP2 CALLDATALOAD SWAP1 POP PUSH2 0x1782 DUP2 PUSH2 0x175C JUMP JUMPDEST SWAP3 SWAP2 POP POP JUMP JUMPDEST PUSH1 0x0 PUSH1 0x20 DUP3 DUP5 SUB SLT ISZERO PUSH2 0x179E JUMPI PUSH2 0x179D PUSH2 0x1303 JUMP JUMPDEST JUMPDEST PUSH1 0x0 PUSH2 0x17AC DUP5 DUP3 DUP6 ADD PUSH2 0x1773 JUMP JUMPDEST SWAP2 POP POP SWAP3 SWAP2 POP POP JUMP JUMPDEST PUSH2 0x17BE DUP2 PUSH2 0x174A JUMP JUMPDEST DUP3 MSTORE POP POP JUMP JUMPDEST PUSH1 0x0 PUSH1 0x20 DUP3 ADD SWAP1 POP PUSH2 0x17D9 PUSH1 0x0 DUP4 ADD DUP5 PUSH2 0x17B5 JUMP JUMPDEST SWAP3 SWAP2 POP POP JUMP JUMPDEST PUSH1 0x0 DUP2 MLOAD SWAP1 POP SWAP2 SWAP1 POP JUMP JUMPDEST PUSH1 0x0 DUP3 DUP3 MSTORE PUSH1 0x20 DUP3 ADD SWAP1 POP SWAP3 SWAP2 POP POP JUMP JUMPDEST PUSH1 0x0 DUP2 SWAP1 POP PUSH1 0x20 DUP3 ADD SWAP1 POP SWAP2 SWAP1 POP JUMP JUMPDEST PUSH2 0x1814 DUP2 PUSH2 0x174A JUMP JUMPDEST DUP3 MSTORE POP POP JUMP JUMPDEST PUSH1 0x0 PUSH2 0x1826 DUP4 DUP4 PUSH2 0x180B JUMP JUMPDEST PUSH1 0x20 DUP4 ADD SWAP1 POP SWAP3 SWAP2 POP POP JUMP JUMPDEST PUSH1 0x0 PUSH1 0x20 DUP3 ADD SWAP1 POP SWAP2 SWAP1 POP JUMP JUMPDEST PUSH1 0x0 PUSH2 0x184A DUP3 PUSH2 0x17DF JUMP JUMPDEST PUSH2 0x1854 DUP2 DUP6 PUSH2 0x17EA JUMP JUMPDEST SWAP4 POP PUSH2 0x185F DUP4 PUSH2 0x17FB JUMP JUMPDEST DUP1 PUSH1 0x0 JUMPDEST DUP4 DUP2 LT ISZERO PUSH2 0x1890 JUMPI DUP2 MLOAD PUSH2 0x1877 DUP9 DUP3 PUSH2 0x181A JUMP JUMPDEST SWAP8 POP PUSH2 0x1882 DUP4 PUSH2 0x1832 JUMP JUMPDEST SWAP3 POP POP PUSH1 0x1 DUP2 ADD SWAP1 POP PUSH2 0x1863 JUMP JUMPDEST POP DUP6 SWAP4 POP POP POP POP SWAP3 SWAP2 POP POP JUMP JUMPDEST PUSH1 0x0 PUSH1 0x20 DUP3 ADD SWAP1 POP DUP2 DUP2 SUB PUSH1 0x0 DUP4 ADD MSTORE PUSH2 0x18B7 DUP2 DUP5 PUSH2 0x183F JUMP JUMPDEST SWAP1 POP SWAP3 SWAP2 POP POP JUMP JUMPDEST PUSH2 0x18C8 DUP2 PUSH2 0x13BE JUMP JUMPDEST DUP3 MSTORE POP POP JUMP JUMPDEST PUSH1 0x0 PUSH1 0x20 DUP3 ADD SWAP1 POP PUSH2 0x18E3 PUSH1 0x0 DUP4 ADD DUP5 PUSH2 0x18BF JUMP JUMPDEST SWAP3 SWAP2 POP POP JUMP JUMPDEST PUSH32 0x4F6E6C79206F776E657220686173207468652070726976696C65676500000000 PUSH1 0x0 DUP3 ADD MSTORE POP JUMP JUMPDEST PUSH1 0x0 PUSH2 0x191F PUSH1 0x1C DUP4 PUSH2 0x1651 JUMP JUMPDEST SWAP2 POP PUSH2 0x192A DUP3 PUSH2 0x18E9 JUMP JUMPDEST PUSH1 0x20 DUP3 ADD SWAP1 POP SWAP2 SWAP1 POP JUMP JUMPDEST PUSH1 0x0 PUSH1 0x20 DUP3 ADD SWAP1 POP DUP2 DUP2 SUB PUSH1 0x0 DUP4 ADD MSTORE PUSH2 0x194E DUP2 PUSH2 0x1912 JUMP JUMPDEST SWAP1 POP SWAP2 SWAP1 POP JUMP JUMPDEST PUSH1 0x0 DUP1 REVERT JUMPDEST PUSH32 0x4E487B7100000000000000000000000000000000000000000000000000000000 PUSH1 0x0 MSTORE PUSH1 0x41 PUSH1 0x4 MSTORE PUSH1 0x24 PUSH1 0x0 REVERT JUMPDEST PUSH2 0x1992 DUP3 PUSH2 0x14F6 JUMP JUMPDEST DUP2 ADD DUP2 DUP2 LT PUSH8 0xFFFFFFFFFFFFFFFF DUP3 GT OR ISZERO PUSH2 0x19B1 JUMPI PUSH2 0x19B0 PUSH2 0x195A JUMP JUMPDEST JUMPDEST DUP1 PUSH1 0x40 MSTORE POP POP POP JUMP JUMPDEST PUSH1 0x0 PUSH2 0x19C4 PUSH2 0x12F9 JUMP JUMPDEST SWAP1 POP PUSH2 0x19D0 DUP3 DUP3 PUSH2 0x1989 JUMP JUMPDEST SWAP2 SWAP1 POP JUMP JUMPDEST PUSH1 0x0 PUSH8 0xFFFFFFFFFFFFFFFF DUP3 GT ISZERO PUSH2 0x19F0 JUMPI PUSH2 0x19EF PUSH2 0x195A JUMP JUMPDEST JUMPDEST PUSH1 0x20 DUP3 MUL SWAP1 POP PUSH1 0x20 DUP2 ADD SWAP1 POP SWAP2 SWAP1 POP JUMP JUMPDEST PUSH1 0x0 DUP1 REVERT JUMPDEST PUSH1 0x0 DUP2 MLOAD SWAP1 POP PUSH2 0x1A15 DUP2 PUSH2 0x15F8 JUMP JUMPDEST SWAP3 SWAP2 POP POP JUMP JUMPDEST PUSH1 0x0 PUSH2 0x1A2E PUSH2 0x1A29 DUP5 PUSH2 0x19D5 JUMP JUMPDEST PUSH2 0x19BA JUMP JUMPDEST SWAP1 POP DUP1 DUP4 DUP3 MSTORE PUSH1 0x20 DUP3 ADD SWAP1 POP PUSH1 0x20 DUP5 MUL DUP4 ADD DUP6 DUP2 GT ISZERO PUSH2 0x1A51 JUMPI PUSH2 0x1A50 PUSH2 0x1A01 JUMP JUMPDEST JUMPDEST DUP4 JUMPDEST DUP2 DUP2 LT ISZERO PUSH2 0x1A7A JUMPI DUP1 PUSH2 0x1A66 DUP9 DUP3 PUSH2 0x1A06 JUMP JUMPDEST DUP5 MSTORE PUSH1 0x20 DUP5 ADD SWAP4 POP POP PUSH1 0x20 DUP2 ADD SWAP1 POP PUSH2 0x1A53 JUMP JUMPDEST POP POP POP SWAP4 SWAP3 POP POP POP JUMP JUMPDEST PUSH1 0x0 DUP3 PUSH1 0x1F DUP4 ADD SLT PUSH2 0x1A99 JUMPI PUSH2 0x1A98 PUSH2 0x1955 JUMP JUMPDEST JUMPDEST DUP2 MLOAD PUSH2 0x1AA9 DUP5 DUP3 PUSH1 0x20 DUP7 ADD PUSH2 0x1A1B JUMP JUMPDEST SWAP2 POP POP SWAP3 SWAP2 POP POP JUMP JUMPDEST PUSH1 0x0 PUSH1 0x20 DUP3 DUP5 SUB SLT ISZERO PUSH2 0x1AC8 JUMPI PUSH2 0x1AC7 PUSH2 0x1303 JUMP JUMPDEST JUMPDEST PUSH1 0x0 DUP3 ADD MLOAD PUSH8 0xFFFFFFFFFFFFFFFF DUP2 GT ISZERO PUSH2 0x1AE6 JUMPI PUSH2 0x1AE5 PUSH2 0x1308 JUMP JUMPDEST JUMPDEST PUSH2 0x1AF2 DUP5 DUP3 DUP6 ADD PUSH2 0x1A84 JUMP JUMPDEST SWAP2 POP POP SWAP3 SWAP2 POP POP JUMP JUMPDEST PUSH32 0x4E487B7100000000000000000000000000000000000000000000000000000000 PUSH1 0x0 MSTORE PUSH1 0x22 PUSH1 0x4 MSTORE PUSH1 0x24 PUSH1 0x0 REVERT JUMPDEST PUSH1 0x0 PUSH1 0x2 DUP3 DIV SWAP1 POP PUSH1 0x1 DUP3 AND DUP1 PUSH2 0x1B42 JUMPI PUSH1 0x7F DUP3 AND SWAP2 POP JUMPDEST PUSH1 0x20 DUP3 LT DUP2 SUB PUSH2 0x1B55 JUMPI PUSH2 0x1B54 PUSH2 0x1AFB JUMP JUMPDEST JUMPDEST POP SWAP2 SWAP1 POP JUMP JUMPDEST PUSH32 0x4E487B7100000000000000000000000000000000000000000000000000000000 PUSH1 0x0 MSTORE PUSH1 0x11 PUSH1 0x4 MSTORE PUSH1 0x24 PUSH1 0x0 REVERT JUMPDEST PUSH1 0x0 PUSH2 0x1B95 DUP3 PUSH2 0x16E7 JUMP JUMPDEST SWAP2 POP PUSH2 0x1BA0 DUP4 PUSH2 0x16E7 JUMP JUMPDEST SWAP3 POP DUP3 DUP3 SUB SWAP1 POP DUP2 DUP2 GT ISZERO PUSH2 0x1BB8 JUMPI PUSH2 0x1BB7 PUSH2 0x1B5B JUMP JUMPDEST JUMPDEST SWAP3 SWAP2 POP POP JUMP JUMPDEST PUSH32 0x4E487B7100000000000000000000000000000000000000000000000000000000 PUSH1 0x0 MSTORE PUSH1 0x32 PUSH1 0x4 MSTORE PUSH1 0x24 PUSH1 0x0 REVERT JUMPDEST PUSH32 0x4E487B7100000000000000000000000000000000000000000000000000000000 PUSH1 0x0 MSTORE PUSH1 0x31 PUSH1 0x4 MSTORE PUSH1 0x24 PUSH1 0x0 REVERT JUMPDEST PUSH1 0x0 PUSH2 0x1C27 DUP3 PUSH2 0x16E7 JUMP JUMPDEST SWAP2 POP PUSH32 0xFFFFFFFFFFFFFFFFFFFFFFFFFFFFFFFFFFFFFFFFFFFFFFFFFFFFFFFFFFFFFFFF DUP3 SUB PUSH2 0x1C59 JUMPI PUSH2 0x1C58 PUSH2 0x1B5B JUMP JUMPDEST JUMPDEST PUSH1 0x1 DUP3 ADD SWAP1 POP SWAP2 SWAP1 POP JUMP JUMPDEST PUSH1 0x0 DUP2 SLOAD SWAP1 POP PUSH2 0x1C73 DUP2 PUSH2 0x1B2A JUMP JUMPDEST SWAP1 POP SWAP2 SWAP1 POP JUMP JUMPDEST PUSH1 0x0 DUP2 SWAP1 POP DUP2 PUSH1 0x0 MSTORE PUSH1 0x20 PUSH1 0x0 KECCAK256 SWAP1 POP SWAP2 SWAP1 POP JUMP JUMPDEST PUSH1 0x0 DUP2 SWAP1 POP DUP2 PUSH1 0x0 MSTORE PUSH1 0x20 PUSH1 0x0 KECCAK256 SWAP1 POP SWAP2 SWAP1 POP JUMP JUMPDEST PUSH1 0x0 PUSH1 0x20 PUSH1 0x1F DUP4 ADD DIV SWAP1 POP SWAP2 SWAP1 POP JUMP JUMPDEST PUSH1 0x0 DUP3 DUP3 SHL SWAP1 POP SWAP3 SWAP2 POP POP JUMP JUMPDEST PUSH1 0x0 PUSH1 0x8 DUP4 MUL PUSH2 0x1CF1 PUSH32 0xFFFFFFFFFFFFFFFFFFFFFFFFFFFFFFFFFFFFFFFFFFFFFFFFFFFFFFFFFFFFFFFF DUP3 PUSH2 0x1CB4 JUMP JUMPDEST PUSH2 0x1CFB DUP7 DUP4 PUSH2 0x1CB4 JUMP JUMPDEST SWAP6 POP DUP1 NOT DUP5 AND SWAP4 POP DUP1 DUP7 AND DUP5 OR SWAP3 POP POP POP SWAP4 SWAP3 POP POP POP JUMP JUMPDEST PUSH1 0x0 DUP2 SWAP1 POP SWAP2 SWAP1 POP JUMP JUMPDEST PUSH1 0x0 PUSH2 0x1D38 PUSH2 0x1D33 PUSH2 0x1D2E DUP5 PUSH2 0x16E7 JUMP JUMPDEST PUSH2 0x1D13 JUMP JUMPDEST PUSH2 0x16E7 JUMP JUMPDEST SWAP1 POP SWAP2 SWAP1 POP JUMP JUMPDEST PUSH1 0x0 DUP2 SWAP1 POP SWAP2 SWAP1 POP JUMP JUMPDEST PUSH2 0x1D52 DUP4 PUSH2 0x1D1D JUMP JUMPDEST PUSH2 0x1D66 PUSH2 0x1D5E DUP3 PUSH2 0x1D3F JUMP JUMPDEST DUP5 DUP5 SLOAD PUSH2 0x1CC1 JUMP JUMPDEST DUP3 SSTORE POP POP POP POP JUMP JUMPDEST PUSH1 0x0 SWAP1 JUMP JUMPDEST PUSH2 0x1D7B PUSH2 0x1D6E JUMP JUMPDEST PUSH2 0x1D86 DUP2 DUP5 DUP5 PUSH2 0x1D49 JUMP JUMPDEST POP POP POP JUMP JUMPDEST JUMPDEST DUP2 DUP2 LT ISZERO PUSH2 0x1DAA JUMPI PUSH2 0x1D9F PUSH1 0x0 DUP3 PUSH2 0x1D73 JUMP JUMPDEST PUSH1 0x1 DUP2 ADD SWAP1 POP PUSH2 0x1D8C JUMP JUMPDEST POP POP JUMP JUMPDEST PUSH1 0x1F DUP3 GT ISZERO PUSH2 0x1DEF JUMPI PUSH2 0x1DC0 DUP2 PUSH2 0x1C7A JUMP JUMPDEST PUSH2 0x1DC9 DUP5 PUSH2 0x1CA4 JUMP JUMPDEST DUP2 ADD PUSH1 0x20 DUP6 LT ISZERO PUSH2 0x1DD8 JUMPI DUP2 SWAP1 POP JUMPDEST PUSH2 0x1DEC PUSH2 0x1DE4 DUP6 PUSH2 0x1CA4 JUMP JUMPDEST DUP4 ADD DUP3 PUSH2 0x1D8B JUMP JUMPDEST POP POP JUMPDEST POP POP POP JUMP JUMPDEST PUSH1 0x0 DUP3 DUP3 SHR SWAP1 POP SWAP3 SWAP2 POP POP JUMP JUMPDEST PUSH1 0x0 PUSH2 0x1E12 PUSH1 0x0 NOT DUP5 PUSH1 0x8 MUL PUSH2 0x1DF4 JUMP JUMPDEST NOT DUP1 DUP4 AND SWAP2 POP POP SWAP3 SWAP2 POP POP JUMP JUMPDEST PUSH1 0x0 PUSH2 0x1E2B DUP4 DUP4 PUSH2 0x1E01 JUMP JUMPDEST SWAP2 POP DUP3 PUSH1 0x2 MUL DUP3 OR SWAP1 POP SWAP3 SWAP2 POP POP JUMP JUMPDEST DUP2 DUP2 SUB PUSH2 0x1E49 JUMPI POP POP PUSH2 0x1F21 JUMP JUMPDEST PUSH2 0x1E52 DUP3 PUSH2 0x1C64 JUMP JUMPDEST PUSH8 0xFFFFFFFFFFFFFFFF DUP2 GT ISZERO PUSH2 0x1E6B JUMPI PUSH2 0x1E6A PUSH2 0x195A JUMP JUMPDEST JUMPDEST PUSH2 0x1E75 DUP3 SLOAD PUSH2 0x1B2A JUMP JUMPDEST PUSH2 0x1E80 DUP3 DUP3 DUP6 PUSH2 0x1DAE JUMP JUMPDEST PUSH1 0x0 PUSH1 0x1F DUP4 GT PUSH1 0x1 DUP2 EQ PUSH2 0x1EAF JUMPI PUSH1 0x0 DUP5 ISZERO PUSH2 0x1E9D JUMPI DUP3 DUP8 ADD SLOAD SWAP1 POP JUMPDEST PUSH2 0x1EA7 DUP6 DUP3 PUSH2 0x1E1F JUMP JUMPDEST DUP7 SSTORE POP PUSH2 0x1F1A JUMP JUMPDEST PUSH1 0x1F NOT DUP5 AND PUSH2 0x1EBD DUP8 PUSH2 0x1C8F JUMP JUMPDEST SWAP7 POP PUSH2 0x1EC8 DUP7 PUSH2 0x1C7A JUMP JUMPDEST PUSH1 0x0 JUMPDEST DUP3 DUP2 LT ISZERO PUSH2 0x1EF0 JUMPI DUP5 DUP10 ADD SLOAD DUP3 SSTORE PUSH1 0x1 DUP3 ADD SWAP2 POP PUSH1 0x1 DUP6 ADD SWAP5 POP PUSH1 0x20 DUP2 ADD SWAP1 POP PUSH2 0x1ECB JUMP JUMPDEST DUP7 DUP4 LT ISZERO PUSH2 0x1F0D JUMPI DUP5 DUP10 ADD SLOAD PUSH2 0x1F09 PUSH1 0x1F DUP10 AND DUP3 PUSH2 0x1E01 JUMP JUMPDEST DUP4 SSTORE POP JUMPDEST PUSH1 0x1 PUSH1 0x2 DUP9 MUL ADD DUP9 SSTORE POP POP POP JUMPDEST POP POP POP POP POP POP JUMPDEST JUMP INVALID LOG2 PUSH5 0x6970667358 0x22 SLT KECCAK256 0xB5 SWAP1 CREATE2 SELFDESTRUCT 0xB0 JUMPI ADDMOD 0x4C 0xFB 0xB4 0xC8 DELEGATECALL CALLDATACOPY RETURNDATASIZE 0xE9 0xC5 0xE8 0xDD ADDMOD KECCAK256 0xEB EQ DUP5 EXP SMOD DUP14 DUP13 PUSH16 0xBCB7D62164736F6C6343000811003300 "
				},
				"gasEstimates": {
					"creation": {
						"codeDepositCost": "1605000",
						"executionCost": "infinite",
						"totalCost": "infinite"
					},
					"external": {
						"acceptInvitation()": "4902",
						"addShareHolders(address)": "51246",
						"askingFromHolders()": "2711",
						"checkRequestsForBeAHolder()": "infinite",
						"distribute()": "infinite",
						"getShareHolders()": "infinite",
						"getShares()": "infinite",
						"notifySecretOwner(bool)": "2890",
						"owner()": "2600",
						"regenerate()": "infinite",
						"rejectInvitation()": "4814",
						"rejectSecretRequest(address)": "3019",
						"releaseSecret(address)": "infinite",
						"remove(uint256)": "infinite",
						"removeShareHolders(address)": "infinite",
						"repayGasFee()": "2690",
						"shareHolders(uint256)": "4979",
						"shareHoldersMap(address)": "infinite",
						"shares(uint256)": "infinite",
						"sharesMap(address)": "infinite"
					}
				},
				"methodIdentifiers": {
					"acceptInvitation()": "728f1112",
					"addShareHolders(address)": "790a0940",
					"askingFromHolders()": "9a5eec33",
					"checkRequestsForBeAHolder()": "0d2baaa1",
					"distribute()": "e4fc6b6d",
					"getShareHolders()": "8477d9f3",
					"getShares()": "d73fe0aa",
					"notifySecretOwner(bool)": "01570fe8",
					"owner()": "8da5cb5b",
					"regenerate()": "17377f68",
					"rejectInvitation()": "32c6afd0",
					"rejectSecretRequest(address)": "ebf47977",
					"releaseSecret(address)": "c0befa53",
					"remove(uint256)": "4cc82215",
					"removeShareHolders(address)": "50e78191",
					"repayGasFee()": "1bf9cb17",
					"shareHolders(uint256)": "7427a40c",
					"shareHoldersMap(address)": "d534cc0e",
					"shares(uint256)": "57a858fc",
					"sharesMap(address)": "1e1cf160"
				}
			},
			"storageLayout": {
				"storage": [
					{
						"astId": 142,
						"contract": "contracts/ShareSecret.sol:Node",
						"label": "owner",
						"offset": 0,
						"slot": "0",
						"type": "t_address"
					},
					{
						"astId": 145,
						"contract": "contracts/ShareSecret.sol:Node",
						"label": "shareHolders",
						"offset": 0,
						"slot": "1",
						"type": "t_array(t_address_payable)dyn_storage"
					},
					{
						"astId": 148,
						"contract": "contracts/ShareSecret.sol:Node",
						"label": "shares",
						"offset": 0,
						"slot": "2",
						"type": "t_array(t_string_storage)dyn_storage"
					},
					{
						"astId": 152,
						"contract": "contracts/ShareSecret.sol:Node",
						"label": "shareHoldersMap",
						"offset": 0,
						"slot": "3",
						"type": "t_mapping(t_address,t_string_storage)"
					},
					{
						"astId": 156,
						"contract": "contracts/ShareSecret.sol:Node",
						"label": "sharesMap",
						"offset": 0,
						"slot": "4",
						"type": "t_mapping(t_address,t_string_storage)"
					},
					{
						"astId": 159,
						"contract": "contracts/ShareSecret.sol:Node",
						"label": "contract_new",
						"offset": 0,
						"slot": "5",
						"type": "t_contract(PublicContract)137"
					}
				],
				"types": {
					"t_address": {
						"encoding": "inplace",
						"label": "address",
						"numberOfBytes": "20"
					},
					"t_address_payable": {
						"encoding": "inplace",
						"label": "address payable",
						"numberOfBytes": "20"
					},
					"t_array(t_address_payable)dyn_storage": {
						"base": "t_address_payable",
						"encoding": "dynamic_array",
						"label": "address payable[]",
						"numberOfBytes": "32"
					},
					"t_array(t_string_storage)dyn_storage": {
						"base": "t_string_storage",
						"encoding": "dynamic_array",
						"label": "string[]",
						"numberOfBytes": "32"
					},
					"t_contract(PublicContract)137": {
						"encoding": "inplace",
						"label": "contract PublicContract",
						"numberOfBytes": "20"
					},
					"t_mapping(t_address,t_string_storage)": {
						"encoding": "mapping",
						"key": "t_address",
						"label": "mapping(address => string)",
						"numberOfBytes": "32",
						"value": "t_string_storage"
					},
					"t_string_storage": {
						"encoding": "bytes",
						"label": "string",
						"numberOfBytes": "32"
					}
				}
			},
			"userdoc": {
				"kind": "user",
				"methods": {},
				"version": 1
			}
		}
	}
}