{
	"contracts/ShareSecret.sol": {
		"SecretShare": {
			"abi": [
				{
					"inputs": [],
					"stateMutability": "nonpayable",
					"type": "constructor"
				},
				{
					"inputs": [
						{
							"internalType": "address payable",
							"name": "shareHolder",
							"type": "address"
						}
					],
					"name": "addShareHolders",
					"outputs": [],
					"stateMutability": "nonpayable",
					"type": "function"
				},
				{
					"inputs": [],
					"name": "askingFromHolders",
					"outputs": [],
					"stateMutability": "nonpayable",
					"type": "function"
				},
				{
					"inputs": [],
					"name": "distribute",
					"outputs": [],
					"stateMutability": "nonpayable",
					"type": "function"
				},
				{
					"inputs": [
						{
							"internalType": "address payable",
							"name": "holder",
							"type": "address"
						},
						{
							"internalType": "string",
							"name": "share",
							"type": "string"
						}
					],
					"name": "notifySendingToHolders",
					"outputs": [],
					"stateMutability": "nonpayable",
					"type": "function"
				},
				{
					"inputs": [],
					"name": "owner",
					"outputs": [
						{
							"internalType": "address",
							"name": "",
							"type": "address"
						}
					],
					"stateMutability": "view",
					"type": "function"
				},
				{
					"inputs": [
						{
							"internalType": "address",
							"name": "name",
							"type": "address"
						}
					],
					"name": "regenerate",
					"outputs": [],
					"stateMutability": "nonpayable",
					"type": "function"
				},
				{
					"inputs": [
						{
							"internalType": "uint256",
							"name": "index",
							"type": "uint256"
						}
					],
					"name": "remove",
					"outputs": [],
					"stateMutability": "nonpayable",
					"type": "function"
				},
				{
					"inputs": [
						{
							"internalType": "address payable",
							"name": "shareHolder",
							"type": "address"
						}
					],
					"name": "removeShareHolders",
					"outputs": [],
					"stateMutability": "nonpayable",
					"type": "function"
				},
				{
					"inputs": [
						{
							"internalType": "uint256",
							"name": "",
							"type": "uint256"
						}
					],
					"name": "shareHolders",
					"outputs": [
						{
							"internalType": "address payable",
							"name": "",
							"type": "address"
						}
					],
					"stateMutability": "view",
					"type": "function"
				},
				{
					"inputs": [
						{
							"internalType": "address",
							"name": "",
							"type": "address"
						}
					],
					"name": "shareHoldersMap",
					"outputs": [
						{
							"internalType": "string",
							"name": "",
							"type": "string"
						}
					],
					"stateMutability": "view",
					"type": "function"
				},
				{
					"inputs": [
						{
							"internalType": "uint256",
							"name": "",
							"type": "uint256"
						}
					],
					"name": "shares",
					"outputs": [
						{
							"internalType": "string",
							"name": "",
							"type": "string"
						}
					],
					"stateMutability": "view",
					"type": "function"
				},
				{
					"inputs": [
						{
							"internalType": "address",
							"name": "",
							"type": "address"
						}
					],
					"name": "sharesMap",
					"outputs": [
						{
							"internalType": "string",
							"name": "",
							"type": "string"
						}
					],
					"stateMutability": "view",
					"type": "function"
				}
			],
			"devdoc": {
				"kind": "dev",
				"methods": {},
				"version": 1
			},
			"evm": {
				"assembly": "    /* \"contracts/ShareSecret.sol\":57:2096  contract SecretShare {... */\n  mstore(0x40, 0x80)\n    /* \"contracts/ShareSecret.sol\":187:321  string[] public shares=[\"describe\", \"action\", \"town\", \"gift\", \"capital\", \"river\" ,\"enroll\", \"meat\", \"wisdom\" ,\"steel\" ,\"neck\", \"defy\"] */\n  mload(0x40)\n  dup1\n  0x0180\n  add\n  0x40\n  mstore\n  dup1\n  mload(0x40)\n  dup1\n  0x40\n  add\n  0x40\n  mstore\n  dup1\n  0x08\n  dup2\n  mstore\n  0x20\n  add\n  0x6465736372696265000000000000000000000000000000000000000000000000\n  dup2\n  mstore\n  pop\n  dup2\n  mstore\n  0x20\n  add\n  mload(0x40)\n  dup1\n  0x40\n  add\n  0x40\n  mstore\n  dup1\n  0x06\n  dup2\n  mstore\n  0x20\n  add\n  0x616374696f6e0000000000000000000000000000000000000000000000000000\n  dup2\n  mstore\n  pop\n  dup2\n  mstore\n  0x20\n  add\n  mload(0x40)\n  dup1\n  0x40\n  add\n  0x40\n  mstore\n  dup1\n  0x04\n  dup2\n  mstore\n  0x20\n  add\n  0x746f776e00000000000000000000000000000000000000000000000000000000\n  dup2\n  mstore\n  pop\n  dup2\n  mstore\n  0x20\n  add\n  mload(0x40)\n  dup1\n  0x40\n  add\n  0x40\n  mstore\n  dup1\n  0x04\n  dup2\n  mstore\n  0x20\n  add\n  0x6769667400000000000000000000000000000000000000000000000000000000\n  dup2\n  mstore\n  pop\n  dup2\n  mstore\n  0x20\n  add\n  mload(0x40)\n  dup1\n  0x40\n  add\n  0x40\n  mstore\n  dup1\n  0x07\n  dup2\n  mstore\n  0x20\n  add\n  0x6361706974616c00000000000000000000000000000000000000000000000000\n  dup2\n  mstore\n  pop\n  dup2\n  mstore\n  0x20\n  add\n  mload(0x40)\n  dup1\n  0x40\n  add\n  0x40\n  mstore\n  dup1\n  0x05\n  dup2\n  mstore\n  0x20\n  add\n  0x7269766572000000000000000000000000000000000000000000000000000000\n  dup2\n  mstore\n  pop\n  dup2\n  mstore\n  0x20\n  add\n  mload(0x40)\n  dup1\n  0x40\n  add\n  0x40\n  mstore\n  dup1\n  0x06\n  dup2\n  mstore\n  0x20\n  add\n  0x656e726f6c6c0000000000000000000000000000000000000000000000000000\n  dup2\n  mstore\n  pop\n  dup2\n  mstore\n  0x20\n  add\n  mload(0x40)\n  dup1\n  0x40\n  add\n  0x40\n  mstore\n  dup1\n  0x04\n  dup2\n  mstore\n  0x20\n  add\n  0x6d65617400000000000000000000000000000000000000000000000000000000\n  dup2\n  mstore\n  pop\n  dup2\n  mstore\n  0x20\n  add\n  mload(0x40)\n  dup1\n  0x40\n  add\n  0x40\n  mstore\n  dup1\n  0x06\n  dup2\n  mstore\n  0x20\n  add\n  0x776973646f6d0000000000000000000000000000000000000000000000000000\n  dup2\n  mstore\n  pop\n  dup2\n  mstore\n  0x20\n  add\n  mload(0x40)\n  dup1\n  0x40\n  add\n  0x40\n  mstore\n  dup1\n  0x05\n  dup2\n  mstore\n  0x20\n  add\n  0x737465656c000000000000000000000000000000000000000000000000000000\n  dup2\n  mstore\n  pop\n  dup2\n  mstore\n  0x20\n  add\n  mload(0x40)\n  dup1\n  0x40\n  add\n  0x40\n  mstore\n  dup1\n  0x04\n  dup2\n  mstore\n  0x20\n  add\n  0x6e65636b00000000000000000000000000000000000000000000000000000000\n  dup2\n  mstore\n  pop\n  dup2\n  mstore\n  0x20\n  add\n  mload(0x40)\n  dup1\n  0x40\n  add\n  0x40\n  mstore\n  dup1\n  0x04\n  dup2\n  mstore\n  0x20\n  add\n  0x6465667900000000000000000000000000000000000000000000000000000000\n  dup2\n  mstore\n  pop\n  dup2\n  mstore\n  pop\n  0x02\n  swap1\n  0x0c\n  tag_1\n  swap3\n  swap2\n  swap1\n  tag_2\n  jump\t// in\ntag_1:\n  pop\n    /* \"contracts/ShareSecret.sol\":497:546  constructor() {... */\n  callvalue\n  dup1\n  iszero\n  tag_3\n  jumpi\n  0x00\n  dup1\n  revert\ntag_3:\n  pop\n    /* \"contracts/ShareSecret.sol\":529:539  msg.sender */\n  caller\n    /* \"contracts/ShareSecret.sol\":521:526  owner */\n  0x00\n  dup1\n    /* \"contracts/ShareSecret.sol\":521:539  owner = msg.sender */\n  0x0100\n  exp\n  dup2\n  sload\n  dup2\n  0xffffffffffffffffffffffffffffffffffffffff\n  mul\n  not\n  and\n  swap1\n  dup4\n  0xffffffffffffffffffffffffffffffffffffffff\n  and\n  mul\n  or\n  swap1\n  sstore\n  pop\n    /* \"contracts/ShareSecret.sol\":57:2096  contract SecretShare {... */\n  jump(tag_6)\ntag_2:\n  dup3\n  dup1\n  sload\n  dup3\n  dup3\n  sstore\n  swap1\n  0x00\n  mstore\n  keccak256(0x00, 0x20)\n  swap1\n  dup2\n  add\n  swap3\n  dup3\n  iszero\n  tag_7\n  jumpi\n  swap2\n  0x20\n  mul\n  dup3\n  add\ntag_8:\n  dup3\n  dup2\n  gt\n  iszero\n  tag_9\n  jumpi\n  dup3\n  mload\n  dup3\n  swap1\n  dup2\n  tag_10\n  swap2\n  swap1\n  tag_11\n  jump\t// in\ntag_10:\n  pop\n  swap2\n  0x20\n  add\n  swap2\n  swap1\n  0x01\n  add\n  swap1\n  jump(tag_8)\ntag_9:\ntag_7:\n  pop\n  swap1\n  pop\n  tag_12\n  swap2\n  swap1\n  tag_13\n  jump\t// in\ntag_12:\n  pop\n  swap1\n  jump\t// out\ntag_13:\ntag_14:\n  dup1\n  dup3\n  gt\n  iszero\n  tag_15\n  jumpi\n  0x00\n  dup2\n  dup2\n  tag_16\n  swap2\n  swap1\n  tag_17\n  jump\t// in\ntag_16:\n  pop\n  0x01\n  add\n  jump(tag_14)\ntag_15:\n  pop\n  swap1\n  jump\t// out\ntag_17:\n  pop\n  dup1\n  sload\n  tag_18\n  swap1\n  tag_19\n  jump\t// in\ntag_18:\n  0x00\n  dup3\n  sstore\n  dup1\n  0x1f\n  lt\n  tag_21\n  jumpi\n  pop\n  jump(tag_20)\ntag_21:\n  0x1f\n  add\n  0x20\n  swap1\n  div\n  swap1\n  0x00\n  mstore\n  keccak256(0x00, 0x20)\n  swap1\n  dup2\n  add\n  swap1\n  tag_22\n  swap2\n  swap1\n  tag_23\n  jump\t// in\ntag_22:\ntag_20:\n  pop\n  jump\t// out\ntag_23:\ntag_24:\n  dup1\n  dup3\n  gt\n  iszero\n  tag_25\n  jumpi\n  0x00\n  dup2\n  0x00\n  swap1\n  sstore\n  pop\n  0x01\n  add\n  jump(tag_24)\ntag_25:\n  pop\n  swap1\n  jump\t// out\n    /* \"#utility.yul\":7:106   */\ntag_26:\n    /* \"#utility.yul\":59:65   */\n  0x00\n    /* \"#utility.yul\":93:98   */\n  dup2\n    /* \"#utility.yul\":87:99   */\n  mload\n    /* \"#utility.yul\":77:99   */\n  swap1\n  pop\n    /* \"#utility.yul\":7:106   */\n  swap2\n  swap1\n  pop\n  jump\t// out\n    /* \"#utility.yul\":112:292   */\ntag_27:\n    /* \"#utility.yul\":160:237   */\n  0x4e487b7100000000000000000000000000000000000000000000000000000000\n    /* \"#utility.yul\":157:158   */\n  0x00\n    /* \"#utility.yul\":150:238   */\n  mstore\n    /* \"#utility.yul\":257:261   */\n  0x41\n    /* \"#utility.yul\":254:255   */\n  0x04\n    /* \"#utility.yul\":247:262   */\n  mstore\n    /* \"#utility.yul\":281:285   */\n  0x24\n    /* \"#utility.yul\":278:279   */\n  0x00\n    /* \"#utility.yul\":271:286   */\n  revert\n    /* \"#utility.yul\":298:478   */\ntag_28:\n    /* \"#utility.yul\":346:423   */\n  0x4e487b7100000000000000000000000000000000000000000000000000000000\n    /* \"#utility.yul\":343:344   */\n  0x00\n    /* \"#utility.yul\":336:424   */\n  mstore\n    /* \"#utility.yul\":443:447   */\n  0x22\n    /* \"#utility.yul\":440:441   */\n  0x04\n    /* \"#utility.yul\":433:448   */\n  mstore\n    /* \"#utility.yul\":467:471   */\n  0x24\n    /* \"#utility.yul\":464:465   */\n  0x00\n    /* \"#utility.yul\":457:472   */\n  revert\n    /* \"#utility.yul\":484:804   */\ntag_19:\n    /* \"#utility.yul\":528:534   */\n  0x00\n    /* \"#utility.yul\":565:566   */\n  0x02\n    /* \"#utility.yul\":559:563   */\n  dup3\n    /* \"#utility.yul\":555:567   */\n  div\n    /* \"#utility.yul\":545:567   */\n  swap1\n  pop\n    /* \"#utility.yul\":612:613   */\n  0x01\n    /* \"#utility.yul\":606:610   */\n  dup3\n    /* \"#utility.yul\":602:614   */\n  and\n    /* \"#utility.yul\":633:651   */\n  dup1\n    /* \"#utility.yul\":623:704   */\n  tag_50\n  jumpi\n    /* \"#utility.yul\":689:693   */\n  0x7f\n    /* \"#utility.yul\":681:687   */\n  dup3\n    /* \"#utility.yul\":677:694   */\n  and\n    /* \"#utility.yul\":667:694   */\n  swap2\n  pop\n    /* \"#utility.yul\":623:704   */\ntag_50:\n    /* \"#utility.yul\":751:753   */\n  0x20\n    /* \"#utility.yul\":743:749   */\n  dup3\n    /* \"#utility.yul\":740:754   */\n  lt\n    /* \"#utility.yul\":720:738   */\n  dup2\n    /* \"#utility.yul\":717:755   */\n  sub\n    /* \"#utility.yul\":714:798   */\n  tag_51\n  jumpi\n    /* \"#utility.yul\":770:788   */\n  tag_52\n  tag_28\n  jump\t// in\ntag_52:\n    /* \"#utility.yul\":714:798   */\ntag_51:\n    /* \"#utility.yul\":535:804   */\n  pop\n    /* \"#utility.yul\":484:804   */\n  swap2\n  swap1\n  pop\n  jump\t// out\n    /* \"#utility.yul\":810:951   */\ntag_29:\n    /* \"#utility.yul\":859:863   */\n  0x00\n    /* \"#utility.yul\":882:885   */\n  dup2\n    /* \"#utility.yul\":874:885   */\n  swap1\n  pop\n    /* \"#utility.yul\":905:908   */\n  dup2\n    /* \"#utility.yul\":902:903   */\n  0x00\n    /* \"#utility.yul\":895:909   */\n  mstore\n    /* \"#utility.yul\":939:943   */\n  0x20\n    /* \"#utility.yul\":936:937   */\n  0x00\n    /* \"#utility.yul\":926:944   */\n  keccak256\n    /* \"#utility.yul\":918:944   */\n  swap1\n  pop\n    /* \"#utility.yul\":810:951   */\n  swap2\n  swap1\n  pop\n  jump\t// out\n    /* \"#utility.yul\":957:1050   */\ntag_30:\n    /* \"#utility.yul\":994:1000   */\n  0x00\n    /* \"#utility.yul\":1041:1043   */\n  0x20\n    /* \"#utility.yul\":1036:1038   */\n  0x1f\n    /* \"#utility.yul\":1029:1034   */\n  dup4\n    /* \"#utility.yul\":1025:1039   */\n  add\n    /* \"#utility.yul\":1021:1044   */\n  div\n    /* \"#utility.yul\":1011:1044   */\n  swap1\n  pop\n    /* \"#utility.yul\":957:1050   */\n  swap2\n  swap1\n  pop\n  jump\t// out\n    /* \"#utility.yul\":1056:1163   */\ntag_31:\n    /* \"#utility.yul\":1100:1108   */\n  0x00\n    /* \"#utility.yul\":1150:1155   */\n  dup3\n    /* \"#utility.yul\":1144:1148   */\n  dup3\n    /* \"#utility.yul\":1140:1156   */\n  shl\n    /* \"#utility.yul\":1119:1156   */\n  swap1\n  pop\n    /* \"#utility.yul\":1056:1163   */\n  swap3\n  swap2\n  pop\n  pop\n  jump\t// out\n    /* \"#utility.yul\":1169:1562   */\ntag_32:\n    /* \"#utility.yul\":1238:1244   */\n  0x00\n    /* \"#utility.yul\":1288:1289   */\n  0x08\n    /* \"#utility.yul\":1276:1286   */\n  dup4\n    /* \"#utility.yul\":1272:1290   */\n  mul\n    /* \"#utility.yul\":1311:1408   */\n  tag_57\n    /* \"#utility.yul\":1341:1407   */\n  0xffffffffffffffffffffffffffffffffffffffffffffffffffffffffffffffff\n    /* \"#utility.yul\":1330:1339   */\n  dup3\n    /* \"#utility.yul\":1311:1408   */\n  tag_31\n  jump\t// in\ntag_57:\n    /* \"#utility.yul\":1429:1468   */\n  tag_58\n    /* \"#utility.yul\":1459:1467   */\n  dup7\n    /* \"#utility.yul\":1448:1457   */\n  dup4\n    /* \"#utility.yul\":1429:1468   */\n  tag_31\n  jump\t// in\ntag_58:\n    /* \"#utility.yul\":1417:1468   */\n  swap6\n  pop\n    /* \"#utility.yul\":1501:1505   */\n  dup1\n    /* \"#utility.yul\":1497:1506   */\n  not\n    /* \"#utility.yul\":1490:1495   */\n  dup5\n    /* \"#utility.yul\":1486:1507   */\n  and\n    /* \"#utility.yul\":1477:1507   */\n  swap4\n  pop\n    /* \"#utility.yul\":1550:1554   */\n  dup1\n    /* \"#utility.yul\":1540:1548   */\n  dup7\n    /* \"#utility.yul\":1536:1555   */\n  and\n    /* \"#utility.yul\":1529:1534   */\n  dup5\n    /* \"#utility.yul\":1526:1556   */\n  or\n    /* \"#utility.yul\":1516:1556   */\n  swap3\n  pop\n    /* \"#utility.yul\":1245:1562   */\n  pop\n  pop\n    /* \"#utility.yul\":1169:1562   */\n  swap4\n  swap3\n  pop\n  pop\n  pop\n  jump\t// out\n    /* \"#utility.yul\":1568:1645   */\ntag_33:\n    /* \"#utility.yul\":1605:1612   */\n  0x00\n    /* \"#utility.yul\":1634:1639   */\n  dup2\n    /* \"#utility.yul\":1623:1639   */\n  swap1\n  pop\n    /* \"#utility.yul\":1568:1645   */\n  swap2\n  swap1\n  pop\n  jump\t// out\n    /* \"#utility.yul\":1651:1711   */\ntag_34:\n    /* \"#utility.yul\":1679:1682   */\n  0x00\n    /* \"#utility.yul\":1700:1705   */\n  dup2\n    /* \"#utility.yul\":1693:1705   */\n  swap1\n  pop\n    /* \"#utility.yul\":1651:1711   */\n  swap2\n  swap1\n  pop\n  jump\t// out\n    /* \"#utility.yul\":1717:1859   */\ntag_35:\n    /* \"#utility.yul\":1767:1776   */\n  0x00\n    /* \"#utility.yul\":1800:1853   */\n  tag_62\n    /* \"#utility.yul\":1818:1852   */\n  tag_63\n    /* \"#utility.yul\":1827:1851   */\n  tag_64\n    /* \"#utility.yul\":1845:1850   */\n  dup5\n    /* \"#utility.yul\":1827:1851   */\n  tag_33\n  jump\t// in\ntag_64:\n    /* \"#utility.yul\":1818:1852   */\n  tag_34\n  jump\t// in\ntag_63:\n    /* \"#utility.yul\":1800:1853   */\n  tag_33\n  jump\t// in\ntag_62:\n    /* \"#utility.yul\":1787:1853   */\n  swap1\n  pop\n    /* \"#utility.yul\":1717:1859   */\n  swap2\n  swap1\n  pop\n  jump\t// out\n    /* \"#utility.yul\":1865:1940   */\ntag_36:\n    /* \"#utility.yul\":1908:1911   */\n  0x00\n    /* \"#utility.yul\":1929:1934   */\n  dup2\n    /* \"#utility.yul\":1922:1934   */\n  swap1\n  pop\n    /* \"#utility.yul\":1865:1940   */\n  swap2\n  swap1\n  pop\n  jump\t// out\n    /* \"#utility.yul\":1946:2215   */\ntag_37:\n    /* \"#utility.yul\":2056:2095   */\n  tag_67\n    /* \"#utility.yul\":2087:2094   */\n  dup4\n    /* \"#utility.yul\":2056:2095   */\n  tag_35\n  jump\t// in\ntag_67:\n    /* \"#utility.yul\":2117:2208   */\n  tag_68\n    /* \"#utility.yul\":2166:2207   */\n  tag_69\n    /* \"#utility.yul\":2190:2206   */\n  dup3\n    /* \"#utility.yul\":2166:2207   */\n  tag_36\n  jump\t// in\ntag_69:\n    /* \"#utility.yul\":2158:2164   */\n  dup5\n    /* \"#utility.yul\":2151:2155   */\n  dup5\n    /* \"#utility.yul\":2145:2156   */\n  sload\n    /* \"#utility.yul\":2117:2208   */\n  tag_32\n  jump\t// in\ntag_68:\n    /* \"#utility.yul\":2111:2115   */\n  dup3\n    /* \"#utility.yul\":2104:2209   */\n  sstore\n    /* \"#utility.yul\":2022:2215   */\n  pop\n    /* \"#utility.yul\":1946:2215   */\n  pop\n  pop\n  pop\n  jump\t// out\n    /* \"#utility.yul\":2221:2294   */\ntag_38:\n    /* \"#utility.yul\":2266:2269   */\n  0x00\n    /* \"#utility.yul\":2221:2294   */\n  swap1\n  jump\t// out\n    /* \"#utility.yul\":2300:2489   */\ntag_39:\n    /* \"#utility.yul\":2377:2409   */\n  tag_72\n  tag_38\n  jump\t// in\ntag_72:\n    /* \"#utility.yul\":2418:2483   */\n  tag_73\n    /* \"#utility.yul\":2476:2482   */\n  dup2\n    /* \"#utility.yul\":2468:2474   */\n  dup5\n    /* \"#utility.yul\":2462:2466   */\n  dup5\n    /* \"#utility.yul\":2418:2483   */\n  tag_37\n  jump\t// in\ntag_73:\n    /* \"#utility.yul\":2353:2489   */\n  pop\n    /* \"#utility.yul\":2300:2489   */\n  pop\n  pop\n  jump\t// out\n    /* \"#utility.yul\":2495:2681   */\ntag_40:\n    /* \"#utility.yul\":2555:2675   */\ntag_75:\n    /* \"#utility.yul\":2572:2575   */\n  dup2\n    /* \"#utility.yul\":2565:2570   */\n  dup2\n    /* \"#utility.yul\":2562:2576   */\n  lt\n    /* \"#utility.yul\":2555:2675   */\n  iszero\n  tag_77\n  jumpi\n    /* \"#utility.yul\":2626:2665   */\n  tag_78\n    /* \"#utility.yul\":2663:2664   */\n  0x00\n    /* \"#utility.yul\":2656:2661   */\n  dup3\n    /* \"#utility.yul\":2626:2665   */\n  tag_39\n  jump\t// in\ntag_78:\n    /* \"#utility.yul\":2599:2600   */\n  0x01\n    /* \"#utility.yul\":2592:2597   */\n  dup2\n    /* \"#utility.yul\":2588:2601   */\n  add\n    /* \"#utility.yul\":2579:2601   */\n  swap1\n  pop\n    /* \"#utility.yul\":2555:2675   */\n  jump(tag_75)\ntag_77:\n    /* \"#utility.yul\":2495:2681   */\n  pop\n  pop\n  jump\t// out\n    /* \"#utility.yul\":2687:3230   */\ntag_41:\n    /* \"#utility.yul\":2788:2790   */\n  0x1f\n    /* \"#utility.yul\":2783:2786   */\n  dup3\n    /* \"#utility.yul\":2780:2791   */\n  gt\n    /* \"#utility.yul\":2777:3223   */\n  iszero\n  tag_80\n  jumpi\n    /* \"#utility.yul\":2822:2860   */\n  tag_81\n    /* \"#utility.yul\":2854:2859   */\n  dup2\n    /* \"#utility.yul\":2822:2860   */\n  tag_29\n  jump\t// in\ntag_81:\n    /* \"#utility.yul\":2906:2935   */\n  tag_82\n    /* \"#utility.yul\":2924:2934   */\n  dup5\n    /* \"#utility.yul\":2906:2935   */\n  tag_30\n  jump\t// in\ntag_82:\n    /* \"#utility.yul\":2896:2904   */\n  dup2\n    /* \"#utility.yul\":2892:2936   */\n  add\n    /* \"#utility.yul\":3089:3091   */\n  0x20\n    /* \"#utility.yul\":3077:3087   */\n  dup6\n    /* \"#utility.yul\":3074:3092   */\n  lt\n    /* \"#utility.yul\":3071:3120   */\n  iszero\n  tag_83\n  jumpi\n    /* \"#utility.yul\":3110:3118   */\n  dup2\n    /* \"#utility.yul\":3095:3118   */\n  swap1\n  pop\n    /* \"#utility.yul\":3071:3120   */\ntag_83:\n    /* \"#utility.yul\":3133:3213   */\n  tag_84\n    /* \"#utility.yul\":3189:3211   */\n  tag_85\n    /* \"#utility.yul\":3207:3210   */\n  dup6\n    /* \"#utility.yul\":3189:3211   */\n  tag_30\n  jump\t// in\ntag_85:\n    /* \"#utility.yul\":3179:3187   */\n  dup4\n    /* \"#utility.yul\":3175:3212   */\n  add\n    /* \"#utility.yul\":3162:3173   */\n  dup3\n    /* \"#utility.yul\":3133:3213   */\n  tag_40\n  jump\t// in\ntag_84:\n    /* \"#utility.yul\":2792:3223   */\n  pop\n  pop\n    /* \"#utility.yul\":2777:3223   */\ntag_80:\n    /* \"#utility.yul\":2687:3230   */\n  pop\n  pop\n  pop\n  jump\t// out\n    /* \"#utility.yul\":3236:3353   */\ntag_42:\n    /* \"#utility.yul\":3290:3298   */\n  0x00\n    /* \"#utility.yul\":3340:3345   */\n  dup3\n    /* \"#utility.yul\":3334:3338   */\n  dup3\n    /* \"#utility.yul\":3330:3346   */\n  shr\n    /* \"#utility.yul\":3309:3346   */\n  swap1\n  pop\n    /* \"#utility.yul\":3236:3353   */\n  swap3\n  swap2\n  pop\n  pop\n  jump\t// out\n    /* \"#utility.yul\":3359:3528   */\ntag_43:\n    /* \"#utility.yul\":3403:3409   */\n  0x00\n    /* \"#utility.yul\":3436:3487   */\n  tag_88\n    /* \"#utility.yul\":3484:3485   */\n  0x00\n    /* \"#utility.yul\":3480:3486   */\n  not\n    /* \"#utility.yul\":3472:3477   */\n  dup5\n    /* \"#utility.yul\":3469:3470   */\n  0x08\n    /* \"#utility.yul\":3465:3478   */\n  mul\n    /* \"#utility.yul\":3436:3487   */\n  tag_42\n  jump\t// in\ntag_88:\n    /* \"#utility.yul\":3432:3488   */\n  not\n    /* \"#utility.yul\":3517:3521   */\n  dup1\n    /* \"#utility.yul\":3511:3515   */\n  dup4\n    /* \"#utility.yul\":3507:3522   */\n  and\n    /* \"#utility.yul\":3497:3522   */\n  swap2\n  pop\n    /* \"#utility.yul\":3410:3528   */\n  pop\n    /* \"#utility.yul\":3359:3528   */\n  swap3\n  swap2\n  pop\n  pop\n  jump\t// out\n    /* \"#utility.yul\":3533:3828   */\ntag_44:\n    /* \"#utility.yul\":3609:3613   */\n  0x00\n    /* \"#utility.yul\":3755:3784   */\n  tag_90\n    /* \"#utility.yul\":3780:3783   */\n  dup4\n    /* \"#utility.yul\":3774:3778   */\n  dup4\n    /* \"#utility.yul\":3755:3784   */\n  tag_43\n  jump\t// in\ntag_90:\n    /* \"#utility.yul\":3747:3784   */\n  swap2\n  pop\n    /* \"#utility.yul\":3817:3820   */\n  dup3\n    /* \"#utility.yul\":3814:3815   */\n  0x02\n    /* \"#utility.yul\":3810:3821   */\n  mul\n    /* \"#utility.yul\":3804:3808   */\n  dup3\n    /* \"#utility.yul\":3801:3822   */\n  or\n    /* \"#utility.yul\":3793:3822   */\n  swap1\n  pop\n    /* \"#utility.yul\":3533:3828   */\n  swap3\n  swap2\n  pop\n  pop\n  jump\t// out\n    /* \"#utility.yul\":3833:5228   */\ntag_11:\n    /* \"#utility.yul\":3950:3987   */\n  tag_92\n    /* \"#utility.yul\":3983:3986   */\n  dup3\n    /* \"#utility.yul\":3950:3987   */\n  tag_26\n  jump\t// in\ntag_92:\n    /* \"#utility.yul\":4052:4070   */\n  0xffffffffffffffff\n    /* \"#utility.yul\":4044:4050   */\n  dup2\n    /* \"#utility.yul\":4041:4071   */\n  gt\n    /* \"#utility.yul\":4038:4094   */\n  iszero\n  tag_93\n  jumpi\n    /* \"#utility.yul\":4074:4092   */\n  tag_94\n  tag_27\n  jump\t// in\ntag_94:\n    /* \"#utility.yul\":4038:4094   */\ntag_93:\n    /* \"#utility.yul\":4118:4156   */\n  tag_95\n    /* \"#utility.yul\":4150:4154   */\n  dup3\n    /* \"#utility.yul\":4144:4155   */\n  sload\n    /* \"#utility.yul\":4118:4156   */\n  tag_19\n  jump\t// in\ntag_95:\n    /* \"#utility.yul\":4203:4270   */\n  tag_96\n    /* \"#utility.yul\":4263:4269   */\n  dup3\n    /* \"#utility.yul\":4255:4261   */\n  dup3\n    /* \"#utility.yul\":4249:4253   */\n  dup6\n    /* \"#utility.yul\":4203:4270   */\n  tag_41\n  jump\t// in\ntag_96:\n    /* \"#utility.yul\":4297:4298   */\n  0x00\n    /* \"#utility.yul\":4321:4325   */\n  0x20\n    /* \"#utility.yul\":4308:4325   */\n  swap1\n  pop\n    /* \"#utility.yul\":4353:4355   */\n  0x1f\n    /* \"#utility.yul\":4345:4351   */\n  dup4\n    /* \"#utility.yul\":4342:4356   */\n  gt\n    /* \"#utility.yul\":4370:4371   */\n  0x01\n    /* \"#utility.yul\":4365:4983   */\n  dup2\n  eq\n  tag_98\n  jumpi\n    /* \"#utility.yul\":5027:5028   */\n  0x00\n    /* \"#utility.yul\":5044:5050   */\n  dup5\n    /* \"#utility.yul\":5041:5118   */\n  iszero\n  tag_99\n  jumpi\n    /* \"#utility.yul\":5093:5102   */\n  dup3\n    /* \"#utility.yul\":5088:5091   */\n  dup8\n    /* \"#utility.yul\":5084:5103   */\n  add\n    /* \"#utility.yul\":5078:5104   */\n  mload\n    /* \"#utility.yul\":5069:5104   */\n  swap1\n  pop\n    /* \"#utility.yul\":5041:5118   */\ntag_99:\n    /* \"#utility.yul\":5144:5211   */\n  tag_100\n    /* \"#utility.yul\":5204:5210   */\n  dup6\n    /* \"#utility.yul\":5197:5202   */\n  dup3\n    /* \"#utility.yul\":5144:5211   */\n  tag_44\n  jump\t// in\ntag_100:\n    /* \"#utility.yul\":5138:5142   */\n  dup7\n    /* \"#utility.yul\":5131:5212   */\n  sstore\n    /* \"#utility.yul\":5000:5222   */\n  pop\n    /* \"#utility.yul\":4335:5222   */\n  jump(tag_97)\n    /* \"#utility.yul\":4365:4983   */\ntag_98:\n    /* \"#utility.yul\":4417:4421   */\n  0x1f\n    /* \"#utility.yul\":4413:4422   */\n  not\n    /* \"#utility.yul\":4405:4411   */\n  dup5\n    /* \"#utility.yul\":4401:4423   */\n  and\n    /* \"#utility.yul\":4451:4488   */\n  tag_101\n    /* \"#utility.yul\":4483:4487   */\n  dup7\n    /* \"#utility.yul\":4451:4488   */\n  tag_29\n  jump\t// in\ntag_101:\n    /* \"#utility.yul\":4510:4511   */\n  0x00\n    /* \"#utility.yul\":4524:4732   */\ntag_102:\n    /* \"#utility.yul\":4538:4545   */\n  dup3\n    /* \"#utility.yul\":4535:4536   */\n  dup2\n    /* \"#utility.yul\":4532:4546   */\n  lt\n    /* \"#utility.yul\":4524:4732   */\n  iszero\n  tag_104\n  jumpi\n    /* \"#utility.yul\":4617:4626   */\n  dup5\n    /* \"#utility.yul\":4612:4615   */\n  dup10\n    /* \"#utility.yul\":4608:4627   */\n  add\n    /* \"#utility.yul\":4602:4628   */\n  mload\n    /* \"#utility.yul\":4594:4600   */\n  dup3\n    /* \"#utility.yul\":4587:4629   */\n  sstore\n    /* \"#utility.yul\":4668:4669   */\n  0x01\n    /* \"#utility.yul\":4660:4666   */\n  dup3\n    /* \"#utility.yul\":4656:4670   */\n  add\n    /* \"#utility.yul\":4646:4670   */\n  swap2\n  pop\n    /* \"#utility.yul\":4715:4717   */\n  0x20\n    /* \"#utility.yul\":4704:4713   */\n  dup6\n    /* \"#utility.yul\":4700:4718   */\n  add\n    /* \"#utility.yul\":4687:4718   */\n  swap5\n  pop\n    /* \"#utility.yul\":4561:4565   */\n  0x20\n    /* \"#utility.yul\":4558:4559   */\n  dup2\n    /* \"#utility.yul\":4554:4566   */\n  add\n    /* \"#utility.yul\":4549:4566   */\n  swap1\n  pop\n    /* \"#utility.yul\":4524:4732   */\n  jump(tag_102)\ntag_104:\n    /* \"#utility.yul\":4760:4766   */\n  dup7\n    /* \"#utility.yul\":4751:4758   */\n  dup4\n    /* \"#utility.yul\":4748:4767   */\n  lt\n    /* \"#utility.yul\":4745:4924   */\n  iszero\n  tag_105\n  jumpi\n    /* \"#utility.yul\":4818:4827   */\n  dup5\n    /* \"#utility.yul\":4813:4816   */\n  dup10\n    /* \"#utility.yul\":4809:4828   */\n  add\n    /* \"#utility.yul\":4803:4829   */\n  mload\n    /* \"#utility.yul\":4861:4909   */\n  tag_106\n    /* \"#utility.yul\":4903:4907   */\n  0x1f\n    /* \"#utility.yul\":4895:4901   */\n  dup10\n    /* \"#utility.yul\":4891:4908   */\n  and\n    /* \"#utility.yul\":4880:4889   */\n  dup3\n    /* \"#utility.yul\":4861:4909   */\n  tag_43\n  jump\t// in\ntag_106:\n    /* \"#utility.yul\":4853:4859   */\n  dup4\n    /* \"#utility.yul\":4846:4910   */\n  sstore\n    /* \"#utility.yul\":4768:4924   */\n  pop\n    /* \"#utility.yul\":4745:4924   */\ntag_105:\n    /* \"#utility.yul\":4970:4971   */\n  0x01\n    /* \"#utility.yul\":4966:4967   */\n  0x02\n    /* \"#utility.yul\":4958:4964   */\n  dup9\n    /* \"#utility.yul\":4954:4968   */\n  mul\n    /* \"#utility.yul\":4950:4972   */\n  add\n    /* \"#utility.yul\":4944:4948   */\n  dup9\n    /* \"#utility.yul\":4937:4973   */\n  sstore\n    /* \"#utility.yul\":4372:4983   */\n  pop\n  pop\n  pop\n    /* \"#utility.yul\":4335:5222   */\ntag_97:\n  pop\n    /* \"#utility.yul\":3925:5228   */\n  pop\n  pop\n  pop\n    /* \"#utility.yul\":3833:5228   */\n  pop\n  pop\n  jump\t// out\n    /* \"contracts/ShareSecret.sol\":57:2096  contract SecretShare {... */\ntag_6:\n  dataSize(sub_0)\n  dup1\n  dataOffset(sub_0)\n  0x00\n  codecopy\n  0x00\n  return\nstop\n\nsub_0: assembly {\n        /* \"contracts/ShareSecret.sol\":57:2096  contract SecretShare {... */\n      mstore(0x40, 0x80)\n      callvalue\n      dup1\n      iszero\n      tag_1\n      jumpi\n      0x00\n      dup1\n      revert\n    tag_1:\n      pop\n      jumpi(tag_2, lt(calldatasize, 0x04))\n      shr(0xe0, calldataload(0x00))\n      dup1\n      0x7427a40c\n      gt\n      tag_15\n      jumpi\n      dup1\n      0x7427a40c\n      eq\n      tag_9\n      jumpi\n      dup1\n      0x790a0940\n      eq\n      tag_10\n      jumpi\n      dup1\n      0x8da5cb5b\n      eq\n      tag_11\n      jumpi\n      dup1\n      0x9a5eec33\n      eq\n      tag_12\n      jumpi\n      dup1\n      0xd534cc0e\n      eq\n      tag_13\n      jumpi\n      dup1\n      0xe4fc6b6d\n      eq\n      tag_14\n      jumpi\n      jump(tag_2)\n    tag_15:\n      dup1\n      0x0623f1d7\n      eq\n      tag_3\n      jumpi\n      dup1\n      0x1e1cf160\n      eq\n      tag_4\n      jumpi\n      dup1\n      0x3f8b4866\n      eq\n      tag_5\n      jumpi\n      dup1\n      0x4cc82215\n      eq\n      tag_6\n      jumpi\n      dup1\n      0x50e78191\n      eq\n      tag_7\n      jumpi\n      dup1\n      0x57a858fc\n      eq\n      tag_8\n      jumpi\n    tag_2:\n      0x00\n      dup1\n      revert\n        /* \"contracts/ShareSecret.sol\":1879:1928  function regenerate(address name) public {... */\n    tag_3:\n      tag_16\n      0x04\n      dup1\n      calldatasize\n      sub\n      dup2\n      add\n      swap1\n      tag_17\n      swap2\n      swap1\n      tag_18\n      jump\t// in\n    tag_17:\n      tag_19\n      jump\t// in\n    tag_16:\n      stop\n        /* \"contracts/ShareSecret.sol\":411:454  mapping(address => string) public sharesMap */\n    tag_4:\n      tag_20\n      0x04\n      dup1\n      calldatasize\n      sub\n      dup2\n      add\n      swap1\n      tag_21\n      swap2\n      swap1\n      tag_18\n      jump\t// in\n    tag_21:\n      tag_22\n      jump\t// in\n    tag_20:\n      mload(0x40)\n      tag_23\n      swap2\n      swap1\n      tag_24\n      jump\t// in\n    tag_23:\n      mload(0x40)\n      dup1\n      swap2\n      sub\n      swap1\n      return\n        /* \"contracts/ShareSecret.sol\":1934:2034  function notifySendingToHolders(address payable holder, string memory share)public onlyOwner{... */\n    tag_5:\n      tag_25\n      0x04\n      dup1\n      calldatasize\n      sub\n      dup2\n      add\n      swap1\n      tag_26\n      swap2\n      swap1\n      tag_27\n      jump\t// in\n    tag_26:\n      tag_28\n      jump\t// in\n    tag_25:\n      stop\n        /* \"contracts/ShareSecret.sol\":1379:1613  function remove(uint  index ) public {... */\n    tag_6:\n      tag_29\n      0x04\n      dup1\n      calldatasize\n      sub\n      dup2\n      add\n      swap1\n      tag_30\n      swap2\n      swap1\n      tag_31\n      jump\t// in\n    tag_30:\n      tag_32\n      jump\t// in\n    tag_29:\n      stop\n        /* \"contracts/ShareSecret.sol\":1618:1873  function removeShareHolders(address payable shareHolder) public onlyOwner {... */\n    tag_7:\n      tag_33\n      0x04\n      dup1\n      calldatasize\n      sub\n      dup2\n      add\n      swap1\n      tag_34\n      swap2\n      swap1\n      tag_35\n      jump\t// in\n    tag_34:\n      tag_36\n      jump\t// in\n    tag_33:\n      stop\n        /* \"contracts/ShareSecret.sol\":187:321  string[] public shares=[\"describe\", \"action\", \"town\", \"gift\", \"capital\", \"river\" ,\"enroll\", \"meat\", \"wisdom\" ,\"steel\" ,\"neck\", \"defy\"] */\n    tag_8:\n      tag_37\n      0x04\n      dup1\n      calldatasize\n      sub\n      dup2\n      add\n      swap1\n      tag_38\n      swap2\n      swap1\n      tag_31\n      jump\t// in\n    tag_38:\n      tag_39\n      jump\t// in\n    tag_37:\n      mload(0x40)\n      tag_40\n      swap2\n      swap1\n      tag_24\n      jump\t// in\n    tag_40:\n      mload(0x40)\n      dup1\n      swap2\n      sub\n      swap1\n      return\n        /* \"contracts/ShareSecret.sol\":110:147  address payable[] public shareHolders */\n    tag_9:\n      tag_41\n      0x04\n      dup1\n      calldatasize\n      sub\n      dup2\n      add\n      swap1\n      tag_42\n      swap2\n      swap1\n      tag_31\n      jump\t// in\n    tag_42:\n      tag_43\n      jump\t// in\n    tag_41:\n      mload(0x40)\n      tag_44\n      swap2\n      swap1\n      tag_45\n      jump\t// in\n    tag_44:\n      mload(0x40)\n      dup1\n      swap2\n      sub\n      swap1\n      return\n        /* \"contracts/ShareSecret.sol\":1256:1374  function addShareHolders(address payable shareHolder) public onlyOwner {... */\n    tag_10:\n      tag_46\n      0x04\n      dup1\n      calldatasize\n      sub\n      dup2\n      add\n      swap1\n      tag_47\n      swap2\n      swap1\n      tag_35\n      jump\t// in\n    tag_47:\n      tag_48\n      jump\t// in\n    tag_46:\n      stop\n        /* \"contracts/ShareSecret.sol\":84:104  address public owner */\n    tag_11:\n      tag_49\n      tag_50\n      jump\t// in\n    tag_49:\n      mload(0x40)\n      tag_51\n      swap2\n      swap1\n      tag_52\n      jump\t// in\n    tag_51:\n      mload(0x40)\n      dup1\n      swap2\n      sub\n      swap1\n      return\n        /* \"contracts/ShareSecret.sol\":2040:2094  function askingFromHolders() public onlyOwner {... */\n    tag_12:\n      tag_53\n      tag_54\n      jump\t// in\n    tag_53:\n      stop\n        /* \"contracts/ShareSecret.sol\":327:376  mapping(address => string) public shareHoldersMap */\n    tag_13:\n      tag_55\n      0x04\n      dup1\n      calldatasize\n      sub\n      dup2\n      add\n      swap1\n      tag_56\n      swap2\n      swap1\n      tag_18\n      jump\t// in\n    tag_56:\n      tag_57\n      jump\t// in\n    tag_55:\n      mload(0x40)\n      tag_58\n      swap2\n      swap1\n      tag_24\n      jump\t// in\n    tag_58:\n      mload(0x40)\n      dup1\n      swap2\n      sub\n      swap1\n      return\n        /* \"contracts/ShareSecret.sol\":940:1250  function distribute() public onlyOwner {... */\n    tag_14:\n      tag_59\n      tag_60\n      jump\t// in\n    tag_59:\n      stop\n        /* \"contracts/ShareSecret.sol\":1879:1928  function regenerate(address name) public {... */\n    tag_19:\n      pop\n      jump\t// out\n        /* \"contracts/ShareSecret.sol\":411:454  mapping(address => string) public sharesMap */\n    tag_22:\n      mstore(0x20, 0x04)\n      dup1\n      0x00\n      mstore\n      keccak256(0x00, 0x40)\n      0x00\n      swap2\n      pop\n      swap1\n      pop\n      dup1\n      sload\n      tag_62\n      swap1\n      tag_63\n      jump\t// in\n    tag_62:\n      dup1\n      0x1f\n      add\n      0x20\n      dup1\n      swap2\n      div\n      mul\n      0x20\n      add\n      mload(0x40)\n      swap1\n      dup2\n      add\n      0x40\n      mstore\n      dup1\n      swap3\n      swap2\n      swap1\n      dup2\n      dup2\n      mstore\n      0x20\n      add\n      dup3\n      dup1\n      sload\n      tag_64\n      swap1\n      tag_63\n      jump\t// in\n    tag_64:\n      dup1\n      iszero\n      tag_65\n      jumpi\n      dup1\n      0x1f\n      lt\n      tag_66\n      jumpi\n      0x0100\n      dup1\n      dup4\n      sload\n      div\n      mul\n      dup4\n      mstore\n      swap2\n      0x20\n      add\n      swap2\n      jump(tag_65)\n    tag_66:\n      dup3\n      add\n      swap2\n      swap1\n      0x00\n      mstore\n      keccak256(0x00, 0x20)\n      swap1\n    tag_67:\n      dup2\n      sload\n      dup2\n      mstore\n      swap1\n      0x01\n      add\n      swap1\n      0x20\n      add\n      dup1\n      dup4\n      gt\n      tag_67\n      jumpi\n      dup3\n      swap1\n      sub\n      0x1f\n      and\n      dup3\n      add\n      swap2\n    tag_65:\n      pop\n      pop\n      pop\n      pop\n      pop\n      dup2\n      jump\t// out\n        /* \"contracts/ShareSecret.sol\":1934:2034  function notifySendingToHolders(address payable holder, string memory share)public onlyOwner{... */\n    tag_28:\n        /* \"contracts/ShareSecret.sol\":876:881  owner */\n      0x00\n      dup1\n      sload\n      swap1\n      0x0100\n      exp\n      swap1\n      div\n      0xffffffffffffffffffffffffffffffffffffffff\n      and\n        /* \"contracts/ShareSecret.sol\":862:881  msg.sender == owner */\n      0xffffffffffffffffffffffffffffffffffffffff\n      and\n        /* \"contracts/ShareSecret.sol\":862:872  msg.sender */\n      caller\n        /* \"contracts/ShareSecret.sol\":862:881  msg.sender == owner */\n      0xffffffffffffffffffffffffffffffffffffffff\n      and\n      eq\n        /* \"contracts/ShareSecret.sol\":854:916  require(msg.sender == owner, \"only owner can pick the winner\") */\n      tag_69\n      jumpi\n      mload(0x40)\n      0x08c379a000000000000000000000000000000000000000000000000000000000\n      dup2\n      mstore\n      0x04\n      add\n      tag_70\n      swap1\n      tag_71\n      jump\t// in\n    tag_70:\n      mload(0x40)\n      dup1\n      swap2\n      sub\n      swap1\n      revert\n    tag_69:\n        /* \"contracts/ShareSecret.sol\":1934:2034  function notifySendingToHolders(address payable holder, string memory share)public onlyOwner{... */\n      pop\n      pop\n      jump\t// out\n        /* \"contracts/ShareSecret.sol\":1379:1613  function remove(uint  index ) public {... */\n    tag_32:\n        /* \"contracts/ShareSecret.sol\":1506:1518  shareHolders */\n      0x01\n        /* \"contracts/ShareSecret.sol\":1541:1542  1 */\n      dup1\n        /* \"contracts/ShareSecret.sol\":1519:1531  shareHolders */\n      dup1\n        /* \"contracts/ShareSecret.sol\":1519:1538  shareHolders.length */\n      dup1\n      sload\n      swap1\n      pop\n        /* \"contracts/ShareSecret.sol\":1519:1542  shareHolders.length - 1 */\n      tag_74\n      swap2\n      swap1\n      tag_75\n      jump\t// in\n    tag_74:\n        /* \"contracts/ShareSecret.sol\":1506:1543  shareHolders[shareHolders.length - 1] */\n      dup2\n      sload\n      dup2\n      lt\n      tag_76\n      jumpi\n      tag_77\n      tag_78\n      jump\t// in\n    tag_77:\n    tag_76:\n      swap1\n      0x00\n      mstore\n      keccak256(0x00, 0x20)\n      add\n      0x00\n      swap1\n      sload\n      swap1\n      0x0100\n      exp\n      swap1\n      div\n      0xffffffffffffffffffffffffffffffffffffffff\n      and\n        /* \"contracts/ShareSecret.sol\":1484:1496  shareHolders */\n      0x01\n        /* \"contracts/ShareSecret.sol\":1497:1502  index */\n      dup3\n        /* \"contracts/ShareSecret.sol\":1484:1503  shareHolders[index] */\n      dup2\n      sload\n      dup2\n      lt\n      tag_80\n      jumpi\n      tag_81\n      tag_78\n      jump\t// in\n    tag_81:\n    tag_80:\n      swap1\n      0x00\n      mstore\n      keccak256(0x00, 0x20)\n      add\n      0x00\n        /* \"contracts/ShareSecret.sol\":1484:1543  shareHolders[index] = shareHolders[shareHolders.length - 1] */\n      0x0100\n      exp\n      dup2\n      sload\n      dup2\n      0xffffffffffffffffffffffffffffffffffffffff\n      mul\n      not\n      and\n      swap1\n      dup4\n      0xffffffffffffffffffffffffffffffffffffffff\n      and\n      mul\n      or\n      swap1\n      sstore\n      pop\n        /* \"contracts/ShareSecret.sol\":1588:1600  shareHolders */\n      0x01\n        /* \"contracts/ShareSecret.sol\":1588:1606  shareHolders.pop() */\n      dup1\n      sload\n      dup1\n      tag_83\n      jumpi\n      tag_84\n      tag_85\n      jump\t// in\n    tag_84:\n    tag_83:\n      0x01\n      swap1\n      sub\n      dup2\n      dup2\n      swap1\n      0x00\n      mstore\n      keccak256(0x00, 0x20)\n      add\n      exp(0x0100, 0x00)\n      dup2\n      sload\n      swap1\n      0xffffffffffffffffffffffffffffffffffffffff\n      mul\n      not\n      and\n      swap1\n      sstore\n      swap1\n      sstore\n        /* \"contracts/ShareSecret.sol\":1379:1613  function remove(uint  index ) public {... */\n      pop\n      jump\t// out\n        /* \"contracts/ShareSecret.sol\":1618:1873  function removeShareHolders(address payable shareHolder) public onlyOwner {... */\n    tag_36:\n        /* \"contracts/ShareSecret.sol\":876:881  owner */\n      0x00\n      dup1\n      sload\n      swap1\n      0x0100\n      exp\n      swap1\n      div\n      0xffffffffffffffffffffffffffffffffffffffff\n      and\n        /* \"contracts/ShareSecret.sol\":862:881  msg.sender == owner */\n      0xffffffffffffffffffffffffffffffffffffffff\n      and\n        /* \"contracts/ShareSecret.sol\":862:872  msg.sender */\n      caller\n        /* \"contracts/ShareSecret.sol\":862:881  msg.sender == owner */\n      0xffffffffffffffffffffffffffffffffffffffff\n      and\n      eq\n        /* \"contracts/ShareSecret.sol\":854:916  require(msg.sender == owner, \"only owner can pick the winner\") */\n      tag_88\n      jumpi\n      mload(0x40)\n      0x08c379a000000000000000000000000000000000000000000000000000000000\n      dup2\n      mstore\n      0x04\n      add\n      tag_89\n      swap1\n      tag_71\n      jump\t// in\n    tag_89:\n      mload(0x40)\n      dup1\n      swap2\n      sub\n      swap1\n      revert\n    tag_88:\n        /* \"contracts/ShareSecret.sol\":1702:1708  uint i */\n      0x00\n        /* \"contracts/ShareSecret.sol\":1720:1848  for (i;i<shareHolders.length;i++){... */\n    tag_91:\n        /* \"contracts/ShareSecret.sol\":1729:1741  shareHolders */\n      0x01\n        /* \"contracts/ShareSecret.sol\":1729:1748  shareHolders.length */\n      dup1\n      sload\n      swap1\n      pop\n        /* \"contracts/ShareSecret.sol\":1727:1728  i */\n      dup2\n        /* \"contracts/ShareSecret.sol\":1727:1748  i<shareHolders.length */\n      lt\n        /* \"contracts/ShareSecret.sol\":1720:1848  for (i;i<shareHolders.length;i++){... */\n      iszero\n      tag_92\n      jumpi\n        /* \"contracts/ShareSecret.sol\":1788:1799  shareHolder */\n      dup2\n        /* \"contracts/ShareSecret.sol\":1771:1799  shareHolders[i]==shareHolder */\n      0xffffffffffffffffffffffffffffffffffffffff\n      and\n        /* \"contracts/ShareSecret.sol\":1771:1783  shareHolders */\n      0x01\n        /* \"contracts/ShareSecret.sol\":1784:1785  i */\n      dup3\n        /* \"contracts/ShareSecret.sol\":1771:1786  shareHolders[i] */\n      dup2\n      sload\n      dup2\n      lt\n      tag_94\n      jumpi\n      tag_95\n      tag_78\n      jump\t// in\n    tag_95:\n    tag_94:\n      swap1\n      0x00\n      mstore\n      keccak256(0x00, 0x20)\n      add\n      0x00\n      swap1\n      sload\n      swap1\n      0x0100\n      exp\n      swap1\n      div\n      0xffffffffffffffffffffffffffffffffffffffff\n      and\n        /* \"contracts/ShareSecret.sol\":1771:1799  shareHolders[i]==shareHolder */\n      0xffffffffffffffffffffffffffffffffffffffff\n      and\n      sub\n        /* \"contracts/ShareSecret.sol\":1767:1838  if (shareHolders[i]==shareHolder){... */\n      iszero\n        /* \"contracts/ShareSecret.sol\":1818:1823  break */\n      tag_92\n        /* \"contracts/ShareSecret.sol\":1767:1838  if (shareHolders[i]==shareHolder){... */\n      jumpi\n        /* \"contracts/ShareSecret.sol\":1749:1752  i++ */\n      dup1\n      dup1\n      tag_98\n      swap1\n      tag_99\n      jump\t// in\n    tag_98:\n      swap2\n      pop\n      pop\n        /* \"contracts/ShareSecret.sol\":1720:1848  for (i;i<shareHolders.length;i++){... */\n      jump(tag_91)\n    tag_92:\n        /* \"contracts/ShareSecret.sol\":1856:1865  remove(i) */\n      tag_100\n        /* \"contracts/ShareSecret.sol\":1863:1864  i */\n      dup2\n        /* \"contracts/ShareSecret.sol\":1856:1862  remove */\n      tag_32\n        /* \"contracts/ShareSecret.sol\":1856:1865  remove(i) */\n      jump\t// in\n    tag_100:\n        /* \"contracts/ShareSecret.sol\":1692:1873  {... */\n      pop\n        /* \"contracts/ShareSecret.sol\":1618:1873  function removeShareHolders(address payable shareHolder) public onlyOwner {... */\n      pop\n      jump\t// out\n        /* \"contracts/ShareSecret.sol\":187:321  string[] public shares=[\"describe\", \"action\", \"town\", \"gift\", \"capital\", \"river\" ,\"enroll\", \"meat\", \"wisdom\" ,\"steel\" ,\"neck\", \"defy\"] */\n    tag_39:\n      0x02\n      dup2\n      dup2\n      sload\n      dup2\n      lt\n      tag_101\n      jumpi\n      0x00\n      dup1\n      revert\n    tag_101:\n      swap1\n      0x00\n      mstore\n      keccak256(0x00, 0x20)\n      add\n      0x00\n      swap2\n      pop\n      swap1\n      pop\n      dup1\n      sload\n      tag_103\n      swap1\n      tag_63\n      jump\t// in\n    tag_103:\n      dup1\n      0x1f\n      add\n      0x20\n      dup1\n      swap2\n      div\n      mul\n      0x20\n      add\n      mload(0x40)\n      swap1\n      dup2\n      add\n      0x40\n      mstore\n      dup1\n      swap3\n      swap2\n      swap1\n      dup2\n      dup2\n      mstore\n      0x20\n      add\n      dup3\n      dup1\n      sload\n      tag_104\n      swap1\n      tag_63\n      jump\t// in\n    tag_104:\n      dup1\n      iszero\n      tag_105\n      jumpi\n      dup1\n      0x1f\n      lt\n      tag_106\n      jumpi\n      0x0100\n      dup1\n      dup4\n      sload\n      div\n      mul\n      dup4\n      mstore\n      swap2\n      0x20\n      add\n      swap2\n      jump(tag_105)\n    tag_106:\n      dup3\n      add\n      swap2\n      swap1\n      0x00\n      mstore\n      keccak256(0x00, 0x20)\n      swap1\n    tag_107:\n      dup2\n      sload\n      dup2\n      mstore\n      swap1\n      0x01\n      add\n      swap1\n      0x20\n      add\n      dup1\n      dup4\n      gt\n      tag_107\n      jumpi\n      dup3\n      swap1\n      sub\n      0x1f\n      and\n      dup3\n      add\n      swap2\n    tag_105:\n      pop\n      pop\n      pop\n      pop\n      pop\n      dup2\n      jump\t// out\n        /* \"contracts/ShareSecret.sol\":110:147  address payable[] public shareHolders */\n    tag_43:\n      0x01\n      dup2\n      dup2\n      sload\n      dup2\n      lt\n      tag_108\n      jumpi\n      0x00\n      dup1\n      revert\n    tag_108:\n      swap1\n      0x00\n      mstore\n      keccak256(0x00, 0x20)\n      add\n      0x00\n      swap2\n      pop\n      sload\n      swap1\n      0x0100\n      exp\n      swap1\n      div\n      0xffffffffffffffffffffffffffffffffffffffff\n      and\n      dup2\n      jump\t// out\n        /* \"contracts/ShareSecret.sol\":1256:1374  function addShareHolders(address payable shareHolder) public onlyOwner {... */\n    tag_48:\n        /* \"contracts/ShareSecret.sol\":876:881  owner */\n      0x00\n      dup1\n      sload\n      swap1\n      0x0100\n      exp\n      swap1\n      div\n      0xffffffffffffffffffffffffffffffffffffffff\n      and\n        /* \"contracts/ShareSecret.sol\":862:881  msg.sender == owner */\n      0xffffffffffffffffffffffffffffffffffffffff\n      and\n        /* \"contracts/ShareSecret.sol\":862:872  msg.sender */\n      caller\n        /* \"contracts/ShareSecret.sol\":862:881  msg.sender == owner */\n      0xffffffffffffffffffffffffffffffffffffffff\n      and\n      eq\n        /* \"contracts/ShareSecret.sol\":854:916  require(msg.sender == owner, \"only owner can pick the winner\") */\n      tag_111\n      jumpi\n      mload(0x40)\n      0x08c379a000000000000000000000000000000000000000000000000000000000\n      dup2\n      mstore\n      0x04\n      add\n      tag_112\n      swap1\n      tag_71\n      jump\t// in\n    tag_112:\n      mload(0x40)\n      dup1\n      swap2\n      sub\n      swap1\n      revert\n    tag_111:\n        /* \"contracts/ShareSecret.sol\":1337:1349  shareHolders */\n      0x01\n        /* \"contracts/ShareSecret.sol\":1355:1366  shareHolder */\n      dup2\n        /* \"contracts/ShareSecret.sol\":1337:1367  shareHolders.push(shareHolder) */\n      swap1\n      dup1\n      0x01\n      dup2\n      sload\n      add\n      dup1\n      dup3\n      sstore\n      dup1\n      swap2\n      pop\n      pop\n      0x01\n      swap1\n      sub\n      swap1\n      0x00\n      mstore\n      keccak256(0x00, 0x20)\n      add\n      0x00\n      swap1\n      swap2\n      swap1\n      swap2\n      swap1\n      swap2\n      0x0100\n      exp\n      dup2\n      sload\n      dup2\n      0xffffffffffffffffffffffffffffffffffffffff\n      mul\n      not\n      and\n      swap1\n      dup4\n      0xffffffffffffffffffffffffffffffffffffffff\n      and\n      mul\n      or\n      swap1\n      sstore\n      pop\n        /* \"contracts/ShareSecret.sol\":1256:1374  function addShareHolders(address payable shareHolder) public onlyOwner {... */\n      pop\n      jump\t// out\n        /* \"contracts/ShareSecret.sol\":84:104  address public owner */\n    tag_50:\n      0x00\n      dup1\n      sload\n      swap1\n      0x0100\n      exp\n      swap1\n      div\n      0xffffffffffffffffffffffffffffffffffffffff\n      and\n      dup2\n      jump\t// out\n        /* \"contracts/ShareSecret.sol\":2040:2094  function askingFromHolders() public onlyOwner {... */\n    tag_54:\n        /* \"contracts/ShareSecret.sol\":876:881  owner */\n      0x00\n      dup1\n      sload\n      swap1\n      0x0100\n      exp\n      swap1\n      div\n      0xffffffffffffffffffffffffffffffffffffffff\n      and\n        /* \"contracts/ShareSecret.sol\":862:881  msg.sender == owner */\n      0xffffffffffffffffffffffffffffffffffffffff\n      and\n        /* \"contracts/ShareSecret.sol\":862:872  msg.sender */\n      caller\n        /* \"contracts/ShareSecret.sol\":862:881  msg.sender == owner */\n      0xffffffffffffffffffffffffffffffffffffffff\n      and\n      eq\n        /* \"contracts/ShareSecret.sol\":854:916  require(msg.sender == owner, \"only owner can pick the winner\") */\n      tag_116\n      jumpi\n      mload(0x40)\n      0x08c379a000000000000000000000000000000000000000000000000000000000\n      dup2\n      mstore\n      0x04\n      add\n      tag_117\n      swap1\n      tag_71\n      jump\t// in\n    tag_117:\n      mload(0x40)\n      dup1\n      swap2\n      sub\n      swap1\n      revert\n    tag_116:\n        /* \"contracts/ShareSecret.sol\":2040:2094  function askingFromHolders() public onlyOwner {... */\n      jump\t// out\n        /* \"contracts/ShareSecret.sol\":327:376  mapping(address => string) public shareHoldersMap */\n    tag_57:\n      mstore(0x20, 0x03)\n      dup1\n      0x00\n      mstore\n      keccak256(0x00, 0x40)\n      0x00\n      swap2\n      pop\n      swap1\n      pop\n      dup1\n      sload\n      tag_119\n      swap1\n      tag_63\n      jump\t// in\n    tag_119:\n      dup1\n      0x1f\n      add\n      0x20\n      dup1\n      swap2\n      div\n      mul\n      0x20\n      add\n      mload(0x40)\n      swap1\n      dup2\n      add\n      0x40\n      mstore\n      dup1\n      swap3\n      swap2\n      swap1\n      dup2\n      dup2\n      mstore\n      0x20\n      add\n      dup3\n      dup1\n      sload\n      tag_120\n      swap1\n      tag_63\n      jump\t// in\n    tag_120:\n      dup1\n      iszero\n      tag_121\n      jumpi\n      dup1\n      0x1f\n      lt\n      tag_122\n      jumpi\n      0x0100\n      dup1\n      dup4\n      sload\n      div\n      mul\n      dup4\n      mstore\n      swap2\n      0x20\n      add\n      swap2\n      jump(tag_121)\n    tag_122:\n      dup3\n      add\n      swap2\n      swap1\n      0x00\n      mstore\n      keccak256(0x00, 0x20)\n      swap1\n    tag_123:\n      dup2\n      sload\n      dup2\n      mstore\n      swap1\n      0x01\n      add\n      swap1\n      0x20\n      add\n      dup1\n      dup4\n      gt\n      tag_123\n      jumpi\n      dup3\n      swap1\n      sub\n      0x1f\n      and\n      dup3\n      add\n      swap2\n    tag_121:\n      pop\n      pop\n      pop\n      pop\n      pop\n      dup2\n      jump\t// out\n        /* \"contracts/ShareSecret.sol\":940:1250  function distribute() public onlyOwner {... */\n    tag_60:\n        /* \"contracts/ShareSecret.sol\":876:881  owner */\n      0x00\n      dup1\n      sload\n      swap1\n      0x0100\n      exp\n      swap1\n      div\n      0xffffffffffffffffffffffffffffffffffffffff\n      and\n        /* \"contracts/ShareSecret.sol\":862:881  msg.sender == owner */\n      0xffffffffffffffffffffffffffffffffffffffff\n      and\n        /* \"contracts/ShareSecret.sol\":862:872  msg.sender */\n      caller\n        /* \"contracts/ShareSecret.sol\":862:881  msg.sender == owner */\n      0xffffffffffffffffffffffffffffffffffffffff\n      and\n      eq\n        /* \"contracts/ShareSecret.sol\":854:916  require(msg.sender == owner, \"only owner can pick the winner\") */\n      tag_125\n      jumpi\n      mload(0x40)\n      0x08c379a000000000000000000000000000000000000000000000000000000000\n      dup2\n      mstore\n      0x04\n      add\n      tag_126\n      swap1\n      tag_71\n      jump\t// in\n    tag_126:\n      mload(0x40)\n      dup1\n      swap2\n      sub\n      swap1\n      revert\n    tag_125:\n        /* \"contracts/ShareSecret.sol\":1010:1022  shareHolders */\n      0x01\n        /* \"contracts/ShareSecret.sol\":1010:1029  shareHolders.length */\n      dup1\n      sload\n      swap1\n      pop\n        /* \"contracts/ShareSecret.sol\":993:999  shares */\n      0x02\n        /* \"contracts/ShareSecret.sol\":993:1006  shares.length */\n      dup1\n      sload\n      swap1\n      pop\n        /* \"contracts/ShareSecret.sol\":993:1029  shares.length <= shareHolders.length */\n      gt\n        /* \"contracts/ShareSecret.sol\":989:1244  if (shares.length <= shareHolders.length) {... */\n      tag_128\n      jumpi\n        /* \"contracts/ShareSecret.sol\":1050:1059  uint256 i */\n      0x00\n        /* \"contracts/ShareSecret.sol\":1045:1234  for (uint256 i = 0; i < shares.length; i++) {... */\n    tag_129:\n        /* \"contracts/ShareSecret.sol\":1069:1075  shares */\n      0x02\n        /* \"contracts/ShareSecret.sol\":1069:1082  shares.length */\n      dup1\n      sload\n      swap1\n      pop\n        /* \"contracts/ShareSecret.sol\":1065:1066  i */\n      dup2\n        /* \"contracts/ShareSecret.sol\":1065:1082  i < shares.length */\n      lt\n        /* \"contracts/ShareSecret.sol\":1045:1234  for (uint256 i = 0; i < shares.length; i++) {... */\n      iszero\n      tag_130\n      jumpi\n        /* \"contracts/ShareSecret.sol\":1142:1148  shares */\n      0x02\n        /* \"contracts/ShareSecret.sol\":1149:1150  i */\n      dup2\n        /* \"contracts/ShareSecret.sol\":1142:1151  shares[i] */\n      dup2\n      sload\n      dup2\n      lt\n      tag_132\n      jumpi\n      tag_133\n      tag_78\n      jump\t// in\n    tag_133:\n    tag_132:\n      swap1\n      0x00\n      mstore\n      keccak256(0x00, 0x20)\n      add\n        /* \"contracts/ShareSecret.sol\":1107:1122  shareHoldersMap */\n      0x03\n        /* \"contracts/ShareSecret.sol\":1107:1139  shareHoldersMap[shareHolders[i]] */\n      0x00\n        /* \"contracts/ShareSecret.sol\":1123:1135  shareHolders */\n      0x01\n        /* \"contracts/ShareSecret.sol\":1136:1137  i */\n      dup5\n        /* \"contracts/ShareSecret.sol\":1123:1138  shareHolders[i] */\n      dup2\n      sload\n      dup2\n      lt\n      tag_135\n      jumpi\n      tag_136\n      tag_78\n      jump\t// in\n    tag_136:\n    tag_135:\n      swap1\n      0x00\n      mstore\n      keccak256(0x00, 0x20)\n      add\n      0x00\n      swap1\n      sload\n      swap1\n      0x0100\n      exp\n      swap1\n      div\n      0xffffffffffffffffffffffffffffffffffffffff\n      and\n        /* \"contracts/ShareSecret.sol\":1107:1139  shareHoldersMap[shareHolders[i]] */\n      0xffffffffffffffffffffffffffffffffffffffff\n      and\n      0xffffffffffffffffffffffffffffffffffffffff\n      and\n      dup2\n      mstore\n      0x20\n      add\n      swap1\n      dup2\n      mstore\n      0x20\n      add\n      0x00\n      keccak256\n        /* \"contracts/ShareSecret.sol\":1107:1151  shareHoldersMap[shareHolders[i]] = shares[i] */\n      swap1\n      dup2\n      tag_138\n      swap2\n      swap1\n      tag_139\n      jump\t// in\n    tag_138:\n      pop\n        /* \"contracts/ShareSecret.sol\":1169:1219  notifySendingToHolders(shareHolders[i], shares[i]) */\n      tag_140\n        /* \"contracts/ShareSecret.sol\":1192:1204  shareHolders */\n      0x01\n        /* \"contracts/ShareSecret.sol\":1205:1206  i */\n      dup3\n        /* \"contracts/ShareSecret.sol\":1192:1207  shareHolders[i] */\n      dup2\n      sload\n      dup2\n      lt\n      tag_141\n      jumpi\n      tag_142\n      tag_78\n      jump\t// in\n    tag_142:\n    tag_141:\n      swap1\n      0x00\n      mstore\n      keccak256(0x00, 0x20)\n      add\n      0x00\n      swap1\n      sload\n      swap1\n      0x0100\n      exp\n      swap1\n      div\n      0xffffffffffffffffffffffffffffffffffffffff\n      and\n        /* \"contracts/ShareSecret.sol\":1209:1215  shares */\n      0x02\n        /* \"contracts/ShareSecret.sol\":1216:1217  i */\n      dup4\n        /* \"contracts/ShareSecret.sol\":1209:1218  shares[i] */\n      dup2\n      sload\n      dup2\n      lt\n      tag_144\n      jumpi\n      tag_145\n      tag_78\n      jump\t// in\n    tag_145:\n    tag_144:\n      swap1\n      0x00\n      mstore\n      keccak256(0x00, 0x20)\n      add\n        /* \"contracts/ShareSecret.sol\":1169:1219  notifySendingToHolders(shareHolders[i], shares[i]) */\n      dup1\n      sload\n      tag_147\n      swap1\n      tag_63\n      jump\t// in\n    tag_147:\n      dup1\n      0x1f\n      add\n      0x20\n      dup1\n      swap2\n      div\n      mul\n      0x20\n      add\n      mload(0x40)\n      swap1\n      dup2\n      add\n      0x40\n      mstore\n      dup1\n      swap3\n      swap2\n      swap1\n      dup2\n      dup2\n      mstore\n      0x20\n      add\n      dup3\n      dup1\n      sload\n      tag_148\n      swap1\n      tag_63\n      jump\t// in\n    tag_148:\n      dup1\n      iszero\n      tag_149\n      jumpi\n      dup1\n      0x1f\n      lt\n      tag_150\n      jumpi\n      0x0100\n      dup1\n      dup4\n      sload\n      div\n      mul\n      dup4\n      mstore\n      swap2\n      0x20\n      add\n      swap2\n      jump(tag_149)\n    tag_150:\n      dup3\n      add\n      swap2\n      swap1\n      0x00\n      mstore\n      keccak256(0x00, 0x20)\n      swap1\n    tag_151:\n      dup2\n      sload\n      dup2\n      mstore\n      swap1\n      0x01\n      add\n      swap1\n      0x20\n      add\n      dup1\n      dup4\n      gt\n      tag_151\n      jumpi\n      dup3\n      swap1\n      sub\n      0x1f\n      and\n      dup3\n      add\n      swap2\n    tag_149:\n      pop\n      pop\n      pop\n      pop\n      pop\n        /* \"contracts/ShareSecret.sol\":1169:1191  notifySendingToHolders */\n      tag_28\n        /* \"contracts/ShareSecret.sol\":1169:1219  notifySendingToHolders(shareHolders[i], shares[i]) */\n      jump\t// in\n    tag_140:\n        /* \"contracts/ShareSecret.sol\":1084:1087  i++ */\n      dup1\n      dup1\n      tag_152\n      swap1\n      tag_99\n      jump\t// in\n    tag_152:\n      swap2\n      pop\n      pop\n        /* \"contracts/ShareSecret.sol\":1045:1234  for (uint256 i = 0; i < shares.length; i++) {... */\n      jump(tag_129)\n    tag_130:\n      pop\n        /* \"contracts/ShareSecret.sol\":989:1244  if (shares.length <= shareHolders.length) {... */\n    tag_128:\n        /* \"contracts/ShareSecret.sol\":940:1250  function distribute() public onlyOwner {... */\n      jump\t// out\n        /* \"#utility.yul\":7:82   */\n    tag_153:\n        /* \"#utility.yul\":40:46   */\n      0x00\n        /* \"#utility.yul\":73:75   */\n      0x40\n        /* \"#utility.yul\":67:76   */\n      mload\n        /* \"#utility.yul\":57:76   */\n      swap1\n      pop\n        /* \"#utility.yul\":7:82   */\n      swap1\n      jump\t// out\n        /* \"#utility.yul\":88:205   */\n    tag_154:\n        /* \"#utility.yul\":197:198   */\n      0x00\n        /* \"#utility.yul\":194:195   */\n      dup1\n        /* \"#utility.yul\":187:199   */\n      revert\n        /* \"#utility.yul\":211:328   */\n    tag_155:\n        /* \"#utility.yul\":320:321   */\n      0x00\n        /* \"#utility.yul\":317:318   */\n      dup1\n        /* \"#utility.yul\":310:322   */\n      revert\n        /* \"#utility.yul\":334:460   */\n    tag_156:\n        /* \"#utility.yul\":371:378   */\n      0x00\n        /* \"#utility.yul\":411:453   */\n      0xffffffffffffffffffffffffffffffffffffffff\n        /* \"#utility.yul\":404:409   */\n      dup3\n        /* \"#utility.yul\":400:454   */\n      and\n        /* \"#utility.yul\":389:454   */\n      swap1\n      pop\n        /* \"#utility.yul\":334:460   */\n      swap2\n      swap1\n      pop\n      jump\t// out\n        /* \"#utility.yul\":466:562   */\n    tag_157:\n        /* \"#utility.yul\":503:510   */\n      0x00\n        /* \"#utility.yul\":532:556   */\n      tag_209\n        /* \"#utility.yul\":550:555   */\n      dup3\n        /* \"#utility.yul\":532:556   */\n      tag_156\n      jump\t// in\n    tag_209:\n        /* \"#utility.yul\":521:556   */\n      swap1\n      pop\n        /* \"#utility.yul\":466:562   */\n      swap2\n      swap1\n      pop\n      jump\t// out\n        /* \"#utility.yul\":568:690   */\n    tag_158:\n        /* \"#utility.yul\":641:665   */\n      tag_211\n        /* \"#utility.yul\":659:664   */\n      dup2\n        /* \"#utility.yul\":641:665   */\n      tag_157\n      jump\t// in\n    tag_211:\n        /* \"#utility.yul\":634:639   */\n      dup2\n        /* \"#utility.yul\":631:666   */\n      eq\n        /* \"#utility.yul\":621:684   */\n      tag_212\n      jumpi\n        /* \"#utility.yul\":680:681   */\n      0x00\n        /* \"#utility.yul\":677:678   */\n      dup1\n        /* \"#utility.yul\":670:682   */\n      revert\n        /* \"#utility.yul\":621:684   */\n    tag_212:\n        /* \"#utility.yul\":568:690   */\n      pop\n      jump\t// out\n        /* \"#utility.yul\":696:835   */\n    tag_159:\n        /* \"#utility.yul\":742:747   */\n      0x00\n        /* \"#utility.yul\":780:786   */\n      dup2\n        /* \"#utility.yul\":767:787   */\n      calldataload\n        /* \"#utility.yul\":758:787   */\n      swap1\n      pop\n        /* \"#utility.yul\":796:829   */\n      tag_214\n        /* \"#utility.yul\":823:828   */\n      dup2\n        /* \"#utility.yul\":796:829   */\n      tag_158\n      jump\t// in\n    tag_214:\n        /* \"#utility.yul\":696:835   */\n      swap3\n      swap2\n      pop\n      pop\n      jump\t// out\n        /* \"#utility.yul\":841:1170   */\n    tag_18:\n        /* \"#utility.yul\":900:906   */\n      0x00\n        /* \"#utility.yul\":949:951   */\n      0x20\n        /* \"#utility.yul\":937:946   */\n      dup3\n        /* \"#utility.yul\":928:935   */\n      dup5\n        /* \"#utility.yul\":924:947   */\n      sub\n        /* \"#utility.yul\":920:952   */\n      slt\n        /* \"#utility.yul\":917:1036   */\n      iszero\n      tag_216\n      jumpi\n        /* \"#utility.yul\":955:1034   */\n      tag_217\n      tag_154\n      jump\t// in\n    tag_217:\n        /* \"#utility.yul\":917:1036   */\n    tag_216:\n        /* \"#utility.yul\":1075:1076   */\n      0x00\n        /* \"#utility.yul\":1100:1153   */\n      tag_218\n        /* \"#utility.yul\":1145:1152   */\n      dup5\n        /* \"#utility.yul\":1136:1142   */\n      dup3\n        /* \"#utility.yul\":1125:1134   */\n      dup6\n        /* \"#utility.yul\":1121:1143   */\n      add\n        /* \"#utility.yul\":1100:1153   */\n      tag_159\n      jump\t// in\n    tag_218:\n        /* \"#utility.yul\":1090:1153   */\n      swap2\n      pop\n        /* \"#utility.yul\":1046:1163   */\n      pop\n        /* \"#utility.yul\":841:1170   */\n      swap3\n      swap2\n      pop\n      pop\n      jump\t// out\n        /* \"#utility.yul\":1176:1275   */\n    tag_160:\n        /* \"#utility.yul\":1228:1234   */\n      0x00\n        /* \"#utility.yul\":1262:1267   */\n      dup2\n        /* \"#utility.yul\":1256:1268   */\n      mload\n        /* \"#utility.yul\":1246:1268   */\n      swap1\n      pop\n        /* \"#utility.yul\":1176:1275   */\n      swap2\n      swap1\n      pop\n      jump\t// out\n        /* \"#utility.yul\":1281:1450   */\n    tag_161:\n        /* \"#utility.yul\":1365:1376   */\n      0x00\n        /* \"#utility.yul\":1399:1405   */\n      dup3\n        /* \"#utility.yul\":1394:1397   */\n      dup3\n        /* \"#utility.yul\":1387:1406   */\n      mstore\n        /* \"#utility.yul\":1439:1443   */\n      0x20\n        /* \"#utility.yul\":1434:1437   */\n      dup3\n        /* \"#utility.yul\":1430:1444   */\n      add\n        /* \"#utility.yul\":1415:1444   */\n      swap1\n      pop\n        /* \"#utility.yul\":1281:1450   */\n      swap3\n      swap2\n      pop\n      pop\n      jump\t// out\n        /* \"#utility.yul\":1456:1702   */\n    tag_162:\n        /* \"#utility.yul\":1537:1538   */\n      0x00\n        /* \"#utility.yul\":1547:1660   */\n    tag_222:\n        /* \"#utility.yul\":1561:1567   */\n      dup4\n        /* \"#utility.yul\":1558:1559   */\n      dup2\n        /* \"#utility.yul\":1555:1568   */\n      lt\n        /* \"#utility.yul\":1547:1660   */\n      iszero\n      tag_224\n      jumpi\n        /* \"#utility.yul\":1646:1647   */\n      dup1\n        /* \"#utility.yul\":1641:1644   */\n      dup3\n        /* \"#utility.yul\":1637:1648   */\n      add\n        /* \"#utility.yul\":1631:1649   */\n      mload\n        /* \"#utility.yul\":1627:1628   */\n      dup2\n        /* \"#utility.yul\":1622:1625   */\n      dup5\n        /* \"#utility.yul\":1618:1629   */\n      add\n        /* \"#utility.yul\":1611:1650   */\n      mstore\n        /* \"#utility.yul\":1583:1585   */\n      0x20\n        /* \"#utility.yul\":1580:1581   */\n      dup2\n        /* \"#utility.yul\":1576:1586   */\n      add\n        /* \"#utility.yul\":1571:1586   */\n      swap1\n      pop\n        /* \"#utility.yul\":1547:1660   */\n      jump(tag_222)\n    tag_224:\n        /* \"#utility.yul\":1694:1695   */\n      0x00\n        /* \"#utility.yul\":1685:1691   */\n      dup5\n        /* \"#utility.yul\":1680:1683   */\n      dup5\n        /* \"#utility.yul\":1676:1692   */\n      add\n        /* \"#utility.yul\":1669:1696   */\n      mstore\n        /* \"#utility.yul\":1518:1702   */\n      pop\n        /* \"#utility.yul\":1456:1702   */\n      pop\n      pop\n      pop\n      jump\t// out\n        /* \"#utility.yul\":1708:1810   */\n    tag_163:\n        /* \"#utility.yul\":1749:1755   */\n      0x00\n        /* \"#utility.yul\":1800:1802   */\n      0x1f\n        /* \"#utility.yul\":1796:1803   */\n      not\n        /* \"#utility.yul\":1791:1793   */\n      0x1f\n        /* \"#utility.yul\":1784:1789   */\n      dup4\n        /* \"#utility.yul\":1780:1794   */\n      add\n        /* \"#utility.yul\":1776:1804   */\n      and\n        /* \"#utility.yul\":1766:1804   */\n      swap1\n      pop\n        /* \"#utility.yul\":1708:1810   */\n      swap2\n      swap1\n      pop\n      jump\t// out\n        /* \"#utility.yul\":1816:2193   */\n    tag_164:\n        /* \"#utility.yul\":1904:1907   */\n      0x00\n        /* \"#utility.yul\":1932:1971   */\n      tag_227\n        /* \"#utility.yul\":1965:1970   */\n      dup3\n        /* \"#utility.yul\":1932:1971   */\n      tag_160\n      jump\t// in\n    tag_227:\n        /* \"#utility.yul\":1987:2058   */\n      tag_228\n        /* \"#utility.yul\":2051:2057   */\n      dup2\n        /* \"#utility.yul\":2046:2049   */\n      dup6\n        /* \"#utility.yul\":1987:2058   */\n      tag_161\n      jump\t// in\n    tag_228:\n        /* \"#utility.yul\":1980:2058   */\n      swap4\n      pop\n        /* \"#utility.yul\":2067:2132   */\n      tag_229\n        /* \"#utility.yul\":2125:2131   */\n      dup2\n        /* \"#utility.yul\":2120:2123   */\n      dup6\n        /* \"#utility.yul\":2113:2117   */\n      0x20\n        /* \"#utility.yul\":2106:2111   */\n      dup7\n        /* \"#utility.yul\":2102:2118   */\n      add\n        /* \"#utility.yul\":2067:2132   */\n      tag_162\n      jump\t// in\n    tag_229:\n        /* \"#utility.yul\":2157:2186   */\n      tag_230\n        /* \"#utility.yul\":2179:2185   */\n      dup2\n        /* \"#utility.yul\":2157:2186   */\n      tag_163\n      jump\t// in\n    tag_230:\n        /* \"#utility.yul\":2152:2155   */\n      dup5\n        /* \"#utility.yul\":2148:2187   */\n      add\n        /* \"#utility.yul\":2141:2187   */\n      swap2\n      pop\n        /* \"#utility.yul\":1908:2193   */\n      pop\n        /* \"#utility.yul\":1816:2193   */\n      swap3\n      swap2\n      pop\n      pop\n      jump\t// out\n        /* \"#utility.yul\":2199:2512   */\n    tag_24:\n        /* \"#utility.yul\":2312:2316   */\n      0x00\n        /* \"#utility.yul\":2350:2352   */\n      0x20\n        /* \"#utility.yul\":2339:2348   */\n      dup3\n        /* \"#utility.yul\":2335:2353   */\n      add\n        /* \"#utility.yul\":2327:2353   */\n      swap1\n      pop\n        /* \"#utility.yul\":2399:2408   */\n      dup2\n        /* \"#utility.yul\":2393:2397   */\n      dup2\n        /* \"#utility.yul\":2389:2409   */\n      sub\n        /* \"#utility.yul\":2385:2386   */\n      0x00\n        /* \"#utility.yul\":2374:2383   */\n      dup4\n        /* \"#utility.yul\":2370:2387   */\n      add\n        /* \"#utility.yul\":2363:2410   */\n      mstore\n        /* \"#utility.yul\":2427:2505   */\n      tag_232\n        /* \"#utility.yul\":2500:2504   */\n      dup2\n        /* \"#utility.yul\":2491:2497   */\n      dup5\n        /* \"#utility.yul\":2427:2505   */\n      tag_164\n      jump\t// in\n    tag_232:\n        /* \"#utility.yul\":2419:2505   */\n      swap1\n      pop\n        /* \"#utility.yul\":2199:2512   */\n      swap3\n      swap2\n      pop\n      pop\n      jump\t// out\n        /* \"#utility.yul\":2518:2622   */\n    tag_165:\n        /* \"#utility.yul\":2563:2570   */\n      0x00\n        /* \"#utility.yul\":2592:2616   */\n      tag_234\n        /* \"#utility.yul\":2610:2615   */\n      dup3\n        /* \"#utility.yul\":2592:2616   */\n      tag_156\n      jump\t// in\n    tag_234:\n        /* \"#utility.yul\":2581:2616   */\n      swap1\n      pop\n        /* \"#utility.yul\":2518:2622   */\n      swap2\n      swap1\n      pop\n      jump\t// out\n        /* \"#utility.yul\":2628:2766   */\n    tag_166:\n        /* \"#utility.yul\":2709:2741   */\n      tag_236\n        /* \"#utility.yul\":2735:2740   */\n      dup2\n        /* \"#utility.yul\":2709:2741   */\n      tag_165\n      jump\t// in\n    tag_236:\n        /* \"#utility.yul\":2702:2707   */\n      dup2\n        /* \"#utility.yul\":2699:2742   */\n      eq\n        /* \"#utility.yul\":2689:2760   */\n      tag_237\n      jumpi\n        /* \"#utility.yul\":2756:2757   */\n      0x00\n        /* \"#utility.yul\":2753:2754   */\n      dup1\n        /* \"#utility.yul\":2746:2758   */\n      revert\n        /* \"#utility.yul\":2689:2760   */\n    tag_237:\n        /* \"#utility.yul\":2628:2766   */\n      pop\n      jump\t// out\n        /* \"#utility.yul\":2772:2927   */\n    tag_167:\n        /* \"#utility.yul\":2826:2831   */\n      0x00\n        /* \"#utility.yul\":2864:2870   */\n      dup2\n        /* \"#utility.yul\":2851:2871   */\n      calldataload\n        /* \"#utility.yul\":2842:2871   */\n      swap1\n      pop\n        /* \"#utility.yul\":2880:2921   */\n      tag_239\n        /* \"#utility.yul\":2915:2920   */\n      dup2\n        /* \"#utility.yul\":2880:2921   */\n      tag_166\n      jump\t// in\n    tag_239:\n        /* \"#utility.yul\":2772:2927   */\n      swap3\n      swap2\n      pop\n      pop\n      jump\t// out\n        /* \"#utility.yul\":2933:3050   */\n    tag_168:\n        /* \"#utility.yul\":3042:3043   */\n      0x00\n        /* \"#utility.yul\":3039:3040   */\n      dup1\n        /* \"#utility.yul\":3032:3044   */\n      revert\n        /* \"#utility.yul\":3056:3173   */\n    tag_169:\n        /* \"#utility.yul\":3165:3166   */\n      0x00\n        /* \"#utility.yul\":3162:3163   */\n      dup1\n        /* \"#utility.yul\":3155:3167   */\n      revert\n        /* \"#utility.yul\":3179:3359   */\n    tag_170:\n        /* \"#utility.yul\":3227:3304   */\n      0x4e487b7100000000000000000000000000000000000000000000000000000000\n        /* \"#utility.yul\":3224:3225   */\n      0x00\n        /* \"#utility.yul\":3217:3305   */\n      mstore\n        /* \"#utility.yul\":3324:3328   */\n      0x41\n        /* \"#utility.yul\":3321:3322   */\n      0x04\n        /* \"#utility.yul\":3314:3329   */\n      mstore\n        /* \"#utility.yul\":3348:3352   */\n      0x24\n        /* \"#utility.yul\":3345:3346   */\n      0x00\n        /* \"#utility.yul\":3338:3353   */\n      revert\n        /* \"#utility.yul\":3365:3646   */\n    tag_171:\n        /* \"#utility.yul\":3448:3475   */\n      tag_244\n        /* \"#utility.yul\":3470:3474   */\n      dup3\n        /* \"#utility.yul\":3448:3475   */\n      tag_163\n      jump\t// in\n    tag_244:\n        /* \"#utility.yul\":3440:3446   */\n      dup2\n        /* \"#utility.yul\":3436:3476   */\n      add\n        /* \"#utility.yul\":3578:3584   */\n      dup2\n        /* \"#utility.yul\":3566:3576   */\n      dup2\n        /* \"#utility.yul\":3563:3585   */\n      lt\n        /* \"#utility.yul\":3542:3560   */\n      0xffffffffffffffff\n        /* \"#utility.yul\":3530:3540   */\n      dup3\n        /* \"#utility.yul\":3527:3561   */\n      gt\n        /* \"#utility.yul\":3524:3586   */\n      or\n        /* \"#utility.yul\":3521:3609   */\n      iszero\n      tag_245\n      jumpi\n        /* \"#utility.yul\":3589:3607   */\n      tag_246\n      tag_170\n      jump\t// in\n    tag_246:\n        /* \"#utility.yul\":3521:3609   */\n    tag_245:\n        /* \"#utility.yul\":3629:3639   */\n      dup1\n        /* \"#utility.yul\":3625:3627   */\n      0x40\n        /* \"#utility.yul\":3618:3640   */\n      mstore\n        /* \"#utility.yul\":3408:3646   */\n      pop\n        /* \"#utility.yul\":3365:3646   */\n      pop\n      pop\n      jump\t// out\n        /* \"#utility.yul\":3652:3781   */\n    tag_172:\n        /* \"#utility.yul\":3686:3692   */\n      0x00\n        /* \"#utility.yul\":3713:3733   */\n      tag_248\n      tag_153\n      jump\t// in\n    tag_248:\n        /* \"#utility.yul\":3703:3733   */\n      swap1\n      pop\n        /* \"#utility.yul\":3742:3775   */\n      tag_249\n        /* \"#utility.yul\":3770:3774   */\n      dup3\n        /* \"#utility.yul\":3762:3768   */\n      dup3\n        /* \"#utility.yul\":3742:3775   */\n      tag_171\n      jump\t// in\n    tag_249:\n        /* \"#utility.yul\":3652:3781   */\n      swap2\n      swap1\n      pop\n      jump\t// out\n        /* \"#utility.yul\":3787:4095   */\n    tag_173:\n        /* \"#utility.yul\":3849:3853   */\n      0x00\n        /* \"#utility.yul\":3939:3957   */\n      0xffffffffffffffff\n        /* \"#utility.yul\":3931:3937   */\n      dup3\n        /* \"#utility.yul\":3928:3958   */\n      gt\n        /* \"#utility.yul\":3925:3981   */\n      iszero\n      tag_251\n      jumpi\n        /* \"#utility.yul\":3961:3979   */\n      tag_252\n      tag_170\n      jump\t// in\n    tag_252:\n        /* \"#utility.yul\":3925:3981   */\n    tag_251:\n        /* \"#utility.yul\":3999:4028   */\n      tag_253\n        /* \"#utility.yul\":4021:4027   */\n      dup3\n        /* \"#utility.yul\":3999:4028   */\n      tag_163\n      jump\t// in\n    tag_253:\n        /* \"#utility.yul\":3991:4028   */\n      swap1\n      pop\n        /* \"#utility.yul\":4083:4087   */\n      0x20\n        /* \"#utility.yul\":4077:4081   */\n      dup2\n        /* \"#utility.yul\":4073:4088   */\n      add\n        /* \"#utility.yul\":4065:4088   */\n      swap1\n      pop\n        /* \"#utility.yul\":3787:4095   */\n      swap2\n      swap1\n      pop\n      jump\t// out\n        /* \"#utility.yul\":4101:4247   */\n    tag_174:\n        /* \"#utility.yul\":4198:4204   */\n      dup3\n        /* \"#utility.yul\":4193:4196   */\n      dup2\n        /* \"#utility.yul\":4188:4191   */\n      dup4\n        /* \"#utility.yul\":4175:4205   */\n      calldatacopy\n        /* \"#utility.yul\":4239:4240   */\n      0x00\n        /* \"#utility.yul\":4230:4236   */\n      dup4\n        /* \"#utility.yul\":4225:4228   */\n      dup4\n        /* \"#utility.yul\":4221:4237   */\n      add\n        /* \"#utility.yul\":4214:4241   */\n      mstore\n        /* \"#utility.yul\":4101:4247   */\n      pop\n      pop\n      pop\n      jump\t// out\n        /* \"#utility.yul\":4253:4678   */\n    tag_175:\n        /* \"#utility.yul\":4331:4336   */\n      0x00\n        /* \"#utility.yul\":4356:4422   */\n      tag_256\n        /* \"#utility.yul\":4372:4421   */\n      tag_257\n        /* \"#utility.yul\":4414:4420   */\n      dup5\n        /* \"#utility.yul\":4372:4421   */\n      tag_173\n      jump\t// in\n    tag_257:\n        /* \"#utility.yul\":4356:4422   */\n      tag_172\n      jump\t// in\n    tag_256:\n        /* \"#utility.yul\":4347:4422   */\n      swap1\n      pop\n        /* \"#utility.yul\":4445:4451   */\n      dup3\n        /* \"#utility.yul\":4438:4443   */\n      dup2\n        /* \"#utility.yul\":4431:4452   */\n      mstore\n        /* \"#utility.yul\":4483:4487   */\n      0x20\n        /* \"#utility.yul\":4476:4481   */\n      dup2\n        /* \"#utility.yul\":4472:4488   */\n      add\n        /* \"#utility.yul\":4521:4524   */\n      dup5\n        /* \"#utility.yul\":4512:4518   */\n      dup5\n        /* \"#utility.yul\":4507:4510   */\n      dup5\n        /* \"#utility.yul\":4503:4519   */\n      add\n        /* \"#utility.yul\":4500:4525   */\n      gt\n        /* \"#utility.yul\":4497:4609   */\n      iszero\n      tag_258\n      jumpi\n        /* \"#utility.yul\":4528:4607   */\n      tag_259\n      tag_169\n      jump\t// in\n    tag_259:\n        /* \"#utility.yul\":4497:4609   */\n    tag_258:\n        /* \"#utility.yul\":4618:4672   */\n      tag_260\n        /* \"#utility.yul\":4665:4671   */\n      dup5\n        /* \"#utility.yul\":4660:4663   */\n      dup3\n        /* \"#utility.yul\":4655:4658   */\n      dup6\n        /* \"#utility.yul\":4618:4672   */\n      tag_174\n      jump\t// in\n    tag_260:\n        /* \"#utility.yul\":4337:4678   */\n      pop\n        /* \"#utility.yul\":4253:4678   */\n      swap4\n      swap3\n      pop\n      pop\n      pop\n      jump\t// out\n        /* \"#utility.yul\":4698:5038   */\n    tag_176:\n        /* \"#utility.yul\":4754:4759   */\n      0x00\n        /* \"#utility.yul\":4803:4806   */\n      dup3\n        /* \"#utility.yul\":4796:4800   */\n      0x1f\n        /* \"#utility.yul\":4788:4794   */\n      dup4\n        /* \"#utility.yul\":4784:4801   */\n      add\n        /* \"#utility.yul\":4780:4807   */\n      slt\n        /* \"#utility.yul\":4770:4892   */\n      tag_262\n      jumpi\n        /* \"#utility.yul\":4811:4890   */\n      tag_263\n      tag_168\n      jump\t// in\n    tag_263:\n        /* \"#utility.yul\":4770:4892   */\n    tag_262:\n        /* \"#utility.yul\":4928:4934   */\n      dup2\n        /* \"#utility.yul\":4915:4935   */\n      calldataload\n        /* \"#utility.yul\":4953:5032   */\n      tag_264\n        /* \"#utility.yul\":5028:5031   */\n      dup5\n        /* \"#utility.yul\":5020:5026   */\n      dup3\n        /* \"#utility.yul\":5013:5017   */\n      0x20\n        /* \"#utility.yul\":5005:5011   */\n      dup7\n        /* \"#utility.yul\":5001:5018   */\n      add\n        /* \"#utility.yul\":4953:5032   */\n      tag_175\n      jump\t// in\n    tag_264:\n        /* \"#utility.yul\":4944:5032   */\n      swap2\n      pop\n        /* \"#utility.yul\":4760:5038   */\n      pop\n        /* \"#utility.yul\":4698:5038   */\n      swap3\n      swap2\n      pop\n      pop\n      jump\t// out\n        /* \"#utility.yul\":5044:5714   */\n    tag_27:\n        /* \"#utility.yul\":5130:5136   */\n      0x00\n        /* \"#utility.yul\":5138:5144   */\n      dup1\n        /* \"#utility.yul\":5187:5189   */\n      0x40\n        /* \"#utility.yul\":5175:5184   */\n      dup4\n        /* \"#utility.yul\":5166:5173   */\n      dup6\n        /* \"#utility.yul\":5162:5185   */\n      sub\n        /* \"#utility.yul\":5158:5190   */\n      slt\n        /* \"#utility.yul\":5155:5274   */\n      iszero\n      tag_266\n      jumpi\n        /* \"#utility.yul\":5193:5272   */\n      tag_267\n      tag_154\n      jump\t// in\n    tag_267:\n        /* \"#utility.yul\":5155:5274   */\n    tag_266:\n        /* \"#utility.yul\":5313:5314   */\n      0x00\n        /* \"#utility.yul\":5338:5399   */\n      tag_268\n        /* \"#utility.yul\":5391:5398   */\n      dup6\n        /* \"#utility.yul\":5382:5388   */\n      dup3\n        /* \"#utility.yul\":5371:5380   */\n      dup7\n        /* \"#utility.yul\":5367:5389   */\n      add\n        /* \"#utility.yul\":5338:5399   */\n      tag_167\n      jump\t// in\n    tag_268:\n        /* \"#utility.yul\":5328:5399   */\n      swap3\n      pop\n        /* \"#utility.yul\":5284:5409   */\n      pop\n        /* \"#utility.yul\":5476:5478   */\n      0x20\n        /* \"#utility.yul\":5465:5474   */\n      dup4\n        /* \"#utility.yul\":5461:5479   */\n      add\n        /* \"#utility.yul\":5448:5480   */\n      calldataload\n        /* \"#utility.yul\":5507:5525   */\n      0xffffffffffffffff\n        /* \"#utility.yul\":5499:5505   */\n      dup2\n        /* \"#utility.yul\":5496:5526   */\n      gt\n        /* \"#utility.yul\":5493:5610   */\n      iszero\n      tag_269\n      jumpi\n        /* \"#utility.yul\":5529:5608   */\n      tag_270\n      tag_155\n      jump\t// in\n    tag_270:\n        /* \"#utility.yul\":5493:5610   */\n    tag_269:\n        /* \"#utility.yul\":5634:5697   */\n      tag_271\n        /* \"#utility.yul\":5689:5696   */\n      dup6\n        /* \"#utility.yul\":5680:5686   */\n      dup3\n        /* \"#utility.yul\":5669:5678   */\n      dup7\n        /* \"#utility.yul\":5665:5687   */\n      add\n        /* \"#utility.yul\":5634:5697   */\n      tag_176\n      jump\t// in\n    tag_271:\n        /* \"#utility.yul\":5624:5697   */\n      swap2\n      pop\n        /* \"#utility.yul\":5419:5707   */\n      pop\n        /* \"#utility.yul\":5044:5714   */\n      swap3\n      pop\n      swap3\n      swap1\n      pop\n      jump\t// out\n        /* \"#utility.yul\":5720:5797   */\n    tag_177:\n        /* \"#utility.yul\":5757:5764   */\n      0x00\n        /* \"#utility.yul\":5786:5791   */\n      dup2\n        /* \"#utility.yul\":5775:5791   */\n      swap1\n      pop\n        /* \"#utility.yul\":5720:5797   */\n      swap2\n      swap1\n      pop\n      jump\t// out\n        /* \"#utility.yul\":5803:5925   */\n    tag_178:\n        /* \"#utility.yul\":5876:5900   */\n      tag_274\n        /* \"#utility.yul\":5894:5899   */\n      dup2\n        /* \"#utility.yul\":5876:5900   */\n      tag_177\n      jump\t// in\n    tag_274:\n        /* \"#utility.yul\":5869:5874   */\n      dup2\n        /* \"#utility.yul\":5866:5901   */\n      eq\n        /* \"#utility.yul\":5856:5919   */\n      tag_275\n      jumpi\n        /* \"#utility.yul\":5915:5916   */\n      0x00\n        /* \"#utility.yul\":5912:5913   */\n      dup1\n        /* \"#utility.yul\":5905:5917   */\n      revert\n        /* \"#utility.yul\":5856:5919   */\n    tag_275:\n        /* \"#utility.yul\":5803:5925   */\n      pop\n      jump\t// out\n        /* \"#utility.yul\":5931:6070   */\n    tag_179:\n        /* \"#utility.yul\":5977:5982   */\n      0x00\n        /* \"#utility.yul\":6015:6021   */\n      dup2\n        /* \"#utility.yul\":6002:6022   */\n      calldataload\n        /* \"#utility.yul\":5993:6022   */\n      swap1\n      pop\n        /* \"#utility.yul\":6031:6064   */\n      tag_277\n        /* \"#utility.yul\":6058:6063   */\n      dup2\n        /* \"#utility.yul\":6031:6064   */\n      tag_178\n      jump\t// in\n    tag_277:\n        /* \"#utility.yul\":5931:6070   */\n      swap3\n      swap2\n      pop\n      pop\n      jump\t// out\n        /* \"#utility.yul\":6076:6405   */\n    tag_31:\n        /* \"#utility.yul\":6135:6141   */\n      0x00\n        /* \"#utility.yul\":6184:6186   */\n      0x20\n        /* \"#utility.yul\":6172:6181   */\n      dup3\n        /* \"#utility.yul\":6163:6170   */\n      dup5\n        /* \"#utility.yul\":6159:6182   */\n      sub\n        /* \"#utility.yul\":6155:6187   */\n      slt\n        /* \"#utility.yul\":6152:6271   */\n      iszero\n      tag_279\n      jumpi\n        /* \"#utility.yul\":6190:6269   */\n      tag_280\n      tag_154\n      jump\t// in\n    tag_280:\n        /* \"#utility.yul\":6152:6271   */\n    tag_279:\n        /* \"#utility.yul\":6310:6311   */\n      0x00\n        /* \"#utility.yul\":6335:6388   */\n      tag_281\n        /* \"#utility.yul\":6380:6387   */\n      dup5\n        /* \"#utility.yul\":6371:6377   */\n      dup3\n        /* \"#utility.yul\":6360:6369   */\n      dup6\n        /* \"#utility.yul\":6356:6378   */\n      add\n        /* \"#utility.yul\":6335:6388   */\n      tag_179\n      jump\t// in\n    tag_281:\n        /* \"#utility.yul\":6325:6388   */\n      swap2\n      pop\n        /* \"#utility.yul\":6281:6398   */\n      pop\n        /* \"#utility.yul\":6076:6405   */\n      swap3\n      swap2\n      pop\n      pop\n      jump\t// out\n        /* \"#utility.yul\":6411:6756   */\n    tag_35:\n        /* \"#utility.yul\":6478:6484   */\n      0x00\n        /* \"#utility.yul\":6527:6529   */\n      0x20\n        /* \"#utility.yul\":6515:6524   */\n      dup3\n        /* \"#utility.yul\":6506:6513   */\n      dup5\n        /* \"#utility.yul\":6502:6525   */\n      sub\n        /* \"#utility.yul\":6498:6530   */\n      slt\n        /* \"#utility.yul\":6495:6614   */\n      iszero\n      tag_283\n      jumpi\n        /* \"#utility.yul\":6533:6612   */\n      tag_284\n      tag_154\n      jump\t// in\n    tag_284:\n        /* \"#utility.yul\":6495:6614   */\n    tag_283:\n        /* \"#utility.yul\":6653:6654   */\n      0x00\n        /* \"#utility.yul\":6678:6739   */\n      tag_285\n        /* \"#utility.yul\":6731:6738   */\n      dup5\n        /* \"#utility.yul\":6722:6728   */\n      dup3\n        /* \"#utility.yul\":6711:6720   */\n      dup6\n        /* \"#utility.yul\":6707:6729   */\n      add\n        /* \"#utility.yul\":6678:6739   */\n      tag_167\n      jump\t// in\n    tag_285:\n        /* \"#utility.yul\":6668:6739   */\n      swap2\n      pop\n        /* \"#utility.yul\":6624:6749   */\n      pop\n        /* \"#utility.yul\":6411:6756   */\n      swap3\n      swap2\n      pop\n      pop\n      jump\t// out\n        /* \"#utility.yul\":6762:6904   */\n    tag_180:\n        /* \"#utility.yul\":6865:6897   */\n      tag_287\n        /* \"#utility.yul\":6891:6896   */\n      dup2\n        /* \"#utility.yul\":6865:6897   */\n      tag_165\n      jump\t// in\n    tag_287:\n        /* \"#utility.yul\":6860:6863   */\n      dup3\n        /* \"#utility.yul\":6853:6898   */\n      mstore\n        /* \"#utility.yul\":6762:6904   */\n      pop\n      pop\n      jump\t// out\n        /* \"#utility.yul\":6910:7164   */\n    tag_45:\n        /* \"#utility.yul\":7019:7023   */\n      0x00\n        /* \"#utility.yul\":7057:7059   */\n      0x20\n        /* \"#utility.yul\":7046:7055   */\n      dup3\n        /* \"#utility.yul\":7042:7060   */\n      add\n        /* \"#utility.yul\":7034:7060   */\n      swap1\n      pop\n        /* \"#utility.yul\":7070:7157   */\n      tag_289\n        /* \"#utility.yul\":7154:7155   */\n      0x00\n        /* \"#utility.yul\":7143:7152   */\n      dup4\n        /* \"#utility.yul\":7139:7156   */\n      add\n        /* \"#utility.yul\":7130:7136   */\n      dup5\n        /* \"#utility.yul\":7070:7157   */\n      tag_180\n      jump\t// in\n    tag_289:\n        /* \"#utility.yul\":6910:7164   */\n      swap3\n      swap2\n      pop\n      pop\n      jump\t// out\n        /* \"#utility.yul\":7170:7288   */\n    tag_181:\n        /* \"#utility.yul\":7257:7281   */\n      tag_291\n        /* \"#utility.yul\":7275:7280   */\n      dup2\n        /* \"#utility.yul\":7257:7281   */\n      tag_157\n      jump\t// in\n    tag_291:\n        /* \"#utility.yul\":7252:7255   */\n      dup3\n        /* \"#utility.yul\":7245:7282   */\n      mstore\n        /* \"#utility.yul\":7170:7288   */\n      pop\n      pop\n      jump\t// out\n        /* \"#utility.yul\":7294:7516   */\n    tag_52:\n        /* \"#utility.yul\":7387:7391   */\n      0x00\n        /* \"#utility.yul\":7425:7427   */\n      0x20\n        /* \"#utility.yul\":7414:7423   */\n      dup3\n        /* \"#utility.yul\":7410:7428   */\n      add\n        /* \"#utility.yul\":7402:7428   */\n      swap1\n      pop\n        /* \"#utility.yul\":7438:7509   */\n      tag_293\n        /* \"#utility.yul\":7506:7507   */\n      0x00\n        /* \"#utility.yul\":7495:7504   */\n      dup4\n        /* \"#utility.yul\":7491:7508   */\n      add\n        /* \"#utility.yul\":7482:7488   */\n      dup5\n        /* \"#utility.yul\":7438:7509   */\n      tag_181\n      jump\t// in\n    tag_293:\n        /* \"#utility.yul\":7294:7516   */\n      swap3\n      swap2\n      pop\n      pop\n      jump\t// out\n        /* \"#utility.yul\":7522:7702   */\n    tag_182:\n        /* \"#utility.yul\":7570:7647   */\n      0x4e487b7100000000000000000000000000000000000000000000000000000000\n        /* \"#utility.yul\":7567:7568   */\n      0x00\n        /* \"#utility.yul\":7560:7648   */\n      mstore\n        /* \"#utility.yul\":7667:7671   */\n      0x22\n        /* \"#utility.yul\":7664:7665   */\n      0x04\n        /* \"#utility.yul\":7657:7672   */\n      mstore\n        /* \"#utility.yul\":7691:7695   */\n      0x24\n        /* \"#utility.yul\":7688:7689   */\n      0x00\n        /* \"#utility.yul\":7681:7696   */\n      revert\n        /* \"#utility.yul\":7708:8028   */\n    tag_63:\n        /* \"#utility.yul\":7752:7758   */\n      0x00\n        /* \"#utility.yul\":7789:7790   */\n      0x02\n        /* \"#utility.yul\":7783:7787   */\n      dup3\n        /* \"#utility.yul\":7779:7791   */\n      div\n        /* \"#utility.yul\":7769:7791   */\n      swap1\n      pop\n        /* \"#utility.yul\":7836:7837   */\n      0x01\n        /* \"#utility.yul\":7830:7834   */\n      dup3\n        /* \"#utility.yul\":7826:7838   */\n      and\n        /* \"#utility.yul\":7857:7875   */\n      dup1\n        /* \"#utility.yul\":7847:7928   */\n      tag_296\n      jumpi\n        /* \"#utility.yul\":7913:7917   */\n      0x7f\n        /* \"#utility.yul\":7905:7911   */\n      dup3\n        /* \"#utility.yul\":7901:7918   */\n      and\n        /* \"#utility.yul\":7891:7918   */\n      swap2\n      pop\n        /* \"#utility.yul\":7847:7928   */\n    tag_296:\n        /* \"#utility.yul\":7975:7977   */\n      0x20\n        /* \"#utility.yul\":7967:7973   */\n      dup3\n        /* \"#utility.yul\":7964:7978   */\n      lt\n        /* \"#utility.yul\":7944:7962   */\n      dup2\n        /* \"#utility.yul\":7941:7979   */\n      sub\n        /* \"#utility.yul\":7938:8022   */\n      tag_297\n      jumpi\n        /* \"#utility.yul\":7994:8012   */\n      tag_298\n      tag_182\n      jump\t// in\n    tag_298:\n        /* \"#utility.yul\":7938:8022   */\n    tag_297:\n        /* \"#utility.yul\":7759:8028   */\n      pop\n        /* \"#utility.yul\":7708:8028   */\n      swap2\n      swap1\n      pop\n      jump\t// out\n        /* \"#utility.yul\":8034:8214   */\n    tag_183:\n        /* \"#utility.yul\":8174:8206   */\n      0x6f6e6c79206f776e65722063616e207069636b207468652077696e6e65720000\n        /* \"#utility.yul\":8170:8171   */\n      0x00\n        /* \"#utility.yul\":8162:8168   */\n      dup3\n        /* \"#utility.yul\":8158:8172   */\n      add\n        /* \"#utility.yul\":8151:8207   */\n      mstore\n        /* \"#utility.yul\":8034:8214   */\n      pop\n      jump\t// out\n        /* \"#utility.yul\":8220:8586   */\n    tag_184:\n        /* \"#utility.yul\":8362:8365   */\n      0x00\n        /* \"#utility.yul\":8383:8450   */\n      tag_301\n        /* \"#utility.yul\":8447:8449   */\n      0x1e\n        /* \"#utility.yul\":8442:8445   */\n      dup4\n        /* \"#utility.yul\":8383:8450   */\n      tag_161\n      jump\t// in\n    tag_301:\n        /* \"#utility.yul\":8376:8450   */\n      swap2\n      pop\n        /* \"#utility.yul\":8459:8552   */\n      tag_302\n        /* \"#utility.yul\":8548:8551   */\n      dup3\n        /* \"#utility.yul\":8459:8552   */\n      tag_183\n      jump\t// in\n    tag_302:\n        /* \"#utility.yul\":8577:8579   */\n      0x20\n        /* \"#utility.yul\":8572:8575   */\n      dup3\n        /* \"#utility.yul\":8568:8580   */\n      add\n        /* \"#utility.yul\":8561:8580   */\n      swap1\n      pop\n        /* \"#utility.yul\":8220:8586   */\n      swap2\n      swap1\n      pop\n      jump\t// out\n        /* \"#utility.yul\":8592:9011   */\n    tag_71:\n        /* \"#utility.yul\":8758:8762   */\n      0x00\n        /* \"#utility.yul\":8796:8798   */\n      0x20\n        /* \"#utility.yul\":8785:8794   */\n      dup3\n        /* \"#utility.yul\":8781:8799   */\n      add\n        /* \"#utility.yul\":8773:8799   */\n      swap1\n      pop\n        /* \"#utility.yul\":8845:8854   */\n      dup2\n        /* \"#utility.yul\":8839:8843   */\n      dup2\n        /* \"#utility.yul\":8835:8855   */\n      sub\n        /* \"#utility.yul\":8831:8832   */\n      0x00\n        /* \"#utility.yul\":8820:8829   */\n      dup4\n        /* \"#utility.yul\":8816:8833   */\n      add\n        /* \"#utility.yul\":8809:8856   */\n      mstore\n        /* \"#utility.yul\":8873:9004   */\n      tag_304\n        /* \"#utility.yul\":8999:9003   */\n      dup2\n        /* \"#utility.yul\":8873:9004   */\n      tag_184\n      jump\t// in\n    tag_304:\n        /* \"#utility.yul\":8865:9004   */\n      swap1\n      pop\n        /* \"#utility.yul\":8592:9011   */\n      swap2\n      swap1\n      pop\n      jump\t// out\n        /* \"#utility.yul\":9017:9197   */\n    tag_185:\n        /* \"#utility.yul\":9065:9142   */\n      0x4e487b7100000000000000000000000000000000000000000000000000000000\n        /* \"#utility.yul\":9062:9063   */\n      0x00\n        /* \"#utility.yul\":9055:9143   */\n      mstore\n        /* \"#utility.yul\":9162:9166   */\n      0x11\n        /* \"#utility.yul\":9159:9160   */\n      0x04\n        /* \"#utility.yul\":9152:9167   */\n      mstore\n        /* \"#utility.yul\":9186:9190   */\n      0x24\n        /* \"#utility.yul\":9183:9184   */\n      0x00\n        /* \"#utility.yul\":9176:9191   */\n      revert\n        /* \"#utility.yul\":9203:9397   */\n    tag_75:\n        /* \"#utility.yul\":9243:9247   */\n      0x00\n        /* \"#utility.yul\":9263:9283   */\n      tag_307\n        /* \"#utility.yul\":9281:9282   */\n      dup3\n        /* \"#utility.yul\":9263:9283   */\n      tag_177\n      jump\t// in\n    tag_307:\n        /* \"#utility.yul\":9258:9283   */\n      swap2\n      pop\n        /* \"#utility.yul\":9297:9317   */\n      tag_308\n        /* \"#utility.yul\":9315:9316   */\n      dup4\n        /* \"#utility.yul\":9297:9317   */\n      tag_177\n      jump\t// in\n    tag_308:\n        /* \"#utility.yul\":9292:9317   */\n      swap3\n      pop\n        /* \"#utility.yul\":9341:9342   */\n      dup3\n        /* \"#utility.yul\":9338:9339   */\n      dup3\n        /* \"#utility.yul\":9334:9343   */\n      sub\n        /* \"#utility.yul\":9326:9343   */\n      swap1\n      pop\n        /* \"#utility.yul\":9365:9366   */\n      dup2\n        /* \"#utility.yul\":9359:9363   */\n      dup2\n        /* \"#utility.yul\":9356:9367   */\n      gt\n        /* \"#utility.yul\":9353:9390   */\n      iszero\n      tag_309\n      jumpi\n        /* \"#utility.yul\":9370:9388   */\n      tag_310\n      tag_185\n      jump\t// in\n    tag_310:\n        /* \"#utility.yul\":9353:9390   */\n    tag_309:\n        /* \"#utility.yul\":9203:9397   */\n      swap3\n      swap2\n      pop\n      pop\n      jump\t// out\n        /* \"#utility.yul\":9403:9583   */\n    tag_78:\n        /* \"#utility.yul\":9451:9528   */\n      0x4e487b7100000000000000000000000000000000000000000000000000000000\n        /* \"#utility.yul\":9448:9449   */\n      0x00\n        /* \"#utility.yul\":9441:9529   */\n      mstore\n        /* \"#utility.yul\":9548:9552   */\n      0x32\n        /* \"#utility.yul\":9545:9546   */\n      0x04\n        /* \"#utility.yul\":9538:9553   */\n      mstore\n        /* \"#utility.yul\":9572:9576   */\n      0x24\n        /* \"#utility.yul\":9569:9570   */\n      0x00\n        /* \"#utility.yul\":9562:9577   */\n      revert\n        /* \"#utility.yul\":9589:9769   */\n    tag_85:\n        /* \"#utility.yul\":9637:9714   */\n      0x4e487b7100000000000000000000000000000000000000000000000000000000\n        /* \"#utility.yul\":9634:9635   */\n      0x00\n        /* \"#utility.yul\":9627:9715   */\n      mstore\n        /* \"#utility.yul\":9734:9738   */\n      0x31\n        /* \"#utility.yul\":9731:9732   */\n      0x04\n        /* \"#utility.yul\":9724:9739   */\n      mstore\n        /* \"#utility.yul\":9758:9762   */\n      0x24\n        /* \"#utility.yul\":9755:9756   */\n      0x00\n        /* \"#utility.yul\":9748:9763   */\n      revert\n        /* \"#utility.yul\":9775:10008   */\n    tag_99:\n        /* \"#utility.yul\":9814:9817   */\n      0x00\n        /* \"#utility.yul\":9837:9861   */\n      tag_314\n        /* \"#utility.yul\":9855:9860   */\n      dup3\n        /* \"#utility.yul\":9837:9861   */\n      tag_177\n      jump\t// in\n    tag_314:\n        /* \"#utility.yul\":9828:9861   */\n      swap2\n      pop\n        /* \"#utility.yul\":9883:9949   */\n      0xffffffffffffffffffffffffffffffffffffffffffffffffffffffffffffffff\n        /* \"#utility.yul\":9876:9881   */\n      dup3\n        /* \"#utility.yul\":9873:9950   */\n      sub\n        /* \"#utility.yul\":9870:9973   */\n      tag_315\n      jumpi\n        /* \"#utility.yul\":9953:9971   */\n      tag_316\n      tag_185\n      jump\t// in\n    tag_316:\n        /* \"#utility.yul\":9870:9973   */\n    tag_315:\n        /* \"#utility.yul\":10000:10001   */\n      0x01\n        /* \"#utility.yul\":9993:9998   */\n      dup3\n        /* \"#utility.yul\":9989:10002   */\n      add\n        /* \"#utility.yul\":9982:10002   */\n      swap1\n      pop\n        /* \"#utility.yul\":9775:10008   */\n      swap2\n      swap1\n      pop\n      jump\t// out\n        /* \"#utility.yul\":10014:10167   */\n    tag_186:\n        /* \"#utility.yul\":10067:10073   */\n      0x00\n        /* \"#utility.yul\":10101:10106   */\n      dup2\n        /* \"#utility.yul\":10095:10107   */\n      sload\n        /* \"#utility.yul\":10085:10107   */\n      swap1\n      pop\n        /* \"#utility.yul\":10127:10160   */\n      tag_318\n        /* \"#utility.yul\":10153:10159   */\n      dup2\n        /* \"#utility.yul\":10127:10160   */\n      tag_63\n      jump\t// in\n    tag_318:\n        /* \"#utility.yul\":10117:10160   */\n      swap1\n      pop\n        /* \"#utility.yul\":10014:10167   */\n      swap2\n      swap1\n      pop\n      jump\t// out\n        /* \"#utility.yul\":10173:10314   */\n    tag_187:\n        /* \"#utility.yul\":10222:10226   */\n      0x00\n        /* \"#utility.yul\":10245:10248   */\n      dup2\n        /* \"#utility.yul\":10237:10248   */\n      swap1\n      pop\n        /* \"#utility.yul\":10268:10271   */\n      dup2\n        /* \"#utility.yul\":10265:10266   */\n      0x00\n        /* \"#utility.yul\":10258:10272   */\n      mstore\n        /* \"#utility.yul\":10302:10306   */\n      0x20\n        /* \"#utility.yul\":10299:10300   */\n      0x00\n        /* \"#utility.yul\":10289:10307   */\n      keccak256\n        /* \"#utility.yul\":10281:10307   */\n      swap1\n      pop\n        /* \"#utility.yul\":10173:10314   */\n      swap2\n      swap1\n      pop\n      jump\t// out\n        /* \"#utility.yul\":10320:10465   */\n    tag_188:\n        /* \"#utility.yul\":10373:10377   */\n      0x00\n        /* \"#utility.yul\":10396:10399   */\n      dup2\n        /* \"#utility.yul\":10388:10399   */\n      swap1\n      pop\n        /* \"#utility.yul\":10419:10422   */\n      dup2\n        /* \"#utility.yul\":10416:10417   */\n      0x00\n        /* \"#utility.yul\":10409:10423   */\n      mstore\n        /* \"#utility.yul\":10453:10457   */\n      0x20\n        /* \"#utility.yul\":10450:10451   */\n      0x00\n        /* \"#utility.yul\":10440:10458   */\n      keccak256\n        /* \"#utility.yul\":10432:10458   */\n      swap1\n      pop\n        /* \"#utility.yul\":10320:10465   */\n      swap2\n      swap1\n      pop\n      jump\t// out\n        /* \"#utility.yul\":10471:10564   */\n    tag_189:\n        /* \"#utility.yul\":10508:10514   */\n      0x00\n        /* \"#utility.yul\":10555:10557   */\n      0x20\n        /* \"#utility.yul\":10550:10552   */\n      0x1f\n        /* \"#utility.yul\":10543:10548   */\n      dup4\n        /* \"#utility.yul\":10539:10553   */\n      add\n        /* \"#utility.yul\":10535:10558   */\n      div\n        /* \"#utility.yul\":10525:10558   */\n      swap1\n      pop\n        /* \"#utility.yul\":10471:10564   */\n      swap2\n      swap1\n      pop\n      jump\t// out\n        /* \"#utility.yul\":10570:10677   */\n    tag_190:\n        /* \"#utility.yul\":10614:10622   */\n      0x00\n        /* \"#utility.yul\":10664:10669   */\n      dup3\n        /* \"#utility.yul\":10658:10662   */\n      dup3\n        /* \"#utility.yul\":10654:10670   */\n      shl\n        /* \"#utility.yul\":10633:10670   */\n      swap1\n      pop\n        /* \"#utility.yul\":10570:10677   */\n      swap3\n      swap2\n      pop\n      pop\n      jump\t// out\n        /* \"#utility.yul\":10683:11076   */\n    tag_191:\n        /* \"#utility.yul\":10752:10758   */\n      0x00\n        /* \"#utility.yul\":10802:10803   */\n      0x08\n        /* \"#utility.yul\":10790:10800   */\n      dup4\n        /* \"#utility.yul\":10786:10804   */\n      mul\n        /* \"#utility.yul\":10825:10922   */\n      tag_324\n        /* \"#utility.yul\":10855:10921   */\n      0xffffffffffffffffffffffffffffffffffffffffffffffffffffffffffffffff\n        /* \"#utility.yul\":10844:10853   */\n      dup3\n        /* \"#utility.yul\":10825:10922   */\n      tag_190\n      jump\t// in\n    tag_324:\n        /* \"#utility.yul\":10943:10982   */\n      tag_325\n        /* \"#utility.yul\":10973:10981   */\n      dup7\n        /* \"#utility.yul\":10962:10971   */\n      dup4\n        /* \"#utility.yul\":10943:10982   */\n      tag_190\n      jump\t// in\n    tag_325:\n        /* \"#utility.yul\":10931:10982   */\n      swap6\n      pop\n        /* \"#utility.yul\":11015:11019   */\n      dup1\n        /* \"#utility.yul\":11011:11020   */\n      not\n        /* \"#utility.yul\":11004:11009   */\n      dup5\n        /* \"#utility.yul\":11000:11021   */\n      and\n        /* \"#utility.yul\":10991:11021   */\n      swap4\n      pop\n        /* \"#utility.yul\":11064:11068   */\n      dup1\n        /* \"#utility.yul\":11054:11062   */\n      dup7\n        /* \"#utility.yul\":11050:11069   */\n      and\n        /* \"#utility.yul\":11043:11048   */\n      dup5\n        /* \"#utility.yul\":11040:11070   */\n      or\n        /* \"#utility.yul\":11030:11070   */\n      swap3\n      pop\n        /* \"#utility.yul\":10759:11076   */\n      pop\n      pop\n        /* \"#utility.yul\":10683:11076   */\n      swap4\n      swap3\n      pop\n      pop\n      pop\n      jump\t// out\n        /* \"#utility.yul\":11082:11142   */\n    tag_192:\n        /* \"#utility.yul\":11110:11113   */\n      0x00\n        /* \"#utility.yul\":11131:11136   */\n      dup2\n        /* \"#utility.yul\":11124:11136   */\n      swap1\n      pop\n        /* \"#utility.yul\":11082:11142   */\n      swap2\n      swap1\n      pop\n      jump\t// out\n        /* \"#utility.yul\":11148:11290   */\n    tag_193:\n        /* \"#utility.yul\":11198:11207   */\n      0x00\n        /* \"#utility.yul\":11231:11284   */\n      tag_328\n        /* \"#utility.yul\":11249:11283   */\n      tag_329\n        /* \"#utility.yul\":11258:11282   */\n      tag_330\n        /* \"#utility.yul\":11276:11281   */\n      dup5\n        /* \"#utility.yul\":11258:11282   */\n      tag_177\n      jump\t// in\n    tag_330:\n        /* \"#utility.yul\":11249:11283   */\n      tag_192\n      jump\t// in\n    tag_329:\n        /* \"#utility.yul\":11231:11284   */\n      tag_177\n      jump\t// in\n    tag_328:\n        /* \"#utility.yul\":11218:11284   */\n      swap1\n      pop\n        /* \"#utility.yul\":11148:11290   */\n      swap2\n      swap1\n      pop\n      jump\t// out\n        /* \"#utility.yul\":11296:11371   */\n    tag_194:\n        /* \"#utility.yul\":11339:11342   */\n      0x00\n        /* \"#utility.yul\":11360:11365   */\n      dup2\n        /* \"#utility.yul\":11353:11365   */\n      swap1\n      pop\n        /* \"#utility.yul\":11296:11371   */\n      swap2\n      swap1\n      pop\n      jump\t// out\n        /* \"#utility.yul\":11377:11646   */\n    tag_195:\n        /* \"#utility.yul\":11487:11526   */\n      tag_333\n        /* \"#utility.yul\":11518:11525   */\n      dup4\n        /* \"#utility.yul\":11487:11526   */\n      tag_193\n      jump\t// in\n    tag_333:\n        /* \"#utility.yul\":11548:11639   */\n      tag_334\n        /* \"#utility.yul\":11597:11638   */\n      tag_335\n        /* \"#utility.yul\":11621:11637   */\n      dup3\n        /* \"#utility.yul\":11597:11638   */\n      tag_194\n      jump\t// in\n    tag_335:\n        /* \"#utility.yul\":11589:11595   */\n      dup5\n        /* \"#utility.yul\":11582:11586   */\n      dup5\n        /* \"#utility.yul\":11576:11587   */\n      sload\n        /* \"#utility.yul\":11548:11639   */\n      tag_191\n      jump\t// in\n    tag_334:\n        /* \"#utility.yul\":11542:11546   */\n      dup3\n        /* \"#utility.yul\":11535:11640   */\n      sstore\n        /* \"#utility.yul\":11453:11646   */\n      pop\n        /* \"#utility.yul\":11377:11646   */\n      pop\n      pop\n      pop\n      jump\t// out\n        /* \"#utility.yul\":11652:11725   */\n    tag_196:\n        /* \"#utility.yul\":11697:11700   */\n      0x00\n        /* \"#utility.yul\":11652:11725   */\n      swap1\n      jump\t// out\n        /* \"#utility.yul\":11731:11920   */\n    tag_197:\n        /* \"#utility.yul\":11808:11840   */\n      tag_338\n      tag_196\n      jump\t// in\n    tag_338:\n        /* \"#utility.yul\":11849:11914   */\n      tag_339\n        /* \"#utility.yul\":11907:11913   */\n      dup2\n        /* \"#utility.yul\":11899:11905   */\n      dup5\n        /* \"#utility.yul\":11893:11897   */\n      dup5\n        /* \"#utility.yul\":11849:11914   */\n      tag_195\n      jump\t// in\n    tag_339:\n        /* \"#utility.yul\":11784:11920   */\n      pop\n        /* \"#utility.yul\":11731:11920   */\n      pop\n      pop\n      jump\t// out\n        /* \"#utility.yul\":11926:12112   */\n    tag_198:\n        /* \"#utility.yul\":11986:12106   */\n    tag_341:\n        /* \"#utility.yul\":12003:12006   */\n      dup2\n        /* \"#utility.yul\":11996:12001   */\n      dup2\n        /* \"#utility.yul\":11993:12007   */\n      lt\n        /* \"#utility.yul\":11986:12106   */\n      iszero\n      tag_343\n      jumpi\n        /* \"#utility.yul\":12057:12096   */\n      tag_344\n        /* \"#utility.yul\":12094:12095   */\n      0x00\n        /* \"#utility.yul\":12087:12092   */\n      dup3\n        /* \"#utility.yul\":12057:12096   */\n      tag_197\n      jump\t// in\n    tag_344:\n        /* \"#utility.yul\":12030:12031   */\n      0x01\n        /* \"#utility.yul\":12023:12028   */\n      dup2\n        /* \"#utility.yul\":12019:12032   */\n      add\n        /* \"#utility.yul\":12010:12032   */\n      swap1\n      pop\n        /* \"#utility.yul\":11986:12106   */\n      jump(tag_341)\n    tag_343:\n        /* \"#utility.yul\":11926:12112   */\n      pop\n      pop\n      jump\t// out\n        /* \"#utility.yul\":12118:12661   */\n    tag_199:\n        /* \"#utility.yul\":12219:12221   */\n      0x1f\n        /* \"#utility.yul\":12214:12217   */\n      dup3\n        /* \"#utility.yul\":12211:12222   */\n      gt\n        /* \"#utility.yul\":12208:12654   */\n      iszero\n      tag_346\n      jumpi\n        /* \"#utility.yul\":12253:12291   */\n      tag_347\n        /* \"#utility.yul\":12285:12290   */\n      dup2\n        /* \"#utility.yul\":12253:12291   */\n      tag_187\n      jump\t// in\n    tag_347:\n        /* \"#utility.yul\":12337:12366   */\n      tag_348\n        /* \"#utility.yul\":12355:12365   */\n      dup5\n        /* \"#utility.yul\":12337:12366   */\n      tag_189\n      jump\t// in\n    tag_348:\n        /* \"#utility.yul\":12327:12335   */\n      dup2\n        /* \"#utility.yul\":12323:12367   */\n      add\n        /* \"#utility.yul\":12520:12522   */\n      0x20\n        /* \"#utility.yul\":12508:12518   */\n      dup6\n        /* \"#utility.yul\":12505:12523   */\n      lt\n        /* \"#utility.yul\":12502:12551   */\n      iszero\n      tag_349\n      jumpi\n        /* \"#utility.yul\":12541:12549   */\n      dup2\n        /* \"#utility.yul\":12526:12549   */\n      swap1\n      pop\n        /* \"#utility.yul\":12502:12551   */\n    tag_349:\n        /* \"#utility.yul\":12564:12644   */\n      tag_350\n        /* \"#utility.yul\":12620:12642   */\n      tag_351\n        /* \"#utility.yul\":12638:12641   */\n      dup6\n        /* \"#utility.yul\":12620:12642   */\n      tag_189\n      jump\t// in\n    tag_351:\n        /* \"#utility.yul\":12610:12618   */\n      dup4\n        /* \"#utility.yul\":12606:12643   */\n      add\n        /* \"#utility.yul\":12593:12604   */\n      dup3\n        /* \"#utility.yul\":12564:12644   */\n      tag_198\n      jump\t// in\n    tag_350:\n        /* \"#utility.yul\":12223:12654   */\n      pop\n      pop\n        /* \"#utility.yul\":12208:12654   */\n    tag_346:\n        /* \"#utility.yul\":12118:12661   */\n      pop\n      pop\n      pop\n      jump\t// out\n        /* \"#utility.yul\":12667:12784   */\n    tag_200:\n        /* \"#utility.yul\":12721:12729   */\n      0x00\n        /* \"#utility.yul\":12771:12776   */\n      dup3\n        /* \"#utility.yul\":12765:12769   */\n      dup3\n        /* \"#utility.yul\":12761:12777   */\n      shr\n        /* \"#utility.yul\":12740:12777   */\n      swap1\n      pop\n        /* \"#utility.yul\":12667:12784   */\n      swap3\n      swap2\n      pop\n      pop\n      jump\t// out\n        /* \"#utility.yul\":12790:12959   */\n    tag_201:\n        /* \"#utility.yul\":12834:12840   */\n      0x00\n        /* \"#utility.yul\":12867:12918   */\n      tag_354\n        /* \"#utility.yul\":12915:12916   */\n      0x00\n        /* \"#utility.yul\":12911:12917   */\n      not\n        /* \"#utility.yul\":12903:12908   */\n      dup5\n        /* \"#utility.yul\":12900:12901   */\n      0x08\n        /* \"#utility.yul\":12896:12909   */\n      mul\n        /* \"#utility.yul\":12867:12918   */\n      tag_200\n      jump\t// in\n    tag_354:\n        /* \"#utility.yul\":12863:12919   */\n      not\n        /* \"#utility.yul\":12948:12952   */\n      dup1\n        /* \"#utility.yul\":12942:12946   */\n      dup4\n        /* \"#utility.yul\":12938:12953   */\n      and\n        /* \"#utility.yul\":12928:12953   */\n      swap2\n      pop\n        /* \"#utility.yul\":12841:12959   */\n      pop\n        /* \"#utility.yul\":12790:12959   */\n      swap3\n      swap2\n      pop\n      pop\n      jump\t// out\n        /* \"#utility.yul\":12964:13259   */\n    tag_202:\n        /* \"#utility.yul\":13040:13044   */\n      0x00\n        /* \"#utility.yul\":13186:13215   */\n      tag_356\n        /* \"#utility.yul\":13211:13214   */\n      dup4\n        /* \"#utility.yul\":13205:13209   */\n      dup4\n        /* \"#utility.yul\":13186:13215   */\n      tag_201\n      jump\t// in\n    tag_356:\n        /* \"#utility.yul\":13178:13215   */\n      swap2\n      pop\n        /* \"#utility.yul\":13248:13251   */\n      dup3\n        /* \"#utility.yul\":13245:13246   */\n      0x02\n        /* \"#utility.yul\":13241:13252   */\n      mul\n        /* \"#utility.yul\":13235:13239   */\n      dup3\n        /* \"#utility.yul\":13232:13253   */\n      or\n        /* \"#utility.yul\":13224:13253   */\n      swap1\n      pop\n        /* \"#utility.yul\":12964:13259   */\n      swap3\n      swap2\n      pop\n      pop\n      jump\t// out\n        /* \"#utility.yul\":13264:14727   */\n    tag_139:\n        /* \"#utility.yul\":13379:13382   */\n      dup2\n        /* \"#utility.yul\":13373:13377   */\n      dup2\n        /* \"#utility.yul\":13370:13383   */\n      sub\n        /* \"#utility.yul\":13367:13393   */\n      tag_358\n      jumpi\n        /* \"#utility.yul\":13386:13391   */\n      pop\n      pop\n      jump(tag_357)\n        /* \"#utility.yul\":13367:13393   */\n    tag_358:\n        /* \"#utility.yul\":13417:13455   */\n      tag_359\n        /* \"#utility.yul\":13451:13454   */\n      dup3\n        /* \"#utility.yul\":13417:13455   */\n      tag_186\n      jump\t// in\n    tag_359:\n        /* \"#utility.yul\":13520:13538   */\n      0xffffffffffffffff\n        /* \"#utility.yul\":13512:13518   */\n      dup2\n        /* \"#utility.yul\":13509:13539   */\n      gt\n        /* \"#utility.yul\":13506:13562   */\n      iszero\n      tag_360\n      jumpi\n        /* \"#utility.yul\":13542:13560   */\n      tag_361\n      tag_170\n      jump\t// in\n    tag_361:\n        /* \"#utility.yul\":13506:13562   */\n    tag_360:\n        /* \"#utility.yul\":13586:13624   */\n      tag_362\n        /* \"#utility.yul\":13618:13622   */\n      dup3\n        /* \"#utility.yul\":13612:13623   */\n      sload\n        /* \"#utility.yul\":13586:13624   */\n      tag_63\n      jump\t// in\n    tag_362:\n        /* \"#utility.yul\":13671:13738   */\n      tag_363\n        /* \"#utility.yul\":13731:13737   */\n      dup3\n        /* \"#utility.yul\":13723:13729   */\n      dup3\n        /* \"#utility.yul\":13717:13721   */\n      dup6\n        /* \"#utility.yul\":13671:13738   */\n      tag_199\n      jump\t// in\n    tag_363:\n        /* \"#utility.yul\":13765:13766   */\n      0x00\n        /* \"#utility.yul\":13794:13796   */\n      0x1f\n        /* \"#utility.yul\":13786:13792   */\n      dup4\n        /* \"#utility.yul\":13783:13797   */\n      gt\n        /* \"#utility.yul\":13811:13812   */\n      0x01\n        /* \"#utility.yul\":13806:14482   */\n      dup2\n      eq\n      tag_365\n      jumpi\n        /* \"#utility.yul\":14526:14527   */\n      0x00\n        /* \"#utility.yul\":14543:14549   */\n      dup5\n        /* \"#utility.yul\":14540:14617   */\n      iszero\n      tag_366\n      jumpi\n        /* \"#utility.yul\":14592:14601   */\n      dup3\n        /* \"#utility.yul\":14587:14590   */\n      dup8\n        /* \"#utility.yul\":14583:14602   */\n      add\n        /* \"#utility.yul\":14577:14603   */\n      sload\n        /* \"#utility.yul\":14568:14603   */\n      swap1\n      pop\n        /* \"#utility.yul\":14540:14617   */\n    tag_366:\n        /* \"#utility.yul\":14643:14710   */\n      tag_367\n        /* \"#utility.yul\":14703:14709   */\n      dup6\n        /* \"#utility.yul\":14696:14701   */\n      dup3\n        /* \"#utility.yul\":14643:14710   */\n      tag_202\n      jump\t// in\n    tag_367:\n        /* \"#utility.yul\":14637:14641   */\n      dup7\n        /* \"#utility.yul\":14630:14711   */\n      sstore\n        /* \"#utility.yul\":14499:14721   */\n      pop\n        /* \"#utility.yul\":13776:14721   */\n      jump(tag_364)\n        /* \"#utility.yul\":13806:14482   */\n    tag_365:\n        /* \"#utility.yul\":13858:13862   */\n      0x1f\n        /* \"#utility.yul\":13854:13863   */\n      not\n        /* \"#utility.yul\":13846:13852   */\n      dup5\n        /* \"#utility.yul\":13842:13864   */\n      and\n        /* \"#utility.yul\":13884:13924   */\n      tag_368\n        /* \"#utility.yul\":13920:13923   */\n      dup8\n        /* \"#utility.yul\":13884:13924   */\n      tag_188\n      jump\t// in\n    tag_368:\n        /* \"#utility.yul\":13877:13924   */\n      swap7\n      pop\n        /* \"#utility.yul\":13951:13988   */\n      tag_369\n        /* \"#utility.yul\":13983:13987   */\n      dup7\n        /* \"#utility.yul\":13951:13988   */\n      tag_187\n      jump\t// in\n    tag_369:\n        /* \"#utility.yul\":14010:14011   */\n      0x00\n        /* \"#utility.yul\":14024:14231   */\n    tag_370:\n        /* \"#utility.yul\":14038:14045   */\n      dup3\n        /* \"#utility.yul\":14035:14036   */\n      dup2\n        /* \"#utility.yul\":14032:14046   */\n      lt\n        /* \"#utility.yul\":14024:14231   */\n      iszero\n      tag_372\n      jumpi\n        /* \"#utility.yul\":14117:14126   */\n      dup5\n        /* \"#utility.yul\":14112:14115   */\n      dup10\n        /* \"#utility.yul\":14108:14127   */\n      add\n        /* \"#utility.yul\":14102:14128   */\n      sload\n        /* \"#utility.yul\":14094:14100   */\n      dup3\n        /* \"#utility.yul\":14087:14129   */\n      sstore\n        /* \"#utility.yul\":14168:14169   */\n      0x01\n        /* \"#utility.yul\":14160:14166   */\n      dup3\n        /* \"#utility.yul\":14156:14170   */\n      add\n        /* \"#utility.yul\":14146:14170   */\n      swap2\n      pop\n        /* \"#utility.yul\":14215:14216   */\n      0x01\n        /* \"#utility.yul\":14204:14213   */\n      dup6\n        /* \"#utility.yul\":14200:14217   */\n      add\n        /* \"#utility.yul\":14187:14217   */\n      swap5\n      pop\n        /* \"#utility.yul\":14061:14065   */\n      0x20\n        /* \"#utility.yul\":14058:14059   */\n      dup2\n        /* \"#utility.yul\":14054:14066   */\n      add\n        /* \"#utility.yul\":14049:14066   */\n      swap1\n      pop\n        /* \"#utility.yul\":14024:14231   */\n      jump(tag_370)\n    tag_372:\n        /* \"#utility.yul\":14259:14265   */\n      dup7\n        /* \"#utility.yul\":14250:14257   */\n      dup4\n        /* \"#utility.yul\":14247:14266   */\n      lt\n        /* \"#utility.yul\":14244:14423   */\n      iszero\n      tag_373\n      jumpi\n        /* \"#utility.yul\":14317:14326   */\n      dup5\n        /* \"#utility.yul\":14312:14315   */\n      dup10\n        /* \"#utility.yul\":14308:14327   */\n      add\n        /* \"#utility.yul\":14302:14328   */\n      sload\n        /* \"#utility.yul\":14360:14408   */\n      tag_374\n        /* \"#utility.yul\":14402:14406   */\n      0x1f\n        /* \"#utility.yul\":14394:14400   */\n      dup10\n        /* \"#utility.yul\":14390:14407   */\n      and\n        /* \"#utility.yul\":14379:14388   */\n      dup3\n        /* \"#utility.yul\":14360:14408   */\n      tag_201\n      jump\t// in\n    tag_374:\n        /* \"#utility.yul\":14352:14358   */\n      dup4\n        /* \"#utility.yul\":14345:14409   */\n      sstore\n        /* \"#utility.yul\":14267:14423   */\n      pop\n        /* \"#utility.yul\":14244:14423   */\n    tag_373:\n        /* \"#utility.yul\":14469:14470   */\n      0x01\n        /* \"#utility.yul\":14465:14466   */\n      0x02\n        /* \"#utility.yul\":14457:14463   */\n      dup9\n        /* \"#utility.yul\":14453:14467   */\n      mul\n        /* \"#utility.yul\":14449:14471   */\n      add\n        /* \"#utility.yul\":14443:14447   */\n      dup9\n        /* \"#utility.yul\":14436:14472   */\n      sstore\n        /* \"#utility.yul\":13813:14482   */\n      pop\n      pop\n      pop\n        /* \"#utility.yul\":13776:14721   */\n    tag_364:\n      pop\n        /* \"#utility.yul\":13357:14727   */\n      pop\n      pop\n      pop\n        /* \"#utility.yul\":13264:14727   */\n      pop\n      pop\n    tag_357:\n      jump\t// out\n\n    auxdata: 0xa2646970667358221220df1e4e7b79c8ba904b5c67d99df715e10f828b821c9efd176228f3ff4ad6f34e64736f6c63430008110033\n}\n",
				"bytecode": {
					"linkReferences": {},
					"object": "60806040526040518061018001604052806040518060400160405280600881526020017f646573637269626500000000000000000000000000000000000000000000000081525081526020016040518060400160405280600681526020017f616374696f6e000000000000000000000000000000000000000000000000000081525081526020016040518060400160405280600481526020017f746f776e0000000000000000000000000000000000000000000000000000000081525081526020016040518060400160405280600481526020017f676966740000000000000000000000000000000000000000000000000000000081525081526020016040518060400160405280600781526020017f6361706974616c0000000000000000000000000000000000000000000000000081525081526020016040518060400160405280600581526020017f726976657200000000000000000000000000000000000000000000000000000081525081526020016040518060400160405280600681526020017f656e726f6c6c000000000000000000000000000000000000000000000000000081525081526020016040518060400160405280600481526020017f6d6561740000000000000000000000000000000000000000000000000000000081525081526020016040518060400160405280600681526020017f776973646f6d000000000000000000000000000000000000000000000000000081525081526020016040518060400160405280600581526020017f737465656c00000000000000000000000000000000000000000000000000000081525081526020016040518060400160405280600481526020017f6e65636b0000000000000000000000000000000000000000000000000000000081525081526020016040518060400160405280600481526020017f6465667900000000000000000000000000000000000000000000000000000000815250815250600290600c620002e492919062000339565b50348015620002f257600080fd5b50336000806101000a81548173ffffffffffffffffffffffffffffffffffffffff021916908373ffffffffffffffffffffffffffffffffffffffff16021790555062000787565b82805482825590600052602060002090810192821562000386579160200282015b8281111562000385578251829081620003749190620006a0565b50916020019190600101906200035a565b5b50905062000395919062000399565b5090565b5b80821115620003bd5760008181620003b39190620003c1565b506001016200039a565b5090565b508054620003cf906200048f565b6000825580601f10620003e3575062000404565b601f01602090049060005260206000209081019062000403919062000407565b5b50565b5b808211156200042257600081600090555060010162000408565b5090565b600081519050919050565b7f4e487b7100000000000000000000000000000000000000000000000000000000600052604160045260246000fd5b7f4e487b7100000000000000000000000000000000000000000000000000000000600052602260045260246000fd5b60006002820490506001821680620004a857607f821691505b602082108103620004be57620004bd62000460565b5b50919050565b60008190508160005260206000209050919050565b60006020601f8301049050919050565b600082821b905092915050565b600060088302620005287fffffffffffffffffffffffffffffffffffffffffffffffffffffffffffffffff82620004e9565b620005348683620004e9565b95508019841693508086168417925050509392505050565b6000819050919050565b6000819050919050565b6000620005816200057b62000575846200054c565b62000556565b6200054c565b9050919050565b6000819050919050565b6200059d8362000560565b620005b5620005ac8262000588565b848454620004f6565b825550505050565b600090565b620005cc620005bd565b620005d981848462000592565b505050565b5b818110156200060157620005f5600082620005c2565b600181019050620005df565b5050565b601f82111562000650576200061a81620004c4565b6200062584620004d9565b8101602085101562000635578190505b6200064d6200064485620004d9565b830182620005de565b50505b505050565b600082821c905092915050565b6000620006756000198460080262000655565b1980831691505092915050565b600062000690838362000662565b9150826002028217905092915050565b620006ab8262000426565b67ffffffffffffffff811115620006c757620006c662000431565b5b620006d382546200048f565b620006e082828562000605565b600060209050601f83116001811462000718576000841562000703578287015190505b6200070f858262000682565b8655506200077f565b601f1984166200072886620004c4565b60005b8281101562000752578489015182556001820191506020850194506020810190506200072b565b868310156200077257848901516200076e601f89168262000662565b8355505b6001600288020188555050505b505050505050565b6113ed80620007976000396000f3fe608060405234801561001057600080fd5b50600436106100b45760003560e01c80637427a40c116100715780637427a40c14610189578063790a0940146101b95780638da5cb5b146101d55780639a5eec33146101f3578063d534cc0e146101fd578063e4fc6b6d1461022d576100b4565b80630623f1d7146100b95780631e1cf160146100d55780633f8b4866146101055780634cc822151461012157806350e781911461013d57806357a858fc14610159575b600080fd5b6100d360048036038101906100ce9190610b91565b610237565b005b6100ef60048036038101906100ea9190610b91565b61023a565b6040516100fc9190610c4e565b60405180910390f35b61011f600480360381019061011a9190610de3565b6102da565b005b61013b60048036038101906101369190610e75565b61036c565b005b61015760048036038101906101529190610ea2565b610460565b005b610173600480360381019061016e9190610e75565b610590565b6040516101809190610c4e565b60405180910390f35b6101a3600480360381019061019e9190610e75565b61063c565b6040516101b09190610ede565b60405180910390f35b6101d360048036038101906101ce9190610ea2565b61067b565b005b6101dd61076f565b6040516101ea9190610f08565b60405180910390f35b6101fb610793565b005b61021760048036038101906102129190610b91565b610823565b6040516102249190610c4e565b60405180910390f35b6102356108c3565b005b50565b6004602052806000526040600020600091509050805461025990610f52565b80601f016020809104026020016040519081016040528092919081815260200182805461028590610f52565b80156102d25780601f106102a7576101008083540402835291602001916102d2565b820191906000526020600020905b8154815290600101906020018083116102b557829003601f168201915b505050505081565b60008054906101000a900473ffffffffffffffffffffffffffffffffffffffff1673ffffffffffffffffffffffffffffffffffffffff163373ffffffffffffffffffffffffffffffffffffffff1614610368576040517f08c379a000000000000000000000000000000000000000000000000000000000815260040161035f90610fcf565b60405180910390fd5b5050565b600180808054905061037e919061101e565b8154811061038f5761038e611052565b5b9060005260206000200160009054906101000a900473ffffffffffffffffffffffffffffffffffffffff16600182815481106103ce576103cd611052565b5b9060005260206000200160006101000a81548173ffffffffffffffffffffffffffffffffffffffff021916908373ffffffffffffffffffffffffffffffffffffffff160217905550600180548061042857610427611081565b5b6001900381819060005260206000200160006101000a81549073ffffffffffffffffffffffffffffffffffffffff0219169055905550565b60008054906101000a900473ffffffffffffffffffffffffffffffffffffffff1673ffffffffffffffffffffffffffffffffffffffff163373ffffffffffffffffffffffffffffffffffffffff16146104ee576040517f08c379a00000000000000000000000000000000000000000000000000000000081526004016104e590610fcf565b60405180910390fd5b60005b600180549050811015610583578173ffffffffffffffffffffffffffffffffffffffff166001828154811061052957610528611052565b5b9060005260206000200160009054906101000a900473ffffffffffffffffffffffffffffffffffffffff1673ffffffffffffffffffffffffffffffffffffffff16031561058357808061057b906110b0565b9150506104f1565b61058c8161036c565b5050565b600281815481106105a057600080fd5b9060005260206000200160009150905080546105bb90610f52565b80601f01602080910402602001604051908101604052809291908181526020018280546105e790610f52565b80156106345780601f1061060957610100808354040283529160200191610634565b820191906000526020600020905b81548152906001019060200180831161061757829003601f168201915b505050505081565b6001818154811061064c57600080fd5b906000526020600020016000915054906101000a900473ffffffffffffffffffffffffffffffffffffffff1681565b60008054906101000a900473ffffffffffffffffffffffffffffffffffffffff1673ffffffffffffffffffffffffffffffffffffffff163373ffffffffffffffffffffffffffffffffffffffff1614610709576040517f08c379a000000000000000000000000000000000000000000000000000000000815260040161070090610fcf565b60405180910390fd5b6001819080600181540180825580915050600190039060005260206000200160009091909190916101000a81548173ffffffffffffffffffffffffffffffffffffffff021916908373ffffffffffffffffffffffffffffffffffffffff16021790555050565b60008054906101000a900473ffffffffffffffffffffffffffffffffffffffff1681565b60008054906101000a900473ffffffffffffffffffffffffffffffffffffffff1673ffffffffffffffffffffffffffffffffffffffff163373ffffffffffffffffffffffffffffffffffffffff1614610821576040517f08c379a000000000000000000000000000000000000000000000000000000000815260040161081890610fcf565b60405180910390fd5b565b6003602052806000526040600020600091509050805461084290610f52565b80601f016020809104026020016040519081016040528092919081815260200182805461086e90610f52565b80156108bb5780601f10610890576101008083540402835291602001916108bb565b820191906000526020600020905b81548152906001019060200180831161089e57829003601f168201915b505050505081565b60008054906101000a900473ffffffffffffffffffffffffffffffffffffffff1673ffffffffffffffffffffffffffffffffffffffff163373ffffffffffffffffffffffffffffffffffffffff1614610951576040517f08c379a000000000000000000000000000000000000000000000000000000000815260040161094890610fcf565b60405180910390fd5b60018054905060028054905011610b1d5760005b600280549050811015610b1b576002818154811061098657610985611052565b5b9060005260206000200160036000600184815481106109a8576109a7611052565b5b9060005260206000200160009054906101000a900473ffffffffffffffffffffffffffffffffffffffff1673ffffffffffffffffffffffffffffffffffffffff1673ffffffffffffffffffffffffffffffffffffffff1681526020019081526020016000209081610a1991906112cf565b50610b0860018281548110610a3157610a30611052565b5b9060005260206000200160009054906101000a900473ffffffffffffffffffffffffffffffffffffffff1660028381548110610a7057610a6f611052565b5b906000526020600020018054610a8590610f52565b80601f0160208091040260200160405190810160405280929190818152602001828054610ab190610f52565b8015610afe5780601f10610ad357610100808354040283529160200191610afe565b820191906000526020600020905b815481529060010190602001808311610ae157829003601f168201915b50505050506102da565b8080610b13906110b0565b915050610965565b505b565b6000604051905090565b600080fd5b600080fd5b600073ffffffffffffffffffffffffffffffffffffffff82169050919050565b6000610b5e82610b33565b9050919050565b610b6e81610b53565b8114610b7957600080fd5b50565b600081359050610b8b81610b65565b92915050565b600060208284031215610ba757610ba6610b29565b5b6000610bb584828501610b7c565b91505092915050565b600081519050919050565b600082825260208201905092915050565b60005b83811015610bf8578082015181840152602081019050610bdd565b60008484015250505050565b6000601f19601f8301169050919050565b6000610c2082610bbe565b610c2a8185610bc9565b9350610c3a818560208601610bda565b610c4381610c04565b840191505092915050565b60006020820190508181036000830152610c688184610c15565b905092915050565b6000610c7b82610b33565b9050919050565b610c8b81610c70565b8114610c9657600080fd5b50565b600081359050610ca881610c82565b92915050565b600080fd5b600080fd5b7f4e487b7100000000000000000000000000000000000000000000000000000000600052604160045260246000fd5b610cf082610c04565b810181811067ffffffffffffffff82111715610d0f57610d0e610cb8565b5b80604052505050565b6000610d22610b1f565b9050610d2e8282610ce7565b919050565b600067ffffffffffffffff821115610d4e57610d4d610cb8565b5b610d5782610c04565b9050602081019050919050565b82818337600083830152505050565b6000610d86610d8184610d33565b610d18565b905082815260208101848484011115610da257610da1610cb3565b5b610dad848285610d64565b509392505050565b600082601f830112610dca57610dc9610cae565b5b8135610dda848260208601610d73565b91505092915050565b60008060408385031215610dfa57610df9610b29565b5b6000610e0885828601610c99565b925050602083013567ffffffffffffffff811115610e2957610e28610b2e565b5b610e3585828601610db5565b9150509250929050565b6000819050919050565b610e5281610e3f565b8114610e5d57600080fd5b50565b600081359050610e6f81610e49565b92915050565b600060208284031215610e8b57610e8a610b29565b5b6000610e9984828501610e60565b91505092915050565b600060208284031215610eb857610eb7610b29565b5b6000610ec684828501610c99565b91505092915050565b610ed881610c70565b82525050565b6000602082019050610ef36000830184610ecf565b92915050565b610f0281610b53565b82525050565b6000602082019050610f1d6000830184610ef9565b92915050565b7f4e487b7100000000000000000000000000000000000000000000000000000000600052602260045260246000fd5b60006002820490506001821680610f6a57607f821691505b602082108103610f7d57610f7c610f23565b5b50919050565b7f6f6e6c79206f776e65722063616e207069636b207468652077696e6e65720000600082015250565b6000610fb9601e83610bc9565b9150610fc482610f83565b602082019050919050565b60006020820190508181036000830152610fe881610fac565b9050919050565b7f4e487b7100000000000000000000000000000000000000000000000000000000600052601160045260246000fd5b600061102982610e3f565b915061103483610e3f565b925082820390508181111561104c5761104b610fef565b5b92915050565b7f4e487b7100000000000000000000000000000000000000000000000000000000600052603260045260246000fd5b7f4e487b7100000000000000000000000000000000000000000000000000000000600052603160045260246000fd5b60006110bb82610e3f565b91507fffffffffffffffffffffffffffffffffffffffffffffffffffffffffffffffff82036110ed576110ec610fef565b5b600182019050919050565b60008154905061110781610f52565b9050919050565b60008190508160005260206000209050919050565b60008190508160005260206000209050919050565b60006020601f8301049050919050565b600082821b905092915050565b6000600883026111857fffffffffffffffffffffffffffffffffffffffffffffffffffffffffffffffff82611148565b61118f8683611148565b95508019841693508086168417925050509392505050565b6000819050919050565b60006111cc6111c76111c284610e3f565b6111a7565b610e3f565b9050919050565b6000819050919050565b6111e6836111b1565b6111fa6111f2826111d3565b848454611155565b825550505050565b600090565b61120f611202565b61121a8184846111dd565b505050565b5b8181101561123e57611233600082611207565b600181019050611220565b5050565b601f821115611283576112548161110e565b61125d84611138565b8101602085101561126c578190505b61128061127885611138565b83018261121f565b50505b505050565b600082821c905092915050565b60006112a660001984600802611288565b1980831691505092915050565b60006112bf8383611295565b9150826002028217905092915050565b8181036112dd5750506113b5565b6112e6826110f8565b67ffffffffffffffff8111156112ff576112fe610cb8565b5b6113098254610f52565b611314828285611242565b6000601f8311600181146113435760008415611331578287015490505b61133b85826112b3565b8655506113ae565b601f19841661135187611123565b965061135c8661110e565b60005b828110156113845784890154825560018201915060018501945060208101905061135f565b868310156113a1578489015461139d601f891682611295565b8355505b6001600288020188555050505b5050505050505b56fea2646970667358221220df1e4e7b79c8ba904b5c67d99df715e10f828b821c9efd176228f3ff4ad6f34e64736f6c63430008110033",
					"opcodes": "PUSH1 0x80 PUSH1 0x40 MSTORE PUSH1 0x40 MLOAD DUP1 PUSH2 0x180 ADD PUSH1 0x40 MSTORE DUP1 PUSH1 0x40 MLOAD DUP1 PUSH1 0x40 ADD PUSH1 0x40 MSTORE DUP1 PUSH1 0x8 DUP2 MSTORE PUSH1 0x20 ADD PUSH32 0x6465736372696265000000000000000000000000000000000000000000000000 DUP2 MSTORE POP DUP2 MSTORE PUSH1 0x20 ADD PUSH1 0x40 MLOAD DUP1 PUSH1 0x40 ADD PUSH1 0x40 MSTORE DUP1 PUSH1 0x6 DUP2 MSTORE PUSH1 0x20 ADD PUSH32 0x616374696F6E0000000000000000000000000000000000000000000000000000 DUP2 MSTORE POP DUP2 MSTORE PUSH1 0x20 ADD PUSH1 0x40 MLOAD DUP1 PUSH1 0x40 ADD PUSH1 0x40 MSTORE DUP1 PUSH1 0x4 DUP2 MSTORE PUSH1 0x20 ADD PUSH32 0x746F776E00000000000000000000000000000000000000000000000000000000 DUP2 MSTORE POP DUP2 MSTORE PUSH1 0x20 ADD PUSH1 0x40 MLOAD DUP1 PUSH1 0x40 ADD PUSH1 0x40 MSTORE DUP1 PUSH1 0x4 DUP2 MSTORE PUSH1 0x20 ADD PUSH32 0x6769667400000000000000000000000000000000000000000000000000000000 DUP2 MSTORE POP DUP2 MSTORE PUSH1 0x20 ADD PUSH1 0x40 MLOAD DUP1 PUSH1 0x40 ADD PUSH1 0x40 MSTORE DUP1 PUSH1 0x7 DUP2 MSTORE PUSH1 0x20 ADD PUSH32 0x6361706974616C00000000000000000000000000000000000000000000000000 DUP2 MSTORE POP DUP2 MSTORE PUSH1 0x20 ADD PUSH1 0x40 MLOAD DUP1 PUSH1 0x40 ADD PUSH1 0x40 MSTORE DUP1 PUSH1 0x5 DUP2 MSTORE PUSH1 0x20 ADD PUSH32 0x7269766572000000000000000000000000000000000000000000000000000000 DUP2 MSTORE POP DUP2 MSTORE PUSH1 0x20 ADD PUSH1 0x40 MLOAD DUP1 PUSH1 0x40 ADD PUSH1 0x40 MSTORE DUP1 PUSH1 0x6 DUP2 MSTORE PUSH1 0x20 ADD PUSH32 0x656E726F6C6C0000000000000000000000000000000000000000000000000000 DUP2 MSTORE POP DUP2 MSTORE PUSH1 0x20 ADD PUSH1 0x40 MLOAD DUP1 PUSH1 0x40 ADD PUSH1 0x40 MSTORE DUP1 PUSH1 0x4 DUP2 MSTORE PUSH1 0x20 ADD PUSH32 0x6D65617400000000000000000000000000000000000000000000000000000000 DUP2 MSTORE POP DUP2 MSTORE PUSH1 0x20 ADD PUSH1 0x40 MLOAD DUP1 PUSH1 0x40 ADD PUSH1 0x40 MSTORE DUP1 PUSH1 0x6 DUP2 MSTORE PUSH1 0x20 ADD PUSH32 0x776973646F6D0000000000000000000000000000000000000000000000000000 DUP2 MSTORE POP DUP2 MSTORE PUSH1 0x20 ADD PUSH1 0x40 MLOAD DUP1 PUSH1 0x40 ADD PUSH1 0x40 MSTORE DUP1 PUSH1 0x5 DUP2 MSTORE PUSH1 0x20 ADD PUSH32 0x737465656C000000000000000000000000000000000000000000000000000000 DUP2 MSTORE POP DUP2 MSTORE PUSH1 0x20 ADD PUSH1 0x40 MLOAD DUP1 PUSH1 0x40 ADD PUSH1 0x40 MSTORE DUP1 PUSH1 0x4 DUP2 MSTORE PUSH1 0x20 ADD PUSH32 0x6E65636B00000000000000000000000000000000000000000000000000000000 DUP2 MSTORE POP DUP2 MSTORE PUSH1 0x20 ADD PUSH1 0x40 MLOAD DUP1 PUSH1 0x40 ADD PUSH1 0x40 MSTORE DUP1 PUSH1 0x4 DUP2 MSTORE PUSH1 0x20 ADD PUSH32 0x6465667900000000000000000000000000000000000000000000000000000000 DUP2 MSTORE POP DUP2 MSTORE POP PUSH1 0x2 SWAP1 PUSH1 0xC PUSH3 0x2E4 SWAP3 SWAP2 SWAP1 PUSH3 0x339 JUMP JUMPDEST POP CALLVALUE DUP1 ISZERO PUSH3 0x2F2 JUMPI PUSH1 0x0 DUP1 REVERT JUMPDEST POP CALLER PUSH1 0x0 DUP1 PUSH2 0x100 EXP DUP2 SLOAD DUP2 PUSH20 0xFFFFFFFFFFFFFFFFFFFFFFFFFFFFFFFFFFFFFFFF MUL NOT AND SWAP1 DUP4 PUSH20 0xFFFFFFFFFFFFFFFFFFFFFFFFFFFFFFFFFFFFFFFF AND MUL OR SWAP1 SSTORE POP PUSH3 0x787 JUMP JUMPDEST DUP3 DUP1 SLOAD DUP3 DUP3 SSTORE SWAP1 PUSH1 0x0 MSTORE PUSH1 0x20 PUSH1 0x0 KECCAK256 SWAP1 DUP2 ADD SWAP3 DUP3 ISZERO PUSH3 0x386 JUMPI SWAP2 PUSH1 0x20 MUL DUP3 ADD JUMPDEST DUP3 DUP2 GT ISZERO PUSH3 0x385 JUMPI DUP3 MLOAD DUP3 SWAP1 DUP2 PUSH3 0x374 SWAP2 SWAP1 PUSH3 0x6A0 JUMP JUMPDEST POP SWAP2 PUSH1 0x20 ADD SWAP2 SWAP1 PUSH1 0x1 ADD SWAP1 PUSH3 0x35A JUMP JUMPDEST JUMPDEST POP SWAP1 POP PUSH3 0x395 SWAP2 SWAP1 PUSH3 0x399 JUMP JUMPDEST POP SWAP1 JUMP JUMPDEST JUMPDEST DUP1 DUP3 GT ISZERO PUSH3 0x3BD JUMPI PUSH1 0x0 DUP2 DUP2 PUSH3 0x3B3 SWAP2 SWAP1 PUSH3 0x3C1 JUMP JUMPDEST POP PUSH1 0x1 ADD PUSH3 0x39A JUMP JUMPDEST POP SWAP1 JUMP JUMPDEST POP DUP1 SLOAD PUSH3 0x3CF SWAP1 PUSH3 0x48F JUMP JUMPDEST PUSH1 0x0 DUP3 SSTORE DUP1 PUSH1 0x1F LT PUSH3 0x3E3 JUMPI POP PUSH3 0x404 JUMP JUMPDEST PUSH1 0x1F ADD PUSH1 0x20 SWAP1 DIV SWAP1 PUSH1 0x0 MSTORE PUSH1 0x20 PUSH1 0x0 KECCAK256 SWAP1 DUP2 ADD SWAP1 PUSH3 0x403 SWAP2 SWAP1 PUSH3 0x407 JUMP JUMPDEST JUMPDEST POP JUMP JUMPDEST JUMPDEST DUP1 DUP3 GT ISZERO PUSH3 0x422 JUMPI PUSH1 0x0 DUP2 PUSH1 0x0 SWAP1 SSTORE POP PUSH1 0x1 ADD PUSH3 0x408 JUMP JUMPDEST POP SWAP1 JUMP JUMPDEST PUSH1 0x0 DUP2 MLOAD SWAP1 POP SWAP2 SWAP1 POP JUMP JUMPDEST PUSH32 0x4E487B7100000000000000000000000000000000000000000000000000000000 PUSH1 0x0 MSTORE PUSH1 0x41 PUSH1 0x4 MSTORE PUSH1 0x24 PUSH1 0x0 REVERT JUMPDEST PUSH32 0x4E487B7100000000000000000000000000000000000000000000000000000000 PUSH1 0x0 MSTORE PUSH1 0x22 PUSH1 0x4 MSTORE PUSH1 0x24 PUSH1 0x0 REVERT JUMPDEST PUSH1 0x0 PUSH1 0x2 DUP3 DIV SWAP1 POP PUSH1 0x1 DUP3 AND DUP1 PUSH3 0x4A8 JUMPI PUSH1 0x7F DUP3 AND SWAP2 POP JUMPDEST PUSH1 0x20 DUP3 LT DUP2 SUB PUSH3 0x4BE JUMPI PUSH3 0x4BD PUSH3 0x460 JUMP JUMPDEST JUMPDEST POP SWAP2 SWAP1 POP JUMP JUMPDEST PUSH1 0x0 DUP2 SWAP1 POP DUP2 PUSH1 0x0 MSTORE PUSH1 0x20 PUSH1 0x0 KECCAK256 SWAP1 POP SWAP2 SWAP1 POP JUMP JUMPDEST PUSH1 0x0 PUSH1 0x20 PUSH1 0x1F DUP4 ADD DIV SWAP1 POP SWAP2 SWAP1 POP JUMP JUMPDEST PUSH1 0x0 DUP3 DUP3 SHL SWAP1 POP SWAP3 SWAP2 POP POP JUMP JUMPDEST PUSH1 0x0 PUSH1 0x8 DUP4 MUL PUSH3 0x528 PUSH32 0xFFFFFFFFFFFFFFFFFFFFFFFFFFFFFFFFFFFFFFFFFFFFFFFFFFFFFFFFFFFFFFFF DUP3 PUSH3 0x4E9 JUMP JUMPDEST PUSH3 0x534 DUP7 DUP4 PUSH3 0x4E9 JUMP JUMPDEST SWAP6 POP DUP1 NOT DUP5 AND SWAP4 POP DUP1 DUP7 AND DUP5 OR SWAP3 POP POP POP SWAP4 SWAP3 POP POP POP JUMP JUMPDEST PUSH1 0x0 DUP2 SWAP1 POP SWAP2 SWAP1 POP JUMP JUMPDEST PUSH1 0x0 DUP2 SWAP1 POP SWAP2 SWAP1 POP JUMP JUMPDEST PUSH1 0x0 PUSH3 0x581 PUSH3 0x57B PUSH3 0x575 DUP5 PUSH3 0x54C JUMP JUMPDEST PUSH3 0x556 JUMP JUMPDEST PUSH3 0x54C JUMP JUMPDEST SWAP1 POP SWAP2 SWAP1 POP JUMP JUMPDEST PUSH1 0x0 DUP2 SWAP1 POP SWAP2 SWAP1 POP JUMP JUMPDEST PUSH3 0x59D DUP4 PUSH3 0x560 JUMP JUMPDEST PUSH3 0x5B5 PUSH3 0x5AC DUP3 PUSH3 0x588 JUMP JUMPDEST DUP5 DUP5 SLOAD PUSH3 0x4F6 JUMP JUMPDEST DUP3 SSTORE POP POP POP POP JUMP JUMPDEST PUSH1 0x0 SWAP1 JUMP JUMPDEST PUSH3 0x5CC PUSH3 0x5BD JUMP JUMPDEST PUSH3 0x5D9 DUP2 DUP5 DUP5 PUSH3 0x592 JUMP JUMPDEST POP POP POP JUMP JUMPDEST JUMPDEST DUP2 DUP2 LT ISZERO PUSH3 0x601 JUMPI PUSH3 0x5F5 PUSH1 0x0 DUP3 PUSH3 0x5C2 JUMP JUMPDEST PUSH1 0x1 DUP2 ADD SWAP1 POP PUSH3 0x5DF JUMP JUMPDEST POP POP JUMP JUMPDEST PUSH1 0x1F DUP3 GT ISZERO PUSH3 0x650 JUMPI PUSH3 0x61A DUP2 PUSH3 0x4C4 JUMP JUMPDEST PUSH3 0x625 DUP5 PUSH3 0x4D9 JUMP JUMPDEST DUP2 ADD PUSH1 0x20 DUP6 LT ISZERO PUSH3 0x635 JUMPI DUP2 SWAP1 POP JUMPDEST PUSH3 0x64D PUSH3 0x644 DUP6 PUSH3 0x4D9 JUMP JUMPDEST DUP4 ADD DUP3 PUSH3 0x5DE JUMP JUMPDEST POP POP JUMPDEST POP POP POP JUMP JUMPDEST PUSH1 0x0 DUP3 DUP3 SHR SWAP1 POP SWAP3 SWAP2 POP POP JUMP JUMPDEST PUSH1 0x0 PUSH3 0x675 PUSH1 0x0 NOT DUP5 PUSH1 0x8 MUL PUSH3 0x655 JUMP JUMPDEST NOT DUP1 DUP4 AND SWAP2 POP POP SWAP3 SWAP2 POP POP JUMP JUMPDEST PUSH1 0x0 PUSH3 0x690 DUP4 DUP4 PUSH3 0x662 JUMP JUMPDEST SWAP2 POP DUP3 PUSH1 0x2 MUL DUP3 OR SWAP1 POP SWAP3 SWAP2 POP POP JUMP JUMPDEST PUSH3 0x6AB DUP3 PUSH3 0x426 JUMP JUMPDEST PUSH8 0xFFFFFFFFFFFFFFFF DUP2 GT ISZERO PUSH3 0x6C7 JUMPI PUSH3 0x6C6 PUSH3 0x431 JUMP JUMPDEST JUMPDEST PUSH3 0x6D3 DUP3 SLOAD PUSH3 0x48F JUMP JUMPDEST PUSH3 0x6E0 DUP3 DUP3 DUP6 PUSH3 0x605 JUMP JUMPDEST PUSH1 0x0 PUSH1 0x20 SWAP1 POP PUSH1 0x1F DUP4 GT PUSH1 0x1 DUP2 EQ PUSH3 0x718 JUMPI PUSH1 0x0 DUP5 ISZERO PUSH3 0x703 JUMPI DUP3 DUP8 ADD MLOAD SWAP1 POP JUMPDEST PUSH3 0x70F DUP6 DUP3 PUSH3 0x682 JUMP JUMPDEST DUP7 SSTORE POP PUSH3 0x77F JUMP JUMPDEST PUSH1 0x1F NOT DUP5 AND PUSH3 0x728 DUP7 PUSH3 0x4C4 JUMP JUMPDEST PUSH1 0x0 JUMPDEST DUP3 DUP2 LT ISZERO PUSH3 0x752 JUMPI DUP5 DUP10 ADD MLOAD DUP3 SSTORE PUSH1 0x1 DUP3 ADD SWAP2 POP PUSH1 0x20 DUP6 ADD SWAP5 POP PUSH1 0x20 DUP2 ADD SWAP1 POP PUSH3 0x72B JUMP JUMPDEST DUP7 DUP4 LT ISZERO PUSH3 0x772 JUMPI DUP5 DUP10 ADD MLOAD PUSH3 0x76E PUSH1 0x1F DUP10 AND DUP3 PUSH3 0x662 JUMP JUMPDEST DUP4 SSTORE POP JUMPDEST PUSH1 0x1 PUSH1 0x2 DUP9 MUL ADD DUP9 SSTORE POP POP POP JUMPDEST POP POP POP POP POP POP JUMP JUMPDEST PUSH2 0x13ED DUP1 PUSH3 0x797 PUSH1 0x0 CODECOPY PUSH1 0x0 RETURN INVALID PUSH1 0x80 PUSH1 0x40 MSTORE CALLVALUE DUP1 ISZERO PUSH2 0x10 JUMPI PUSH1 0x0 DUP1 REVERT JUMPDEST POP PUSH1 0x4 CALLDATASIZE LT PUSH2 0xB4 JUMPI PUSH1 0x0 CALLDATALOAD PUSH1 0xE0 SHR DUP1 PUSH4 0x7427A40C GT PUSH2 0x71 JUMPI DUP1 PUSH4 0x7427A40C EQ PUSH2 0x189 JUMPI DUP1 PUSH4 0x790A0940 EQ PUSH2 0x1B9 JUMPI DUP1 PUSH4 0x8DA5CB5B EQ PUSH2 0x1D5 JUMPI DUP1 PUSH4 0x9A5EEC33 EQ PUSH2 0x1F3 JUMPI DUP1 PUSH4 0xD534CC0E EQ PUSH2 0x1FD JUMPI DUP1 PUSH4 0xE4FC6B6D EQ PUSH2 0x22D JUMPI PUSH2 0xB4 JUMP JUMPDEST DUP1 PUSH4 0x623F1D7 EQ PUSH2 0xB9 JUMPI DUP1 PUSH4 0x1E1CF160 EQ PUSH2 0xD5 JUMPI DUP1 PUSH4 0x3F8B4866 EQ PUSH2 0x105 JUMPI DUP1 PUSH4 0x4CC82215 EQ PUSH2 0x121 JUMPI DUP1 PUSH4 0x50E78191 EQ PUSH2 0x13D JUMPI DUP1 PUSH4 0x57A858FC EQ PUSH2 0x159 JUMPI JUMPDEST PUSH1 0x0 DUP1 REVERT JUMPDEST PUSH2 0xD3 PUSH1 0x4 DUP1 CALLDATASIZE SUB DUP2 ADD SWAP1 PUSH2 0xCE SWAP2 SWAP1 PUSH2 0xB91 JUMP JUMPDEST PUSH2 0x237 JUMP JUMPDEST STOP JUMPDEST PUSH2 0xEF PUSH1 0x4 DUP1 CALLDATASIZE SUB DUP2 ADD SWAP1 PUSH2 0xEA SWAP2 SWAP1 PUSH2 0xB91 JUMP JUMPDEST PUSH2 0x23A JUMP JUMPDEST PUSH1 0x40 MLOAD PUSH2 0xFC SWAP2 SWAP1 PUSH2 0xC4E JUMP JUMPDEST PUSH1 0x40 MLOAD DUP1 SWAP2 SUB SWAP1 RETURN JUMPDEST PUSH2 0x11F PUSH1 0x4 DUP1 CALLDATASIZE SUB DUP2 ADD SWAP1 PUSH2 0x11A SWAP2 SWAP1 PUSH2 0xDE3 JUMP JUMPDEST PUSH2 0x2DA JUMP JUMPDEST STOP JUMPDEST PUSH2 0x13B PUSH1 0x4 DUP1 CALLDATASIZE SUB DUP2 ADD SWAP1 PUSH2 0x136 SWAP2 SWAP1 PUSH2 0xE75 JUMP JUMPDEST PUSH2 0x36C JUMP JUMPDEST STOP JUMPDEST PUSH2 0x157 PUSH1 0x4 DUP1 CALLDATASIZE SUB DUP2 ADD SWAP1 PUSH2 0x152 SWAP2 SWAP1 PUSH2 0xEA2 JUMP JUMPDEST PUSH2 0x460 JUMP JUMPDEST STOP JUMPDEST PUSH2 0x173 PUSH1 0x4 DUP1 CALLDATASIZE SUB DUP2 ADD SWAP1 PUSH2 0x16E SWAP2 SWAP1 PUSH2 0xE75 JUMP JUMPDEST PUSH2 0x590 JUMP JUMPDEST PUSH1 0x40 MLOAD PUSH2 0x180 SWAP2 SWAP1 PUSH2 0xC4E JUMP JUMPDEST PUSH1 0x40 MLOAD DUP1 SWAP2 SUB SWAP1 RETURN JUMPDEST PUSH2 0x1A3 PUSH1 0x4 DUP1 CALLDATASIZE SUB DUP2 ADD SWAP1 PUSH2 0x19E SWAP2 SWAP1 PUSH2 0xE75 JUMP JUMPDEST PUSH2 0x63C JUMP JUMPDEST PUSH1 0x40 MLOAD PUSH2 0x1B0 SWAP2 SWAP1 PUSH2 0xEDE JUMP JUMPDEST PUSH1 0x40 MLOAD DUP1 SWAP2 SUB SWAP1 RETURN JUMPDEST PUSH2 0x1D3 PUSH1 0x4 DUP1 CALLDATASIZE SUB DUP2 ADD SWAP1 PUSH2 0x1CE SWAP2 SWAP1 PUSH2 0xEA2 JUMP JUMPDEST PUSH2 0x67B JUMP JUMPDEST STOP JUMPDEST PUSH2 0x1DD PUSH2 0x76F JUMP JUMPDEST PUSH1 0x40 MLOAD PUSH2 0x1EA SWAP2 SWAP1 PUSH2 0xF08 JUMP JUMPDEST PUSH1 0x40 MLOAD DUP1 SWAP2 SUB SWAP1 RETURN JUMPDEST PUSH2 0x1FB PUSH2 0x793 JUMP JUMPDEST STOP JUMPDEST PUSH2 0x217 PUSH1 0x4 DUP1 CALLDATASIZE SUB DUP2 ADD SWAP1 PUSH2 0x212 SWAP2 SWAP1 PUSH2 0xB91 JUMP JUMPDEST PUSH2 0x823 JUMP JUMPDEST PUSH1 0x40 MLOAD PUSH2 0x224 SWAP2 SWAP1 PUSH2 0xC4E JUMP JUMPDEST PUSH1 0x40 MLOAD DUP1 SWAP2 SUB SWAP1 RETURN JUMPDEST PUSH2 0x235 PUSH2 0x8C3 JUMP JUMPDEST STOP JUMPDEST POP JUMP JUMPDEST PUSH1 0x4 PUSH1 0x20 MSTORE DUP1 PUSH1 0x0 MSTORE PUSH1 0x40 PUSH1 0x0 KECCAK256 PUSH1 0x0 SWAP2 POP SWAP1 POP DUP1 SLOAD PUSH2 0x259 SWAP1 PUSH2 0xF52 JUMP JUMPDEST DUP1 PUSH1 0x1F ADD PUSH1 0x20 DUP1 SWAP2 DIV MUL PUSH1 0x20 ADD PUSH1 0x40 MLOAD SWAP1 DUP2 ADD PUSH1 0x40 MSTORE DUP1 SWAP3 SWAP2 SWAP1 DUP2 DUP2 MSTORE PUSH1 0x20 ADD DUP3 DUP1 SLOAD PUSH2 0x285 SWAP1 PUSH2 0xF52 JUMP JUMPDEST DUP1 ISZERO PUSH2 0x2D2 JUMPI DUP1 PUSH1 0x1F LT PUSH2 0x2A7 JUMPI PUSH2 0x100 DUP1 DUP4 SLOAD DIV MUL DUP4 MSTORE SWAP2 PUSH1 0x20 ADD SWAP2 PUSH2 0x2D2 JUMP JUMPDEST DUP3 ADD SWAP2 SWAP1 PUSH1 0x0 MSTORE PUSH1 0x20 PUSH1 0x0 KECCAK256 SWAP1 JUMPDEST DUP2 SLOAD DUP2 MSTORE SWAP1 PUSH1 0x1 ADD SWAP1 PUSH1 0x20 ADD DUP1 DUP4 GT PUSH2 0x2B5 JUMPI DUP3 SWAP1 SUB PUSH1 0x1F AND DUP3 ADD SWAP2 JUMPDEST POP POP POP POP POP DUP2 JUMP JUMPDEST PUSH1 0x0 DUP1 SLOAD SWAP1 PUSH2 0x100 EXP SWAP1 DIV PUSH20 0xFFFFFFFFFFFFFFFFFFFFFFFFFFFFFFFFFFFFFFFF AND PUSH20 0xFFFFFFFFFFFFFFFFFFFFFFFFFFFFFFFFFFFFFFFF AND CALLER PUSH20 0xFFFFFFFFFFFFFFFFFFFFFFFFFFFFFFFFFFFFFFFF AND EQ PUSH2 0x368 JUMPI PUSH1 0x40 MLOAD PUSH32 0x8C379A000000000000000000000000000000000000000000000000000000000 DUP2 MSTORE PUSH1 0x4 ADD PUSH2 0x35F SWAP1 PUSH2 0xFCF JUMP JUMPDEST PUSH1 0x40 MLOAD DUP1 SWAP2 SUB SWAP1 REVERT JUMPDEST POP POP JUMP JUMPDEST PUSH1 0x1 DUP1 DUP1 DUP1 SLOAD SWAP1 POP PUSH2 0x37E SWAP2 SWAP1 PUSH2 0x101E JUMP JUMPDEST DUP2 SLOAD DUP2 LT PUSH2 0x38F JUMPI PUSH2 0x38E PUSH2 0x1052 JUMP JUMPDEST JUMPDEST SWAP1 PUSH1 0x0 MSTORE PUSH1 0x20 PUSH1 0x0 KECCAK256 ADD PUSH1 0x0 SWAP1 SLOAD SWAP1 PUSH2 0x100 EXP SWAP1 DIV PUSH20 0xFFFFFFFFFFFFFFFFFFFFFFFFFFFFFFFFFFFFFFFF AND PUSH1 0x1 DUP3 DUP2 SLOAD DUP2 LT PUSH2 0x3CE JUMPI PUSH2 0x3CD PUSH2 0x1052 JUMP JUMPDEST JUMPDEST SWAP1 PUSH1 0x0 MSTORE PUSH1 0x20 PUSH1 0x0 KECCAK256 ADD PUSH1 0x0 PUSH2 0x100 EXP DUP2 SLOAD DUP2 PUSH20 0xFFFFFFFFFFFFFFFFFFFFFFFFFFFFFFFFFFFFFFFF MUL NOT AND SWAP1 DUP4 PUSH20 0xFFFFFFFFFFFFFFFFFFFFFFFFFFFFFFFFFFFFFFFF AND MUL OR SWAP1 SSTORE POP PUSH1 0x1 DUP1 SLOAD DUP1 PUSH2 0x428 JUMPI PUSH2 0x427 PUSH2 0x1081 JUMP JUMPDEST JUMPDEST PUSH1 0x1 SWAP1 SUB DUP2 DUP2 SWAP1 PUSH1 0x0 MSTORE PUSH1 0x20 PUSH1 0x0 KECCAK256 ADD PUSH1 0x0 PUSH2 0x100 EXP DUP2 SLOAD SWAP1 PUSH20 0xFFFFFFFFFFFFFFFFFFFFFFFFFFFFFFFFFFFFFFFF MUL NOT AND SWAP1 SSTORE SWAP1 SSTORE POP JUMP JUMPDEST PUSH1 0x0 DUP1 SLOAD SWAP1 PUSH2 0x100 EXP SWAP1 DIV PUSH20 0xFFFFFFFFFFFFFFFFFFFFFFFFFFFFFFFFFFFFFFFF AND PUSH20 0xFFFFFFFFFFFFFFFFFFFFFFFFFFFFFFFFFFFFFFFF AND CALLER PUSH20 0xFFFFFFFFFFFFFFFFFFFFFFFFFFFFFFFFFFFFFFFF AND EQ PUSH2 0x4EE JUMPI PUSH1 0x40 MLOAD PUSH32 0x8C379A000000000000000000000000000000000000000000000000000000000 DUP2 MSTORE PUSH1 0x4 ADD PUSH2 0x4E5 SWAP1 PUSH2 0xFCF JUMP JUMPDEST PUSH1 0x40 MLOAD DUP1 SWAP2 SUB SWAP1 REVERT JUMPDEST PUSH1 0x0 JUMPDEST PUSH1 0x1 DUP1 SLOAD SWAP1 POP DUP2 LT ISZERO PUSH2 0x583 JUMPI DUP2 PUSH20 0xFFFFFFFFFFFFFFFFFFFFFFFFFFFFFFFFFFFFFFFF AND PUSH1 0x1 DUP3 DUP2 SLOAD DUP2 LT PUSH2 0x529 JUMPI PUSH2 0x528 PUSH2 0x1052 JUMP JUMPDEST JUMPDEST SWAP1 PUSH1 0x0 MSTORE PUSH1 0x20 PUSH1 0x0 KECCAK256 ADD PUSH1 0x0 SWAP1 SLOAD SWAP1 PUSH2 0x100 EXP SWAP1 DIV PUSH20 0xFFFFFFFFFFFFFFFFFFFFFFFFFFFFFFFFFFFFFFFF AND PUSH20 0xFFFFFFFFFFFFFFFFFFFFFFFFFFFFFFFFFFFFFFFF AND SUB ISZERO PUSH2 0x583 JUMPI DUP1 DUP1 PUSH2 0x57B SWAP1 PUSH2 0x10B0 JUMP JUMPDEST SWAP2 POP POP PUSH2 0x4F1 JUMP JUMPDEST PUSH2 0x58C DUP2 PUSH2 0x36C JUMP JUMPDEST POP POP JUMP JUMPDEST PUSH1 0x2 DUP2 DUP2 SLOAD DUP2 LT PUSH2 0x5A0 JUMPI PUSH1 0x0 DUP1 REVERT JUMPDEST SWAP1 PUSH1 0x0 MSTORE PUSH1 0x20 PUSH1 0x0 KECCAK256 ADD PUSH1 0x0 SWAP2 POP SWAP1 POP DUP1 SLOAD PUSH2 0x5BB SWAP1 PUSH2 0xF52 JUMP JUMPDEST DUP1 PUSH1 0x1F ADD PUSH1 0x20 DUP1 SWAP2 DIV MUL PUSH1 0x20 ADD PUSH1 0x40 MLOAD SWAP1 DUP2 ADD PUSH1 0x40 MSTORE DUP1 SWAP3 SWAP2 SWAP1 DUP2 DUP2 MSTORE PUSH1 0x20 ADD DUP3 DUP1 SLOAD PUSH2 0x5E7 SWAP1 PUSH2 0xF52 JUMP JUMPDEST DUP1 ISZERO PUSH2 0x634 JUMPI DUP1 PUSH1 0x1F LT PUSH2 0x609 JUMPI PUSH2 0x100 DUP1 DUP4 SLOAD DIV MUL DUP4 MSTORE SWAP2 PUSH1 0x20 ADD SWAP2 PUSH2 0x634 JUMP JUMPDEST DUP3 ADD SWAP2 SWAP1 PUSH1 0x0 MSTORE PUSH1 0x20 PUSH1 0x0 KECCAK256 SWAP1 JUMPDEST DUP2 SLOAD DUP2 MSTORE SWAP1 PUSH1 0x1 ADD SWAP1 PUSH1 0x20 ADD DUP1 DUP4 GT PUSH2 0x617 JUMPI DUP3 SWAP1 SUB PUSH1 0x1F AND DUP3 ADD SWAP2 JUMPDEST POP POP POP POP POP DUP2 JUMP JUMPDEST PUSH1 0x1 DUP2 DUP2 SLOAD DUP2 LT PUSH2 0x64C JUMPI PUSH1 0x0 DUP1 REVERT JUMPDEST SWAP1 PUSH1 0x0 MSTORE PUSH1 0x20 PUSH1 0x0 KECCAK256 ADD PUSH1 0x0 SWAP2 POP SLOAD SWAP1 PUSH2 0x100 EXP SWAP1 DIV PUSH20 0xFFFFFFFFFFFFFFFFFFFFFFFFFFFFFFFFFFFFFFFF AND DUP2 JUMP JUMPDEST PUSH1 0x0 DUP1 SLOAD SWAP1 PUSH2 0x100 EXP SWAP1 DIV PUSH20 0xFFFFFFFFFFFFFFFFFFFFFFFFFFFFFFFFFFFFFFFF AND PUSH20 0xFFFFFFFFFFFFFFFFFFFFFFFFFFFFFFFFFFFFFFFF AND CALLER PUSH20 0xFFFFFFFFFFFFFFFFFFFFFFFFFFFFFFFFFFFFFFFF AND EQ PUSH2 0x709 JUMPI PUSH1 0x40 MLOAD PUSH32 0x8C379A000000000000000000000000000000000000000000000000000000000 DUP2 MSTORE PUSH1 0x4 ADD PUSH2 0x700 SWAP1 PUSH2 0xFCF JUMP JUMPDEST PUSH1 0x40 MLOAD DUP1 SWAP2 SUB SWAP1 REVERT JUMPDEST PUSH1 0x1 DUP2 SWAP1 DUP1 PUSH1 0x1 DUP2 SLOAD ADD DUP1 DUP3 SSTORE DUP1 SWAP2 POP POP PUSH1 0x1 SWAP1 SUB SWAP1 PUSH1 0x0 MSTORE PUSH1 0x20 PUSH1 0x0 KECCAK256 ADD PUSH1 0x0 SWAP1 SWAP2 SWAP1 SWAP2 SWAP1 SWAP2 PUSH2 0x100 EXP DUP2 SLOAD DUP2 PUSH20 0xFFFFFFFFFFFFFFFFFFFFFFFFFFFFFFFFFFFFFFFF MUL NOT AND SWAP1 DUP4 PUSH20 0xFFFFFFFFFFFFFFFFFFFFFFFFFFFFFFFFFFFFFFFF AND MUL OR SWAP1 SSTORE POP POP JUMP JUMPDEST PUSH1 0x0 DUP1 SLOAD SWAP1 PUSH2 0x100 EXP SWAP1 DIV PUSH20 0xFFFFFFFFFFFFFFFFFFFFFFFFFFFFFFFFFFFFFFFF AND DUP2 JUMP JUMPDEST PUSH1 0x0 DUP1 SLOAD SWAP1 PUSH2 0x100 EXP SWAP1 DIV PUSH20 0xFFFFFFFFFFFFFFFFFFFFFFFFFFFFFFFFFFFFFFFF AND PUSH20 0xFFFFFFFFFFFFFFFFFFFFFFFFFFFFFFFFFFFFFFFF AND CALLER PUSH20 0xFFFFFFFFFFFFFFFFFFFFFFFFFFFFFFFFFFFFFFFF AND EQ PUSH2 0x821 JUMPI PUSH1 0x40 MLOAD PUSH32 0x8C379A000000000000000000000000000000000000000000000000000000000 DUP2 MSTORE PUSH1 0x4 ADD PUSH2 0x818 SWAP1 PUSH2 0xFCF JUMP JUMPDEST PUSH1 0x40 MLOAD DUP1 SWAP2 SUB SWAP1 REVERT JUMPDEST JUMP JUMPDEST PUSH1 0x3 PUSH1 0x20 MSTORE DUP1 PUSH1 0x0 MSTORE PUSH1 0x40 PUSH1 0x0 KECCAK256 PUSH1 0x0 SWAP2 POP SWAP1 POP DUP1 SLOAD PUSH2 0x842 SWAP1 PUSH2 0xF52 JUMP JUMPDEST DUP1 PUSH1 0x1F ADD PUSH1 0x20 DUP1 SWAP2 DIV MUL PUSH1 0x20 ADD PUSH1 0x40 MLOAD SWAP1 DUP2 ADD PUSH1 0x40 MSTORE DUP1 SWAP3 SWAP2 SWAP1 DUP2 DUP2 MSTORE PUSH1 0x20 ADD DUP3 DUP1 SLOAD PUSH2 0x86E SWAP1 PUSH2 0xF52 JUMP JUMPDEST DUP1 ISZERO PUSH2 0x8BB JUMPI DUP1 PUSH1 0x1F LT PUSH2 0x890 JUMPI PUSH2 0x100 DUP1 DUP4 SLOAD DIV MUL DUP4 MSTORE SWAP2 PUSH1 0x20 ADD SWAP2 PUSH2 0x8BB JUMP JUMPDEST DUP3 ADD SWAP2 SWAP1 PUSH1 0x0 MSTORE PUSH1 0x20 PUSH1 0x0 KECCAK256 SWAP1 JUMPDEST DUP2 SLOAD DUP2 MSTORE SWAP1 PUSH1 0x1 ADD SWAP1 PUSH1 0x20 ADD DUP1 DUP4 GT PUSH2 0x89E JUMPI DUP3 SWAP1 SUB PUSH1 0x1F AND DUP3 ADD SWAP2 JUMPDEST POP POP POP POP POP DUP2 JUMP JUMPDEST PUSH1 0x0 DUP1 SLOAD SWAP1 PUSH2 0x100 EXP SWAP1 DIV PUSH20 0xFFFFFFFFFFFFFFFFFFFFFFFFFFFFFFFFFFFFFFFF AND PUSH20 0xFFFFFFFFFFFFFFFFFFFFFFFFFFFFFFFFFFFFFFFF AND CALLER PUSH20 0xFFFFFFFFFFFFFFFFFFFFFFFFFFFFFFFFFFFFFFFF AND EQ PUSH2 0x951 JUMPI PUSH1 0x40 MLOAD PUSH32 0x8C379A000000000000000000000000000000000000000000000000000000000 DUP2 MSTORE PUSH1 0x4 ADD PUSH2 0x948 SWAP1 PUSH2 0xFCF JUMP JUMPDEST PUSH1 0x40 MLOAD DUP1 SWAP2 SUB SWAP1 REVERT JUMPDEST PUSH1 0x1 DUP1 SLOAD SWAP1 POP PUSH1 0x2 DUP1 SLOAD SWAP1 POP GT PUSH2 0xB1D JUMPI PUSH1 0x0 JUMPDEST PUSH1 0x2 DUP1 SLOAD SWAP1 POP DUP2 LT ISZERO PUSH2 0xB1B JUMPI PUSH1 0x2 DUP2 DUP2 SLOAD DUP2 LT PUSH2 0x986 JUMPI PUSH2 0x985 PUSH2 0x1052 JUMP JUMPDEST JUMPDEST SWAP1 PUSH1 0x0 MSTORE PUSH1 0x20 PUSH1 0x0 KECCAK256 ADD PUSH1 0x3 PUSH1 0x0 PUSH1 0x1 DUP5 DUP2 SLOAD DUP2 LT PUSH2 0x9A8 JUMPI PUSH2 0x9A7 PUSH2 0x1052 JUMP JUMPDEST JUMPDEST SWAP1 PUSH1 0x0 MSTORE PUSH1 0x20 PUSH1 0x0 KECCAK256 ADD PUSH1 0x0 SWAP1 SLOAD SWAP1 PUSH2 0x100 EXP SWAP1 DIV PUSH20 0xFFFFFFFFFFFFFFFFFFFFFFFFFFFFFFFFFFFFFFFF AND PUSH20 0xFFFFFFFFFFFFFFFFFFFFFFFFFFFFFFFFFFFFFFFF AND PUSH20 0xFFFFFFFFFFFFFFFFFFFFFFFFFFFFFFFFFFFFFFFF AND DUP2 MSTORE PUSH1 0x20 ADD SWAP1 DUP2 MSTORE PUSH1 0x20 ADD PUSH1 0x0 KECCAK256 SWAP1 DUP2 PUSH2 0xA19 SWAP2 SWAP1 PUSH2 0x12CF JUMP JUMPDEST POP PUSH2 0xB08 PUSH1 0x1 DUP3 DUP2 SLOAD DUP2 LT PUSH2 0xA31 JUMPI PUSH2 0xA30 PUSH2 0x1052 JUMP JUMPDEST JUMPDEST SWAP1 PUSH1 0x0 MSTORE PUSH1 0x20 PUSH1 0x0 KECCAK256 ADD PUSH1 0x0 SWAP1 SLOAD SWAP1 PUSH2 0x100 EXP SWAP1 DIV PUSH20 0xFFFFFFFFFFFFFFFFFFFFFFFFFFFFFFFFFFFFFFFF AND PUSH1 0x2 DUP4 DUP2 SLOAD DUP2 LT PUSH2 0xA70 JUMPI PUSH2 0xA6F PUSH2 0x1052 JUMP JUMPDEST JUMPDEST SWAP1 PUSH1 0x0 MSTORE PUSH1 0x20 PUSH1 0x0 KECCAK256 ADD DUP1 SLOAD PUSH2 0xA85 SWAP1 PUSH2 0xF52 JUMP JUMPDEST DUP1 PUSH1 0x1F ADD PUSH1 0x20 DUP1 SWAP2 DIV MUL PUSH1 0x20 ADD PUSH1 0x40 MLOAD SWAP1 DUP2 ADD PUSH1 0x40 MSTORE DUP1 SWAP3 SWAP2 SWAP1 DUP2 DUP2 MSTORE PUSH1 0x20 ADD DUP3 DUP1 SLOAD PUSH2 0xAB1 SWAP1 PUSH2 0xF52 JUMP JUMPDEST DUP1 ISZERO PUSH2 0xAFE JUMPI DUP1 PUSH1 0x1F LT PUSH2 0xAD3 JUMPI PUSH2 0x100 DUP1 DUP4 SLOAD DIV MUL DUP4 MSTORE SWAP2 PUSH1 0x20 ADD SWAP2 PUSH2 0xAFE JUMP JUMPDEST DUP3 ADD SWAP2 SWAP1 PUSH1 0x0 MSTORE PUSH1 0x20 PUSH1 0x0 KECCAK256 SWAP1 JUMPDEST DUP2 SLOAD DUP2 MSTORE SWAP1 PUSH1 0x1 ADD SWAP1 PUSH1 0x20 ADD DUP1 DUP4 GT PUSH2 0xAE1 JUMPI DUP3 SWAP1 SUB PUSH1 0x1F AND DUP3 ADD SWAP2 JUMPDEST POP POP POP POP POP PUSH2 0x2DA JUMP JUMPDEST DUP1 DUP1 PUSH2 0xB13 SWAP1 PUSH2 0x10B0 JUMP JUMPDEST SWAP2 POP POP PUSH2 0x965 JUMP JUMPDEST POP JUMPDEST JUMP JUMPDEST PUSH1 0x0 PUSH1 0x40 MLOAD SWAP1 POP SWAP1 JUMP JUMPDEST PUSH1 0x0 DUP1 REVERT JUMPDEST PUSH1 0x0 DUP1 REVERT JUMPDEST PUSH1 0x0 PUSH20 0xFFFFFFFFFFFFFFFFFFFFFFFFFFFFFFFFFFFFFFFF DUP3 AND SWAP1 POP SWAP2 SWAP1 POP JUMP JUMPDEST PUSH1 0x0 PUSH2 0xB5E DUP3 PUSH2 0xB33 JUMP JUMPDEST SWAP1 POP SWAP2 SWAP1 POP JUMP JUMPDEST PUSH2 0xB6E DUP2 PUSH2 0xB53 JUMP JUMPDEST DUP2 EQ PUSH2 0xB79 JUMPI PUSH1 0x0 DUP1 REVERT JUMPDEST POP JUMP JUMPDEST PUSH1 0x0 DUP2 CALLDATALOAD SWAP1 POP PUSH2 0xB8B DUP2 PUSH2 0xB65 JUMP JUMPDEST SWAP3 SWAP2 POP POP JUMP JUMPDEST PUSH1 0x0 PUSH1 0x20 DUP3 DUP5 SUB SLT ISZERO PUSH2 0xBA7 JUMPI PUSH2 0xBA6 PUSH2 0xB29 JUMP JUMPDEST JUMPDEST PUSH1 0x0 PUSH2 0xBB5 DUP5 DUP3 DUP6 ADD PUSH2 0xB7C JUMP JUMPDEST SWAP2 POP POP SWAP3 SWAP2 POP POP JUMP JUMPDEST PUSH1 0x0 DUP2 MLOAD SWAP1 POP SWAP2 SWAP1 POP JUMP JUMPDEST PUSH1 0x0 DUP3 DUP3 MSTORE PUSH1 0x20 DUP3 ADD SWAP1 POP SWAP3 SWAP2 POP POP JUMP JUMPDEST PUSH1 0x0 JUMPDEST DUP4 DUP2 LT ISZERO PUSH2 0xBF8 JUMPI DUP1 DUP3 ADD MLOAD DUP2 DUP5 ADD MSTORE PUSH1 0x20 DUP2 ADD SWAP1 POP PUSH2 0xBDD JUMP JUMPDEST PUSH1 0x0 DUP5 DUP5 ADD MSTORE POP POP POP POP JUMP JUMPDEST PUSH1 0x0 PUSH1 0x1F NOT PUSH1 0x1F DUP4 ADD AND SWAP1 POP SWAP2 SWAP1 POP JUMP JUMPDEST PUSH1 0x0 PUSH2 0xC20 DUP3 PUSH2 0xBBE JUMP JUMPDEST PUSH2 0xC2A DUP2 DUP6 PUSH2 0xBC9 JUMP JUMPDEST SWAP4 POP PUSH2 0xC3A DUP2 DUP6 PUSH1 0x20 DUP7 ADD PUSH2 0xBDA JUMP JUMPDEST PUSH2 0xC43 DUP2 PUSH2 0xC04 JUMP JUMPDEST DUP5 ADD SWAP2 POP POP SWAP3 SWAP2 POP POP JUMP JUMPDEST PUSH1 0x0 PUSH1 0x20 DUP3 ADD SWAP1 POP DUP2 DUP2 SUB PUSH1 0x0 DUP4 ADD MSTORE PUSH2 0xC68 DUP2 DUP5 PUSH2 0xC15 JUMP JUMPDEST SWAP1 POP SWAP3 SWAP2 POP POP JUMP JUMPDEST PUSH1 0x0 PUSH2 0xC7B DUP3 PUSH2 0xB33 JUMP JUMPDEST SWAP1 POP SWAP2 SWAP1 POP JUMP JUMPDEST PUSH2 0xC8B DUP2 PUSH2 0xC70 JUMP JUMPDEST DUP2 EQ PUSH2 0xC96 JUMPI PUSH1 0x0 DUP1 REVERT JUMPDEST POP JUMP JUMPDEST PUSH1 0x0 DUP2 CALLDATALOAD SWAP1 POP PUSH2 0xCA8 DUP2 PUSH2 0xC82 JUMP JUMPDEST SWAP3 SWAP2 POP POP JUMP JUMPDEST PUSH1 0x0 DUP1 REVERT JUMPDEST PUSH1 0x0 DUP1 REVERT JUMPDEST PUSH32 0x4E487B7100000000000000000000000000000000000000000000000000000000 PUSH1 0x0 MSTORE PUSH1 0x41 PUSH1 0x4 MSTORE PUSH1 0x24 PUSH1 0x0 REVERT JUMPDEST PUSH2 0xCF0 DUP3 PUSH2 0xC04 JUMP JUMPDEST DUP2 ADD DUP2 DUP2 LT PUSH8 0xFFFFFFFFFFFFFFFF DUP3 GT OR ISZERO PUSH2 0xD0F JUMPI PUSH2 0xD0E PUSH2 0xCB8 JUMP JUMPDEST JUMPDEST DUP1 PUSH1 0x40 MSTORE POP POP POP JUMP JUMPDEST PUSH1 0x0 PUSH2 0xD22 PUSH2 0xB1F JUMP JUMPDEST SWAP1 POP PUSH2 0xD2E DUP3 DUP3 PUSH2 0xCE7 JUMP JUMPDEST SWAP2 SWAP1 POP JUMP JUMPDEST PUSH1 0x0 PUSH8 0xFFFFFFFFFFFFFFFF DUP3 GT ISZERO PUSH2 0xD4E JUMPI PUSH2 0xD4D PUSH2 0xCB8 JUMP JUMPDEST JUMPDEST PUSH2 0xD57 DUP3 PUSH2 0xC04 JUMP JUMPDEST SWAP1 POP PUSH1 0x20 DUP2 ADD SWAP1 POP SWAP2 SWAP1 POP JUMP JUMPDEST DUP3 DUP2 DUP4 CALLDATACOPY PUSH1 0x0 DUP4 DUP4 ADD MSTORE POP POP POP JUMP JUMPDEST PUSH1 0x0 PUSH2 0xD86 PUSH2 0xD81 DUP5 PUSH2 0xD33 JUMP JUMPDEST PUSH2 0xD18 JUMP JUMPDEST SWAP1 POP DUP3 DUP2 MSTORE PUSH1 0x20 DUP2 ADD DUP5 DUP5 DUP5 ADD GT ISZERO PUSH2 0xDA2 JUMPI PUSH2 0xDA1 PUSH2 0xCB3 JUMP JUMPDEST JUMPDEST PUSH2 0xDAD DUP5 DUP3 DUP6 PUSH2 0xD64 JUMP JUMPDEST POP SWAP4 SWAP3 POP POP POP JUMP JUMPDEST PUSH1 0x0 DUP3 PUSH1 0x1F DUP4 ADD SLT PUSH2 0xDCA JUMPI PUSH2 0xDC9 PUSH2 0xCAE JUMP JUMPDEST JUMPDEST DUP2 CALLDATALOAD PUSH2 0xDDA DUP5 DUP3 PUSH1 0x20 DUP7 ADD PUSH2 0xD73 JUMP JUMPDEST SWAP2 POP POP SWAP3 SWAP2 POP POP JUMP JUMPDEST PUSH1 0x0 DUP1 PUSH1 0x40 DUP4 DUP6 SUB SLT ISZERO PUSH2 0xDFA JUMPI PUSH2 0xDF9 PUSH2 0xB29 JUMP JUMPDEST JUMPDEST PUSH1 0x0 PUSH2 0xE08 DUP6 DUP3 DUP7 ADD PUSH2 0xC99 JUMP JUMPDEST SWAP3 POP POP PUSH1 0x20 DUP4 ADD CALLDATALOAD PUSH8 0xFFFFFFFFFFFFFFFF DUP2 GT ISZERO PUSH2 0xE29 JUMPI PUSH2 0xE28 PUSH2 0xB2E JUMP JUMPDEST JUMPDEST PUSH2 0xE35 DUP6 DUP3 DUP7 ADD PUSH2 0xDB5 JUMP JUMPDEST SWAP2 POP POP SWAP3 POP SWAP3 SWAP1 POP JUMP JUMPDEST PUSH1 0x0 DUP2 SWAP1 POP SWAP2 SWAP1 POP JUMP JUMPDEST PUSH2 0xE52 DUP2 PUSH2 0xE3F JUMP JUMPDEST DUP2 EQ PUSH2 0xE5D JUMPI PUSH1 0x0 DUP1 REVERT JUMPDEST POP JUMP JUMPDEST PUSH1 0x0 DUP2 CALLDATALOAD SWAP1 POP PUSH2 0xE6F DUP2 PUSH2 0xE49 JUMP JUMPDEST SWAP3 SWAP2 POP POP JUMP JUMPDEST PUSH1 0x0 PUSH1 0x20 DUP3 DUP5 SUB SLT ISZERO PUSH2 0xE8B JUMPI PUSH2 0xE8A PUSH2 0xB29 JUMP JUMPDEST JUMPDEST PUSH1 0x0 PUSH2 0xE99 DUP5 DUP3 DUP6 ADD PUSH2 0xE60 JUMP JUMPDEST SWAP2 POP POP SWAP3 SWAP2 POP POP JUMP JUMPDEST PUSH1 0x0 PUSH1 0x20 DUP3 DUP5 SUB SLT ISZERO PUSH2 0xEB8 JUMPI PUSH2 0xEB7 PUSH2 0xB29 JUMP JUMPDEST JUMPDEST PUSH1 0x0 PUSH2 0xEC6 DUP5 DUP3 DUP6 ADD PUSH2 0xC99 JUMP JUMPDEST SWAP2 POP POP SWAP3 SWAP2 POP POP JUMP JUMPDEST PUSH2 0xED8 DUP2 PUSH2 0xC70 JUMP JUMPDEST DUP3 MSTORE POP POP JUMP JUMPDEST PUSH1 0x0 PUSH1 0x20 DUP3 ADD SWAP1 POP PUSH2 0xEF3 PUSH1 0x0 DUP4 ADD DUP5 PUSH2 0xECF JUMP JUMPDEST SWAP3 SWAP2 POP POP JUMP JUMPDEST PUSH2 0xF02 DUP2 PUSH2 0xB53 JUMP JUMPDEST DUP3 MSTORE POP POP JUMP JUMPDEST PUSH1 0x0 PUSH1 0x20 DUP3 ADD SWAP1 POP PUSH2 0xF1D PUSH1 0x0 DUP4 ADD DUP5 PUSH2 0xEF9 JUMP JUMPDEST SWAP3 SWAP2 POP POP JUMP JUMPDEST PUSH32 0x4E487B7100000000000000000000000000000000000000000000000000000000 PUSH1 0x0 MSTORE PUSH1 0x22 PUSH1 0x4 MSTORE PUSH1 0x24 PUSH1 0x0 REVERT JUMPDEST PUSH1 0x0 PUSH1 0x2 DUP3 DIV SWAP1 POP PUSH1 0x1 DUP3 AND DUP1 PUSH2 0xF6A JUMPI PUSH1 0x7F DUP3 AND SWAP2 POP JUMPDEST PUSH1 0x20 DUP3 LT DUP2 SUB PUSH2 0xF7D JUMPI PUSH2 0xF7C PUSH2 0xF23 JUMP JUMPDEST JUMPDEST POP SWAP2 SWAP1 POP JUMP JUMPDEST PUSH32 0x6F6E6C79206F776E65722063616E207069636B207468652077696E6E65720000 PUSH1 0x0 DUP3 ADD MSTORE POP JUMP JUMPDEST PUSH1 0x0 PUSH2 0xFB9 PUSH1 0x1E DUP4 PUSH2 0xBC9 JUMP JUMPDEST SWAP2 POP PUSH2 0xFC4 DUP3 PUSH2 0xF83 JUMP JUMPDEST PUSH1 0x20 DUP3 ADD SWAP1 POP SWAP2 SWAP1 POP JUMP JUMPDEST PUSH1 0x0 PUSH1 0x20 DUP3 ADD SWAP1 POP DUP2 DUP2 SUB PUSH1 0x0 DUP4 ADD MSTORE PUSH2 0xFE8 DUP2 PUSH2 0xFAC JUMP JUMPDEST SWAP1 POP SWAP2 SWAP1 POP JUMP JUMPDEST PUSH32 0x4E487B7100000000000000000000000000000000000000000000000000000000 PUSH1 0x0 MSTORE PUSH1 0x11 PUSH1 0x4 MSTORE PUSH1 0x24 PUSH1 0x0 REVERT JUMPDEST PUSH1 0x0 PUSH2 0x1029 DUP3 PUSH2 0xE3F JUMP JUMPDEST SWAP2 POP PUSH2 0x1034 DUP4 PUSH2 0xE3F JUMP JUMPDEST SWAP3 POP DUP3 DUP3 SUB SWAP1 POP DUP2 DUP2 GT ISZERO PUSH2 0x104C JUMPI PUSH2 0x104B PUSH2 0xFEF JUMP JUMPDEST JUMPDEST SWAP3 SWAP2 POP POP JUMP JUMPDEST PUSH32 0x4E487B7100000000000000000000000000000000000000000000000000000000 PUSH1 0x0 MSTORE PUSH1 0x32 PUSH1 0x4 MSTORE PUSH1 0x24 PUSH1 0x0 REVERT JUMPDEST PUSH32 0x4E487B7100000000000000000000000000000000000000000000000000000000 PUSH1 0x0 MSTORE PUSH1 0x31 PUSH1 0x4 MSTORE PUSH1 0x24 PUSH1 0x0 REVERT JUMPDEST PUSH1 0x0 PUSH2 0x10BB DUP3 PUSH2 0xE3F JUMP JUMPDEST SWAP2 POP PUSH32 0xFFFFFFFFFFFFFFFFFFFFFFFFFFFFFFFFFFFFFFFFFFFFFFFFFFFFFFFFFFFFFFFF DUP3 SUB PUSH2 0x10ED JUMPI PUSH2 0x10EC PUSH2 0xFEF JUMP JUMPDEST JUMPDEST PUSH1 0x1 DUP3 ADD SWAP1 POP SWAP2 SWAP1 POP JUMP JUMPDEST PUSH1 0x0 DUP2 SLOAD SWAP1 POP PUSH2 0x1107 DUP2 PUSH2 0xF52 JUMP JUMPDEST SWAP1 POP SWAP2 SWAP1 POP JUMP JUMPDEST PUSH1 0x0 DUP2 SWAP1 POP DUP2 PUSH1 0x0 MSTORE PUSH1 0x20 PUSH1 0x0 KECCAK256 SWAP1 POP SWAP2 SWAP1 POP JUMP JUMPDEST PUSH1 0x0 DUP2 SWAP1 POP DUP2 PUSH1 0x0 MSTORE PUSH1 0x20 PUSH1 0x0 KECCAK256 SWAP1 POP SWAP2 SWAP1 POP JUMP JUMPDEST PUSH1 0x0 PUSH1 0x20 PUSH1 0x1F DUP4 ADD DIV SWAP1 POP SWAP2 SWAP1 POP JUMP JUMPDEST PUSH1 0x0 DUP3 DUP3 SHL SWAP1 POP SWAP3 SWAP2 POP POP JUMP JUMPDEST PUSH1 0x0 PUSH1 0x8 DUP4 MUL PUSH2 0x1185 PUSH32 0xFFFFFFFFFFFFFFFFFFFFFFFFFFFFFFFFFFFFFFFFFFFFFFFFFFFFFFFFFFFFFFFF DUP3 PUSH2 0x1148 JUMP JUMPDEST PUSH2 0x118F DUP7 DUP4 PUSH2 0x1148 JUMP JUMPDEST SWAP6 POP DUP1 NOT DUP5 AND SWAP4 POP DUP1 DUP7 AND DUP5 OR SWAP3 POP POP POP SWAP4 SWAP3 POP POP POP JUMP JUMPDEST PUSH1 0x0 DUP2 SWAP1 POP SWAP2 SWAP1 POP JUMP JUMPDEST PUSH1 0x0 PUSH2 0x11CC PUSH2 0x11C7 PUSH2 0x11C2 DUP5 PUSH2 0xE3F JUMP JUMPDEST PUSH2 0x11A7 JUMP JUMPDEST PUSH2 0xE3F JUMP JUMPDEST SWAP1 POP SWAP2 SWAP1 POP JUMP JUMPDEST PUSH1 0x0 DUP2 SWAP1 POP SWAP2 SWAP1 POP JUMP JUMPDEST PUSH2 0x11E6 DUP4 PUSH2 0x11B1 JUMP JUMPDEST PUSH2 0x11FA PUSH2 0x11F2 DUP3 PUSH2 0x11D3 JUMP JUMPDEST DUP5 DUP5 SLOAD PUSH2 0x1155 JUMP JUMPDEST DUP3 SSTORE POP POP POP POP JUMP JUMPDEST PUSH1 0x0 SWAP1 JUMP JUMPDEST PUSH2 0x120F PUSH2 0x1202 JUMP JUMPDEST PUSH2 0x121A DUP2 DUP5 DUP5 PUSH2 0x11DD JUMP JUMPDEST POP POP POP JUMP JUMPDEST JUMPDEST DUP2 DUP2 LT ISZERO PUSH2 0x123E JUMPI PUSH2 0x1233 PUSH1 0x0 DUP3 PUSH2 0x1207 JUMP JUMPDEST PUSH1 0x1 DUP2 ADD SWAP1 POP PUSH2 0x1220 JUMP JUMPDEST POP POP JUMP JUMPDEST PUSH1 0x1F DUP3 GT ISZERO PUSH2 0x1283 JUMPI PUSH2 0x1254 DUP2 PUSH2 0x110E JUMP JUMPDEST PUSH2 0x125D DUP5 PUSH2 0x1138 JUMP JUMPDEST DUP2 ADD PUSH1 0x20 DUP6 LT ISZERO PUSH2 0x126C JUMPI DUP2 SWAP1 POP JUMPDEST PUSH2 0x1280 PUSH2 0x1278 DUP6 PUSH2 0x1138 JUMP JUMPDEST DUP4 ADD DUP3 PUSH2 0x121F JUMP JUMPDEST POP POP JUMPDEST POP POP POP JUMP JUMPDEST PUSH1 0x0 DUP3 DUP3 SHR SWAP1 POP SWAP3 SWAP2 POP POP JUMP JUMPDEST PUSH1 0x0 PUSH2 0x12A6 PUSH1 0x0 NOT DUP5 PUSH1 0x8 MUL PUSH2 0x1288 JUMP JUMPDEST NOT DUP1 DUP4 AND SWAP2 POP POP SWAP3 SWAP2 POP POP JUMP JUMPDEST PUSH1 0x0 PUSH2 0x12BF DUP4 DUP4 PUSH2 0x1295 JUMP JUMPDEST SWAP2 POP DUP3 PUSH1 0x2 MUL DUP3 OR SWAP1 POP SWAP3 SWAP2 POP POP JUMP JUMPDEST DUP2 DUP2 SUB PUSH2 0x12DD JUMPI POP POP PUSH2 0x13B5 JUMP JUMPDEST PUSH2 0x12E6 DUP3 PUSH2 0x10F8 JUMP JUMPDEST PUSH8 0xFFFFFFFFFFFFFFFF DUP2 GT ISZERO PUSH2 0x12FF JUMPI PUSH2 0x12FE PUSH2 0xCB8 JUMP JUMPDEST JUMPDEST PUSH2 0x1309 DUP3 SLOAD PUSH2 0xF52 JUMP JUMPDEST PUSH2 0x1314 DUP3 DUP3 DUP6 PUSH2 0x1242 JUMP JUMPDEST PUSH1 0x0 PUSH1 0x1F DUP4 GT PUSH1 0x1 DUP2 EQ PUSH2 0x1343 JUMPI PUSH1 0x0 DUP5 ISZERO PUSH2 0x1331 JUMPI DUP3 DUP8 ADD SLOAD SWAP1 POP JUMPDEST PUSH2 0x133B DUP6 DUP3 PUSH2 0x12B3 JUMP JUMPDEST DUP7 SSTORE POP PUSH2 0x13AE JUMP JUMPDEST PUSH1 0x1F NOT DUP5 AND PUSH2 0x1351 DUP8 PUSH2 0x1123 JUMP JUMPDEST SWAP7 POP PUSH2 0x135C DUP7 PUSH2 0x110E JUMP JUMPDEST PUSH1 0x0 JUMPDEST DUP3 DUP2 LT ISZERO PUSH2 0x1384 JUMPI DUP5 DUP10 ADD SLOAD DUP3 SSTORE PUSH1 0x1 DUP3 ADD SWAP2 POP PUSH1 0x1 DUP6 ADD SWAP5 POP PUSH1 0x20 DUP2 ADD SWAP1 POP PUSH2 0x135F JUMP JUMPDEST DUP7 DUP4 LT ISZERO PUSH2 0x13A1 JUMPI DUP5 DUP10 ADD SLOAD PUSH2 0x139D PUSH1 0x1F DUP10 AND DUP3 PUSH2 0x1295 JUMP JUMPDEST DUP4 SSTORE POP JUMPDEST PUSH1 0x1 PUSH1 0x2 DUP9 MUL ADD DUP9 SSTORE POP POP POP JUMPDEST POP POP POP POP POP POP JUMPDEST JUMP INVALID LOG2 PUSH5 0x6970667358 0x22 SLT KECCAK256 0xDF 0x1E 0x4E PUSH28 0x79C8BA904B5C67D99DF715E10F828B821C9EFD176228F3FF4AD6F34E PUSH5 0x736F6C6343 STOP ADDMOD GT STOP CALLER "
				},
				"gasEstimates": {
					"creation": {
						"codeDepositCost": "1020200",
						"executionCost": "infinite",
						"totalCost": "infinite"
					},
					"external": {
						"addShareHolders(address)": "51223",
						"askingFromHolders()": "2666",
						"distribute()": "infinite",
						"notifySendingToHolders(address,string)": "infinite",
						"owner()": "2555",
						"regenerate(address)": "456",
						"remove(uint256)": "infinite",
						"removeShareHolders(address)": "infinite",
						"shareHolders(uint256)": "4956",
						"shareHoldersMap(address)": "infinite",
						"shares(uint256)": "infinite",
						"sharesMap(address)": "infinite"
					}
				},
				"methodIdentifiers": {
					"addShareHolders(address)": "790a0940",
					"askingFromHolders()": "9a5eec33",
					"distribute()": "e4fc6b6d",
					"notifySendingToHolders(address,string)": "3f8b4866",
					"owner()": "8da5cb5b",
					"regenerate(address)": "0623f1d7",
					"remove(uint256)": "4cc82215",
					"removeShareHolders(address)": "50e78191",
					"shareHolders(uint256)": "7427a40c",
					"shareHoldersMap(address)": "d534cc0e",
					"shares(uint256)": "57a858fc",
					"sharesMap(address)": "1e1cf160"
				}
			},
			"storageLayout": {
				"storage": [
					{
						"astId": 3,
						"contract": "contracts/ShareSecret.sol:SecretShare",
						"label": "owner",
						"offset": 0,
						"slot": "0",
						"type": "t_address"
					},
					{
						"astId": 6,
						"contract": "contracts/ShareSecret.sol:SecretShare",
						"label": "shareHolders",
						"offset": 0,
						"slot": "1",
						"type": "t_array(t_address_payable)dyn_storage"
					},
					{
						"astId": 22,
						"contract": "contracts/ShareSecret.sol:SecretShare",
						"label": "shares",
						"offset": 0,
						"slot": "2",
						"type": "t_array(t_string_storage)dyn_storage"
					},
					{
						"astId": 26,
						"contract": "contracts/ShareSecret.sol:SecretShare",
						"label": "shareHoldersMap",
						"offset": 0,
						"slot": "3",
						"type": "t_mapping(t_address,t_string_storage)"
					},
					{
						"astId": 30,
						"contract": "contracts/ShareSecret.sol:SecretShare",
						"label": "sharesMap",
						"offset": 0,
						"slot": "4",
						"type": "t_mapping(t_address,t_string_storage)"
					}
				],
				"types": {
					"t_address": {
						"encoding": "inplace",
						"label": "address",
						"numberOfBytes": "20"
					},
					"t_address_payable": {
						"encoding": "inplace",
						"label": "address payable",
						"numberOfBytes": "20"
					},
					"t_array(t_address_payable)dyn_storage": {
						"base": "t_address_payable",
						"encoding": "dynamic_array",
						"label": "address payable[]",
						"numberOfBytes": "32"
					},
					"t_array(t_string_storage)dyn_storage": {
						"base": "t_string_storage",
						"encoding": "dynamic_array",
						"label": "string[]",
						"numberOfBytes": "32"
					},
					"t_mapping(t_address,t_string_storage)": {
						"encoding": "mapping",
						"key": "t_address",
						"label": "mapping(address => string)",
						"numberOfBytes": "32",
						"value": "t_string_storage"
					},
					"t_string_storage": {
						"encoding": "bytes",
						"label": "string",
						"numberOfBytes": "32"
					}
				}
			},
			"userdoc": {
				"kind": "user",
				"methods": {},
				"version": 1
			}
		}
	}
}